:100000000C94EE070C9416080C9416080C94160821
:100010000C9416080C9416080C9416080C941608E8
:100020000C9416080C9416080C9417180C94891844
:100030000C9416080C9416080C9416080C941608C8
:100040000C9416080C9416080C9416080C941608B8
:100050000C9416080C9416080C9416080C94D60FE1
:100060000C9416080C9416080C9416080C94160898
:100070000C9416080C9416080C9416080C94160888
:100080000C9416080C9416080C9416080C94160878
:100090000C9420100C9416080C9416080C94160856
:1000A0000C9416080C9416080C9416086B086E082D
:1000B0005D08610867088F088F088F087208760846
:1000C0007A08800884088F088A080000000024004D
:1000D00027002A002D003000DB40A4A62EAFDA0254
:1000E00081DA1281DA02818F2000A1C8D300408D0D
:1000F000AED580A804080201104080401020408046
:10010000408008020401804020100201108010206D
:1001100040402000000000250028002B002E003168
:10012000000404040404030405020202020403029E
:10013000020202060606060606040402020204047F
:10014000000060000000000000000000000000004F
:1001500000E00000000000000000000000000001BE
:10016000E00000000000000000000000000001F0BE
:100170000000000000000000000000000003F0008C
:1001800000000000000000000000000007F0000078
:10019000000000000000000000000007F800000060
:1001A000000000000000000000000FF80000000345
:1001B000C0007E000001E0007F0FF800000003C0D7
:1001C00000FE000001E000FFEFF800000003C000A7
:1001D000FE000001E000FFFFF800000003C000F097
:1001E0000000000F007FFE7FC0000003C000F00091
:1001F00000000F003FFE7FF83FF1FBCFFCFEF3BC99
:100200003DEFE01FFE7FFF7FFBFFDFFEFEFFBC3DFB
:10021000EFE01FC6FFFF7FFBFFDFFEFEFFBC3DEFF1
:10022000E00FE3C7FE787BC3DE1EF0FFBC3DEF00AE
:1002300007FF87FC787BC3DE1EF0F83C3DEF000132
:10024000FFFFF0007BC3C01EF0F03C3DEF0001F368
:100250007FE03FFBC3CFFEF0F03C3DEF0003E33F08
:10026000807FFBC3DFFEF0F03C3DEF0007E73C0082
:10027000787BC3DE1EF0F03C3DEF0007FFBE007848
:100280007BC3DE1EF0F03C3DEF0007FFFE00787BF5
:10029000C3DE1EF0F03C3DEF000FFFFE007FFBFFD2
:1002A000DFFEF0F03FFDEFE00FFFFF007FFBFFDF21
:1002B000FEF0F03FFDEFE00FF9FF003E79F9CF9E31
:1002C000F0F01F3DE7E01FF1FF000000000000001C
:1002D00000000000001F80FF007FFFFFFFFFFFFF07
:1002E000FFFFFFE01C007F007FFFFFFFFEB46D8873
:1002F0008D18E000001F007FFFFFFFFE95AD7DB56C
:1003000077E000000F007FFFFFFFFEA5AD9D8D1978
:10031000E0000006007FFFFFFFFEB5ADEDB57EE01B
:10032000000000000001800000000000000000004C
:10033000038000000000000000000007C000000073
:1003400000000000000007C00000000000000000E6
:10035000000FC00000000000000000001FE00000CF
:10036000000000000000001FE0000000000000008E
:1003700000003FE00000000000000000003FF0002F
:1003800000000000000000007FF0000000000000FE
:10039000001FF87FF0000000000000003FFE7FF02B
:1003A000000000000000003FFF7FF00000000000A0
:1003B00000001FFFFBE0000000000000000FFFF93D
:1003C000FFC00000000000000FFFF9FFF800000070
:1003D00000000007FFF1FFFF00000000000003FC29
:1003E00073FFFF80000000000001FE3FFFFF800060
:1003F0000000000000FF1E0FFF00000000000000D2
:100400007FFE1FFC000000000000003FFFFFF8001F
:100410000000000000000FDFFFE00000000000000F
:10042000001F19FFC0000000000000003F3CFF005B
:10043000000000000000007E7CF8000000000000CA
:1004400000007FFE7C0000000000000000FFFFFCB9
:100450000000000000000000FFFFFE0000000000A0
:10046000000000FFFFFE0000000000000001FFEFA1
:10047000FE0000000000000001FFCFFE00000000B1
:1004800000000003FF07FE0000000000000003FC66
:1004900007FE0000000000000003F003FE00000063
:1004A00000000000018000FE0000000000000000CD
:1004B00000007E000000000000000000003E000080
:1004C00000000000000000000C0000000000000719
:1004D0008000FC000003C0000000078001FC000059
:1004E00003C0000000078001FC000003C000000002
:1004F000078001E00000001E000000078001E0000E
:1005000000001E007FE3F79FF9FDE7787BDFC0FF67
:10051000F7FFBFFDFDFF787BDFC0FFF7FFBFFDFDED
:10052000FF787BDFC0F0F787BC3DE1FF787BDE0022
:10053000F0F787BC3DE1F0787BDE0000F787803D77
:10054000E1E0787BDE007FF7879FFDE1E0787BDEEE
:1005500000FFF787BFFDE1E0787BDE00F0F787BCA6
:100560003DE1E0787BDE00F0F787BC3DE1E0787BA1
:10057000DE00F0F787BC3DE1E0787BDE00FFF7FFAF
:10058000BFFDE1E07FFBDFC0FFF7FFBFFDE1E07FE4
:10059000FBDFC07CF3F39F3DE1E03E7BCFC000007A
:1005A000000000000000000000FFFFFFFFFFFFFF52
:1005B000FFFFFFC0FFFFFFFFFD68DB111A31C0FF27
:1005C000FFFFFFFD2B5AFB6AEFC0FFFFFFFFFD4B54
:1005D0005B3B1A33C0FFFFFFFFFD6B5BDB6AFDC0B7
:1005E0002200FF21000000000000000000000000C9
:1005F00000000000002000080000000000000000D3
:1006000000000000000000000000000008000000E2
:100610000000000000000000000280000000100048
:100620000000000020000000000EA00000000000FC
:100630000000000000000000003A00000000000080
:10064000000000000000000000550800000000004D
:1006500000000000000000000074400000000000E6
:10066000100040000000020000D0008000000000E8
:10067000000000000000000040EA800000000000D0
:10068000000000000000000000A0000000000000CA
:10069000000000000000000000D008800000000002
:1006A000000000000000000000A4000000000000A6
:1006B000000000000000000000C00A000000000070
:1006C0000000004000000000004821000000000081
:1006D000000800002000000000400400004000006E
:1006E00000000000000000000020000000000000EA
:1006F00000000000000000000008120000000004DC
:100700004000000000000000000000000000005B4E
:10071000B400000000000000000540000000017D62
:100720005A8000000000080000000000000003EBF9
:1007300049400000000000000000000000000BBA6B
:10074000A4140000000000000000000000002ED5EE
:1007500051000080000000000000000000001B6A43
:100760000444000000000000000000000000FFB58D
:1007700050010000000000000000000000016AAA13
:100780000220400000000000000000000002DD55D3
:100790004004000000000000000000000003F548D5
:1007A0001100200000000000002000000006B6A29A
:1007B000842000000000000400000000000FEA9008
:1007C000400090000000000000000000800DBAA46E
:1007D0002002044000000000000000000007EA8141
:1007E000008840000040000000000000001EAA2811
:1007F000082004000000000000000000003BB4815D
:10080000228000004000000000000000002ED210F6
:1008100048000200000000000000000000375945B9
:10082000000000000000000080000000001AC42842
:10083000000002000000000000000000002F7542D0
:10084000800400000000001084000000003AA800AE
:10085000101042000000000000000000003FA5242E
:10086000004000000000020490000000006A5000F8
:100870004000040000000002A0000000003D888944
:10088000000202000000000080000000003562004D
:100890000108000000000057F5000000005A882001
:1008A00000204A0000000000800000000036A08008
:1008B0000002000000000002A0000000002D120055
:1008C00002110A000000000490000000001AC0009D
:1008D000004444000200000000000000002D290434
:1008E0000002280400000010840000000015002011
:1008F000082110000001000000000040000CAA00C8
:100900000108A8000000000080000000000A80002C
:10091000100440000000000000000000000551002D
:10092000022130000000000040000000000A042105
:100930000814400000000000000000000005508086
:100940000041400000000000000000000001220003
:100950000000800000000000000000000002800095
:1009600002090000000000000000000000005088A4
:1009700020220200000000000000000000008400AF
:100980000002000000000002000000000000100053
:1009900000880004000000000000000000000900C2
:1009A00000200000000200000000000008000248D3
:1009B00004000000000000000000000000000082B1
:1009C00041000000000000000000000000000011D5
:1009D00014000000000000000000004000000000C3
:1009E00000000000000000038007E00DB04DB26F72
:1009F000D6FBFF0FF807E003C00E70781E200C2016
:100A00000800000000AA550880451020201040C0B2
:100A10001810402020451080C0E0F0F8FCFEFFFEDA
:100A2000FCF8F0E0C0800000000023002600290050
:100A30002C002F000000000200090F000003040139
:100A4000000C00000000000000000000000000009A
:100A500000000000000000003E5B4F5B3E3E6B4F1D
:100A60006B3E1C3E7C3E1C183C7E3C181C577D5740
:100A70001C1C5E7F5E1C00183C1800FFE7C3E7FFEC
:100A80000018241800FFE7DBE7FF30483A060E267F
:100A900029792926407F050507407F05253F5A3CD7
:100AA000E73C5A7F3E1C1C08081C1C3E7F14227F1A
:100AB00022145F5F005F5F06097F017F00668995F2
:100AC0006A606060606094A2FFA29408047E0408DB
:100AD00010207E201008082A1C08081C2A08081E5E
:100AE000101010100C1E0C1E0C30383E3830060E44
:100AF0003E0E06000000000000005F00000007003E
:100B00000700147F147F14242A7F2A1223130864F9
:100B10006236495620500008070300001C2241009D
:100B20000041221C002A1C7F1C2A08083E080800DD
:100B3000807030000808080808000060600020107D
:100B40000804023E5149453E00427F400072494937
:100B500049462141494D331814127F102745454518
:100B6000393C4A4949314121110907364949493639
:100B7000464949291E0000140000004034000000CE
:100B80000814224114141414140041221408020100
:100B90005909063E415D594E7C1211127C7F49492C
:100BA00049363E414141227F4141413E7F494949C9
:100BB000417F090909013E414151737F0808087FBF
:100BC00000417F41002040413F017F081422417FC6
:100BD000404040407F021C027F7F0408107F3E415E
:100BE00041413E7F090909063E4151215E7F0919B5
:100BF0002946264949493203017F01033F404040CD
:100C00003F1F2040201F3F4038403F6314081463BB
:100C100003047804036159494D43007F4141410277
:100C200004081020004141417F04020102044040B9
:100C3000404040000307080020545478407F284477
:100C400044383844444428384444287F3854545461
:100C50001800087E090218A4A49C787F0804047870
:100C600000447D40002040403D007F1028440000AB
:100C7000417F40007C047804787C08040478384480
:100C8000444438FC1824241818242418FC7C080434
:100C90000408485454542404043F44243C40402055
:100CA0007C1C2040201C3C4030403C442810284400
:100CB0004C9090907C4464544C44000836410000B1
:100CC00000770000004136080002010204023C26C1
:100CD00023263C1EA1A161123A4040207A38545488
:100CE000555921555579412254547842215554780B
:100CF0004020545579400C1E5272123955555559A1
:100D0000395454545939555454580000457C4100C5
:100D100002457D420001457C407D1211127DF02884
:100D20002528F07C545545002054547C547C0A09F5
:100D30007F4932494949323A4444443A324A484860
:100D4000303A4141217A3A42402078009DA0A07D6E
:100D50003D4242423D3D4040403D3C24FF2424482A
:100D60007E4943662B2FFC2F2BFF0929F620C088D4
:100D70007E090320545479410000447D41304848A5
:100D80004A32384040227A007A0A0A727D0D1931BF
:100D90007D2629292F28262929292630484D40201B
:100DA000380808080808080808382F10C8ACBA2FF7
:100DB000102834FA00007B000008142A14222214A0
:100DC0002A14085500550055AA55AA55AAFF55FFE3
:100DD00055FF000000FF00101010FF00141414FF56
:100DE000001010FF00FF1010F010F0141414FC009D
:100DF0001414F700FF0000FF00FF1414F404FC14A7
:100E00001417101F10101F101F1414141F0010109F
:100E100010F0000000001F101010101F1010101014
:100E2000F010000000FF101010101010101010FF34
:100E300010000000FF140000FF00FF00001F10174B
:100E40000000FC04F414141710171414F404F40034
:100E500000FF00F714141414141414F700F71414FA
:100E600014171410101F101F141414F4141010F081
:100E700010F000001F101F0000001F14000000FCF5
:100E8000140000F010F01010FF10FF141414FF14E1
:100E90001010101F00000000F010FFFFFFFFFFF018
:100EA000F0F0F0F0FFFFFF0000000000FFFF0F0F69
:100EB0000F0F0F3844443844FC4A4A4A347E020239
:100EC0000606027E027E0263554941633844443C73
:100ED00004407E201E2006027E020299A5E7A59905
:100EE0001C2A492A1C4C7201724C304A4D4D30303C
:100EF00048784830BC625A463D3E494949007E0127
:100F000001017E2A2A2A2A2A44445F444440514A45
:100F1000444040444A51400000FF0103E080FF008C
:100F20000008086B6B083612362436060F090F06C8
:100F3000000018180000001010003040FF010100F0
:100F40001F01011E00191D1712003C3C3C3C000013
:100F5000000000000103070F1F3F7F0080C0E0F08A
:100F6000F8FCFE080B000202020100090400000167
:100F700002020000052400100105240101010424DF
:100F8000020605240600010705810310004009043C
:100F90000100020A000000070502024000000705E8
:100FA00083024000000403090412010002EF020161
:100FB00040412336800001010203014172647569DA
:100FC0006E6F204C4C430041726475696E6F204C0B
:100FD000656F6E6172646F008C237D2311241FBEC8
:100FE000CFEFDAE0DEBFCDBF11E0A0E0B1E0ECE290
:100FF000FDE402C005900D92AE39B107D9F723E0A8
:10100000AEE9B1E001C01D92A137B207E1F717E0E8
:10101000CDEED7E004C02197FE010E945625CC3EBC
:10102000D107C9F70E94251B0C9489260C94000057
:10103000CF93DF931F92CDB7DEB76983DC01ED91CB
:10104000FC910280F381E02D41E050E0BE016F5F32
:101050007F4F09950F90DF91CF91089583E08093A2
:10106000E9008091F200882319F08AE38093E80078
:101070000895FC018485958597FD0BC09FB7F89472
:1010800082E08093E9008091F2009FBF90E001969A
:1010900008959FB7F89482E08093E9008091F20070
:1010A0009FBF90E0089590E0FC013197EF30F1058B
:1010B000B0F5EA5AFF4F0C945625809180008F7747
:1010C00003C0809180008F7D80938000089580917F
:1010D0008000877FF9CF84B58F7702C084B58F7D7C
:1010E00084BD0895809190008F7707C08091900013
:1010F0008F7D03C080919000877F8093900008953A
:101100008091C0008F7703C08091C0008F7D809355
:10111000C00008958091C200877F8093C200089527
:101120003FB7F8948091280290912902A0912A0259
:10113000B0912B0226B5A89B05C02F3F19F0019650
:10114000A11DB11D3FBFBA2FA92F982F8827820F4D
:10115000911DA11DB11DBC01CD0142E0660F771F9D
:10116000881F991F4A95D1F708950895FC0163706F
:10117000658B8481958126813781613039F06330B8
:1011800029F09187808733872287089531872087C8
:101190009387828708956F927F928F929F92AF92EA
:1011A000BF92CF92DF92EF92FF920F931F93CF9354
:1011B000DF93EC014B015A0169013801E881F981A3
:1011C0000284F385E02D0995E881F9810288F3898D
:1011D000E02D87019601A501B401CE010995A50175
:1011E000460D571D41505109E881F9810288F38964
:1011F000E02D9601B401CE010995E881F9810088BE
:10120000F189E02D9301A501B401CE010995C80C27
:10121000D91CB60161507109E881F9810088F18912
:10122000E02D9301A501CE010995E881F981068899
:10123000F789E02DCE01DF91CF911F910F91FF90A3
:10124000EF90DF90CF90BF90AF909F908F907F9066
:101250006F9009948F929F92AF92BF92CF92DF923C
:10126000EF92FF920F931F93CF93DF934C016B018B
:101270005A01E901DC01ED91FC916217730781F4D9
:101280000417150724F48B2D5801042F182F0A1961
:101290001B0998012F5F3F4F048CF58DE02D12C084
:1012A0004017510709F52617370724F48D2D6901DA
:1012B000C62FD82F9E012C193D092F5F3F4F068C5A
:1012C000F78DE02D8701A501B601C4010995DF91D5
:1012D000CF911F910F91FF90EF90DF90CF90BF9033
:1012E000AF909F908F9008950284F385E02D09952B
:1012F000D401ED91FC910488F589E02D9E01A501B2
:10130000B601C4010995D401ED91FC910688F789D5
:10131000E02DC401DF91CF911F910F91FF90EF90CD
:10132000DF90CF90BF90AF909F908F900994EF92F5
:10133000FF920F931F93DC011A960D911C911B973E
:1013400018962D913C911997ED91FC9100A0F1A177
:10135000E02D7B0140E050E060E070E009951F91D6
:101360000F91FF90EF9008954F925F926F927F924E
:101370008F929F92AF92BF92CF92DF92EF92FF92A5
:101380000F931F93CF93DF936C012B015A01390107
:101390004801DC01ED91FC910284F385E02D099573
:1013A000E201640C751CD601ED91FC91C615D705C0
:1013B0005CF40088F189E02D87019401A501BE014C
:1013C000C60109952196EFCF0688F789E02DC60161
:1013D000DF91CF911F910F91FF90EF90DF90CF9011
:1013E000BF90AF909F908F907F906F905F904F9045
:1013F00009948F929F92AF92BF92CF92DF92EF9219
:10140000FF920F931F93CF93DF93EC015B014A018F
:101410006901E881F9810284F385E02D0995950140
:101420002C0D3D1D21503109E881F9810488F58991
:10143000E02D78018401A401B501CE010995E88170
:10144000F9810688F789E02DCE01DF91CF911F91B8
:101450000F91FF90EF90DF90CF90BF90AF909F9053
:101460008F9009948F929F92AF92BF92CF92DF920A
:10147000EF92FF920F931F93CF93DF93EC015B01E9
:101480004A0169017801E881F9810284F385E02D40
:101490000995C80CD91C860101501109E881F98110
:1014A0000488F589E02D9501A401B501CE010995C7
:1014B000E881F9810688F789E02DCE01DF91CF918F
:1014C0001F910F91FF90EF90DF90CF90BF90AF9062
:1014D0009F908F9009940895EF92FF920F931F931E
:1014E000DC01ED91FC9100A0F1A1E02D09951F9187
:1014F0000F91FF90EF9008950F931F93DC01ED91F2
:10150000FC91068CF78DE02D09951F910F910895A0
:101510000F931F93DC01ED91FC91048CF58DE02D70
:1015200009951F910F910895DC01ED91FC910084C4
:10153000F185E02D09942F923F924F925F926F9226
:101540007F928F929F92AF92BF92CF92DF92EF9253
:10155000FF920F931F93CF93DF9300D000D000D062
:10156000CDB7DEB72C017E836D836A015901C801B6
:10157000FC82EB824801841A950A97FE03C091947D
:101580008194910835012D813E81621A730A77FE9C
:1015900003C0719461947108681479045CF43A2D65
:1015A0002B2D5C01832F922F3D812E81DE82CD82F7
:1015B000C32ED22EAD81BE81AA16BB065CF43C2D93
:1015C0002D2D6C01832F922F3D812E81BE82AD8205
:1015D000A32EB22E85012D813E81021B130B1C010F
:1015E0002C183D0837FE03C031942194310878014E
:1015F00017FF03C03FEFE31AF30AF594E794C81608
:10160000D9062CF08FEF9FEF9A83898304C0A1E065
:10161000B0E0BA83A9832D813E81A216B30624F1DE
:10162000D201ED91FC910484F585E02D2B813C8164
:101630006814790424F44D815E81B60103C0A601CB
:101640006D817E81C2010995E218F308F7FE06C09C
:1016500029813A81C20ED31EE00EF11E8D819E813A
:1016600001969E838D83D7CF26960FB6F894DEBF62
:101670000FBECDBFDF91CF911F910F91FF90EF90E3
:10168000DF90CF90BF90AF909F908F907F906F90A2
:101690005F904F903F902F90089585ED8093BC0010
:1016A0008091BC0084FDFCCF1092540208954091BB
:1016B0000002262F30E0240F311D21323105DCF4E9
:1016C000209154022430C9F4FC0180E090E0861798
:1016D00058F4309100022191DC01A052BE4FA30FBB
:1016E000B11D2C930196F3CF80910002680F609397
:1016F000000280E0089581E0089582E00895089551
:101700000895E091A3018091A201E81730F4F0E080
:10171000E054FE4F808190E008958FEF9FEF089591
:101720009091A3018091A201981750F4E92FF0E065
:10173000E054FE4F208130E09F5F9093A30102C0F0
:101740002FEF3FEFC90108958091A20190E0209111
:10175000A301821B91090895CF92DF92EF92FF922D
:101760000F931F93CF93DF937C01CB018A012091CC
:101770005502222389F0EB016B01C40ED51ECC1556
:10178000DD0569F06991D701ED91FC910190F0813F
:10179000E02DC7010995F3CF642F0E94570BC801B4
:1017A000DF91CF911F910F91FF90EF90DF90CF903D
:1017B0000895CF93DF931F92CDB7DEB76983209151
:1017C00055022223D1F020917802203240F021E00E
:1017D00030E0FC013383228380E090E015C08091EB
:1017E0005602E82FF0E0E95AFD4F998190838F5F10
:1017F000809356028093780205C061E0CE01019685
:101800000E94570B81E090E00F90DF91CF910895F7
:10181000FC0177FDB9C080859185681779070CF0C8
:10182000B3C057FDB1C082859385481759070CF0A6
:1018300008958589823079F484819581DC01A61B25
:10184000B70BBD016150710986819781DC01A41B32
:10185000B50BAD010EC0833009F084C06427752735
:10186000CA01862797276827792746815781481B11
:10187000590B415051092130310531F048F12230E6
:10188000310509F44AC00895CA0157FD07969C0125
:10189000A3E035952795AA95E1F7A481B5812A9F04
:1018A000C0012B9F900D3A9F900D1124680F791F56
:1018B000068CF78DE02DE60FF71F4770552781E066
:1018C00090E001C0880F4A95EAF79081892B48C0C3
:1018D000CA0157FD07969C0193E0359527959A9587
:1018E000E1F7A481B5812A9FC0012B9F900D3A9FFB
:1018F000900D1124680F791F068CF78DE02DE60FEF
:10190000F71F4770552781E090E001C0880F4A9586
:10191000EAF780959081892323C0CA0157FD079675
:101920009C0183E0359527958A95E1F7A481B581DF
:101930002A9FC0012B9F900D3A9F900D1124680F94
:10194000791F068CF78DE02DE60FF71F477055279E
:1019500081E090E001C0880F4A95EAF790818927DD
:1019600080830895813009F086CF64277527462744
:1019700057276427752784819581DC01A61BB70B47
:10198000BD016150710977CF0895089580E090E01E
:1019900008950E94341790E008950F931F93CF93FA
:1019A000DF931F92CDB7DEB78C01FC01848595854E
:1019B00097FF0EC0CE0101960E94D013019719F433
:1019C000898190E002C08FEF9FEFF80195878487AF
:1019D000F801848595850F90DF91CF911F910F912C
:1019E0000895CF93DF931F92CDB7DEB7FC018485B6
:1019F000958597FD05C02FEF3FEF358724870BC0F6
:101A0000CE0101960E94D013019719F4898190E0CC
:101A100002C08FEF9FEF0F90DF91CF9108950E944A
:101A20007D26AF92BF92CF92EF92FF920F931F93BA
:101A3000CF93DF93EC01262F888D998D009709F0C5
:101A400040C06A3059F41D861C862C898E859F857E
:101A500038E0239F800D911D112441C06D3009F4A1
:101A6000AAC08E898823C1F03C898C859D8546E07B
:101A7000349F800D911D11244885598548175907B9
:101A80005CF41D861C868E859F8548E0349F800D02
:101A9000911D11249F878E87EA88FB880889198900
:101AA0004E855F856C857D85CC88CE010E941A1598
:101AB0002C898C859D8536E0239F800D911D1124F6
:101AC00042C06A3079F41D861C862C89FC0136964A
:101AD000E4918E859F852E9F800D911D11249F87F7
:101AE0008E8769C06D3009F466C0FC01349634916C
:101AF000631708F460C03196E491E61708F45BC000
:101B0000FC01329665917491422F50E0431B5109BC
:101B100037E0349F5001359FB00C1124A60EB71E3C
:101B2000F501329634913196E491332311F0E111AD
:101B30000DC0F5013496E4912C898C859D85E29F3A
:101B4000800D911D11249D878C8735C0F501359638
:101B500044915E89552311F16C89E32FF0E0E40F85
:101B6000F11D47FDFA956E9FD0016F9FB00D1124B6
:101B70004C855D854A0F5B1FE885F985E417F507FD
:101B80006CF41D861C86FC013696E4918E859F853B
:101B90006E9F800D911D11249F878E87EA88FB8898
:101BA000088919894E855F856C857D85CC88CE0135
:101BB0000E941A15BECF81E090E0DF91CF911F9176
:101BC0000F91FF90EF90CF90BF90AF9008950F933B
:101BD0001F93CF93DF93DC015596EC915597E2303C
:101BE00071F0E330E9F0E13079F5FB0114960D90E6
:101BF000BC91A02DA41BB50BA21BB30B18C0EC010C
:101C0000EC81FD81E61BF70BBF0161507109EE818C
:101C1000FF81DF01A41BB50BAD01421B530B14C0A8
:101C2000DA01EC01EE81FF81E61BF70B3197F7FD3E
:101C30000DC0EC014E815F81E417F5073CF4AF0164
:101C4000BD010E94FE1302C00E946514DF91CF9176
:101C50001F910F9108950F931F93DC015596EC91FE
:101C60005597E23061F0E33009F1E13081F51496E7
:101C7000ED91FC911597E41BF50B319723C0DC0126
:101C80001496ED91FC911597DF01A61BB70BBD01D2
:101C9000DC011696ED91FC911797DF01A41BB50BA3
:101CA000AD0141505109621B730B11C0FA01DC01F7
:101CB00016964D915C911797DA01A61BB70BBD01E3
:101CC000621B730BAB01BF010E9465140CC057FD72
:101CD0000AC0DC011696ED91FC9117974E175F072D
:101CE00014F40E94FE131F910F910895CF93DF9378
:101CF000282F30E0F901EC5CF54F8491F901EC50AC
:101D0000FF4FD491F901EF5DFE4FC491CC2391F0C8
:101D100081110E945308EC2FF0E0EE0FFF1FEA5DE7
:101D2000F54FA591B491EC91ED2381E090E021F481
:101D300080E002C080E090E0DF91CF9108951F9392
:101D4000CF93DF93282F30E0F901EC5CF54F8491BD
:101D5000F901EC50FF4FD491F901EF5DFE4FC491B2
:101D6000CC23C1F0162F81110E945308EC2FF0E014
:101D7000EE0FFF1FED5EFE4FA591B4919FB7F89453
:101D8000111104C08C91D095D82302C0EC91DE2BA8
:101D9000DC939FBFDF91CF911F910895CF93DF9385
:101DA00090E0FC01EC50FF4F2491FC01EF5DFE4FF1
:101DB0008491882361F190E0880F991FFC01E6531C
:101DC000FF4FC591D491FC01ED5EFE4FA591B491FA
:101DD000611109C09FB7F894888120958223888378
:101DE000EC912E230BC0623061F49FB7F894888188
:101DF000322F309583238883EC912E2B2C939FBF19
:101E000006C08FB7F894E8812E2B28838FBFDF910F
:101E1000CF9108958F929F92AF92BF92CF92DF920F
:101E2000EF92FF926B017C010E9490084B015C01D4
:101E3000C114D104E104F104F1F00E949008DC0126
:101E4000CB0188199909AA09BB09883E9340A105CD
:101E5000B10570F321E0C21AD108E108F10888EE5B
:101E6000880E83E0981EA11CB11CC114D104E104AA
:101E7000F10419F7DDCFFF90EF90DF90CF90BF9086
:101E8000AF909F908F9008958F929F92AF92BF9244
:101E9000CF92DF92EF92FF920F931F93CF93DF9336
:101EA0006C017B018A0180910B01882309F45CC0DD
:101EB00080912D02882309F457C08091660380FF2A
:101EC00005C08091E00082608093E000E801B12CC1
:101ED0008AEFA82E93E0892E2AE3922E209711F400
:101EE000BB20D9F10E94341781110AC0AA94AA20FC
:101EF000D9F161E070E080E090E00E940A0FEECF3F
:101F0000282F30E0C217D3070CF48C2F9FB7F8941A
:101F10008092E9002091E80025FF1DC0282F30E0C5
:101F2000C21BD30BF701815020F041914093F10087
:101F3000FACFE20EF31EBB2019F09092E8000AC01F
:101F40008091E80085FD07C09092E800BB24B3941F
:101F5000209709F0B12C9FBFC1CF5D9884E6809394
:101F600067031016110644F081E090E0F6019383B8
:101F7000828380E090E001C0C801DF91CF911F9182
:101F80000F91FF90EF90DF90CF90BF90AF909F9018
:101F90008F9008952FB7F8946091240270912502D4
:101FA00080912602909127022FBF08951F920F92D1
:101FB0000FB60F9211242F933F938F939F93AF935C
:101FC000BF938091240290912502A0912602B091A6
:101FD00027023091230223E0230F2D3720F40196AE
:101FE000A11DB11D05C026E8230F0296A11DB11D3C
:101FF000209323028093240290932502A09326022B
:10200000B09327028091280290912902A0912A0280
:10201000B0912B020196A11DB11D809328029093CF
:102020002902A0932A02B0932B02BF91AF919F91F6
:102030008F913F912F910F900FBE0F901F90189589
:102040001F920F920FB60F9211242F933F934F932D
:102050005F936F937F938F939F93AF93BF93EF9310
:10206000FF938091B900887F803609F49CC068F5A1
:10207000883209F45BC090F4803109F454C038F41C
:10208000882309F4F6C0883009F44DC0F6C08831C1
:1020900009F44CC0803209F45DC0EFC0803409F40B
:1020A00068C048F4803309F455C0883309F0E5C0AE
:1020B00080935202D8C0803509F44FC0883509F4A6
:1020C0005DC0883409F0D9C0D6C0883909F4C7C0CA
:1020D000A8F4883709F467C038F4883609F463C077
:1020E000803709F460C0C9C0883809F4B8C08039A5
:1020F00009F45FC0803809F0C0C05BC0803B09F4C0
:1021000086C038F4803A09F466C0883A09F47FC082
:10211000B4C0803C09F4A7C0883C09F4A4C0883B43
:1021200009F48AC0AAC080912F0210C09091510278
:1021300080915002981770F5E091510281E08E0F66
:1021400080935102F0E0E05DFD4F80818093BB0001
:1021500085EC86C0809352028EC0E091510281E0EE
:102160008E0F809351028091BB00F0E0E05DFD4F47
:10217000808390915102809150026EC0E091510293
:1021800081E08E0F809351028091BB00F0E0E05D12
:10219000FD4F80838091530281116DC081E0809357
:1021A0002E0284EA61C083E08093540210922202DE
:1021B000CFCF80912202803208F051C0E0912202FC
:1021C00081E08E0F809322028091BB00F0E0EE5FF1
:1021D000FD4F8083BDCF85EC8093BC0010925402EC
:1021E00080912202803230F4E0912202F0E0EE5F32
:1021F000FD4F10826091220270E0E0919E01F0910B
:102200009F0182E092E009951092220236C084E09C
:10221000809354021092010210920002E091A001FA
:10222000F091A101099580910002811105C081E022
:10223000809300021092E001E091010281E08E0F94
:1022400080930102F0E0E052FE4F80818093BB005A
:102250009091010280910002981708F479CF85E8E7
:102260008093BC000AC085EC8093BC00109254029D
:1022700004C0109252020E944D0BFF91EF91BF914A
:10228000AF919F918F917F916F915F914F913F910E
:102290002F910F900FBE0F901F90189508958EBD2F
:1022A00000000DB407FEFDCF8EB508951F93CF93A8
:1022B000DF93FC01848D958D009729F1162FEF0196
:1022C00020A131E0309355022093770210925602FC
:1022D00010927802DC01ED91FC910190F081E02DEB
:1022E00060E009958C8D9D8DDC01ED91FC91019054
:1022F000F081E02D612F09958C8D9D8DDF91CF911F
:102300001F910C94BF12A4A5B5A59C9182A980959C
:1023100089238C93828D938D892B31F0862FDF91C9
:10232000CF911F910C944F1128E030E080E8A0A5D8
:10233000B1A590A9462F482319F04C91942B03C0C6
:102340004C91909594239C93A2A5B3A54C9191A9EF
:10235000942B9C93A2A5B3A54C9191A990959423FD
:102360009C9386952150310911F7DF91CF911F91F0
:1023700008958CBD9DBD08951F93CF93DF93EC010D
:10238000162F8C8D9D8D892BB1F02EA93FA948ADBC
:1023900059AD60E074E284EF90E00E94F324DA012A
:1023A000C9014097A109B109B695A7959795879559
:1023B0008093B8000FC08A8D9B8D892B21F08CA94A
:1023C0009DA90E94B911EEA5FFA590818BA98095CA
:1023D00089238083111102C066EA01C067EACE0139
:1023E0000E9456118C8D9D8D892BB1F02AAD3BAD8D
:1023F0004CAD5DAD60E074E284EF90E00E94F324A8
:10240000DA01C9014097A109B109B695A795979539
:1024100087958093B80006C0EEA5FFA590818BA993
:10242000892B8083DF91CF911F910895209115030F
:1024300030911603C901079697FD079623E09595FD
:1024400087952A95E1F72091130330911403829F19
:10245000A001839F500D929F500D112460E070E009
:1024600080912D0390912E030C9482263F924F92DF
:102470005F926F927F928F929F92AF92BF92CF9214
:10248000DF92EF92FF920F931F93CF93DF93CDB71D
:10249000DEB728970FB6F894DEBF0FBECDBF4C0154
:1024A0007E836D832A013901C801079697FD07963F
:1024B0009C0193E0359527959A95E1F73C832B8312
:1024C000A12CB12CC12CD12C312CC2018C0D9D1D05
:1024D0009A838983CE14DF04D4F518861F822F8156
:1024E0003885201731075CF5C90187709927892B3A
:1024F00011F0330C0EC0EF81F885F7FD379683E0BD
:10250000F595E7958A95E1F7EA0DFB1DE60DF71DB8
:10251000349037FE0DC021E030E049815A816D8151
:102520007E818F819885680F791FC4010E94940A6B
:102530002F8138852F5F3F4F38872F83D0CF3FEFD4
:10254000C31AD30A8B819C81A80EB91EBECF2896D0
:102550000FB6F894DEBF0FBECDBFDF91CF911F91B4
:102560000F91FF90EF90DF90CF90BF90AF909F9032
:102570008F907F906F905F904F903F900895309133
:102580007802313208F04BC0809154028111FCCFA7
:102590009091770222E02093540221E0209353028D
:1025A0002FEF209352021092510230935002E7E530
:1025B000F2E0A0E3B2E020E0321721F041914D9328
:1025C0002F5FFACF10922F0220912F02990F922B9A
:1025D00090932F0290912E02913061F410922E026E
:1025E00090912F029093BB009091BC0093FDF8CF87
:1025F00095EC01C095EE9093BC00909154029230FE
:10260000E1F3909152029F3F79F080915202803223
:1026100041F080915202803331F084E005C081E0C6
:1026200003C082E001C083E010925602109278024B
:10263000109255020895DF92EF92FF920F931F932D
:10264000CF93DF93D82ED92FC62F80912B03909153
:102650002C03009709F454C020912F0331E03093EC
:102660005502209377021092560210927802DC01F4
:10267000ED91FC910190F081E02D60E00995ED2C49
:10268000FD2E11E0D1E080912B0390912C03CC23FF
:1026900071F11032C8F00E94BF1280912F03D093C5
:1026A0005502809377021092560210927802809120
:1026B0002B0390912C03DC01ED91FC910190F081B2
:1026C000E02D60E0099511E080912B0390912C039F
:1026D000F7016491DC01ED91FC910190F081E02D16
:1026E00009951F5FC150BFEFEB1AFB0ACCCFDF91FA
:1026F000CF911F910F91FF90EF90DF900C94BF123C
:10270000E0913B03F0913C039081809141038095DF
:10271000892380830D2D1D2FCC2309F439C0F801A6
:1027200084912091290330912A03232B31F00E94B8
:102730004F11C1500F5F1F4FEFCF28E030E040E84E
:10274000E0913703F091380390913F03582F5423C1
:1027500019F05081952B03C050819095952390835B
:10276000E0913903F0913A03508190914003952B09
:102770009083E0913903F0913A03508190914003A6
:10278000909595239083469521503109C9F6D1CF74
:10279000DF91CF911F910F91FF90EF90DF900895FF
:1027A00020912D02211103C08FEF9FEF08955FB795
:1027B000F89422E02093E9002091F20030E0121614
:1027C000130614F421E030E0422FFC0184E641506E
:1027D00038F0289880932C029091F1009193F7CFD4
:1027E0002115310521F08091F200882319F05FBF97
:1027F000C90108958BE68093E800F9CF0F931F93EA
:10280000CF93DF9377FF04C0260F371F60E070E09F
:10281000DC011496CD91DC911597FB01E20FF31FBB
:10282000CE17DF071CF49E01261B370B121613066A
:102830000CF046C0FA0157FD3796DF01E3E0B5958D
:10284000A795EA95E1F7AC9FF001AD9FF00DBC9F15
:10285000F00D11246E0F7F1FDC015E96ED91FC914F
:102860005F97E60FF71F4770552781E090E001C0A2
:10287000880F4A95EAF7482F0130110539F078F0B2
:1028800002301105E9F42E0F3F1F13C02E0F3F1F1A
:10289000E217F307A9F08081842B8193F9CF80950B
:1028A0002E0F3F1FE217F30759F090819823919361
:1028B000F9CFE217F30721F0808184278193F9CFC4
:1028C000DF91CF911F910F910895EF92FF920F9397
:1028D0001F93CF93DF93EC0177FDA5C0EC80FD80C3
:1028E0006E157F050CF09FC057FF04C0240F351FE5
:1028F00040E050E08E819F81FA01E20FF31F8E17B6
:102900009F071CF49C01241B350B121613060CF0B8
:102910008AC0922F842F8695869586958E9DD001AC
:102920008F9DB00D11246A0F7B1FAE8DBF8DA60F3A
:10293000B71F4770B1F188E0841B482F682F70E003
:10294000FB01E55AF04FE491281798F4621B7109D6
:102950002FEF30E002C0359527956A95E2F7E22324
:102960000130110549F078F00230110509F05BC023
:102970000EC00130110519F48C91E82B0AC001300A
:10298000110508F049C0E0958C91E82302C08C91B4
:10299000E827EC93941708F446C02C813D81A20FE0
:1029A000B31FE92FE41BE830F8F00230110561F4A1
:1029B0008E2F9C9190959C932C813D81A20FB31FEB
:1029C00088508830B0F70FC081E00115110509F477
:1029D00080E081959E2F8C932C813D81A20FB31FA7
:1029E00098509830C0F7E770EE23E9F0F0E0ED5A28
:1029F000F04FE4910130110539F048F00230110533
:102A000091F48C91E82706C08C91E82B03C0E095E7
:102A10008C91E823EC9307C00230110509F4B7CF7D
:102A2000AE0DBF1DBECFDF91CF911F910F91FF90D3
:102A3000EF9008952F923F924F925F926F927F9204
:102A40008F929F92AF92BF92CF92DF92EF92FF92BE
:102A50000F931F93CF93DF93CDB7DEB76B970FB66E
:102A6000F894DEBF0FBECDBF9B8F8A8F5B011A012A
:102A7000D22E1F830E833701C982DC0158962D9117
:102A80003C9159972115310509F0E6C018968D91B2
:102A90009C911997681779070CF0CDC11A968D9102
:102AA0009C911B97481759070CF0C5C18C2C912C91
:102AB000FB0126E0C29EE00DF11D1124FB87EA8791
:102AC0001E161F060CF0B7C1A40183E0440F551F6A
:102AD0008A95E1F75D874C87CA01820D931D181610
:102AE00019060CF0A8C157968C91811104C05FEAB9
:102AF0005D1508F4D394AA8DBB8DED91FC911197CF
:102B00000284F385E02DCD010995B5E0DB9EC0017F
:102B10001124F5013596FF87EE87BB82AA82250135
:102B20009C012A193B09398B288BA101485F5F4F13
:102B30005B8B4A8BE889F989E40DF51DED5AF54F59
:102B40005491588761013D822C82888580FF13C093
:102B5000AA8DBB8DED91FC91B981B13031F4048423
:102B6000F585E02D2E813F8116C00684F785E02D86
:102B7000EE80FF801AC0EE81FF81E615F705F1F0C7
:102B8000AA8DBB8DED91FC91B981B13051F40484D3
:102B9000F585E02D9301A601B2018A8D9B8D0995E3
:102BA0000DC00684F785E02D7301840194014C81EA
:102BB0005D816A817B818A8D9B8D0995E885E6958B
:102BC000E887FFEFCF1ADF0A2C813D81280D391DE0
:102BD0003D832C834A895B89C416D50609F0B5CF9D
:102BE0005FEF451A550A8A819B81880D991D9B8349
:102BF0008A83AE85BF854A165B0609F09BCFEE81BE
:102C0000FF81E615F70509F4F4C0EA8DFB8DA0817C
:102C1000B181F981F13079F4B5016B5F7F4F509646
:102C2000ED91FC915197830128E030E0A1018A8D5C
:102C30009B8D0995DEC06A857B85681979091E968A
:102C4000ED91FC911F9773010C851D859401A101E5
:102C50008A8D9B8D0995CDC0F9013496E491DE1AD9
:102C6000F901329685919491B7E0DB9E800D911D1C
:102C70001124F901259134913B8B2A8BFC0125917C
:102C800034912901FC013296C490319634913E87EB
:102C9000329614913196D4904981423058F0612E89
:102CA000012E000C77088D2D0D2C000C990B9987A7
:102CB000888704C019861886612C712CAA8DBB8D5B
:102CC000ED91FC9111970284F385E02DCD010995DA
:102CD000B9818B2E912C689CC001699C900D789CC9
:102CE000900D1124FC01EA0DFB1DFD87EC871A8273
:102CF000712C612CE12F110FFF0B95012E0F3F1F3F
:102D00003B872A87AC0CB11CA5014E0F5F1F5F8B60
:102D10004E8BC1018D0D911DD7FC9A95998F888F8F
:102D20009E85691608F065C0862D90E04885598516
:102D3000480F591F489D9001499D300D589D300DF9
:102D40001124D101A20FB31FB98BA88BEC85FD858F
:102D5000FD83EC83AA84BB84DA80FA85DF1A288D90
:102D6000398D280F391F3D8B2C8B8D2D8A0D4E8967
:102D70005F89A416B506C1F1877041F4C2010196BE
:102D8000EA89FB89E40DF51D74902C0177FE21C0C2
:102D9000AA8DBB8DED91FC91B981B13061F40484B1
:102DA000F585E02D2E813F814C895D89B5018A8DA5
:102DB0009B8D09950EC00684F785E02DEE80FF807F
:102DC00084019401488959896C817D818A8D9B8D0C
:102DD0000995770CEFEFAE1ABE0A2C813D81280DC4
:102DE000391D3D832C83C1CF3A813C0D3A836394D6
:102DF00097CFAA8DBB8DED91FC9111970688F7892D
:102E0000E02DCD016B960FB6F894DEBF0FBECDBF9F
:102E1000DF91CF911F910F91FF90EF90DF90CF90B6
:102E2000BF90AF909F908F907F906F905F904F90EA
:102E30003F902F9009946B960FB6F894DEBF0FBEAB
:102E4000CDBFDF91CF911F910F91FF90EF90DF9059
:102E5000CF90BF90AF909F908F907F906F905F903A
:102E60004F903F902F9008952FB7F89483E0809370
:102E7000E9009091E800892F807295FF04C090913D
:102E8000F20080E4891B2FBF0895809151038111C6
:102E90000DC082E080934D0384E080934E03109236
:102EA000500310924F0381E0809351038DE493E02F
:102EB000089540916A0350916B032091680330910B
:102EC000690342175307B4F49091E8009570E1F359
:102ED0009091E80092FD19C08093F10080916A03FF
:102EE00090916B0301968F739927892B19F48EEFBC
:102EF0008093E80080916A0390916B030196909310
:102F00006B0380936A0381E0089580E00895DF9267
:102F1000EF92FF920F931F93CF93DF93D82E8A01E6
:102F20007B01E40EF51EEB01CE15DF0571F0D7FE37
:102F300003C0FE01849101C088810E945917219627
:102F40008111F2CF8FEF9FEF01C0C801DF91CF91C8
:102F50001F910F91FF90EF90DF900895615030F036
:102F60002091F100FC0120830196F8CF289884E697
:102F700080932C020895CF92DF92EF92FF920F93ED
:102F80001F93CF93DF936C017A018B01C0E0D0E0F7
:102F9000CE15DF0581F0D8016D918D01D601ED913F
:102FA000FC910190F081E02DC6010995892B11F06B
:102FB0002196EECF7E01C701DF91CF911F910F9136
:102FC000FF90EF90DF90CF9008950F931F93CF93D2
:102FD000DF931F92CDB7DEB782E0898342E450E0F1
:102FE00063E67FE080E80E9487170E944517DC01B6
:102FF00012960D911C9113970115110589F0D801B6
:10300000ED91FC910280F381E02DBE016F5F7F4F57
:10301000C801099597FD04C0F80100851185ECCF22
:1030200089810F90DF91CF911F910F9108951F9289
:103030000F920FB60F9211248F939F938091E1000E
:103040009091E100937F9093E10083FF0FC0109275
:10305000E90091E09093EB001092EC0092E39093E2
:10306000ED0010922D0298E09093F00082FF20C0B6
:1030700093E09093E9009091F200992319F09AE37C
:103080009093E80090916703992339F0909167033A
:10309000915090936703992389F190912C02992381
:1030A00039F090912C02915090932C02992341F188
:1030B00084FF10C08091E2008E7E81608093E200E8
:1030C0008091E1008F7E8093E100809166038E7E87
:1030D000806111C080FF16C08091E2008E7E806109
:1030E0008093E2008091E1008E7E8093E1008091E8
:1030F00066038E7E81608093660304C05D9ACDCFA7
:10310000289AD6CF9F918F910F900FBE0F901F904E
:1031100018951F920F920FB60F921124CF92DF9243
:10312000EF92FF920F931F932F933F934F935F93D1
:103130006F937F938F939F93AF93BF93EF93FF937F
:10314000CF93DF93CDB7DEB76C97DEBFCDBF1092C4
:10315000E9008091E80083FFFBC168E0CE0145965D
:103160000E94AE1782EF8093E8008D8987FF05C02B
:103170009091E80090FFFCCF03C09EEF9093E80091
:10318000982F907609F0C6C09E894F89588D2F8957
:10319000F88C91110CC0803829F4809165038093DC
:1031A000F10002C01092F1001092F10045C191307F
:1031B00051F4811141C14130510509F03DC1809167
:1031C00065038D7F0BC0933061F4811135C14130AF
:1031D000510509F031C180916503826080936503D8
:1031E0002BC1953049F48091E80080FFFCCF822FFD
:1031F00080688093E30020C1963009F05EC00B8D9B
:103200001C8D22E01092E90010926B0310926A0369
:10321000F21232C010926903109268030E94E517FF
:1032200099E0BE016F5F7F4FDB01E92F1D92EA95A8
:10323000E9F79983FA8291E09E8390EA98879AEF62
:10324000998720916A0330916B03275F3F4F3C833E
:103250002B838D831092E90010926B0310926A0306
:10326000109369030093680349E050E080E00E94F6
:1032700087170E94E517E0C0109369030093680365
:103280000E944517DC0112960D911C9113970115B0
:10329000110509F4BBC0D801ED91FC910480F581C2
:1032A000E02DBE016B5E7F4FC8010995009709F0C4
:1032B000C7C0F80100851185EACF973009F445C1F0
:1032C000983021F481E08093F100B6C0993009F084
:1032D000B3C0837009F039C1E7E6F1E081E031E085
:1032E00096E32081211109C08EE78093EA001092B5
:1032F000EA008F8980932D029FC08093E90030936C
:10330000EB0021912093EC009093ED008F5F8730CC
:1033100041F7EACF8B8D9C8D1092E90010926B03E0
:1033200010926A039093690380936803898D8111D9
:1033300053C08E899D89913A49F4813209F005C1C3
:1033400047E050E064E071E080E0BBC0913209F0FA
:10335000FCC0833269F48F89988DA0E0B0E080933F
:10336000000190930101A0930201B093030164C096
:10337000803269F48091E80082FFFCCF67E084E04E
:1033800091E00E94AE178BEF8093E80055C0823227
:1033900009F052C08F8980930B01EEEFFFE7859112
:1033A00094918B3F9C4D19F0E0E0F8E002C0EEEF05
:1033B000FAE08091040190910501A0910601B0917D
:1033C0000701803B9440A105B10509F09EC08091A2
:1033D0000B0180FF79C099C00E944517FC01028152
:1033E00013810115110509F4B0C0D801ED91FC91CC
:1033F0000190F081E02DBE016B5E7F4FC801099501
:1034000081111AC0F80100851185EBCFF1E0FF169C
:1034100009F44EC0F3E0FF1298C08F89882309F4A5
:103420004AC0823089F440E860E187EC9FE00E9466
:103430000624882309F489C08EEF8093E80088C0B1
:1034400018161906CCF381C0813029F440E86BE0EE
:103450008BEB9FE0ECCF833009F077C00E944517DB
:10346000DC011296ED90FC9013978E010F5F1F4FB9
:103470006801E114F10479F0D701ED91FC91068027
:10348000F781E02DB801C7010995080F111DF7015B
:10349000E084F184EECFD8011C92F6010190002067
:1034A000E9F73197BF016C197D0940E0C601BFCF34
:1034B00069EA7FE002C065EA7FE0FB01449150E0E9
:1034C00080E80E948717B8CFEE3F2AE0F20751F05C
:1034D000808191818737A7E79A0721F09093FF0AAF
:1034E0008093FE0A87E797E791838083809160004D
:1034F00080936C039BE088E10FB6F894A8958093C5
:1035000060000FBE9093600097CF808191818737D4
:10351000974709F091CFA8958091600088618093CA
:10352000600080916C0380936000EE3FBAE0FB077F
:1035300039F08091FE0A9091FF0A918380837CCFBD
:103540001092FF0A1092FE0A77CF81E28093EB007F
:103550006C960FB6F894DEBF0FBECDBFDF91CF9152
:10356000FF91EF91BF91AF919F918F917F916F915B
:103570005F914F913F912F911F910F91FF90EF908D
:10358000DF90CF900F900FBE0F901F901895611590
:10359000710579F0FB0101900020E9F73197AF0147
:1035A000461B570BDC01ED91FC910280F381E02D6D
:1035B000099480E090E008958F929F92AF92BF921D
:1035C000EF92FF920F931F93CF93DF93CDB7DEB7A8
:1035D000A1970FB6F894DEBF0FBECDBF7C01FA01F4
:1035E000CB0119A2223008F42AE08E010F5D1F4F93
:1035F000822E912CA12CB12CBF01A50194010E9417
:10360000F324F901CA01015011096A3014F4605D14
:1036100001C0695CD8016C93232B242B252B61F707
:10362000B801C7010E94C71AA1960FB6F894DEBF71
:103630000FBECDBFDF91CF911F910F91FF90EF9003
:10364000BF90AF909F908F900895789484B58260DA
:1036500084BD84B5816084BD85B5826085BD85B536
:10366000816085BD80916E00816080936E001092B4
:10367000810080918100826080938100809181002F
:1036800081608093810080918000816080938000C0
:10369000809191008260809391008091910081607F
:1036A0008093910080919000816080939000809140
:1036B000C10084608093C1008091C10082608093CA
:1036C000C1008091C10081608093C1008091C300DE
:1036D00081608093C3008091C00082608093C000AD
:1036E0008091C20081608093C20080917A008460E2
:1036F00080937A0080917A00826080937A00809132
:103700007A00816080937A0080917A00806880934B
:103710007A0010922D021092650310926603809138
:10372000D70081608093D70080EA8093D80089B564
:10373000806189BD89B5826089BD09B400FEFDCF75
:1037400061E070E080E090E00E940A0F8091D80074
:103750008F7C80618093D8008091E000807F80938F
:10376000E0008091E1008E7E8093E1008DE0809307
:10377000E200559A209A10920B0310920C031092BB
:103780000D0310920E031092CB021092CC021092F5
:10379000CD021092CE020E94CA0F4B015C012B0198
:1037A0003C0128EB420E2BE0521E611C711C0E9452
:1037B000CA0F681579058A059B0528F04616570635
:1037C00068067906A0F760ED77E080E090E00E945F
:1037D0000A0F8FEF9FEF90938602809385020E94DD
:1037E000CA0F6093CB027093CC028093CD0290936A
:1037F000CE026DE671E089E792E00E94C71A0E944E
:10380000CA0F4B015C012B013C014AE0440E511CE4
:10381000611C711C0E94CA0F681579058A059B05F9
:1038200028F04616570668067906A0F781E08093CF
:10383000DF0280912D0390912E03892B11F52091A9
:10384000150330911603C901079697FD079623E0EB
:10385000959587952A95E1F72091130330911403EC
:10386000DC01A29FC001A39F900DB29F900D112477
:103870000E945C2590932E0380932D03892B09F4DD
:1038800015C10E9416128091150390911603609144
:10389000130370911403813291050CF4E0C5AC015F
:1038A0004054510957FF02C04F5F5F4F55954795F0
:1038B0006255710977FF02C06F5F7F4F75956795FD
:1038C00000E4E02EF12C02E510E020E233E08FE08E
:1038D00093E00E94361282E08093300380912B03A4
:1038E00090912C03892B09F4D3C58CE380932F038B
:1038F0001092A3011092A201109256021092780227
:103900001092540281E08093530210922E0261E0E3
:1039100082E00E949F0E61E083E00E949F0E8091F2
:10392000B9008E7F8093B9008091B9008D7F80931C
:10393000B90088E48093B80085E48093BC008FE7E9
:103940009BE09093A1018093A00180E89BE090937D
:103950009F0180939E018091360387FD1EC061E028
:103960000E94CE0E61E0809136030E949F0E61E0BE
:1039700070E080E090E00E940A0F60E080913603E2
:103980000E949F0E6AE070E080E090E00E940A0FC3
:1039900061E0809136030E949F0E80912B039091ED
:1039A0002C03892B09F433C620914503309146033B
:1039B000409147035091480360E074E284EF90E047
:1039C0000E94F324DA01C9014097A109B109B69513
:1039D000A795979587958093B80064E080EF90E075
:1039E0000E941B136091150361508FE093E00E94C9
:1039F000561164E08CEE90E00E941B13809130031E
:103A0000813009F41BC664E18FE093E00E945611F7
:103A100064E088EE90E00E941B1380911303909164
:103A200014038038910509F01CC68091150390910C
:103A300016038032910509F003C664E084EE90E03D
:103A40000E941B1369ED8FE093E00E945611809154
:103A50003003813009F421C661EF8FE093E00E94CA
:103A6000561166E088ED90E00E941B1380912B03B5
:103A700090912C03892B09F412C6209149033091AF
:103A80004A0340914B0350914C0360E074E284EF91
:103A900090E00E94F324DA01C9014097A109B1091D
:103AA000B695A795979587958093B80081E0809308
:103AB000230381E090E0909322038093210390936D
:103AC000200380931F0362E084E00E94CE0E62E038
:103AD00085E00E94CE0E62E086E00E94CE0E62E09B
:103AE00087E00E94CE0E62E088E00E94CE0E61E088
:103AF00089E00E94CE0E61E08AE00E94CE0E61E075
:103B00008BE00E94CE0E80E290E09093B60180930D
:103B1000B50188E190E09093B8018093B7011092CD
:103B2000B90182E08093B40180E890E09093A8010D
:103B30008093A7010E94862422E330E040E050E019
:103B40000E941525DC01CB010896A11DB11D9093A3
:103B5000AA018093A9010E94862424E030E040E07D
:103B600050E00E941525DC01CB010196A11DB11D7D
:103B70009093AC018093AB011092AD0180E090E096
:103B80000E94DD248093A50181E090E00E94DD2465
:103B90008093A6018091A5019091A6010196E1F480
:103BA0001092A6011092A50180E090E00E94DD2411
:103BB000882329F060E080E090E00E94E524C09135
:103BC000A60181E090E00E94DD24C81729F06C2F47
:103BD00081E090E00E94E524812C94E2992E94EFFC
:103BE000A92EB12C80E8282E312C0E94CA0F672BF9
:103BF000682B692B41F40E94CA0F62307105810560
:103C0000910508F4FDC00E94CA0F0091BC011091FB
:103C1000BD012091BE013091BF016017710782077D
:103C2000930740F46093BC017093BD018093BE0183
:103C30009093BF010091BC011091BD012091BE0184
:103C40003091BF016B017C01C01AD10AE20AF30A6C
:103C5000970186010A3F11052105310508F4D0C0FE
:103C60006093BC017093BD018093BE019093BF012E
:103C700084EF91E0A0E0B0E08093D7029093D80267
:103C8000A093D902B093DA021092DB021092DC0208
:103C90001092DD021092DE028091CF029091D0024C
:103CA000A091D102B091D2028093D3029093D4021A
:103CB000A093D502B093D6020E94CA0F6093CF02A0
:103CC0007093D0028093D1029093D2020E94CA0FC7
:103CD0006093CB027093CC028093CD029093CE027E
:103CE0000E94CA0F2B013C016FE771E089E792E067
:103CF0000E94C71A2AE041E050E060E070E089E7E6
:103D000092E00E94DC1A66E871E089E792E00E9486
:103D1000C71A2AE0B301A20189E792E00E94DC1AE7
:103D200068E871E089E792E00E94C71A8091CF02AB
:103D30009091D002A091D102B091D202B301A20120
:103D4000481B590B6A0B7B0B2AE089E792E00E9423
:103D5000DC1A68E871E089E792E00E94C71A409196
:103D6000CF025091D0026091D1027091D202809125
:103D7000D3029091D402A091D502B091D602481BF3
:103D8000590B6A0B7B0B2AE089E792E00E94DC1A50
:103D90006AE871E089E792E00E94C71A0E94CA0FA0
:103DA000AB01BC012AE089E792E00E94DC1A6CE8D2
:103DB00071E089E792E00E94C71A6CE771E089E739
:103DC00092E00E94C71A0E94CA0F2B013C016B01AE
:103DD0007C0195E0C90ED11CE11CF11C0E94CA0FA8
:103DE000641575058605970508F06CC40E94CA0F16
:103DF0006093CF027093D0028093D1029093D2024D
:103E00008091B901823079F4A0E2B0E0B093B601BC
:103E1000A093B50108E1C02ED12CD092B801C09278
:103E2000B7011092B90184E00E94760E892B81F4CB
:103E30008091B7019091B801049797FD05C09093C8
:103E4000B8018093B70104C01092B8011092B70175
:103E500085E00E94760E892BA1F48091B7019091A4
:103E6000B8010496893391052CF49093B80180939E
:103E7000B70107C018E3E12EF12CF092B801E092EF
:103E8000B70186E00E94760E892B81F48091B501FE
:103E90009091B601049797FD05C09093B601809369
:103EA000B50104C01092B6011092B50187E00E94DE
:103EB000760E892B89F48091B5019091B601049614
:103EC000813891052CF49093B6018093B50104C01C
:103ED0003092B6012092B50188E00E94760E892BBF
:103EE00029F48091B401823009F4F3C38091B401C4
:103EF000811110C08091AE019091AF010696909310
:103F0000AF018093AE018138910524F0D2E0FD2EFF
:103F1000F092B4018091AD01823041F53092A80158
:103F20002092A7010E94862422E330E040E050E086
:103F30000E941525DC01CB010896A11DB11D9093AF
:103F4000AA018093A9010E94862424E030E040E089
:103F500050E00E941525DC01CB010196A11DB11D89
:103F60009093AC018093AB011092AD018091AD01B3
:103F7000813019F422E02093AD018091AD018111CF
:103F800037C08091A7019091A8012091AB01309199
:103F9000AC01821B930B97FD05C09093A801809301
:103FA000A70126C03092A8012092A7010E94862472
:103FB00022E330E040E050E00E941525DC01CB0117
:103FC0000896A11DB11D9093AA018093A9010E949A
:103FD000862424E030E040E050E00E941525DC011A
:103FE000CB010196A11DB11D9093AC018093AB0153
:103FF0008091B401811136C08091AD01811132C030
:104000002091A7013091A8018091AE019091AF015C
:10401000AC01485F5F4F4217530724F12817390757
:104020000CF12091B0013091B1018091A9019091E2
:10403000AA01A9014E5F5F4F481759079CF04096AF
:10404000821793077CF042E04093B40181E08093B3
:10405000AD018091BA019091BB010A969093BB018A
:104060008093BA018091B90181112CC08091AD017A
:10407000811128C02091A7013091A8018091B5013C
:104080009091B601AC01485F5F4F42175307D4F0DF
:1040900028173907BCF02091B7013091B801809101
:1040A000A9019091AA01A901405F5F4F48175907E4
:1040B0004CF04096821793072CF081E08093B90171
:1040C0008093AD010E94161285E290E090931C034C
:1040D00080931B0310921E0310921D0363E971E08D
:1040E0008FE093E00E94C71A4091BA015091BB0142
:1040F00060E070E02AE08FE093E00E94DC1A80919B
:10410000B901811113C04091B7015091B80160917C
:10411000B5017091B601C0E1EC2EF12C08E010E081
:1041200027E13AE08FE093E00E9436128091B901D6
:104130008130B1F44091B7015091B8016091B5015F
:104140007091B601B8E0EB2EF12C00E110E027E011
:104150003AE08FE093E00E94361292E09093B9012A
:104160008091B401811113C04091B0015091B1010F
:104170006091AE017091AF01A2E0EA2EF12C08E04F
:1041800010E025E03AE08FE093E00E943612809143
:10419000AD01811113C04091A9015091AA01609114
:1041A000A7017091A801F0E1EF2EF12C00E110E0E1
:1041B00025EE39E08FE093E00E9436128091AD0148
:1041C000813099F44091A9015091AA016091A70111
:1041D0007091A801E8E0EE2EF12C00E110E027E05C
:1041E0003AE08FE093E00E94361250E4E52EF12C85
:1041F00000E810E025EE35E040E050E060E070E0DF
:104200008FE093E00E94361280912B0390912C0353
:10421000892BC1F02091450330914603409147031B
:1042200050914803C501B4010E94F324DA01C90189
:104230004097A109B109B695A79597958795809361
:10424000B80016C08091290390912A03892B31F080
:1042500080914303909144030E94B911E0913D0382
:10426000F0913E0390818091420380958923808361
:1042700065E080EE95E00E941B136091130361508E
:104280008FE093E00E9456112091150330911603A0
:10429000C901079697FD079633E0959587953A955E
:1042A000E1F72091130330911403829F8001839FD3
:1042B000100D929F100D1124C0912D03D0912E034B
:1042C00080912B0390912C030C0F1D1F009709F474
:1042D0004CC020912F0331E0309355022093770298
:1042E0001092560210927802DC01ED91FC9101903F
:1042F000F081E02D60E4099577247394662463943B
:1043000080912B0390912C03C017D10759F1BFE185
:10431000B715D0F40E94BF1280912F03609255020E
:1043200080937702109256021092780280912B03AC
:1043300090912C03DC01ED91FC910190F081E02D36
:1043400060E409957724739480912B0390912C035A
:104350006991DC01ED91FC910190F081E02D0995CE
:104360007394CECF0E94BF1241C0E0913B03F09105
:104370003C03908180914103892B80830C171D079A
:10438000A9F189912091290330912A03232B19F057
:104390000E944F11F3CF28E030E090E8E09137031E
:1043A000F091380340913F03582F592319F0508161
:1043B000452B03C05081409545234083E09139034C
:1043C000F0913A03508140914003452B4083E091A6
:1043D0003903F0913A0340815091400350954523B1
:1043E0004083969521503109C9F6C8CF80912B039F
:1043F00090912C03892BC1F02091490330914A03FD
:1044000040914B0350914C03C501B4010E94F32429
:10441000DA01C9014097A109B109B695A795979509
:1044200087958093B80011C0E0913D03F0913E0361
:10443000908180914203892B808380912903909100
:104440002A03892B11F00E944E1180E0C82E80E0D3
:10445000D82ECD2809F4C9CB0E940000C3CBAC01F3
:104460004052510957FF02C04F5F5F4F5595479526
:104470006357710977FF02C06F5F7F4F759567952E
:10448000C0E2EC2EF12C03E710E020E431E01FCA7B
:1044900061E0809134030E94CE0E61E0809135038B
:1044A0000E94CE0E80913403082E000C990BFC0163
:1044B000EF5DFE4FE491F0E0EE0FFF1FED5EFE4F6B
:1044C0002591349130933C0320933B03FC01EC5045
:1044D000FF4FE491E093410380913503082E000CD7
:1044E000990BFC01EF5DFE4FE491F0E0EE0FFF1F32
:1044F000ED5EFE4FA591B491B0933E03A0933D03B2
:10450000FC01EC50FF4FE491E09342038C91E82BC7
:10451000EC938091290390912A03892B09F434C0EC
:10452000CFB7F8948091A401811127C0E2E3F1E0B4
:104530008491E5E0F1E09491E82FF0E0EE0FFF1FA9
:10454000E653FF4FA591B491EC91E92321F461E08A
:1045500081E10E949F0E61E081E10E94CE0E8CB548
:1045600080618CBD8CB580648CBD61E08FE00E9461
:10457000CE0E61E080E10E94CE0E8091A4018F5F9B
:104580008093A401CFBFE7C961E0809132030E940C
:10459000CE0E61E0809133030E94CE0E80913203F3
:1045A000082E000C990BFC01EF5DFE4FE491F0E04A
:1045B000EE0FFF1FED5EFE4F2591349130933803CF
:1045C00020933703FC01EC50FF4FE491E0933F034D
:1045D00080913303082E000C990BFC01EF5DFE4F18
:1045E000E491F0E0EE0FFF1FED5EFE4FA591B49158
:1045F000B0933A03A0933903FC01EC50FF4FE491D0
:10460000E09340038C91E095E823EC93A4C980915A
:10461000290390912A03892B31F0809143039091D3
:1046200044030E94B911E0913D03F0913E03908153
:1046300080914203809589238083CFC960E1E4C9DA
:104640008034910509F0FEC963E081EE90E00E949C
:104650001B1380913003813011F06FEC19C06FE9AA
:1046600017C08036910509F0EDC98091150390912E
:104670001603409709F0E6C963E08EED90E00E94D2
:104680001B1380913003813011F06FEA01C060E1AB
:104690008FE093E00E945611D5C962E2DEC9E09135
:1046A0003D03F0913E03908180914203892B8083EA
:1046B0008091290390912A03892B09F4F7C90E945C
:1046C0004E11F4C9C616D706E806F90608F086CBDF
:1046D0008DCB1092B4018091B5019091B601909369
:1046E000AF018093AE018091B7019091B801089617
:1046F0009093B1018093B001F9CB8EE391E0909358
:10470000100380930F0380912D0390912E03009747
:1047100011F00C94F4250895E9E7F2E01382128277
:1047200048EE53E060E070E044835583668377830E
:104730008AE191E0918380838FEF9FEF9587848753
:10474000E9ECF2E016821782108611861286138633
:104750001486158616861786108A118A128A138A7D
:10476000148A158AA9E5B3E013961C921E9212973B
:1047700014964D935D936D937C9317972CE231E0E3
:1047800011963C932E93EFE0F3E01382128240E8FF
:1047900050E05583448320E430E0378326835187FB
:1047A000408733872287158A1586148617861686D2
:1047B00021E0248B938B828B918B808B268B178AA5
:1047C000118E108E8EE391E091838083138E128E72
:1047D000B58FA48F178E168E8FEF83A384A385A326
:1047E00086A387A380E584AB15AA80E89AE1A6E0BA
:1047F000B0E086AB97ABA0AFB1AF80EA96E8A1E09E
:10480000B0E082AF93AFA4AFB5AF0895DF92EF925F
:10481000FF920F931F93CF93DF93D82EF92EE42EA0
:10482000062F10E0C8010196880F0E94591783E0F7
:104830000E945917CD2DDF2D0C0F1D1FC017D1075A
:1048400089F0E7FE03C0FE01849101C088810E94C7
:104850005917F82E80E00E9459178F212196811157
:10486000EDCF01C081E0DF91CF911F910F91FF90BB
:10487000EF90DF9008958F929F92AF92BF92CF9268
:10488000DF92EF92FF92CF93DF93EC016881798101
:104890008A819B81611571058105910521F464E28E
:1048A00079ED8BE597E02DE133EF41E050E00E9498
:1048B000152549015A019B01AC01A7EAB1E40E9408
:1048C00034256B017C01ACEEB4EFA50194010E948C
:1048D0004225DC01CB018C0D9D1DAE1DBF1DB7FF18
:1048E00003C00197A109B04888839983AA83BB8339
:1048F000BC01CD019F77DF91CF91FF90EF90DF90CA
:10490000CF90BF90AF909F908F9008958F929F927D
:10491000AF92BF92CF92DF92EF92FF9260910C0123
:1049200070910D0180910E0190910F01611571053B
:104930008105910521F464E279ED8BE597E02DE1A5
:1049400033EF41E050E00E94152549015A019B01D7
:10495000AC01A7EAB1E40E9434256B017C01ACEE06
:10496000B4EFA50194010E944225DC01CB018C0D1E
:104970009D1DAE1DBF1DB7FF03C00197A109B04823
:1049800080930C0190930D01A0930E01B0930F0141
:10499000BC01CD019F77FF90EF90DF90CF90BF904B
:1049A000AF909F908F90089560930C0170930D01CC
:1049B00080930E0190930F010895F999FECF92BD57
:1049C00081BDF89A992780B50895262FF999FECFD1
:1049D0001FBA92BD81BD20BD0FB6F894FA9AF99A1C
:1049E0000FBE01960895A1E21A2EAA1BBB1BFD0162
:1049F0000DC0AA1FBB1FEE1FFF1FA217B307E407BE
:104A0000F50720F0A21BB30BE40BF50B661F771F15
:104A1000881F991F1A9469F76095709580959095F5
:104A20009B01AC01BD01CF010895052E97FB1EF43B
:104A300000940E942C2557FD07D00E94F32407FC08
:104A400003D04EF40C942C2550954095309521952B
:104A50003F4F4F4F5F4F08959095809570956195AA
:104A60007F4F8F4F9F4F08950E944725A59F900D20
:104A7000B49F900DA49F800D911D11240895B7FF40
:104A80000C9434250E943425821B930B0895A29F19
:104A9000B001B39FC001A39F700D811D1124911D12
:104AA000B29F700D811D1124911D0895EE0FFF1FFF
:104AB0000590F491E02D09940F931F93CF93DF930A
:104AC0008230910510F482E090E0E0916F03F09164
:104AD000700320E030E0A0E0B0E0309719F14081B1
:104AE00051810281138148175907C8F0841795072F
:104AF00069F4109731F012960C93129713961C9349
:104B000027C000936F031093700322C02115310555
:104B100019F04217530718F49A01BD01EF01DF01A4
:104B2000F801DBCF21153105F9F0281B390B2430B2
:104B3000310580F48A819B816115710521F0FB01AB
:104B40009383828304C09093700380936F03FE016C
:104B5000329644C0FE01E20FF31F819391932250DD
:104B60003109398328833AC020916D0330916E0357
:104B7000232B41F4209112013091130130936E03E5
:104B800020936D0320911001309111012115310501
:104B900041F42DB73EB74091140150911501241BEB
:104BA000350BE0916D03F0916E03E217F307A0F46B
:104BB0002E1B3F0B2817390778F0AC014E5F5F4F73
:104BC0002417350748F04E0F5F1F50936E03409334
:104BD0006D038193919302C0E0E0F0E0CF01DF919B
:104BE000CF911F910F910895CF93DF93009709F410
:104BF00081C0FC01329713821282A0916F03B091A1
:104C00007003109781F420813181820F931F2091CE
:104C10006D0330916E032817390751F5F0936E0339
:104C2000E0936D0367C0ED0120E030E0CE17DF07B1
:104C300040F44A815B819E0141155105F1F0EA0182
:104C4000F5CFD383C28340815181840F951FC8174C
:104C5000D90759F488819981840F951F0296918311
:104C600080838A819B81938382832115310529F476
:104C7000F0937003E0936F033DC0E901FB83EA8387
:104C800049915991C40FD51FEC17FD0761F480813C
:104C90009181840F951F0296E9019983888382810F
:104CA00093819B838A83E0E0F0E012968D919C9142
:104CB0001397009719F0FD01DC01F7CF8D919C91BE
:104CC00011979D012E5F3F4F820F931F20916D031F
:104CD00030916E032817390769F4309729F4109240
:104CE000700310926F0302C013821282B0936E039E
:104CF000A0936D03DF91CF91089581E090E0F89447
:104D00000C948926DC0101C06D9341505040E0F7BE
:104D1000089517E0CDEED7E004C0FE010E945625AD
:0C4D20002196CE3ED107C9F7F894FFCFD2
:104D2C00FFFFFFFF00E10000000000000100000099
:104D3C00000071038000000000001808440FC90C2B
:104D4C002E083908F10CCD0C00000000D90BAC0B6F
:104D5C00C60C6B0AA40B900B810B00000000110D0C
:104D6C00BB17C60CC50C080C6B0A940A6C0A880A93
:104D7C007C0A9B0A6B0AB608BC11E70D2B0EB40912
:104D8C0097092A09CB0800C18081000000564D44C8
:104D9C0050565F317C315F564D4450560D0A0056CB
:104DAC004D4450455F003A323A007C005F564D440A
:0E4DBC0050450053636F7265202020200000D8
:00000001FF
