:100000000C94FE070C9426080C9426080C942608E1
:100010000C9426080C9426080C9426080C942608A8
:100020000C9426080C9426080C940E180C94801836
:100030000C9426080C9426080C9426080C94260888
:100040000C9426080C9426080C9426080C94260878
:100050000C9426080C9426080C9426080C947E1008
:100060000C9426080C9426080C9426080C94260858
:100070000C9426080C9426080C9426080C94260848
:100080000C94571E0C9426080C9426080C942608F1
:100090000C94C8100C9426080C9426080C9426087E
:1000A0000C9426080C9426080C9426087B087E08DD
:1000B0006D08710877089F089F089F0882088608C6
:1000C0008A08900894089F089A08410F460F4B0F22
:1000D000550F5F0FA90FA90FA90F690F730F7D0FA0
:1000E000870F940FA90F9C0F00000000230026002B
:1000F00029002C002F000000000200090F0000035F
:100100000401000C000000000000000000000000DE
:10011000000000000000000000240027002A002D3D
:10012000003000DB40A4A62EAFDA0281DA1281DAB9
:1001300002818F2000A1C8D300408DAED580A800D9
:10014000006000000000000000000000000000004F
:10015000E00000000000000000000000000001E0DE
:100160000000000000000000000000000001F0009E
:1001700000000000000000000000000003F000008C
:10018000000000000000000000000007F000000078
:100190000000000000000000000007F80000000060
:1001A0000000000000000000000FF800000003C085
:1001B000007E000001E0007F0FF800000003C00097
:1001C000FE000001E000FFEFF800000003C000FEA9
:1001D000000001E000FFFFF800000003C000F00095
:1001E00000000F007FFE7FC0000003C000F0000091
:1001F000000F003FFE7FF83FF1FBCFFCFEF3BC3D5C
:10020000EFE01FFE7FFF7FFBFFDFFEFEFFBC3DEF49
:10021000E01FC6FFFF7FFBFFDFFEFEFFBC3DEFE000
:100220000FE3C7FE787BC3DE1EF0FFBC3DEF000787
:10023000FF87FC787BC3DE1EF0F83C3DEF0001FF3A
:10024000FFF0007BC3C01EF0F03C3DEF0001F37FE8
:10025000E03FFBC3CFFEF0F03C3DEF0003E33F8007
:100260007FFBC3DFFEF0F03C3DEF0007E73C00788A
:100270007BC3DE1EF0F03C3DEF0007FFBE00787B45
:10028000C3DE1EF0F03C3DEF0007FFFE00787BC3AD
:10029000DE1EF0F03C3DEF000FFFFE007FFBFFDFB6
:1002A000FEF0F03FFDEFE00FFFFF007FFBFFDFFE02
:1002B000F0F03FFDEFE00FF9FF003E79F9CF9EF03F
:1002C000F01F3DE7E01FF1FF00000000000000000C
:1002D000000000001F80FF007FFFFFFFFFFFFFFF08
:1002E000FFFFE01C007F007FFFFFFFFEB46D888DE5
:1002F00018E000001F007FFFFFFFFE95AD7DB57782
:10030000E000000F007FFFFFFFFEA5AD9D8D19E00F
:10031000000006007FFFFFFFFEB5ADEDB57EE000FB
:100320000000000001800000000000000000000349
:100330008000000000000000000007C00000000076
:10034000000000000007C0000000000000000000E6
:100350000FC00000000000000000001FE0000000CF
:100360000000000000001FE000000000000000008E
:10037000003FE00000000000000000003FF000002F
:10038000000000000000007FF000000000000000FE
:100390001FF87FF0000000000000003FFE7FF0002B
:1003A0000000000000003FFF7FF0000000000000A0
:1003B000001FFFFBE0000000000000000FFFF9FF3E
:1003C000C00000000000000FFFF9FFF8000000006F
:1003D000000007FFF1FFFF00000000000003FC73B6
:1003E000FFFF80000000000001FE3FFFFF800000D3
:1003F00000000000FF1E0FFF000000000000007F53
:10040000FE1FFC000000000000003FFFFFF800009E
:1004100000000000000FDFFFE0000000000000000F
:100420001F19FFC0000000000000003F3CFF00005B
:100430000000000000007E7CF800000000000000CA
:10044000007FFE7C0000000000000000FFFFFC00B9
:1004500000000000000000FFFFFE000000000000A0
:100460000000FFFFFE0000000000000001FFEFFEA3
:100470000000000000000001FFCFFE0000000000AF
:10048000000003FF07FE0000000000000003FC075F
:10049000FE0000000000000003F003FE000000006A
:1004A000000000018000FE000000000000000000CD
:1004B000007E000000000000000000003E00000080
:1004C000000000000000000C000000000000078099
:1004D00000FC000003C0000000078001FC000003D6
:1004E000C0000000078001FC000003C000000007FE
:1004F0008001E00000001E000000078001E0000015
:10050000001E007FE3F79FF9FDE7787BDFC0FFF770
:10051000FFBFFDFDFF787BDFC0FFF7FFBFFDFDFFE5
:10052000787BDFC0F0F787BC3DE1FF787BDE00F031
:10053000F787BC3DE1F0787BDE0000F787803DE186
:10054000E0787BDE007FF7879FFDE1E0787BDE00CF
:10055000FFF787BFFDE1E0787BDE00F0F787BC3D69
:10056000E1E0787BDE00F0F787BC3DE1E0787BDE00
:1005700000F0F787BC3DE1E0787BDE00FFF7FFBFCE
:10058000FDE1E07FFBDFC0FFF7FFBFFDE1E07FFBA8
:10059000DFC07CF3F39F3DE1E03E7BCFC000000075
:1005A0000000000000000000FFFFFFFFFFFFFFFF53
:1005B000FFFFC0FFFFFFFFFD68DB111A31C0FFFF27
:1005C000FFFFFD2B5AFB6AEFC0FFFFFFFFFD4B5BF8
:1005D0003B1A33C0FFFFFFFFFD6B5BDB6AFDC00012
:1005E00000000000000000000000000000000020EB
:1005F00000080000000000000000000000000000F3
:1006000000000000000008000000000000000000E2
:100610000000000280000000100000000000200028
:100620000000000EA000000000000000000000001C
:100630000000003A00000000000000000000000080
:10064000000000550800000000000000000000004D
:100650000000007440000000000010004000000096
:10066000020000D000800000000000000000000038
:10067000000040EA800000000000000000000000D0
:10068000000000A0000000000000000000000000CA
:10069000000000D008800000000000000000000002
:1006A000000000A4000000000000000000000000A6
:1006B000000000C00A000000000000000040000030
:1006C0000000004821000000000000080000200099
:1006D0000000004004000040000000000000000096
:1006E00000000020000000000000000000000000EA
:1006F000000000081200000000044000000000009C
:100700000000000000000000005BB40000000000DA
:100710000000000540000000017D5A80000000003C
:10072000080000000000000003EB4940000000004A
:1007300000000000000000000BBAA414000000003C
:1007400000000000000000002ED5510000800000D5
:1007500000000000000000001B6A044400000000CC
:100760000000000000000000FFB550010000000084
:1007700000000000000000016AAA02204000000002
:100780000000000000000002DD55400400000000F1
:100790000000000000000003F548110020000000E8
:1007A0000000002000000006B6A284200000000027
:1007B000000400000000000FEA90400090000000DC
:1007C000000000000000800DBAA4200204400000D8
:1007D0000000000000000007EA810088400000409F
:1007E000000000000000001EAA28082004000000ED
:1007F000000000000000003BB481228000004000A7
:10080000000000000000002ED2104800020000008E
:100810000000000000000037594500000000000003
:10082000000080000000001AC42800000200000040
:10083000000000000000002F75428004000000004E
:10084000001084000000003AA800101042000000D0
:10085000000000000000003FA52400400000000050
:10086000020490000000006A5000400004000000F4
:100870000002A0000000003D888900020200000084
:100880000000800000000035620001080000000048
:100890000057F5000000005A882000204A000000A0
:1008A0000000800000000036A08000020000000070
:1008B0000002A0000000002D120002110A0000003A
:1008C000000490000000001AC00000444400020030
:1008D000000000000000002D290400022804000090
:1008E0000010840000000015002008211000000105
:1008F000000000000040000CAA000108A800000051
:10090000000080000000000A800010044000000089
:10091000000000000000000551000221300000002E
:10092000000040000000000A0421081440000000FC
:100930000000000000000005508000414000000061
:100940000000000000000001220000008000000004
:10095000000000000000000280000209000000000A
:10096000000000000000000050882022020000006B
:1009700000000000000000008400000200000000F1
:1009800000020000000000001000008800040000C9
:10099000000000000000000009000020000000022C
:1009A00000000000000008000248040000000000F1
:1009B0000000000000000000008241000000000074
:1009C0000000000000000000001114000000000002
:1009D00000000000004000000000000000000000D7
:1009E00000038007E00DB04DB26FD6FBFF0FF80794
:1009F000E003C00E70781E200C200800000000AA42
:100A0000550880451020201040C018104020204577
:100A10001080C0F8C0C0E0F8FFF8E0C0C0F8C080A7
:100A200000080B000202020100090400000102029A
:100A30000000052400100105240101010424020620
:100A40000524060001070581031000400904010088
:100A5000020A0000000705020240000007058302A9
:100A60004000000403090412010002EF02014041AA
:100A700023368000010102030141726475696E6FC3
:100A8000204C4C430041726475696E6F204C656F59
:100A90006E6172646F0000000000003E5B4F5B3EC1
:100AA0003E6B4F6B3E1C3E7C3E1C183C7E3C181C33
:100AB000577D571C1C5E7F5E1C00183C1800FFE72A
:100AC000C3E7FF0018241800FFE7DBE7FF30483AD0
:100AD000060E2629792926407F050507407F052532
:100AE0003F5A3CE73C5A7F3E1C1C08081C1C3E7FBA
:100AF00014227F22145F5F005F5F06097F017F0081
:100B00006689956A606060606094A2FFA2940804A0
:100B10007E040810207E201008082A1C08081C2AC1
:100B200008081E101010100C1E0C1E0C30383E3819
:100B300030060E3E0E06000000000000005F0000C0
:100B40000007000700147F147F14242A7F2A122331
:100B50001308646236495620500008070300001C41
:100B60002241000041221C002A1C7F1C2A08083E4A
:100B7000080800807030000808080808000060605D
:100B80000020100804023E5149453E00427F4000CB
:100B900072494949462141494D331814127F1027A3
:100BA000454545393C4A49493141211109073649F2
:100BB000494936464949291E0000140000004034C6
:100BC00000000008142241141414141400412214CB
:100BD0000802015909063E415D594E7C1211127CF2
:100BE0007F494949363E414141227F4141413E7F53
:100BF000494949417F090909013E414151737F0833
:100C000008087F00417F41002040413F017F0814D8
:100C100022417F404040407F021C027F7F04081039
:100C20007F3E4141413E7F090909063E4151215E17
:100C30007F09192946264949493203017F01033FAB
:100C40004040403F1F2040201F3F4038403F63143A
:100C500008146303047804036159494D43007F413C
:100C600041410204081020004141417F0402010279
:100C7000044040404040000307080020545478409E
:100C80007F284444383844444428384444287F3832
:100C90005454541800087E090218A4A49C787F08B4
:100CA00004047800447D40002040403D007F10282F
:100CB000440000417F40007C047804787C080404F0
:100CC000783844444438FC1824241818242418FC88
:100CD0007C08040408485454542404043F44243C2D
:100CE0004040207C1C2040201C3C4030403C44289C
:100CF0001028444C9090907C4464544C4400083636
:100D000041000000770000004136080002010204A3
:100D1000023C2623263C1EA1A161123A4040207AC3
:100D2000385454555921555579412254547842210B
:100D30005554784020545579400C1E527212395542
:100D4000555559395454545939555454580000453F
:100D50007C410002457D420001457C407D1211121C
:100D60007DF0282528F07C545545002054547C54AF
:100D70007C0A097F4932494949323A4444443A326B
:100D80004A4848303A4141217A3A42402078009D11
:100D9000A0A07D3D4242423D3D4040403D3C24FFBD
:100DA0002424487E4943662B2FFC2F2BFF0929F66C
:100DB00020C0887E090320545479410000447D41BD
:100DC0003048484A32384040227A007A0A0A727D16
:100DD0000D19317D2629292F282629292926304831
:100DE0004D4020380808080808080808382F10C89F
:100DF000ACBA2F102834FA00007B000008142A1423
:100E00002222142A14085500550055AA55AA55AA9D
:100E1000FF55FF55FF000000FF00101010FF0014E9
:100E20001414FF001010FF00FF1010F010F0141445
:100E300014FC001414F700FF0000FF00FF1414F46A
:100E400004FC141417101F10101F101F1414141F6B
:100E500000101010F0000000001F101010101F10E4
:100E6000101010F010000000FF10101010101010E3
:100E70001010FF10000000FF140000FF00FF000032
:100E80001F10170000FC04F414141710171414F4A6
:100E900004F40000FF00F714141414141414F700E1
:100EA000F7141414171410101F101F141414F41432
:100EB0001010F010F000001F101F0000001F1400A1
:100EC0000000FC140000F010F01010FF10FF1414CC
:100ED00014FF141010101F00000000F010FFFFFF9F
:100EE000FFFFF0F0F0F0F0FFFFFF0000000000FF58
:100EF000FF0F0F0F0F0F3844443844FC4A4A4A345E
:100F00007E02020606027E027E0263554941633874
:100F100044443C04407E201E2006027E020299A525
:100F2000E7A5991C2A492A1C4C7201724C304A4D83
:100F30004D303048784830BC625A463D3E494949B8
:100F4000007E0101017E2A2A2A2A2A44445F444461
:100F500040514A444040444A51400000FF0103E0F0
:100F600080FF000008086B6B083612362436060F27
:100F7000090F06000018180000001010003040FF94
:100F80000101001F01011E00191D1712003C3C3C0D
:100F90003C0000000000000103070F1F3F7F00809E
:100FA000C0E0F0F8FCFE2200FF210004080201105E
:100FB0004080401020408040800802040180402092
:100FC0001002011080102040402000000000250089
:100FD00028002B002E00310004040404040304053F
:100FE00002020202040302020202060606060606C6
:100FF0000404020202040403F826101F11241FBE79
:10100000CFEFDAE0DEBFCDBF11E0A0E0B1E0ECEF62
:10101000F5E502C005900D92AE39B107D9F723E08E
:10102000AEE9B1E001C01D92AE38B207E1F717E0BA
:10103000CDEFD7E004C02197FE010E94BE29CC3F2E
:10104000D107C9F70E941F1F0C94F12A0C940000CD
:10105000CF93DF931F92CDB7DEB76983DC01ED91AB
:10106000FC910280F381E02D41E050E0BE016F5F12
:101070007F4F09950F90DF91CF91089583E0809382
:10108000E9008091F200882319F08AE38093E80058
:101090000895FC018485958597FD0BC09FB7F89452
:1010A00082E08093E9008091F2009FBF90E001967A
:1010B00008959FB7F89482E08093E9008091F20050
:1010C0009FBF90E0089590E0FC013197EF30F1056B
:1010D000B0F5EA5AFF4F0C94BE29809180008F77BB
:1010E00003C0809180008F7D80938000089580915F
:1010F0008000877FF9CF84B58F7702C084B58F7D5C
:1011000084BD0895809190008F7707C080919000F2
:101110008F7D03C080919000877F80939000089519
:101120008091C0008F7703C08091C0008F7D809335
:10113000C00008958091C200877F8093C200089507
:101140003FB7F89480910B0290910C02A0910D0290
:10115000B0910E0226B5A89B05C02F3F19F001964D
:10116000A11DB11D3FBFBA2FA92F982F8827820F2D
:10117000911DA11DB11DBC01CD0142E0660F771F7D
:10118000881F991F4A95D1F708950895FC0163704F
:10119000658B8481958126813781613039F0633098
:1011A00029F09187808733872287089531872087A8
:1011B0009387828708956F927F928F929F92AF92CA
:1011C000BF92CF92DF92EF92FF920F931F93CF9334
:1011D000DF93EC014B015A0169013801E881F98183
:1011E0000284F385E02D0995E881F9810288F3896D
:1011F000E02D87019601A501B401CE010995A50155
:10120000460D571D41505109E881F9810288F38943
:10121000E02D9601B401CE010995E881F98100889D
:10122000F189E02D9301A501B401CE010995C80C07
:10123000D91CB60161507109E881F9810088F189F2
:10124000E02D9301A501CE010995E881F981068879
:10125000F789E02DCE01DF91CF911F910F91FF9083
:10126000EF90DF90CF90BF90AF909F908F907F9046
:101270006F9009948F929F92AF92BF92CF92DF921C
:10128000EF92FF920F931F93CF93DF934C016B016B
:101290005A01E901DC01ED91FC916217730781F4B9
:1012A0000417150724F48B2D5801042F182F0A1941
:1012B0001B0998012F5F3F4F048CF58DE02D12C064
:1012C0004017510709F52617370724F48D2D6901BA
:1012D000C62FD82F9E012C193D092F5F3F4F068C3A
:1012E000F78DE02D8701A501B601C4010995DF91B5
:1012F000CF911F910F91FF90EF90DF90CF90BF9013
:10130000AF909F908F9008950284F385E02D09950A
:10131000D401ED91FC910488F589E02D9E01A50191
:10132000B601C4010995D401ED91FC910688F789B5
:10133000E02DC401DF91CF911F910F91FF90EF90AD
:10134000DF90CF90BF90AF909F908F900994EF92D5
:10135000FF920F931F93DC011A960D911C911B971E
:1013600018962D913C911997ED91FC9100A0F1A157
:10137000E02D7B0140E050E060E070E009951F91B6
:101380000F91FF90EF9008954F925F926F927F922E
:101390008F929F92AF92BF92CF92DF92EF92FF9285
:1013A0000F931F93CF93DF936C012B015A013901E7
:1013B0004801DC01ED91FC910284F385E02D099553
:1013C000E201640C751CD601ED91FC91C615D705A0
:1013D0005CF40088F189E02D87019401A501BE012C
:1013E000C60109952196EFCF0688F789E02DC60141
:1013F000DF91CF911F910F91FF90EF90DF90CF90F1
:10140000BF90AF909F908F907F906F905F904F9024
:1014100009948F929F92AF92BF92CF92DF92EF92F8
:10142000FF920F931F93CF93DF93EC015B014A016F
:101430006901E881F9810284F385E02D0995950120
:101440002C0D3D1D21503109E881F9810488F58971
:10145000E02D78018401A401B501CE010995E88150
:10146000F9810688F789E02DCE01DF91CF911F9198
:101470000F91FF90EF90DF90CF90BF90AF909F9033
:101480008F9009948F929F92AF92BF92CF92DF92EA
:10149000EF92FF920F931F93CF93DF93EC015B01C9
:1014A0004A0169017801E881F9810284F385E02D20
:1014B0000995C80CD91C860101501109E881F981F0
:1014C0000488F589E02D9501A401B501CE010995A7
:1014D000E881F9810688F789E02DCE01DF91CF916F
:1014E0001F910F91FF90EF90DF90CF90BF90AF9042
:1014F0009F908F9009940895EF92FF920F931F93FE
:10150000DC01ED91FC9100A0F1A1E02D09951F9166
:101510000F91FF90EF9008950F931F93DC01ED91D1
:10152000FC91068CF78DE02D09951F910F91089580
:101530000F931F93DC01ED91FC91048CF58DE02D50
:1015400009951F910F910895DC01ED91FC910084A4
:10155000F185E02D09942F923F924F925F926F9206
:101560007F928F929F92AF92BF92CF92DF92EF9233
:10157000FF920F931F93CF93DF9300D000D000D042
:10158000CDB7DEB72C017E836D836A015901C80196
:10159000FC82EB824801841A950A97FE03C091945D
:1015A0008194910835012D813E81621A730A77FE7C
:1015B00003C0719461947108681479045CF43A2D45
:1015C0002B2D5C01832F922F3D812E81DE82CD82D7
:1015D000C32ED22EAD81BE81AA16BB065CF43C2D73
:1015E0002D2D6C01832F922F3D812E81BE82AD82E5
:1015F000A32EB22E85012D813E81021B130B1C01EF
:101600002C183D0837FE03C031942194310878012D
:1016100017FF03C03FEFE31AF30AF594E794C816E7
:10162000D9062CF08FEF9FEF9A83898304C0A1E045
:10163000B0E0BA83A9832D813E81A216B30624F1BE
:10164000D201ED91FC910484F585E02D2B813C8144
:101650006814790424F44D815E81B60103C0A601AB
:101660006D817E81C2010995E218F308F7FE06C07C
:1016700029813A81C20ED31EE00EF11E8D819E811A
:1016800001969E838D83D7CF26960FB6F894DEBF42
:101690000FBECDBFDF91CF911F910F91FF90EF90C3
:1016A000DF90CF90BF90AF909F908F907F906F9082
:1016B0005F904F903F902F90089585ED8093BC00F0
:1016C0008091BC0084FDFCCF10927402089540917B
:1016D000E301262F30E0240F311D21323105DCF4E7
:1016E000209174022430C9F4FC0180E090E0861758
:1016F00058F43091E3012191DC01AD53BE4FA30FAB
:10170000B11D2C930196F3CF8091E301680F609394
:10171000E30180E0089581E0089582E0089508954E
:101720000895E091140280911302E81730F4F0E07C
:10173000ED55FE4F808190E008958FEF9FEF089563
:101740009091140280911302981750F4E92FF0E061
:10175000ED55FE4F208130E09F5F9093140202C050
:101760002FEF3FEFC90108958091130290E020917F
:101770001402821B91090895CF92DF92EF92FF929B
:101780000F931F93CF93DF937C01CB018A012091AC
:101790007502222389F0EB016B01C40ED51ECC1516
:1017A000DD0569F06991D701ED91FC910190F0811F
:1017B000E02DC7010995F3CF642F0E94670BC80184
:1017C000DF91CF911F910F91FF90EF90DF90CF901D
:1017D0000895CF93DF931F92CDB7DEB76983209131
:1017E00075022223D1F020919802203240F021E0AE
:1017F00030E0FC013383228380E090E015C08091CB
:101800007602E82FF0E0E958FD4F998190838F5FD1
:10181000809376028093980205C061E0CE01019624
:101820000E94670B81E090E00F90DF91CF910895C7
:10183000FC0177FDB9C080859185681779070CF0A8
:10184000B3C057FDB1C082859385481759070CF086
:1018500008958589823079F484819581DC01A61B05
:10186000B70BBD016150710986819781DC01A41B12
:10187000B50BAD010EC0833009F084C06427752715
:10188000CA01862797276827792746815781481BF1
:10189000590B415051092130310531F048F12230C6
:1018A000310509F44AC00895CA0157FD07969C0105
:1018B000A3E035952795AA95E1F7A481B5812A9FE4
:1018C000C0012B9F900D3A9F900D1124680F791F36
:1018D000068CF78DE02DE60FF71F4770552781E046
:1018E00090E001C0880F4A95EAF79081892B48C0A3
:1018F000CA0157FD07969C0193E0359527959A9567
:10190000E1F7A481B5812A9FC0012B9F900D3A9FDA
:10191000900D1124680F791F068CF78DE02DE60FCE
:10192000F71F4770552781E090E001C0880F4A9566
:10193000EAF780959081892323C0CA0157FD079655
:101940009C0183E0359527958A95E1F7A481B581BF
:101950002A9FC0012B9F900D3A9F900D1124680F74
:10196000791F068CF78DE02DE60FF71F477055277E
:1019700081E090E001C0880F4A95EAF790818927BD
:1019800080830895813009F086CF64277527462724
:1019900057276427752784819581DC01A61BB70B27
:1019A000BD016150710977CF0895089580E090E0FE
:1019B00008950E94FD1790E008950F931F93CF9311
:1019C000DF931F92CDB7DEB78C01FC01848595852E
:1019D00097FF0EC0CE0101960E94971C019719F443
:1019E000898190E002C08FEF9FEFF801958784878F
:1019F000F801848595850F90DF91CF911F910F910C
:101A00000895CF93DF931F92CDB7DEB7FC01848595
:101A1000958597FD05C02FEF3FEF358724870BC0D5
:101A2000CE0101960E94971C019719F4898190E0DC
:101A300002C08FEF9FEF0F90DF91CF9108950E942A
:101A4000E52AAF92BF92CF92EF92FF920F931F932E
:101A5000CF93DF93EC01262F888D998D009709F0A5
:101A600040C06A3059F41D861C862C898E859F855E
:101A700038E0239F800D911D112441C06D3009F481
:101A8000AAC08E898823C1F03C898C859D8546E05B
:101A9000349F800D911D1124488559854817590799
:101AA0005CF41D861C868E859F8548E0349F800DE2
:101AB000911D11249F878E87EA88FB8808891989E0
:101AC0004E855F856C857D85CC88CE010E94E315AF
:101AD0002C898C859D8536E0239F800D911D1124D6
:101AE00042C06A3079F41D861C862C89FC0136962A
:101AF000E4918E859F852E9F800D911D11249F87D7
:101B00008E8769C06D3009F466C0FC01349634914B
:101B1000631708F460C03196E491E61708F45BC0DF
:101B2000FC01329665917491422F50E0431B51099C
:101B300037E0349F5001359FB00C1124A60EB71E1C
:101B4000F501329634913196E491332311F0E1118D
:101B50000DC0F5013496E4912C898C859D85E29F1A
:101B6000800D911D11249D878C8735C0F501359618
:101B700044915E89552311F16C89E32FF0E0E40F65
:101B8000F11D47FDFA956E9FD0016F9FB00D112496
:101B90004C855D854A0F5B1FE885F985E417F507DD
:101BA0006CF41D861C86FC013696E4918E859F851B
:101BB0006E9F800D911D11249F878E87EA88FB8878
:101BC000088919894E855F856C857D85CC88CE0115
:101BD0000E94E315BECF81E090E0DF91CF911F918D
:101BE0000F91FF90EF90CF90BF90AF9008950F931B
:101BF0001F93CF93DF93DC015596EC915597E2301C
:101C000071F0E330E9F0E13079F5FB0114960D90C5
:101C1000BC91A02DA41BB50BA21BB30B18C0EC01EB
:101C2000EC81FD81E61BF70BBF0161507109EE816C
:101C3000FF81DF01A41BB50BAD01421B530B14C088
:101C4000DA01EC01EE81FF81E61BF70B3197F7FD1E
:101C50000DC0EC014E815F81E417F5073CF4AF0144
:101C6000BD010E94C71402C00E942E15DF91CF91C2
:101C70001F910F9108950F931F93DC015596EC91DE
:101C80005597E23061F0E33009F1E13081F51496C7
:101C9000ED91FC911597E41BF50B319723C0DC0106
:101CA0001496ED91FC911597DF01A61BB70BBD01B2
:101CB000DC011696ED91FC911797DF01A41BB50B83
:101CC000AD0141505109621B730B11C0FA01DC01D7
:101CD00016964D915C911797DA01A61BB70BBD01C3
:101CE000621B730BAB01BF010E942E150CC057FD88
:101CF0000AC0DC011696ED91FC9117974E175F070D
:101D000014F40E94C7141F910F910895CF93DF938D
:101D1000282F30E0F901EA50FF4F8491F901E55591
:101D2000F04FD491F901E852F04FC491CC2391F0D7
:101D300081110E946308EC2FF0E0EE0FFF1FE851C5
:101D4000FF4FA591B491EC91ED2381E090E021F457
:101D500080E002C080E090E0DF91CF9108951F9372
:101D6000CF93DF93282F30E0F901EA50FF4F8491A1
:101D7000F901E555F04FD491F901E852F04FC491C3
:101D8000CC23C1F0162F81110E946308EC2FF0E0E4
:101D9000EE0FFF1FE653F04FA591B4919FB7F89453
:101DA000111104C08C91D095D82302C0EC91DE2B88
:101DB000DC939FBFDF91CF911F910895CF93DF9365
:101DC00090E0FC01E555F04F2491FC01E852F04F02
:101DD0008491882361F190E0880F991FFC01EB5EEC
:101DE000FE4FC591D491FC01E653F04FA591B491FB
:101DF000611109C09FB7F894888120958223888358
:101E0000EC912E230BC0623061F49FB7F894888167
:101E1000322F309583238883EC912E2B2C939FBFF8
:101E200006C08FB7F894E8812E2B28838FBFDF91EF
:101E3000CF9108951F93CF93DF93182FEB0161E0AB
:101E40000E94DE0E209711F460E004C0CF3FD10560
:101E500039F461E0812FDF91CF911F910C94AF0E87
:101E6000E12FF0E0EA50FF4FE4918E2F90E0FC016B
:101E70003197EF30F10508F06CC0EB59FF4F0C942F
:101E8000BE2984B5806884BDC7BD68C084B5806242
:101E900084BDC8BD63C0809180008068809380004D
:101EA000D0938900C093880059C0809180008062DF
:101EB00080938000D0938B00C0938A004FC08091A4
:101EC0008000886080938000D0938D00C0938C0048
:101ED00045C080919000806880939000D0939900D5
:101EE000C09398003BC080919000806280939000E6
:101EF000D0939B00C0939A0031C08091900088607D
:101F000080939000D0939D00C0939C0027C0809147
:101F1000C00080688093C0008091C0008F7B809358
:101F2000C000C093CF001AC08091C000806280932F
:101F3000C000C093D00012C08091C200886080931E
:101F4000C2008091C2008B7F8093C200C093D200F8
:101F500005C0C038D1050CF07CCF76CFDF91CF9192
:101F60001F9108958F929F92AF92BF92CF92DF926E
:101F7000EF92FF926B017C010E94A0084B015C0173
:101F8000C114D104E104F104F1F00E94A008DC01C5
:101F9000CB0188199909AA09BB09883E9340A1057C
:101FA000B10570F321E0C21AD108E108F10888EE0A
:101FB000880E83E0981EA11CB11CC114D104E10459
:101FC000F10419F7DDCFFF90EF90DF90CF90BF9035
:101FD000AF909F908F9008958F929F92AF92BF92F3
:101FE000CF92DF92EF92FF920F931F93CF93DF93E5
:101FF0006C017B018A0180910B01882309F45CC08C
:1020000080914D02882309F457C08091360280FFE9
:1020100005C08091E00082608093E000E801B12C6F
:102020008AEFA82E93E0892E2AE3922E209711F4AE
:10203000BB20D9F10E94FD1781110AC0AA94AA20E1
:10204000D9F161E070E080E090E00E94B20FEECF45
:10205000282F30E0C217D3070CF48C2F9FB7F894C9
:102060008092E9002091E80025FF1DC0282F30E074
:10207000C21BD30BF701815020F041914093F10036
:10208000FACFE20EF31EBB2019F09092E8000AC0CE
:102090008091E80085FD07C09092E800BB24B394CE
:1020A000209709F0B12C9FBFC1CF5D9884E6809343
:1020B00037021016110644F081E090E0F601938398
:1020C000828380E090E001C0C801DF91CF911F9131
:1020D0000F91FF90EF90DF90CF90BF90AF909F90C7
:1020E0008F9008952FB7F8946091070270910802BD
:1020F0008091090290910A022FBF08951F920F92BA
:102100000FB60F9211242F933F938F939F93AF930A
:10211000BF938091070290910802A0910902B091AB
:102120000A023091060223E0230F2D3720F4019696
:10213000A11DB11D05C026E8230F0296A11DB11DEA
:10214000209306028093070290930802A09309024D
:10215000B0930A0280910B0290910C02A0910D02A3
:10216000B0910E020196A11DB11D80930B029093B8
:102170000C02A0930D02B0930E02BF91AF919F91FC
:102180008F913F912F910F900FBE0F901F90189538
:102190001F920F920FB60F9211242F933F934F93DC
:1021A0005F936F937F938F939F93AF93BF93EF93BF
:1021B000FF938091B900887F803609F49CC068F550
:1021C000883209F45BC090F4803109F454C038F4CB
:1021D000882309F4F6C0883009F44DC0F6C0883170
:1021E00009F44CC0803209F45DC0EFC0803409F4BA
:1021F00068C048F4803309F455C0883309F0E5C05D
:1022000080937202D8C0803509F44FC0883509F434
:102210005DC0883409F0D9C0D6C0883909F4C7C078
:10222000A8F4883709F467C038F4883609F463C025
:10223000803709F460C0C9C0883809F4B8C0803953
:1022400009F45FC0803809F0C0C05BC0803B09F46E
:1022500086C038F4803A09F466C0883A09F47FC031
:10226000B4C0803C09F4A7C0883C09F4A4C0883BF2
:1022700009F48AC0AAC080914F0210C090917102E7
:1022800080917002981770F5E091710281E08E0FD5
:1022900080937102F0E0E05BFD4F80818093BB0092
:1022A00085EC86C0809372028EC0E091710281E05D
:1022B0008E0F809371028091BB00F0E0E05BFD4FD8
:1022C000808390917102809170026EC0E0917102E2
:1022D00081E08E0F809371028091BB00F0E0E05BA3
:1022E000FD4F80838091730281116DC081E08093E6
:1022F0004E0284EA61C083E080937402109205026A
:10230000CFCF80910502803208F051C0E0910502E4
:1023100081E08E0F809305028091BB00F0E0EB51CD
:10232000FE4F8083BDCF85EC8093BC001092740279
:1023300080910502803230F4E0910502F0E0EB512B
:10234000FE4F10826091050270E0E0910F02F09163
:10235000100285EE91E009951092050236C084E0E6
:10236000809374021092E4011092E301E091110253
:10237000F091120209958091E301811105C081E07D
:102380008093E3011092C301E091E40181E08E0F9C
:102390008093E401F0E0ED53FE4F80818093BB0019
:1023A0009091E4018091E301981708F479CF85E8D2
:1023B0008093BC000AC085EC8093BC00109274022C
:1023C00004C0109272020E945D0BFF91EF91BF91C9
:1023D000AF919F918F917F916F915F914F913F91BD
:1023E0002F910F900FBE0F901F90189508958EBDDE
:1023F00000000DB407FEFDCF8EB508951F93CF9357
:10240000DF93FC01848D958D009729F1162FEF0144
:1024100020A131E03093750220939702109276024A
:1024200010929802DC01ED91FC910190F081E02D79
:1024300060E009958C8D9D8DDC01ED91FC91019002
:10244000F081E02D612F09958C8D9D8DDF91CF91CD
:102450001F910C94861BA4A5B5A59C9182A980957B
:1024600089238C93828D938D892B31F0862FDF9178
:10247000CF911F910C94F71128E030E080E8A0A5DF
:10248000B1A590A9462F482319F04C91942B03C075
:102490004C91909594239C93A2A5B3A54C9191A99E
:1024A000942B9C93A2A5B3A54C9191A990959423AC
:1024B0009C9386952150310911F7DF91CF911F919F
:1024C00008958CBD9DBD08951F93CF93DF93EC01BC
:1024D000162F8C8D9D8D892BB1F02EA93FA948AD6B
:1024E00059AD60E074E284EF90E00E94B828DA0110
:1024F000C9014097A109B109B695A7959795879508
:102500008093B8000FC08A8D9B8D892B21F08CA9F8
:102510009DA90E946112EEA5FFA590818BA98095CF
:1025200089238083111102C066EA01C067EACE01E7
:102530000E94FE118C8D9D8D892BB1F02AAD3BAD93
:102540004CAD5DAD60E074E284EF90E00E94B8288D
:10255000DA01C9014097A109B109B695A7959795E8
:1025600087958093B80006C0EEA5FFA590818BA942
:10257000892B8083DF91CF911F910895FF920F9354
:102580001F93CF93DF93EC01F62EFC010190002006
:10259000E9F73197E81BF90B01E313E086E08E9F22
:1025A000B0018F9F700D11247695679580E090E0C3
:1025B0000E9414289B01AC0160E070E080E892E486
:1025C0000E941B290E948829F801758764876F2D56
:1025D00070E077876687BE01C801DF91CF911F91B8
:1025E0000F91FF900C94B21ECF93DF93C3E3D0E022
:1025F000219729F16FE770E089E00E941A0F61E0EE
:1026000070E080E090E00E94B20F60E070E089E04E
:102610000E941A0F0E94C51C6FE770E08AE00E94BA
:102620001A0F61E070E080E090E00E94B20F60E07D
:1026300070E08AE00E941A0F0E94C51CD9CFDF917A
:10264000CF91089580913D0281110DC082E0809369
:10265000390284E080933A0210923C0210923B02CD
:1026600081E080933D0289E392E00895DF92EF924A
:10267000FF920F931F93CF93DF93D82E8A017B0194
:10268000E40EF51EEB01CE15DF0571F0D7FE03C099
:10269000FE01849101C088810E941C1E2196811137
:1026A000F2CF8FEF9FEF01C0C801DF91CF911F9153
:1026B0000F91FF90EF90DF9008950F931F93CF93AA
:1026C000DF931F92CDB7DEB782E0898342E450E00A
:1026D00061E27AE080E80E9436130E942213DC0156
:1026E00012960D911C9113970115110589F0D801CF
:1026F000ED91FC910280F381E02DBE016F5F7F4F71
:10270000C801099597FD04C0F80100851185ECCF3B
:1027100089810F90DF91CF911F910F910895EF92D2
:10272000FF920F931F93CF93DF9380914D0390916E
:102730004E03892BD1F020916703309168034091BB
:10274000690350916A0360E074E284EF90E00E94B4
:10275000B828DA01C9014097A109B109B695A79532
:10276000979587958093B80016C080914B03909100
:102770004C03892B31F080916503909166030E9490
:102780006112E0915F03F091600390818091640396
:1027900080958923808365E086EA9FE00E94E21BA2
:1027A00060913503615081E393E00E94FE11209116
:1027B000370330913803C901079697FD079633E038
:1027C000959587953A95E1F7209135033091360339
:1027D000829F8001839F100D929F100D1124C09144
:1027E0004F03D091500380914D0390914E030C0FF5
:1027F0001D1F009709F44CC02091510331E0309324
:102800007502209397021092760210929802DC01D2
:10281000ED91FC910190F081E02D60E40995FF2499
:10282000F394EE24E39480914D0390914E030C17A2
:102830001D0759F1BFE1BF15D0F40E94861B80919E
:102840005103E092750280939702109276021092E3
:10285000980280914D0390914E03DC01ED91FC9123
:102860000190F081E02D60E40995FF24F3948091BC
:102870004D0390914E036991DC01ED91FC91019023
:10288000F081E02D0995F394CECF0E94861B41C0C4
:10289000E0915D03F0915E03908180916303892B49
:1028A00080830C171D07A9F1899120914B0330916A
:1028B0004C03232B19F00E94F711F3CF28E030E0EE
:1028C00040E8E0915903F0915A0390916103582F29
:1028D000542319F05081952B03C050819095952376
:1028E0009083E0915B03F0915C03508190916203CF
:1028F000952B9083E0915B03F0915C035081909164
:102900006203909595239083469521503109C9F62D
:10291000C8CF80914D0390914E03892BD1F0209127
:102920006B0330916C0340916D0350916E0360E036
:1029300074E284EF90E00E94B828DA01C901409760
:10294000A109B109B695A795979587958093B80089
:1029500017C0E0915F03F091600390818091640360
:10296000892B808380914B0390914C03892B41F0FC
:10297000DF91CF911F910F91FF90EF900C94F61182
:10298000DF91CF911F910F91FF90EF9008950F93DA
:102990001F93CF93DF9377FF04C0260F371F60E0AC
:1029A00070E0DC011496CD91DC911597FB01E20FEC
:1029B000F31FCE17DF071CF49E01261B370B1216E0
:1029C00013060CF046C0FA0157FD3796DF01E3E02D
:1029D000B595A795EA95E1F7AC9FF001AD9FF00D95
:1029E000BC9FF00D11246E0F7F1FDC015E96ED91F0
:1029F000FC915F97E60FF71F4770552781E090E045
:102A000001C0880F4A95EAF7482F0130110539F0C7
:102A100078F002301105E9F42E0F3F1F13C02E0F7E
:102A20003F1FE217F307A9F08081842B8193F9CF30
:102A300080952E0F3F1FE217F30759F090819823DE
:102A40009193F9CFE217F30721F0808184278193D6
:102A5000F9CFDF91CF911F910F910895EF92FF92DF
:102A60000F931F93CF93DF93EC0177FDA5C0EC800C
:102A7000FD806E157F050CF09FC057FF04C0240F2A
:102A8000351F40E050E08E819F81FA01E20FF31F75
:102A90008E179F071CF49C01241B350B121613067E
:102AA0000CF08AC0922F842F8695869586958E9DF0
:102AB000D0018F9DB00D11246A0F7B1FAE8DBF8D8D
:102AC000A60FB71F4770B1F188E0841B482F682F0D
:102AD00070E0FB01E256F04FE491281798F4621B76
:102AE00071092FEF30E002C0359527956A95E2F71E
:102AF000E2230130110549F078F00230110509F0A8
:102B00005BC00EC00130110519F48C91E82B0AC08E
:102B10000130110508F049C0E0958C91E82302C00E
:102B20008C91E827EC93941708F446C02C813D81E2
:102B3000A20FB31FE92FE41BE830F8F002301105B3
:102B400061F48E2F9C9190959C932C813D81A20FD6
:102B5000B31F88508830B0F70FC081E00115110510
:102B600009F480E081959E2F8C932C813D81A20FEA
:102B7000B31F98509830C0F7E770EE23E9F0F0E00B
:102B8000EA56F04FE4910130110539F048F0023077
:102B9000110591F48C91E82706C08C91E82B03C0B5
:102BA000E0958C91E823EC9307C00230110509F4FD
:102BB000B7CFAE0DBF1DBECFDF91CF911F910F914B
:102BC000FF90EF9008952F923F924F925F926F92F5
:102BD0007F928F929F92AF92BF92CF92DF92EF92AD
:102BE000FF920F931F93CF93DF93CDB7DEB76B9711
:102BF0000FB6F894DEBF0FBECDBF9B8F8A8F5B01EF
:102C00001A01D22E1F830E833701C982DC01589628
:102C10002D913C9159972115310509F0E6C0189680
:102C20008D919C911997681779070CF0CDC11A9670
:102C30008D919C911B97481759070CF0C5C18C2C9E
:102C4000912CFB0126E0C29EE00DF11D1124FB87B3
:102C5000EA871E161F060CF0B7C1A40183E0440FDB
:102C6000551F8A95E1F75D874C87CA01820D931D38
:102C7000181619060CF0A8C157968C91811104C042
:102C80005FEA5D1508F4D394AA8DBB8DED91FC919C
:102C900011970284F385E02DCD010995B5E0DB9E07
:102CA000C0011124F5013596FF87EE87BB82AA8209
:102CB00025019C012A193B09398B288BA101485F0A
:102CC0005F4F5B8B4A8BE889F989E40DF51DEA5665
:102CD000F54F5491588761013D822C82888580FF91
:102CE00013C0AA8DBB8DED91FC91B981B13031F447
:102CF0000484F585E02D2E813F8116C00684F7857A
:102D0000E02DEE80FF801AC0EE81FF81E615F70509
:102D1000F1F0AA8DBB8DED91FC91B981B13051F4E8
:102D20000484F585E02D9301A601B2018A8D9B8D67
:102D300009950DC00684F785E02D73018401940187
:102D40004C815D816A817B818A8D9B8D0995E885A7
:102D5000E695E887FFEFCF1ADF0A2C813D81280D29
:102D6000391D3D832C834A895B89C416D50609F039
:102D7000B5CF5FEF451A550A8A819B81880D991D51
:102D80009B838A83AE85BF854A165B0609F09BCF7D
:102D9000EE81FF81E615F70509F4F4C0EA8DFB8D9D
:102DA000A081B181F981F13079F4B5016B5F7F4F7A
:102DB0005096ED91FC915197830128E030E0A101FC
:102DC0008A8D9B8D0995DEC06A857B856819790996
:102DD0001E96ED91FC911F9773010C851D85940142
:102DE000A1018A8D9B8D0995CDC0F9013496E4919E
:102DF000DE1AF901329685919491B7E0DB9E800D41
:102E0000911D1124F901259134913B8B2A8BFC01F2
:102E1000259134912901FC013296C4903196349168
:102E20003E87329614913196D4904981423058F0C1
:102E3000612E012E000C77088D2D0D2C000C990BA6
:102E40009987888704C019861886612C712CAA8DF1
:102E5000BB8DED91FC9111970284F385E02DCD019E
:102E60000995B9818B2E912C689CC001699C900DAD
:102E7000789C900D1124FC01EA0DFB1DFD87EC8769
:102E80001A82712C612CE12F110FFF0B95012E0F6F
:102E90003F1F3B872A87AC0CB11CA5014E0F5F1F5B
:102EA0005F8B4E8BC1018D0D911DD7FC9A95998F2B
:102EB000888F9E85691608F065C0862D90E048854C
:102EC0005985480F591F489D9001499D300D589DC7
:102ED000300D1124D101A20FB31FB98BA88BEC8543
:102EE000FD85FD83EC83AA84BB84DA80FA85DF1A32
:102EF000288D398D280F391F3D8B2C8B8D2D8A0DF8
:102F00004E895F89A416B506C1F1877041F4C201EC
:102F10000196EA89FB89E40DF51D74902C0177FE7A
:102F200021C0AA8DBB8DED91FC91B981B13061F4C6
:102F30000484F585E02D2E813F814C895D89B501A2
:102F40008A8D9B8D09950EC00684F785E02DEE8055
:102F5000FF8084019401488959896C817D818A8D23
:102F60009B8D0995770CEFEFAE1ABE0A2C813D813F
:102F7000280D391D3D832C83C1CF3A813C0D3A8306
:102F8000639497CFAA8DBB8DED91FC911197068824
:102F9000F789E02DCD016B960FB6F894DEBF0FBE1A
:102FA000CDBFDF91CF911F910F91FF90EF90DF90F8
:102FB000CF90BF90AF909F908F907F906F905F90D9
:102FC0004F903F902F9009946B960FB6F894DEBF08
:102FD0000FBECDBFDF91CF911F910F91FF90EF906A
:102FE000DF90CF90BF90AF909F908F907F906F9029
:102FF0005F904F903F902F9008952FB7F89483E003
:103000008093E9009091E800892F807295FF04C0B9
:103010009091F20080E4891B2FBF08951F920F92B8
:103020000FB60F9211248F939F938091E10090919E
:10303000E100937F9093E10083FF0FC01092E900BD
:1030400091E09093EB001092EC0092E39093ED00EE
:1030500010924D0298E09093F00082FF20C093E020
:103060009093E9009091F200992319F09AE39093DC
:10307000E80090913702992339F0909137029150EE
:1030800090933702992389F190914C02992339F05A
:1030900090914C02915090934C02992341F184FFFE
:1030A00010C08091E2008E7E81608093E20080916A
:1030B000E1008F7E8093E100809136028E7E8061F8
:1030C00011C080FF16C08091E2008E7E80618093E7
:1030D000E2008091E1008E7E8093E10080913602D3
:1030E0008E7E81608093360204C05D9ACDCF289A8F
:1030F000D6CF9F918F910F900FBE0F901F90189574
:103100001F920F920FB60F921124CF92DF92EF927F
:10311000FF920F931F932F933F934F935F936F9360
:103120007F938F939F93AF93BF93EF93FF93CF932F
:10313000DF93CDB7DEB76C97DEBFCDBF1092E9004D
:103140008091E80083FFFBC168E0CE0145960E94B4
:103150004A1E82EF8093E8008D8987FF05C0909119
:10316000E80090FFFCCF03C09EEF9093E800982FFB
:10317000907609F0C6C09E894F89588D2F89F88CAA
:1031800091110CC0803829F4809135028093F100B0
:1031900002C01092F1001092F10045C1913051F43B
:1031A000811141C14130510509F03DC18091350285
:1031B0008D7F0BC0933061F4811135C141305105D1
:1031C00009F031C1809135028260809335022BC1B4
:1031D000953049F48091E80080FFFCCF822F806811
:1031E0008093E30020C1963009F05EC00B8D1C8DEA
:1031F00022E01092E9001092340210923302F2128F
:1032000032C010923202109231020E945D1399E096
:10321000BE016F5F7F4FDB01E92F1D92EA95E9F751
:103220009983FA8291E09E8390EA98879AEF998732
:103230002091330230913402275F3F4F3C832B8330
:103240008D831092E9001092340210923302109391
:1032500032020093310249E050E080E00E943613D0
:103260000E945D13E0C010933202009331020E946D
:103270002213DC0112960D911C9113970115110573
:1032800009F4BBC0D801ED91FC910480F581E02DDB
:10329000BE016B5E7F4FC8010995009709F0C7C05A
:1032A000F80100851185EACF973009F445C19830BF
:1032B00021F481E08093F100B6C0993009F0B3C0E9
:1032C000837009F039C1E8E1F1E081E031E096E393
:1032D0002081211109C08EE78093EA001092EA0054
:1032E0008F8980934D029FC08093E9003093EB005B
:1032F00021912093EC009093ED008F5F873041F790
:10330000EACF8B8D9C8D1092E900109234021092BE
:1033100033029093320280933102898D811153C020
:103320008E899D89913A49F4813209F005C147E0BF
:1033300050E064E071E080E0BBC0913209F0FCC075
:10334000833269F48F89988DA0E0B0E0809300010A
:1033500090930101A0930201B093030164C08032F5
:1033600069F48091E80082FFFCCF67E084E091E09F
:103370000E944A1E8BEF8093E80055C0823209F00C
:1033800052C08F8980930B01EEEFFFE785919491F6
:103390008B3F9C4D19F0E0E0F8E002C0EEEFFAE060
:1033A0008091040190910501A0910601B09107015F
:1033B000803B9440A105B10509F09EC080910B01AE
:1033C00080FF79C099C00E942213FC010281138101
:1033D0000115110509F4B0C0D801ED91FC910190DF
:1033E000F081E02DBE016B5E7F4FC8010995811110
:1033F0001AC0F80100851185EBCFF1E0FF1609F442
:103400004EC0F3E0FF1298C08F89882309F44AC0A8
:10341000823089F440E860E185E89AE00E94C326A2
:10342000882309F489C08EEF8093E80088C01816BD
:103430001906CCF381C0813029F440E86BE089E7BC
:103440009AE0ECCF833009F077C00E942213DC01B0
:103450001296ED90FC9013978E010F5F1F4F68013D
:10346000E114F10479F0D701ED91FC910680F78128
:10347000E02DB801C7010995080F111DF701E0847F
:10348000F184EECFD8011C92F60101900020E9F7FB
:103490003197BF016C197D0940E0C601BFCF67E6D7
:1034A0007AE002C063E67AE0FB01449150E080E8F4
:1034B0000E943613B8CFEE3F2AE0F20751F0808128
:1034C00091818737A7E79A0721F09093FF0A8093AD
:1034D000FE0A87E797E7918380838091600080935D
:1034E00038029BE088E10FB6F894A89580936000BD
:1034F0000FBE9093600097CF808191818737974767
:1035000009F091CFA8958091600088618093600058
:103510008091380280936000EE3FBAE0FB0739F0FB
:103520008091FE0A9091FF0A918380837CCF109254
:10353000FF0A1092FE0A77CF81E28093EB006C962F
:103540000FB6F894DEBF0FBECDBFDF91CF91FF91D4
:10355000EF91BF91AF919F918F917F916F915F910B
:103560004F913F912F911F910F91FF90EF90DF901E
:10357000CF900F900FBE0F901F901895CF93C091D2
:10358000990280E090E00E94A228C81729F06C2FD1
:1035900080E090E00E94AA28C0919A0281E090E029
:1035A0000E94A228C81729F06C2F81E090E00E94A9
:1035B000AA2889E992E0CF910895209137033091AC
:1035C0003803C901079697FD079623E095958795DF
:1035D0002A95E1F72091350330913603829FA001AF
:1035E000839F500D929F500D112460E070E08091F8
:1035F0004F03909150030C94EA2A3F924F925F92AE
:103600006F927F928F929F92AF92BF92CF92DF92F2
:10361000EF92FF920F931F93CF93DF93CDB7DEB757
:1036200028970FB6F894DEBF0FBECDBF4C017E8346
:103630006D832A013901C801079697FD07969C0101
:1036400093E0359527959A95E1F73C832B83A12C40
:10365000B12CC12CD12C312CC2018C0D9D1D9A8313
:103660008983CE14DF04D4F518861F822F81388514
:10367000201731075CF5C90187709927892B11F054
:10368000330C0EC0EF81F885F7FD379683E0F59592
:10369000E7958A95E1F7EA0DFB1DE60DF71D3490DD
:1036A00037FE0DC021E030E049815A816D817E8175
:1036B0008F819885680F791FC4010E94A40A2F8109
:1036C00038852F5F3F4F38872F83D0CF3FEFC31A06
:1036D000D30A8B819C81A80EB91EBECF28960FB647
:1036E000F894DEBF0FBECDBFDF91CF911F910F9138
:1036F000FF90EF90DF90CF90BF90AF909F908F9012
:103700007F906F905F904F903F9008953091980216
:10371000313208F04BC0809174028111FCCF90913E
:10372000970222E02093740221E0209373022FEF8E
:10373000209372021092710230937002E7E7F2E078
:10374000A0E5B2E020E0321721F041914D932F5FC8
:10375000FACF10924F0220914F02990F922B909323
:103760004F0290914E02913061F410924E0290916E
:103770004F029093BB009091BC0093FDF8CF95EC65
:1037800001C095EE9093BC00909174029230E1F3E9
:10379000909172029F3F79F080917202803241F0E5
:1037A00080917202803331F084E005C081E003C073
:1037B00082E001C083E0109276021092980210928B
:1037C00075020895DF92EF92FF920F931F93CF93AC
:1037D000DF93D82ED92FC62F80914D0390914E03A1
:1037E000009709F454C02091510331E030937502E1
:1037F000209397021092760210929802DC01ED91CC
:10380000FC910190F081E02D60E00995ED2CFD2EFA
:1038100011E0D1E080914D0390914E03CC2371F1E2
:103820001032C8F00E94861B80915103D09375021C
:1038300080939702109276021092980280914D0325
:1038400090914E03DC01ED91FC910190F081E02D0F
:1038500060E0099511E080914D0390914E03F701CE
:103860006491DC01ED91FC910190F081E02D0995CE
:103870001F5FC150BFEFEB1AFB0ACCCFDF91CF9196
:103880001F910F91FF90EF90DF900C94861BE091B9
:103890005D03F0915E03908180916303809589239D
:1038A00080830D2D1D2FCC2309F439C0F80184919C
:1038B00020914B0330914C03232B31F00E94F711E0
:1038C000C1500F5F1F4FEFCF28E030E040E8E0919C
:1038D0005903F0915A0390916103582F542319F022
:1038E0005081952B03C05081909595239083E09152
:1038F0005B03F0915C03508190916203952B908360
:10390000E0915B03F0915C0350819091620390958C
:1039100095239083469521503109C9F6D1CFDF9187
:10392000CF911F910F91FF90EF90DF90089520911C
:103930004D02211103C08FEF9FEF08955FB7F894F8
:1039400022E02093E9002091F20030E012161306E5
:1039500014F421E030E0422FFC0184E6415038F0BD
:10396000289880934C029091F1009193F7CF211504
:10397000310521F08091F200882319F05FBFC90161
:1039800008958BE68093E800F9CFCF9380910C01E6
:103990008B3021F08F3F09F023C104C0E7EFFFE037
:1039A000C49197C08BE080930C01E7EFFFE0E491B6
:1039B000EF3F09F415C1E13009F442C040F1E330B2
:1039C00009F460C0E43009F083C01092C000109286
:1039D000C1008091C10088608093C1008091C100C6
:1039E00081608093C100E3EEFFE0E491F0E0EE0F30
:1039F000FF1FE653F04F85919491E6EBFFE0E491D1
:103A0000E0936F0361E08BE00E94DE0E99C014BC6E
:103A100015BC84B5826084BD85B5816085BDE3EE4B
:103A2000FFE0E491F0E0EE0FFF1FE653F04F8591C9
:103A30009491E6EBFFE0E491E0937103C0E04BC0AA
:103A400010928000109281008091810088608093A4
:103A5000810080918100816080938100E3EEFFE02E
:103A6000E491F0E0EE0FFF1FE653F04F8591949143
:103A7000E6EBFFE0E491E093700361E08BE00E94ED
:103A8000DE0E35C01092900010929100809191004E
:103A90008860809391008091910081608093910073
:103AA000E3EEFFE0E491F0E0EE0FFF1FE653F04F8E
:103AB000859194919093470280934602E6EBFFE054
:103AC000E491E093450261E08BE00E94DE0E2FC09E
:103AD000CE2FC7FD85C061E08BE00E94DE0ECC23B7
:103AE00009F467C0C23009F47BC0C130F1F48091A1
:103AF0008100887F83608093810083EC99E09093BC
:103B000089008093880081E090E0A0E0B0E080939D
:103B1000760390937703A0937803B0937903809111
:103B20006F00826080936F005BC0C33039F4809176
:103B30009100887F8360809391000EC0C43039F477
:103B40008091C100887F83608093C1001DC0C33015
:103B500019F0C430C9F044C083EC99E09093990007
:103B60008093980081E090E0A0E0B0E0809348026C
:103B700090934902A0934A02B0934B028091710046
:103B80008260809371002CC083EC8093CF0081E031
:103B900090E0A0E0B0E08093720390937303A09351
:103BA0007403B093750380917200806480937200F7
:103BB00017C085B5887F856085BD8BE987BD81E0AD
:103BC00090E0A0E0B0E080937A0390937B03A09311
:103BD0007C03B0937D0380916E00826080936E00C1
:103BE000CF910895CF92DF92EF92FF920F931F93A0
:103BF000CF93DF936C017A018B01C0E0D0E0CE154A
:103C0000DF0581F0D8016D918D01D601ED91FC9118
:103C10000190F081E02DC6010995892B11F02196C4
:103C2000EECF7E01C701DF91CF911F910F91FF90E1
:103C3000EF90DF90CF90089540913302509134027D
:103C4000209131023091320242175307B4F490911F
:103C5000E8009570E1F39091E80092FD19C080931F
:103C6000F100809133029091340201968F7399276D
:103C7000892B19F48EEF8093E800809133029091A4
:103C800034020196909334028093330281E00895C8
:103C900080E00895615030F02091F100FC01208314
:103CA0000196F8CF289884E680934C0208951F92DD
:103CB0000F920FB60F9211248F939F93AF93BF93E0
:103CC000EF93FF938091480290914902A0914A029C
:103CD000B0914B02892B8A2B8B2B51F1909145028D
:103CE000E0914602F091470280818927808380918C
:103CF000480290914902A0914A02B0914B021816D5
:103D000019061A061B061CF580914802909149027B
:103D1000A0914A02B0914B020197A109B109809389
:103D2000480290934902A0934A02B0934B020FC0FD
:103D3000809171008D7F8093710080914502E091A8
:103D40004602F09147029081809589238083FF91FC
:103D5000EF91BF91AF919F918F910F900FBE0F90F8
:103D60001F9018956115710579F0FB0101900020F5
:103D7000E9F73197AF01461B570BDC01ED91FC9140
:103D80000280F381E02D099480E090E008958F9205
:103D90009F92AF92BF92EF92FF920F931F93CF9398
:103DA000DF93CDB7DEB7A1970FB6F894DEBF0FBE95
:103DB000CDBF7C01FA01CB0119A2223008F42AE020
:103DC0008E010F5D1F4F822E912CA12CB12CBF01B3
:103DD000A50194010E94B828F901CA0101501109F6
:103DE0006A3014F4605D01C0695CD8016C93232BC8
:103DF000242B252B61F7B801C7010E94B21EA196A2
:103E00000FB6F894DEBF0FBECDBFDF91CF911F91EB
:103E10000F91FF90EF90BF90AF909F908F9008957B
:103E200086E491E0909332038093310380914F03B5
:103E300090915003009711F00C945C2A0895CF9351
:103E4000DF9300D000D0CDB7DEB7789484B5826020
:103E500084BD84B5816084BD85B5826085BD85B52E
:103E6000816085BD80916E00816080936E001092AC
:103E70008100809181008260809381008091810027
:103E800081608093810080918000816080938000B8
:103E90008091910082608093910080919100816077
:103EA0008093910080919000816080939000809138
:103EB000C10084608093C1008091C10082608093C2
:103EC000C1008091C10081608093C1008091C300D6
:103ED00081608093C3008091C00082608093C000A5
:103EE0008091C20081608093C20080917A008460DA
:103EF00080937A0080917A00826080937A0080912A
:103F00007A00816080937A0080917A008068809343
:103F10007A0010924D021092350210923602809172
:103F2000D70081608093D70080EA8093D80089B55C
:103F3000806189BD89B5826089BD09B400FEFDCF6D
:103F400061E070E080E090E00E94B20F8091D800C4
:103F50008F7C80618093D8008091E000807F809387
:103F6000E0008091E1008E7E8093E1008DE08093FF
:103F7000E200559A209A10922D0310922E0310926F
:103F80002F03109230031092ED021092EE02109265
:103F9000EF021092F0020E9472106B017C014B0143
:103FA0005C0128EB820E2BE0921EA11CB11C0E942A
:103FB00072106C157D058E059F0528F086169706F4
:103FC000A806B906A0F760ED77E080E090E00E94D7
:103FD000B20F8FEF9FEF9093A8028093A7020E94E9
:103FE00072106093ED027093EE028093EF02909353
:103FF000F0026EE671E08BE992E00E94B21E0E9430
:1040000072106B017C014B015C013AE0830E911C44
:10401000A11CB11C0E9472106C157D058E059F05B8
:1040200028F086169706A806B906A0F781E08093C7
:10403000010380914F0390915003892B11F520913A
:10404000370330913803C901079697FD079623E09F
:10405000959587952A95E1F72091350330913603A0
:10406000AC01429FC001439F900D529F900D1124BF
:104070000E94C4299093500380934F03892B09F425
:1040800015C10E94DD1A8091370390913803609129
:10409000350370913603813291050CF420C5AC01D3
:1040A0004054510957FF02C04F5F5F4F55954795E8
:1040B0006255710977FF02C06F5F7F4F75956795F5
:1040C00010E4E12EF12C02E510E02FE133E081E372
:1040D00093E00E94FD1A82E08093520380914D0389
:1040E00090914E03892B09F413C58CE380935103FF
:1040F00010921402109213021092760210929802FB
:104100001092740281E08093730210924E0261E07B
:1041100082E00E94AF0E61E083E00E94AF0E8091CA
:10412000B9008E7F8093B9008091B9008D7F809314
:10413000B90088E48093B80085E48093BC008FE8E0
:104140009BE0909312028093110280E99BE0909390
:10415000100280930F028091580387FD1EC061E01A
:104160000E94DE0E61E0809158030E94AF0E61E074
:1041700070E080E090E00E94B20F60E08091580310
:104180000E94AF0E6AE070E080E090E00E94B20F03
:1041900061E0809158030E94AF0E80914D03909191
:1041A0004E03892B09F475C520916703309168038C
:1041B0004091690350916A0360E074E284EF90E0FB
:1041C0000E94B828DA01C9014097A109B109B69542
:1041D000A795979587958093B80064E08BE391E06D
:1041E0000E94E21B60913703615081E393E00E94DB
:1041F000FE1164E087E391E00E94E21B809152038C
:10420000813009F45DC564E181E393E00E94FE1111
:1042100064E083E391E00E94E21B8091350390917A
:1042200036038038910509F05EC58091370390917F
:1042300038038032910509F045C564E08FE291E0D2
:104240000E94E21B69ED81E393E00E94FE118091E0
:104250005203813009F463C561EF81E393E00E946A
:10426000FE1166E083E291E00E94E21B80914D0323
:1042700090914E03892B09F454C520916B03309122
:104280006C0340916D0350916E0360E074E284EF23
:1042900090E00E94B828DA01C9014097A109B1094C
:1042A000B695A795979587958093B80081E0809300
:1042B000450381E090E090934403809343039093FF
:1042C00042038093410362E084E00E94DE0E62E0DC
:1042D00085E00E94DE0E62E086E00E94DE0E62E073
:1042E00087E00E94DE0E62E088E00E94DE0E61E060
:1042F00089E00E94DE0E61E08AE00E94DE0E61E04D
:104300008BE00E94DE0E80E290E090932502809385
:10431000240288E190E09093270280932602109275
:10432000280282E08093230283E090E090932C02A5
:1043300080932B0280E890E09093170280931602FE
:104340000E94BD2722E330E040E050E00E94DA28DE
:10435000DC01CB010896A11DB11D90931902809339
:1043600018020E94BD2724E030E040E050E00E94A7
:10437000DA28DC01CB010196A11DB11D90931B022F
:1043800080931A0210921C0280E090E00E94A22802
:104390008093990281E090E00E94A22880939A0283
:1043A0008091990290919A02019631F410929A02AA
:1043B000109299020E94BE1AB2E34B2E512C612C2E
:1043C000712C14E0812E912CA12CB12CA0E82A2E66
:1043D000312C0E947210672B682B692B41F40E94CC
:1043E0007210623071058105910508F401C10E94C7
:1043F0007210C0902D02D0902E02E0902F02F0900B
:1044000030026C157D058E059F0540F460932D02EA
:1044100070932E0280932F0290933002C0902D0251
:10442000D0902E02E0902F02F09030029B01AC0160
:104430002C193D094E095F0969017A013AEFC3164B
:10444000D104E104F10408F4D3C060932D02709309
:104450002E0280932F029093300284EF91E0A0E02F
:10446000B0E08093F9029093FA02A093FB02B0931C
:10447000FC021092FD021092FE021092FF021092B6
:1044800000038091F1029091F202A091F302B091A9
:10449000F4028093F5029093F602A093F702B09392
:1044A000F8020E9472106093F1027093F2028093FE
:1044B000F3029093F4020E9472106093ED027093E5
:1044C000EE028093EF029093F0020E9472106B0153
:1044D0007C0160E871E08BE992E00E94B21E2AE064
:1044E00041E050E060E070E08BE992E00E94C71E7E
:1044F00067E871E08BE992E00E94B21E2AE0B70102
:10450000A6018BE992E00E94C71E69E871E08BE981
:1045100092E00E94B21E8091F1029091F202A0916D
:10452000F302B091F402B701A601481B590B6A0BC4
:104530007B0B2AE08BE992E00E94C71E69E871E0DC
:104540008BE992E00E94B21E4091F1025091F2027A
:104550006091F3027091F4028091F5029091F6025D
:10456000A091F702B091F802481B590B6A0B7B0B24
:104570002AE08BE992E00E94C71E6BE871E08BE9AC
:1045800092E00E94B21E0E947210AB01BC012AE0B0
:104590008BE992E00E94C71E6DE871E08BE992E022
:1045A0000E94B21E6DE771E08BE992E00E94B21E9C
:1045B0000E9472106B017C019B01AC012B5F3F4F8D
:1045C0004F4F5F4F29833A834B835C830E94721065
:1045D0006C157D058E059F0508F0B6C30E9472100C
:1045E0006093F1027093F2028093F3029093F402CD
:1045F00080912802823071F440E250E0509325020D
:104600004093240288E190E0909327028093260251
:104610001092280284E00E94860E892B81F48091FA
:10462000260290912702049797FD05C090932702D8
:104630008093260204C0109227021092260285E081
:104640000E94860E892B99F4809126029091270270
:104650000496893391052CF49093270280932602C7
:1046600006C0A8E3B0E0B0932702A093260286E03C
:104670000E94860E892B81F480912402909125025C
:10468000049797FD05C0909325028093240204C0EF
:10469000109225021092240287E00E94860E892B38
:1046A00089F4809124029091250204968138910525
:1046B0002CF4909325028093240204C030922502AA
:1046C0002092240288E00E94860E892B29F4809192
:1046D0002302823009F443C38091230281110FC069
:1046E00080911D0290911E02069690931E02809367
:1046F0001D02813891051CF0B2E0B0932302809135
:104700001C02823021F530921702209216020E947C
:10471000BD27A30192010E94DA28DC01CB01089693
:10472000A11DB11D90931902809318020E94BD270C
:10473000A50194010E94DA28DC01CB010196A11D9C
:10474000B11D90931B0280931A0210921C0280915B
:104750001C02813019F422E020931C0280911C027B
:10476000811133C0809116029091170220911A0294
:1047700030911B02821B930B97FD05C0909317028B
:104780008093160222C030921702209216020E94D5
:10479000BD27A30192010E94DA28DC01CB01089613
:1047A000A11DB11D90931902809318020E94BD278C
:1047B000A50194010E94DA28DC01CB010196A11D1C
:1047C000B11D90931B0280931A02809123028111E4
:1047D00038C080911C02811134C0209116023091A2
:1047E000170280911D0290911E02AC01485F5F4F3D
:1047F0004217530734F1281739071CF120911F0283
:10480000309120028091180290911902A9014E5F07
:104810005F4F48175907ACF04096821793078CF00A
:1048200032E03093230281E080931C0280912902C0
:1048300090912A020A9690932A02809329020E945C
:10484000F41280912802811137C080911C028111DD
:1048500033C020911602309117028091240290916A
:104860002502AC01485F5F4F421753072CF1281710
:10487000390714F120912602309127028091180205
:1048800090911902A901405F5F4F48175907A4F0A2
:1048900040968217930784F021E0209328028091AC
:1048A0002B0290912C02019790932C0280932B0263
:1048B00020931C020E94F41280912B0290912C02F2
:1048C00097FF40C064EF71E080E090E00E94B20F7B
:1048D0008091290290912A022091990230919A02A6
:1048E0002817390730F490939A02809399020E9416
:1048F000BE1A0E94DD1A41E050E0509344034093F9
:104900004303509342034093410360E184E991E003
:104910000E94BE1260E38091290290912A020E94B7
:10492000BE120E948F1388E00E94860E892B09F721
:1049300010922A021092290283E090E090932C02B8
:1049400080932B020E94DD1A10923E0310923D03C9
:104950001092400310923F03C0902B02D0902C0283
:104960000D2C000CEE08FF08F7FE0EC06DE281E38F
:1049700093E00E94210D44275527BA014C195D0987
:104980006E097F092AE003C02AE0B701A60181E38E
:1049900093E00E94C71EA0E4B0E0B0933E03A09352
:1049A0003D031092400310923F0340912902509121
:1049B0002A0260E070E02AE081E393E00E94C71ED3
:1049C00080912802811113C0409126025091270244
:1049D0006091240270912502F0E1EF2EF12C08E0A5
:1049E00010E021E13AE081E393E00E94FD1A80911A
:1049F00028028130B1F44091260250912702609143
:104A0000240270912502E8E0EE2EF12C00E110E086
:104A100021E03AE081E393E00E94FD1AB2E0B09316
:104A2000280280912302811113C040911F025091EE
:104A3000200260911D0270911E0232E0E32EF12CE3
:104A400008E010E02FEF39E081E393E00E94FD1AC7
:104A500080911C02811113C04091180250911902DB
:104A6000609116027091170220E1E22EF12C00E114
:104A700010E02FED39E081E393E00E94FD1A809170
:104A80001C02813099F440911802509119026091F2
:104A900016027091170298E0E92EF12C00E110E067
:104AA00021E03AE081E393E00E94FD1A80E4E82EE1
:104AB000F12C00E810E02FED35E040E050E060E040
:104AC00070E081E393E00E94FD1A0E948F1320E0C2
:104AD00030E0232B09F47DCC0E94000077CCAC01A0
:104AE0004052510957FF02C04F5F5F4F55954795A0
:104AF0006357710977FF02C06F5F7F4F75956795A8
:104B0000F0E2EF2EF12C03E710E02FE331E0DFCAF3
:104B100061E0809156030E94DE0E61E080915703B0
:104B20000E94DE0E80915603082E000C990BFC01AA
:104B3000E852F04FE491F0E0EE0FFF1FE653F04F24
:104B40002591349130935E0320935D03FC01E5557C
:104B5000F04FE491E093630380915703082E000C1B
:104B6000990BFC01E852F04FE491F0E0EE0FFF1FCB
:104B7000E653F04FA591B491B0936003A0935F0307
:104B8000FC01E555F04FE491E09364038C91E82B30
:104B9000EC9380914B0390914C03892B09F436C020
:104BA0005FB75983F89480911502811127C0E9EE0F
:104BB000FFE08491ECEBFFE09491E82FF0E0EE0F42
:104BC000FF1FEB5EFE4FA591B491EC91E92321F418
:104BD00061E081E10E94AF0E61E081E10E94DE0EA2
:104BE0008CB580618CBD8CB580648CBD61E08FE03C
:104BF0000E94DE0E61E080E10E94DE0E80911502CF
:104C00008F5F8093150289818FBFA5CA61E0809173
:104C100054030E94DE0E61E0809155030E94DE0E77
:104C200080915403082E000C990BFC01E852F04FC0
:104C3000E491F0E0EE0FFF1FE653F04F2591349121
:104C400030935A0320935903FC01E555F04FE4914A
:104C5000E093610380915503082E000C990BFC0131
:104C6000E852F04FE491F0E0EE0FFF1FE653F04FF3
:104C7000A591B491B0935C03A0935B03FC01E5554F
:104C8000F04FE491E09362038C91E095E823EC937C
:104C900062CA80914B0390914C03892B31F0809133
:104CA0006503909166030E946112E0915F03F091A9
:104CB00060039081809164038095892380838DCAED
:104CC00060E1A2CA8034910509F0BCCA63E08CE2BD
:104CD00091E00E94E21B80915203813011F06FEC51
:104CE00019C06FE917C08036910509F0ABCA8091F1
:104CF000370390913803409709F0A4CA63E089E232
:104D000091E00E94E21B80915203813011F06FEA22
:104D100001C060E181E393E00E94FE1193CA62E268
:104D20009CCAE0915F03F0916003908180916403DD
:104D3000892B808380914B0390914C03892B09F43C
:104D4000B5CA0E94F611B2CA29813A814B815C81B1
:104D5000261737074807590708F038CC3FCC109280
:104D60002302809124029091250290931E02809349
:104D70001D028091260290912702089690932002AE
:104D800080931F02A9CCDF92EF92FF920F931F93A3
:104D9000CF93DF93D82EF92EE42E062F10E0C80112
:104DA0000196880F0E941C1E83E00E941C1ECD2DC0
:104DB000DF2D0C0F1D1FC017D10789F0E7FE03C0C0
:104DC000FE01849101C088810E941C1EF82E80E0A3
:104DD0000E941C1E8F2121968111EDCF01C081E020
:104DE000DF91CF911F910F91FF90EF90DF90089589
:104DF000EBE9F2E01382128248EE53E060E070E0EB
:104E0000448355836683778382E291E09183808334
:104E10008FEF9FEF95878487EBEEF2E01682178283
:104E200010861186128613861486158616861786B6
:104E3000108A118A128A138A148A158AAEE7B3E09F
:104E400013961C921E92129714964D935D936D9338
:104E50007C93179724E331E011963C932E93E1E382
:104E6000F3E01382128240E850E05583448320E44B
:104E700030E0378326835187408733872287158A1E
:104E8000158614861786168621E0248B938B828BD9
:104E9000918B808B268B178A118E108E86E491E081
:104EA00091838083138E128EB58FA48F178E168EEA
:104EB0008FEF83A384A385A386A387A380E584AB18
:104EC00015AA80E89AE1A6E0B0E086AB97ABA0AF68
:104ED000B1AF80EA96E8A1E0B0E082AF93AFA4AFB3
:104EE000B5AF08958F929F92AF92BF92CF92DF920B
:104EF000EF92FF92CF93DF93EC01688179818A81F1
:104F00009B81611571058105910521F464E279EDBC
:104F10008BE597E02DE133EF41E050E00E94DA2885
:104F200049015A019B01AC01A7EAB1E40E94F928AA
:104F30006B017C01ACEEB4EFA50194010E9407293E
:104F4000DC01CB018C0D9D1DAE1DBF1DB7FF03C045
:104F50000197A109B04888839983AA83BB83BC01C8
:104F6000CD019F77DF91CF91FF90EF90DF90CF90B1
:104F7000BF90AF909F908F9008958F929F92AF9225
:104F8000BF92CF92DF92EF92FF9260910D017091EC
:104F90000E0180910F01909110016115710581053D
:104FA000910521F464E279ED8BE597E02DE133EF93
:104FB00041E050E00E94DA2849015A019B01AC010E
:104FC000A7EAB1E40E94F9286B017C01ACEEB4EFD2
:104FD000A50194010E940729DC01CB018C0D9D1DC8
:104FE000AE1DBF1DB7FF03C00197A109B048809354
:104FF0000D0190930E01A0930F01B0931001BC011D
:10500000CD019F77FF90EF90DF90CF90BF90AF9052
:105010009F908F90089560930D0170930E0180937F
:105020000F01909310010895E89409C097FB3EF496
:1050300090958095709561957F4F8F4F9F4F9923E5
:10504000A9F0F92F96E9BB279395F6958795779563
:105050006795B795F111F8CFFAF4BB0F11F460FF23
:105060001BC06F5F7F4F8F4F9F4F16C0882311F07B
:1050700096E911C0772321F09EE8872F762F05C08F
:10508000662371F096E8862F70E060E02AF09A952A
:10509000660F771F881FDAF7880F9695879597F91F
:1050A000089597F99F6780E870E060E008959FEFAA
:1050B00080EC089500240A941616170618060906AF
:1050C000089500240A94121613061406050608957E
:1050D000092E0394000C11F4882352F0BB0F40F406
:1050E000BF2B11F460FF04C06F5F7F4F8F4F9F4F46
:1050F000089557FD9058440F551F59F05F3F71F0C8
:105100004795880F97FB991F61F09F3F79F087952E
:105110000895121613061406551FF2CF4695F1DFB7
:1051200008C0161617061806991FF1CF8695710547
:10513000610508940895E894BB2766277727CB017B
:1051400097F90895F999FECF92BD81BDF89A9927F4
:1051500080B50895262FF999FECF1FBA92BD81BD63
:1051600020BD0FB6F894FA9AF99A0FBE01960895E9
:10517000A1E21A2EAA1BBB1BFD010DC0AA1FBB1F5B
:10518000EE1FFF1FA217B307E407F50720F0A21BCD
:10519000B30BE40BF50B661F771F881F991F1A943A
:1051A00069F760957095809590959B01AC01BD0164
:1051B000CF010895052E97FB1EF400940E94F1285C
:1051C00057FD07D00E94B82807FC03D04EF40C947A
:1051D000F12850954095309521953F4F4F4F5F4FA7
:1051E000089590958095709561957F4F8F4F9F4F53
:1051F00008950E940C29A59F900DB49F900DA49F27
:10520000800D911D11240895B7FF0C94F9280E9478
:10521000F928821B930B0895A29FB001B39FC00190
:10522000A39F700D811D1124911DB29F700D811DD2
:105230001124911D08955058BB27AA270E94332995
:105240000C9468280E945A2838F00E94612820F0A7
:1052500039F49F3F19F426F40C9457280EF4E09586
:10526000E7FB0C945128E92F0E94792858F3BA17CC
:10527000620773078407950720F079F4A6F50C946C
:105280009B280EF4E0950B2EBA2FA02D0B01B9012F
:1052900090010C01CA01A0011124FF27591B99F0AC
:1052A000593F50F4503E68F11A16F040A22F232FB8
:1052B000342F4427585FF3CF469537952795A79508
:1052C000F0405395C9F77EF41F16BA0B620B730BAF
:1052D000840BBAF09150A1F0FF0FBB1F661F771F20
:1052E000881FC2F70EC0BA0F621F731F841F48F4D5
:1052F000879577956795B795F7959E3F08F0B0CF5E
:105300009395880F08F09927EE0F97958795089544
:105310000E948F296894B1110C949C2808950E94D2
:10532000812888F09F5798F0B92F9927B751B0F08E
:10533000E1F0660F771F881F991F1AF0BA95C9F719
:1053400014C0B13091F00E949B28B1E008950C94F4
:105350009B28672F782F8827B85F39F0B93FCCF3A7
:10536000869577956795B395D9F73EF49095809596
:10537000709561957F4F8F4F9F4F0895EE0FFF1FE0
:105380000590F491E02D09940F931F93CF93DF9331
:105390008230910510F482E090E0E0918C03F0916E
:1053A0008D0320E030E0A0E0B0E0309719F14081BB
:1053B00051810281138148175907C8F08417950756
:1053C00069F4109731F012960C93129713961C9370
:1053D00027C000938C0310938D0322C02115310543
:1053E00019F04217530718F49A01BD01EF01DF01CC
:1053F000F801DBCF21153105F9F0281B390B2430DA
:10540000310580F48A819B816115710521F0FB01D2
:105410009383828304C090938D0380938C03FE0159
:10542000329644C0FE01E20FF31F81939193225004
:105430003109398328833AC020918A0330918B0344
:10544000232B41F4209113013091140130938B03ED
:1054500020938A0320911101309112012115310509
:1054600041F42DB73EB74091150150911601241B10
:10547000350BE0918A03F0918B03E217F307A0F458
:105480002E1B3F0B2817390778F0AC014E5F5F4F9A
:105490002417350748F04E0F5F1F50938B0340933E
:1054A0008A038193919302C0E0E0F0E0CF01DF91A5
:1054B000CF911F910F910895CF93DF93009709F437
:1054C00081C0FC01329713821282A0918C03B091AB
:1054D0008D03109781F420813181820F931F2091D9
:1054E0008A0330918B032817390751F5F0938B030A
:1054F000E0938A0367C0ED0120E030E0CE17DF07BC
:1055000040F44A815B819E0141155105F1F0EA01A9
:10551000F5CFD383C28340815181840F951FC81773
:10552000D90759F488819981840F951F0296918338
:1055300080838A819B81938382832115310529F49D
:10554000F0938D03E0938C033DC0E901FB83EA8374
:1055500049915991C40FD51FEC17FD0761F4808163
:105560009181840F951F0296E90199838883828136
:1055700093819B838A83E0E0F0E012968D919C9169
:105580001397009719F0FD01DC01F7CF8D919C91E5
:1055900011979D012E5F3F4F820F931F20918A0329
:1055A00030918B032817390769F4309729F410924A
:1055B0008D0310928C0302C013821282B0938B036E
:1055C000A0938A03DF91CF91089581E090E0F89451
:1055D0000C94F12ADC0101C06D9341505040E0F77A
:1055E000089517E0CDEFD7E004C0FE010E94BE2968
:0C55F0002196CE3FD107C9F7F894FFCFF9
:1055FC00FFFFFFFF00E1000000000000FF010000C2
:10560C000000008E03800000C180810000000000BB
:10561C0000002808EC0FD90C3E084908010DDD0CE0
:10562C0000000000E90BBC0BD60C7B0AB40BA00BE2
:10563C00910B00000000210DF21DD60CD50C180C9E
:10564C007B0AA40A7C0A980A8C0AAB0A7B0AC60855
:10565C006412F70D3B0EC409A7093A09DB08564D35
:10566C004450565F317C315F564D4450560D0A0004
:10567C00564D4450455F003A323A007C005F564D1F
:0E568C004450450047414D45204F56455200C1
:00000001FF
