:100000000C94E0090C94080A0C94080A0C94080A51
:100010000C94080A0C94080A0C94080A0C94080A18
:100020000C94080A0C94080A0C940E1C0C947D1C69
:100030000C94080A0C94080A0C94080A0C94080AF8
:100040000C94080A0C94080A0C94080A0C94080AE8
:100050000C94080A0C94080A0C94080A0C940A1FC1
:100060000C94080A0C94080A0C94080A0C94080AC8
:100070000C94080A0C94080A0C94080A0C94080AB8
:100080000C94AF1E0C94080A0C94080A0C94080AED
:100090000C94541F0C94080A0C94080A0C94080A37
:1000A0000C94080A0C94080A0C94080A000103072F
:1000B0000F1F3F7F0080C0E0F0F8FCFE0000000052
:1000C000003E5B4F5B3E3E6B4F6B3E1C3E7C3E1CDE
:1000D000183C7E3C181C577D571C1C5E7F5E1C0024
:1000E000183C1800FFE7C3E7FF0018241800FFE7DB
:1000F000DBE7FF30483A060E2629792926407F059E
:100100000507407F05253F5A3CE73C5A7F3E1C1CB3
:1001100008081C1C3E7F14227F22145F5F005F5F73
:1001200006097F017F006689956A6060606060945F
:10013000A2FFA29408047E040810207E2010080864
:100140002A1C08081C2A08081E101010100C1E0C6F
:100150001E0C30383E3830060E3E0E060000000001
:100160000000005F00000007000700147F147F14E8
:10017000242A7F2A1223130864623649562050002D
:1001800008070300001C2241000041221C002A1C19
:100190007F1C2A08083E0808008070300008080804
:1001A0000808000060600020100804023E51494524
:1001B0003E00427F400072494949462141494D3342
:1001C0001814127F1027454545393C4A49493141A9
:1001D000211109073649494936464949291E000077
:1001E00014000000403400000008142241141414CC
:1001F0001414004122140802015909063E415D59B8
:100200004E7C1211127C7F494949363E41414122C0
:100210007F4141413E7F494949417F090909013EEA
:10022000414151737F0808087F00417F4100204011
:10023000413F017F081422417F404040407F021C23
:10024000027F7F0408107F3E4141413E7F0909093A
:10025000063E4151215E7F09192946264949493206
:1002600003017F01033F4040403F1F2040201F3FCC
:100270004038403F63140814630304780403615951
:10028000494D43007F414141020408102000414193
:10029000417F04020102044040404040000307083F
:1002A0000020545478407F2844443838444444283B
:1002B000384444287F385454541800087E090218E2
:1002C000A4A49C787F0804047800447D400020406A
:1002D000403D007F1028440000417F40007C0478AE
:1002E00004787C080404783844444438FC182424F6
:1002F0001818242418FC7C08040408485454542476
:1003000004043F44243C4040207C1C2040201C3CF2
:100310004030403C44281028444C9090907C4464E9
:10032000544C44000836410000007700000041367C
:10033000080002010204023C2623263C1EA1A16102
:10034000123A4040207A3854545559215555794134
:100350002254547842215554784020545579400C09
:100360001E527212395555555939545454593955EC
:100370005454580000457C410002457D420001452F
:100380007C407D1211127DF0282528F07C545545C3
:10039000002054547C547C0A097F4932494949322F
:1003A0003A4444443A324A4848303A4141217A3A40
:1003B00042402078009DA0A07D3D4242423D3D400C
:1003C00040403D3C24FF2424487E4943662B2FFCBB
:1003D0002F2BFF0929F620C0887E09032054547969
:1003E000410000447D413048484A32384040227A3A
:1003F000007A0A0A727D0D19317D2629292F2826B7
:100400002929292630484D402038080808080808BE
:100410000808382F10C8ACBA2F102834FA00007B17
:10042000000008142A142222142A1408550055002A
:1004300055AA55AA55AAFF55FF55FF000000FF0019
:10044000101010FF00141414FF001010FF00FF1014
:1004500010F010F0141414FC001414F700FF000046
:10046000FF00FF1414F404FC141417101F10101FC5
:10047000101F1414141F00101010F0000000001FB3
:10048000101010101F10101010F010000000FF10BE
:100490001010101010101010FF10000000FF1400BA
:1004A00000FF00FF00001F10170000FC04F41414EC
:1004B0001710171414F404F40000FF00F7141414B8
:1004C00014141414F700F7141414171410101F1038
:1004D0001F141414F4141010F010F000001F101F5B
:1004E0000000001F14000000FC140000F010F010C9
:1004F00010FF10FF141414FF141010101F00000040
:1005000000F010FFFFFFFFFFF0F0F0F0F0FFFFFF43
:100510000000000000FFFF0F0F0F0F0F384444389A
:1005200044FC4A4A4A347E02020606027E027E02E9
:1005300063554941633844443C04407E201E2006F4
:10054000027E020299A5E7A5991C2A492A1C4C7231
:1005500001724C304A4D4D303048784830BC625AB8
:10056000463D3E494949007E0101017E2A2A2A2A48
:100570002A44445F444440514A444040444A514024
:100580000000FF0103E080FF000008086B6B0836E5
:1005900012362436060F090F060000181800000056
:1005A0001010003040FF0101001F01011E00191D45
:1005B0001712003C3C3C3C00000000000000000022
:1005C0002300260029002C002F0000000002000953
:1005D0000F0000030401000C0000000000000000F8
:1005E00000000000000000000000000000240027C0
:1005F000002A002D003000DB40A4A62EAFDA0281D5
:10060000DA1281DA02818F2000A1C8D300408DAEBA
:10061000D580A8000060000000000000000000007D
:1006200000000000E00000000000000000000000EA
:10063000000001E0000000000000000000000000D9
:100640000001F000000000000000000000000000B9
:1006500003F00000000000000000000000000007A0
:10066000F00000000000000000000000000007F89B
:10067000000000000000000000000000000FF80073
:10068000000003C0007E000001E0007F0FF80000C2
:100690000003C000FE000001E000FFEFF8000000D2
:1006A00003C000FE000001E000FFFFF800000003AF
:1006B000C000F00000000F007FFE7FC0000003C0FC
:1006C00000F00000000F003FFE7FF83FF1FBCFFC81
:1006D000FEF3BC3DEFE01FFE7FFF7FFBFFDFFEFE72
:1006E000FFBC3DEFE01FC6FFFF7FFBFFDFFEFEFF0D
:1006F000BC3DEFE00FE3C7FE787BC3DE1EF0FFBC1E
:100700003DEF0007FF87FC787BC3DE1EF0F83C3D21
:10071000EF0001FFFFF0007BC3C01EF0F03C3DEF97
:100720000001F37FE03FFBC3CFFEF0F03C3DEF0064
:1007300003E33F807FFBC3DFFEF0F03C3DEF0007AB
:10074000E73C00787BC3DE1EF0F03C3DEF0007FF86
:10075000BE00787BC3DE1EF0F03C3DEF0007FFFEDD
:1007600000787BC3DE1EF0F03C3DEF000FFFFE0083
:100770007FFBFFDFFEF0F03FFDEFE00FFFFF007FAC
:10078000FBFFDFFEF0F03FFDEFE00FF9FF003E79E9
:10079000F9CF9EF0F01F3DE7E01FF1FF00000000E1
:1007A00000000000000000001F80FF007FFFFFFF2F
:1007B000FFFFFFFFFFFFE01C007F007FFFFFFFFE4A
:1007C000B46D888D18E000001F007FFFFFFFFE95CD
:1007D000AD7DB577E000000F007FFFFFFFFEA5AD08
:1007E0009D8D19E0000006007FFFFFFFFEB5ADED17
:1007F000B57EE00000000000018000000000000065
:10080000000000038000000000000000000007C09E
:1008100000000000000000000007C0000000000011
:10082000000000000FC00000000000000000001FDA
:10083000E00000000000000000001FE000000000D9
:1008400000000000003FE000000000000000000089
:100850003FF00000000000000000007FF0000000FA
:10086000000000001FF87FF0000000000000003FC3
:10087000FE7FF0000000000000003FFF7FF000005E
:1008800000000000001FFFFBE0000000000000006F
:100890000FFFF9FFC00000000000000FFFF9FFF894
:1008A00000000000000007FFF1FFFF000000000053
:1008B0000003FC73FFFF80000000000001FE3FFF0B
:1008C000FF80000000000000FF1E0FFF000000007E
:1008D0000000007FFE1FFC000000000000003FFF42
:1008E000FFF8000000000000000FDFFFE000000044
:1008F000000000001F19FFC0000000000000003FC2
:100900003CFF00000000000000007E7CF8000000BA
:1009100000000000007FFE7C0000000000000000DE
:10092000FFFFFC0000000000000000FFFFFE0000D1
:10093000000000000000FFFFFE00000000000000BB
:1009400001FFEFFE0000000000000001FFCFFE00ED
:1009500000000000000003FF07FE00000000000090
:100960000003FC07FE0000000000000003F003FE8F
:1009700000000000000000018000FE0000000000F8
:1009800000000000007E00000000000000000000E9
:100990003E000000000000000000000C000000000D
:1009A0000000078000FC000003C000000007800179
:1009B000FC000003C0000000078001FC000003C031
:1009C000000000078001E00000001E00000007801A
:1009D00001E00000001E007FE3F79FF9FDE7787B50
:1009E000DFC0FFF7FFBFFDFDFF787BDFC0FFF7FF34
:1009F000BFFDFDFF787BDFC0F0F787BC3DE1FF78EE
:100A00007BDE00F0F787BC3DE1F0787BDE0000F78D
:100A100087803DE1E0787BDE007FF7879FFDE1E0A6
:100A2000787BDE00FFF787BFFDE1E0787BDE00F03A
:100A3000F787BC3DE1E0787BDE00F0F787BC3DE165
:100A4000E0787BDE00F0F787BC3DE1E0787BDE00FC
:100A5000FFF7FFBFFDE1E07FFBDFC0FFF7FFBFFD5A
:100A6000E1E07FFBDFC07CF3F39F3DE1E03E7BCF25
:100A7000C00000000000000000000000FFFFFFFFBA
:100A8000FFFFFFFFFFFFC0FFFFFFFFFD68DB111A45
:100A900031C0FFFFFFFFFD2B5AFB6AEFC0FFFFFFD6
:100AA000FFFD4B5B3B1A33C0FFFFFFFFFD6B5BDBC2
:100AB0006AFDC0000000000000000000000000000F
:100AC00000000020000800000000000000000000FE
:100AD000000000000000000000000800000000000E
:100AE0000000000000000002800000001000000074
:100AF000000020000000000EA00000000000000028
:100B0000000000000000003A0000000000000000AB
:100B10000000000000000055080000000000000078
:100B20000000000000000074400000000000100001
:100B300040000000020000D0008000000000000023
:100B400000000000000040EA8000000000000000FB
:100B500000000000000000A00000000000000000F5
:100B600000000000000000D008800000000000002D
:100B700000000000000000A40000000000000000D1
:100B800000000000000000C00A000000000000009B
:100B900000400000000000482100000000000008A4
:100BA00000002000000000400400004000000000A1
:100BB0000000000000000020000000000000000015
:100BC00000000000000000081200000000044000C7
:100BD000000000000000000000000000005BB40006
:100BE000000000000000000540000000017D5A8068
:100BF00000000000080000000000000003EB494076
:100C00000000000000000000000000000BBAA41467
:100C10000000000000000000000000002ED5510080
:100C20000080000000000000000000001B6A044477
:100C3000000000000000000000000000FFB55001AF
:100C40000000000000000000000000016AAA02206D
:100C5000400000000000000000000002DD554004DC
:100C6000000000000000000000000003F548110033
:100C7000200000000000002000000006B6A2842032
:100C800000000000000400000000000FEA90400097
:100C900090000000000000000000800DBAA42002B7
:100CA000044000000000000000000007EA81008806
:100CB00040000040000000000000001EAA2808209C
:100CC00004000000000000000000003BB48122800E
:100CD00000004000000000000000002ED21048007C
:100CE000020000000000000000000037594500002D
:100CF00000000000000080000000001AC42800006E
:100D000002000000000000000000002F7542800477
:100D100000000000001084000000003AA80010103D
:100D200042000000000000000000003FA524004039
:100D300000000000020490000000006A5000400023
:100D4000040000000002A0000000003D88890002AD
:100D50000200000000008000000000356200010871
:100D6000000000000057F5000000005A8820002015
:100D70004A0000000000800000000036A080000251
:100D8000000000000002A0000000002D120002116F
:100D90000A000000000490000000001AC000004497
:100DA00044000200000000000000002D29040002A1
:100DB0002804000000108400000000150020082115
:100DC00010000001000000000040000CAA00010813
:100DD000A8000000000080000000000A800010044D
:100DE000400000000000000000000005510002214A
:100DF00030000000000040000000000A0421081438
:100E0000400000000000000000000005508000418C
:100E1000400000000000000000000001220000006F
:100E200080000000000000000000000280000209B5
:100E30000000000000000000000000005088202298
:100E4000020000000000000000000000840000021A
:100E500000000000000200000000000010000088F8
:100E60000004000000000000000000000900002055
:100E7000000000020000000000000800024804001A
:100E8000000000000000000000000000008241009F
:100E9000000000000000000000000000001114002D
:100EA0000000000000000000004000000000000002
:100EB0000000000000000000000000000000000032
:100EC00000000020000800000000000000000000FA
:100ED000000000000000000000000800000000000A
:100EE0000000000000000002800000001000000070
:100EF000000020000000000EA00000000000000024
:100F0000000000000000003A0000000000000000A7
:100F10000000000000000055080000000000000074
:100F200000000000000000744000000000001000FD
:100F300040000000020000D000800000000000001F
:100F400000000000000040EA8000000000000000F7
:100F500000000000000000A00000000000000000F1
:100F600000000000000000D0088000000000000029
:100F700000000000000000A40000000000000000CD
:100F800000000000000000C00A0000000000000097
:100F900000400000000000482100000000000008A0
:100FA000000020000000004004000040000000009D
:100FB0000000000000000020000000000000000011
:100FC0000000000000000008120000000000000007
:100FD0000000000000000000000000000000000011
:100FE000000000000000000540000000001C1C0084
:100FF0000000000008000000000000000040014068
:1010000000000000000000000000000002000020BE
:1010100000000000000000000000000008000018B0
:10102000008000000000000000000000000000043C
:101030000000000000000000000000000000003C74
:10104000800000000000000000000000000007FE1B
:1010500080000000000000000000000000007FFF92
:101060008000000000000000000000010000FFFF01
:10107000C000000000000020000000020003FFF894
:10108000200000000004000000000002000FFCFF30
:10109000A000000000000000000080040017FE8097
:1010A000104000000000000000000004007FFE80EF
:1010B00010000040000000000000000800FFE800F1
:1010C00008000000000000000000000001FF800098
:1010D00008004000000000000000001003FE0000B7
:1010E0000400000000000000000000100FFC0000E1
:1010F0000400000000008000000000000FF000006D
:101100000400000000000000000000001FF00000CC
:101110000000000000108400000000103FE000000C
:101120000000000000000000000000103FC00000B0
:101130000400000002049000000000107F80000006
:10114000040000000002A000000000107F0000006A
:101150000400000000008000000000107E0000007D
:10116000000000000057F50000000000FE00000035
:10117000000000000000800000000000FD000000F2
:10118000040000000002A00000000011FC00001894
:10119000040000000004900000000001FA000010AC
:1011A000000002000000000000000009F80007C075
:1011B000080400000010840000000001F8000F0087
:1011C000100000010000000000400007F800FC00D3
:1011D000100000000000800000000003F80FF00085
:1011E00020000000000000000000000179FF8000E6
:1011F000200000000000400000000000FFFC000094
:10120000000000000000000000000000FFF80000E7
:101210000000000000000000000000005F800000EF
:1012200000000000000000000000000006000000B8
:1012300000000000000000000000000000000000AE
:101240000200000000000000000000000000000894
:101250000000000000020000000000000400001078
:101260000004000000000000000000000200000078
:10127000000000020000000000000800003006002E
:101280000000000000000000000000000007F00067
:10129000000000000000000000000000000000004E
:1012A00000000000000000000040000000000000FE
:1012B0000000000000038007E00DB04DB26FD6FBC8
:1012C000FF0FF807E003C00E70781E200C20080006
:1012D000000000AA550880451020201040C01810BA
:1012E000402020451080C0F8C0C0E0F8FFF8E0C002
:1012F000C0F8C08000080B000202020100090400CF
:101300000001020200000524001001052401010172
:10131000042402060524060001070581031000408D
:1013200009040100020A0000000705020240000053
:10133000070583024000000403090412010002EFC4
:101340000201404123368000010102030141726421
:1013500075696E6F204C4C430041726475696E6F05
:10136000204C656F6E6172646F002200FF210004E3
:101370000802011040804010204080408008020494
:101380000180402010020110801020404020000009
:101390000000250028002B002E0031000404040466
:1013A000040304050202020204030202020206060A
:1013B000060606060404020202040403A6206628A8
:1013C00011241FBECFEFDAE0DEBFCDBF11E0A0E0F9
:1013D000B1E0E0E1FEE502C005900D92AE3EB1073E
:1013E000D9F723E0AEEEB1E001C01D92AB38B207F1
:1013F000E1F719E0CFEDD9E004C02197FE010E948A
:10140000EC2ACE3DD107C9F70E94F2200C94FB2EA6
:101410000C9400000895FC018091DB02882311F1F7
:101420003FB7F89482E08093E9002091F200822F88
:1014300090E01816190614F481E090E0882339F042
:10144000289844E64093DA024091F1004083222339
:1014500039F02091F200211103C02BE62093E8001F
:101460003FBF08958FEF9FEF08952FB7F89483E063
:101470008093E9009091E800892F807295FF04C065
:101480009091F20080E4891B2FBF08958091D202D1
:1014900081110DC082E08093CE0284E08093CF0260
:1014A0001092D1021092D00281E08093D2028EEC91
:1014B00092E00895CF93DF931F92CDB7DEB7698393
:1014C000DC01ED91FC910280F381E02D41E050E0E0
:1014D000BE016F5F7F4F09950F90DF91CF91089507
:1014E00083E08093E9008091F200882319F08AE379
:1014F0008093E80008950E94350A90E00895CF9304
:10150000DF931F92CDB7DEB7FC018485958597FDEB
:1015100008C02FEF3FEF358724870F90DF91CF91E1
:101520000895CE0101960E940B0A019719F4898152
:1015300090E0F3CF8FEF9FEFF0CF0F931F93CF93F8
:10154000DF931F92CDB7DEB78C01FC0184859585B2
:1015500097FF0BC0CE0101960E940B0A019771F410
:10156000898190E0F80195878487F80184859585C5
:101570000F90DF91CF911F910F9108958FEF9FEF03
:10158000F1CFFC018485958597FD0BC09FB7F8943A
:1015900082E08093E9008091F2009FBF90E0019685
:1015A00008959FB7F89482E08093E9008091F2005B
:1015B0009FBF90E008954091C8025091C9022091C8
:1015C000C6023091C70242175307B4F49091E80065
:1015D0009570E1F39091E80092FD19C08093F100BD
:1015E0008091C8029091C90201968F739927892B27
:1015F00019F48EEF8093E8008091C8029091C9029F
:1016000001969093C9028093C80281E0089580E01A
:101610000895DF92EF92FF920F931F93CF93DF9382
:10162000D82E8A01EB017B01E40EF51ECE15DF05F5
:1016300059F0D7FE12C0FE0184910E94DB0A219668
:101640008111F4CF0FEF1FEFC801DF91CF911F91F0
:101650000F91FF90EF90DF9008958881EECF0F9368
:101660001F93CF93DF931F92CDB7DEB782E08983BC
:1016700042E450E065EF72E180E80E94090B0E94AD
:10168000460ADC0112960D911C910115110589F095
:10169000D801ED91FC910280F381E02DBE016F5FD6
:1016A0007F4FC801099597FD04C0F8010085118599
:1016B000ECCF89810F90DF91CF911F910F91089509
:1016C000615030F02091F100FC0120830196F8CFA9
:1016D000289884E68093DA020895AF92BF92CF9261
:1016E000DF92EF92FF920F931F93CF93DF936C01E2
:1016F0007B018B01040F151FEB015E01AE18BF08C3
:10170000C017D10759F06991D601ED91FC91019074
:10171000F081E02DC6010995892B79F7C501DF918C
:10172000CF911F910F91FF90EF90DF90CF90BF90DE
:10173000AF9008950895089581508F3008F047C004
:10174000E82FF0E0EA55F44F0C94EC2AC30BC70BDA
:10175000B50BBB0BBF0BE70BE70BE70BCA0BD00BB3
:10176000D40BD80BDE0BE70BE20B809180008F7758
:10177000809380000895809180008F7DF9CF8091C3
:101780008000877FF5CF84B58F7784BD089584B5B9
:101790008F7DFBCF809190008F778093900008958C
:1017A000809190008F7DF9CF80919000877FF5CF59
:1017B0008091C0008F778093C00008958091C00011
:1017C0008F7DF9CF8091C200877F8093C2000895FA
:1017D000CF93DF93282F30E0F901E653FA4F84913D
:1017E000F901E159FC4ED491F901E456FC4EC49143
:1017F000CC23A1F081110E949C0BEC2FF0E0EE0FA6
:10180000FF1FE454FA4FA591B491EC91ED2381E0D0
:1018100090E009F480E0DF91CF91089580E090E0BE
:10182000FACF1F93CF93DF93282F30E0F901E653CF
:10183000FA4F8491F901E159FC4ED491F901E45633
:10184000FC4EC491CC23A9F0162F81110E949C0B51
:10185000EC2FF0E0EE0FFF1FE257FC4EA591B49184
:101860008FB7F894EC91111108C0D095DE23DC936A
:101870008FBFDF91CF911F910895DE2BF8CFCF93CB
:10188000DF9390E0FC01E159FC4E249184569C4E7C
:10189000FC0184918823D1F090E0880F991FFC010E
:1018A000E751FA4FA591B491FC01E257FC4EC59166
:1018B000D491623071F49FB7F8943C91822F809557
:1018C00083238C93E8812E2B28839FBFDF91CF91B8
:1018D00008958FB7F894EC912E2B2C938FBFF6CFF1
:1018E000CF9380911101853021F08F3F89F1CF9105
:1018F0000895EBEBF3E1C491C7FDF9CF61E085E01A
:101900000E943F0CCC2309F4B2C0C23081F3C13035
:1019100009F0C5C080918100887F83608093810039
:1019200083EC99E0909389008093880081E090E0B7
:10193000A0E0B0E08093EA029093EB02A093EC0267
:10194000B093ED0280916F00826080936F00CFCFE3
:1019500085E080931101EBEBF3E1C491CF3F39F2C5
:10196000C13039F168F0C33009F441C0C43009F422
:1019700060C0C7FDBCCF61E085E00E943F0CC5CFD1
:1019800014BC15BC84B5826084BD85B5816085BDFD
:10199000E1EAF3E1E491F0E0EE0FFF1FE257FC4EC5
:1019A00085919491E4E7F3E1E491E093E102C0E0F2
:1019B000A5CF1092800010928100809181008860F4
:1019C0008093810080918100816080938100E1EAB1
:1019D000F3E1E491F0E0EE0FFF1FE257FC4E85913A
:1019E0009491E4E7F3E1E491E093E00287CF109271
:1019F00090001092910080919100886080939100F6
:101A000080919100816080939100E1EAF3E1E4919B
:101A1000F0E0EE0FFF1FE257FC4E859194919093FA
:101A2000DF028093DE02E4E7F3E1E491E093DD027C
:101A300065CF1092C0001092C1008091C1008860F3
:101A40008093C1008091C10081608093C100E1EA70
:101A5000F3E1E491F0E0EE0FFF1FE257FC4E8591B9
:101A60009491E4E7F3E1E491E093DC0247CF85B59C
:101A7000887F856085BD8BE987BD81E090E0A0E02F
:101A8000B0E08093EE029093EF02A093F002B09347
:101A9000F10280916E00826080936E0028CFC33087
:101AA000F1F480919100887F83608093910083ECB2
:101AB00099E0909399008093980081E090E0A0E0F5
:101AC000B0E08093E6029093E702A093E802B0931F
:101AD000E9028091710082608093710008CFC43068
:101AE000D9F48091C100887F83608093C10083EC2A
:101AF0008093CF0081E090E0A0E0B0E08093E2022C
:101B00009093E302A093E402B093E5028091720007
:101B1000806480937200EBCEC13009F401CF24F4CD
:101B2000C111E5CE83ECA8CFC33009F4C0CFC430D7
:101B3000F1F2DDCE1F93CF93DF93182FEB0161E01D
:101B40000E943F0C209739F460E0812FDF91CF9104
:101B50001F910C94110CCF3FD10511F461E0F5CF2A
:101B6000E12FF0E0E653FA4FE491E150EF3008F056
:101B70007FC0F0E0E254F24F0C94EC2ACD0DD50D6D
:101B8000DA0DE40DEE0D380E380E380EF80D020E9B
:101B90000C0E160E230E380E2B0E84B5806884BDF5
:101BA000C7BDDF91CF911F91089584B5806284BD38
:101BB000C8BDF7CF80918000806880938000D0936B
:101BC0008900C0938800EDCF80918000806280936F
:101BD0008000D0938B00C0938A00E3CF8091800077
:101BE000886080938000D0938D00C0938C00D9CF03
:101BF00080919000806880939000D0939900C0936A
:101C00009800CFCF80919000806280939000D09315
:101C10009B00C0939A00C5CF80919000886080930C
:101C20009000D0939D00C0939C00BBCF8091C000DA
:101C300080688093C0008091C0008F7B8093C0003B
:101C4000C093CF00AECF8091C00080628093C0006F
:101C5000C093D000A6CF8091C20088608093C2005C
:101C60008091C2008B7F8093C200C093D20099CF35
:101C7000C038D1050CF072CF67CF3FB7F894809190
:101C80009F029091A002A091A102B091A20226B55C
:101C9000A89B05C02F3F19F00196A11DB11D3FBFA4
:101CA000BA2FA92F982F8827BC01CD01620F711D73
:101CB000811D911D42E0660F771F881F991F4A956D
:101CC000D1F708958F929F92AF92BF92CF92DF92F9
:101CD000EF92FF924B015C010E943D0E6B017C0173
:101CE0000E943D0E6C197D098E099F09683E734064
:101CF00081059105A8F321E0821A9108A108B10895
:101D000088EEC80E83E0D81EE11CF11C81149104FA
:101D1000A104B10429F7FF90EF90DF90CF90BF901E
:101D2000AF909F908F9008958F929F92AF92BF92A5
:101D3000CF92DF92EF92FF920F931F93CF93DF9397
:101D40006C017B018A0180911001882309F45CC039
:101D50008091DB02882309F457C08091CD0280FF77
:101D600005C08091E00082608093E000E801B12C22
:101D70008AEFA82E93E0892E2AE3922E209711F461
:101D8000BB20D9F10E94350A81110AC0AA94AA2069
:101D9000D9F161E070E080E090E00E94620EEECF49
:101DA0008C171D0611F00CF08C2F9FB7F8948092C1
:101DB000E9002091E80025FD02C09FBFDFCF282F5A
:101DC00030E0C21BD30BF701815020F041914093CA
:101DD000F100FACFE20EF31EBB2021F09092E80052
:101DE000B12CEBCF8091E80085FDE7CF9092E80021
:101DF000BB24B394209709F3F3CF5D9884E68093D6
:101E0000CC02101611063CF081E090E0F6019383BD
:101E1000828310E000E0C801DF91CF911F910F9104
:101E2000FF90EF90DF90CF90BF90AF909F908F90FA
:101E300008950895FC016370658B848195812681E6
:101E40003781613039F0633029F09187808733879B
:101E500022870895318720879387828708952F925C
:101E60003F924F925F926F927F928F929F92AF922A
:101E7000BF92CF92DF92EF92FF920F931F93CF9377
:101E8000DF93CDB7DEB769970FB6F894DEBF0FBE0C
:101E9000CDBF998F888F5B011A01D22E1F830E83CD
:101EA0003701C982DC0158962D913C915997211533
:101EB000310509F004C118968D919C911997681706
:101EC00079070CF0C0C11A968D919C911B97481709
:101ED00059070CF0B8C18C2C912CFB0126E0C29E56
:101EE000E00DF11D1124F987E8871E161F060CF07E
:101EF000AAC1A40193E0440F551F9A95E1F75D87AD
:101F00004C87CA01820D931D181619060CF09BC14F
:101F100057968C91811104C05FEA5D1508F4D39443
:101F2000A88DB98DED91FC9111970284F385E02D78
:101F3000CD010995F5013596F98BE88BBB82AA8214
:101F400025018CEB90E08A199B099C0145E0D49E09
:101F5000200D311D11243B8B2A8BEA89FB89E40D6E
:101F6000F51D24913D822C82D12CC12C622F70E072
:101F70007F876E87E88DF98DA081B18120FF7CC0BD
:101F8000F981F13009F069C01C96ED91FC912E8128
:101F90003F81A1014C0D5D1DB201888D998D099580
:101FA000EE85FF85F595E7952E2F4FEFC41AD40ADD
:101FB0006C817D81680D791D7D836C8378E0C71607
:101FC000D104A1F68FEF481A580AAA81BB81A80D47
:101FD000B91DBB83AA83E889F989E415F50509F0E1
:101FE000BCCF2E813F8126153705A9F0A88DB98D6C
:101FF000ED91FC91B981B13009F051C0B5016B5F31
:102000007F4F0088F189E02D830128E030E0A101B5
:10201000888D998D0995A88DB98DED91FC911197B9
:102020000688F789E02DCD0169960FB6F894DEBFDA
:102030000FBECDBFDF91CF911F910F91FF90EF9019
:10204000DF90CF90BF90AF909F908F907F906F90D8
:102050005F904F903F902F9009941E96ED91FC91C8
:10206000EE80FF80840194014C815D816A817B81D7
:10207000888D998D099594CF2E813F81261537053E
:1020800009F48ECF3981313029F41C96ED91FC9101
:1020900093017FCF1E96ED91FC917301E3CF68858C
:1020A0007985681979090684F785E02D73010C8517
:1020B0001D859401A101888D998D0995ACCFF901F9
:1020C00034969491329745915491D91AB7E0DB9E9A
:1020D000400D511D1124F90125913491398B288B24
:1020E000FA0145905490FA01329664903196C4906A
:1020F00032961491319604913981323008F48AC0B5
:10210000E12E012E000CFF08402F002E000C550B75
:1021100059874887A88DB98DED91FC91119702845C
:10212000F385E02DCD010995B9818B2E912CE89C8A
:10213000C001E99C900DF89C900D1124FC01EA0D62
:10214000FB1DFF87EE871C82D12C712C9B868A8613
:102150009101200F311D07FD3A953D8B2C8BA50178
:10216000410F511D17FD5A955F8B4E8B7C1408F063
:1021700052CF872D90E048855985480F591F6A85B1
:102180007B85469F9001479F300D569F300D11244F
:10219000D901A20DB31DBD87AC87EE85FF85FB83FA
:1021A000EA83B12CA12C2C893D89280F391F3B8B48
:1021B0002A8B8C818A0DA61408F040C0877041F4E8
:1021C000C2010196E889F989E40DF51DD4902C012E
:1021D000D7FE15C0A88DB98DED91FC91B981B130B4
:1021E000F1F40484F585E02D2E813F814A895B89D5
:1021F0006E897F896A0D7B1D888D998D0995DD0C0F
:10220000EFEFAE1ABE0A2A813B81280D391D3B83B0
:102210002A83CFCF19861886F12CE12C7BCF068438
:10222000F785E02DEE80FF80840194014C855D856B
:102230006A817B81888D998D0995E1CF3C81360D2E
:102240003C83739493CF69960FB6F894DEBF0FBEAC
:10225000CDBFDF91CF911F910F91FF90EF90DF9055
:10226000CF90BF90AF909F908F907F906F905F9036
:102270004F903F902F900895AF92BF92CF92EF92E0
:10228000FF920F931F93CF93DF93EC01262F888D3E
:10229000998D009709F04FC06A30C9F41D861C86DD
:1022A0008C8998E0899F900111248E859F85820FEB
:1022B000931F9F878E8781E090E0DF91CF911F91E0
:1022C0000F91FF90EF90CF90BF90AF9008956D3039
:1022D00091F3CC888E898823C1F08C859D85E6E0BA
:1022E000CE9E800D911D11244885598548175907A8
:1022F00064F44E855F851D861C86F8E0CF9EC00184
:102300001124840F951F9F878E87EA88FB88088990
:1023100019894E855F856C857D85CE010E942F0FC2
:102320002C898C859D8536E0239F800D911D11247D
:102330009D878C87C0CF6A3069F41D861C86FC019E
:102340003696E4912C898E859F85E29F800D911DA4
:102350001124AFCF6D3009F4AECFFC013496349127
:10236000631708F4A8CF3196E491E61708F4A3CFD9
:10237000FC01329645915491E62FE31BFF0B37E0A9
:102380003E9F50013F9FB00C1124A40EB51EF501D5
:10239000329634913196E4913323A1F1EE2391F1F9
:1023A000CC88F5013596E4914E89442301F10E2E37
:1023B000000CFF0BE30FF11DCE9EA001CF9E500D30
:1023C00011246C857D85460F571F688579856417B4
:1023D00075076CF44E855F851D861C860696FC018C
:1023E0008491C89E400D511D11245F874E87EA8855
:1023F000FB88088919894E855F856C857D85CE01AE
:102400000E942F0FF5013496E4912C898C859D85CF
:10241000E29F800D911D11248BCF6F927F928F923E
:102420009F92AF92BF92CF92DF92EF92FF920F9363
:102430001F93CF93DF93EC016B015A0139014801DF
:10244000E881F9810284F385E02D0995E881F9811D
:102450000288F389E02D87019301A501B601CE0121
:102460000995A501480D591D41505109E881F9818F
:102470000288F389E02D9301B601CE010995E88128
:10248000F9810088F189E02D9401A501B601CE0102
:102490000995C60CD71CB60161507109E881F98114
:1024A0000088F189E02D9401A501CE010995E8810C
:1024B000F9810688F789E02DCE01DF91CF911F9138
:1024C0000F91FF90EF90DF90CF90BF90AF909F90D3
:1024D0008F907F906F9009946F927F928F929F92CE
:1024E000AF92BF92CF92DF92EF92FF920F931F9322
:1024F000CF93DF935C01EB016A0149013801870149
:10250000DC01ED91FC916217730719F564167506ED
:102510002CF0962D872D3A01C92ED82E960126191A
:1025200037092F5F3F4F048CF58DE02DA301BE01CD
:10253000C5010995DF91CF911F910F91FF90EF9009
:10254000DF90CF90BF90AF909F908F907F906F90D3
:1025500008954615570591F42617370724F0892D5D
:102560004B01C22FD82F9E01281939092F5F3F4FE9
:10257000068CF78DE02DA601B401DACF0284F38535
:10258000E02D0995D501ED91FC910488F589E02DA8
:1025900083019401A601BE01C5010995D501ED9104
:1025A000FC910688F789E02DC501DF91CF911F913D
:1025B0000F91FF90EF90DF90CF90BF90AF909F90E2
:1025C0008F907F906F900994EF92FF920F931F93DB
:1025D000DC011A960D911C911B9718962D913C9138
:1025E0001997ED91FC9100A0F1A1E02D7B0150E045
:1025F00040E070E060E009951F910F91FF90EF902F
:1026000008954F925F926F927F928F929F92AF92B6
:10261000BF92CF92DF92EF92FF920F931F93CF93CF
:10262000DF936C012B015A0139014801DC01ED9166
:10263000FC910284F385E02D0995E201640C751C80
:10264000D601ED91FC91C615D7055CF40088F1899F
:10265000E02D87019401A501BE01C60109952196CF
:10266000EFCF0688F789E02DC601DF91CF911F914A
:102670000F91FF90EF90DF90CF90BF90AF909F9021
:102680008F907F906F905F904F9009948F929F9260
:10269000AF92BF92CF92DF92EF92FF920F931F9370
:1026A000CF93DF93EC015B014A016901E881F98175
:1026B0000284F385E02D099595012C0D3D1D2150D7
:1026C0003109E881F9810488F589E02D78018401D8
:1026D000A401B501CE010995E881F9810688F78941
:1026E000E02DCE01DF91CF911F910F91FF90EF90E0
:1026F000DF90CF90BF90AF909F908F9009948F9272
:102700009F92AF92BF92CF92DF92EF92FF920F9380
:102710001F93CF93DF93EC015B014A0169017801BC
:10272000E881F9810284F385E02D0995C80CD91C54
:10273000860101501109E881F9810488F589E02DAD
:102740009501A401B501CE010995E881F9810688BA
:10275000F789E02DCE01DF91CF911F910F91FF906E
:10276000EF90DF90CF90BF90AF909F908F900994A3
:10277000EF92FF920F931F93DC01ED91FC9100A06B
:10278000F1A1E02D09951F910F91FF90EF90089511
:102790000F931F93DC01ED91FC91068CF78DE02DDA
:1027A00009951F910F9108950F931F93DC01ED91EF
:1027B000FC91048CF58DE02D09951F910F910895E2
:1027C000DC01ED91FC910084F185E02D09943F92AC
:1027D0004F925F926F927F928F929F92AF92BF9231
:1027E000CF92DF92EF92FF920F931F93CF93DF93DD
:1027F00000D000D0CDB7DEB75C013B016A014901D2
:10280000280187E0480E511C93E0559447949A950F
:10281000E1F7CA018E0D9F1D9A838983F12CE12C6B
:10282000312C1C821B828B819C8187709927330CF1
:10283000892B61F4EB81FC8183E0F595E7958A951E
:10284000E1F7EE0DFF1DE80DF91D349037FE0AC0CB
:1028500021E030E0A6016B817C81660D771DC5010A
:102860000E94E0138B819C8101969C838B830817C7
:102870001907C9F69FEFC91AD90AE40CF51C89811A
:102880009A81C816D90669F60F900F900F900F9095
:10289000DF91CF911F910F91FF90EF90DF90CF903C
:1028A000BF90AF909F908F907F906F905F904F9070
:1028B0003F9008952F923F924F925F926F927F9236
:1028C0008F929F92AF92BF92CF92DF92EF92FF9240
:1028D0000F931F93CF93DF9300D000D000D0CDB7DC
:1028E000DEB73C016A013E832D83FC82EB825801F6
:1028F000A41AB50AB7FE03C0B194A194B1088D80A3
:102900009E80861A970A97FE03C09194819491083D
:102910008A149B045CF0902F812F0D811E819D8372
:102920008E839C2D8D2D6B01692F782F0C151D0525
:102930005CF09D818E817E836D83692F782F902F2F
:10294000812F8601C92ED82E1601201A310A2B019B
:102950002D813E81421A530A57FE03C0519441947F
:102960005108710137FE03C03FEFE31AF30AF594F3
:10297000E7948D819E81861797075CF5A1E0B0E012
:10298000BA83A983C016D1064CF1D301ED91FC9115
:102990000484F585E02D2B813C81A8016D817E8129
:1029A0008A149B041CF04D815E81B801C301099516
:1029B000E418F508F7FE0AC02D813E8189819A81CD
:1029C000280F391F3E832D83E20CF31C0F5F1F4F2E
:1029D000D9CF2FEF3FEF3A832983D4CF26960FB676
:1029E000F894DEBF0FBECDBFDF91CF911F910F9145
:1029F000FF90EF90DF90CF90BF90AF909F908F901F
:102A00007F906F905F904F903F902F900895EF923E
:102A1000FF920F931F93CF93DF93EC01EC80FD8027
:102A20006E157F050CF070C057FF04C0240F351FD2
:102A300050E040E08E819F81FA01E20FF31F8E1774
:102A40009F071CF49C01241B350B121613060CF077
:102A50005BC0922F842F8695869586958E9DD0019A
:102A60008F9DB00D11246A0F7B1FAE8DBF8DA60FF9
:102A7000B71F477049F188E0841B482F682F70E02A
:102A8000FB01EC54FF4FE491281708F063C0621B70
:102A900071092FEF30E002C0359527956A95E2F76E
:102AA000E2230130110539F0B0F10230110561F572
:102AB0008C91E82702C08C91E82BEC93941720F1BD
:102AC0002C813D81A20FB31FE92FE41BE83078F081
:102AD0000230110521F58E2F9C9190959C932C81AD
:102AE0003D81A20FB31F88508830B0F7E770EE2306
:102AF00059F0F0E0E455FF4FE49101301105F9F091
:102B000010F10230110519F1DF91CF911F910F9152
:102B1000FF90EF900895E0958C91E823CECF81E06F
:102B20000115110509F480E081959E2F8C932C816D
:102B30003D81A20FB31F98509830C0F7D7CF8C912A
:102B4000E82BEC93E1CFE0958C91E823FACF8C91C0
:102B5000E827F7CF0130110509F4ADCFE0F20230DC
:102B6000110509F4A5CFAE0DBF1DAECF0F931F9376
:102B7000CF93DF9377FF04C0260F371F70E060E02C
:102B8000DC011496CD91DC91FB01E20FF31FCE170F
:102B9000DF071CF49E01261B370B121613064CF59B
:102BA000FA0157FD3796A3E0F595E795AA95E1F769
:102BB000EC9FD001ED9FB00DFC9FB00D11246A0F6A
:102BC0007B1FDC015E96ED91FC91E60FF71F4770CD
:102BD000552781E090E001C0880F4A95EAF7482F19
:102BE0000130110559F0A8F02E0F3F1F02301105DA
:102BF000E1F0DF91CF911F910F9108952E0F3F1FAC
:102C0000E217F307B1F38191DF011197842B8C93C5
:102C1000F7CF80952E0F3F1FE217F30751F39191E5
:102C2000DF01119798239C93F7CFE217F30709F37D
:102C30008191DF01119784278C93F7CF0F931F9316
:102C4000FA01DC0155964C9155974230E9F043303A
:102C5000A1F1413061F514964D915C91DA01AE1B02
:102C6000BF0BFD01E21BF30B77FD0BC0DC011696D9
:102C70004D915C916417750724F4AB01BF010E946C
:102C8000B6151F910F91089514964D915C91DA013C
:102C9000A61BB70BBD0161507109DC0116964D9161
:102CA0005C91DA01AE1BBF0BFD01E21BF30B77FD5C
:102CB000E8CFAF010E940715E4CF16964D915C91C5
:102CC000DA01A61BB70BBD0161507109CDCF0F937F
:102CD0001F93FA01DC0155964C9155974230A9F0AB
:102CE000433091F1413019F514964D915C91DA0120
:102CF000AE1BBF0BFD013197F7FD04C0AB01BF0157
:102D00000E9407151F910F91089514964D915C91A3
:102D1000DA01A61BB70BBD01DC0116964D915C9143
:102D2000DA01AE1BBF0BFD013197621B730BF7FD80
:102D3000E9CFDC0116964D915C91E417F50714F785
:102D4000AF010E94B615DECF16964D915C91DA0167
:102D5000A61BB70BBD01621B730BCECFFC0177FD29
:102D600064C080859185681779070CF05EC057FDB7
:102D70005CC082859385481759070CF056C0858939
:102D80008230B1F0833029F1813041F48481958122
:102D9000841B950BAB01BC016150710921303105D9
:102DA00009F108F443C02230310509F463C00895E5
:102DB00084819581DC01A61BB70BBD0161507109AF
:102DC00086819781DC01A41BB50BAD0141505109EF
:102DD000E5CF86819781861B970BBA01AC014150E4
:102DE0005109DCCFCA0157FD0796A3E09595879559
:102DF000AA95E1F7A481B5818A9F90018B9F300D40
:102E00009A9F300D1124620F731F068CF78DE02DF1
:102E1000E60FF71F4770552721E030E001C0220F71
:102E20004A95EAF78081822B80830895CA0157FD75
:102E3000079633E0959587953A95E1F7A481B5819A
:102E40008A9F90018B9F300D9A9F300D1124620F45
:102E5000731F068CF78DE02DE60FF71F477055277F
:102E600081E090E001C0880F4A95EAF78095908153
:102E70008923DACFCA0157FD079623E095958795F8
:102E80002A95E1F7A481B5818A9F90018B9F300D2F
:102E90009A9F300D1124620F731F068CF78DE02D61
:102EA000E60FF71F4770552721E030E001C0220FE1
:102EB0004A95EAF780818227B7CF08958EBD00003A
:102EC0000DB407FEFDCF8EB508958CBD9DBD089550
:102ED000089585ED8093BC008091BC0084FDFCCFFB
:102EE0001092AA02089520915302260F3327331F10
:102EF00021323105ECF42091AA02FC0190E080E03F
:102F0000243069F082E00895A09153022191AC0130
:102F10004D5C5D4FA40FB52FB11D2C930196861704
:102F200098F380915302680F6093530280E00895F4
:102F300081E00895E091AC028091AB02E81730F493
:102F4000F0E0ED5EFD4F808190E008958FEF9FEF00
:102F500008959091AC028091AB022FEF3FEF98174C
:102F600048F4E92FF0E0ED5EFD4F208130E09F5FF7
:102F70009093AC02C90108958091AB029091AC028C
:102F8000891B990B0895CF92DF92EF92FF920F93D6
:102F90001F93CF93DF937C01CB018A012091F5022F
:102FA000222389F0EB016B01C40ED51ECC15DD0583
:102FB00069F06991D701ED91FC910190F081E02DCC
:102FC000C7010995F3CF642F0E947317C801DF91E1
:102FD000CF911F910F91FF90EF90DF90CF900895C8
:102FE000CF93DF931F92CDB7DEB769832091F502AF
:102FF0002223F9F02091F202203258F021E030E053
:10300000FC013383228390E080E00F90DF91CF9129
:1030100008958091F302E82FF0E0ED50FE4F998182
:1030200090838F5F8093F3028093F20281E090E0BF
:10303000ECCF61E0CE0101960E947317F7CF20918B
:10304000F20281E0213208F044C08091AA0281118D
:10305000FCCF8091F40292E09093AA0291E09093C9
:10306000A9029FEF90937602109298022093970204
:10307000A3EFB1E0E7E7F2E090E0291331C010924E
:10308000990290919902880F892B809399028091DF
:10309000A802813049F51092A8028091990280938C
:1030A000BB008091BC0083FDF8CF85EC8093BC0011
:1030B0008091AA028230E1F3809176028F3FB1F0D5
:1030C000809176028032A1F080917602803391F077
:1030D00084E01092F3021092F2021092F502089529
:1030E0003D9131939F5FC9CF85EEE0CF80E0F1CF76
:1030F00082E0EFCF83E0EDCFFF920F931F93CF934A
:10310000DF93F82ED92FC62F809165039091660327
:10311000009709F452C02091690331E03093F50221
:103120002093F4021092F3021092F202DC01ED916E
:10313000FC910190F081E02D60E009950F2D1D2F8D
:10314000D1E0FF24F394C150809165039091660310
:10315000CF3F61F1D032C8F00E941F188091650303
:103160009091660320916903F092F5022093F40296
:103170001092F3021092F202DC01ED91FC910190A9
:10318000F081E02D60E00995D1E080916503909198
:103190006603F8016491DC01ED91FC910190F081EE
:1031A000E02D0995DF5F0F5F1F4FCDCFDF91CF91EE
:1031B0001F910F91FF900C941F18E0917503F091EF
:1031C0007603908180917B038095892380830F2DE6
:1031D0001D2FC15008F438C0F80184912091630379
:1031E00030916403232B29F00E945E170F5F1F4F5D
:1031F000F0CF28E030E040E8E0917103F0917203F5
:1032000090917903582F5423D9F05081952B9083B6
:10321000E0917303F0917403908150917A03952BA0
:103220009083E0917303F0917403508190917A033D
:10323000909595239083469521503109E9F6D6CF94
:10324000508190959523E3CFDF91CF911F910F91FE
:10325000FF9008951F93CF93DF93EC018C8D9D8D8C
:10326000009721F1162F28A131E03093F502209329
:10327000F4021092F3021092F202DC01ED91FC9143
:103280000190F081E02D60E009958C8D9D8DDC0131
:10329000ED91FC910190F081E02D612F09958C8DCD
:1032A0009D8DDF91CF911F910C941F18ACA5BDA5EA
:1032B0009C918AA9809589238C938A8D9B8D892BDB
:1032C00031F0862FDF91CF911F910C945E1728E08B
:1032D00030E080E8A8A5B9A598A9462F4823C1F0F9
:1032E0004C91942B9C93AAA5BBA59C9149A9942B86
:1032F0009C93AAA5BBA54C9199A9909594239C93C6
:1033000086952150310931F7DF91CF911F910895B2
:103310004C9190959423E6CFEF92FF920F931F93D9
:10332000CF93DF938091650390916603892B09F415
:1033300093C020917F03309180034091810350918D
:10334000820360E074E284EF90E00E9461292051E2
:10335000310941095109569547953795279520938D
:10336000B80065E08AE693E10E947C1860914D0305
:10337000615089E493E00E942A1920914F03309113
:103380005003C901079697FD079623E09595879509
:103390002A95E1F720914D0330914E03829F8001E1
:1033A000839F100D929F100D1124C0916703D0913F
:1033B000680380916503909166030C0F1D1F0097B1
:1033C00009F489C02091690331E03093F50220931C
:1033D000F4021092F3021092F202DC01ED91FC91E2
:1033E0000190F081E02D60E40995FF24F394EE2430
:1033F000E39480916503909166030C171D0709F40F
:1034000042C0BFE1BF15D0F40E941F188091650330
:103410009091660320916903E092F5022093F402F3
:103420001092F3021092F202DC01ED91FC910190F6
:10343000F081E02D60E40995FF24F3948091650309
:10344000909166036991DC01ED91FC910190F0810E
:10345000E02D0995F394CDCF80916303909164039F
:10346000892B31F080917D0390917E030E94651736
:10347000E0917703F0917803908180917C038095AF
:10348000892380836ECF0E941F18809165039091DD
:103490006603892B09F460C0209183033091840373
:1034A000409185035091860360E074E284EF90E0E0
:1034B0000E946129205131094109510956954795CA
:1034C000379527952093B800DF91CF911F910F91E9
:1034D000FF90EF900895E0917503F091760380815D
:1034E00090917B03892B80830C171D0771F28991C2
:1034F0002091630330916403232B19F00E945E171F
:10350000F3CF28E030E040E8E0917103F0917203DE
:1035100090917903582F5423D9F05081952B9083A3
:10352000E0917303F0917403908150917A03952B8D
:103530009083E0917303F0917403508190917A032A
:10354000909595239083469521503109E9F6CCCF8B
:10355000508190959523E3CFE0917703F091780324
:10356000808190917C03892B8083AECF1F93CF9372
:10357000DF93EC01162F8C8D9D8D892BB1F12EA937
:103580003FA948AD59AD60E074E284EF90E00E943D
:1035900061292051310941095109569547953795BF
:1035A00027952093B80066EA111167EACE010E94C0
:1035B0002A198C8D9D8D892B41F12AAD3BAD4CADE7
:1035C0005DAD60E074E284EF90E00E9461292051DB
:1035D000310941095109569547953795279520930B
:1035E000B800DF91CF911F9108958A8D9B8D892B13
:1035F00021F08CA99DA90E946517EEA5FFA59081D9
:103600008BA9809589238083CECFEEA5FFA58081ED
:103610009BA9892B8083E5CF90E080E00895CF932C
:10362000DF93C3E3D0E0219729F16FE770E089E0F1
:103630000E949A0D61E070E080E090E00E94620ECE
:103640006FEF70E089E00E949A0D0E94700C6FE7A6
:1036500070E08AE00E949A0D61E070E080E090E006
:103660000E94620E6FEF70E08AE00E949A0D0E9445
:10367000700CD9CFDF91CF910895CF93C091F6020E
:1036800090E080E00E941929C81729F06C2F90E083
:1036900080E00E942129C091F70281E090E00E9421
:1036A0001929C81729F06C2F81E090E00E94212988
:1036B00086EF92E0CF91089520914F03309150030F
:1036C000C901079697FD079623E0959587952A955A
:1036D000E1F720914D0330914E03829FA001839F1B
:1036E000500D929F500D112470E060E080916703AF
:1036F000909168030C941C2C8F929F92AF92BF9272
:103700000F931F93CF93DF93CDB7DEB7A1970FB67B
:10371000F894DEBF0FBECDBF19A2423008F44AE0D4
:103720008E010F5D1F4F842E912CB12CA12CA50171
:1037300094010E946129E62FB901CA01EA3044F5DB
:10374000E05DD801EE938D01232B242B252B79F7F7
:1037500090E080E0109769F0FD0101900020E9F70A
:103760003197AF014A1B5B0BBD0189E493E00E94D6
:103770006D0BA1960FB6F894DEBF0FBECDBFDF91E3
:10378000CF911F910F91BF90AF909F908F90089510
:10379000E95CD7CFFC0101900020E9F73197AF0138
:1037A000481B590BBC0189E493E00C946D0BFF920C
:1037B0000F931F93CF93DF93EC01F62EFC01019042
:1037C0000020E9F73197E81BF90B09E413E086E0E4
:1037D0008E9FB0018F9F700D11247695679590E0B4
:1037E00080E00E943A2A9B01AC0160E070E080E832
:1037F00092E40E9492290E94042AF8017587648746
:103800006F2D70E077876687CE01DF91CF911F9192
:103810000F91FF900C94CA1B0E94172C1F920F92BD
:103820000FB60F9211248F939F938091E100909196
:10383000E100937F9093E10083FF0FC01092E900B5
:1038400091E09093EB001092EC0092E39093ED00E6
:103850001092DB0298E09093F00082FF22C093E088
:103860009093E9009091F200992319F09AE39093D4
:10387000E8009091CC02992341F09091CC029150B4
:103880009093CC02911101C05D9A9091DA02992334
:1038900041F09091DA0291509093DA02911101C0B7
:1038A000289A84FF18C08091E2008E7E8160809308
:1038B000E2008091E1008F7E8093E1008091CD0253
:1038C0008E7E80618093CD029F918F910F900FBE6D
:1038D0000F901F90189580FFF7CF8091E2008E7EA9
:1038E00080618093E2008091E1008E7E8093E10010
:1038F0008091CD028E7E8160E5CF1F920F920FB630
:103900000F921124CF92DF92EF92FF920F931F93A9
:103910002F933F934F935F936F937F938F939F93D7
:10392000AF93BF93EF93FF93CF93DF93CDB7DEB702
:103930006C97DEBFCDBF1092E9008091E80083FF55
:1039400025C068E0CE0145960E94600B82EF80930F
:10395000E8008D8987FF39C09091E80090FFFCCF87
:10396000982F907609F034C19E894F89588D2F8900
:10397000F88C911131C0803861F58091CB02809331
:10398000F1001092F1008EEF8093E8006C960FB674
:10399000F894DEBF0FBECDBFDF91CF91FF91EF91C5
:1039A000BF91AF919F918F917F916F915F914F9157
:1039B0003F912F911F910F91FF90EF90DF90CF904B
:1039C0000F900FBE0F901F9018959EEF9093E800F8
:1039D000C7CF1092F100D5CF913059F48111D3CFD8
:1039E0004130510581F68091CB028D7F8093CB02CF
:1039F000CACF933049F48111C6CF4130510519F631
:103A00008091CB028260F2CF953041F48091E80042
:103A100080FFFCCF20682093E300B5CF963009F0FB
:103A2000A9C00B8D1C8D22E01092E9001092C902F2
:103A30001092C802F2122EC01092C7021092C60253
:103A40000E942F0B1F8299E09983FA8291E09E8356
:103A500090EA98879AEF99872091C8023091C9021D
:103A6000275F3F4F3C832B838D831092E900109298
:103A7000C9021092C8021093C7020093C60249E01F
:103A800050E0BE016F5F7F4F80E00E94090B0E94F3
:103A90002F0B79CF1093C7020093C6020E94460AEB
:103AA000DC0112960D911C910115110509F451C10B
:103AB000D801ED91FC910480F581E02DBE016B5E93
:103AC0007F4FC8010995009709F03EC1F8010085B4
:103AD0001185EACFF3E0FF120EC08F89882309F425
:103AE00040C0823061F440E860E189E593E10E94E2
:103AF0007320811148CF81E28093EB0047CF813062
:103B000029F440E86BE08DE493E1F1CF833099F73D
:103B10000E94460ADC011296ED90FC908E010F5F28
:103B20001F4F6801E114F10479F0D701ED91FC9188
:103B30000680F781E02DB801C7010995080F111D16
:103B4000F701E084F184EECFD8011C92F6010190D8
:103B50000020E9F73197BF016C197D0940E0C601EB
:103B6000C6CF67E373E1FB01449150E080E80E9417
:103B7000090B09CF973009F4BECF983021F481E0CA
:103B80008093F10000CF993009F0FDCE837009F0E9
:103B9000B2CFEDE1F1E081E031E096E32191222323
:103BA00071F08093E9003093EB00DF0111972C91C5
:103BB0002093EC009093ED008F5F873079F78EE7CC
:103BC0008093EA001092EA008F898093DB02DBCEBB
:103BD0008B8D9C8D1092E9001092C9021092C80240
:103BE0009093C7028093C602898D811192C08E89FD
:103BF0009D89913A49F4813209F07DCF47E050E048
:103C000069E071E080E0B3CF913209F074CF833284
:103C100069F48F89988DB0E0A0E0809305019093BE
:103C20000601A0930701B0930801ADCE803269F47C
:103C30008091E80082FFFCCF67E089E091E00E947C
:103C4000600B8BEF8093E8009ECE823209F09BCE12
:103C50008F8980931001EEEFFFE7859194918B3F60
:103C60009C4D51F1E0E0F8E08091090190910A014A
:103C7000A0910B01B0910C01803B9440A105B105CE
:103C8000F1F48091100180FD1AC0EE3F8AE0F80740
:103C900089F587E797E7918380838091600080931F
:103CA000CA0288E19BE00FB6F894A8958093600063
:103CB0000FBE9093600067CEEEEFFAE0D5CF808123
:103CC00091818737974709F05ECEA8958091600073
:103CD0008861809360008091CA0280936000EE3F0B
:103CE0002AE0F20789F08091FE0A9091FF0A918301
:103CF000808349CE808191818737980751F29093D4
:103D0000FF0A8093FE0AC5CF1092FF0A1092FE0AA6
:103D10003ACE0E94460ADC0112960D911C910115C3
:103D2000110509F4E8CED801ED91FC910190F081E4
:103D3000E02DBE016B5E7F4FC8010995811123CE36
:103D4000F80100851185EBCF181619060CF41BCE6F
:103D5000D2CEF1E0FF12BECE6BE373E104CF1F922F
:103D60000F920FB60F9211248F939F93AF93BF932F
:103D7000EF93FF938091E6029091E702A091E80211
:103D8000B091E902892B8A2B8B2BA1F19091DD0256
:103D9000E091DE02F091DF028081892780838091AB
:103DA000E6029091E702A091E802B091E9021816AC
:103DB00019061A061B069CF48091E6029091E70210
:103DC000A091E802B091E9020197A109B10980939D
:103DD000E6029093E702A093E802B093E902FF9114
:103DE000EF91BF91AF919F918F910F900FBE0F9068
:103DF0001F901895809171008D7F80937100809144
:103E0000DD02E091DE02F091DF029081809589234E
:103E10008083E5CF1F920F920FB60F9211242F933C
:103E20003F938F939F93AF93BF9380919B02909109
:103E30009C02A0919D02B0919E0230919A0223E0D3
:103E4000230F2D3758F50196A11DB11D20939A021D
:103E500080939B0290939C02A0939D02B0939E023C
:103E600080919F029091A002A091A102B091A20224
:103E70000196A11DB11D80939F029093A002A09373
:103E8000A102B093A202BF91AF919F918F913F91F8
:103E90002F910F900FBE0F901F90189526E8230FBB
:103EA0000296A11DB11DD2CF1F920F920FB60F9295
:103EB00011242F933F934F935F936F937F938F932F
:103EC0009F93AF93BF93EF93FF938091B900887F47
:103ED000803609F44AC0F0F5883209F4A7C018F515
:103EE000803109F49BC0B8F4882309F4F9C0883004
:103EF00009F494C0FF91EF91BF91AF919F918F9181
:103F00007F916F915F914F913F912F910F900FBED5
:103F10000F901F901895883109F488C0803251F7AE
:103F20008093760214C0803409F49DC040F480333D
:103F3000B9F38833F9F68093760285ECB0C080350A
:103F400009F485C0883509F496C0883499F60E9432
:103F50006917D0CF883909F48CC038F5883729F033
:103F600050F4883611F0803729F683E08093AA0256
:103F70001092750257C0883809F47BC0803919F057
:103F8000803809F0B7CF80917502803208F071C097
:103F9000E091750281E08E0F809375028091BB00E5
:103FA000F0E0EB5AFD4F80833DC0803B39F0E0F4F8
:103FB000803A09F479C0883A09F09CCF84E0809374
:103FC000AA021092540210925302E091A602F091BC
:103FD000A70209958091530281110FC081E080935F
:103FE00053021092330209C0803C09F4A6CF883CEA
:103FF00009F4A3CF883B09F07DCFE091540281E022
:104000008E0F80935402F0E0ED5CFD4F8081809331
:10401000BB00909154028091530229C08091990273
:104020008093BB0085EC8093BC0064CF9091980294
:1040300080919702981758F5E091980281E08E0FD1
:1040400080939802F0E0E958FD4F8081E9CFE0913C
:10405000980281E08E0F809398028091BB00F0E07F
:10406000E958FD4F808390919802809197029817AC
:10407000C8F285E8D8CFE091980281E08E0F809356
:1040800098028091BB00F0E0E958FD4F8083809159
:10409000A90281115CCF81E08093A80284EA809319
:1040A000BC001092AA0226CF85EC8093BC0010922F
:1040B000AA0280917502803230F4E0917502F0E03E
:1040C000EB5AFD4F10826091750270E0E091A402FE
:1040D000F091A50285E592E00995109275020ACF4C
:1040E0001092760234CFEF92FF920F931F93CF93EB
:1040F000DF93F82E192FE62E042F81E0860F880F0C
:104100000E94DB0A83E00E94DB0ACF2DD12FEC0E48
:10411000FD2EF11CCE15DF05B9F007FF13C0FE011F
:1041200084910E94DB0A182F80E00E94DB0A812321
:1041300021968111EFCFDF91CF911F910F91FF90C9
:10414000EF9008958881EDCF81E0F5CFE8EFF2E0C0
:104150001382128288EE93E0A0E0B0E0848395831E
:10416000A683B78387E291E0918380832FEF3FEFAF
:1041700035872487E9E4F3E01382128240E850E0B7
:104180005583448380E490E09783868351874087FA
:1041900093878287158A158614861786168681E08E
:1041A000848B338B228B318B208B868B178A118EDD
:1041B000108E29E331E03183208328E433E0338F0C
:1041C000228F158E148E178E168E9FEF93A394A3B5
:1041D00094E095A39CE096A396E097A390E594AB1A
:1041E00085AB0895CF93DF93CDB7DEB769970FB650
:1041F000F894DEBF0FBECDBF789484B5826084BDD5
:1042000084B5816084BD85B5826085BD85B58160DA
:1042100085BD80916E00816080936E001092810058
:104220008091810082608093810080918100816013
:1042300080938100809180008160809380008091D4
:1042400091008260809391008091910081608093C1
:104250009100809190008160809390008091C100D6
:1042600084608093C1008091C10082608093C1000E
:104270008091C10081608093C1008091C300816002
:104280008093C3008091C00082608093C0008091C1
:10429000C20081608093C20080917A008460809324
:1042A0007A0080917A00826080937A0080917A000F
:1042B000816080937A0080917A00806880937A0090
:1042C0001092DB021092CB021092CD028091D700A7
:1042D00081608093D70080EA8093D80089B580619F
:1042E00089BD89B5826089BD09B400FEFDCF61E05A
:1042F00070E080E090E00E94620E8091D8008F7C98
:1043000080618093D8008091E000807F8093E000FE
:104310008091E1008E7E8093E1008DE08093E20049
:10432000559A209A8091670390916803892B39F1FF
:104330000E945C1B80914F039091500360914D034C
:1043400070914E03813291050CF04DC1AC01405289
:10435000510957FF02C04F5F5F4F5595479563570F
:10436000710977FF02C06F5F7F4F75956795F0E227
:10437000EF2EF12C03E710E023E136E04CC1209151
:104380004F0330915003C901079697FD079623E02C
:10439000959587952A95E1F720914D0330914E032D
:1043A000AC01429FC001439F900D529F900D11247C
:1043B0000E94F22A9093680380936703892B09F087
:1043C000B7CF81E080935D0381E090E090935C0340
:1043D00080935B0390935A038093590362E082E1D8
:1043E0000E943F0C62E083E10E943F0C62E084E1A6
:1043F0000E943F0C62E085E10E943F0C62E087E092
:104400000E943F0C62E088E00E943F0C61E089E07E
:104410000E943F0C61E08AE00E943F0C61E085E071
:104420000E943F0C6FEF70E089E00E949A0D6FEFE1
:1044300070E08AE00E949A0D80E290E09093BE02C4
:104440008093BD0288E190E09093C0028093BF0208
:104450001092C10282E08093BC0283E090E09093CE
:10446000C5028093C40280E890E09093B2028093EA
:10447000B1020E94C12822E330E040E050E00E94F7
:104480002F29685F7F4F8F4F9F4F7093B4026093C7
:10449000B3020E94C12824E030E040E050E00E94D6
:1044A0002F296F5F7F4F8F4F9F4F7093B60260939E
:1044B000B5021092B70290E080E00E941929809323
:1044C000F60281E090E00E9419298093F702809122
:1044D000F6029091F702019631F41092F7021092D1
:1044E000F6020E943D1B82E10E94E80B892B09F431
:1044F00094C2B2E38B2E912CA12CB12C14E0412E4E
:10450000512C612C712CCE0101961C01CC24C3943A
:10451000D12C80910401882309F403C309E110E040
:104520000E945C1BD0925C03C0925B03D0925A0342
:10453000C09259036EE181E691E00E94D71B0E9470
:104540008C1964E670E080E090E00E94620E87E0E3
:104550000E94E80B892B09F4E2C20E945C1B0E94B6
:104560008C1964E670E080E090E00E94620E87E0C3
:104570000E94E80B892B09F4D2C20150110981F67F
:1045800009E110E00E945C1BD0925C03C0925B03C7
:10459000D0925A03C09259036EE18FE691E00E94D7
:1045A000D71B0E948C1964E670E080E090E00E94C6
:1045B000620E87E00E94E80B892B09F4B0C20E94CA
:1045C0005C1B0E948C1964E670E080E090E00E9421
:1045D000620E87E00E94E80B892B09F4A0C201500B
:1045E000110981F69BCFAC014054510957FF02C01D
:1045F0004F5F5F4F559547956255710977FF02C030
:104600006F5F7F4F7595679510E4E12EF12C02E501
:1046100010E023EF37E089E493E00E94E71382E0A3
:1046200080936A038091650390916603892B09F456
:10463000E9C080914F0390915003809709F0E0C04A
:104640008CE3809369031092AC021092AB0210923B
:10465000F3021092F2021092AA0281E08093A90262
:104660001092A80261E082E00E94110C61E083E0F8
:104670000E94110C8091B9008E7F8093B9008091C7
:10468000B9008D7F8093B90088E48093B80085E4F9
:104690008093BC008AE99BE09093A7028093A602D6
:1046A0008BE99BE09093A5028093A4028091700314
:1046B00087FD1EC061E00E943F0C61E080917003A5
:1046C0000E94110C61E070E080E090E00E94620EB8
:1046D00060E0809170030E94110C6AE070E080E05D
:1046E00090E00E94620E61E0809170030E94110CC4
:1046F0008091650390916603892B09F442C1209152
:104700007F0330918003409181035091820360E0E8
:1047100074E284EF90E00E9461292051310941093F
:10472000510956954795379527952093B80064E031
:104730008FE096E00E947C1860914F03615089E4FD
:1047400093E00E942A1964E08BE096E00E947C18B6
:1047500080916A0360E1813009F064E189E493E0CB
:104760000E942A1964E087E096E00E947C188091FC
:104770004D0390914E038038910509F02DC1809131
:104780004F03909150038032910509F011C164E00C
:1047900083E096E00E947C1869ED89E493E00E9432
:1047A0002A1980916A0362E2813009F061EF89E49D
:1047B00093E00E942A1966E087EF95E00E947C183A
:1047C0008091650390916603892B09F41CC12091A7
:1047D000830330918403409185035091860360E008
:1047E00074E284EF90E00E9461292051310941096F
:1047F000510956954795379527952093B800E1CDF7
:104800008DE31FCF61E080916E030E943F0C61E059
:1048100080916F030E943F0C80916E03082E000C64
:10482000990BFC01E456FC4EE491F0E0EE0FFF1F03
:10483000E257FC4E25913491309376032093750313
:10484000FC01E159FC4EE491E0937B0380916F03FE
:10485000082E000C990BFC01E456FC4EE491F0E0AC
:10486000EE0FFF1FE257FC4EA591B491B093780371
:10487000A0937703FC01E159FC4EE491E0937C03A3
:104880008C91E82BEC938091630390916403892BC6
:1048900009F434C01FB7F8948091A302811127C096
:1048A000EDEAF3E18491E0E8F3E19491E82FF0E0A0
:1048B000EE0FFF1FE751FA4FA591B491EC91E92358
:1048C00021F461E081E10E94110C61E081E10E942C
:1048D0003F0C8CB580618CBD8CB580648CBD61E073
:1048E0008FE00E943F0C61E080E10E943F0C8091CC
:1048F000A3028F5F8093A3021FBFD8CE61E0809197
:104900006C030E943F0C61E080916D030E943F0C9C
:1049100080916C03082E000C990BFC01E456FC4EB0
:10492000E491F0E0EE0FFF1FE257FC4E2591349129
:104930003093720320937103FC01E159FC4EE49122
:10494000E093790380916D03082E000C990BFC0114
:10495000E456FC4EE491F0E0EE0FFF1FE257FC4EF0
:10496000A591B491B0937403A0937303FC01E15932
:10497000FC4EE491E0937A038C91E095E823EC936C
:1049800095CE8091630390916403892B31F08091DF
:104990007D0390917E030E946517E0917703F0916B
:1049A0007803908180917C03809589238083BFCE9A
:1049B0008034910509F0F0CE63E080E096E00E943B
:1049C0007C1880916A036FE9813009F06FEC89E40B
:1049D00093E00E942A19E0CE8036910509F0DCCEE2
:1049E00080914F0390915003409709F0D5CE63E03A
:1049F0008DEF95E00E947C1880916A0360E1813020
:104A000031F36FEAE4CFE0917703F091780380818E
:104A100090917C03892B8083D4CC70E060E089E0A6
:104A20000E949A0D70E060E08AE00E949A0DF5CF36
:104A30001092C0021092BF0296C088E390E0A1C01D
:104A40001092BE021092BD02B0C0A0E8B0E0B093D8
:104A5000BE02A093BD02BBC080E890E09093B2027A
:104A60008093B1020E94C128A50194010E942F29C0
:104A7000685F7F4F8F4F9F4F7093B4026093B30274
:104A80000E94C128A30192010E942F296F5F7F4FCE
:104A90008F4F9F4F7093B6026093B5020AC19C017D
:104AA0002A5031092A35310558F49F938F9380910C
:104AB000C5028F938091C4028F938BEA91E0FFC16E
:104AC0009C01245631092438334058F49F938F9326
:104AD0008091C5028F938091C4028F9382EC91E004
:104AE000EEC1813157E2950708F4F4C19F938F938B
:104AF0008091C5028F938091C4028F9388ED91E0DD
:104B0000DEC11092AD021092AE021092AF0210926E
:104B1000B00296C280E090E0A0E0B3E4C5C210927B
:104B200004018091C102823071F4A0E2B0E0B09340
:104B3000BE02A093BD0248E150E05093C0024093F2
:104B4000BF021092C10282E10E94E80B892B59F446
:104B50008091BF029091C002049797FD69CF909316
:104B6000C0028093BF0285E10E94E80B892B69F4A3
:104B70008091BF029091C0020496893391050CF098
:104B80005CCF9093C0028093BF0284E10E94E80B47
:104B9000892B59F48091BD029091BE02049797FD34
:104BA0004FCF9093BE028093BD0283E10E94E80B39
:104BB000892B69F48091BD029091BE0204968138E0
:104BC00091050CF042CF9093BE028093BD0287E026
:104BD0000E94E80B892BB9F48091BC02823099F4D1
:104BE0001092BC028091BD029091BE029093B902D6
:104BF0008093B8028091BF029091C0020896909372
:104C0000BB028093BA028091BC0281110FC08091D7
:104C1000B8029091B90206969093B9028093B802B7
:104C2000813891051CF082E08093BC028091B7022C
:104C3000823021F540E850E05093B2024093B10237
:104C40000E94C128A50194010E942F29685F7F4F0F
:104C50008F4F9F4F7093B4026093B3020E94C1289C
:104C6000A30192010E942F296F5F7F4F8F4F9F4FAB
:104C70007093B6026093B5021092B7028091B702AA
:104C8000813019F482E08093B7028091B7028111DC
:104C900010C08091B1029091B2022091B502309182
:104CA000B602821B930B97FDD7CE9093B2028093EE
:104CB000B1028091BC02811138C08091B70281118C
:104CC00034C02091B1023091B2028091B80290912B
:104CD000B902AC01485F5F4F4217530734F1281700
:104CE00039071CF12091BA023091BB028091B302C6
:104CF0009091B402A9014E5F5F4F48175907ACF07D
:104D00004096821793078CF08091C2029091C30263
:104D100022E02093BC0221E02093B7020A969093F0
:104D2000C3028093C2020E940F1B8091C1028111B5
:104D300037C08091B702811133C02091B102309108
:104D4000B2028091BD029091BE02AC01485F5F4FFC
:104D5000421753072CF12817390714F12091BF028D
:104D60003091C0028091B3029091B402A901405FDA
:104D70005F4F48175907A4F040968217930784F0B5
:104D80008091C4029091C50221E02093C102019755
:104D90009093C5028093C4022093B7020E940F1B18
:104DA0008091C4029091C50297FF6DC00091C2022C
:104DB0001091C30264EF71E080E090E00E94620E07
:104DC0008091F6029091F7028017910730F41093CA
:104DD000F7020093F6020E943D1B0E945C1BD092DA
:104DE0005C03C0925B03D0925A03C092590360E106
:104DF0008CE791E00E94D71BADE1B0E0B093560381
:104E0000A093550340E250E050935803409357035A
:104E10008BE891E00E94CA1B6091C2027091C302AC
:104E200090E080E04AE00E947C1B84E090E0909358
:104E3000560380935503A0E3B0E0B0935803A093CA
:104E4000570386E891E00E94CA1B6091F6027091B8
:104E5000F70290E080E04AE00E947C1B0E948C19DF
:104E600088E00E94E80B892B09F0B7CF1092C302AB
:104E70001092C20243E050E05093C5024093C40236
:104E800081E0809304010E945C1B109256031092F3
:104E9000550310925803109257038091C2029091CB
:104EA000C3028A30910508F0FACD9F938F938091C9
:104EB000C5028F938091C4028F9383E991E09F9301
:104EC0008F933F922F920E94232C0FB6F894DEBF4F
:104ED0000FBECDBFC1010E94CA1B8091C1028111CA
:104EE00013C04091BF025091C0026091BD02709109
:104EF000BE02A0E1EA2EF12C08E010E025EE32E13E
:104F000089E493E00E94E7138091C1028130B1F4FB
:104F10004091BF025091C0026091BD027091BE02EB
:104F2000F8E0EF2EF12C00E110E025ED32E189E40C
:104F300093E00E94E71382E08093C1028091BC025B
:104F4000811113C04091BA025091BB026091B80226
:104F50007091B902E2E0EE2EF12C08E010E023EDB2
:104F600032E189E493E00E94E7138091B702811156
:104F700013C04091B3025091B4026091B10270919C
:104F8000B20230E1E32EF12C00E110E023EB32E13C
:104F900089E493E00E94E7138091B702813099F48D
:104FA0004091B3025091B4026091B1027091B2028B
:104FB00028E0E22EF12C00E110E025ED32E189E459
:104FC00093E00E94E7136091AD027091AE02809170
:104FD000AF029091B0020E94042A90E4E92EF12CD5
:104FE00000E810E023EB3EE050E040E089E493E08D
:104FF0000E94E7132DEC3CEC4CEC5DE36091AD02BC
:105000007091AE028091AF029091B0020E949229FD
:105010006E8B7F8B888F998F20E030E04EEF52ECC3
:105020000E94FF2987FD6DCD8E899F89A88DB98D3E
:105030008093AD029093AE02A093AF02B093B00202
:105040006091000170910101809102019091030132
:105050000E94042A80E4E82EF12C00E810E023EB03
:105060003AE050E040E089E493E00E94E7132DEC41
:105070003CEC4CEC5DE3609100017091010180918A
:105080000201909103010E9492296E8B7F8B888F81
:10509000998F20E030E0A9010E94FF2987FD3ACDD9
:1050A0008E899F89A88DB98D80930001909301010D
:1050B000A0930201B09303010E948C1980E090E05C
:1050C000892B09F426CA0E94000023CA89E391E0D3
:1050D00090934A03809349038091670390916803FA
:1050E000009711F00C948E2B08958F929F92AF929F
:1050F000BF92CF92DF92EF92FF92CF93DF93EC01BA
:10510000688179818A819B8161157105810591058D
:1051100021F464E279ED8BE597E02DE133EF41E096
:1051200050E00E942F2949015A019B01AC01A7EAD6
:10513000B1E40E944E296B017C01ACEEB4EFA501F5
:1051400094010E945C29C60ED71EE81EF91EF7FEC8
:1051500006C081E0C81AD108E10880E8F80AC882D0
:10516000D982EA82FB82C701B6019F77DF91CF9196
:10517000FF90EF90DF90CF90BF90AF909F908F9077
:1051800008958F929F92AF92BF92CF92DF92EF924B
:10519000FF9260911201709113018091140190911E
:1051A0001501611571058105910521F464E279ED20
:1051B0008BE597E02DE133EF41E050E00E942F298D
:1051C00049015A019B01AC01A7EAB1E40E944E29B2
:1051D0006B017C01ACEEB4EFA50194010E945C2947
:1051E000C60ED71EE81EF91EF7FE06C081E0C81ADB
:1051F000D108E10880E8F80AC0921201D0921301A8
:10520000E0921401F0921501C701B6019F77FF905B
:10521000EF90DF90CF90BF90AF909F908F900895C8
:105220006093120170931301809314019093150100
:105230000895F999FECF92BD81BDF89A992780B55E
:105240000895262FF999FECF1FBA92BD81BD20BDCA
:105250000FB6F894FA9AF99A0FBE01960895052EA2
:1052600097FB1EF400940E94462957FD07D00E9428
:10527000612907FC03D04EF40C94462950954095C3
:10528000309521953F4F4F4F5F4F089590958095F2
:10529000709561957F4F8F4F9F4F08950E9483298E
:1052A000A59F900DB49F900DA49F800D911D11247A
:1052B0000895B7FF0C944E290E944E29821B930B30
:1052C0000895A1E21A2EAA1BBB1BFD010DC0AA1F47
:1052D000BB1FEE1FFF1FA217B307E407F50720F05F
:1052E000A21BB30BE40BF50B661F771F881F991FDA
:1052F0001A9469F760957095809590959B01AC0123
:10530000BD01CF010895A29FB001B39FC001A39F2B
:10531000700D811D1124911DB29F700D811D1124EE
:10532000911D08955058BB27AA270E94AA290C94C2
:10533000B22A0E94A42A38F00E94AB2A20F039F445
:105340009F3F19F426F40C94A12A0EF4E095E7FB94
:105350000C949B2AE92F0E94C32A58F3BA176207BC
:1053600073078407950720F079F4A6F50C94E52AD5
:105370000EF4E0950B2EBA2FA02D0B01B901900170
:105380000C01CA01A0011124FF27591B99F0593FB4
:1053900050F4503E68F11A16F040A22F232F342FFC
:1053A0004427585FF3CF469537952795A795F0404A
:1053B0005395C9F77EF41F16BA0B620B730B840B5F
:1053C000BAF09150A1F0FF0FBB1F661F771F881F17
:1053D000C2F70EC0BA0F621F731F841F48F487956F
:1053E00077956795B795F7959E3F08F0B0CF939561
:1053F000880F08F09927EE0F9795879508950E94DA
:10540000772A08F481E008950E940B2A6894B1116C
:105410000C94E62A08950E94CB2A88F09F5798F0B2
:10542000B92F9927B751B0F0E1F0660F771F881FA9
:10543000991F1AF0BA95C9F714C0B13091F00E94C3
:10544000E52AB1E008950C94E52A672F782F882784
:10545000B85F39F0B93FCCF3869577956795B395EA
:10546000D9F73EF490958095709561957F4F8F4F59
:105470009F4F0895E89409C097FB3EF4909580955E
:10548000709561957F4F8F4F9F4F9923A9F0F92F0A
:1054900096E9BB279395F695879577956795B79588
:1054A000F111F8CFFAF4BB0F11F460FF1BC06F5F6E
:1054B0007F4F8F4F9F4F16C0882311F096E911C080
:1054C000772321F09EE8872F762F05C0662371F0A1
:1054D00096E8862F70E060E02AF09A95660F771FB5
:1054E000881FDAF7880F9695879597F90895990F91
:1054F0000008550FAA0BE0E8FEEF16161706E8079E
:10550000F907C0F012161306E407F50798F0621BBE
:10551000730B840B950B39F40A2661F0232B242B93
:10552000252B21F408950A2609F4A140A6958FEFB2
:10553000811D811D089597F99F6780E870E060E004
:1055400008959FEF80EC089500240A94161617061C
:1055500018060906089500240A9412161306140664
:1055600005060895092E0394000C11F4882352F0C7
:10557000BB0F40F4BF2B11F460FF04C06F5F7F4F7F
:105580008F4F9F4F089557FD9058440F551F59F066
:105590005F3F71F04795880F97FB991F61F09F3F20
:1055A00079F087950895121613061406551FF2CF49
:1055B0004695F1DF08C0161617061806991FF1CF99
:1055C00086957105610508940895E894BB276627C0
:1055D0007727CB0197F90895EE0FFF1F0590F491FF
:1055E000E02D09940F931F93CF93DF9382309105A1
:1055F00010F482E090E0E0918903F0918A0330E0BA
:1056000020E0B0E0A0E0309799F42115310509F4CD
:105610004AC0281B390B24303105D8F58A819B817B
:105620006115710589F1FB0193838283FE0111C02D
:10563000408151810281138148175907E0F04817D2
:10564000590799F4109761F012960C9312971396DC
:105650001C933296CF01DF91CF911F910F91089546
:105660000093890310938A03F4CF2115310551F07B
:105670004217530738F0A901DB019A01BD01DF0190
:10568000F801C1CFEF01F9CF90938A03809389038A
:10569000CDCFFE01E20FF31F819391932250310988
:1056A00039832883D7CF2091870330918803232B18
:1056B00041F420911801309119013093880320930F
:1056C000870320911601309117012115310541F40E
:1056D0002DB73EB740911A0150911B01241B350B89
:1056E000E0918703F0918803E217F307A0F42E1BE3
:1056F0003F0B2817390778F0AC014E5F5F4F241736
:10570000350748F04E0F5F1F50938803409387037F
:10571000819391939FCFF0E0E0E09CCFCF93DF9314
:105720000097E9F0FC01329713821282A09189035D
:10573000B0918A03ED0130E020E01097A1F42081C0
:105740003181820F931F209187033091880328179E
:10575000390709F061C0F0938803E0938703DF9174
:10576000CF910895EA01CE17DF07E8F54A815B8102
:105770009E0141155105B1F7E901FB83EA83499187
:105780005991C40FD51FEC17FD0761F480819181F9
:105790000296840F951FE901998388838281938102
:1057A0009B838A83F0E0E0E012968D919C911397A1
:1057B0000097B9F52D913C911197CD010296820F7A
:1057C000931F20918703309188032817390739F6F2
:1057D000309751F510928A0310928903B093880391
:1057E000A0938703BCCFD383C28340815181840FB0
:1057F000951FC817D90761F44E5F5F4F8881998163
:10580000480F591F518340838A819B8193838283F0
:105810002115310509F0B0CFF0938A03E093890395
:105820009ECFFD01DC01C0CF13821282D7CF81E071
:1058300090E0F8940C94FB2EDC0101C06D93415074
:105840005040E0F70895AEE0B0E0E9E2FCE20C94ED
:10585000D22E0D891E8986E08C831A8309838FEFEF
:105860009FE79E838D83AE01475E5F4F6F89788D82
:10587000CE0101960E94462C2F813885020F131FFE
:10588000F80110822E96E4E00C94EE2EABE0B0E02E
:10589000ECE4FCE20C94C42E7C013B018A01FC0187
:1058A00017821682838181FFC8C1CE0101965C01F7
:1058B000F7019381F30193FD859193FF81913F015E
:1058C000882309F453C1853239F493FD859193FF00
:1058D00081913F01853229F4B70190E00E94362E74
:1058E000E7CF912C212C312CFFE1F31538F08B32CE
:1058F00011F190F4803209F1833229F137FC3CC078
:1059000020ED280F2A3050F536FE20C08AE0989E00
:10591000200D1124922E06C08D3291F0803371F744
:10592000689430F8F30193FD859193FF81913F01D5
:105930008111DACF21C0689431F8689432F8F2CF3F
:10594000689433F8EFCF689434F8ECCFEAE02E9EF9
:10595000200D1124222E689435F8E4CF8E3229F4DC
:1059600036FC04C1689436F8DDCF8C3619F468949F
:1059700037F8D8CF8836B1F2982F9F7D9554933061
:10598000E0F08336A1F18337C1F1833509F063C0BC
:105990002801F2E04F0E511CF801C080D180692D22
:1059A00070E036FC02C06FEF7FEFC6010E94202E30
:1059B0004C01689437F882010AC00C5F1F4FFFE367
:1059C000F98388248394912C6501E89437F833FE99
:1059D0002DC0522C8114910471F5552009F468CF23
:1059E000B70180E290E00E94362E5A94F6CFF8017B
:1059F000808189830E5F1F4FE4CF2801F2E04F0EB4
:105A0000511CF801C080D180692D70E036FC02C0C5
:105A10006FEF7FEFC6010E942B2E4C018201D5CF84
:105A2000B70180E290E00E94362E2A9428141904CF
:105A300009F0B0F7CECFF60137FC859137FE8191A2
:105A40006F01B70190E00E94362E51105A94F1E098
:105A50008F1A9108BFCF843619F0893609F077C0C4
:105A6000F80137FE6BC060817181828193810C5F88
:105A70001F4FF32DFF763F2E97FF09C0909580951D
:105A8000709561957F4F8F4F9F4F689437F82AE04C
:105A900030E0A5010E94662EC82ECA188C2C432C1B
:105AA00036FE0CC0E89440F8C91440F434FE05C03A
:105AB00032FC03C0F32DFE7E4F2E892C44FE95C090
:105AC000FE01EC0DF11D8081803309F087C0242D8B
:105AD000297E422E842D8870582E43FC95C040FEAE
