:100000000C94240A0C944C0A0C944C0A0C944C0A40
:100010000C944C0A0C944C0A0C944C0A0C944C0A08
:100020000C944C0A0C944C0A0C94181E0C94871EC9
:100030000C944C0A0C944C0A0C944C0A0C944C0AE8
:100040000C944C0A0C944C0A0C944C0A0C944C0AD8
:100050000C944C0A0C944C0A0C944C0A0C941421E9
:100060000C944C0A0C944C0A0C944C0A0C944C0AB8
:100070000C944C0A0C944C0A0C944C0A0C944C0AA8
:100080000C94B9200C944C0A0C944C0A0C944C0A15
:100090000C945E210C944C0A0C944C0A0C944C0A5F
:1000A0000C944C0A0C944C0A0C944C0A0001030763
:1000B0000F1F3F7F0080C0E0F0F8FCFE0000000052
:1000C000003E5B4F5B3E3E6B4F6B3E1C3E7C3E1CDE
:1000D000183C7E3C181C577D571C1C5E7F5E1C0024
:1000E000183C1800FFE7C3E7FF0018241800FFE7DB
:1000F000DBE7FF30483A060E2629792926407F059E
:100100000507407F05253F5A3CE73C5A7F3E1C1CB3
:1001100008081C1C3E7F14227F22145F5F005F5F73
:1001200006097F017F006689956A6060606060945F
:10013000A2FFA29408047E040810207E2010080864
:100140002A1C08081C2A08081E101010100C1E0C6F
:100150001E0C30383E3830060E3E0E060000000001
:100160000000005F00000007000700147F147F14E8
:10017000242A7F2A1223130864623649562050002D
:1001800008070300001C2241000041221C002A1C19
:100190007F1C2A08083E0808008070300008080804
:1001A0000808000060600020100804023E51494524
:1001B0003E00427F400072494949462141494D3342
:1001C0001814127F1027454545393C4A49493141A9
:1001D000211109073649494936464949291E000077
:1001E00014000000403400000008142241141414CC
:1001F0001414004122140802015909063E415D59B8
:100200004E7C1211127C7F494949363E41414122C0
:100210007F4141413E7F494949417F090909013EEA
:10022000414151737F0808087F00417F4100204011
:10023000413F017F081422417F404040407F021C23
:10024000027F7F0408107F3E4141413E7F0909093A
:10025000063E4151215E7F09192946264949493206
:1002600003017F01033F4040403F1F2040201F3FCC
:100270004038403F63140814630304780403615951
:10028000494D43007F414141020408102000414193
:10029000417F04020102044040404040000307083F
:1002A0000020545478407F2844443838444444283B
:1002B000384444287F385454541800087E090218E2
:1002C000A4A49C787F0804047800447D400020406A
:1002D000403D007F1028440000417F40007C0478AE
:1002E00004787C080404783844444438FC182424F6
:1002F0001818242418FC7C08040408485454542476
:1003000004043F44243C4040207C1C2040201C3CF2
:100310004030403C44281028444C9090907C4464E9
:10032000544C44000836410000007700000041367C
:10033000080002010204023C2623263C1EA1A16102
:10034000123A4040207A3854545559215555794134
:100350002254547842215554784020545579400C09
:100360001E527212395555555939545454593955EC
:100370005454580000457C410002457D420001452F
:100380007C407D1211127DF0282528F07C545545C3
:10039000002054547C547C0A097F4932494949322F
:1003A0003A4444443A324A4848303A4141217A3A40
:1003B00042402078009DA0A07D3D4242423D3D400C
:1003C00040403D3C24FF2424487E4943662B2FFCBB
:1003D0002F2BFF0929F620C0887E09032054547969
:1003E000410000447D413048484A32384040227A3A
:1003F000007A0A0A727D0D19317D2629292F2826B7
:100400002929292630484D402038080808080808BE
:100410000808382F10C8ACBA2F102834FA00007B17
:10042000000008142A142222142A1408550055002A
:1004300055AA55AA55AAFF55FF55FF000000FF0019
:10044000101010FF00141414FF001010FF00FF1014
:1004500010F010F0141414FC001414F700FF000046
:10046000FF00FF1414F404FC141417101F10101FC5
:10047000101F1414141F00101010F0000000001FB3
:10048000101010101F10101010F010000000FF10BE
:100490001010101010101010FF10000000FF1400BA
:1004A00000FF00FF00001F10170000FC04F41414EC
:1004B0001710171414F404F40000FF00F7141414B8
:1004C00014141414F700F7141414171410101F1038
:1004D0001F141414F4141010F010F000001F101F5B
:1004E0000000001F14000000FC140000F010F010C9
:1004F00010FF10FF141414FF141010101F00000040
:1005000000F010FFFFFFFFFFF0F0F0F0F0FFFFFF43
:100510000000000000FFFF0F0F0F0F0F384444389A
:1005200044FC4A4A4A347E02020606027E027E02E9
:1005300063554941633844443C04407E201E2006F4
:10054000027E020299A5E7A5991C2A492A1C4C7231
:1005500001724C304A4D4D303048784830BC625AB8
:10056000463D3E494949007E0101017E2A2A2A2A48
:100570002A44445F444440514A444040444A514024
:100580000000FF0103E080FF000008086B6B0836E5
:1005900012362436060F090F060000181800000056
:1005A0001010003040FF0101001F01011E00191D45
:1005B0001712003C3C3C3C00000000000000000022
:1005C0002300260029002C002F0000000002000953
:1005D0000F0000030401000C0000000000000000F8
:1005E00000000000000000000000000000240027C0
:1005F000002A002D003000DB40A4A62EAFDA0281D5
:10060000DA1281DA02818F2000A1C8D300408DAEBA
:10061000D580A8000060000000000000000000007D
:1006200000000000E00000000000000000000000EA
:10063000000001E0000000000000000000000000D9
:100640000001F000000000000000000000000000B9
:1006500003F00000000000000000000000000007A0
:10066000F00000000000000000000000000007F89B
:10067000000000000000000000000000000FF80073
:10068000000003C0007E000001E0007F0FF80000C2
:100690000003C000FE000001E000FFEFF8000000D2
:1006A00003C000FE000001E000FFFFF800000003AF
:1006B000C000F00000000F007FFE7FC0000003C0FC
:1006C00000F00000000F003FFE7FF83FF1FBCFFC81
:1006D000FEF3BC3DEFE01FFE7FFF7FFBFFDFFEFE72
:1006E000FFBC3DEFE01FC6FFFF7FFBFFDFFEFEFF0D
:1006F000BC3DEFE00FE3C7FE787BC3DE1EF0FFBC1E
:100700003DEF0007FF87FC787BC3DE1EF0F83C3D21
:10071000EF0001FFFFF0007BC3C01EF0F03C3DEF97
:100720000001F37FE03FFBC3CFFEF0F03C3DEF0064
:1007300003E33F807FFBC3DFFEF0F03C3DEF0007AB
:10074000E73C00787BC3DE1EF0F03C3DEF0007FF86
:10075000BE00787BC3DE1EF0F03C3DEF0007FFFEDD
:1007600000787BC3DE1EF0F03C3DEF000FFFFE0083
:100770007FFBFFDFFEF0F03FFDEFE00FFFFF007FAC
:10078000FBFFDFFEF0F03FFDEFE00FF9FF003E79E9
:10079000F9CF9EF0F01F3DE7E01FF1FF00000000E1
:1007A00000000000000000001F80FF007FFFFFFF2F
:1007B000FFFFFFFFFFFFE01C007F007FFFFFFFFE4A
:1007C000B46D888D18E000001F007FFFFFFFFE95CD
:1007D000AD7DB577E000000F007FFFFFFFFEA5AD08
:1007E0009D8D19E0000006007FFFFFFFFEB5ADED17
:1007F000B57EE00000000000018000000000000065
:10080000000000038000000000000000000007C09E
:1008100000000000000000000007C0000000000011
:10082000000000000FC00000000000000000001FDA
:10083000E00000000000000000001FE000000000D9
:1008400000000000003FE000000000000000000089
:100850003FF00000000000000000007FF0000000FA
:10086000000000001FF87FF0000000000000003FC3
:10087000FE7FF0000000000000003FFF7FF000005E
:1008800000000000001FFFFBE0000000000000006F
:100890000FFFF9FFC00000000000000FFFF9FFF894
:1008A00000000000000007FFF1FFFF000000000053
:1008B0000003FC73FFFF80000000000001FE3FFF0B
:1008C000FF80000000000000FF1E0FFF000000007E
:1008D0000000007FFE1FFC000000000000003FFF42
:1008E000FFF8000000000000000FDFFFE000000044
:1008F000000000001F19FFC0000000000000003FC2
:100900003CFF00000000000000007E7CF8000000BA
:1009100000000000007FFE7C0000000000000000DE
:10092000FFFFFC0000000000000000FFFFFE0000D1
:10093000000000000000FFFFFE00000000000000BB
:1009400001FFEFFE0000000000000001FFCFFE00ED
:1009500000000000000003FF07FE00000000000090
:100960000003FC07FE0000000000000003F003FE8F
:1009700000000000000000018000FE0000000000F8
:1009800000000000007E00000000000000000000E9
:100990003E000000000000000000000C000000000D
:1009A0000000078000FC000003C000000007800179
:1009B000FC000003C0000000078001FC000003C031
:1009C000000000078001E00000001E00000007801A
:1009D00001E00000001E007FE3F79FF9FDE7787B50
:1009E000DFC0FFF7FFBFFDFDFF787BDFC0FFF7FF34
:1009F000BFFDFDFF787BDFC0F0F787BC3DE1FF78EE
:100A00007BDE00F0F787BC3DE1F0787BDE0000F78D
:100A100087803DE1E0787BDE007FF7879FFDE1E0A6
:100A2000787BDE00FFF787BFFDE1E0787BDE00F03A
:100A3000F787BC3DE1E0787BDE00F0F787BC3DE165
:100A4000E0787BDE00F0F787BC3DE1E0787BDE00FC
:100A5000FFF7FFBFFDE1E07FFBDFC0FFF7FFBFFD5A
:100A6000E1E07FFBDFC07CF3F39F3DE1E03E7BCF25
:100A7000C00000000000000000000000FFFFFFFFBA
:100A8000FFFFFFFFFFFFC0FFFFFFFFFD68DB111A45
:100A900031C0FFFFFFFFFD2B5AFB6AEFC0FFFFFFD6
:100AA000FFFD4B5B3B1A33C0FFFFFFFFFD6B5BDBC2
:100AB0006AFDC007E01FF83FFC0FFC07FE03FF01C3
:100AC000FF00FF00FF01FF03FF07FE0FFC3FFC1FBD
:100AD000F807E003C00FF01FF83FFC3FFC7FFE73F8
:100AE000CE73CE7FFE7FFE7FFE7FFE7FFE7FFE6E9B
:100AF00076442207E01FF83FFC7FF07FE0FFC0FF55
:100B000080FF00FF00FF80FFC07FE07FF03FFC1F01
:100B1000F807E007E01FF83FFC7FFE7FFEFFFFFFC6
:100B2000FFFFFFFFFFFFFFFFFF7FFE7FFE3FFC1F7A
:100B3000F807E000000000000000000000000000D6
:100B4000000000200008000000000000000000007D
:100B5000000000000000000000000800000000008D
:100B600000000000000000028000000010000000F3
:100B7000000020000000000EA000000000000000A7
:100B8000000000000000003A00000000000000002B
:100B900000000000000000550800000000000000F8
:100BA0000000000000000074400000000000100081
:100BB00040000000020000D00080000000000000A3
:100BC00000000000000040EA80000000000000007B
:100BD00000000000000000A0000000000000000075
:100BE00000000000000000D00880000000000000AD
:100BF00000000000000000A4000000000000000051
:100C000000000000000000C00A000000000000001A
:100C10000040000000000048210000000000000823
:100C20000000200000000040040000400000000020
:100C30000000000000000020000000000000000094
:100C40000000000000000008120000000004400046
:100C5000000000000000000000000000005BB40085
:100C6000000000000000000540000000017D5A80E7
:100C700000000000080000000000000003EB4940F5
:100C80000000000000000000000000000BBAA414E7
:100C90000000000000000000000000002ED5510000
:100CA0000080000000000000000000001B6A0444F7
:100CB000000000000000000000000000FFB550012F
:100CC0000000000000000000000000016AAA0220ED
:100CD000400000000000000000000002DD5540045C
:100CE000000000000000000000000003F5481100B3
:100CF000200000000000002000000006B6A28420B2
:100D000000000000000400000000000FEA90400016
:100D100090000000000000000000800DBAA4200236
:100D2000044000000000000000000007EA81008885
:100D300040000040000000000000001EAA2808201B
:100D400004000000000000000000003BB48122808D
:100D500000004000000000000000002ED2104800FB
:100D600002000000000000000000003759450000AC
:100D700000000000000080000000001AC4280000ED
:100D800002000000000000000000002F75428004F7
:100D900000000000001084000000003AA8001010BD
:100DA00042000000000000000000003FA5240040B9
:100DB00000000000020490000000006A50004000A3
:100DC000040000000002A0000000003D888900022D
:100DD00002000000000080000000003562000108F1
:100DE000000000000057F5000000005A8820002095
:100DF0004A0000000000800000000036A0800002D1
:100E0000000000000002A0000000002D12000211EE
:100E10000A000000000490000000001AC000004416
:100E200044000200000000000000002D2904000220
:100E30002804000000108400000000150020082194
:100E400010000001000000000040000CAA00010892
:100E5000A8000000000080000000000A80001004CC
:100E600040000000000000000000000551000221C9
:100E700030000000000040000000000A04210814B7
:100E8000400000000000000000000005508000410C
:100E900040000000000000000000000122000000EF
:100EA0008000000000000000000000028000020935
:100EB0000000000000000000000000005088202218
:100EC000020000000000000000000000840000029A
:100ED0000000000000020000000000001000008878
:100EE00000040000000000000000000009000020D5
:100EF000000000020000000000000800024804009A
:100F0000000000000000000000000000008241001E
:100F100000000000000000000000000000111400AC
:100F20000000000000000000004000000000000081
:100F300000000000000000000000000000000000B1
:100F40000000002000080000000000000000000079
:100F50000000000000000000000008000000000089
:100F600000000000000000028000000010000000EF
:100F7000000020000000000EA000000000000000A3
:100F8000000000000000003A000000000000000027
:100F900000000000000000550800000000000000F4
:100FA000000000000000007440000000000010007D
:100FB00040000000020000D000800000000000009F
:100FC00000000000000040EA800000000000000077
:100FD00000000000000000A0000000000000000071
:100FE00000000000000000D00880000000000000A9
:100FF00000000000000000A400000000000000004D
:1010000000000000000000C00A0000000000000016
:10101000004000000000004821000000000000081F
:10102000000020000000004004000040000000001C
:101030000000000000000020000000000000000090
:101040000000000000000008120000000000000086
:101050000000000000000000000000000000000090
:10106000000000000000000540000000001C1C0003
:1010700000000000080000000000000000400140E7
:10108000000000000000000000000000020000203E
:101090000000000000000000000000000800001830
:1010A00000800000000000000000000000000004BC
:1010B0000000000000000000000000000000003CF4
:1010C000800000000000000000000000000007FE9B
:1010D00080000000000000000000000000007FFF12
:1010E0008000000000000000000000010000FFFF81
:1010F000C000000000000020000000020003FFF814
:10110000200000000004000000000002000FFCFFAF
:10111000A000000000000000000080040017FE8016
:10112000104000000000000000000004007FFE806E
:1011300010000040000000000000000800FFE80070
:1011400008000000000000000000000001FF800017
:1011500008004000000000000000001003FE000036
:101160000400000000000000000000100FFC000060
:101170000400000000008000000000000FF00000EC
:101180000400000000000000000000001FF000004C
:101190000000000000108400000000103FE000008C
:1011A0000000000000000000000000103FC0000030
:1011B0000400000002049000000000107F80000086
:1011C000040000000002A000000000107F000000EA
:1011D0000400000000008000000000107E000000FD
:1011E000000000000057F50000000000FE000000B5
:1011F000000000000000800000000000FD00000072
:10120000040000000002A00000000011FC00001813
:10121000040000000004900000000001FA0000102B
:10122000000002000000000000000009F80007C0F4
:10123000080400000010840000000001F8000F0006
:10124000100000010000000000400007F800FC0052
:10125000100000000000800000000003F80FF00004
:1012600020000000000000000000000179FF800065
:10127000200000000000400000000000FFFC000013
:10128000000000000000000000000000FFF8000067
:101290000000000000000000000000005F8000006F
:1012A0000000000000000000000000000600000038
:1012B000000000000000000000000000000000002E
:1012C0000200000000000000000000000000000814
:1012D00000000000000200000000000004000010F8
:1012E00000040000000000000000000002000000F8
:1012F00000000002000000000000080000300600AE
:101300000000000000000000000000000007F000E6
:1013100000000000000000000000000000000000CD
:10132000000000000000000000400000000000007D
:101330000000000000038007E00DB04DB26FD6FB47
:10134000FF0FF807E003C00E70781E200C20080085
:10135000000000AA550880451020201040C0181039
:10136000402020451080C0F8C0C0E0F8FFF8E0C081
:10137000C0F8C0800080C080F0C080C000080B00B2
:10138000020202010009040000010202000005241B
:1013900000100105240101010424020605240600B1
:1013A000010705810310004009040100020A000042
:1013B0000007050202400000070583024000000408
:1013C00003090412010002EF0201404123368000AC
:1013D000010102030141726475696E6F204C4C4338
:1013E0000041726475696E6F204C656F6E61726446
:1013F0006F002200FF21000408020110408040100D
:10140000204080408008020401804020100201102A
:1014100080102040402000000000250028002B0004
:101420002E00310004040404040304050202020235
:10143000040302020202060606060606040402026D
:1014400002040403B0226D2E11241FBECFEFDAE098
:10145000DEBFCDBF12E0A0E0B1E0E6E4FAE602C0F4
:1014600005900D92A036B107D9F724E0A0E6B2E0CE
:1014700001C01D92A63CB207E1F71AE0C3E2DAE030
:1014800004C02197FE010E940731C232D107C9F77B
:101490000E94FC220C9416350C9400000895FC0167
:1014A00080911604882311F13FB7F89482E080936D
:1014B000E9002091F200822F90E01816190614F42A
:1014C00081E090E0882339F0289844E640931504A1
:1014D0004091F1004083222339F02091F200211144
:1014E00003C02BE62093E8003FBF08958FEF9FEFE6
:1014F00008952FB7F89483E08093E9009091E80075
:10150000892F807295FF04C09091F20080E4891BBE
:101510002FBF089580910D0481110DC082E080934A
:10152000090484E080930A0410920C0410920B04C6
:1015300081E080930D0489E094E00895CF93DF93D8
:101540001F92CDB7DEB76983DC01ED91FC9102807B
:10155000F381E02D41E050E0BE016F5F7F4F0995C0
:101560000F90DF91CF91089583E08093E9008091FF
:10157000F200882319F08AE38093E80008950E941E
:10158000790A90E00895CF93DF931F92CDB7DEB72D
:10159000FC018485958597FD08C02FEF3FEF3587C7
:1015A00024870F90DF91CF910895CE0101960E947C
:1015B0004F0A019719F4898190E0F3CF8FEF9FEFE5
:1015C000F0CF0F931F93CF93DF931F92CDB7DEB76A
:1015D0008C01FC018485958597FF0BC0CE01019697
:1015E0000E944F0A019771F4898190E0F801958774
:1015F0008487F801848595850F90DF91CF911F91A5
:101600000F9108958FEF9FEFF1CFFC0184859585B1
:1016100097FD0BC09FB7F89482E08093E90080911A
:10162000F2009FBF90E0019608959FB7F89482E082
:101630008093E9008091F2009FBF90E0089540916F
:1016400003045091040420910104309102044217D4
:101650005307B4F49091E8009570E1F39091E8009D
:1016600092FD19C08093F1008091030490910404CD
:1016700001968F739927892B19F48EEF8093E800D8
:101680008091030490910404019690930404809344
:10169000030481E0089580E00895DF92EF92FF92C5
:1016A0000F931F93CF93DF93D82E8A01EB017B0119
:1016B000E40EF51ECE15DF0559F0D7FE12C0FE016F
:1016C00084910E941F0B21968111F4CF0FEF1FEF21
:1016D000C801DF91CF911F910F91FF90EF90DF90A4
:1016E00008958881EECF0F931F93CF93DF931F92BE
:1016F000CDB7DEB782E0898342E450E06DE773E165
:1017000080E80E944D0B0E948A0ADC0112960D911E
:101710001C910115110589F0D801ED91FC91028011
:10172000F381E02DBE016F5F7F4FC801099597FDE2
:1017300004C0F80100851185ECCF89810F90DF91FD
:10174000CF911F910F910895615030F02091F100D9
:10175000FC0120830196F8CF289884E68093150435
:101760000895AF92BF92CF92DF92EF92FF920F93C4
:101770001F93CF93DF936C017B018B01040F151F27
:10178000EB015E01AE18BF08C017D10759F069918F
:10179000D601ED91FC910190F081E02DC6010995F3
:1017A000892B79F7C501DF91CF911F910F91FF90A0
:1017B000EF90DF90CF90BF90AF9008950895089577
:1017C00081508F3008F047C0E82FF0E0E651F44F29
:1017D0000C940731070C0B0CF90BFF0B030C2B0CB3
:1017E0002B0C2B0C0E0C140C180C1C0C220C2B0CA0
:1017F000260C809180008F778093800008958091DF
:1018000080008F7DF9CF80918000877FF5CF84B5F0
:101810008F7784BD089584B58F7DFBCF8091900034
:101820008F77809390000895809190008F7DF9CFFD
:1018300080919000877FF5CF8091C0008F77809353
:10184000C00008958091C0008F7DF9CF8091C200C3
:10185000877F8093C2000895CF93DF93282F30E0D5
:10186000F901E653FA4F8491F901E950FC4ED49105
:10187000F901EC5DFB4EC491CC23A1F081110E94D3
:10188000E00BEC2FF0E0EE0FFF1FE454FA4FA591B0
:10189000B491EC91ED2381E090E009F480E0DF91D8
:1018A000CF91089580E090E0FACF1F93CF93DF931C
:1018B000282F30E0F901E653FA4F8491F901E950FD
:1018C000FC4ED491F901EC5DFB4EC491CC23A9F000
:1018D000162F81110E94E00BEC2FF0E0EE0FFF1F9E
:1018E000EA5EFB4EA591B4918FB7F894EC9111117B
:1018F00008C0D095DE23DC938FBFDF91CF911F917D
:101900000895DE2BF8CFCF93DF9390E0FC01E950F0
:10191000FC4E24918C5D9B4EFC0184918823D1F078
:1019200090E0880F991FFC01E751FA4FA591B491FF
:10193000FC01EA5EFB4EC591D491623071F49FB711
:10194000F8943C91822F809583238C93E8812E2BF1
:1019500028839FBFDF91CF9108958FB7F894EC91C2
:101960002E2B2C938FBFF6CF4F925F926F927F9268
:101970008F929F92AF92BF92CF92DF92EF92FF929F
:101980000F931F93CF93DF9300D000D01F92CDB75A
:10199000DEB78C0149835A836B837C83809111016C
:1019A0008530C9F08F3F09F48AC00F900F900F90D7
:1019B0000F900F90DF91CF911F910F91FF90EF90BB
:1019C000DF90CF90BF90AF909F908F907F906F905F
:1019D0005F904F900895E3E4F4E124912D8327FD77
:1019E000E4CF61E085E00E94830C2D81222321F069
:1019F0008D81823009F0F5C04801B12CA12C60E046
:101A000072E18AE790E0A50198010E94362F290132
:101A10003A0168E478EE81E090E0A50198010E9427
:101A2000362FDA01C9010197A109B1096C017D01C5
:101A30002D81222309F471C1223009F063C18F3F47
:101A40009105A105B10509F00CF4AFCF64E274EF84
:101A500080E090E0A50198010E94362F21503109C5
:101A6000410951092F3F31054105510509F008F49D
:101A70009CCF62E17AE780E090E0A50194010E94AA
:101A8000362F69017A0181E0C81AD108E108F1080E
:101A90002FEFC216D104E104F10409F00CF461C186
:101AA000730162019AE0F594E794D794C7949A95EC
:101AB000D1F781E0C81AD108E108F10852C185E0E8
:101AC00080931101E3E4F4E184918D838F3F09F465
:101AD0006CCF813041F170F0833009F442C0843022
:101AE00009F461C08D8187FD60CF61E085E00E94CF
:101AF000830C7ECF14BC15BC84B5826084BD85B5D3
:101B0000816085BDE9E2F4E1E491F0E0EE0FFF1FB2
:101B1000EA5EFB4E85919491ECEFF3E1E491E09362
:101B20001C041D825ECF1092800010928100809173
:101B30008100886080938100809181008160809322
:101B40008100E9E2F4E1E491F0E0EE0FFF1FEA5ECC
:101B5000FB4E85919491ECEFF3E1E491E0931B044B
:101B600040CF109290001092910080919100886077
:101B70008093910080919100816080939100E9E2CF
:101B8000F4E1E491F0E0EE0FFF1FEA5EFB4E859179
:101B9000949190931A0480931904ECEFF3E1E4918B
:101BA000E09318041ECF1092C0001092C1008091E3
:101BB000C10088608093C1008091C10081608093E2
:101BC000C100E9E2F4E1E491F0E0EE0FFF1FEA5E0C
:101BD000FB4E85919491ECEFF3E1E491E0931704CF
:101BE00000CFB12CA12C60E072E18AE790E0A50162
:101BF00098010E94362F69017A0181E0C81AD10844
:101C0000E108F10891E0C114D10421E0E206F104F9
:101C100084F068E478EE81E090E0A50198010E94EC
:101C2000362F69017A0181E0C81AD108E108F1086C
:101C300093E02D81213039F480918100887F892BB8
:101C4000809381008EC08D81833039F48091910022
:101C5000887F892B8093910084C02D81243009F0E6
:101C600080C08091C100887F892B8093C10079C09A
:101C7000D0928900C09288002093250430932604D6
:101C8000409327045093280480916F0082608093D2
:101C90006F008BCED0929900C092980020932104BF
:101CA00030932204409323045093240480917100C4
:101CB00082608093710079CE730162012AE0F5940D
:101CC000E794D794C7942A95D1F721E0C21AD10896
:101CD000E108F10895E041C08D818330D9F284306C
:101CE00009F063CEC092CF0020931D0430931E04F0
:101CF00040931F045093200480917200806480936D
:101D0000720053CE8FEFC816D104E104F10411F034
:101D100008F0AFCE21E02D8324C093E08FEFC816EA
:101D2000D104E104F104C9F0C4F062E17AE780E093
:101D300090E0A50194010E94362F69017A0181E0AB
:101D4000C81AD108E108F1082FEFC216D104E10446
:101D5000F10411F00CF0B0CF94E085B5887F892BA9
:101D600085BDD801AA0FBB1F29813A814B815C81B7
:101D70000E94552F28EE33E040E050E00E94682F8B
:101D80008D81813009F474CF0CF0A6CF81110DCE76
:101D9000C7BC2093290430932A0440932B0450930A
:101DA0002C0480916E00826080936E00FECD1F93A4
:101DB000CF93DF93182FEB0161E00E94830CCF3F9C
:101DC000D10539F461E0812FDF91CF911F910C94FF
:101DD000550CE12FF0E0E653FA4FE491E150EF307B
:101DE00008F07FC0F0E0E950F14F0C940731060F86
:101DF0000E0F130F1D0F270F710F710F710F310F82
:101E00003B0F450F4F0F5C0F710F640F84B5806857
:101E100084BDC7BDDF91CF911F91089584B58062C5
:101E200084BDC8BDF7CF809180008068809380001A
:101E3000D0938900C0938800EDCF809180008062AC
:101E400080938000D0938B00C0938A00E3CF809171
:101E50008000886080938000D0938D00C0938C00B8
:101E6000D9CF80919000806880939000D0939900A2
:101E7000C0939800CFCF80919000806280939000B3
:101E8000D0939B00C0939A00C5CF8091900088604A
:101E900080939000D0939D00C0939C00BBCF809115
:101EA000C00080688093C0008091C0008F7B8093C9
:101EB000C000C093CF00AECF8091C00080628093FD
:101EC000C000C093D000A6CF8091C20088608093EC
:101ED000C2008091C2008B7F8093C200C093D20069
:101EE00099CFCF37D10509F06DCF60E06CCF3FB708
:101EF000F8948091110390911203A0911303B09173
:101F0000140326B5A89B05C02F3F19F00196A11D0B
:101F1000B11D3FBFBA2FA92F982F8827BC01CD0133
:101F2000620F711D811D911D42E0660F771F881F92
:101F3000991F4A95D1F708958F929F92AF92BF92C1
:101F4000CF92DF92EF92FF924B015C010E94770FDC
:101F50006B017C010E94770F6C197D098E099F0926
:101F6000683E734081059105A8F321E0821A91082B
:101F7000A108B10888EEC80E83E0D81EE11CF11C50
:101F800081149104A104B10429F7FF90EF90DF9030
:101F9000CF90BF90AF909F908F9008958F929F9217
:101FA000AF92BF92CF92DF92EF92FF920F931F9367
:101FB000CF93DF936C017B018A018091100188230C
:101FC00009F45CC080911604882309F457C08091FD
:101FD000080480FF05C08091E00082608093E000EB
:101FE000E801B12C8AEFA82E93E0892E2AE3922EE5
:101FF000209711F4BB20D9F10E94790A81110AC0FF
:10200000AA94AA20D9F161E070E080E090E00E94FB
:102010009C0FEECF8C171D0611F00CF08C2F9FB784
:10202000F8948092E9002091E80025FD02C09FBF4E
:10203000DFCF282F30E0C21BD30BF701815020F0F7
:1020400041914093F100FACFE20EF31EBB2021F044
:102050009092E800B12CEBCF8091E80085FDE7CFAE
:102060009092E800BB24B394209709F3F3CF5D98D6
:1020700084E680930704101611063CF081E090E09E
:10208000F6019383828310E000E0C801DF91CF91D5
:102090001F910F91FF90EF90DF90CF90BF90AF9086
:1020A0009F908F9008950895FC016370658B8481E3
:1020B000958126813781613039F0633029F091872D
:1020C0008087338722870895318720879387828787
:1020D00008952F923F924F925F926F927F928F92CC
:1020E0009F92AF92BF92CF92DF92EF92FF920F93A7
:1020F0001F93CF93DF93CDB7DEB769970FB6F894F0
:10210000DEBF0FBECDBF998F888F5B011A01D22E23
:102110001F830E833701C982DC0158962D913C91B3
:1021200059972115310509F004C118968D919C919C
:102130001997681779070CF0C0C11A968D919C9178
:102140001B97481759070CF0B8C18C2C912CFB0138
:1021500026E0C29EE00DF11D1124F987E8871E16C6
:102160001F060CF0AAC1A40193E0440F551F9A95D5
:10217000E1F75D874C87CA01820D931D1816190679
:102180000CF09BC157968C91811104C05FEA5D15DC
:1021900008F4D394A88DB98DED91FC911197028428
:1021A000F385E02DCD010995F5013596F98BE88B86
:1021B000BB82AA8225018CEB90E08A199B099C01C5
:1021C00045E0D49E200D311D11243B8B2A8BEA89DA
:1021D000FB89E40DF51D24913D822C82D12CC12C6C
:1021E000622F70E07F876E87E88DF98DA081B181C5
:1021F00020FF7CC0F981F13009F069C01C96ED9197
:10220000FC912E813F81A1014C0D5D1DB201888D95
:10221000998D0995EE85FF85F595E7952E2F4FEF62
:10222000C41AD40A6C817D81680D791D7D836C830D
:1022300078E0C716D104A1F68FEF481A580AAA8190
:10224000BB81A80DB91DBB83AA83E889F989E41570
:10225000F50509F0BCCF2E813F8126153705A9F081
:10226000A88DB98DED91FC91B981B13009F051C0C3
:10227000B5016B5F7F4F0088F189E02D830128E075
:1022800030E0A101888D998D0995A88DB98DED91CA
:10229000FC9111970688F789E02DCD0169960FB65C
:1022A000F894DEBF0FBECDBFDF91CF911F910F918C
:1022B000FF90EF90DF90CF90BF90AF909F908F9066
:1022C0007F906F905F904F903F902F9009941E9653
:1022D000ED91FC91EE80FF80840194014C815D8141
:1022E0006A817B81888D998D099594CF2E813F815C
:1022F0002615370509F48ECF3981313029F41C9623
:10230000ED91FC9193017FCF1E96ED91FC917301AD
:10231000E3CF68857985681979090684F785E02D0A
:1023200073010C851D859401A101888D998D0995F6
:10233000ACCFF90134969491329745915491D91AC2
:10234000B7E0DB9E400D511D1124F9012591349118
:10235000398B288BFA0145905490FA01329664909B
:102360003196C4903296149131960491398132306D
:1023700008F48AC0E12E012E000CFF08402F002E29
:10238000000C550B59874887A88DB98DED91FC91AC
:1023900011970284F385E02DCD010995B9818B2E2B
:1023A000912CE89CC001E99C900DF89C900D1124A3
:1023B000FC01EA0DFB1DFF87EE871C82D12C712CDE
:1023C0009B868A869101200F311D07FD3A953D8B32
:1023D0002C8BA501410F511D17FD5A955F8B4E8B1C
:1023E0007C1408F052CF872D90E048855985480F1E
:1023F000591F6A857B85469F9001479F300D569FE8
:10240000300D1124D901A20DB31DBD87AC87EE8517
:10241000FF85FB83EA83B12CA12C2C893D89280FF1
:10242000391F3B8B2A8B8C818A0DA61408F040C083
:10243000877041F4C2010196E889F989E40DF51D20
:10244000D4902C01D7FE15C0A88DB98DED91FC91CB
:10245000B981B130F1F40484F585E02D2E813F81FE
:102460004A895B896E897F896A0D7B1D888D998D6C
:102470000995DD0CEFEFAE1ABE0A2A813B81280DCB
:10248000391D3B832A83CFCF19861886F12CE12C86
:102490007BCF0684F785E02DEE80FF8084019401D8
:1024A0004C855D856A817B81888D998D0995E1CF09
:1024B0003C81360D3C83739493CF69960FB6F894A4
:1024C000DEBF0FBECDBFDF91CF911F910F91FF9067
:1024D000EF90DF90CF90BF90AF909F908F907F90C4
:1024E0006F905F904F903F902F900895AF92BF9262
:1024F000CF92EF92FF920F931F93CF93DF93EC0154
:10250000262F888D998D009709F04FC06A30C9F445
:102510001D861C868C8998E0899F900111248E85E8
:102520009F85820F931F9F878E8781E090E0DF91C8
:10253000CF911F910F91FF90EF90CF90BF90AF90F0
:1025400008956D3091F3CC888E898823C1F08C85F5
:102550009D85E6E0CE9E800D911D1124488559850C
:102560004817590764F44E855F851D861C86F8E080
:10257000CF9EC0011124840F951F9F878E87EA8804
:10258000FB88088919894E855F856C857D85CE011C
:102590000E9469102C898C859D8536E0239F800DD3
:1025A000911D11249D878C87C0CF6A3069F41D86E8
:1025B0001C86FC013696E4912C898E859F85E29FCE
:1025C000800D911D1124AFCF6D3009F4AECFFC0109
:1025D00034963491631708F4A8CF3196E491E61746
:1025E00008F4A3CFFC01329645915491E62FE31BEA
:1025F000FF0B37E03E9F50013F9FB00C1124A40E0B
:10260000B51EF501329634913196E4913323A1F150
:10261000EE2391F1CC88F5013596E4914E8944235F
:1026200001F10E2E000CFF0BE30FF11DCE9EA00159
:10263000CF9E500D11246C857D85460F571F6885F0
:102640007985641775076CF44E855F851D861C8639
:102650000696FC018491C89E400D511D11245F8790
:102660004E87EA88FB88088919894E855F856C85C5
:102670007D85CE010E946910F5013496E4912C8984
:102680008C859D85E29F800D911D11248BCF6F92CB
:102690007F928F929F92AF92BF92CF92DF92EF92F2
:1026A000FF920F931F93CF93DF93EC016B015A01BD
:1026B00039014801E881F9810284F385E02D09950B
:1026C000E881F9810288F389E02D87019301A50152
:1026D000B601CE010995A501480D591D415051097A
:1026E000E881F9810288F389E02D9301B601CE01DA
:1026F0000995E881F9810088F189E02D9401A5010F
:10270000B601CE010995C60CD71CB60161507109FE
:10271000E881F9810088F189E02D9401A501CE01BD
:102720000995E881F9810688F789E02DCE01DF91CE
:10273000CF911F910F91FF90EF90DF90CF90BF90BE
:10274000AF909F908F907F906F9009946F927F923F
:102750008F929F92AF92BF92CF92DF92EF92FF92B1
:102760000F931F93CF93DF935C01EB016A01490143
:1027700038018701DC01ED91FC916217730719F5AF
:10278000641675062CF0962D872D3A01C92ED82E89
:102790009601261937092F5F3F4F048CF58DE02DE8
:1027A000A301BE01C5010995DF91CF911F910F9142
:1027B000FF90EF90DF90CF90BF90AF909F908F9061
:1027C0007F906F9008954615570591F426173707A7
:1027D00024F0892D4B01C22FD82F9E0128193909C9
:1027E0002F5F3F4F068CF78DE02DA601B401DACFA5
:1027F0000284F385E02D0995D501ED91FC910488C3
:10280000F589E02D83019401A601BE01C50109955A
:10281000D501ED91FC910688F789E02DC501DF9186
:10282000CF911F910F91FF90EF90DF90CF90BF90CD
:10283000AF909F908F907F906F900994EF92FF924E
:102840000F931F93DC011A960D911C911B971896FC
:102850002D913C911997ED91FC9100A0F1A1E02DF3
:102860007B0150E040E070E060E009951F910F911E
:10287000FF90EF9008954F925F926F927F928F92A8
:102880009F92AF92BF92CF92DF92EF92FF920F93FF
:102890001F93CF93DF936C012B015A01390148013B
:1028A000DC01ED91FC910284F385E02D0995E201B4
:1028B000640C751CD601ED91FC91C615D7055CF42E
:1028C0000088F189E02D87019401A501BE01C601B0
:1028D00009952196EFCF0688F789E02DC601DF9193
:1028E000CF911F910F91FF90EF90DF90CF90BF900D
:1028F000AF909F908F907F906F905F904F900994D2
:102900008F929F92AF92BF92CF92DF92EF92FF92FF
:102910000F931F93CF93DF93EC015B014A01690191
:10292000E881F9810284F385E02D099595012C0D4C
:102930003D1D21503109E881F9810488F589E02D98
:1029400078018401A401B501CE010995E881F981DE
:102950000688F789E02DCE01DF91CF911F910F916D
:10296000FF90EF90DF90CF90BF90AF909F908F90AF
:1029700009948F929F92AF92BF92CF92DF92EF9283
:10298000FF920F931F93CF93DF93EC015B014A01FA
:1029900069017801E881F9810284F385E02D0995C8
:1029A000C80CD91C860101501109E881F9810488FD
:1029B000F589E02D9501A401B501CE010995E881C5
:1029C000F9810688F789E02DCE01DF91CF911F9123
:1029D0000F91FF90EF90DF90CF90BF90AF909F90BE
:1029E0008F900994EF92FF920F931F93DC01ED916A
:1029F000FC9100A0F1A1E02D09951F910F91FF908E
:102A0000EF9008950F931F93DC01ED91FC91068CDC
:102A1000F78DE02D09951F910F9108950F931F9346
:102A2000DC01ED91FC91048CF58DE02D09951F9151
:102A30000F910895DC01ED91FC910084F185E02D6A
:102A400009943F924F925F926F927F928F929F92E2
:102A5000AF92BF92CF92DF92EF92FF920F931F93AC
:102A6000CF93DF9300D000D0CDB7DEB75C013B0140
:102A70006A014901280187E0480E511C93E05594F2
:102A800047949A95E1F7CA018E0D9F1D9A83898319
:102A9000F12CE12C312C1C821B828B819C81877054
:102AA0009927330C892B61F4EB81FC8183E0F59548
:102AB000E7958A95E1F7EE0DFF1DE80DF91D3490BD
:102AC00037FE0AC021E030E0A6016B817C81660DF3
:102AD000771DC5010E941A158B819C8101969C83EC
:102AE0008B8308171907C9F69FEFC91AD90AE40C96
:102AF000F51C89819A81C816D90669F60F900F9046
:102B00000F900F90DF91CF911F910F91FF90EF9059
:102B1000DF90CF90BF90AF909F908F907F906F90FD
:102B20005F904F903F9008952F923F924F925F9207
:102B30006F927F928F929F92AF92BF92CF92DF92CD
:102B4000EF92FF920F931F93CF93DF9300D000D0AB
:102B500000D0CDB7DEB73C016A013E832D83FC82F5
:102B6000EB825801A41AB50AB7FE03C0B194A19430
:102B7000B1088D809E80861A970A97FE03C09194B3
:102B8000819491088A149B045CF0902F812F0D8111
:102B90001E819D838E839C2D8D2D6B01692F782F37
:102BA0000C151D055CF09D818E817E836D83692FE0
:102BB000782F902F812F8601C92ED82E1601201A2A
:102BC000310A2B012D813E81421A530A57FE03C060
:102BD000519441945108710137FE03C03FEFE31A4D
:102BE000F30AF594E7948D819E81861797075CF52B
:102BF000A1E0B0E0BA83A983C016D1064CF1D3019D
:102C0000ED91FC910484F585E02D2B813C81A80198
:102C10006D817E818A149B041CF04D815E81B80118
:102C2000C3010995E418F508F7FE0AC02D813E811D
:102C300089819A81280F391F3E832D83E20CF31C72
:102C40000F5F1F4FD9CF2FEF3FEF3A832983D4CFA8
:102C500026960FB6F894DEBF0FBECDBFDF91CF91A1
:102C60001F910F91FF90EF90DF90CF90BF90AF90AA
:102C70009F908F907F906F905F904F903F902F909C
:102C8000089585ED8093BC008091BC0084FDFCCF4D
:102C900010921C0308952091C502260F3327331F7D
:102CA00021323105ECF420911C03FC0190E080E01E
:102CB000243069F082E00895A091C5022191AC0111
:102CC0004B555D4FA40FB52FB11D2C930196861760
:102CD00098F38091C502680F6093C50280E0089563
:102CE00081E00895E0911E0380911D03E81730F400
:102CF000F0E0EB57FD4F808190E008958FEF9FEF5C
:102D0000089590911E0380911D032FEF3FEF9817B8
:102D100048F4E92FF0E0EB57FD4F208130E09F5F52
:102D200090931E03C901089580911D0390911E0385
:102D3000891B990B0895CF92DF92EF92FF920F9328
:102D40001F93CF93DF937C01CB018A012091300444
:102D5000222389F0EB016B01C40ED51ECC15DD05D5
:102D600069F06991D701ED91FC910190F081E02D1E
:102D7000C7010995F3CF642F0E944B16C801DF915C
:102D8000CF911F910F91FF90EF90DF90CF9008951A
:102D9000CF93DF931F92CDB7DEB7698320913004C4
:102DA0002223F9F020912D04203258F021E030E068
:102DB000FC013383228390E080E00F90DF91CF917C
:102DC000089580912E04E82FF0E0EB59FD4F998192
:102DD00090838F5F80932E0480932D0481E090E098
:102DE000ECCF61E0CE0101960E944B16F7CF209107
:102DF0002D0481E0213208F044C080911C03811130
:102E0000FCCF80912F0492E090931C0391E090936B
:102E10001B039FEF9093E80210920A03209309038B
:102E2000A5E6B2E0E9EEF2E090E0291331C010929D
:102E30000B0390910B03880F892B80930B038091D8
:102E40001A03813049F510921A0380910B03809385
:102E5000BB008091BC0083FDF8CF85EC8093BC0063
:102E600080911C038230E1F38091E8028F3FB1F042
:102E70008091E8028032A1F08091E802803391F0E5
:102E800084E010922E0410922D04109230040895C4
:102E90003D9131939F5FC9CF85EEE0CF80E0F1CFC8
:102EA00082E0EFCF83E0EDCFEF92FF920F931F937D
:102EB000CF93DF93EC01EC80FD806E157F050CF065
:102EC00070C057FF04C0240F351F50E040E08E81D2
:102ED0009F81FA01E20FF31F8E179F071CF49C01DC
:102EE000241B350B121613060CF05BC0922F842F97
:102EF0008695869586958E9DD0018F9DB00D112467
:102F00006A0F7B1FAE8DBF8DA60FB71F477049F1AB
:102F100088E0841B482F682F70E0FB01EC54FF4FC2
:102F2000E491281708F063C0621B71092FEF30E0AD
:102F300002C0359527956A95E2F7E2230130110525
:102F400039F0B0F10230110561F58C91E82702C02B
:102F50008C91E82BEC93941720F12C813D81A20FEA
:102F6000B31FE92FE41BE83078F00230110521F59A
:102F70008E2F9C9190959C932C813D81A20FB31F25
:102F800088508830B0F7E770EE2359F0F0E0E45550
:102F9000FF4FE49101301105F9F010F102301105F5
:102FA00019F1DF91CF911F910F91FF90EF9008954C
:102FB000E0958C91E823CECF81E00115110509F44D
:102FC00080E081959E2F8C932C813D81A20FB31FB1
:102FD00098509830C0F7D7CF8C91E82BEC93E1CF85
:102FE000E0958C91E823FACF8C91E827F7CF013058
:102FF000110509F4ADCFE0F20230110509F4A5CFB7
:10300000AE0DBF1DAECF0F931F93CF93DF9377FF0E
:1030100004C0260F371F70E060E0DC011496CD91EC
:10302000DC91FB01E20FF31FCE17DF071CF49E01BA
:10303000261B370B121613064CF5FA0157FD37966F
:10304000A3E0F595E795AA95E1F7EC9FD001ED9FF8
:10305000B00DFC9FB00D11246A0F7B1FDC015E9642
:10306000ED91FC91E60FF71F4770552781E090E046
:1030700001C0880F4A95EAF7482F0130110559F031
:10308000A8F02E0F3F1F02301105E1F0DF91CF9124
:103090001F910F9108952E0F3F1FE217F307B1F311
:1030A0008191DF011197842B8C93F7CF80952E0FA0
:1030B0003F1FE217F30751F39191DF011197982316
:1030C0009C93F7CFE217F30709F38191DF01119782
:1030D00084278C93F7CF0F931F93FA01DC01559649
:1030E0004C9155974230E9F04330A1F1413061F500
:1030F00014964D915C91DA01AE1BBF0BFD01E21BF2
:10310000F30B77FD0BC0DC0116964D915C916417B3
:10311000750724F4AB01BF010E9403181F910F91A2
:10312000089514964D915C91DA01A61BB70BBD0171
:1031300061507109DC0116964D915C91DA01AE1B6C
:10314000BF0BFD01E21BF30B77FDE8CFAF010E943F
:103150005417E4CF16964D915C91DA01A61BB70B7C
:10316000BD0161507109CDCF0F931F93FA01DC01AE
:1031700055964C9155974230A9F0433091F141302A
:1031800019F514964D915C91DA01AE1BBF0BFD0150
:103190003197F7FD04C0AB01BF010E9454171F9186
:1031A0000F91089514964D915C91DA01A61BB70B0F
:1031B000BD01DC0116964D915C91DA01AE1BBF0B8F
:1031C000FD013197621B730BF7FDE9CFDC01169609
:1031D0004D915C91E417F50714F7AF010E940318B5
:1031E000DECF16964D915C91DA01A61BB70BBD019F
:1031F000621B730BCECFFC0177FD64C08085918587
:10320000681779070CF05EC057FD5CC08285938516
:10321000481759070CF056C085898230B1F08330C9
:1032200029F1813041F484819581841B950BAB0198
:10323000BC01615071092130310509F108F443C026
:103240002230310509F463C0089584819581DC0141
:10325000A61BB70BBD016150710986819781DC0106
:10326000A41BB50BAD0141505109E5CF8681978173
:10327000861B970BBA01AC0141505109DCCFCA0142
:1032800057FD0796A3E095958795AA95E1F7A48148
:10329000B5818A9F90018B9F300D9A9F300D11242C
:1032A000620F731F068CF78DE02DE60FF71F477036
:1032B000552721E030E001C0220F4A95EAF78081CE
:1032C000822B80830895CA0157FD079633E09595B8
:1032D00087953A95E1F7A481B5818A9F90018B9FEC
:1032E000300D9A9F300D1124620F731F068CF78DDD
:1032F000E02DE60FF71F4770552781E090E001C0F1
:10330000880F4A95EAF7809590818923DACFCA0120
:1033100057FD079623E0959587952A95E1F7A481B7
:10332000B5818A9F90018B9F300D9A9F300D11249B
:10333000620F731F068CF78DE02DE60FF71F4770A5
:10334000552721E030E001C0220F4A95EAF780813D
:103350008227B7CF08958EBD00000DB407FEFDCFC4
:103360008EB50895FF920F931F93CF93DF93F82E9E
:10337000D92FC62F8091A0049091A104009709F441
:1033800052C02091A40431E03093300420932F04E4
:1033900010922E0410922D04DC01ED91FC9101900D
:1033A000F081E02D60E009950F2D1D2FD1E0FF2465
:1033B000F394C1508091A0049091A104CF3F61F19A
:1033C000D032C8F00E94F7168091A0049091A10419
:1033D0002091A404F092300420932F0410922E0424
:1033E00010922D04DC01ED91FC910190F081E02D13
:1033F00060E00995D1E08091A0049091A104F801CA
:103400006491DC01ED91FC910190F081E02D099532
:10341000DF5F0F5F1F4FCDCFDF91CF911F910F91D6
:10342000FF900C94F716E091B004F091B1049081F4
:103430008091B6048095892380830F2D1D2FC15064
:1034400008F438C0F801849120919E0430919F04C3
:10345000232B29F00E94AB190F5F1F4FF0CF28E0FC
:1034600030E040E8E091AC04F091AD049091B404F8
:10347000582F5423D9F05081952B9083E091AE04BE
:10348000F091AF0490815091B504952B9083E09119
:10349000AE04F091AF0450819091B50490959523BE
:1034A0009083469521503109E9F6D6CF5081909509
:1034B0009523E3CFDF91CF911F910F91FF90089556
:1034C0001F93CF93DF93EC018C8D9D8D009721F19D
:1034D000162F28A131E03093300420932F0410924E
:1034E0002E0410922D04DC01ED91FC910190F081ED
:1034F000E02D60E009958C8D9D8DDC01ED91FC91B6
:103500000190F081E02D612F09958C8D9D8DDF91CB
:10351000CF911F910C94F716ACA5BDA59C918AA9DB
:10352000809589238C938A8D9B8D892B31F0862FF2
:10353000DF91CF911F910C94AB1928E030E080E827
:10354000A8A5B9A598A9462F4823C1F04C91942B62
:103550009C93AAA5BBA59C9149A9942B9C93AAA531
:10356000BBA54C9199A9909594239C938695215045
:10357000310931F7DF91CF911F9108954C919095CA
:103580009423E6CF8CBD9DBD0895EF92FF920F93DB
:103590001F93CF93DF938091A0049091A104892B76
:1035A00009F493C02091BA043091BB044091BC044B
:1035B0005091BD0460E074E284EF90E00E94682FB7
:1035C000205131094109510956954795379527955D
:1035D0002093B80065E082EF93E10E94B2196091F8
:1035E0008804615084E894E00E94601A20918A0463
:1035F00030918B04C901079697FD079623E09595B6
:1036000087952A95E1F72091880430918904829F5B
:103610008001839F100D929F100D1124C091A20470
:10362000D091A3048091A0049091A1040C0F1D1FC0
:10363000009709F489C02091A40431E0309330044C
:1036400020932F0410922E0410922D04DC01ED9192
:10365000FC910190F081E02D60E40995FF24F39442
:10366000EE24E3948091A0049091A1040C171D070F
:1036700009F442C0BFE1BF15D0F40E94F716809153
:10368000A0049091A1042091A404E092300420931E
:103690002F0410922E0410922D04DC01ED91FC9168
:1036A0000190F081E02D60E40995FF24F39480916E
:1036B000A0049091A1046991DC01ED91FC9101902D
:1036C000F081E02D0995F394CDCF80919E049091E7
:1036D0009F04892B31F08091B8049091B9040E9425
:1036E000C21AE091B204F091B30490818091B704C2
:1036F0008095892380836ECF0E94F7168091A00465
:103700009091A104892B09F460C02091BE043091EE
:10371000BF044091C0045091C10460E074E284EFA2
:1037200090E00E94682F20513109410951095695B6
:103730004795379527952093B800DF91CF911F913A
:103740000F91FF90EF900895E091B004F091B104D3
:1037500080819091B604892B80830C171D0771F22C
:10376000899120919E0430919F04232B19F00E948F
:10377000AB19F3CF28E030E040E8E091AC04F091E1
:10378000AD049091B404582F5423D9F05081952B57
:103790009083E091AE04F091AF0490815091B50414
:1037A000952B9083E091AE04F091AF0450819091FD
:1037B000B504909595239083469521503109E9F6FB
:1037C000CCCF508190959523E3CFE091B204F09156
:1037D000B30480819091B704892B8083AECF1F936F
:1037E000CF93DF93EC01162F8C8D9D8D892BB1F13A
:1037F0002EA93FA948AD59AD60E074E284EF90E096
:103800000E94682F20513109410951095695479569
:10381000379527952093B80066EA111167EACE0123
:103820000E94601A8C8D9D8D892B41F12AAD3BAD94
:103830004CAD5DAD60E074E284EF90E00E94682FD3
:1038400020513109410951095695479537952795DA
:103850002093B800DF91CF911F9108958A8D9B8DA1
:10386000892B21F08CA99DA90E94C21AEEA5FFA563
:1038700090818BA9809589238083CECFEEA5FFA56B
:1038800080819BA9892B8083E5CF089590E080E01B
:103890000895DC01FB011A968C911A9781112EC0B4
:1038A000828581112BC0808191814D915C9111970E
:1038B00012962D913C911397240F351F8217930771
:1038C000ECF422813381820F931F48175907B4F417
:1038D0008481958114964D915C91159716962D9142
:1038E0003C91240F351F8217930744F426813781BA
:1038F000280F391F81E0421753070CF080E008952C
:10390000CF93C2E36FE770E08AE00E94D70E61E0D8
:1039100070E080E090E00E949C0F6FEF70E08AE022
:103920000E94D70EC15071F744E650E060E070E0AD
:1039300082E390E0CF910C94B40CCF93C09131040A
:1039400090E080E00E94202FC81729F06C2F90E0B3
:1039500080E00E94282FC091320481E090E00E9414
:10396000202FC81729F06C2F81E090E00E94282FAB
:1039700081E394E0CF91089520918A0430918B04E3
:10398000C901079697FD079623E0959587952A9597
:10399000E1F72091880430918904829FA001839FE0
:1039A000500D929F500D112470E060E08091A204B0
:1039B0009091A3040C9437328F929F92AF92BF9252
:1039C0000F931F93CF93DF93CDB7DEB7A1970FB6B9
:1039D000F894DEBF0FBECDBF19A2423008F44AE012
:1039E0008E010F5D1F4F842E912CB12CA12CA501AF
:1039F00094010E94682FE62FB901CA01EA3044F50C
:103A0000E05DD801EE938D01232B242B252B79F734
:103A100090E080E0109769F0FD0101900020E9F747
:103A20003197AF014A1B5B0BBD0184E894E00E9413
:103A3000B10BA1960FB6F894DEBF0FBECDBFDF91DC
:103A4000CF911F910F91BF90AF909F908F9008954D
:103A5000E95CD7CFFC0101900020E9F73197AF0175
:103A6000481B590BBC0184E894E00C94B10BFF9205
:103A70000F931F93CF93DF93EC01F62EFC0101907F
:103A80000020E9F73197E81BF90B04E814E086E021
:103A90008E9FB0018F9F700D11247695679590E0F1
:103AA00080E00E9441309B01AC0160E070E080E862
:103AB00092E40E94992F0E940B30F8017587648769
:103AC0006F2D70E077876687CE01DF91CF911F91D0
:103AD0000F91FF900C942A1D4F925F926F927F92EC
:103AE000AF92BF92CF92DF92EF92FF920F931F930C
:103AF000CF93DF9389E190E09093EE038093ED0301
:103B000088E090E09093F0038093EF0388E190E0E9
:103B10009093F2038093F10380E190E09093F4039B
:103B20008093F30381E090E09093F6038093F50394
:103B30001092F70383E08093F80310922003109211
:103B400000041092FF0384E690E09093FE038093BC
:103B5000FD0384EF91E09093FB038093FA031092AE
:103B6000F90381E08093FC038093040110921F030A
:103B70001092EC03E9E8F3E08CEE93E0A8E0B0E00B
:103B800062E070E046E050E022E0B383A2837783F6
:103B900066835187408722873B968E179F07A9F738
:103BA00010928803C5E2D3E080E8A82EB12C00E192
:103BB00010E092E3492E512C612C712C24E0C22E8E
:103BC000D12CE12CF12CB982A8821B830A830E949C
:103BD000C82EA30192010E94362F685F7F4F8F4F3E
:103BE0009F4F7D836C831F830E830E94C82EA70185
:103BF00096010E94362F6F5F7F4F8F4F9F4F7987BF
:103C000068871A862B9683E0C838D807E1F6DF91DB
:103C1000CF911F910F91FF90EF90DF90CF90BF90C9
:103C2000AF907F906F905F904F9008950E943232D6
:103C30001F920F920FB60F9211248F939F93809132
:103C4000E1009091E100937F9093E10083FF0FC02A
:103C50001092E90091E09093EB001092EC0092E357
:103C60009093ED001092160498E09093F00082FF7C
:103C700022C093E09093E9009091F200992319F00B
:103C80009AE39093E80090910704992341F0909172
:103C90000704915090930704911101C05D9A90918F
:103CA0001504992341F090911504915090931504B7
:103CB000911101C0289A84FF18C08091E2008E7E85
:103CC00081608093E2008091E1008F7E8093E1002B
:103CD000809108048E7E8061809308049F918F916B
:103CE0000F900FBE0F901F90189580FFF7CF809117
:103CF000E2008E7E80618093E2008091E1008E7E02
:103D00008093E100809108048E7E8160E5CF1F9250
:103D10000F920FB60F921124CF92DF92EF92FF9283
:103D20000F931F932F933F934F935F936F937F93C3
:103D30008F939F93AF93BF93EF93FF93CF93DF93B3
:103D4000CDB7DEB76C97DEBFCDBF1092E900809192
:103D5000E80083FF25C068E0CE0145960E94A40BD1
:103D600082EF8093E8008D8987FF39C09091E80049
:103D700090FFFCCF982F907609F034C19E894F892F
:103D8000588D2F89F88C911131C0803861F5809160
:103D900006048093F1001092F1008EEF8093E8000A
:103DA0006C960FB6F894DEBF0FBECDBFDF91CF91FA
:103DB000FF91EF91BF91AF919F918F917F916F9103
:103DC0005F914F913F912F911F910F91FF90EF9035
:103DD000DF90CF900F900FBE0F901F9018959EEF21
:103DE0009093E800C7CF1092F100D5CF913059F4ED
:103DF0008111D3CF4130510581F6809106048D7F2A
:103E000080930604CACF933049F48111C6CF413064
:103E1000510519F6809106048260F2CF953041F485
:103E20008091E80080FFFCCF20682093E300B5CFAD
:103E3000963009F0A9C00B8D1C8D22E01092E9008C
:103E40001092040410920304F2122EC01092020485
:103E5000109201040E94730B1F8299E09983FA82E9
:103E600091E09E8390EA98879AEF998720910304C6
:103E700030910404275F3F4F3C832B838D83109246
:103E8000E9001092040410920304109302040093BA
:103E9000010449E050E0BE016F5F7F4F80E00E9467
:103EA0004D0B0E94730B79CF109302040093010411
:103EB0000E948A0ADC0112960D911C9101151105D0
:103EC00009F451C1D801ED91FC910480F581E02DF8
:103ED000BE016B5E7F4FC8010995009709F03EC196
:103EE000F80100851185EACFF3E0FF120EC08F893B
:103EF000882309F440C0823061F440E860E181EE3B
:103F000093E10E947D22811148CF81E28093EB00F2
:103F100047CF813029F440E86BE085ED93E1F1CFA4
:103F2000833099F70E948A0ADC011296ED90FC908A
:103F30008E010F5F1F4F6801E114F10479F0D70182
:103F4000ED91FC910680F781E02DB801C70109953C
:103F5000080F111DF701E084F184EECFD8011C9207
:103F6000F60101900020E9F73197BF016C197D0936
:103F700040E0C601C6CF6FEB73E1FB01449150E016
:103F800080E80E944D0B09CF973009F4BECF9830DE
:103F900021F481E08093F10000CF993009F0FDCE4B
:103FA000837009F0B2CFEDE1F1E081E031E096E31A
:103FB0002191222371F08093E9003093EB00DF011F
:103FC00011972C912093EC009093ED008F5F873038
:103FD00079F78EE78093EA001092EA008F89809348
:103FE0001604DBCE8B8D9C8D1092E9001092040498
:103FF000109203049093020480930104898D81112F
:1040000092C08E899D89913A49F4813209F07DCF21
:1040100047E050E069E071E080E0B3CF913209F011
:1040200074CF833269F48F89988DB0E0A0E08093DB
:10403000050190930601A0930701B0930801ADCE4E
:10404000803269F48091E80082FFFCCF67E089E06C
:1040500091E00E94A40B8BEF8093E8009ECE823209
:1040600009F09BCE8F8980931001EEEFFFE78591D9
:1040700094918B3F9C4D51F1E0E0F8E08091090173
:1040800090910A01A0910B01B0910C01803B9440EA
:10409000A105B105F1F48091100180FD1AC0EE3F39
:1040A0008AE0F80789F587E797E791838083809115
:1040B00060008093050488E19BE00FB6F894A89512
:1040C000809360000FBE9093600067CEEEEFFAE041
:1040D000D5CF808191818737974709F05ECEA8952B
:1040E00080916000886180936000809105048093D6
:1040F0006000EE3F2AE0F20789F08091FE0A90917D
:10410000FF0A9183808349CE808191818737980708
:1041100051F29093FF0A8093FE0AC5CF1092FF0AD6
:104120001092FE0A3ACE0E948A0ADC0112960D9184
:104130001C910115110509F4E8CED801ED91FC910F
:104140000190F081E02DBE016B5E7F4FC8010995A3
:10415000811123CEF80100851185EBCF18161906C1
:104160000CF41BCED2CEF1E0FF12BECE63EC73E1B5
:1041700004CF1F920F920FB60F9211248F939F932B
:10418000AF93BF93EF93FF9380912104909122040A
:10419000A0912304B0912404892B8A2B8B2BA1F1AD
:1041A00090911804E0911904F0911A0480818927F4
:1041B00080838091210490912204A0912304B091E6
:1041C0002404181619061A061B069CF48091210473
:1041D00090912204A0912304B09124040197A10995
:1041E000B1098093210490932204A0932304B093F7
:1041F0002404FF91EF91BF91AF919F918F910F9008
:104200000FBE0F901F901895809171008D7F809345
:10421000710080911804E0911904F0911A049081C2
:10422000809589238083E5CF1F920F920FB60F925E
:1042300011242F933F938F939F93AF93BF938091BC
:104240000D0390910E03A0910F03B09110033091D4
:104250000C0323E0230F2D3758F50196A11DB11D46
:1042600020930C0380930D0390930E03A0930F03F0
:10427000B09310038091110390911203A091130346
:10428000B09114030196A11DB11D80931103909369
:104290001203A0931303B0931403BF91AF919F91A6
:1042A0008F913F912F910F900FBE0F901F901895F7
:1042B00026E8230F0296A11DB11DD2CF1F920F92A7
:1042C0000FB60F9211242F933F934F935F936F93E9
:1042D0007F938F939F93AF93BF93EF93FF938091BF
:1042E000B900887F803609F44AC0F0F5883209F4B5
:1042F000A7C018F5803109F49BC0B8F4882309F4ED
:10430000F9C0883009F494C0FF91EF91BF91AF914B
:104310009F918F917F916F915F914F913F912F91DD
:104320000F900FBE0F901F901895883109F488C028
:10433000803251F78093E80214C0803409F49DC0A4
:1043400040F48033B9F38833F9F68093E80285ECC2
:10435000B0C0803509F485C0883509F496C088342A
:1043600099F60E944116D0CF883909F48CC038F5EF
:10437000883729F050F4883611F0803729F683E029
:1043800080931C031092E70257C0883809F47BC061
:10439000803919F0803809F0B7CF8091E702803278
:1043A00008F071C0E091E70281E08E0F8093E70290
:1043B0008091BB00F0E0E953FD4F80833DC0803B1E
:1043C00039F0E0F4803A09F479C0883A09F09CCFDA
:1043D00084E080931C031092C6021092C502E09103
:1043E0001803F091190309958091C50281110FC03E
:1043F00081E08093C5021092A50209C0803C09F4B7
:10440000A6CF883C09F4A3CF883B09F07DCFE0918B
:10441000C60281E08E0F8093C602F0E0EB55FD4F9F
:1044200080818093BB009091C6028091C50229C013
:1044300080910B038093BB0085EC8093BC0064CF1C
:1044400090910A0380910903981758F5E0910A03A7
:1044500081E08E0F80930A03F0E0E751FD4F8081E9
:10446000E9CFE0910A0381E08E0F80930A038091E7
:10447000BB00F0E0E751FD4F808390910A038091EB
:1044800009039817C8F285E8D8CFE0910A0381E0C4
:104490008E0F80930A038091BB00F0E0E751FD4F3F
:1044A000808380911B0381115CCF81E080931A038C
:1044B00084EA8093BC0010921C0326CF85EC809385
:1044C000BC0010921C038091E702803230F4E0912E
:1044D000E702F0E0E953FD4F10826091E70270E0DF
:1044E000E0911603F091170387EC92E00995109282
:1044F000E7020ACF1092E80234CFEF92FF920F93B7
:104500001F93CF93DF93F82E192FE62E042F81E00F
:10451000860F880F0E941F0B83E00E941F0BCF2D78
:10452000D12FEC0EFD2EF11CCE15DF05B9F007FFE3
:1045300013C0FE0184910E941F0B182F80E00E947F
:104540001F0B812321968111EFCFDF91CF911F9116
:104550000F91FF90EF9008958881EDCF81E0F5CF26
:10456000E3E3F4E01382128288EE93E0A0E0B0E08F
:1045700084839583A683B78387E291E091838083C8
:104580002FEF3FEF35872487E4E8F4E013821282AF
:1045900040E850E05583448380E490E0978386832D
:1045A0005187408793878287158A158614861786D8
:1045B000168681E0848B338B228B318B208B868B0C
:1045C000178A118E108E29E331E03183208323E88E
:1045D00034E0338F228F158E148E178E168E9FEF38
:1045E00093A394A394E095A39CE096A396E097A34D
:1045F00090E594AB85AB0895CF93DF93CDB7DEB74D
:1046000065970FB6F894DEBF0FBECDBF789484B522
:10461000826084BD84B5816084BD85B5826085BDBE
:1046200085B5816085BD80916E00816080936E004C
:10463000109281008091810082608093810080913E
:1046400081008160809381008091800081608093EF
:104650008000809191008260809391008091910010
:1046600081608093910080919000816080939000A0
:104670008091C10084608093C1008091C1008260FC
:104680008093C1008091C10081608093C1008091BE
:10469000C30081608093C3008091C00082608093DA
:1046A000C0008091C20081608093C20080917A0036
:1046B000846080937A0080917A00826080937A008F
:1046C00080917A00816080937A0080917A0080687E
:1046D00080937A0010921604109206041092080437
:1046E0008091D70081608093D70080EA8093D800C2
:1046F00089B5806189BD89B5826089BD09B400FE34
:10470000FDCF61E070E080E090E00E949C0F80911E
:10471000D8008F7C80618093D8008091E000807FFA
:104720008093E0008091E1008E7E8093E1008DE037
:104730008093E200559A209A8091A2049091A3045C
:10474000892B39F10E94BC1C80918A0490918B04C2
:104750006091880470918904813291050CF034C312
:10476000AC014052510957FF02C04F5F5F4F559552
:1047700047956357710977FF02C06F5F7F4F75954B
:104780006795F0E2EF2EF12C03E710E023E136E02D
:1047900033C320918A0430918B04C901079697FD99
:1047A000079623E0959587952A95E1F7209188044F
:1047B00030918904AC01429FC001439F900D529FEC
:1047C000900D11240E940D319093A3048093A204B4
:1047D000892B09F0B7CF81E08093980481E090E0C5
:1047E00090939704809396049093950480939404F7
:1047F00062E082E10E94830C62E083E10E94830C0C
:1048000062E084E10E94830C62E085E10E94830CF7
:1048100062E086E10E94830C62E087E00E94830CE4
:1048200062E088E00E94830C61E08AE00E94830CD1
:1048300061E08BE00E94830C61E085E00E94830CC4
:104840006FEF70E089E00E94D70E6FEF70E08AE0B2
:104850000E94D70E6FEF70E08BE00E94D70E0E948F
:104860006C1D90E080E00E94202F8093310481E055
:1048700090E00E94202F8093320480913104909127
:104880003204019631F410923204109231040E94E5
:104890009D1CCE0101961C01CC24C394D12C809187
:1048A0000401882309F459C0E9E09E2EF2E06F2E3E
:1048B00008E210E0AAE0EA2EF12CB4E1AB2EB12C14
:1048C0008824839479E1772E0E94BC1C609298041E
:1048D000D0929704C0929604D0929504C09294040A
:1048E0001093910400939004F0929304E092920448
:1048F00081E691E00E942A1DB0929104A09290045A
:10490000109393040093920486E691E00E942A1D7E
:104910000E94C51A809298046FED70E0892D0E9464
:10492000D70E64E670E080E090E00E949C0F88E083
:104930000E942C0C811162C46FEF70E089E00E942C
:10494000D70E6FEF70E08AE00E94D70E6FEF70E035
:104950008BE00E94D70E109204012091FD0330914C
:10496000FE038091FF0390910004B9010E94F3308F
:10497000892B09F043C18091FC03882309F43EC1CF
:10498000809120038F5F8A3008F0F3C48093200366
:104990008091EC038F5F8A3008F0EDC48093EC03C4
:1049A000809188038F5F8A3008F0E7C48093880382
:1049B0001092FC0310912003123008F4E0C4220F7F
:1049C000331F3093FE032093FD03EAE04E2EF9E0FF
:1049D0005F2E0DE210E0AAE0EA2EF12CB0E46B2E7F
:1049E000712C88E2A82EB12C9CE3892E912C0E9478
:1049F000BC1CA2E0A0939804D0929704C0929604A5
:104A0000D0929504C0929404109391040093900462
:104A1000F0929304E092920488EE91E00E942A1DA5
:104A20007092910460929004B0929304A0929204C8
:104A30006091200370E090E080E04AE00E94DC1C7E
:104A40000E94C51AB1E0B09398046FED70E0852D17
:104A50000E94D70E64E670E080E090E00E949C0F18
:104A60006FEF70E089E00E94D70E6FEF70E08AE090
:104A70000E94D70E6FEF70E08BE00E94D70E0E946D
:104A8000BC1CE2E0E093980461E070E084E894E00C
:104A90000E941E141092970410929604109295048E
:104AA000109294041093910400939004F092930454
:104AB000E092920488EE91E00E942A1D9092910467
:104AC00080929004B0929304A0929204609120038B
:104AD00070E090E080E04AE00E94DC1C0E94C51A71
:104AE000F1E0F09398046FEF70E0852D0E94D70EEF
:104AF00064E670E080E090E00E949C0F53942BE00D
:104B0000251510F479E0572E6FEF70E089E00E94D0
:104B1000D70E6FEF70E08AE00E94D70E6FEF70E063
:104B20008BE00E94D70E4A94411061CF8091200300
:104B3000893009F063C06EECA62EBB24BA94992488
:104B40009394882483940E94BC1C31E0831609F45A
:104B50003AC442E0841609F44EC420E1E22EF12C5E
:104B600000E110E023ED3AE044E150E0B50184E8D3
:104B700094E00E9421150E94C51A6AE070E080E06E
:104B800090E00E949C0F9FEFA91AB90AACE8AA1600
:104B9000B104C9F668EE73E080E090E00E949C0FDB
:104BA0000E94BC1CB1E08B1609F43CC4E2E08E16F6
:104BB00009F450C410E1E12EF12C00E110E023EDE6
:104BC0003AE044E150E0B50184E894E00E94211508
:104BD0000E94C51A6AE070E080E090E00E949C0F9D
:104BE00031E0A31AB1084EECA4164FEFB406C1F69B
:104BF00068EE73E080E090E00E949C0F8091FF03DC
:104C0000909100046091FA037091FB030E94F330CD
:104C1000892B51F58091F903882331F102E319E0E2
:104C20006FE770E0812F0E94D70E61E070E080E0B6
:104C300090E00E949C0F6FEF70E0812F0E94D70ED2
:104C40004AE050E060E070E088EC90E00E94B40C34
:104C50001F5F1C3029F7015011F78091F8038F5F17
:104C60008093F8031092F9038091F703823071F476
:104C700089E190E09093EE038093ED0388E190E06A
:104C80009093F2038093F1031092F70382E10E9464
:104C90002C0C892B69F48091F1039091F203049715
:104CA000883091050CF4EDC39093F2038093F103E7
:104CB00085E10E942C0C892B69F48091F10390917D
:104CC000F2030496813391050CF0DEC39093F20356
:104CD0008093F10384E10E942C0C892B59F480917C
:104CE000ED039091EE03049797FDD1C39093EE03EB
:104CF0008093ED0383E10E942C0C892B69F4809151
:104D0000ED039091EE030496813891050CF0C2C337
:104D10009093EE038093ED0387E00E942C0C10919A
:104D2000EC03892BD9F580911F035BE0859FF0018F
:104D30001124E757FC4F9285923081F5128620911D
:104D4000ED033091EE03318320832091F103309104
:104D5000F203285F3F4F358324838F5F811708F06C
:104D60009EC380931F0302E36FE770E08BE00E9415
:104D7000D70E61E070E080E090E00E949C0F6FEF42
:104D800070E08BE00E94D70E015071F744E650E0CE
:104D900060E070E08EEE92E00E94B40CE9E8F3E08F
:104DA00020E032E0121709F47DC38285811109C029
:104DB00080819181069691838083813891050CF0E2
:104DC00032872F5F3B96EECFAC014054510957FF1D
:104DD00002C04F5F5F4F559547956255710977FF48
:104DE00002C06F5F7F4F7595679510E4E12EF12C3F
:104DF00002E510E023EF37E084E894E00E942115FB
:104E000082E08093A5048091A0049091A104892B55
:104E100009F4E9C080918A0490918B04809709F08D
:104E2000E0C08CE38093A40410921E0310921D0333
:104E300010922E0410922D0410921C0381E0809396
:104E40001B0310921A0361E082E00E94550C61E09E
:104E500083E00E94550C8091B9008E7F8093B90049
:104E60008091B9008D7F8093B90088E48093B80069
:104E700085E48093BC008EED9BE0909319038093B2
:104E800018038FED9BE09093170380931603809196
:104E9000AB0487FD1EC061E00E94830C61E080913D
:104EA000AB040E94550C61E070E080E090E00E944D
:104EB0009C0F60E08091AB040E94550C6AE070E0AA
:104EC00080E090E00E949C0F61E08091AB040E9422
:104ED000550C8091A0049091A104892B09F442C142
:104EE0002091BA043091BB044091BC045091BD04A0
:104EF00060E074E284EF90E00E94682F2051310955
:104F00004109510956954795379527952093B80043
:104F100064E08FE096E00E94B21960918A046150CB
:104F200084E894E00E94601A64E08BE096E00E94BE
:104F3000B2198091A50460E1813009F064E184E850
:104F400094E00E94601A64E087E096E00E94B21943
:104F500080918804909189048038910509F02DC1D1
:104F600080918A0490918B048032910509F011C1DF
:104F700064E083E096E00E94B21969ED84E894E071
:104F80000E94601A8091A50462E2813009F061EF0D
:104F900084E894E00E94601A66E087EF95E00E9442
:104FA000B2198091A0049091A104892B09F41CC12D
:104FB0002091BE043091BF044091C0045091C104BF
:104FC00060E074E284EF90E00E94682F2051310984
:104FD0004109510956954795379527952093B80073
:104FE000FACB8DE31FCF61E08091A9040E94830C6E
:104FF00061E08091AA040E94830C8091A904082E8C
:10500000000C990BFC01EC5DFB4EE491F0E0EE0F1F
:10501000FF1FEA5EFB4E259134913093B10420933B
:10502000B004FC01E950FC4EE491E093B604809199
:10503000AA04082E000C990BFC01EC5DFB4EE491D8
:10504000F0E0EE0FFF1FEA5EFB4EA591B491B09326
:10505000B304A093B204FC01E950FC4EE491E09348
:10506000B7048C91E82BEC9380919E0490919F045F
:10507000892B09F434C01FB7F8948091150381116E
:1050800027C0E5E3F4E18491E8E0F4E19491E82FAE
:10509000F0E0EE0FFF1FE751FA4FA591B491EC91AC
:1050A000E92321F461E081E10E94550C61E081E196
:1050B0000E94830C8CB580618CBD8CB580648CBDE6
:1050C00061E08FE00E94830C61E080E10E94830C2C
:1050D000809115038F5F809315031FBFD8CE61E0C9
:1050E0008091A7040E94830C61E08091A8040E9433
:1050F000830C8091A704082E000C990BFC01EC5D39
:10510000FB4EE491F0E0EE0FFF1FEA5EFB4E2591AF
:1051100034913093AD042093AC04FC01E950FC4E73
:10512000E491E093B4048091A804082E000C990B3C
:10513000FC01EC5DFB4EE491F0E0EE0FFF1FEA5E38
:10514000FB4EA591B491B093AF04A093AE04FC01C3
:10515000E950FC4EE491E093B5048C91E095E8238E
:10516000EC9395CE80919E0490919F04892B31F011
:105170008091B8049091B9040E94C21AE091B204DF
:10518000F091B30490818091B70480958923808346
:10519000BFCE8034910509F0F0CE63E080E096E068
:1051A0000E94B2198091A5046FE9813009F06FEC7B
:1051B00084E894E00E94601AE0CE8036910509F000
:1051C000DCCE80918A0490918B04409709F0D5CE73
:1051D00063E08DEF95E00E94B2198091A50460E133
:1051E000813031F36FEAE4CFE091B204F091B3047F
:1051F00080819091B704892B8083EDCA0E94BC1CEA
:105200006092980461E070E084E894E00E941E14CB
:1052100010929704109296041092950410929404A0
:105220001093910400939004F0929304E0929204FE
:1052300081E691E00E942A1DB0929104A092900410
:10524000109393040093920486E691E00E942A1D35
:105250000E94C51A809298046FEF70E0892D0E9419
:10526000D70E64E670E080E090E00E949C0F93947B
:105270009BE0991510F469E0962E88E00E942C0CB2
:10528000882309F459CB7A9471101ECB59E1752EFD
:105290000E94BC1CD0929704C0929604D0929504B0
:1052A000C09294048092980464E08FE691E00E949A
:1052B000371D60E18DE791E00E94371D6CE18CE8BD
:1052C00091E00E94371D66E280EA91E00E94371D5E
:1052D00064E381EB91E00E94371D0E94C51A6FEDD7
:1052E00070E089E00E94D70E6FED70E08AE00E94C6
:1052F000D70E6FED70E08BE00E94D70E64E670E091
:1053000080E090E00E949C0F88E00E942C0C8111AC
:1053100010C06FEF70E089E00E94D70E6FEF70E071
:105320008AE00E94D70E6FEF70E08BE00E94D70EEC
:1053300003CB0E94C51A6FEF70E089E00E94D70E80
:105340006FEF70E08AE00E94D70E6FEF70E08BE0A5
:105350000E94D70E64E670E080E090E00E949C0F0F
:1053600088E00E942C0C8823A1F27A94711090CFCF
:10537000A9CA89E00BCB89E011CB89E017CB1130AA
:1053800009F023CB0E94BC1CD0929704C0929604D3
:10539000D0929504C09294041093980469E186EC2D
:1053A00091E00E94371D68E285ED91E00E94371D73
:1053B0000E94C51A68EB7BE080E090E00E949C0FA1
:1053C0000E94BC1C02CB50E1E52EF12C00E110E064
:1053D00023E13BE044E150E0B501625E7F4F84E8A9
:1053E00094E00E94211593945AE09512B6CB32E0D6
:1053F000832E912CB2CB40E1E42EF12C00E110E0A1
:1054000023EF3AE044E150E0B501625E7F4F84E86B
:1054100094E00E94211593948AE098129ECB8824F0
:105420008394E7CF90E1E92EF12C00E110E023E135
:105430003BE044E150E0B501625E7F4F84E894E0D8
:105440000E9421159394FAE09F12B4CB02E0802EC3
:10545000912CB0CB80E1E82EF12C00E110E023EBA1
:105460003AE044E150E0B501625E7F4F84E894E0A9
:105470000E94211593942AE092129CCB8824839455
:10548000E7CF88E090E010CC80E390E01FCC80E88C
:1054900090E02CCC1092EE031092ED033DCC1092D4
:1054A0001F0361CCF12CFBE0EF2EA0E8AA2EB12C5B
:1054B000B2E07B2E6624639490908803F91408F17F
:1054C000E5E2EE2EE3E0FE2E00E0BB24B394109163
:1054D000F803091509F498C0B7018DEE93E00E9416
:1054E000491C882349F0B092F70311501093F80338
:1054F000F701B2860E94801C0F5FFBE0EF0EF11CEB
:10550000E6CF8F2C912CE89C8001E99C100D112492
:105510000B5D1C4FD8011A968C911A97823021F599
:10552000AD92BC920E94C82E28E230E040E050E0EC
:105530000E94362F685F7F4F8F4F9F4FF801758312
:1055400064830E94C82E24E030E040E050E00E94D6
:10555000362F6F5F7F4F8F4F9F4FD80119967C93E7
:105560006E9318971A961C92E89CF001E99CF00D36
:105570001124EB5DFC4F8285813009F47286E89C32
:105580008001E99C100D11240B5D1C4FF8018285F0
:1055900081110AC08081918120853185821B930B06
:1055A00097FD04C091838083F39486CFB182A0825B
:1055B0000E94C82E28E230E040E050E00E94362FE2
:1055C000685F7F4F8F4F9F4FF801758364830E9400
:1055D000C82E24E030E040E050E00E94362F6F5F9C
:1055E0007F4F8F4F9F4FD80119967C936E931897DA
:1055F0001A967C926092F7038091F8038150809311
:10560000F8030E94801CD0CF00E066246394809150
:10561000EC03081708F058C02BE0029FC0011124CA
:10562000AC0147575C4F5A0175E2E72E73E0F72E45
:10563000812C2A015AE0450E511C891409F442C0FC
:10564000B701C5010E94491C8823B9F18091FF036D
:1056500090910004E2E0D201EC93E1E0D7011A96C8
:10566000EC930A96909300048093FF031B3014F48C
:105670006092F90380912003893010F46092FC035A
:1056800062E3762E6FE770E089E00E94D70E61E05A
:1056900070E080E090E00E949C0F6FEF70E089E086
:1056A0000E94D70E7A947110EDCF44E650E060E08E
:1056B00070E082E390E00E94B40C8394FBE0EF0E74
:1056C000F11CBBCF0F5FA3CF17FFE6C00091FF0314
:1056D0001091000464EF71E080E090E00E949C0F64
:1056E00080913104909132048017910730F4109327
:1056F0003204009331040E949D1C772473943EE190
:10570000832E912C4CE1A42EB12C53E2E52EF12CEA
:105710000CE210E00E94BC1C70929804D092970496
:10572000C0929604D0929504C09294046CE08DEEE1
:1057300091E00E94371D9092910480929004B09263
:105740009304A092920487EF91E00E942A1D609139
:10575000FF037091000490E080E04AE00E94DC1CAE
:10576000F0929104E09290041093930400939204B9
:105770008FEF91E00E942A1D6091310470913204F4
:1057800090E080E04AE00E94DC1C0E94C51A88E09C
:105790000E942C0C8111BECF10E07724739484E119
:1057A000E82EF12C9AE0A92EB12C28E2822E912C21
:1057B00086E10E942C0C84E10E942C0C082F83E1CE
:1057C0000E942C0C002309F434C2882309F433C24C
:1057D000113009F030C2D0929704C0929604D09252
:1057E0009504C0929404709298042CE030E03093B9
:1057F000910420939004109293041092920486E0F6
:1058000092E00E942A1D40E250E0509391044093A0
:105810009004F0929304E092920488E192E00E9456
:105820002A1D01E010E021E130E04EE150E060E2AD
:1058300070E084E894E00E94B418B0929104A092C1
:105840009004909293048092920483E292E00E94EA
:105850002A1D8CE090E09093910480939004A6E33D
:10586000B0E0B0939304A093920486E392E00E9488
:105870002A1D0E94C51A10923204109231040E940F
:105880009D1C11E086E10E942C0C082F0E94BC1C7C
:1058900001118ECF0E946C1D0E94BC1C10929104BD
:1058A00010929004109293041092920481E08093DD
:1058B0009804D0929704C0929604D0929504C09216
:1058C00094048091FF03909100048A30910580F444
:1058D0009F938F9388E492E09F938F933F922F92B0
:1058E0000E943E320F900F900F900F900F900F90EC
:1058F0008091FF03909100049C012A5031092A35C0
:10590000310580F49F938F9389E492E09F938F9366
:105910003F922F920E943E320F900F900F900F9067
:105920000F900F908091FF03909100049C012456EA
:1059300031092438334080F49F938F938AE492E0B6
:105940009F938F933F922F920E943E320F900F9021
:105950000F900F900F900F908091FF039091000493
:10596000883EB3E09B0780F09F938F938BE492E097
:105970009F938F933F922F920E943E320F900F90F1
:105980000F900F900F900F908091FF039091000463
:105990008031E7E29E0780F09F938F938CE492E042
:1059A0009F938F933F922F920E943E320F900F90C1
:1059B0000F900F900F900F90C1010E942A1DB12CE3
:1059C00006E0A02E8091F803082E000C990BB81663
:1059D000190694F4BA9CB001112418E0E12EF12CC0
:1059E00004E010E025E733E150E040E084E894E093
:1059F0000E942115B394E6CF8091F703811113C063
:105A00004091F1035091F2036091ED037091EE0328
:105A1000B0E1EB2EF12C08E010E025E633E184E85C
:105A200094E00E9421158091F7038130B1F44091F8
:105A3000F1035091F2036091ED037091EE03A8E041
:105A4000EA2EF12C00E110E025E533E184E894E052
:105A50000E94211582E08093F703B12CFBE0AF2E6A
:105A60008091EC03B816C8F4AB9CF0011124E75701
:105A7000FC4F828581110FC0448155816081718105
:105A8000E2E0EE2EF12C08E010E023E533E184E8BB
:105A900094E00E942115B394E3CF912C4BE0842E27
:105AA000809188039816B0F5A92CB12C8A9CF0013E
:105AB0008B9CF00D1124EB5DFC4F828581110FC092
:105AC000448155816081718130E1E32EF12C00E148
:105AD00010E023E333E184E894E00E9421158A9CDE
