:100000000C94FE090C94260A0C94260A0C94260AD9
:100010000C94260A0C94260A0C94260A0C94260AA0
:100020000C94260A0C94260A0C9439150C94AB15E2
:100030000C94260A0C94260A0C94260A0C94260A80
:100040000C94260A0C94260A0C94260A0C94260A70
:100050000C94260A0C94260A0C94260A0C946B1114
:100060000C94260A0C94260A0C94260A0C94260A50
:100070000C94260A0C94260A0C94260A0C94260A40
:100080000C9468200C94260A0C94260A0C94260AD8
:100090000C947D120C94260A0C94260A0C94260AC1
:1000A0000C94260A0C94260A0C94260A400A430A49
:1000B000320A360A3C0A640A640A640A470A4B0A8E
:1000C0004F0A550A590A640A5F0AC010C510CA10BF
:1000D000D410DE10281128112811E810F210FC109D
:1000E0000611131128111B11000000002300260027
:1000F00029002C002F000000000200090F0000035F
:100100000401000C000000000000000000000000DE
:10011000000000000000000000240027002A002D3D
:10012000003000DB40A4A62EAFDA0281DA1281DAB9
:1001300002818F2000A1C8D300408DAED580A800D9
:10014000006000000000000000000000000000004F
:10015000E00000000000000000000000000001E0DE
:100160000000000000000000000000000001F0009E
:1001700000000000000000000000000003F000008C
:10018000000000000000000000000007F000000078
:100190000000000000000000000007F80000000060
:1001A0000000000000000000000FF800000003C085
:1001B000007E000001E0007F0FF800000003C00097
:1001C000FE000001E000FFEFF800000003C000FEA9
:1001D000000001E000FFFFF800000003C000F00095
:1001E00000000F007FFE7FC0000003C000F0000091
:1001F000000F003FFE7FF83FF1FBCFFCFEF3BC3D5C
:10020000EFE01FFE7FFF7FFBFFDFFEFEFFBC3DEF49
:10021000E01FC6FFFF7FFBFFDFFEFEFFBC3DEFE000
:100220000FE3C7FE787BC3DE1EF0FFBC3DEF000787
:10023000FF87FC787BC3DE1EF0F83C3DEF0001FF3A
:10024000FFF0007BC3C01EF0F03C3DEF0001F37FE8
:10025000E03FFBC3CFFEF0F03C3DEF0003E33F8007
:100260007FFBC3DFFEF0F03C3DEF0007E73C00788A
:100270007BC3DE1EF0F03C3DEF0007FFBE00787B45
:10028000C3DE1EF0F03C3DEF0007FFFE00787BC3AD
:10029000DE1EF0F03C3DEF000FFFFE007FFBFFDFB6
:1002A000FEF0F03FFDEFE00FFFFF007FFBFFDFFE02
:1002B000F0F03FFDEFE00FF9FF003E79F9CF9EF03F
:1002C000F01F3DE7E01FF1FF00000000000000000C
:1002D000000000001F80FF007FFFFFFFFFFFFFFF08
:1002E000FFFFE01C007F007FFFFFFFFEB46D888DE5
:1002F00018E000001F007FFFFFFFFE95AD7DB57782
:10030000E000000F007FFFFFFFFEA5AD9D8D19E00F
:10031000000006007FFFFFFFFEB5ADEDB57EE000FB
:100320000000000001800000000000000000000349
:100330008000000000000000000007C00000000076
:10034000000000000007C0000000000000000000E6
:100350000FC00000000000000000001FE0000000CF
:100360000000000000001FE000000000000000008E
:10037000003FE00000000000000000003FF000002F
:10038000000000000000007FF000000000000000FE
:100390001FF87FF0000000000000003FFE7FF0002B
:1003A0000000000000003FFF7FF0000000000000A0
:1003B000001FFFFBE0000000000000000FFFF9FF3E
:1003C000C00000000000000FFFF9FFF8000000006F
:1003D000000007FFF1FFFF00000000000003FC73B6
:1003E000FFFF80000000000001FE3FFFFF800000D3
:1003F00000000000FF1E0FFF000000000000007F53
:10040000FE1FFC000000000000003FFFFFF800009E
:1004100000000000000FDFFFE0000000000000000F
:100420001F19FFC0000000000000003F3CFF00005B
:100430000000000000007E7CF800000000000000CA
:10044000007FFE7C0000000000000000FFFFFC00B9
:1004500000000000000000FFFFFE000000000000A0
:100460000000FFFFFE0000000000000001FFEFFEA3
:100470000000000000000001FFCFFE0000000000AF
:10048000000003FF07FE0000000000000003FC075F
:10049000FE0000000000000003F003FE000000006A
:1004A000000000018000FE000000000000000000CD
:1004B000007E000000000000000000003E00000080
:1004C000000000000000000C000000000000078099
:1004D00000FC000003C0000000078001FC000003D6
:1004E000C0000000078001FC000003C000000007FE
:1004F0008001E00000001E000000078001E0000015
:10050000001E007FE3F79FF9FDE7787BDFC0FFF770
:10051000FFBFFDFDFF787BDFC0FFF7FFBFFDFDFFE5
:10052000787BDFC0F0F787BC3DE1FF787BDE00F031
:10053000F787BC3DE1F0787BDE0000F787803DE186
:10054000E0787BDE007FF7879FFDE1E0787BDE00CF
:10055000FFF787BFFDE1E0787BDE00F0F787BC3D69
:10056000E1E0787BDE00F0F787BC3DE1E0787BDE00
:1005700000F0F787BC3DE1E0787BDE00FFF7FFBFCE
:10058000FDE1E07FFBDFC0FFF7FFBFFDE1E07FFBA8
:10059000DFC07CF3F39F3DE1E03E7BCFC000000075
:1005A0000000000000000000FFFFFFFFFFFFFFFF53
:1005B000FFFFC0FFFFFFFFFD68DB111A31C0FFFF27
:1005C000FFFFFD2B5AFB6AEFC0FFFFFFFFFD4B5BF8
:1005D0003B1A33C0FFFFFFFFFD6B5BDB6AFDC00012
:1005E00000000000000000000000000000000020EB
:1005F00000080000000000000000000000000000F3
:1006000000000000000008000000000000000000E2
:100610000000000280000000100000000000200028
:100620000000000EA000000000000000000000001C
:100630000000003A00000000000000000000000080
:10064000000000550800000000000000000000004D
:100650000000007440000000000010004000000096
:10066000020000D000800000000000000000000038
:10067000000040EA800000000000000000000000D0
:10068000000000A0000000000000000000000000CA
:10069000000000D008800000000000000000000002
:1006A000000000A4000000000000000000000000A6
:1006B000000000C00A000000000000000040000030
:1006C0000000004821000000000000080000200099
:1006D0000000004004000040000000000000000096
:1006E00000000020000000000000000000000000EA
:1006F000000000081200000000044000000000009C
:100700000000000000000000005BB40000000000DA
:100710000000000540000000017D5A80000000003C
:10072000080000000000000003EB4940000000004A
:1007300000000000000000000BBAA414000000003C
:1007400000000000000000002ED5510000800000D5
:1007500000000000000000001B6A044400000000CC
:100760000000000000000000FFB550010000000084
:1007700000000000000000016AAA02204000000002
:100780000000000000000002DD55400400000000F1
:100790000000000000000003F548110020000000E8
:1007A0000000002000000006B6A284200000000027
:1007B000000400000000000FEA90400090000000DC
:1007C000000000000000800DBAA4200204400000D8
:1007D0000000000000000007EA810088400000409F
:1007E000000000000000001EAA28082004000000ED
:1007F000000000000000003BB481228000004000A7
:10080000000000000000002ED2104800020000008E
:100810000000000000000037594500000000000003
:10082000000080000000001AC42800000200000040
:10083000000000000000002F75428004000000004E
:10084000001084000000003AA800101042000000D0
:10085000000000000000003FA52400400000000050
:10086000020490000000006A5000400004000000F4
:100870000002A0000000003D888900020200000084
:100880000000800000000035620001080000000048
:100890000057F5000000005A882000204A000000A0
:1008A0000000800000000036A08000020000000070
:1008B0000002A0000000002D120002110A0000003A
:1008C000000490000000001AC00000444400020030
:1008D000000000000000002D290400022804000090
:1008E0000010840000000015002008211000000105
:1008F000000000000040000CAA000108A800000051
:10090000000080000000000A800010044000000089
:10091000000000000000000551000221300000002E
:10092000000040000000000A0421081440000000FC
:100930000000000000000005508000414000000061
:100940000000000000000001220000008000000004
:10095000000000000000000280000209000000000A
:10096000000000000000000050882022020000006B
:1009700000000000000000008400000200000000F1
:1009800000020000000000001000008800040000C9
:10099000000000000000000009000020000000022C
:1009A00000000000000008000248040000000000F1
:1009B0000000000000000000008241000000000074
:1009C0000000000000000000001114000000000002
:1009D00000000000004000000000000000000000D7
:1009E00000000000000000000000000000000020E7
:1009F00000080000000000000000000000000000EF
:100A000000000000000008000000000000000000DE
:100A10000000000280000000100000000000200024
:100A20000000000EA0000000000000000000000018
:100A30000000003A0000000000000000000000007C
:100A40000000005508000000000000000000000049
:100A50000000007440000000000010004000000092
:100A6000020000D000800000000000000000000034
:100A7000000040EA800000000000000000000000CC
:100A8000000000A0000000000000000000000000C6
:100A9000000000D0088000000000000000000000FE
:100AA000000000A4000000000000000000000000A2
:100AB000000000C00A00000000000000004000002C
:100AC0000000004821000000000000080000200095
:100AD0000000004004000040000000000000000092
:100AE00000000020000000000000000000000000E6
:100AF00000000008120000000000000000000000DC
:100B000000000000000000000000000000000000E5
:100B10000000000540000000001C1C000000000058
:100B2000080000000000000000400140000000003C
:100B30000000000000000000020000200000000093
:100B40000000000000000000080000180080000005
:100B50000000000000000000000000040000000091
:100B600000000000000000000000003C80000000C9
:100B70000000000000000000000007FE80000000F0
:100B8000000000000000000000007FFF8000000067
:100B900000000000000000010000FFFFC000000096
:100BA00000000020000000020003FFF82000000009
:100BB0000004000000000002000FFCFFA000000085
:100BC00000000000000080040017FE8010400000BC
:100BD0000000000000000004007FFE8010000040C4
:100BE000000000000000000800FFE800080000000E
:100BF000000000000000000001FF8000080040002D
:100C0000000000000000001003FE000004000000CF
:100C100000000000000000100FFC000004000000B5
:100C200000008000000000000FF000000400000041
:100C300000000000000000001FF0000000000000A5
:100C400000108400000000103FE0000000000000E1
:100C500000000000000000103FC000000400000081
:100C600002049000000000107F80000004000000DB
:100C70000002A000000000107F000000040000003F
:100C800000008000000000107E0000000000000056
:100C90000057F50000000000FE000000000000000A
:100CA0000000800000000000FD00000004000000C3
:100CB0000002A00000000011FC0000180400000069
:100CC0000004900000000001FA0000100000020083
:100CD0000000000000000009F80007C00804000040
:100CE0000010840000000001F8000F001000000157
:100CF0000000000000400007F800FC0010000000A9
:100D00000000800000000003F80FF0002000000049
:100D1000000000000000000179FF800020000000BA
:100D20000000400000000000FFFC00000000000088
:100D30000000000000000000FFF8000000000000BC
:100D400000000000000000005F80000000000000C4
:100D5000000000000000000006000000000000008D
:100D60000000000000000000000000000200000081
:100D7000000000000000000000000008000000006B
:100D80000002000000000000040000100004000049
:100D9000000000000000000002000000000000024F
:100DA0000000000000000800003006000000000005
:100DB00000000000000000000007F000000000003C
:100DC0000000000000000000000000000000000023
:100DD00000000000004000000000000000000000D3
:100DE00000038007E00DB04DB26FD6FBFF0FF80790
:100DF000E003C00E70781E200C200800000000AA3E
:100E0000550880451020201040C018104020204573
:100E10001080C0F8C0C0E0F8FFF8E0C0C0F8C080A3
:100E200000080B0002020201000904000001020296
:100E3000000005240010010524010101042402061C
:100E40000524060001070581031000400904010084
:100E5000020A0000000705020240000007058302A5
:100E60004000000403090412010002EF02014041A6
:100E700023368000010102030141726475696E6FBF
:100E8000204C4C430041726475696E6F204C656F55
:100E90006E6172646F0004080201104080401020EF
:100EA0004080408008020401804020100201108030
:100EB000102040402000000000250028002B002EBC
:100EC00000310004040404040304050202020204C5
:100ED00003020202020606060606060404020202D5
:100EE00004040300000000003E5B4F5B3E3E6B4F7E
:100EF0006B3E1C3E7C3E1C183C7E3C181C577D57AC
:100F00001C1C5E7F5E1C00183C1800FFE7C3E7FF57
:100F10000018241800FFE7DBE7FF30483A060E26EA
:100F200029792926407F050507407F05253F5A3C42
:100F3000E73C5A7F3E1C1C08081C1C3E7F14227F85
:100F400022145F5F005F5F06097F017F006689955D
:100F50006A606060606094A2FFA29408047E040846
:100F600010207E201008082A1C08081C2A08081EC9
:100F7000101010100C1E0C1E0C30383E3830060EAF
:100F80003E0E06000000000000005F0000000700A9
:100F90000700147F147F14242A7F2A122313086465
:100FA0006236495620500008070300001C22410009
:100FB0000041221C002A1C7F1C2A08083E08080049
:100FC00080703000080808080800006060002010E9
:100FD0000804023E5149453E00427F4000724949A3
:100FE00049462141494D331814127F102745454584
:100FF000393C4A49493141211109073649494936A5
:10100000464949291E000014000000403400000039
:10101000081422411414141414004122140802016B
:101020005909063E415D594E7C1211127C7F494997
:1010300049363E414141227F4141413E7F49494934
:10104000417F090909013E414151737F0808087F2A
:1010500000417F41002040413F017F081422417F31
:10106000404040407F021C027F7F0408107F3E41C9
:1010700041413E7F090909063E4151215E7F091920
:101080002946264949493203017F01033F40404038
:101090003F1F2040201F3F4038403F631408146327
:1010A00003047804036159494D43007F41414102E3
:1010B00004081020004141417F0402010204404025
:1010C000404040000307080020545478407F2844E3
:1010D00044383844444428384444287F38545454CD
:1010E0001800087E090218A4A49C787F08040478DC
:1010F00000447D40002040403D007F102844000017
:10110000417F40007C047804787C080404783844EB
:10111000444438FC1824241818242418FC7C08049F
:101120000408485454542404043F44243C404020C0
:101130007C1C2040201C3C4030403C44281028446B
:101140004C9090907C4464544C440008364100001C
:1011500000770000004136080002010204023C262C
:1011600023263C1EA1A161123A4040207A385454F3
:101170005559215555794122545478422155547876
:101180004020545579400C1E52721239555555590C
:10119000395454545939555454580000457C410031
:1011A00002457D420001457C407D1211127DF028F0
:1011B0002528F07C545545002054547C547C0A0961
:1011C0007F4932494949323A4444443A324A4848CC
:1011D000303A4141217A3A42402078009DA0A07DDA
:1011E0003D4242423D3D4040403D3C24FF24244896
:1011F0007E4943662B2FFC2F2BFF0929F620C08840
:101200007E090320545479410000447D4130484810
:101210004A32384040227A007A0A0A727D0D19312A
:101220007D2629292F28262929292630484D402086
:10123000380808080808080808382F10C8ACBA2F62
:10124000102834FA00007B000008142A142222140B
:101250002A14085500550055AA55AA55AAFF55FF4E
:1012600055FF000000FF00101010FF00141414FFC1
:10127000001010FF00FF1010F010F0141414FC0008
:101280001414F700FF0000FF00FF1414F404FC1412
:101290001417101F10101F101F1414141F0010100B
:1012A00010F0000000001F101010101F1010101080
:1012B000F010000000FF101010101010101010FFA0
:1012C00010000000FF140000FF00FF00001F1017B7
:1012D0000000FC04F414141710171414F404F400A0
:1012E00000FF00F714141414141414F700F7141466
:1012F00014171410101F101F141414F4141010F0ED
:1013000010F000001F101F0000001F14000000FC60
:10131000140000F010F01010FF10FF141414FF144C
:101320001010101F00000000F010FFFFFFFFFFF083
:10133000F0F0F0F0FFFFFF0000000000FFFF0F0FD4
:101340000F0F0F3844443844FC4A4A4A347E0202A4
:101350000606027E027E0263554941633844443CDE
:1013600004407E201E2006027E020299A5E7A59970
:101370001C2A492A1C4C7201724C304A4D4D3030A7
:1013800048784830BC625A463D3E494949007E0192
:1013900001017E2A2A2A2A2A44445F444440514AB1
:1013A000444040444A51400000FF0103E080FF00F8
:1013B0000008086B6B083612362436060F090F0634
:1013C000000018180000001010003040FF0101005C
:1013D0001F01011E00191D1712003C3C3C3C00007F
:1013E000000000000103070F1F3F7F0080C0E0F0F6
:1013F000F8FCFE2200FF2100E627C32011241FBEB7
:10140000CFEFDAE0DEBFCDBF11E0A0E0B1E0ECE667
:10141000F7E502C005900D92AA38B107D9F723E08D
:10142000AAE8B1E001C01D92A533B207E1F719E0C7
:10143000CDEFD9E004C02197FE010E94762ACC3F6F
:10144000D107C9F70E94D2200C94A92B0C9400005C
:1014500090E0FC013197EF30F105B0F5EA5AFF4F0B
:101460000C94762A809180008F7703C08091800051
:101470008F7D80938000089580918000877FF9CFD1
:1014800084B58F7702C084B58F7D84BD0895809127
:1014900090008F7707C0809190008F7D03C080916E
:1014A0009000877F8093900008958091C0008F778F
:1014B00003C08091C0008F7D8093C000089580910B
:1014C000C200877F8093C20008953FB7F89480914F
:1014D000F7019091F801A091F901B091FA0126B5B8
:1014E000A89B05C02F3F19F00196A11DB11D3FBF5C
:1014F000BA2FA92F982F8827820F911DA11DB11DEA
:10150000BC01CD0142E0660F771F881F991F4A95E5
:10151000D1F708950895FC016370658B84819581EE
:1015200026813781613039F0633029F091878087D7
:10153000338722870895318720879387828708958C
:101540006F927F928F929F92AF92BF92CF92DF92D3
:10155000EF92FF920F931F93CF93DF93EC014B0118
:101560005A0169013801E881F9810284F385E02D8F
:101570000995E881F9810288F389E02D87019601B8
:10158000A501B401CE010995A501460D571D415095
:101590005109E881F9810288F389E02D9601B401AF
:1015A000CE010995E881F9810088F189E02D930148
:1015B000A501B401CE010995C80CD91CB601615032
:1015C0007109E881F9810088F189E02D9301A50175
:1015D000CE010995E881F9810688F789E02DCE01D1
:1015E000DF91CF911F910F91FF90EF90DF90CF90FF
:1015F000BF90AF909F908F907F906F9009948F9243
:101600009F92AF92BF92CF92DF92EF92FF920F9391
:101610001F93CF93DF934C016B015A01E901DC0169
:10162000ED91FC916217730781F40417150724F4F8
:101630008B2D5801042F182F0A191B0998012F5FB1
:101640003F4F048CF58DE02D12C04017510709F56E
:101650002617370724F48D2D6901C62FD82F9E0138
:101660002C193D092F5F3F4F068CF78DE02D870128
:10167000A501B601C4010995DF91CF911F910F918A
:10168000FF90EF90DF90CF90BF90AF909F908F90A2
:1016900008950284F385E02D0995D401ED91FC9124
:1016A0000488F589E02D9E01A501B601C4010995C4
:1016B000D401ED91FC910688F789E02DC401DF91FA
:1016C000CF911F910F91FF90EF90DF90CF90BF903F
:1016D000AF909F908F900994EF92FF920F931F937A
:1016E000DC011A960D911C911B9718962D913C9137
:1016F0001997ED91FC9100A0F1A1E02D7B0140E054
:1017000050E060E070E009951F910F91FF90EF901D
:1017100008954F925F926F927F928F929F92AF92B5
:10172000BF92CF92DF92EF92FF920F931F93CF93CE
:10173000DF936C012B015A0139014801DC01ED9165
:10174000FC910284F385E02D0995E201640C751C7F
:10175000D601ED91FC91C615D7055CF40088F1899E
:10176000E02D87019401A501BE01C60109952196CE
:10177000EFCF0688F789E02DC601DF91CF911F9149
:101780000F91FF90EF90DF90CF90BF90AF909F9020
:101790008F907F906F905F904F9009948F929F925F
:1017A000AF92BF92CF92DF92EF92FF920F931F936F
:1017B000CF93DF93EC015B014A016901E881F98174
:1017C0000284F385E02D099595012C0D3D1D2150D6
:1017D0003109E881F9810488F589E02D78018401D7
:1017E000A401B501CE010995E881F9810688F78940
:1017F000E02DCE01DF91CF911F910F91FF90EF90DF
:10180000DF90CF90BF90AF909F908F9009948F9270
:101810009F92AF92BF92CF92DF92EF92FF920F937F
:101820001F93CF93DF93EC015B014A0169017801BB
:10183000E881F9810284F385E02D0995C80CD91C53
:10184000860101501109E881F9810488F589E02DAC
:101850009501A401B501CE010995E881F9810688B9
:10186000F789E02DCE01DF91CF911F910F91FF906D
:10187000EF90DF90CF90BF90AF909F908F900994A2
:101880000895EF92FF920F931F93DC01ED91FC916D
:1018900000A0F1A1E02D09951F910F91FF90EF900D
:1018A00008950F931F93DC01ED91FC91068CF78D49
:1018B000E02D09951F910F9108950F931F93DC015F
:1018C000ED91FC91048CF58DE02D09951F910F9100
:1018D0000895DC01ED91FC910084F185E02D0994DF
:1018E0002F923F924F925F926F927F928F929F9230
:1018F000AF92BF92CF92DF92EF92FF920F931F931E
:10190000CF93DF9300D000D000D0CDB7DEB72C014D
:101910007E836D836A015901C801FC82EB82480114
:10192000841A950A97FE03C0919481949108350119
:101930002D813E81621A730A77FE03C0719461940F
:101940007108681479045CF43A2D2B2D5C01832F07
:10195000922F3D812E81DE82CD82C32ED22EAD818B
:10196000BE81AA16BB065CF43C2D2D2D6C01832F85
:10197000922F3D812E81BE82AD82A32EB22E850193
:101980002D813E81021B130B1C012C183D0837FED4
:1019900003C0319421943108780117FF03C03FEF51
:1019A000E31AF30AF594E794C816D9062CF08FEFE2
:1019B0009FEF9A83898304C0A1E0B0E0BA83A98332
:1019C0002D813E81A216B30624F1D201ED91FC9146
:1019D0000484F585E02D2B813C816814790424F47E
:1019E0004D815E81B60103C0A6016D817E81C20179
:1019F0000995E218F308F7FE06C029813A81C20E64
:101A0000D31EE00EF11E8D819E8101969E838D83F3
:101A1000D7CF26960FB6F894DEBF0FBECDBFDF91AD
:101A2000CF911F910F91FF90EF90DF90CF90BF90DB
:101A3000AF909F908F907F906F905F904F903F906E
:101A40002F900895FC0177FDB9C0808591856817B6
:101A500079070CF0B3C057FDB1C082859385481754
:101A600059070CF008958589823079F48481958135
:101A7000DC01A61BB70BBD016150710986819781FE
:101A8000DC01A41BB50BAD010EC0833009F084C08E
:101A900064277527CA0186279727682779274681F3
:101AA0005781481B590B415051092130310531F004
:101AB00048F12230310509F44AC00895CA0157FDA2
:101AC00007969C01A3E035952795AA95E1F7A48197
:101AD000B5812A9FC0012B9F900D3A9F900D112434
:101AE000680F791F068CF78DE02DE60FF71F477002
:101AF000552781E090E001C0880F4A95EAF7908170
:101B0000892B48C0CA0157FD07969C0193E0359583
:101B100027959A95E1F7A481B5812A9FC0012B9F53
:101B2000900D3A9F900D1124680F791F068CF78D48
:101B3000E02DE60FF71F4770552781E090E001C0C8
:101B4000880F4A95EAF780959081892323C0CA01BE
:101B500057FD07969C0183E0359527958A95E1F717
:101B6000A481B5812A9FC0012B9F900D3A9F900DB3
:101B70001124680F791F068CF78DE02DE60FF71FF3
:101B80004770552781E090E001C0880F4A95EAF739
:101B90009081892780830895813009F086CF64275A
:101BA0007527462757276427752784819581DC018F
:101BB000A61BB70BBD016150710977CF089585ED64
:101BC0008093BC008091BC0084FDFCCF1092520237
:101BD00008954091CF01262F30E0240F311D21328E
:101BE0003105DCF4209152022430C9F4FC0180E07C
:101BF00090E0861758F43091CF012191DC01A15576
:101C0000BE4FA30FB11D2C930196F3CF8091CF014E
:101C1000680F6093CF0180E0089581E0089582E02D
:101C2000089508950895E09100028091FF01E8175A
:101C300030F4F0E0E157FE4F808190E008958FEF9F
:101C40009FEF0895909100028091FF01981750F442
:101C5000E92FF0E0E157FE4F208130E09F5F909345
:101C6000000202C02FEF3FEFC90108958091FF01EC
:101C700090E020910002821B91090895CF92DF929B
:101C8000EF92FF920F931F93CF93DF937C01CB01D1
:101C90008A0120915302222389F0EB016B01C40ECB
:101CA000D51ECC15DD0569F06991D701ED91FC9148
:101CB0000190F081E02DC7010995F3CF642F0E94B8
:101CC000E90DC801DF91CF911F910F91FF90EF9027
:101CD000DF90CF900895CF93DF931F92CDB7DEB7FB
:101CE0006983209153022223D1F020917602203281
:101CF00040F021E030E0FC013383228380E090E07B
:101D000015C080915402E82FF0E0EB5AFD4F998105
:101D100090838F5F809354028093760205C061E0C8
:101D2000CE0101960E94E90D81E090E00F90DF91D5
:101D3000CF910895089580E090E008950E949D2B32
:101D4000AF92BF92CF92EF92FF920F931F93CF93D8
:101D5000DF93EC01262F888D998D009709F040C004
:101D60006A3059F41D861C862C898E859F8538E043
:101D7000239F800D911D112441C06D3009F4AAC02C
:101D80008E898823C1F03C898C859D8546E0349FEF
:101D9000800D911D112448855985481759075CF419
:101DA0001D861C868E859F8548E0349F800D911D81
:101DB00011249F878E87EA88FB88088919894E85B8
:101DC0005F856C857D85CC88CE010E94961D2C890F
:101DD0008C859D8536E0239F800D911D112442C086
:101DE0006A3079F41D861C862C89FC013696E491B4
:101DF0008E859F852E9F800D911D11249F878E8734
:101E000069C06D3009F466C0FC01349634916317E3
:101E100008F460C03196E491E61708F45BC0FC0159
:101E2000329665917491422F50E0431B510937E07F
:101E3000349F5001359FB00C1124A60EB71EF5013A
:101E4000329634913196E491332311F0E1110DC0B3
:101E5000F5013496E4912C898C859D85E29F800D57
:101E6000911D11249D878C8735C0F50135964491CD
:101E70005E89552311F16C89E32FF0E0E40FF11D29
:101E800047FDFA956E9FD0016F9FB00D11244C85D0
:101E90005D854A0F5B1FE885F985E417F5076CF44B
:101EA0001D861C86FC013696E4918E859F856E9F6B
:101EB000800D911D11249F878E87EA88FB880889F1
:101EC00019894E855F856C857D85CC88CE010E9401
:101ED000961DBECF81E090E0DF91CF911F910F91D1
:101EE000FF90EF90CF90BF90AF9008950F931F9306
:101EF000CF93DF93DC015596EC915597E23071F06A
:101F0000E330E9F0E13079F5FB0114960D90BC91D6
:101F1000A02DA41BB50BA21BB30B18C0EC01EC81C8
:101F2000FD81E61BF70BBF0161507109EE81FF8156
:101F3000DF01A41BB50BAD01421B530B14C0DA012A
:101F4000EC01EE81FF81E61BF70B3197F7FD0DC029
:101F5000EC014E815F81E417F5073CF4AF01BD0150
:101F60000E947A1C02C00E94E11CDF91CF911F9158
:101F70000F9108950F931F93DC015596EC9155979F
:101F8000E23061F0E33009F1E13081F51496ED9132
:101F9000FC911597E41BF50B319723C0DC011496D7
:101FA000ED91FC911597DF01A61BB70BBD01DC017C
:101FB0001696ED91FC911797DF01A41BB50BAD01AF
:101FC00041505109621B730B11C0FA01DC011696D6
:101FD0004D915C911797DA01A61BB70BBD01621BEF
:101FE000730BAB01BF010E94E11C0CC057FD0AC07E
:101FF000DC011696ED91FC9117974E175F0714F4CC
:102000000E947A1C1F910F910895CF93DF93282F80
:1020100030E0F901EA50FF4F8491F901EA56F14F9F
:10202000D491F901ED53F14FC491CC2391F081117A
:102030000E94280AEC2FF0E0EE0FFF1FE851FF4F3F
:10204000A591B491EC91ED2381E090E021F480E042
:1020500002C080E090E0DF91CF9108951F93CF936D
:10206000DF93282F30E0F901EA50FF4F8491F90106
:10207000EA56F14FD491F901ED53F14FC491CC23BD
:10208000C1F0162F81110E94280AEC2FF0E0EE0F0C
:10209000FF1FEB54F14FA591B4919FB7F894111124
:1020A00004C08C91D095D82302C0EC91DE2BDC9338
:1020B0009FBFDF91CF911F910895CF93DF9390E061
:1020C000FC01EA56F14F2491FC01ED53F14F84914C
:1020D000882361F190E0880F991FFC01EB5EFE4FB1
:1020E000C591D491FC01EB54F14FA591B4916111CC
:1020F00009C09FB7F8948881209582238883EC914A
:102100002E230BC0623061F49FB7F8948881322F80
:10211000309583238883EC912E2B2C939FBF06C090
:102120008FB7F894E8812E2B28838FBFDF91CF9152
:1021300008951F93CF93DF93182FEB0161E00E9466
:102140005D10209711F460E004C0CF3FD10539F451
:1021500061E0812FDF91CF911F910C942E10E12F20
:10216000F0E0EA50FF4FE4918E2F90E0FC013197B0
:10217000EF30F10508F06CC0EB59FF4F0C94762A54
:1021800084B5806884BDC7BD68C084B5806284BDE5
:10219000C8BD63C080918000806880938000D09328
:1021A0008900C093880059C080918000806280932C
:1021B0008000D0938B00C0938A004FC08091800034
:1021C000886080938000D0938D00C0938C0045C0C0
:1021D00080919000806880939000D0939900C09384
:1021E00098003BC080919000806280939000D093D3
:1021F0009B00C0939A0031C08091900088608093CA
:102200009000D0939D00C0939C0027C08091C00097
:1022100080688093C0008091C0008F7B8093C00055
:10222000C093CF001AC08091C00080628093C0002C
:10223000C093D00012C08091C20088608093C20019
:102240008091C2008B7F8093C200C093D20005C0F2
:10225000C038D1050CF07CCF76CFDF91CF911F91A4
:1022600008958F929F92AF92BF92CF92DF92EF929A
:10227000FF926B017C010E94650A4B015C01C11455
:10228000D104E104F104F1F00E94650ADC01CB0104
:1022900088199909AA09BB09883E9340A105B1058F
:1022A00070F321E0C21AD108E108F10888EE880E27
:1022B00083E0981EA11CB11CC114D104E104F104F7
:1022C00019F7DDCFFF90EF90DF90CF90BF90AF90E8
:1022D0009F908F9008951F920F920FB60F92112426
:1022E0002F933F938F939F93AF93BF938091F3016D
:1022F0009091F401A091F501B091F6013091F201B5
:1023000023E0230F2D3720F40196A11DB11D05C038
:1023100026E8230F0296A11DB11D2093F2018093A0
:10232000F3019093F401A093F501B093F60180912D
:10233000F7019091F801A091F901B091FA0101968D
:10234000A11DB11D8093F7019093F801A093F901AD
:10235000B093FA01BF91AF919F918F913F912F91CF
:102360000F900FBE0F901F90189508958EBD00001E
:102370000DB407FEFDCF8EB508951F93CF93DF9365
:10238000FC01848D958D009729F1162FEF0120A176
:1023900031E0309353022093750210925402109250
:1023A0007602DC01ED91FC910190F081E02D60E07E
:1023B00009958C8D9D8DDC01ED91FC910190F08152
:1023C000E02D612F09958C8D9D8DDF91CF911F910F
:1023D0000C94B118A4A5B5A59C9182A980958923D8
:1023E0008C93828D938D892B31F0862FDF91CF9145
:1023F0001F910C94B61128E030E080E8A0A5B1A5AB
:1024000090A9462F482319F04C91942B03C04C916E
:10241000909594239C93A2A5B3A54C9191A9942B3C
:102420009C93A2A5B3A54C9191A9909594239C93BC
:1024300086952150310911F7DF91CF911F910895B1
:102440008CBD9DBD08951F93CF93DF93EC01162F94
:102450008C8D9D8D892BB1F02EA93FA948AD59AD2A
:1024600060E074E284EF90E00E942829DA01C9015B
:102470004097A109B109B695A7959795879580933F
:10248000B8000FC08A8D9B8D892B21F08CA99DA946
:102490000E942012EEA5FFA590818BA9809589232B
:1024A0008083111102C066EA01C067EACE010E9472
:1024B000BD118C8D9D8D892BB1F02AAD3BAD4CADFE
:1024C0005DAD60E074E284EF90E00E942829DA01BB
:1024D000C9014097A109B109B695A7959795879528
:1024E0008093B80006C0EEA5FFA590818BA9892B2B
:1024F0008083DF91CF911F9108951F920F920FB6A5
:102500000F9211242F933F934F935F936F937F9379
:102510008F939F93AF93BF93EF93FF938091B900F5
:10252000887F803609F49CC068F5883209F45BC066
:1025300090F4803109F454C038F4882309F4F6C0CB
:10254000883009F44DC0F6C0883109F44CC080329F
:1025500009F45DC0EFC0803409F468C048F48033EA
:1025600009F455C0883309F0E5C080935002D8C003
:10257000803509F44FC0883509F45DC0883409F00E
:10258000D9C0D6C0883909F4C7C0A8F4883709F47F
:1025900067C038F4883609F463C0803709F460C036
:1025A000C9C0883809F4B8C0803909F45FC08038E0
:1025B00009F0C0C05BC0803B09F486C038F4803AA3
:1025C00009F466C0883A09F47FC0B4C0803C09F4BD
:1025D000A7C0883C09F4A4C0883B09F48AC0AAC0FB
:1025E00080912D0210C090914F0280914E02981759
:1025F00070F5E0914F0281E08E0F80934F02F0E082
:10260000E25DFD4F80818093BB0085EC86C08093A6
:1026100050028EC0E0914F0281E08E0F80934F02F6
:102620008091BB00F0E0E25DFD4F808390914F020E
:1026300080914E026EC0E0914F0281E08E0F809338
:102640004F028091BB00F0E0E25DFD4F80838091FE
:10265000510281116DC081E080932C0284EA61C037
:1026600083E0809352021092F101CFCF8091F1016B
:10267000803208F051C0E091F10181E08E0F80932B
:10268000F1018091BB00F0E0EF52FE4F8083BDCF9F
:1026900085EC8093BC00109252028091F10180324F
:1026A00030F4E091F101F0E0EF52FE4F10826091C2
:1026B000F10170E0E091FB01F091FC0181ED91E00E
:1026C00009951092F10136C084E080935202109275
:1026D000D0011092CF01E091FD01F091FE0109952A
:1026E0008091CF01811105C081E08093CF011092CC
:1026F000AF01E091D00181E08E0F8093D001F0E036
:10270000E155FE4F80818093BB009091D001809174
:10271000CF01981708F479CF85E88093BC000AC0F0
:1027200085EC8093BC001092520204C010925002BB
:102730000E94DF0DFF91EF91BF91AF919F918F911B
:102740007F916F915F914F913F912F910F900FBEAD
:102750000F901F901895CF93DF93C3E3D0E021979C
:1027600029F16FE770E089E00E94991061E070E064
:1027700080E090E00E9431116FEF70E089E00E94EC
:1027800099100E94C2196FE770E08AE00E949910C8
:1027900061E070E080E090E00E9431116FEF70E046
:1027A0008AE00E9499100E94C219D9CFDF91CF917F
:1027B0000895CF93DF931F92CDB7DEB76983DC0115
:1027C000ED91FC910280F381E02D41E050E0BE01EB
:1027D0006F5F7F4F09950F90DF91CF91089583E050
:1027E0008093E9008091F200882319F08AE38093B6
:1027F000E8000895FC018485958597FD0BC09FB77F
:10280000F89482E08093E9008091F2009FBF90E00D
:10281000019608959FB7F89482E08093E900809133
:10282000F2009FBF90E008958F929F92AF92BF9267
:10283000CF92DF92EF92FF920F931F93CF93DF938C
:102840006C017B018A0180910F01882309F45CC02F
:1028500080912403882309F457C08091220280FFCD
:1028600005C08091E00082608093E000E801B12C17
:102870008AEFA82E93E0892E2AE3922E209711F456
:10288000BB20D9F10E94DE1F81110AC0AA94AA20A0
:10289000D9F161E070E080E090E00E943111EECF6C
:1028A000282F30E0C217D3070CF48C2F9FB7F89471
:1028B0008092E9002091E80025FF1DC0282F30E01C
:1028C000C21BD30BF701815020F041914093F100DE
:1028D000FACFE20EF31EBB2019F09092E8000AC076
:1028E0008091E80085FD07C09092E800BB24B39476
:1028F000209709F0B12C9FBFC1CF5D9884E68093EB
:1029000024021016110644F081E090E0F601938352
:10291000828380E090E001C0C801DF91CF911F91D8
:102920000F91FF90EF90DF90CF90BF90AF909F906E
:102930008F9008950E94DE1F90E008950F931F93DB
:10294000CF93DF931F92CDB7DEB78C01FC01848556
:10295000958597FF0EC0CE0101960E94B01F01978A
:1029600019F4898190E002C08FEF9FEFF8019587FD
:102970008487F801848595850F90DF91CF911F9111
:102980000F910895CF93DF931F92CDB7DEB7FC016F
:102990008485958597FD05C02FEF3FEF3587248708
:1029A0000BC0CE0101960E94B01F019719F48981D6
:1029B00090E002C08FEF9FEF0F90DF91CF910895CD
:1029C000DF92EF92FF920F931F93CF93DF93D82E56
:1029D0008A017B01E40EF51EEB01CE15DF0571F0D7
:1029E000D7FE03C0FE01849101C088810E942D2082
:1029F00021968111F2CF8FEF9FEF01C0C801DF91C7
:102A0000CF911F910F91FF90EF90DF9008950F935A
:102A10001F93CF93DF931F92CDB7DEB782E08983F8
:102A200042E450E061E27EE080E80E94E0140E940F
:102A3000EF1FDC0112960D911C91139701151105E2
:102A400089F0D801ED91FC910280F381E02DBE0167
:102A50006F5F7F4FC801099597FD04C0F80100859D
:102A60001185ECCF89810F90DF91CF911F910F914C
:102A700008951F920F920FB60F9211248F939F9378
:102A80008091E1009091E100937F9093E10083FFBA
:102A90000FC01092E90091E09093EB001092EC00CF
:102AA00092E39093ED001092240398E09093F0004D
:102AB00082FF20C093E09093E9009091F200992367
:102AC00019F09AE39093E80090912402992339F049
:102AD00090912402915090932402992389F190912E
:102AE0002303992339F0909123039150909323036A
:102AF000992341F184FF10C08091E2008E7E8160B5
:102B00008093E2008091E1008F7E8093E1008091CC
:102B100022028E7E806111C080FF16C08091E2008B
:102B20008E7E80618093E2008091E1008E7E8093B2
:102B3000E100809122028E7E81608093220204C097
:102B40005D9ACDCF289AD6CF9F918F910F900FBECF
:102B50000F901F9018951F920F920FB60F9211248D
:102B6000CF92DF92EF92FF920F931F932F933F9399
:102B70004F935F936F937F938F939F93AF93BF9385
:102B8000EF93FF93CF93DF93CDB7DEB76C97DEBFA4
:102B9000CDBF1092E9008091E80083FFFBC168E09F
:102BA000CE0145960E945B2082EF8093E8008D89DC
:102BB00087FF05C09091E80090FFFCCF03C09EEF17
:102BC0009093E800982F907609F0C6C09E894F89AF
:102BD000588D2F89F88C91110CC0803829F4809180
:102BE00021028093F10002C01092F1001092F100D6
:102BF00045C1913051F4811141C14130510509F075
:102C00003DC1809121028D7F0BC0933061F4811111
:102C100035C14130510509F031C1809121028260F6
:102C2000809321022BC1953049F48091E80080FF08
:102C3000FCCF822F80688093E30020C1963009F09A
:102C40005EC00B8D1C8D22E01092E90010922002D4
:102C500010921F02F21232C010921E0210921D0238
:102C60000E94071599E0BE016F5F7F4FDB01E92FDE
:102C70001D92EA95E9F79983FA8291E09E8390EAA2
:102C800098879AEF998720911F0230912002275F41
:102C90003F4F3C832B838D831092E90010922002DA
:102CA00010921F0210931E0200931D0249E050E093
:102CB00080E00E94E0140E940715E0C010931E02FD
:102CC00000931D020E94EF1FDC0112960D911C91D2
:102CD00013970115110509F4BBC0D801ED91FC91C2
:102CE0000480F581E02DBE016B5E7F4FC801099520
:102CF000009709F0C7C0F80100851185EACF973029
:102D000009F445C1983021F481E08093F100B6C008
:102D1000993009F0B3C0837009F039C1ECE1F1E0FA
:102D200081E031E096E32081211109C08EE7809394
:102D3000EA001092EA008F89809324039FC0809359
:102D4000E9003093EB0021912093EC009093ED008B
:102D50008F5F873041F7EACF8B8D9C8D1092E90011
:102D60001092200210921F0290931E0280931D0267
:102D7000898D811153C08E899D89913A49F48132A0
:102D800009F005C147E050E068E071E080E0BBC0B9
:102D9000913209F0FCC0833269F48F89988DA0E0EC
:102DA000B0E08093040190930501A0930601B093D5
:102DB000070164C0803269F48091E80082FFFCCF93
:102DC00067E088E091E00E945B208BEF8093E80051
:102DD00055C0823209F052C08F8980930F01EEEF07
:102DE000FFE7859194918B3F9C4D19F0E0E0F8E06E
:102DF00002C0EEEFFAE08091080190910901A091E4
:102E00000A01B0910B01803B9440A105B10509F086
:102E10009EC080910F0180FF79C099C00E94EF1F72
:102E2000FC01028113810115110509F4B0C0D8011C
:102E3000ED91FC910190F081E02DBE016B5E7F4F22
:102E4000C801099581111AC0F80100851185EBCFE1
:102E5000F1E0FF1609F44EC0F3E0FF1298C08F892D
:102E6000882309F44AC0823089F440E860E185E8AB
:102E70009EE00E94B127882309F489C08EEF8093D9
:102E8000E80088C018161906CCF381C0813029F4F7
:102E900040E86BE089E79EE0ECCF833009F077C033
:102EA0000E94EF1FDC011296ED90FC9013978E01AB
:102EB0000F5F1F4F6801E114F10479F0D701ED9124
:102EC000FC910680F781E02DB801C7010995080F34
:102ED000111DF701E084F184EECFD8011C92F601B8
:102EE00001900020E9F73197BF016C197D0940E09E
:102EF000C601BFCF67E67EE002C063E67EE0FB016D
:102F0000449150E080E80E94E014B8CFEE3F2AE000
:102F1000F20751F0808191818737A7E79A0721F066
:102F20009093FF0A8093FE0A87E797E79183808357
:102F300080916000809323029BE088E10FB6F894B3
:102F4000A895809360000FBE9093600097CF80811A
:102F500091818737974709F091CFA89580916000BC
:102F60008861809360008091230280936000EE3F2F
:102F7000BAE0FB0739F08091FE0A9091FF0A918335
:102F800080837CCF1092FF0A1092FE0A77CF81E2F5
:102F90008093EB006C960FB6F894DEBF0FBECDBFEA
:102FA000DF91CF91FF91EF91BF91AF919F918F9161
:102FB0007F916F915F914F913F912F911F910F9151
:102FC000FF90EF90DF90CF900F900FBE0F901F906B
:102FD0001895CF93C091770280E090E00E94E0289E
:102FE000C81729F06C2F80E090E00E94E828C0917B
:102FF000780281E090E00E94E028C81729F06C2F49
:1030000081E090E00E94E82887E792E0CF91089560
:1030100020917F0230918002C901079697FD0796A3
:1030200023E0959587952A95E1F720917D023091CF
:103030007E02829FA001839F500D929F500D11240C
:1030400060E070E080919702909198020C94A22B1E
:103050003F924F925F926F927F928F929F92AF9228
:10306000BF92CF92DF92EF92FF920F931F93CF9375
:10307000DF93CDB7DEB728970FB6F894DEBF0FBE4B
:10308000CDBF4C017E836D832A013901C8010796AB
:1030900097FD07969C0193E0359527959A95E1F762
:1030A0003C832B83A12CB12CC12CD12C312CC201FF
:1030B0008C0D9D1D9A838983CE14DF04D4F5188668
:1030C0001F822F813885201731075CF5C901877071
:1030D0009927892B11F0330C0EC0EF81F885F7FD8D
:1030E000379683E0F595E7958A95E1F7EA0DFB1DA4
:1030F000E60DF71D349037FE0DC021E030E0498128
:103100005A816D817E818F819885680F791FC401F6
:103110000E94690C2F8138852F5F3F4F38872F839E
:10312000D0CF3FEFC31AD30A8B819C81A80EB91E62
:10313000BECF28960FB6F894DEBF0FBECDBFDF918D
:10314000CF911F910F91FF90EF90DF90CF90BF90A4
:10315000AF909F908F907F906F905F904F903F9037
:10316000089530917602313208F04BC080915202BE
:103170008111FCCF9091750222E02093520221E050
:10318000209351022FEF2093500210924F02309360
:103190004E02E5E5F2E0AEE2B2E020E0321721F0C7
:1031A00041914D932F5FFACF10922D0220912D0265
:1031B000990F922B90932D0290912C02913061F4F3
:1031C00010922C0290912D029093BB009091BC0024
:1031D00093FDF8CF95EC01C095EE9093BC009091D3
:1031E00052029230E1F3909150029F3F79F080912A
:1031F0005002803241F080915002803331F084E0FF
:1032000005C081E003C082E001C083E01092540257
:1032100010927602109253020895DF92EF92FF927D
:103220000F931F93CF93DF93D82ED92FC62F809162
:10323000950290919602009709F454C0209199024A
:1032400031E0309353022093750210925402109291
:103250007602DC01ED91FC910190F081E02D60E0BF
:103260000995ED2CFD2E11E0D1E080919502909111
:103270009602CC2371F11032C8F00E94B1188091EF
:103280009902D093530280937502109254021092C7
:1032900076028091950290919602DC01ED91FC916D
:1032A0000190F081E02D60E0099511E08091950298
:1032B00090919602F7016491DC01ED91FC910190EF
:1032C000F081E02D09951F5FC150BFEFEB1AFB0A9B
:1032D000CCCFDF91CF911F910F91FF90EF90DF90B6
:1032E0000C94B118E091A502F091A6029081809112
:1032F000AB028095892380830D2D1D2FCC2309F4EB
:1033000039C0F80184912091930230919402232BCB
:1033100031F00E94B611C1500F5F1F4FEFCF28E070
:1033200030E040E8E091A102F091A2029091A90260
:10333000582F542319F05081952B03C0508190953C
:1033400095239083E091A302F091A4025081909183
:10335000AA02952B9083E091A302F091A4025081E0
:103360009091AA029095952390834695215031091A
:10337000C9F6D1CFDF91CF911F910F91FF90EF90C0
:10338000DF900895CF9380911001853021F08F3F19
:1033900009F023C104C0E2EEFEE0C49197C085E0CD
:1033A00080931001E2EEFEE0E491EF3F09F415C1D5
:1033B000E13009F442C040F1E33009F460C0E43088
:1033C00009F083C01092C0001092C1008091C1002A
:1033D00088608093C1008091C10081608093C100AA
:1033E000E8ECFEE0E491F0E0EE0FFF1FEB54F14F4C
:1033F00085919491EBE9FEE0E491E093B70261E0FE
:1034000085E00E945D1099C014BC15BC84B5826033
:1034100084BD85B5816085BDE8ECFEE0E491F0E017
:10342000EE0FFF1FEB54F14F85919491EBE9FEE015
:10343000E491E093B902C0E04BC01092800010927A
:10344000810080918100886080938100809181005B
:10345000816080938100E8ECFEE0E491F0E0EE0F03
:10346000FF1FEB54F14F85919491EBE9FEE0E4915D
:10347000E093B80261E085E00E945D1035C01092D3
:10348000900010929100809191008860809391004B
:1034900080919100816080939100E8ECFEE0E491DE
:1034A000F0E0EE0FFF1FEB54F14F85919491909354
:1034B000270280932602EBE9FEE0E491E0932502E7
:1034C00061E085E00E945D102FC0CE2FC7FD85C052
:1034D00061E085E00E945D10CC2309F467C0C23032
:1034E00009F47BC0C130F1F480918100887F836052
:1034F0008093810083EC99E0909389008093880009
:1035000081E090E0A0E0B0E08093BE029093BF0223
:10351000A093C002B093C10280916F00826080933B
:103520006F005BC0C33039F480919100887F836065
:10353000809391000EC0C43039F48091C100887F1F
:1035400083608093C1001DC0C33019F0C430C9F03E
:1035500044C083EC99E0909399008093980081E0B7
:1035600090E0A0E0B0E08093280290932902A0931D
:103570002A02B0932B0280917100826080937100C7
:103580002CC083EC8093CF0081E090E0A0E0B0E01D
:103590008093BA029093BB02A093BC02B093BD0289
:1035A0008091720080648093720017C085B5887F17
:1035B000856085BD8BE987BD81E090E0A0E0B0E04B
:1035C0008093C2029093C302A093C402B093C50239
:1035D00080916E00826080936E00CF910895009775
:1035E00069F0FC0101900020E9F73197AF01481B19
:1035F000590BBC0189E792E00C94032080E090E035
:103600000895EF92FF920F931F93CF93DF938091D2
:10361000950290919602892BD1F02091AF023091C2
:10362000B0024091B1025091B20260E074E284EFC6
:1036300090E00E942829DA01C9014097A109B10947
:10364000B695A795979587958093B80016C08091F9
:10365000930290919402892B31F08091AD02909168
:10366000AE020E942012E091A702F091A802908180
:103670008091AC0280958923808365E083EF93E19C
:103680000E940D1960917D02615089E792E00E94CD
:10369000BD1120917F0230918002C901079697FDEC
:1036A000079633E0959587953A95E1F720917D024D
:1036B00030917E02829F8001839F100D929F100D9A
:1036C0001124C0919702D091980280919502909117
:1036D00096020C0F1D1F009709F44CC0209199020F
:1036E00031E03093530220937502109254021092ED
:1036F0007602DC01ED91FC910190F081E02D60E417
:103700000995FF24F394EE24E3948091950290911F
:1037100096020C171D0759F1BFE1BF15D0F40E94A6
:10372000B11880919902E092530280937502109231
:103730005402109276028091950290919602DC01DB
:10374000ED91FC910190F081E02D60E40995FF245A
:10375000F39480919502909196026991DC01ED912C
:10376000FC910190F081E02D0995F394CECF0E9459
:10377000B11841C0E091A502F091A602908180911C
:10378000AB02892B80830C171D07A9F18991209129
:10379000930230919402232B19F00E94B611F3CFBB
:1037A00028E030E040E8E091A102F091A20290917F
:1037B000A902582F542319F05081952B03C0508132
:1037C000909595239083E091A302F091A4025081FB
:1037D0009091AA02952B9083E091A302F091A4020C
:1037E00050819091AA0290959523908346952150FF
:1037F0003109C9F6C8CF8091950290919602892B24
:10380000D1F02091B3023091B4024091B5025091B1
:10381000B60260E074E284EF90E00E942829DA01A9
:10382000C9014097A109B109B695A79597958795C4
:103830008093B80017C0E091A702F091A802908190
:103840008091AC02892B80838091930290919402A5
:10385000892B41F0DF91CF911F910F91FF90EF9055
:103860000C94B511DF91CF911F910F91FF90EF90C4
:1038700008958F929F92AF92BF920F931F93CF9311
:10388000DF93CDB7DEB7A1970FB6F894DEBF0FBEBA
:10389000CDBF19A2423008F44AE08E010F5D1F4FE0
:1038A000842E912CA12CB12CA50194010E942829D1
:1038B000E62FB901CA0101501109EA3014F4E05DA4
:1038C00001C0E95CD801EC93232B242B252B61F755
:1038D000C8010E94EF1AA1960FB6F894DEBF0FBE82
:1038E000CDBFDF91CF911F910F91BF90AF909F906F
:1038F0008F9008950F931F93CF93DF9377FF04C0AA
:10390000260F371F60E070E0DC011496CD91DC914A
:103910001597FB01E20FF31FCE17DF071CF49E0182
:10392000261B370B121613060CF046C0FA0157FD82
:103930003796DF01E3E0B595A795EA95E1F7AC9FEF
:10394000F001AD9FF00DBC9FF00D11246E0F7F1F95
:10395000DC015E96ED91FC915F97E60FF71F4770D3
:10396000552781E090E001C0880F4A95EAF7482F7B
:103970000130110539F078F002301105E9F42E0F0D
:103980003F1F13C02E0F3F1FE217F307A9F08081DE
:10399000842B8193F9CF80952E0F3F1FE217F307F9
:1039A00059F0908198239193F9CFE217F30721F012
:1039B000808184278193F9CFDF91CF911F910F915F
:1039C0000895EF92FF920F931F93CF93DF93EC0133
:1039D00077FDA5C0EC80FD806E157F050CF09FC0C3
:1039E00057FF04C0240F351F40E050E08E819F81B7
:1039F000FA01E20FF31F8E179F071CF49C01241B92
:103A0000350B121613060CF08AC0922F842F869560
:103A1000869586958E9DD0018F9DB00D11246A0FDD
:103A20007B1FAE8DBF8DA60FB71F4770B1F188E029
:103A3000841B482F682F70E0FB01E551FC4EE49198
:103A4000281798F4621B71092FEF30E002C03595FA
:103A500027956A95E2F7E2230130110549F078F0E5
:103A60000230110509F05BC00EC00130110519F4D8
:103A70008C91E82B0AC00130110508F049C0E0958F
:103A80008C91E82302C08C91E827EC93941708F4FA
:103A900046C02C813D81A20FB31FE92FE41BE83003
:103AA000F8F00230110561F48E2F9C9190959C9353
:103AB0002C813D81A20FB31F88508830B0F70FC012
:103AC00081E00115110509F480E081959E2F8C930A
:103AD0002C813D81A20FB31F98509830C0F7E7703A
:103AE000EE23E9F0F0E0ED51FC4EE49101301105D8
:103AF00039F048F00230110591F48C91E82706C0A6
:103B00008C91E82B03C0E0958C91E823EC9307C0DF
:103B10000230110509F4B7CFAE0DBF1DBECFDF9146
:103B2000CF911F910F91FF90EF9008952F923F92A8
:103B30004F925F926F927F928F929F92AF92BF92BD
:103B4000CF92DF92EF92FF920F931F93CF93DF9369
:103B5000CDB7DEB76B970FB6F894DEBF0FBECDBF03
:103B60009B8F8A8F5B011A01D22E1F830E83370130
:103B7000C982DC0158962D913C9159972115310548
:103B800009F0E6C018968D919C91199768177907EE
:103B90000CF0CDC11A968D919C911B97481759072F
:103BA0000CF0C5C18C2C912CFB0126E0C29EE00DCF
:103BB000F11D1124FB87EA871E161F060CF0B7C102
:103BC000A40183E0440F551F8A95E1F75D874C8778
:103BD000CA01820D931D181619060CF0A8C157963C
:103BE0008C91811104C05FEA5D1508F4D394AA8D0D
:103BF000BB8DED91FC9111970284F385E02DCD01F1
:103C00000995B5E0DB9EC0011124F5013596FF87CB
:103C1000EE87BB82AA8225019C012A193B09398BB8
:103C2000288BA101485F5F4F5B8B4A8BE889F9893C
:103C3000E40DF51DED51F14F5491588761013D821E
:103C40002C82888580FF13C0AA8DBB8DED91FC91DD
:103C5000B981B13031F40484F585E02D2E813F81A6
:103C600016C00684F785E02DEE80FF801AC0EE8135
:103C7000FF81E615F705F1F0AA8DBB8DED91FC9162
:103C8000B981B13051F40484F585E02D9301A6018A
:103C9000B2018A8D9B8D09950DC00684F785E02DB4
:103CA0007301840194014C815D816A817B818A8DDD
:103CB0009B8D0995E885E695E887FFEFCF1ADF0A27
:103CC0002C813D81280D391D3D832C834A895B89D8
:103CD000C416D50609F0B5CF5FEF451A550A8A819B
:103CE0009B81880D991D9B838A83AE85BF854A166B
:103CF0005B0609F09BCFEE81FF81E615F70509F41D
:103D0000F4C0EA8DFB8DA081B181F981F13079F4A5
:103D1000B5016B5F7F4F5096ED91FC9151978301F8
:103D200028E030E0A1018A8D9B8D0995DEC06A856F
:103D30007B85681979091E96ED91FC911F97730197
:103D40000C851D859401A1018A8D9B8D0995CDC09F
:103D5000F9013496E491DE1AF90132968591949135
:103D6000B7E0DB9E800D911D1124F901259134915E
:103D70003B8B2A8BFC01259134912901FC01329661
:103D8000C490319634913E87329614913196D490F6
:103D90004981423058F0612E012E000C77088D2D9C
:103DA0000D2C000C990B9987888704C019861886FA
:103DB000612C712CAA8DBB8DED91FC911197028421
:103DC000F385E02DCD010995B9818B2E912C689C4E
:103DD000C001699C900D789C900D1124FC01EA0DA6
:103DE000FB1DFD87EC871A82712C612CE12F110FCE
:103DF000FF0B95012E0F3F1F3B872A87AC0CB11C90
:103E0000A5014E0F5F1F5F8B4E8BC1018D0D911D64
:103E1000D7FC9A95998F888F9E85691608F065C0A2
:103E2000862D90E048855985480F591F489D90017F
:103E3000499D300D589D300D1124D101A20FB31FA3
:103E4000B98BA88BEC85FD85FD83EC83AA84BB84AC
:103E5000DA80FA85DF1A288D398D280F391F3D8BBE
:103E60002C8B8D2D8A0D4E895F89A416B506C1F164
:103E7000877041F4C2010196EA89FB89E40DF51DC2
:103E800074902C0177FE21C0AA8DBB8DED91FC9121
:103E9000B981B13061F40484F585E02D2E813F8134
:103EA0004C895D89B5018A8D9B8D09950EC006846C
:103EB000F785E02DEE80FF808401940148895989BF
:103EC0006C817D818A8D9B8D0995770CEFEFAE1A01
:103ED000BE0A2C813D81280D391D3D832C83C1CF25
:103EE0003A813C0D3A83639497CFAA8DBB8DED91B7
:103EF000FC9111970688F789E02DCD016B960FB6DE
:103F0000F894DEBF0FBECDBFDF91CF911F910F910F
:103F1000FF90EF90DF90CF90BF90AF909F908F90E9
:103F20007F906F905F904F903F902F9009946B9689
:103F30000FB6F894DEBF0FBECDBFDF91CF911F91BA
:103F40000F91FF90EF90DF90CF90BF90AF909F9038
:103F50008F907F906F905F904F903F902F9008953B
:103F600020912403211103C08FEF9FEF08955FB7C5
:103F7000F89422E02093E9002091F20030E012163C
:103F8000130614F421E030E0422FFC0184E6415096
:103F900038F02898809323039091F1009193F7CF04
:103FA0002115310521F08091F200882319F05FBFBF
:103FB000C90108958BE68093E800F9CF2FB7F894F4
:103FC00083E08093E9009091E800892F807295FF4B
:103FD00004C09091F20080E4891B2FBF0895809166
:103FE000290381110DC082E08093250384E0809332
:103FF0002603109228031092270381E0809329035F
:1040000085E293E00895CF92DF92EF92FF920F93B3
:104010001F93CF93DF936C017A018B01C0E0D0E056
:10402000CE15DF0581F0D8016D918D01D601ED919E
:10403000FC910190F081E02DC6010995892B11F0CA
:104040002196EECF7E01C701DF91CF911F910F9195
:10405000FF90EF90DF90CF90089540911F02509114
:10406000200220911D0230911E0242175307B4F422
:104070009091E8009570E1F39091E80092FD19C0ED
:104080008093F10080911F029091200201968F731E
:104090009927892B19F48EEF8093E80080911F02F5
:1040A0009091200201969093200280931F0281E05C
:1040B000089580E00895615030F02091F100FC01F6
:1040C00020830196F8CF289884E6809323030895EF
:1040D0001F920F920FB60F9211248F939F93AF935D
:1040E000BF93EF93FF938091280290912902A091B2
:1040F0002A02B0912B02892B8A2B8B2B51F19091A4
:104100002502E0912602F091270280818927808391
:104110008091280290912902A0912A02B0912B024D
:10412000181619061A061B061CF580912802909194
:104130002902A0912A02B0912B020197A109B1098D
:104140008093280290932902A0932A02B0932B0215
:104150000FC0809171008D7F809371008091250246
:10416000E0912602F0912702908180958923808337
:10417000FF91EF91BF91AF919F918F910F900FBEE3
:104180000F901F9018958AE491E090937A028093A3
:1041900079028091970290919802009711F00C9407
:1041A000142B0895789484B5826084BD84B58160B1
:1041B00084BD85B5826085BD85B5816085BD8091F2
:1041C0006E00816080936E0010928100809181006A
:1041D0008260809381008091810081608093810062
:1041E0008091800081608093800080919100826046
:1041F00080939100809191008160809391008091E3
:1042000090008160809390008091C10084608093D1
:10421000C1008091C10082608093C1008091C10083
:1042200081608093C1008091C30081608093C3004E
:104230008091C00082608093C0008091C200816044
:104240008093C20080917A00846080937A0080918C
:104250007A00826080937A0080917A0081608093F6
:104260007A0080917A00806880937A00109224030B
:1042700010922102109222028091D70081608093D7
:10428000D70080EA8093D80089B5806189BD89B55F
:10429000826089BD09B400FEFDCF61E070E080E07E
:1042A00090E00E9431118091D8008F7C80618093D2
:1042B000D8008091E000807F8093E0008091E10051
:1042C0008E7E8093E1008DE08093E200559A209AE3
:1042D0008091970290919802892B11F520917F028D
:1042E00030918002C901079697FD079633E09595B6
:1042F00087953A95E1F720917D0230917E02AC01DD
:10430000429FC001439F900D529F900D11240E9427
:104310007C2A9093980280939702892B09F41CC100
:104320000E94081880917F029091800260917D0226
:1043300070917E02813291050CF4CAC4AC014054E4
:10434000510957FF02C04F5F5F4F55954795625522
:10435000710977FF02C06F5F7F4F7595679590E495
:10436000E92EF12C02E510E02FE133E089E792E03D
:104370000E94281882E080939A0280919502909181
:104380009602892B09F4BFC480917F02909180022C
:10439000809709F4B6C48DE38093990210920002CD
:1043A0001092FF0110925402109276021092520263
:1043B00081E08093510210922C0261E082E00E9421
:1043C0002E1061E083E00E942E108091B9008E7F54
:1043D0008093B9008091B9008D7F8093B90088E403
:1043E0008093B80085E48093BC0081E19EE09093C7
:1043F000FE018093FD0182E19EE09093FC01809399
:10440000FB018091A00287FD1EC061E00E945D104B
:1044100061E08091A0020E942E1061E070E080E0D7
:1044200090E00E94311160E08091A0020E942E1065
:104430006AE070E080E090E00E94311161E08091DC
:10444000A0020E942E108091950290919602892BD5
:1044500009F418C52091AF023091B0024091B10229
:104460005091B20260E074E284EF90E00E9428294B
:10447000DA01C9014097A109B109B695A7959795A9
:1044800087958093B80064E08BE391E00E940D195A
:1044900060917F02615089E792E00E94BD1164E063
:1044A00087E391E00E940D1980919A02813009F40E
:1044B00000C564E189E792E00E94BD1164E083E3F6
:1044C00091E00E940D1980917D0290917E028038CA
:1044D000910509F001C580917F02909180028032A0
:1044E000910509F0E8C464E08FE291E00E940D19A3
:1044F00069ED89E792E00E94BD1180919A028130B6
:1045000009F406C561EF89E792E00E94BD1166E0FB
:1045100083E291E00E940D1980919502909196029C
:10452000892B09F4F7C42091B3023091B402409171
:10453000B5025091B60260E074E284EF90E00E9410
:104540002829DA01C9014097A109B109B695A795B3
:10455000979587958093B80081E080938D0281E0E4
:1045600090E090938C0280938B0290938A028093C8
:10457000890262E082E10E945D1062E083E10E94B4
:104580005D1062E084E10E945D1062E085E10E94BE
:104590005D1062E087E00E945D1062E088E00E94AA
:1045A0005D1061E089E00E945D1061E08AE00E9498
:1045B0005D1061E085E00E945D106FEF70E089E0C2
:1045C0000E9499106FEF70E08AE00E94991080E2DB
:1045D00090E0909315028093140288E190E090930C
:1045E0001702809316021092180282E08093130241
:1045F00083E090E090931C0280931B0280E890E09F
:1046000090930702809306020E94892822E330E0FB
:1046100040E050E00E94F628DC01CB010896A11D85
:10462000B11D90930902809308020E94892824E01A
:1046300030E040E050E00E94F628DC01CB0101961A
:10464000A11DB11D90930B0280930A0210920C02DF
:1046500080E090E00E94E0288093770281E090E083
:104660000E94E028809378028091770290917802EE
:10467000019631F410927802109277020E94E917A5
:1046800090E8292E312C22E3422E512C612C712CE2
:1046900034E0832E912CA12CB12CC1E0D0E080918C
:1046A0001802823071F480E290E0909315028093BA
:1046B000140288E190E09093170280931602109202
:1046C000180282E10E940510892B81F48091160264
:1046D00090911702049797FD05C09093170280935D
:1046E000160204C0109217021092160285E10E9471
:1046F0000510892B71F4809116029091170204968F
:104700008933910514F088E390E090931702809329
:10471000160284E10E940510892B81F48091140215
:1047200090911502049797FD05C090931502809310
:10473000140204C0109215021092140283E10E9428
:104740000510892B89F4809114029091150204962A
:10475000813891052CF4909315028093140204C0C3
:10476000309215022092140287E00E940510892BD6
:1047700029F480911302823009F4DFC3809113027F
:1047800081110FC080910D0290910E0206969093B8
:104790000E0280930D02813891051CF082E0809317
:1047A000130280910C02823021F530920702209290
:1047B00006020E948928A30192010E94F628DC01CA
:1047C000CB010896A11DB11D9093090280930802A8
:1047D0000E948928A50194010E94F628DC01CB01E2
:1047E0000196A11DB11D90930B0280930A021092B5
:1047F0000C0280910C02813019F482E080930C024B
:1048000080910C02811133C08091060290910702C1
:1048100020910A0230910B02821B930B97FD05C079
:10482000909307028093060222C0309207022092E2
:1048300006020E948928A30192010E94F628DC0149
:10484000CB010896A11DB11D909309028093080227
:104850000E948928A50194010E94F628DC01CB0161
:104860000196A11DB11D90930B0280930A028091C5
:104870001302811138C080910C02811134C0209143
:1048800006023091070280910D0290910E02AC0158
:10489000485F5F4F4217530734F1281739071CF15F
:1048A00020910F023091100280910802909109022C
:1048B000A9014E5F5F4F48175907ACF04096821729
:1048C00093078CF082E08093130281E080930C02C6
:1048D0008091190290911A020A9690931A0280937D
:1048E00019020E94AB1380911802811137C0809188
:1048F0000C02811133C02091060230910702809191
:10490000140290911502AC01485F5F4F42175307A4
:104910002CF12817390714F1209116023091170253
:104920008091080290910902A901405F5F4F4817EA
:104930005907A4F040968217930784F021E0209352
:10494000180280911B0290911C02019790931C0207
:1049500080931B0220930C020E94AB1380911B02D8
:1049600090911C0297FF77C064EF71E080E090E0C7
:104970000E9431118091190290911A0220917702C0
:10498000309178022817390730F490937802809399
:1049900077020E94E917B0E2EB2EF12C04E010E060
:1049A00080E3C82ED12C0E940818D0938C02C093AB
:1049B0008B02D0938A02C093890285E290E09093A3
:1049C000860280938502A0E1B0E0B0938802A093B4
:1049D000870282E791E00E94EF1A4DE150E0509388
:1049E000860240938502F0928802E092870281E875
:1049F00091E00E94EF1A6091190270911A0280E012
:104A000090E04AE00E94391C1093860200938502D0
:104A1000D0928802C09287028CE791E00E94EF1A40
:104A2000609177027091780280E090E04AE00E9405
:104A3000391C0E94011B88E00E940510892B09F097
:104A4000B2CF10921A021092190283E090E0909374
:104A50001C0280931B020E9408181092860210927A
:104A600085021092880210928702C0901B02D0909B
:104A70001C020D2C000CEE08FF08F7FE0EC06DE2C4
:104A800089E792E00E94A00E66277727CB016C1978
:104A90007D098E099F094AE003C04AE0C701B601BB
:104AA0000E94391C80E490E09093860280938502F6
:104AB00010928802109287026091190270911A0276
:104AC00080E090E04AE00E94391C80911802811138
:104AD00013C0409116025091170260911402709118
:104AE0001502A0E1EA2EF12C08E010E021E13EE001
:104AF00089E792E00E942818809118028130B1F471
:104B000040911602509117026091140270911502A3
:104B1000F8E0EF2EF12C00E110E021E03EE089E723
:104B200092E00E94281882E080931802809113027C
:104B3000811113C040910F025091100260910D023B
:104B400070910E02E2E0EE2EF12C08E010E02FEF63
:104B50003DE089E792E00E94281880910C028111C3
:104B600013C04091080250910902609106027091B1
:104B7000070230E1E32EF12C00E110E02FED3DE0E3
:104B800089E792E00E94281880910C02813099F404
:104B9000409108025091090260910602709107024B
:104BA00028E0E22EF12C00E110E021E03EE089E770
:104BB00092E00E9428186091020270910302809195
:104BC0000402909105020E94CB2990E4E92EF12C79
:104BD00000E810E02FED39E040E050E089E792E096
:104BE0000E9428182DEC3CEC4CEC5DE36091020235
:104BF0007091030280910402909105020E9459294C
:104C00006B017C0120E030E04EEF52EC0E94C6299F
:104C100087FD09C0C0920202D0920302E092040212
:104C2000F092050208C01092020210920302109244
:104C300004021092050260910001709101018091BF
:104C40000201909103010E94CB2980E4E82EF12C0F
:104C500000E810E02FED35E040E050E089E792E019
:104C60000E9428182DEC3CEC4CEC5DE360910001B7
:104C70007091010180910201909103010E945929D4
:104C80006B017C0120E030E0A9010E94C62987FD6C
:104C900009C0C0920001D0920101E0920201F0929D
:104CA00003010CC080E090E0A0E0B3E48093000139
:104CB00090930101A0930201B09303010E94011B94
:104CC00080E090E0892B09F4EACC0E940000E7CC58
:104CD000AC014052510957FF02C04F5F5F4F5595DD
:104CE00047956357710977FF02C06F5F7F4F7595D6
:104CF000679510E2E12EF12C03E710E02FE331E09D
:104D000035CB8CE349CB61E080919E020E945D101F
:104D100061E080919F020E945D1080919E02082EAA
:104D2000000C990BFC01ED53F14FE491F0E0EE0F14
:104D3000FF1FEB54F14F259134913093A60220933D
:104D4000A502FC01EA56F14FE491E093AB02809199
:104D50009F02082E000C990BFC01ED53F14FE491DA
:104D6000F0E0EE0FFF1FEB54F14FA591B491B0931B
:104D7000A802A093A702FC01EA56F14FE491E09348
:104D8000AC028C91E82BEC93809193029091940269
:104D9000892B09F434C0CFB7F894809101028111B6
:104DA00027C0E4EDFEE08491E7EAFEE09491E82F6D
:104DB000F0E0EE0FFF1FEB5EFE4FA591B491EC917A
:104DC000E92321F461E081E10E942E1061E081E19C
:104DD0000E945D108CB580618CBD8CB580648CBDEB
:104DE00061E08FE00E945D1061E080E10E945D1053
:104DF000809101028F5F80930102CFBF02CB61E0FF
:104E000080919C020E945D1061E080919D020E9451
:104E10005D1080919C02082E000C990BFC01ED5353
:104E2000F14FE491F0E0EE0FFF1FEB54F14F2591AD
:104E300034913093A2022093A102FC01EA56F14F73
:104E4000E491E093A90280919D02082E000C990B39
:104E5000FC01ED53F14FE491F0E0EE0FFF1FEB5436
:104E6000F14FA591B491B093A402A093A302FC01C9
:104E7000EA56F14FE491E093AA028C91E095E82381
:104E8000EC93BFCA8091930290919402892B31F0E8
:104E90008091AD029091AE020E942012E091A70293
:104EA000F091A80290818091AC0280958923808343
:104EB000EACA60E1FFCA8034910509F019CB63E0CA
:104EC0008CE291E00E940D1980919A02813011F0DC
:104ED0006FEC19C06FE917C08036910509F008CB57
:104EE00080917F0290918002409709F001CB63E0AE
:104EF00089E291E00E940D1980919A02813011F0AF
:104F00006FEA01C060E189E792E00E94BD11F0CA3A
:104F100062E2F9CAE091A702F091A8029081809123
:104F2000AC02892B80838091930290919402892B0B
:104F300009F412CB0E94B5110FCB1092130280918D
:104F400014029091150290930E0280930D028091AD
:104F500016029091170208969093100280930F0208
:104F60000DCCDF92EF92FF920F931F93CF93DF93BD
:104F7000D82EF92EE42E062F10E0C8010196880FD6
:104F80000E942D2083E00E942D20CD2DDF2D0C0FBF
:104F90001D1FC017D10789F0E7FE03C0FE018491F1
:104FA00001C088810E942D20F82E80E00E942D20D3
:104FB0008F2121968111EDCF01C081E0DF91CF914A
:104FC0001F910F91FF90EF90DF900895E6ECF2E0D3
:104FD0001382128288EE93E0A0E0B0E08483958390
:104FE000A683B78326E231E0318320832FEF3FEFA2
:104FF00035872487E6E1F3E0138212828483958368
:10500000A683B78388E391E091838083E9E7F2E0A8
:105010001382128240E850E05583448380E490E09C
:10502000978386835187408793878287158A158661
:1050300014861786168681E0848B338B228B318B06
:10504000208B868B178A118E108E2AE431E03183F3
:10505000208322E233E0338F228F158E148E178E39
:10506000168E9FEF93A394A394E095A39CE096A340
:1050700096E097A390E594AB85AB08958F929F92AD
:10508000AF92BF92CF92DF92EF92FF92CF93DF93D6
:10509000EC01688179818A819B81611571058105A7
:1050A000910521F464E279ED8BE597E02DE133EF92
:1050B00041E050E00E94F62849015A019B01AC01F1
:1050C000A7EAB1E40E9415296B017C01ACEEB4EFB4
:1050D000A50194010E942329DC01CB018C0D9D1DAB
:1050E000AE1DBF1DB7FF03C00197A109B04888835B
:1050F0009983AA83BB83BC01CD019F77DF91CF91B8
:10510000FF90EF90DF90CF90BF90AF909F908F90E7
:1051100008958F929F92AF92BF92CF92DF92EF92BB
:10512000FF92609111017091120180911301909191
:105130001401611571058105910521F464E279ED91
:105140008BE597E02DE133EF41E050E00E94F62837
:1051500049015A019B01AC01A7EAB1E40E9415295B
:105160006B017C01ACEEB4EFA50194010E942329F0
:10517000DC01CB018C0D9D1DAE1DBF1DB7FF03C013
:105180000197A109B0488093110190931201A09357
:105190001301B0931401BC01CD019F77FF90EF90F4
:1051A000DF90CF90BF90AF909F908F9008956093C5
:1051B00011017093120180931301909314010895CB
:1051C000F999FECF92BD81BDF89A992780B50895CF
:1051D000262FF999FECF1FBA92BD81BD20BD0FB613
:1051E000F894FA9AF99A0FBE01960895052E97FB46
:1051F0001EF400940E940D2957FD07D00E94282913
:1052000007FC03D04EF40C940D2950954095309531
:1052100021953F4F4F4F5F4F089590958095709522
:1052200061957F4F8F4F9F4F08950E944A29A59FF8
:10523000900DB49F900DA49F800D911D1124089591
:10524000B7FF0C9415290E941529821B930B089512
:10525000A1E21A2EAA1BBB1BFD010DC0AA1FBB1F7A
:10526000EE1FFF1FA217B307E407F50720F0A21BEC
:10527000B30BE40BF50B661F771F881F991F1A9459
:1052800069F760957095809590959B01AC01BD0183
:10529000CF010895A29FB001B39FC001A39F700DDD
:1052A000811D1124911DB29F700D811D1124911D2E
:1052B00008955058BB27AA270E9471290C943C2AB4
:1052C0000E942E2A38F00E94352A20F039F49F3FA0
:1052D00019F426F40C942B2A0EF4E095E7FB0C94B9
:1052E000252AE92F0E944D2A58F3BA17620773073F
:1052F0008407950720F079F4A6F50C946F2A0EF434
:10530000E0950B2EBA2FA02D0B01B90190010C01D5
:10531000CA01A0011124FF27591B99F0593F50F4ED
:10532000503E68F11A16F040A22F232F342F442745
:10533000585FF3CF469537952795A795F04053953D
:10534000C9F77EF41F16BA0B620B730B840BBAF00D
:105350009150A1F0FF0FBB1F661F771F881FC2F778
:105360000EC0BA0F621F731F841F48F4879577958C
:105370006795B795F7959E3F08F0B0CF9395880F46
:1053800008F09927EE0F9795879508950E94012AB6
:1053900008F481E008950E94D2296894B1110C9418
:1053A000702A08950E94552A88F09F5798F0B92FC7
:1053B0009927B751B0F0E1F0660F771F881F991F4A
:1053C0001AF0BA95C9F714C0B13091F00E946F2A53
:1053D000B1E008950C946F2A672F782F8827B85F63
:1053E00039F0B93FCCF3869577956795B395D9F7A2
:1053F0003EF490958095709561957F4F8F4F9F4FAC
:105400000895990F0008550FAA0BE0E8FEEF161655
:105410001706E807F907C0F012161306E407F507A8
:1054200098F0621B730B840B950B39F40A2661F01C
:10543000232B242B252B21F408950A2609F4A140BF
:10544000A6958FEF811D811D089597F99F6780E8CC
:1054500070E060E008959FEF80EC089500240A94C6
:105460001616170618060906089500240A9412163F
:105470001306140605060895092E0394000C11F472
:10548000882352F0BB0F40F4BF2B11F460FF04C01F
:105490006F5F7F4F8F4F9F4F089557FD9058440F78
:1054A000551F59F05F3F71F04795880F97FB991F83
:1054B00061F09F3F79F08795089512161306140640
:1054C000551FF2CF4695F1DF08C0161617061806CD
:1054D000991FF1CF86957105610508940895E894A8
:1054E000BB2766277727CB0197F90895EE0FFF1F9B
:1054F0000590F491E02D09940F931F93CF93DF93C0
:105500008230910510F482E090E0E0913303F09155
:10551000340320E030E0A0E0B0E0309719F14081A2
:1055200051810281138148175907C8F084179507E4
:1055300069F4109731F012960C93129713961C93FE
:1055400027C0009333031093340322C02115310583
:1055500019F04217530718F49A01BD01EF01DF015A
:10556000F801DBCF21153105F9F0281B390B243068
:10557000310580F48A819B816115710521F0FB0161
:105580009383828304C09093340380933303FE019A
:10559000329644C0FE01E20FF31F81939193225093
:1055A0003109398328833AC0209131033091320385
:1055B000232B41F4209117013091180130933203CD
:1055C00020933103209115013091160121153105E9
:1055D00041F42DB73EB74091190150911A01241B97
:1055E000350BE0913103F0913203E217F307A0F499
:1055F0002E1B3F0B2817390778F0AC014E5F5F4F29
:105600002417350748F04E0F5F1F50933203409325
:1056100031038193919302C0E0E0F0E0CF01DF918C
:10562000CF911F910F910895CF93DF93009709F4C5
:1056300081C0FC01329713821282A0913303B09192
:105640003403109781F420813181820F931F2091C0
:105650003103309132032817390751F5F0933203A3
:10566000E093310367C0ED0120E030E0CE17DF07A3
:1056700040F44A815B819E0141155105F1F0EA0138
:10568000F5CFD383C28340815181840F951FC81702
:10569000D90759F488819981840F951F02969183C7
:1056A00080838A819B81938382832115310529F42C
:1056B000F0933403E09333033DC0E901FB83EA83B5
:1056C00049915991C40FD51FEC17FD0761F48081F2
:1056D0009181840F951F0296E901998388838281C5
:1056E00093819B838A83E0E0F0E012968D919C91F8
:1056F0001397009719F0FD01DC01F7CF8D919C9174
:1057000011979D012E5F3F4F820F931F2091310310
:10571000309132032817390769F4309729F4109231
:1057200034031092330302C013821282B093320307
:10573000A0933103DF91CF91089581E090E0F89438
:105740000C94A92BDC0101C06D9341505040E0F74F
:10575000089519E0CDEFD9E004C0FE010E94762A39
:0C5760002196CE3FD107C9F7F894FFCF87
:10576C0000000043FFFFFFFF00E10000000000000D
:10577C00FF0100000000003503800000C1808100A3
:10578C00000000000000D91314149A14EF13FA133C
:10579C00C2149E14000000006B0E3E0E9B0E400CBB
:1057AC00360E220E130E00000000A00E03209B0EDE
:1057BC009A0E220D400C690C410C5D0C510C700CB6
:1057CC00400C8B0A2312760FBA0F890B6C0BFF0A55
:1057DC00A00A47414D45204F56455200486967681D
:0A57EC002053636F72653A2000003D
:00000001FF
