:100000000C94E4090C940C0A0C940C0A0C940C0A41
:100010000C940C0A0C940C0A0C940C0A0C940C0A08
:100020000C940C0A0C940C0A0C94681D0C94D71DAB
:100030000C940C0A0C940C0A0C940C0A0C940C0AE8
:100040000C940C0A0C940C0A0C940C0A0C940C0AD8
:100050000C940C0A0C940C0A0C940C0A0C9464205A
:100060000C940C0A0C940C0A0C940C0A0C940C0AB8
:100070000C940C0A0C940C0A0C940C0A0C940C0AA8
:100080000C9409200C940C0A0C940C0A0C940C0A85
:100090000C94AE200C940C0A0C940C0A0C940C0AD0
:1000A0000C940C0A0C940C0A0C940C0A0001030723
:1000B0000F1F3F7F0080C0E0F0F8FCFE0000000052
:1000C000003E5B4F5B3E3E6B4F6B3E1C3E7C3E1CDE
:1000D000183C7E3C181C577D571C1C5E7F5E1C0024
:1000E000183C1800FFE7C3E7FF0018241800FFE7DB
:1000F000DBE7FF30483A060E2629792926407F059E
:100100000507407F05253F5A3CE73C5A7F3E1C1CB3
:1001100008081C1C3E7F14227F22145F5F005F5F73
:1001200006097F017F006689956A6060606060945F
:10013000A2FFA29408047E040810207E2010080864
:100140002A1C08081C2A08081E101010100C1E0C6F
:100150001E0C30383E3830060E3E0E060000000001
:100160000000005F00000007000700147F147F14E8
:10017000242A7F2A1223130864623649562050002D
:1001800008070300001C2241000041221C002A1C19
:100190007F1C2A08083E0808008070300008080804
:1001A0000808000060600020100804023E51494524
:1001B0003E00427F400072494949462141494D3342
:1001C0001814127F1027454545393C4A49493141A9
:1001D000211109073649494936464949291E000077
:1001E00014000000403400000008142241141414CC
:1001F0001414004122140802015909063E415D59B8
:100200004E7C1211127C7F494949363E41414122C0
:100210007F4141413E7F494949417F090909013EEA
:10022000414151737F0808087F00417F4100204011
:10023000413F017F081422417F404040407F021C23
:10024000027F7F0408107F3E4141413E7F0909093A
:10025000063E4151215E7F09192946264949493206
:1002600003017F01033F4040403F1F2040201F3FCC
:100270004038403F63140814630304780403615951
:10028000494D43007F414141020408102000414193
:10029000417F04020102044040404040000307083F
:1002A0000020545478407F2844443838444444283B
:1002B000384444287F385454541800087E090218E2
:1002C000A4A49C787F0804047800447D400020406A
:1002D000403D007F1028440000417F40007C0478AE
:1002E00004787C080404783844444438FC182424F6
:1002F0001818242418FC7C08040408485454542476
:1003000004043F44243C4040207C1C2040201C3CF2
:100310004030403C44281028444C9090907C4464E9
:10032000544C44000836410000007700000041367C
:10033000080002010204023C2623263C1EA1A16102
:10034000123A4040207A3854545559215555794134
:100350002254547842215554784020545579400C09
:100360001E527212395555555939545454593955EC
:100370005454580000457C410002457D420001452F
:100380007C407D1211127DF0282528F07C545545C3
:10039000002054547C547C0A097F4932494949322F
:1003A0003A4444443A324A4848303A4141217A3A40
:1003B00042402078009DA0A07D3D4242423D3D400C
:1003C00040403D3C24FF2424487E4943662B2FFCBB
:1003D0002F2BFF0929F620C0887E09032054547969
:1003E000410000447D413048484A32384040227A3A
:1003F000007A0A0A727D0D19317D2629292F2826B7
:100400002929292630484D402038080808080808BE
:100410000808382F10C8ACBA2F102834FA00007B17
:10042000000008142A142222142A1408550055002A
:1004300055AA55AA55AAFF55FF55FF000000FF0019
:10044000101010FF00141414FF001010FF00FF1014
:1004500010F010F0141414FC001414F700FF000046
:10046000FF00FF1414F404FC141417101F10101FC5
:10047000101F1414141F00101010F0000000001FB3
:10048000101010101F10101010F010000000FF10BE
:100490001010101010101010FF10000000FF1400BA
:1004A00000FF00FF00001F10170000FC04F41414EC
:1004B0001710171414F404F40000FF00F7141414B8
:1004C00014141414F700F7141414171410101F1038
:1004D0001F141414F4141010F010F000001F101F5B
:1004E0000000001F14000000FC140000F010F010C9
:1004F00010FF10FF141414FF141010101F00000040
:1005000000F010FFFFFFFFFFF0F0F0F0F0FFFFFF43
:100510000000000000FFFF0F0F0F0F0F384444389A
:1005200044FC4A4A4A347E02020606027E027E02E9
:1005300063554941633844443C04407E201E2006F4
:10054000027E020299A5E7A5991C2A492A1C4C7231
:1005500001724C304A4D4D303048784830BC625AB8
:10056000463D3E494949007E0101017E2A2A2A2A48
:100570002A44445F444440514A444040444A514024
:100580000000FF0103E080FF000008086B6B0836E5
:1005900012362436060F090F060000181800000056
:1005A0001010003040FF0101001F01011E00191D45
:1005B0001712003C3C3C3C00000000000000000022
:1005C0002300260029002C002F0000000002000953
:1005D0000F0000030401000C0000000000000000F8
:1005E00000000000000000000000000000240027C0
:1005F000002A002D003000DB40A4A62EAFDA0281D5
:10060000DA1281DA02818F2000A1C8D300408DAEBA
:10061000D580A8000060000000000000000000007D
:1006200000000000E00000000000000000000000EA
:10063000000001E0000000000000000000000000D9
:100640000001F000000000000000000000000000B9
:1006500003F00000000000000000000000000007A0
:10066000F00000000000000000000000000007F89B
:10067000000000000000000000000000000FF80073
:10068000000003C0007E000001E0007F0FF80000C2
:100690000003C000FE000001E000FFEFF8000000D2
:1006A00003C000FE000001E000FFFFF800000003AF
:1006B000C000F00000000F007FFE7FC0000003C0FC
:1006C00000F00000000F003FFE7FF83FF1FBCFFC81
:1006D000FEF3BC3DEFE01FFE7FFF7FFBFFDFFEFE72
:1006E000FFBC3DEFE01FC6FFFF7FFBFFDFFEFEFF0D
:1006F000BC3DEFE00FE3C7FE787BC3DE1EF0FFBC1E
:100700003DEF0007FF87FC787BC3DE1EF0F83C3D21
:10071000EF0001FFFFF0007BC3C01EF0F03C3DEF97
:100720000001F37FE03FFBC3CFFEF0F03C3DEF0064
:1007300003E33F807FFBC3DFFEF0F03C3DEF0007AB
:10074000E73C00787BC3DE1EF0F03C3DEF0007FF86
:10075000BE00787BC3DE1EF0F03C3DEF0007FFFEDD
:1007600000787BC3DE1EF0F03C3DEF000FFFFE0083
:100770007FFBFFDFFEF0F03FFDEFE00FFFFF007FAC
:10078000FBFFDFFEF0F03FFDEFE00FF9FF003E79E9
:10079000F9CF9EF0F01F3DE7E01FF1FF00000000E1
:1007A00000000000000000001F80FF007FFFFFFF2F
:1007B000FFFFFFFFFFFFE01C007F007FFFFFFFFE4A
:1007C000B46D888D18E000001F007FFFFFFFFE95CD
:1007D000AD7DB577E000000F007FFFFFFFFEA5AD08
:1007E0009D8D19E0000006007FFFFFFFFEB5ADED17
:1007F000B57EE00000000000018000000000000065
:10080000000000038000000000000000000007C09E
:1008100000000000000000000007C0000000000011
:10082000000000000FC00000000000000000001FDA
:10083000E00000000000000000001FE000000000D9
:1008400000000000003FE000000000000000000089
:100850003FF00000000000000000007FF0000000FA
:10086000000000001FF87FF0000000000000003FC3
:10087000FE7FF0000000000000003FFF7FF000005E
:1008800000000000001FFFFBE0000000000000006F
:100890000FFFF9FFC00000000000000FFFF9FFF894
:1008A00000000000000007FFF1FFFF000000000053
:1008B0000003FC73FFFF80000000000001FE3FFF0B
:1008C000FF80000000000000FF1E0FFF000000007E
:1008D0000000007FFE1FFC000000000000003FFF42
:1008E000FFF8000000000000000FDFFFE000000044
:1008F000000000001F19FFC0000000000000003FC2
:100900003CFF00000000000000007E7CF8000000BA
:1009100000000000007FFE7C0000000000000000DE
:10092000FFFFFC0000000000000000FFFFFE0000D1
:10093000000000000000FFFFFE00000000000000BB
:1009400001FFEFFE0000000000000001FFCFFE00ED
:1009500000000000000003FF07FE00000000000090
:100960000003FC07FE0000000000000003F003FE8F
:1009700000000000000000018000FE0000000000F8
:1009800000000000007E00000000000000000000E9
:100990003E000000000000000000000C000000000D
:1009A0000000078000FC000003C000000007800179
:1009B000FC000003C0000000078001FC000003C031
:1009C000000000078001E00000001E00000007801A
:1009D00001E00000001E007FE3F79FF9FDE7787B50
:1009E000DFC0FFF7FFBFFDFDFF787BDFC0FFF7FF34
:1009F000BFFDFDFF787BDFC0F0F787BC3DE1FF78EE
:100A00007BDE00F0F787BC3DE1F0787BDE0000F78D
:100A100087803DE1E0787BDE007FF7879FFDE1E0A6
:100A2000787BDE00FFF787BFFDE1E0787BDE00F03A
:100A3000F787BC3DE1E0787BDE00F0F787BC3DE165
:100A4000E0787BDE00F0F787BC3DE1E0787BDE00FC
:100A5000FFF7FFBFFDE1E07FFBDFC0FFF7FFBFFD5A
:100A6000E1E07FFBDFC07CF3F39F3DE1E03E7BCF25
:100A7000C00000000000000000000000FFFFFFFFBA
:100A8000FFFFFFFFFFFFC0FFFFFFFFFD68DB111A45
:100A900031C0FFFFFFFFFD2B5AFB6AEFC0FFFFFFD6
:100AA000FFFD4B5B3B1A33C0FFFFFFFFFD6B5BDBC2
:100AB0006AFDC0000000000000000000000000000F
:100AC00000000020000800000000000000000000FE
:100AD000000000000000000000000800000000000E
:100AE0000000000000000002800000001000000074
:100AF000000020000000000EA00000000000000028
:100B0000000000000000003A0000000000000000AB
:100B10000000000000000055080000000000000078
:100B20000000000000000074400000000000100001
:100B300040000000020000D0008000000000000023
:100B400000000000000040EA8000000000000000FB
:100B500000000000000000A00000000000000000F5
:100B600000000000000000D008800000000000002D
:100B700000000000000000A40000000000000000D1
:100B800000000000000000C00A000000000000009B
:100B900000400000000000482100000000000008A4
:100BA00000002000000000400400004000000000A1
:100BB0000000000000000020000000000000000015
:100BC00000000000000000081200000000044000C7
:100BD000000000000000000000000000005BB40006
:100BE000000000000000000540000000017D5A8068
:100BF00000000000080000000000000003EB494076
:100C00000000000000000000000000000BBAA41467
:100C10000000000000000000000000002ED5510080
:100C20000080000000000000000000001B6A044477
:100C3000000000000000000000000000FFB55001AF
:100C40000000000000000000000000016AAA02206D
:100C5000400000000000000000000002DD554004DC
:100C6000000000000000000000000003F548110033
:100C7000200000000000002000000006B6A2842032
:100C800000000000000400000000000FEA90400097
:100C900090000000000000000000800DBAA42002B7
:100CA000044000000000000000000007EA81008806
:100CB00040000040000000000000001EAA2808209C
:100CC00004000000000000000000003BB48122800E
:100CD00000004000000000000000002ED21048007C
:100CE000020000000000000000000037594500002D
:100CF00000000000000080000000001AC42800006E
:100D000002000000000000000000002F7542800477
:100D100000000000001084000000003AA80010103D
:100D200042000000000000000000003FA524004039
:100D300000000000020490000000006A5000400023
:100D4000040000000002A0000000003D88890002AD
:100D50000200000000008000000000356200010871
:100D6000000000000057F5000000005A8820002015
:100D70004A0000000000800000000036A080000251
:100D8000000000000002A0000000002D120002116F
:100D90000A000000000490000000001AC000004497
:100DA00044000200000000000000002D29040002A1
:100DB0002804000000108400000000150020082115
:100DC00010000001000000000040000CAA00010813
:100DD000A8000000000080000000000A800010044D
:100DE000400000000000000000000005510002214A
:100DF00030000000000040000000000A0421081438
:100E0000400000000000000000000005508000418C
:100E1000400000000000000000000001220000006F
:100E200080000000000000000000000280000209B5
:100E30000000000000000000000000005088202298
:100E4000020000000000000000000000840000021A
:100E500000000000000200000000000010000088F8
:100E60000004000000000000000000000900002055
:100E7000000000020000000000000800024804001A
:100E8000000000000000000000000000008241009F
:100E9000000000000000000000000000001114002D
:100EA0000000000000000000004000000000000002
:100EB0000000000000000000000000000000000032
:100EC00000000020000800000000000000000000FA
:100ED000000000000000000000000800000000000A
:100EE0000000000000000002800000001000000070
:100EF000000020000000000EA00000000000000024
:100F0000000000000000003A0000000000000000A7
:100F10000000000000000055080000000000000074
:100F200000000000000000744000000000001000FD
:100F300040000000020000D000800000000000001F
:100F400000000000000040EA8000000000000000F7
:100F500000000000000000A00000000000000000F1
:100F600000000000000000D0088000000000000029
:100F700000000000000000A40000000000000000CD
:100F800000000000000000C00A0000000000000097
:100F900000400000000000482100000000000008A0
:100FA000000020000000004004000040000000009D
:100FB0000000000000000020000000000000000011
:100FC0000000000000000008120000000000000007
:100FD0000000000000000000000000000000000011
:100FE000000000000000000540000000001C1C0084
:100FF0000000000008000000000000000040014068
:1010000000000000000000000000000002000020BE
:1010100000000000000000000000000008000018B0
:10102000008000000000000000000000000000043C
:101030000000000000000000000000000000003C74
:10104000800000000000000000000000000007FE1B
:1010500080000000000000000000000000007FFF92
:101060008000000000000000000000010000FFFF01
:10107000C000000000000020000000020003FFF894
:10108000200000000004000000000002000FFCFF30
:10109000A000000000000000000080040017FE8097
:1010A000104000000000000000000004007FFE80EF
:1010B00010000040000000000000000800FFE800F1
:1010C00008000000000000000000000001FF800098
:1010D00008004000000000000000001003FE0000B7
:1010E0000400000000000000000000100FFC0000E1
:1010F0000400000000008000000000000FF000006D
:101100000400000000000000000000001FF00000CC
:101110000000000000108400000000103FE000000C
:101120000000000000000000000000103FC00000B0
:101130000400000002049000000000107F80000006
:10114000040000000002A000000000107F0000006A
:101150000400000000008000000000107E0000007D
:10116000000000000057F50000000000FE00000035
:10117000000000000000800000000000FD000000F2
:10118000040000000002A00000000011FC00001894
:10119000040000000004900000000001FA000010AC
:1011A000000002000000000000000009F80007C075
:1011B000080400000010840000000001F8000F0087
:1011C000100000010000000000400007F800FC00D3
:1011D000100000000000800000000003F80FF00085
:1011E00020000000000000000000000179FF8000E6
:1011F000200000000000400000000000FFFC000094
:10120000000000000000000000000000FFF80000E7
:101210000000000000000000000000005F800000EF
:1012200000000000000000000000000006000000B8
:1012300000000000000000000000000000000000AE
:101240000200000000000000000000000000000894
:101250000000000000020000000000000400001078
:101260000004000000000000000000000200000078
:10127000000000020000000000000800003006002E
:101280000000000000000000000000000007F00067
:10129000000000000000000000000000000000004E
:1012A00000000000000000000040000000000000FE
:1012B0000000000000038007E00DB04DB26FD6FBC8
:1012C000FF0FF807E003C00E70781E200C20080006
:1012D000000000AA550880451020201040C01810BA
:1012E000402020451080C0F8C0C0E0F8FFF8E0C002
:1012F000C0F8C0800080C080F0C080C000080B0033
:10130000020202010009040000010202000005249B
:101310000010010524010101042402060524060031
:10132000010705810310004009040100020A0000C2
:101330000007050202400000070583024000000488
:1013400003090412010002EF02014041233680002C
:10135000010102030141726475696E6F204C4C43B8
:101360000041726475696E6F204C656F6E617264C6
:101370006F002200FF21000408020110408040108D
:1013800020408040800802040180402010020110AB
:1013900080102040402000000000250028002B0085
:1013A0002E003100040404040403040502020202B6
:1013B00004030202020206060606060604040202EE
:1013C000020404030022672D11241FBECFEFDAE0D0
:1013D000DEBFCDBF11E0A0E0B1E0EAE3F8E602C075
:1013E00005900D92AA3FB107D9F724E0AAEFB1E02A
:1013F00001C01D92AD30B207E1F719E0C3EED9E0AC
:1014000004C02197FE010E940130C23ED107C9F7F6
:101410000E944C220C9410340C9400000895FC019E
:1014200080915D03882311F13FB7F89482E08093A7
:10143000E9002091F200822F90E01816190614F4AA
:1014400081E090E0882339F0289844E640935C03DB
:101450004091F1004083222339F02091F2002111C4
:1014600003C02BE62093E8003FBF08958FEF9FEF66
:1014700008952FB7F89483E08093E9009091E800F5
:10148000892F807295FF04C09091F20080E4891B3F
:101490002FBF08958091540381110DC082E0809385
:1014A000500384E08093510310925303109252032F
:1014B00081E08093540380E593E00895CF93DF9318
:1014C0001F92CDB7DEB76983DC01ED91FC910280FC
:1014D000F381E02D41E050E0BE016F5F7F4F099541
:1014E0000F90DF91CF91089583E08093E900809180
:1014F000F200882319F08AE38093E80008950E949F
:10150000390A90E00895CF93DF931F92CDB7DEB7ED
:10151000FC018485958597FD08C02FEF3FEF358747
:1015200024870F90DF91CF910895CE0101960E94FC
:101530000F0A019719F4898190E0F3CF8FEF9FEFA5
:10154000F0CF0F931F93CF93DF931F92CDB7DEB7EA
:101550008C01FC018485958597FF0BC0CE01019617
:101560000E940F0A019771F4898190E0F801958734
:101570008487F801848595850F90DF91CF911F9125
:101580000F9108958FEF9FEFF1CFFC018485958532
:1015900097FD0BC09FB7F89482E08093E90080919B
:1015A000F2009FBF90E0019608959FB7F89482E003
:1015B0008093E9008091F2009FBF90E008954091F0
:1015C0004A0350914B03209148033091490342173D
:1015D0005307B4F49091E8009570E1F39091E8001E
:1015E00092FD19C08093F10080914A0390914B03C2
:1015F00001968F739927892B19F48EEF8093E80059
:1016000080914A0390914B03019690934B038093F2
:101610004A0381E0089580E00895DF92EF92FF92FF
:101620000F931F93CF93DF93D82E8A01EB017B0199
:10163000E40EF51ECE15DF0559F0D7FE12C0FE01EF
:1016400084910E94DF0A21968111F4CF0FEF1FEFE2
:10165000C801DF91CF911F910F91FF90EF90DF9024
:1016600008958881EECF0F931F93CF93DF931F923E
:10167000CDB7DEB782E0898342E450E06DEF72E1DE
:1016800080E80E940D0B0E944A0ADC0112960D911F
:101690001C910115110589F0D801ED91FC91028092
:1016A000F381E02DBE016F5F7F4FC801099597FD63
:1016B00004C0F80100851185ECCF89810F90DF917E
:1016C000CF911F910F910895615030F02091F1005A
:1016D000FC0120830196F8CF289884E680935C0370
:1016E0000895AF92BF92CF92DF92EF92FF920F9345
:1016F0001F93CF93DF936C017B018B01040F151FA8
:10170000EB015E01AE18BF08C017D10759F069910F
:10171000D601ED91FC910190F081E02DC601099573
:10172000892B79F7C501DF91CF911F910F91FF9020
:10173000EF90DF90CF90BF90AF90089508950895F7
:1017400081508F3008F047C0E82FF0E0E655F44FA5
:101750000C940130C70BCB0BB90BBF0BC30BEB0BBE
:10176000EB0BEB0BCE0BD40BD80BDC0BE20BEB0B28
:10177000E60B809180008F778093800008958091A0
:1017800080008F7DF9CF80918000877FF5CF84B571
:101790008F7784BD089584B58F7DFBCF80919000B5
:1017A0008F77809390000895809190008F7DF9CF7E
:1017B00080919000877FF5CF8091C0008F778093D4
:1017C000C00008958091C0008F7DF9CF8091C20044
:1017D000877F8093C2000895CF93DF93282F30E056
:1017E000F901E653FA4F8491F901E958FC4ED4917E
:1017F000F901EC55FC4EC491CC23A1F081110E945B
:10180000A00BEC2FF0E0EE0FFF1FE454FA4FA59170
:10181000B491EC91ED2381E090E009F480E0DF9158
:10182000CF91089580E090E0FACF1F93CF93DF939C
:10183000282F30E0F901E653FA4F8491F901E95875
:10184000FC4ED491F901EC55FC4EC491CC23A9F087
:10185000162F81110E94A00BEC2FF0E0EE0FFF1F5E
:10186000EA56FC4EA591B4918FB7F894EC91111102
:1018700008C0D095DE23DC938FBFDF91CF911F91FD
:101880000895DE2BF8CFCF93DF9390E0FC01E95869
:10189000FC4E24918C559C4EFC0184918823D1F000
:1018A00090E0880F991FFC01E751FA4FA591B49180
:1018B000FC01EA56FC4EC591D491623071F49FB799
:1018C000F8943C91822F809583238C93E8812E2B72
:1018D00028839FBFDF91CF9108958FB7F894EC9143
:1018E0002E2B2C938FBFF6CF4F925F926F927F92E9
:1018F0008F929F92AF92BF92CF92DF92EF92FF9220
:101900000F931F93CF938C0180911101853099F033
:101910008F3F09F480C0CF911F910F91FF90EF90FE
:10192000DF90CF90BF90AF909F908F907F906F90FF
:101930005F904F900895E3ECF3E1C491C7FDEBCFC6
:1019400061E085E00E94430CCC2319F0C23009F01D
:10195000F2C02801712C612C60E072E18AE790E00E
:10196000A30198010E94302E49015A0168E478EEE3
:1019700081E090E0A30198010E94302EDA01C901B4
:101980000197A109B1096C017D01CC2309F46AC159
:10199000C23009F05DC18F3F9105A105B10509F085
:1019A0000CF4B9CF64E274EF80E090E0A3019801F9
:1019B0000E94302E21503109410951092F3F310534
:1019C0004105510509F008F4A6CF62E17AE780E00D
:1019D00090E0A30192010E94302E69017A0181E01A
:1019E000C81AD108E108F1088FEFC816D104E10444
:1019F000F10409F00CF459C1750164019AE0F59401
:101A0000E794D794C7949A95D1F781E0C81AD10882
:101A1000E108F1084AC185E080931101E3ECF3E1AC
:101A2000C491CF3F09F477CFC13039F168F0C330AA
:101A300009F441C0C43009F460C0C7FD6CCF61E057
:101A400085E00E94430C82CF14BC15BC84B5826033
:101A500084BD85B5816085BDE9EAF3E1E491F0E0FC
:101A6000EE0FFF1FEA56FC4E85919491ECE7F3E1EF
:101A7000E491E0936303C0E063CF10928000109282
:101A80008100809181008860809381008091810035
:101A9000816080938100E9EAF3E1E491F0E0EE0FE8
:101AA000FF1FEA56FC4E85919491ECE7F3E1E49137
:101AB000E093620345CF10929000109291008091C4
:101AC0009100886080939100809191008160809363
:101AD0009100E9EAF3E1E491F0E0EE0FFF1FEA562E
:101AE000FC4E859194919093610380936003ECE7A1
:101AF000F3E1E491E0935F0323CF1092C0001092D2
:101B0000C1008091C10088608093C1008091C100B4
:101B100081608093C100E9EAF3E1E491F0E0EE0F27
:101B2000FF1FEA56FC4E85919491ECE7F3E1E491B6
:101B3000E0935E0305CFB12CA12C60E072E18AE74F
:101B400090E0A50198010E94302E69017A0181E0A0
:101B5000C81AD108E108F10891E0C114D10481E06C
:101B6000E806F10484F068E478EE81E090E0A501F5
:101B700098010E94302E69017A0181E0C81AD108CB
:101B8000E108F10893E0C13039F480918100887F49
:101B9000892B8093810089C0C33039F480919100F2
:101BA000887F892B8093910080C0C43009F07DC06C
:101BB0008091C100887F892B8093C10076C0C3309B
:101BC00029F1C43009F0A7CEC092CF00209364035E
:101BD00030936503409366035093670380917200CE
:101BE00080648093720097CED0928900C092880062
:101BF00020936C0330936D0340936E0350936F03F7
:101C000080916F00826080936F0085CED0929900A2
:101C1000C0929800209368033093690340936A034D
:101C200050936B038091710082608093710073CE3A
:101C3000750164018AE0F594E794D794C7948A9576
:101C4000D1F781E0C81AD108E108F10895E029C070
:101C50008FEFC816D104E104F10411F008F0B5CEFD
:101C6000C1E023C093E08FEFC816D104E104F10472
:101C7000C1F0BCF062E17AE780E090E0A30192015C
:101C80000E94302E69017A0181E0C81AD108E1086A
:101C9000F1088FEFC816D104E104F10409F044F60D
:101CA00094E085B5887F892B85BD9801220F331F6D
:101CB000AAE0B0E00E94842E28EE33E040E050E03D
:101CC0000E94622EC13009F48FCF0CF078CFC11181
:101CD00022CEC7BC209370033093710340937203EC
:101CE0005093730380916E00826080936E0013CED8
:101CF0001F93CF93DF93182FEB0161E00E94430CF9
:101D0000CF3FD10539F461E0812FDF91CF911F9151
:101D10000C94150CE12FF0E0E653FA4FE491E150FA
:101D2000EF3008F07FC0F0E0E856F14F0C9401303E
:101D3000A70EAF0EB40EBE0EC80E120F120F120F6A
:101D4000D20EDC0EE60EF00EFD0E120F050F84B55E
:101D5000806884BDC7BDDF91CF911F91089584B580
:101D6000806284BDC8BDF7CF809180008068809379
:101D70008000D0938900C0938800EDCF80918000CF
:101D8000806280938000D0938B00C0938A00E3CF61
:101D900080918000886080938000D0938D00C093F4
:101DA0008C00D9CF80919000806880939000D09370
:101DB0009900C0939800CFCF80919000806280936B
:101DC0009000D0939B00C0939A00C5CF8091900063
:101DD000886080939000D0939D00C0939C00BBCFFF
:101DE0008091C00080688093C0008091C0008F7B8C
:101DF0008093C000C093CF00AECF8091C0008062BE
:101E00008093C000C093D000A6CF8091C2008860AC
:101E10008093C2008091C2008B7F8093C200C093E8
:101E2000D20099CFCF37D10509F06DCF60E06CCFEC
:101E30003FB7F8948091AB029091AC02A091AD02B3
:101E4000B091AE0226B5A89B05C02F3F19F00196B0
:101E5000A11DB11D3FBFBA2FA92F982F8827BC0104
:101E6000CD01620F711D811D911D42E0660F771F2C
:101E7000881F991F4A95D1F708958F929F92AF922C
:101E8000BF92CF92DF92EF92FF924B015C010E94D2
:101E9000180F6B017C010E94180F6C197D098E09C7
:101EA0009F09683E734081059105A8F321E0821ADD
:101EB0009108A108B10888EEC80E83E0D81EE11C85
:101EC000F11C81149104A104B10429F7FF90EF9053
:101ED000DF90CF90BF90AF909F908F9008958F929A
:101EE0009F92AF92BF92CF92DF92EF92FF920F93A9
:101EF0001F93CF93DF936C017B018A0180911001C6
:101F0000882309F45CC080915D03882309F457C0DD
:101F100080914F0380FF05C08091E0008260809334
:101F2000E000E801B12C8AEFA82E93E0892E2AE385
:101F3000922E209711F4BB20D9F10E94390A811109
:101F40000AC0AA94AA20D9F161E070E080E090E094
:101F50000E943D0FEECF8C171D0611F00CF08C2F58
:101F60009FB7F8948092E9002091E80025FD02C017
:101F70009FBFDFCF282F30E0C21BD30BF70181506A
:101F800020F041914093F100FACFE20EF31EBB2006
:101F900021F09092E800B12CEBCF8091E80085FD14
:101FA000E7CF9092E800BB24B394209709F3F3CFD6
:101FB0005D9884E680934E03101611063CF081E094
:101FC00090E0F6019383828310E000E0C801DF9186
:101FD000CF911F910F91FF90EF90DF90CF90BF9026
:101FE000AF909F908F9008950895FC016370658B6A
:101FF0008481958126813781613039F0633029F001
:102000009187808733872287089531872087938738
:10201000828708952F923F924F925F926F927F92A4
:102020008F929F92AF92BF92CF92DF92EF92FF92E8
:102030000F931F93CF93DF93CDB7DEB769970FB69A
:10204000F894DEBF0FBECDBF998F888F5B011A0158
:10205000D22E1F830E833701C982DC0158962D9141
:102060003C9159972115310509F004C118968D91BD
:102070009C911997681779070CF0C0C11A968D9139
:102080009C911B97481759070CF0B8C18C2C912CC8
:10209000FB0126E0C29EE00DF11D1124F987E887BF
:1020A0001E161F060CF0AAC1A40193E0440F551F91
:1020B0009A95E1F75D874C87CA01820D931D18162A
:1020C00019060CF09BC157968C91811104C05FEAF0
:1020D0005D1508F4D394A88DB98DED91FC911197FD
:1020E0000284F385E02DCD010995F5013596F98B34
:1020F000E88BBB82AA8225018CEB90E08A199B09B0
:102100009C0145E0D49E200D311D11243B8B2A8B70
:10211000EA89FB89E40DF51D24913D822C82D12CA6
:10212000C12C622F70E07F876E87E88DF98DA081CA
:10213000B18120FF7CC0F981F13009F069C01C96A3
:10214000ED91FC912E813F81A1014C0D5D1DB201ED
:10215000888D998D0995EE85FF85F595E7952E2F4C
:102160004FEFC41AD40A6C817D81680D791D7D837F
:102170006C8378E0C716D104A1F68FEF481A580A8D
:10218000AA81BB81A80DB91DBB83AA83E889F989FF
:10219000E415F50509F0BCCF2E813F8126153705E2
:1021A000A9F0A88DB98DED91FC91B981B13009F0FC
:1021B00051C0B5016B5F7F4F0088F189E02D83012D
:1021C00028E030E0A101888D998D0995A88DB98D01
:1021D000ED91FC9111970688F789E02DCD01699664
:1021E0000FB6F894DEBF0FBECDBFDF91CF911F9128
:1021F0000F91FF90EF90DF90CF90BF90AF909F90A6
:102200008F907F906F905F904F903F902F900994A8
:102210001E96ED91FC91EE80FF80840194014C812B
:102220005D816A817B81888D998D099594CF2E81FE
:102230003F812615370509F48ECF3981313029F4D5
:102240001C96ED91FC9193017FCF1E96ED91FC9130
:102250007301E3CF68857985681979090684F78564
:10226000E02D73010C851D859401A101888D998D48
:102270000995ACCFF90134969491329745915491D8
:10228000D91AB7E0DB9E400D511D1124F9012591AB
:102290003491398B288BFA0145905490FA0132968B
:1022A00064903196C490329614913196049139819C
:1022B000323008F48AC0E12E012E000CFF08402FB6
:1022C000002E000C550B59874887A88DB98DED91CC
:1022D000FC9111970284F385E02DCD010995B98118
:1022E0008B2E912CE89CC001E99C900DF89C900DE0
:1022F0001124FC01EA0DFB1DFF87EE871C82D12C07
:10230000712C9B868A869101200F311D07FD3A951D
:102310003D8B2C8BA501410F511D17FD5A955F8BED
:102320004E8B7C1408F052CF872D90E0488559855C
:10233000480F591F6A857B85469F9001479F300D46
:10234000569F300D1124D901A20DB31DBD87AC8756
:10235000EE85FF85FB83EA83B12CA12C2C893D8976
:10236000280F391F3B8B2A8B8C818A0DA61408F00D
:1023700040C0877041F4C2010196E889F989E40DF3
:10238000F51DD4902C01D7FE15C0A88DB98DED9107
:10239000FC91B981B130F1F40484F585E02D2E81F2
:1023A0003F814A895B896E897F896A0D7B1D888D93
:1023B000998D0995DD0CEFEFAE1ABE0A2A813B819B
:1023C000280D391D3B832A83CFCF19861886F12C1F
:1023D000E12C7BCF0684F785E02DEE80FF80840121
:1023E00094014C855D856A817B81888D998D0995E5
:1023F000E1CF3C81360D3C83739493CF69960FB641
:10240000F894DEBF0FBECDBFDF91CF911F910F912A
:10241000FF90EF90DF90CF90BF90AF909F908F9004
:102420007F906F905F904F903F902F900895AF9264
:10243000BF92CF92EF92FF920F931F93CF93DF93B0
:10244000EC01262F888D998D009709F04FC06A30D6
:10245000C9F41D861C868C8998E0899F90011124FF
:102460008E859F85820F931F9F878E8781E090E0E6
:10247000DF91CF911F910F91FF90EF90CF90BF9080
:10248000AF9008956D3091F3CC888E898823C1F088
:102490008C859D85E6E0CE9E800D911D112448859A
:1024A00059854817590764F44E855F851D861C863B
:1024B000F8E0CF9EC0011124840F951F9F878E875F
:1024C000EA88FB88088919894E855F856C857D853A
:1024D000CE010E940A102C898C859D8536E0239FB1
:1024E000800D911D11249D878C87C0CF6A3069F4BF
:1024F0001D861C86FC013696E4912C898E859F856D
:10250000E29F800D911D1124AFCF6D3009F4AECF45
:10251000FC0134963491631708F4A8CF3196E49106
:10252000E61708F4A3CFFC01329645915491E62FAB
:10253000E31BFF0B37E03E9F50013F9FB00C11247F
:10254000A40EB51EF501329634913196E4913323F1
:10255000A1F1EE2391F1CC88F5013596E4914E89F5
:10256000442301F10E2E000CFF0BE30FF11DCE9E54
:10257000A001CF9E500D11246C857D85460F571FFD
:1025800068857985641775076CF44E855F851D86AF
:102590001C860696FC018491C89E400D511D112495
:1025A0005F874E87EA88FB88088919894E855F8591
:1025B0006C857D85CE010E940A10F5013496E49168
:1025C0002C898C859D85E29F800D911D11248BCFD8
:1025D0006F927F928F929F92AF92BF92CF92DF9233
:1025E000EF92FF920F931F93CF93DF93EC016B0158
:1025F0005A0139014801E881F9810284F385E02D0F
:102600000995E881F9810288F389E02D870193011A
:10261000A501B601CE010995A501480D591D4150EE
:102620005109E881F9810288F389E02D9301B6010F
:10263000CE010995E881F9810088F189E02D9401A6
:10264000A501B601CE010995C60CD71CB601615093
:102650007109E881F9810088F189E02D9401A501D3
:10266000CE010995E881F9810688F789E02DCE0130
:10267000DF91CF911F910F91FF90EF90DF90CF905E
:10268000BF90AF909F908F907F906F9009946F92C2
:102690007F928F929F92AF92BF92CF92DF92EF92F2
:1026A000FF920F931F93CF93DF935C01EB016A01BD
:1026B000490138018701DC01ED91FC916217730734
:1026C00019F5641675062CF0962D872D3A01C92E42
:1026D000D82E9601261937092F5F3F4F048CF58DB0
:1026E000E02DA301BE01C5010995DF91CF911F9196
:1026F0000F91FF90EF90DF90CF90BF90AF909F90A1
:102700008F907F906F9008954615570591F4261786
:10271000370724F0892D4B01C22FD82F9E0128198D
:1027200039092F5F3F4F068CF78DE02DA601B401CC
:10273000DACF0284F385E02D0995D501ED91FC9166
:102740000488F589E02D83019401A601BE01C5012D
:102750000995D501ED91FC910688F789E02DC50119
:10276000DF91CF911F910F91FF90EF90DF90CF906D
:10277000BF90AF909F908F907F906F900994EF9251
:10278000FF920F931F93DC011A960D911C911B97DA
:1027900018962D913C911997ED91FC9100A0F1A113
:1027A000E02D7B0150E040E070E060E009951F9172
:1027B0000F91FF90EF9008954F925F926F927F92EA
:1027C0008F929F92AF92BF92CF92DF92EF92FF9241
:1027D0000F931F93CF93DF936C012B015A013901A3
:1027E0004801DC01ED91FC910284F385E02D09950F
:1027F000E201640C751CD601ED91FC91C615D7055C
:102800005CF40088F189E02D87019401A501BE01E7
:10281000C60109952196EFCF0688F789E02DC601FC
:10282000DF91CF911F910F91FF90EF90DF90CF90AC
:10283000BF90AF909F908F907F906F905F904F90E0
:1028400009948F929F92AF92BF92CF92DF92EF92B4
:10285000FF920F931F93CF93DF93EC015B014A012B
:102860006901E881F9810284F385E02D09959501DC
:102870002C0D3D1D21503109E881F9810488F5892D
:10288000E02D78018401A401B501CE010995E8810C
:10289000F9810688F789E02DCE01DF91CF911F9154
:1028A0000F91FF90EF90DF90CF90BF90AF909F90EF
:1028B0008F9009948F929F92AF92BF92CF92DF92A6
:1028C000EF92FF920F931F93CF93DF93EC015B0185
:1028D0004A0169017801E881F9810284F385E02DDC
:1028E0000995C80CD91C860101501109E881F981AC
:1028F0000488F589E02D9501A401B501CE01099563
:10290000E881F9810688F789E02DCE01DF91CF912A
:102910001F910F91FF90EF90DF90CF90BF90AF90FD
:102920009F908F900994EF92FF920F931F93DC0179
:10293000ED91FC9100A0F1A1E02D09951F910F915F
:10294000FF90EF9008950F931F93DC01ED91FC91A0
:10295000068CF78DE02D09951F910F9108950F9327
:102960001F93DC01ED91FC91048CF58DE02D099510
:102970001F910F910895DC01ED91FC910084F18588
:10298000E02D09943F924F925F926F927F928F92C7
:102990009F92AF92BF92CF92DF92EF92FF920F93EE
:1029A0001F93CF93DF9300D000D0CDB7DEB75C018B
:1029B0003B016A014901280187E0480E511C93E060
:1029C000559447949A95E1F7CA018E0D9F1D9A83FD
:1029D0008983F12CE12C312C1C821B828B819C8100
:1029E00087709927330C892B61F4EB81FC8183E09C
:1029F000F595E7958A95E1F7EE0DFF1DE80DF91DB8
:102A0000349037FE0AC021E030E0A6016B817C8162
:102A1000660D771DC5010E94BB148B819C810196B8
:102A20009C838B8308171907C9F69FEFC91AD90A27
:102A3000E40CF51C89819A81C816D90669F60F90B5
:102A40000F900F900F90DF91CF911F910F91FF90FA
:102A5000EF90DF90CF90BF90AF909F908F907F903E
:102A60006F905F904F903F9008952F923F924F92BA
:102A70005F926F927F928F929F92AF92BF92CF920E
:102A8000DF92EF92FF920F931F93CF93DF9300D0CB
:102A900000D000D0CDB7DEB73C016A013E832D8364
:102AA000FC82EB825801A41AB50AB7FE03C0B194A8
:102AB000A194B1088D809E80861A970A97FE03C064
:102AC0009194819491088A149B045CF0902F812F3B
:102AD0000D811E819D838E839C2D8D2D6B01692F11
:102AE000782F0C151D055CF09D818E817E836D8392
:102AF000692F782F902F812F8601C92ED82E16018D
:102B0000201A310A2B012D813E81421A530A57FEA9
:102B100003C0519441945108710137FE03C03FEF47
:102B2000E31AF30AF594E7948D819E81861797073F
:102B30005CF5A1E0B0E0BA83A983C016D1064CF1E0
:102B4000D301ED91FC910484F585E02D2B813C812E
:102B5000A8016D817E818A149B041CF04D815E81E9
:102B6000B801C3010995E418F508F7FE0AC02D81E4
:102B70003E8189819A81280F391F3E832D83E20C83
:102B8000F31C0F5F1F4FD9CF2FEF3FEF3A832983FD
:102B9000D4CF26960FB6F894DEBF0FBECDBFDF911F
:102BA000CF911F910F91FF90EF90DF90CF90BF904A
:102BB000AF909F908F907F906F905F904F903F90DD
:102BC0002F90089585ED8093BC008091BC0084FD1A
:102BD000FCCF1092B602089520915F02260F332792
:102BE000331F21323105ECF42091B602FC0190E054
:102BF00080E0243069F082E00895A0915F02219185
:102C0000AC01415C5D4FA40FB52FB11D2C93019613
:102C1000861798F380915F02680F60935F0280E0EF
:102C2000089581E00895E091B8028091B702E81715
:102C300030F4F0E0E15EFD4F808190E008958FEF89
:102C40009FEF08959091B8028091B7022FEF3FEF68
:102C5000981748F4E92FF0E0E15EFD4F208130E065
:102C60009F5F9093B802C90108958091B702909137
:102C7000B802891B990B0895CF92DF92EF92FF92D1
:102C80000F931F93CF93DF937C01CB018A01209197
:102C90007703222389F0EB016B01C40ED51ECC15FE
:102CA000DD0569F06991D701ED91FC910190F0810A
:102CB000E02DC7010995F3CF642F0E94EC15C801E0
:102CC000DF91CF911F910F91FF90EF90DF90CF9008
:102CD0000895CF93DF931F92CDB7DEB7698320911C
:102CE00077032223F9F020917403203258F021E079
:102CF00030E0FC013383228390E080E00F90DF918D
:102D0000CF91089580917503E82FF0E0E150FE4FD8
:102D1000998190838F5F809375038093740381E022
:102D200090E0ECCF61E0CE0101960E94EC15F7CF68
:102D30002091740381E0213208F044C08091B602F2
:102D40008111FCCF8091760392E09093B60291E0DE
:102D50009093B5029FEF909382021092A402209369
:102D6000A302AFEFB1E0E3E8F2E090E0291331C055
:102D70001092A5029091A502880F892B8093A5023D
:102D80008091B402813049F51092B4028091A5027D
:102D90008093BB008091BC0083FDF8CF85EC8093CD
:102DA000BC008091B6028230E1F3809182028F3FB5
:102DB000B1F0809182028032A1F080918202803352
:102DC00091F084E0109275031092740310927703CF
:102DD00008953D9131939F5FC9CF85EEE0CF80E0AC
:102DE000F1CF82E0EFCF83E0EDCFEF92FF920F9330
:102DF0001F93CF93DF93EC01EC80FD806E157F0570
:102E00000CF070C057FF04C0240F351F50E040E0A5
:102E10008E819F81FA01E20FF31F8E179F071CF42A
:102E20009C01241B350B121613060CF05BC0922F6D
:102E3000842F8695869586958E9DD0018F9DB00DA9
:102E400011246A0F7B1FAE8DBF8DA60FB71F477071
:102E500049F188E0841B482F682F70E0FB01EC5497
:102E6000FF4FE491281708F063C0621B71092FEF30
:102E700030E002C0359527956A95E2F7E2230130EC
:102E8000110539F0B0F10230110561F58C91E82798
:102E900002C08C91E82BEC93941720F12C813D819A
:102EA000A20FB31FE92FE41BE83078F002301105C0
:102EB00021F58E2F9C9190959C932C813D81A20FA2
:102EC000B31F88508830B0F7E770EE2359F0F0E078
:102ED000E455FF4FE49101301105F9F010F1023093
:102EE000110519F1DF91CF911F910F91FF90EF9094
:102EF0000895E0958C91E823CECF81E0011511056E
:102F000009F480E081959E2F8C932C813D81A20F46
:102F1000B31F98509830C0F7D7CF8C91E82BEC9323
:102F2000E1CFE0958C91E823FACF8C91E827F7CF99
:102F30000130110509F4ADCFE0F20230110509F4BA
:102F4000A5CFAE0DBF1DAECF0F931F93CF93DF93D1
:102F500077FF04C0260F371F70E060E0DC01149695
:102F6000CD91DC91FB01E20FF31FCE17DF071CF4BC
:102F70009E01261B370B121613064CF5FA0157FD5E
:102F80003796A3E0F595E795AA95E1F7EC9FD00178
:102F9000ED9FB00DFC9FB00D11246A0F7B1FDC016B
:102FA0005E96ED91FC91E60FF71F4770552781E083
:102FB00090E001C0880F4A95EAF7482F01301105CB
:102FC00059F0A8F02E0F3F1F02301105E1F0DF91FC
:102FD000CF911F910F9108952E0F3F1FE217F30716
:102FE000B1F38191DF011197842B8C93F7CF8095FA
:102FF0002E0F3F1FE217F30751F39191DF01119755
:1030000098239C93F7CFE217F30709F38191DF012F
:10301000119784278C93F7CF0F931F93FA01DC014C
:1030200055964C9155974230E9F04330A1F141302B
:1030300061F514964D915C91DA01AE1BBF0BFD0159
:10304000E21BF30B77FD0BC0DC0116964D915C91F2
:103050006417750724F4AB01BF010E94A4171F91E8
:103060000F91089514964D915C91DA01A61BB70B50
:10307000BD0161507109DC0116964D915C91DA0138
:10308000AE1BBF0BFD01E21BF30B77FDE8CFAF01D9
:103090000E94F516E4CF16964D915C91DA01A61BBD
:1030A000B70BBD0161507109CDCF0F931F93FA018A
:1030B000DC0155964C9155974230A9F0433091F17F
:1030C000413019F514964D915C91DA01AE1BBF0B9E
:1030D000FD013197F7FD04C0AB01BF010E94F51659
:1030E0001F910F91089514964D915C91DA01A61BE2
:1030F000B70BBD01DC0116964D915C91DA01AE1B58
:10310000BF0BFD013197621B730BF7FDE9CFDC01AB
:1031100016964D915C91E417F50714F7AF010E94E4
:10312000A417DECF16964D915C91DA01A61BB70B62
:10313000BD01621B730BCECFFC0177FD64C080859F
:103140009185681779070CF05EC057FD5CC08285D9
:103150009385481759070CF056C085898230B1F025
:10316000833029F1813041F484819581841B950B52
:10317000AB01BC01615071092130310509F108F43E
:1031800043C02230310509F463C0089584819581DC
:10319000DC01A61BB70BBD016150710986819781C7
:1031A000DC01A41BB50BAD0141505109E5CF86816F
:1031B0009781861B970BBA01AC0141505109DCCFB6
:1031C000CA0157FD0796A3E095958795AA95E1F763
:1031D000A481B5818A9F90018B9F300D9A9F300DFD
:1031E0001124620F731F068CF78DE02DE60FF71F79
:1031F0004770552721E030E001C0220F4A95EAF7D9
:103200008081822B80830895CA0157FD079633E0A1
:10321000959587953A95E1F7A481B5818A9F9001AC
:103220008B9F300D9A9F300D1124620F731F068CF7
:10323000F78DE02DE60FF71F4770552781E090E0EE
:1032400001C0880F4A95EAF7809590818923DACFEB
:10325000CA0157FD079623E0959587952A95E1F7D2
:10326000A481B5818A9F90018B9F300D9A9F300D6C
:103270001124620F731F068CF78DE02DE60FF71FE8
:103280004770552721E030E001C0220F4A95EAF748
:1032900080818227B7CF08958EBD00000DB407FE50
:1032A000FDCF8EB50895FF920F931F93CF93DF93B9
:1032B000F82ED92FC62F8091E7039091E80300974D
:1032C00009F452C02091EB0331E03093770320934F
:1032D00076031092750310927403DC01ED91FC915A
:1032E0000190F081E02D60E009950F2D1D2FD1E0B8
:1032F000FF24F394C1508091E7039091E803CF3FFE
:1033000061F1D032C8F00E9498168091E703909145
:10331000E8032091EB03F092770320937603109259
:10332000750310927403DC01ED91FC910190F08122
:10333000E02D60E00995D1E08091E7039091E803EA
:10334000F8016491DC01ED91FC910190F081E02D98
:103350000995DF5F0F5F1F4FCDCFDF91CF911F9199
:103360000F91FF900C949816E091F703F091F803F9
:1033700090818091FD038095892380830F2D1D2FDF
:10338000C15008F438C0F80184912091E5033091D0
:10339000E603232B29F00E944C190F5F1F4FF0CF3B
:1033A00028E030E040E8E091F303F091F4039091DD
:1033B000FB03582F5423D9F05081952B9083E09133
:1033C000F503F091F60390815091FC03952B9083C7
:1033D000E091F503F091F60350819091FC039095F4
:1033E00095239083469521503109E9F6D6CF508137
:1033F00090959523E3CFDF91CF911F910F91FF908F
:1034000008951F93CF93DF93EC018C8D9D8D0097D2
:1034100021F1162F28A131E0309377032093760312
:103420001092750310927403DC01ED91FC910190F0
:10343000F081E02D60E009958C8D9D8DDC01ED9192
:10344000FC910190F081E02D612F09958C8D9D8D6F
:10345000DF91CF911F910C949816ACA5BDA59C91BE
:103460008AA9809589238C938A8D9B8D892B31F035
:10347000862FDF91CF911F910C944C1928E030E0FA
:1034800080E8A8A5B9A598A9462F4823C1F04C917A
:10349000942B9C93AAA5BBA59C9149A9942B9C9382
:1034A000AAA5BBA54C9199A9909594239C93869528
:1034B0002150310931F7DF91CF911F9108954C913F
:1034C00090959423E6CF8CBD9DBD0895EF92FF9219
:1034D0000F931F93CF93DF938091E7039091E803BD
:1034E000892B09F493C0209101043091020440918A
:1034F00003045091040460E074E284EF90E00E94C1
:10350000622E205131094109510956954795379549
:1035100027952093B80065E082E793E10E94531954
:103520006091CF0361508BEC93E00E94011A2091CF
:10353000D1033091D203C901079697FD079623E086
:10354000959587952A95E1F72091CF033091D00387
:10355000829F8001839F100D929F100D1124C091B6
:10356000E903D091EA038091E7039091E8030C0FFF
:103570001D1F009709F489C02091EB0331E03093BF
:103580007703209376031092750310927403DC0185
:10359000ED91FC910190F081E02D60E40995FF240C
:1035A000F394EE24E3948091E7039091E8030C17E1
:1035B0001D0709F442C0BFE1BF15D0F40E94981660
:1035C0008091E7039091E8032091EB03E092770369
:1035D000209376031092750310927403DC01ED9131
:1035E000FC910190F081E02D60E40995FF24F394B3
:1035F0008091E7039091E8036991DC01ED91FC91E2
:103600000190F081E02D0995F394CDCF8091E503F1
:103610009091E603892B31F08091FF039091000493
:103620000E94631AE091F903F091FA03908180916E
:10363000FE038095892380836ECF0E949816809127
:10364000E7039091E803892B09F460C020910504F9
:1036500030910604409107045091080460E074E240
:1036600084EF90E00E94622E2051310941095109F6
:1036700056954795379527952093B800DF91CF91C0
:103680001F910F91FF90EF900895E091F703F09153
:10369000F80380819091FD03892B80830C171D070F
:1036A00071F289912091E5033091E603232B19F003
:1036B0000E944C19F3CF28E030E040E8E091F3039A
:1036C000F091F4039091FB03582F5423D9F05081CB
:1036D000952B9083E091F503F091F6039081509142
:1036E000FC03952B9083E091F503F091F603508154
:1036F0009091FC0390959523908346952150310934
:10370000E9F6CCCF508190959523E3CFE091F90372
:10371000F091FA0380819091FE03892B8083AECFD4
:103720001F93CF93DF93EC01162F8C8D9D8D892BEA
:10373000B1F12EA93FA948AD59AD60E074E284EF24
:1037400090E00E94622E205131094109510956959D
:103750004795379527952093B80066EA111167EAD7
:10376000CE010E94011A8C8D9D8D892B41F12AADCD
:103770003BAD4CAD5DAD60E074E284EF90E00E9443
:10378000622E2051310941095109569547953795C7
:1037900027952093B800DF91CF911F9108958A8DCE
:1037A0009B8D892B21F08CA99DA90E94631AEEA5FF
:1037B000FFA590818BA9809589238083CECFEEA52C
:1037C000FFA580819BA9892B8083E5CF089590E098
:1037D00080E00895DC01FB011A968C911A97811103
:1037E00031C0828581112EC0808191814D915C9183
:1037F000119712962D913C911397240F351F821724
:10380000930704F522813381820F931F48175907CC
:10381000CCF48481958114964D915C911597169600
:103820002D913C91240F351F821793075CF426815C
:103830003781280F391F81E090E04217530724F0A9
:1038400080E0089580E090E00895CF93DF93C3E394
:10385000D0E02197E9F16FE770E08AE00E94780EEE
:1038600061E070E080E090E00E943D0F6FEF70E05B
:103870008AE00E94780E82E390E00E94740C6FE769
:1038800070E08AE00E94780E61E070E080E090E0F5
:103890000E943D0F6FEF70E08AE00E94780E82E395
:1038A00090E00E94740C6FE770E08AE00E94780E4E
:1038B00061E070E080E090E00E943D0F6FEF70E00B
:1038C0008AE00E94780E82E390E00E94740CC1CFDF
:1038D000DF91CF910895CF93C091780390E080E07D
:1038E0000E941A2EC81729F06C2F90E080E00E94E9
:1038F000222EC091790381E090E00E941A2EC81711
:1039000029F06C2F81E090E00E94222E88E793E05E
:10391000CF9108952091D1033091D203C901079628
:1039200097FD079623E0959587952A95E1F72091D5
:10393000CF033091D003829FA001839F500D929FAF
:10394000500D112470E060E08091E9039091EA034A
:103950000C9431318F929F92AF92BF920F931F932D
:10396000CF93DF93CDB7DEB7A1970FB6F894DEBF44
:103970000FBECDBF19A2423008F44AE08E010F5DA0
:103980001F4F842E912CB12CA12CA50194010E94D3
:10399000622EE62FB901CA01EA3044F5E05DD80194
:1039A000EE938D01232B242B252B79F790E080E0DB
:1039B000109769F0FD0101900020E9F73197AF0100
:1039C0004A1B5B0BBD018BEC93E00E94710BA1962F
:1039D0000FB6F894DEBF0FBECDBFDF91CF911F9120
:1039E0000F91BF90AF909F908F900895E95CD7CFD3
:1039F000CF92DF92EF92FF92CF93DF9397FF1BC09E
:103A00006B017C016DE28BEC93E00E941712EC01DC
:103A100066277727CB016C197D098E099F094AE03B
:103A20000E94AA1C8C0F9D1FDF91CF91FF90EF90F9
:103A3000DF90CF9008954AE0DF91CF91FF90EF9013
:103A4000DF90CF900C94AA1CFC0101900020E9F7B4
:103A50003197AF01481B590BBC018BEC93E00C94E0
:103A6000710BFF920F931F93CF93DF93EC01F62E10
:103A7000FC0101900020E9F73197E81BF90B0BECF2
:103A800013E086E08E9FB0018F9F700D1124769514
:103A9000679590E080E00E943B2F9B01AC0160E0C5
:103AA00070E080E892E40E94932E0E94052FF801B6
:103AB000758764876F2D70E077876687CE01DF9109
:103AC000CF911F910F91FF900C94241D0E942C31D7
:103AD0001F920F920FB60F9211248F939F93809194
:103AE000E1009091E100937F9093E10083FF0FC08C
:103AF0001092E90091E09093EB001092EC0092E3B9
:103B00009093ED0010925D0398E09093F00082FF97
:103B100022C093E09093E9009091F200992319F06C
:103B20009AE39093E80090914E03992341F090918D
:103B30004E03915090934E03911101C05D9A909164
:103B40005C03992341F090915C03915090935C0346
:103B5000911101C0289A84FF18C08091E2008E7EE6
:103B600081608093E2008091E1008F7E8093E1008C
:103B700080914F038E7E806180934F039F918F9140
:103B80000F900FBE0F901F90189580FFF7CF809178
:103B9000E2008E7E80618093E2008091E1008E7E63
:103BA0008093E10080914F038E7E8160E5CF1F926C
:103BB0000F920FB60F921124CF92DF92EF92FF92E5
:103BC0000F931F932F933F934F935F936F937F9325
:103BD0008F939F93AF93BF93EF93FF93CF93DF9315
:103BE000CDB7DEB76C97DEBFCDBF1092E9008091F4
:103BF000E80083FF25C068E0CE0145960E94640B73
:103C000082EF8093E8008D8987FF39C09091E800AA
:103C100090FFFCCF982F907609F034C19E894F8990
:103C2000588D2F89F88C911131C0803861F58091C1
:103C30004D038093F1001092F1008EEF8093E80025
:103C40006C960FB6F894DEBF0FBECDBFDF91CF915B
:103C5000FF91EF91BF91AF919F918F917F916F9164
:103C60005F914F913F912F911F910F91FF90EF9096
:103C7000DF90CF900F900FBE0F901F9018959EEF82
:103C80009093E800C7CF1092F100D5CF913059F44E
:103C90008111D3CF4130510581F680914D038D7F45
:103CA00080934D03CACF933049F48111C6CF413080
:103CB000510519F680914D038260F2CF953041F4A1
:103CC0008091E80080FFFCCF20682093E300B5CF0F
:103CD000963009F0A9C00B8D1C8D22E01092E900EE
:103CE00010924B0310924A03F2122EC01092490315
:103CF000109248030E94330B1F8299E09983FA8245
:103D000091E09E8390EA98879AEF998720914A03E1
:103D100030914B03275F3F4F3C832B838D83109261
:103D2000E90010924B0310924A0310934903009349
:103D3000480349E050E0BE016F5F7F4F80E00E9482
:103D40000D0B0E94330B79CF109349030093480366
:103D50000E944A0ADC0112960D911C910115110571
:103D600009F451C1D801ED91FC910480F581E02D59
:103D7000BE016B5E7F4FC8010995009709F03EC1F7
:103D8000F80100851185EACFF3E0FF120EC08F899C
:103D9000882309F440C0823061F440E860E181E6A4
:103DA00093E10E94CD21811148CF81E28093EB0005
:103DB00047CF813029F440E86BE085E593E1F1CF0E
:103DC000833099F70E944A0ADC011296ED90FC902C
:103DD0008E010F5F1F4F6801E114F10479F0D701E4
:103DE000ED91FC910680F781E02DB801C70109959E
:103DF000080F111DF701E084F184EECFD8011C9269
:103E0000F60101900020E9F73197BF016C197D0997
:103E100040E0C601C6CF6FE373E1FB01449150E07F
:103E200080E80E940D0B09CF973009F4BECF98307F
:103E300021F481E08093F10000CF993009F0FDCEAC
:103E4000837009F0B2CFEDE1F1E081E031E096E37B
:103E50002191222371F08093E9003093EB00DF0180
:103E600011972C912093EC009093ED008F5F873099
:103E700079F78EE78093EA001092EA008F898093A9
:103E80005D03DBCE8B8D9C8D1092E90010924B036D
:103E900010924A039093490380934803898D8111BE
:103EA00092C08E899D89913A49F4813209F07DCF83
:103EB00047E050E069E071E080E0B3CF913209F073
:103EC00074CF833269F48F89988DB0E0A0E080933D
:103ED000050190930601A0930701B0930801ADCEB0
:103EE000803269F48091E80082FFFCCF67E089E0CE
:103EF00091E00E94640B8BEF8093E8009ECE8232AB
:103F000009F09BCE8F8980931001EEEFFFE785913A
:103F100094918B3F9C4D51F1E0E0F8E080910901D4
:103F200090910A01A0910B01B0910C01803B94404B
:103F3000A105B105F1F48091100180FD1AC0EE3F9A
:103F40008AE0F80789F587E797E791838083809176
:103F5000600080934C0388E19BE00FB6F894A8952D
:103F6000809360000FBE9093600067CEEEEFFAE0A2
:103F7000D5CF808191818737974709F05ECEA8958C
:103F80008091600088618093600080914C038093F1
:103F90006000EE3F2AE0F20789F08091FE0A9091DE
:103FA000FF0A9183808349CE80819181873798076A
:103FB00051F29093FF0A8093FE0AC5CF1092FF0A38
:103FC0001092FE0A3ACE0E944A0ADC0112960D9126
:103FD0001C910115110509F4E8CED801ED91FC9171
:103FE0000190F081E02DBE016B5E7F4FC801099505
:103FF000811123CEF80100851185EBCF1816190623
:104000000CF41BCED2CEF1E0FF12BECE63E473E11E
:1040100004CF1F920F920FB60F9211248F939F938C
:10402000AF93BF93EF93FF938091680390916903DF
:10403000A0916A03B0916B03892B8A2B8B2BA1F182
:1040400090915F03E0916003F09161038081892783
:1040500080838091680390916903A0916A03B09175
:104060006B03181619061A061B069CF48091680348
:1040700090916903A0916A03B0916B030197A10924
:10408000B1098093680390936903A0936A03B09386
:104090006B03FF91EF91BF91AF919F918F910F9023
:1040A0000FBE0F901F901895809171008D7F8093A7
:1040B000710080915F03E0916003F0916103908152
:1040C000809589238083E5CF1F920F920FB60F92C0
:1040D00011242F933F938F939F93AF93BF9380911E
:1040E000A7029091A802A091A902B091AA023091D2
:1040F000A60223E0230F2D3758F50196A11DB11D0F
:104100002093A6028093A7029093A802A093A902ED
:10411000B093AA028091AB029091AC02A091AD0243
:10412000B091AE020196A11DB11D8093AB02909398
:10413000AC02A093AD02B093AE02BF91AF919F913C
:104140008F913F912F910F900FBE0F901F90189558
:1041500026E8230F0296A11DB11DD2CF1F920F9208
:104160000FB60F9211242F933F934F935F936F934A
:104170007F938F939F93AF93BF93EF93FF93809120
:10418000B900887F803609F44AC0F0F5883209F416
:10419000A7C018F5803109F49BC0B8F4882309F44E
:1041A000F9C0883009F494C0FF91EF91BF91AF91AD
:1041B0009F918F917F916F915F914F913F912F913F
:1041C0000F900FBE0F901F901895883109F488C08A
:1041D000803251F78093820214C0803409F49DC06C
:1041E00040F48033B9F38833F9F68093820285EC8A
:1041F000B0C0803509F485C0883509F496C088348C
:1042000099F60E94E215D0CF883909F48CC038F5B0
:10421000883729F050F4883611F0803729F683E08A
:104220008093B6021092810257C0883809F47BC08F
:10423000803919F0803809F0B7CF8091810280323F
:1042400008F071C0E091810281E08E0F80938102BD
:104250008091BB00F0E0EF59FD4F80833DC0803B73
:1042600039F0E0F4803A09F479C0883A09F09CCF3B
:1042700084E08093B6021092600210925F02E09197
:10428000B202F091B302099580915F0281110FC0D3
:1042900081E080935F0210923F0209C0803C09F4E4
:1042A000A6CF883C09F4A3CF883B09F07DCFE091ED
:1042B000600281E08E0F80936002F0E0E15CFD4FD0
:1042C00080818093BB009091600280915F0229C041
:1042D0008091A5028093BB0085EC8093BC0064CFE5
:1042E0009091A4028091A302981758F5E091A4023E
:1042F00081E08E0F8093A402F0E0ED57FD4F8081A6
:10430000E9CFE091A40281E08E0F8093A402809116
:10431000BB00F0E0ED57FD4F80839091A4028091A7
:10432000A3029817C8F285E8D8CFE091A40281E0F3
:104330008E0F8093A4028091BB00F0E0ED57FD4FFB
:1043400080838091B50281115CCF81E08093B402BB
:1043500084EA8093BC001092B60226CF85EC80934D
:10436000BC001092B60280918102803230F4E0915C
:104370008102F0E0EF59FD4F10826091810270E000
:10438000E091B002F091B10281E692E009951092BD
:1043900081020ACF1092820234CFEF92FF920F93E4
:1043A0001F93CF93DF93F82E192FE62E042F81E071
:1043B000860F880F0E94DF0A83E00E94DF0ACF2D5C
:1043C000D12FEC0EFD2EF11CCE15DF05B9F007FF45
:1043D00013C0FE0184910E94DF0A182F80E00E9422
:1043E000DF0A812321968111EFCFDF91CF911F91B9
:1043F0000F91FF90EF9008958881EDCF81E0F5CF88
:10440000EAE7F3E01382128288EE93E0A0E0B0E0E6
:1044100084839583A683B78387E291E09183808329
:104420002FEF3FEF35872487EBECF3E01382128206
:1044300040E850E05583448380E490E0978386838E
:104440005187408793878287158A15861486178639
:10445000168681E0848B338B228B318B208B868B6D
:10446000178A118E108E29E331E0318320832AECE4
:1044700033E0338F228F158E148E178E168E9FEF9A
:1044800093A394A394E095A39CE096A396E097A3AE
:1044900090E594AB85AB0895CF93DF93CDB7DEB7AE
:1044A0006B970FB6F894DEBF0FBECDBF789484B57E
:1044B000826084BD84B5816084BD85B5826085BD20
:1044C00085B5816085BD80916E00816080936E00AE
:1044D00010928100809181008260809381008091A0
:1044E0008100816080938100809180008160809351
:1044F0008000809191008260809391008091910072
:104500008160809391008091900081608093900001
:104510008091C10084608093C1008091C10082605D
:104520008093C1008091C10081608093C10080911F
:10453000C30081608093C3008091C000826080933B
:10454000C0008091C20081608093C20080917A0097
:10455000846080937A0080917A00826080937A00F0
:1045600080917A00816080937A0080917A008068DF
:1045700080937A0010925D0310924D0310924F03C6
:104580008091D70081608093D70080EA8093D80023
:1045900089B5806189BD89B5826089BD09B400FE95
:1045A000FDCF61E070E080E090E00E943D0F8091DF
:1045B000D8008F7C80618093D8008091E000807F5C
:1045C0008093E0008091E1008E7E8093E1008DE099
:1045D0008093E200559A209A8091E9039091EA0332
:1045E000892B39F10E948A1C8091D1039091D203CA
:1045F0006091CF037091D003813291050CF0C0C25D
:10460000AC014052510957FF02C04F5F5F4F5595B3
:1046100047956357710977FF02C06F5F7F4F7595AC
:104620006795F0E2EF2EF12C03E710E023E136E08E
:10463000BFC22091D1033091D203C901079697FDE3
:10464000079623E0959587952A95E1F72091CF036A
:104650003091D003AC01429FC001439F900D529F07
:10466000900D11240E9407309093EA038093E90390
:10467000892B09F0B7CFFF24F394F092DF0301E018
:1046800010E01093DE030093DD031093DC0300932E
:10469000DB0362E082E10E94430C62E083E10E945E
:1046A000430C62E084E10E94430C62E085E10E94D9
:1046B000430C62E087E00E94430C62E088E00E94C5
:1046C000430C61E08AE00E94430C61E08BE00E94B1
:1046D000430C61E085E00E94430C6FEF70E089E0DD
:1046E0000E94780E6FEF70E08AE00E94780E6FEF04
:1046F00070E08BE00E94780E89E190E090933403A3
:104700008093330388E090E09093360380933503E1
:1047100088E190E0909338038093370380E190E044
:1047200090933A038093390310933C0300933B0327
:1047300010923D0383E090E0909341038093400307
:104740001092BC021092BB021092470310924603D3
:1047500088EC90E0909345038093440310924203C9
:10476000F092430310923F0310923E0310923203E3
:1047700010923103EAEFF2E068E070E042E050E0CE
:1047800026E030E082E0738362835783468331877B
:10479000208782873B9693E0E133F907A1F71092D7
:1047A000BA021092B9021092F9021092F80201ECCA
:1047B00012E040E8C42ED12C50E1E52EF12C62E34A
:1047C000462E512C612C712C74E0872E912CA12C3B
:1047D000B12CF801D182C082F382E2820E94C22D04
:1047E000A30192010E94302E685F7F4F8F4F9F4F31
:1047F000D80115967C936E9314971796FC92EE92BF
:1048000016970E94C22DA50194010E94302E6F5F61
:104810007F4F8F4F9F4FF801718760871286055F2A
:104820001F4FF2E0083F1F07A1F690E080E00E94D2
:104830001A2E8093780381E090E00E941A2E8093D4
:1048400079038091780390917903019631F4109265
:104850007903109278030E946B1C98E2292E312C68
:1048600028E2422E512C612C712C88248394912CA7
:1048700080910401882309F457C009E010E082E028
:10488000C82EDD24D394B9E1EB2EF12C0E948A1CB2
:10489000C092DF039092DE038092DD039092DC03EE
:1048A0008092DB033092D8032092D7034AE050E095
:1048B0005093DA034093D90381E691E00E94241DCE
:1048C00084E190E09093D8038093D7033092DA0389
:1048D0002092D90386E691E00E94241D0E94661A68
:1048E000D092DF036FED70E0802F0E94780E64E6B7
:1048F00070E080E090E00E943D0F88E00E94EC0BA9
:10490000892B09F057C36FEF70E089E00E94780EA1
:104910006FEF70E08AE00E94780E6FEF70E08BE03E
:104920000E94780E109204012091440330914503B7
:104930008091460390914703B9010E94ED2F892B86
:1049400009F0EDC080914303882309F4E8C0809109
:10495000BB029091BC020196863091050CF0EFC32A
:104960009093BC028093BB028091310390913203FB
:104970000196863091050CF0E9C390933203809341
:1049800031038091F8029091F902019686309105E9
:104990000CF0DFC39093F9028093F8021092430366
:1049A0008091BB029091BC02029734F0220F331F1A
:1049B00030934503209344037AE0E72EF12C09E07D
:1049C00010E0E2E0DE2ECC24C3940E948A1CD09238
:1049D000DF039092DE038092DD039092DC038092ED
:1049E000DB033092D8032092D703EAE0F0E0F093A3
:1049F000DA03E093D90386EC91E00E94241D40E4A1
:104A000050E05093D8034093D7033092DA032092BA
:104A1000D9036091BB027091BC02072E000C880B79
:104A2000990B0E94F81C0E94661AC092DF036FED7A
:104A300070E0802F0E94780E64E670E080E090E0E5
:104A40000E943D0F6FEF70E089E00E94780E6FEFDB
:104A500070E08AE00E94780E6FEF70E08BE00E94B9
:104A6000780E0E948A1CD092DF0361E070E08BEC2C
:104A700093E00E94BF131092DE031092DD031092A8
:104A8000DC031092DB033092D8032092D7038AE034
:104A900090E09093DA038093D90386EC91E00E9432
:104AA000241DACE3B0E0B093D803A093D7033092B9
:104AB000DA032092D9036091BB027091BC02072EE9
:104AC000000C880B990B0E94F81C0E94661AC09279
:104AD000DF036FEF70E0802F0E94780E64E670E0D5
:104AE00080E090E00E943D0F0F5F1F4F0C301105DA
:104AF00014F009E010E06FEF70E089E00E94780E9A
:104B00006FEF70E08AE00E94780E6FEF70E08BE04C
:104B10000E94780EB1E0EB1AF10809F056CF8091AF
:104B200046039091470364EF71E00E94ED2F892BBB
:104B300009F021C380914203882309F41CC363E375
:104B4000E62EF12CE1E0EE1AF10809F409C319E0B0
:104B50006FE770E0812F0E94780E61E070E080E0E6
:104B600090E00E943D0F6FEF70E0812F0E94780E61
:104B700088EC90E00E94740C1F5F1C3049F7E2CF74
:104B8000AC014054510957FF02C04F5F5F4F55952C
:104B900047956255710977FF02C06F5F7F4F75952A
:104BA000679510E4E12EF12C02E510E023EF37E0E9
:104BB0008BEC93E00E94C21482E08093EC0380911E
:104BC000E7039091E803892B09F4E9C08091D103B0
:104BD0009091D203809709F0E0C08CE38093EB03BF
:104BE0001092B8021092B7021092750310927403DB
:104BF0001092B60281E08093B5021092B40261E097
:104C000082E00E94150C61E083E00E94150C809107
:104C1000B9008E7F8093B9008091B9008D7F809319
:104C2000B90088E48093B80085E48093BC008EE9E5
:104C30009BE09093B3028093B2028FE99BE0909344
:104C4000B1028093B0028091F20387FD1EC061E043
:104C50000E94430C61E08091F2030E94150C61E018
:104C600070E080E090E00E943D0F60E08091F203F0
:104C70000E94150C6AE070E080E090E00E943D0F19
:104C800061E08091F2030E94150C8091E7039091FE
:104C9000E803892B09F442C12091010430910204F8
:104CA000409103045091040460E074E284EF90E0CA
:104CB0000E94622E205131094109510956954795AC
:104CC000379527952093B80064E08FE096E00E9426
:104CD00053196091D10361508BEC93E00E94011A4B
:104CE00064E08BE096E00E9453198091EC0360E150
:104CF000813009F064E18BEC93E00E94011A64E0DA
:104D000087E096E00E9453198091CF039091D003E1
:104D10008038910509F02DC18091D1039091D20383
:104D20008032910509F011C164E083E096E00E94B1
:104D3000531969ED8BEC93E00E94011A8091EC030A
:104D400062E2813009F061EF8BEC93E00E94011A7E
:104D500066E087EF95E00E9453198091E7039091F8
:104D6000E803892B09F41CC1209105043091060445
:104D7000409107045091080460E074E284EF90E0F1
:104D80000E94622E205131094109510956954795DB
:104D9000379527952093B8006ECC8DE31FCF61E047
:104DA0008091F0030E94430C61E08091F1030E9426
:104DB000430C8091F003082E000C990BFC01EC557C
:104DC000FC4EE491F0E0EE0FFF1FEA56FC4E2591F9
:104DD00034913093F8032093F703FC01E958FC4E1B
:104DE000E491E093FD038091F103082E000C990BF0
:104DF000FC01EC55FC4EE491F0E0EE0FFF1FEA568B
:104E0000FC4EA591B491B093FA03A093F903FC0171
:104E1000E958FC4EE491E093FE038C91E82BEC936F
:104E20008091E5039091E603892B09F434C01FB704
:104E3000F8948091AF02811127C0E5EBF3E18491F2
:104E4000E8E8F3E19491E82FF0E0EE0FFF1FE7515F
:104E5000FA4FA591B491EC91E92321F461E081E14D
:104E60000E94150C61E081E10E94430C8CB58061C9
:104E70008CBD8CB580648CBD61E08FE00E94430CDA
:104E800061E080E10E94430C8091AF028F5F8093CC
:104E9000AF021FBFD8CE61E08091EE030E94430CA9
:104EA00061E08091EF030E94430C8091EE03082E95
:104EB000000C990BFC01EC55FC4EE491F0E0EE0F78
:104EC000FF1FEA56FC4E259134913093F403209352
:104ED000F303FC01E958FC4EE491E093FB0380915D
:104EE000EF03082E000C990BFC01EC55FC4EE491ED
:104EF000F0E0EE0FFF1FEA56FC4EA591B491B0937F
:104F0000F603A093F503FC01E958FC4EE491E0930D
:104F1000FC038C91E095E823EC9395CE8091E5031A
:104F20009091E603892B31F08091FF03909100046A
:104F30000E94631AE091F903F091FA039081809145
:104F4000FE03809589238083BFCE8034910509F0CC
:104F5000F0CE63E080E096E00E9453198091EC036C
:104F60006FE9813009F06FEC8BEC93E00E94011A3D
:104F7000E0CE8036910509F0DCCE8091D10390918E
:104F8000D203409709F0D5CE63E08DEF95E00E9403
:104F900053198091EC0360E1813031F36FEAE4CF83
:104FA000E091F903F091FA0380819091FE03892B3F
:104FB000808361CB0E948A1CC092DF0361E070E0B5
:104FC0008BEC93E00E94BF131092DE031092DD037E
:104FD0001092DC031092DB033092D8032092D703A7
:104FE000AAE0B0E0B093DA03A093D90381E691E0A0
:104FF0000E94241DE4E1F0E0F093D803E093D7038E
:105000003092DA032092D90386E691E00E94241DB3
:105010000E94661AD092DF036FEF70E0802F0E942B
:10502000780E64E670E080E090E00E943D0F0F5F34
:105030001F4F0C30110514F009E010E088E00E94C9
:10504000EC0B892B09F45FCCF1E0EF1AF10809F0C1
:105050001DCCA9E1EA2EF12C0E948A1C9092DE035D
:105060008092DD039092DC038092DB03D092DF0319
:1050700064E08FE691E00E94311D60E18DE791E0F0
:105080000E94311D6CE18CE891E00E94311D66E2C6
:1050900080EA91E00E94311D64E381EB91E00E947F
:1050A000311D0E94661A6FED70E089E00E94780E53
:1050B0006FED70E08AE00E94780E6FED70E08BE09B
:1050C0000E94780E64E670E080E090E00E943D0F60
:1050D00088E00E94EC0B892B81F46FEF70E089E08F
:1050E0000E94780E6FEF70E08AE00E94780E6FEFFA
:1050F00070E08BE00E94780E06CC0E94661A6FEF7B
:1051000070E089E00E94780E6FEF70E08AE00E9404
:10511000780E6FEF70E08BE00E94780E64E670E02E
:1051200080E090E00E943D0F88E00E94EC0B892B0C
:10513000A1F221E0E21AF10809F08ECFA4CB45E0FC
:1051400050E05093BC024093BB020ECC85E090E04F
:1051500014CCA5E0B0E0B093F902A093F8021ECC05
:105160008091400390914103019690934103809375
:1051700040031092420380913D03823071F489E133
:1051800090E0909334038093330388E190E0909310
:1051900038038093370310923D0382E10E94EC0BA9
:1051A000892B69F4809137039091380304978830F4
:1051B00091050CF459C0909338038093370385E12F
:1051C0000E94EC0B892B69F480913703909138038E
:1051D0000496813391050CF04AC090933803809374
:1051E000370384E10E94EC0B892B59F4809133033F
:1051F00090913403049797FD3DC0909334038093BE
:10520000330383E10E94EC0B892B61F4809133031B
:10521000909134030496813891057CF59093340382
:105220008093330387E00E94EC0BE0903103F09011
:105230003203892B39F1EAEFF2E030E020E042E07E
:105240002E153F050CF064C08285811109C0808154
:105250009181069691838083813891050CF0428775
:105260002F5F3F4F3B96ECCF88E090E0A4CF80E3E8
:1052700090E0B3CF80E890E0C0CF1092340310925A
:105280003303D0CF80913E0390913F032BE0289FC2
:10529000F001299FF00D1124E650FD4F22852230A8
:1052A00051F61286209133033091340331832083E9
:1052B0002091370330913803285F3F4F3583248393
:1052C00001968E159F05FCF490933F0380933E0357
:1052D00003E310E00150110909F4ADCF6FE770E06E
:1052E0008BE00E94780E61E070E080E090E00E9428
:1052F0003D0F6FEF70E08BE00E94780E8EEE92E033
:105300000E94740CE7CF10923F0310923E03E0CF4F
:1053100001EC12E0F12CE12C40E8C42ED12C52E03B
:10532000B52EAA24A3944091F8025091F902598F06
:10533000488FE416F5060CF076C0D8011A968C91C9
:105340001A97823011F5CD92DC920E94C22DA301F2
:1053500092010E94302E685F7F4F8F4F9F4FF80160
:10536000758364830E94C22D24E030E040E050E069
:105370000E94302E6F5F7F4F8F4F9F4FD80119963D
:105380007C936E9318971A961C92F801828581304F
:1053900009F4B286D8011A968C911A9781110DC022
:1053A0008D919C91119718962D913C911997821B84
:1053B000930B97FD08C08D939C93FFEFEF1AFF0AA4
:1053C000055F1F4FB0CFF801D182C0820E94C22D6D
:1053D000A30192010E94302E685F7F4F8F4F9F4F35
:1053E000D80115967C936E9314970E94C22D24E0E9
:1053F00030E040E050E00E94302E6F5F7F4F8F4FD3
:105400009F4FF80171876087B286A0923D0380911B
:10541000400390914103019790934103809340038F
:105420000E94251CCACF01EC12E0F12CE12CDD24F6
:10543000D3943BE0C32E40914003509141035B8FD6
:105440004A8F888D998DE816F90624F5B80183E313
:1054500093E00E94EA1B892BB9F0D0923D038A8D1C
:105460009B8D019790934103809340038091B902F3
:105470009091BA02C89EF001C99EF00D1124EF531D
:10548000FD4FD2860E94251C9FEFE91AF90A055F9D
:105490001F4FD1CF0AEF12E0D12CC12C80913103E4
:1054A00090913203C816D9060CF082C021ECE22E8E
:1054B00022E0F22EB12CA12CA88DB98DAA16BB0624
:1054C0000CF070C0B701C8010E94EA1B892B09F4D7
:1054D00062C0809146039091470322E0F801228741
:1054E000E1E0D7011A96EC930A96909347038093D4
:1054F0004603E09342038091BB029091BC02059762
:1055000014F4E093430343E350E05F8B4E8B8E89AA
:105510009F8901979F8B8E8B892BE9F16FE770E054
:1055200089E00E94780E61E070E080E090E00E94E7
:105530003D0F6FEF70E089E00E94780E82E390E00B
:105540000E94740C6FE770E089E00E94780E61E0C1
:1055500070E080E090E00E943D0F6FEF70E089E026
:105560000E94780E82E390E00E94740C6FE770E076
:1055700089E00E94780E61E070E080E090E00E9497
:105580003D0F6FEF70E089E00E94780E82E390E0BB
:105590000E94740CBCCF9FEFA91AB90AABE0EA0EC7
:1055A000F11C8ACFBFEFCB1ADB0A055F1F4F76CF06
:1055B000EA8DFB8DF7FF92C00091460310914703DF
:1055C00064EF71E080E090E00E943D0F80917803ED
:1055D000909179038017910730F410937903009329
:1055E00078030E946B1C03E2A02EB12C8CE1C82E24
:1055F000D12C94E0E92EF12C0CE210E00E948A1CE0
:10560000F1E0F093DF039092DE038092DD0390924D
:10561000DC038092DB036CE08CEC91E00E94311D96
:10562000B092D803A092D703D092DA03C092D903E4
:105630008BED91E00E94241D609146037091470319
:10564000072E000C880B990B0E94F81CF092D803CF
:10565000E092D7031093DA030093D90386ED91E02B
:105660000E94241D609178037091790390E080E09E
:105670004AE00E94AA1C0E94661A88E00E94EC0B75
:10568000892B09F0BBCF109247031092460383E0A9
:1056900090E090934103809340031092BC021092DB
:1056A000BB0210923203109231031092F902109251
:1056B000F80221E0209304012093430388EC90E05A
:1056C00090934503809344031092420310923F034A
:1056D00010923E031092BA021092B9020E948A1CE4
:1056E0001092D8031092D7031092DA031092D903C4
:1056F00081E08093DF039092DE038092DD0390923D
:10570000DC038092DB0380914603909147038A304B
:105710009105A4F49F938F9383EE91E09F938F93D1
:1057200041E050E04C0F5D1F5F934F930E94383172
:105730000F900F900F900F900F900F908091460355
:10574000909147039C012A5031092A353105A0F474
:105750009F938F9384EE91E09F938F9381E090E0ED
:105760008C0F9D1F9F938F930E9438310F900F9045
:105770000F900F900F900F908091460390914703E8
:105780009C012456310924383340A0F49F938F9311
:1057900085EE91E09F938F93E1E0F0E0EC0FFD1F29
:1057A000FF93EF930E9438310F900F900F900F905E
:1057B0000F900F908091460390914703883EF3E04D
:1057C0009F07A4F09F938F9386EE91E09F938F9312
:1057D00041E050E04C0F5D1F5F934F930E943831C2
:1057E0000F900F900F900F900F900F90CE01019699
:1057F0000E94241D1092D8031092D70388E090E0F5
:105800009093DA038093D9031092DE031092DD03A4
:105810001092DC031092DB0360913E0370913F0312
:10582000072E000C880B990B0E94F81C9092DE0347
:105830008092DD039092DC038092DB03D12CC12C9B
:10584000B12CA12C8091400390914103A816B90678
:10585000ACF418E0E12EF12C04E010E025EF32E189
:1058600050E040E0B6018BEC93E00E94C2145FEF81
:10587000A51AB50A86E0C80ED11CE4CF80913D037D
:10588000811113C040913703509138036091330365
:1058900070913403B0E1EB2EF12C08E010E025EE1E
:1058A00032E18BEC93E00E94C21480913D03813081
:1058B000B1F44091370350913803609133037091F4
:1058C0003403A8E0EA2EF12C00E110E025ED32E1EE
:1058D0008BEC93E00E94C21482E080933D03FAEFC8
:1058E000CF2EF2E0DF2EB12CA12C809131039091CC
:1058F0003203A816B906F4F4D6011A968C911A97B9
:10590000811111C014964D915C9115976D917C9108
:10591000E2E0EE2EF12C08E010E023ED32E18BEC1A
:1059200093E00E94C214BFEFAB1ABB0AEBE0CE0EAD
:10593000D11CDBCF41ECC42E42E0D42EB12CA12CE3
:105940008091F8029091F902A816B9068CF5D6015B
:105950001A968C911A97811111C014964D915C91F1
:1059600015976D917C9130E1E32EF12C00E110E070
:1059700023EB32E18BEC93E00E94C214F6018285A6
:10598000813079F4448155816081718128E0E22E73
:10599000F12C00E110E025ED32E18BEC93E00E9468
:1059A000C214FFEFAF1ABF0A2BE0C20ED11CC8CF42
:1059B0006091BD027091BE028091BF029091C002C1
:1059C0000E94052F90E4E92EF12C00E810E023EB73
:1059D0003EE048E050E08BEC93E00E94C2142DECD6
:1059E0003CEC4CEC5DE36091BD027091BE02809195
:1059F000BF029091C0020E94932E6B017C0120E0B7
:105A000030E04EEF52EC0E94002F87FD4AC0C0925A
:105A1000BD02D092BE02E092BF02F092C00260913D
:105A200000017091010180910201909103010E9497
:105A3000052F80E4E82EF12C00E810E023EB3AE09B
:105A400048E050E08BEC93E00E94C2142DEC3CEC5B
:105A50004CEC5DE3609100017091010180910201C5
:105A6000909103010E94932E6B017C0120E030E0B5
:105A7000A9010E94002F87FD1DC0C0920001D09295
:105A80000101E0920201F09203010E94661A80E097
:105A900090E0892B11F40C9438240E9400000C949F
:105AA00038241092BD021092BE021092BF021092D2
:105AB000C002B5CF80E090E0A0E0B3E480930001A5
:105AC00090930101A0930201B0930301DECF89E31B
:105AD00091E09093CC038093CB038091E903909164
