:100000000C94E4090C940C0A0C940C0A0C940C0A41
:100010000C940C0A0C940C0A0C940C0A0C940C0A08
:100020000C940C0A0C940C0A0C943C1D0C94AB1D03
:100030000C940C0A0C940C0A0C940C0A0C940C0AE8
:100040000C940C0A0C940C0A0C940C0A0C940C0AD8
:100050000C940C0A0C940C0A0C940C0A0C94382086
:100060000C940C0A0C940C0A0C940C0A0C940C0AB8
:100070000C940C0A0C940C0A0C940C0A0C940C0AA8
:100080000C94DD1F0C940C0A0C940C0A0C940C0AB2
:100090000C9482200C940C0A0C940C0A0C940C0AFC
:1000A0000C940C0A0C940C0A0C940C0A0001030723
:1000B0000F1F3F7F0080C0E0F0F8FCFE0000000052
:1000C000003E5B4F5B3E3E6B4F6B3E1C3E7C3E1CDE
:1000D000183C7E3C181C577D571C1C5E7F5E1C0024
:1000E000183C1800FFE7C3E7FF0018241800FFE7DB
:1000F000DBE7FF30483A060E2629792926407F059E
:100100000507407F05253F5A3CE73C5A7F3E1C1CB3
:1001100008081C1C3E7F14227F22145F5F005F5F73
:1001200006097F017F006689956A6060606060945F
:10013000A2FFA29408047E040810207E2010080864
:100140002A1C08081C2A08081E101010100C1E0C6F
:100150001E0C30383E3830060E3E0E060000000001
:100160000000005F00000007000700147F147F14E8
:10017000242A7F2A1223130864623649562050002D
:1001800008070300001C2241000041221C002A1C19
:100190007F1C2A08083E0808008070300008080804
:1001A0000808000060600020100804023E51494524
:1001B0003E00427F400072494949462141494D3342
:1001C0001814127F1027454545393C4A49493141A9
:1001D000211109073649494936464949291E000077
:1001E00014000000403400000008142241141414CC
:1001F0001414004122140802015909063E415D59B8
:100200004E7C1211127C7F494949363E41414122C0
:100210007F4141413E7F494949417F090909013EEA
:10022000414151737F0808087F00417F4100204011
:10023000413F017F081422417F404040407F021C23
:10024000027F7F0408107F3E4141413E7F0909093A
:10025000063E4151215E7F09192946264949493206
:1002600003017F01033F4040403F1F2040201F3FCC
:100270004038403F63140814630304780403615951
:10028000494D43007F414141020408102000414193
:10029000417F04020102044040404040000307083F
:1002A0000020545478407F2844443838444444283B
:1002B000384444287F385454541800087E090218E2
:1002C000A4A49C787F0804047800447D400020406A
:1002D000403D007F1028440000417F40007C0478AE
:1002E00004787C080404783844444438FC182424F6
:1002F0001818242418FC7C08040408485454542476
:1003000004043F44243C4040207C1C2040201C3CF2
:100310004030403C44281028444C9090907C4464E9
:10032000544C44000836410000007700000041367C
:10033000080002010204023C2623263C1EA1A16102
:10034000123A4040207A3854545559215555794134
:100350002254547842215554784020545579400C09
:100360001E527212395555555939545454593955EC
:100370005454580000457C410002457D420001452F
:100380007C407D1211127DF0282528F07C545545C3
:10039000002054547C547C0A097F4932494949322F
:1003A0003A4444443A324A4848303A4141217A3A40
:1003B00042402078009DA0A07D3D4242423D3D400C
:1003C00040403D3C24FF2424487E4943662B2FFCBB
:1003D0002F2BFF0929F620C0887E09032054547969
:1003E000410000447D413048484A32384040227A3A
:1003F000007A0A0A727D0D19317D2629292F2826B7
:100400002929292630484D402038080808080808BE
:100410000808382F10C8ACBA2F102834FA00007B17
:10042000000008142A142222142A1408550055002A
:1004300055AA55AA55AAFF55FF55FF000000FF0019
:10044000101010FF00141414FF001010FF00FF1014
:1004500010F010F0141414FC001414F700FF000046
:10046000FF00FF1414F404FC141417101F10101FC5
:10047000101F1414141F00101010F0000000001FB3
:10048000101010101F10101010F010000000FF10BE
:100490001010101010101010FF10000000FF1400BA
:1004A00000FF00FF00001F10170000FC04F41414EC
:1004B0001710171414F404F40000FF00F7141414B8
:1004C00014141414F700F7141414171410101F1038
:1004D0001F141414F4141010F010F000001F101F5B
:1004E0000000001F14000000FC140000F010F010C9
:1004F00010FF10FF141414FF141010101F00000040
:1005000000F010FFFFFFFFFFF0F0F0F0F0FFFFFF43
:100510000000000000FFFF0F0F0F0F0F384444389A
:1005200044FC4A4A4A347E02020606027E027E02E9
:1005300063554941633844443C04407E201E2006F4
:10054000027E020299A5E7A5991C2A492A1C4C7231
:1005500001724C304A4D4D303048784830BC625AB8
:10056000463D3E494949007E0101017E2A2A2A2A48
:100570002A44445F444440514A444040444A514024
:100580000000FF0103E080FF000008086B6B0836E5
:1005900012362436060F090F060000181800000056
:1005A0001010003040FF0101001F01011E00191D45
:1005B0001712003C3C3C3C00000000000000000022
:1005C0002300260029002C002F0000000002000953
:1005D0000F0000030401000C0000000000000000F8
:1005E00000000000000000000000000000240027C0
:1005F000002A002D003000DB40A4A62EAFDA0281D5
:10060000DA1281DA02818F2000A1C8D300408DAEBA
:10061000D580A8000060000000000000000000007D
:1006200000000000E00000000000000000000000EA
:10063000000001E0000000000000000000000000D9
:100640000001F000000000000000000000000000B9
:1006500003F00000000000000000000000000007A0
:10066000F00000000000000000000000000007F89B
:10067000000000000000000000000000000FF80073
:10068000000003C0007E000001E0007F0FF80000C2
:100690000003C000FE000001E000FFEFF8000000D2
:1006A00003C000FE000001E000FFFFF800000003AF
:1006B000C000F00000000F007FFE7FC0000003C0FC
:1006C00000F00000000F003FFE7FF83FF1FBCFFC81
:1006D000FEF3BC3DEFE01FFE7FFF7FFBFFDFFEFE72
:1006E000FFBC3DEFE01FC6FFFF7FFBFFDFFEFEFF0D
:1006F000BC3DEFE00FE3C7FE787BC3DE1EF0FFBC1E
:100700003DEF0007FF87FC787BC3DE1EF0F83C3D21
:10071000EF0001FFFFF0007BC3C01EF0F03C3DEF97
:100720000001F37FE03FFBC3CFFEF0F03C3DEF0064
:1007300003E33F807FFBC3DFFEF0F03C3DEF0007AB
:10074000E73C00787BC3DE1EF0F03C3DEF0007FF86
:10075000BE00787BC3DE1EF0F03C3DEF0007FFFEDD
:1007600000787BC3DE1EF0F03C3DEF000FFFFE0083
:100770007FFBFFDFFEF0F03FFDEFE00FFFFF007FAC
:10078000FBFFDFFEF0F03FFDEFE00FF9FF003E79E9
:10079000F9CF9EF0F01F3DE7E01FF1FF00000000E1
:1007A00000000000000000001F80FF007FFFFFFF2F
:1007B000FFFFFFFFFFFFE01C007F007FFFFFFFFE4A
:1007C000B46D888D18E000001F007FFFFFFFFE95CD
:1007D000AD7DB577E000000F007FFFFFFFFEA5AD08
:1007E0009D8D19E0000006007FFFFFFFFEB5ADED17
:1007F000B57EE00000000000018000000000000065
:10080000000000038000000000000000000007C09E
:1008100000000000000000000007C0000000000011
:10082000000000000FC00000000000000000001FDA
:10083000E00000000000000000001FE000000000D9
:1008400000000000003FE000000000000000000089
:100850003FF00000000000000000007FF0000000FA
:10086000000000001FF87FF0000000000000003FC3
:10087000FE7FF0000000000000003FFF7FF000005E
:1008800000000000001FFFFBE0000000000000006F
:100890000FFFF9FFC00000000000000FFFF9FFF894
:1008A00000000000000007FFF1FFFF000000000053
:1008B0000003FC73FFFF80000000000001FE3FFF0B
:1008C000FF80000000000000FF1E0FFF000000007E
:1008D0000000007FFE1FFC000000000000003FFF42
:1008E000FFF8000000000000000FDFFFE000000044
:1008F000000000001F19FFC0000000000000003FC2
:100900003CFF00000000000000007E7CF8000000BA
:1009100000000000007FFE7C0000000000000000DE
:10092000FFFFFC0000000000000000FFFFFE0000D1
:10093000000000000000FFFFFE00000000000000BB
:1009400001FFEFFE0000000000000001FFCFFE00ED
:1009500000000000000003FF07FE00000000000090
:100960000003FC07FE0000000000000003F003FE8F
:1009700000000000000000018000FE0000000000F8
:1009800000000000007E00000000000000000000E9
:100990003E000000000000000000000C000000000D
:1009A0000000078000FC000003C000000007800179
:1009B000FC000003C0000000078001FC000003C031
:1009C000000000078001E00000001E00000007801A
:1009D00001E00000001E007FE3F79FF9FDE7787B50
:1009E000DFC0FFF7FFBFFDFDFF787BDFC0FFF7FF34
:1009F000BFFDFDFF787BDFC0F0F787BC3DE1FF78EE
:100A00007BDE00F0F787BC3DE1F0787BDE0000F78D
:100A100087803DE1E0787BDE007FF7879FFDE1E0A6
:100A2000787BDE00FFF787BFFDE1E0787BDE00F03A
:100A3000F787BC3DE1E0787BDE00F0F787BC3DE165
:100A4000E0787BDE00F0F787BC3DE1E0787BDE00FC
:100A5000FFF7FFBFFDE1E07FFBDFC0FFF7FFBFFD5A
:100A6000E1E07FFBDFC07CF3F39F3DE1E03E7BCF25
:100A7000C00000000000000000000000FFFFFFFFBA
:100A8000FFFFFFFFFFFFC0FFFFFFFFFD68DB111A45
:100A900031C0FFFFFFFFFD2B5AFB6AEFC0FFFFFFD6
:100AA000FFFD4B5B3B1A33C0FFFFFFFFFD6B5BDBC2
:100AB0006AFDC0000000000000000000000000000F
:100AC00000000020000800000000000000000000FE
:100AD000000000000000000000000800000000000E
:100AE0000000000000000002800000001000000074
:100AF000000020000000000EA00000000000000028
:100B0000000000000000003A0000000000000000AB
:100B10000000000000000055080000000000000078
:100B20000000000000000074400000000000100001
:100B300040000000020000D0008000000000000023
:100B400000000000000040EA8000000000000000FB
:100B500000000000000000A00000000000000000F5
:100B600000000000000000D008800000000000002D
:100B700000000000000000A40000000000000000D1
:100B800000000000000000C00A000000000000009B
:100B900000400000000000482100000000000008A4
:100BA00000002000000000400400004000000000A1
:100BB0000000000000000020000000000000000015
:100BC00000000000000000081200000000044000C7
:100BD000000000000000000000000000005BB40006
:100BE000000000000000000540000000017D5A8068
:100BF00000000000080000000000000003EB494076
:100C00000000000000000000000000000BBAA41467
:100C10000000000000000000000000002ED5510080
:100C20000080000000000000000000001B6A044477
:100C3000000000000000000000000000FFB55001AF
:100C40000000000000000000000000016AAA02206D
:100C5000400000000000000000000002DD554004DC
:100C6000000000000000000000000003F548110033
:100C7000200000000000002000000006B6A2842032
:100C800000000000000400000000000FEA90400097
:100C900090000000000000000000800DBAA42002B7
:100CA000044000000000000000000007EA81008806
:100CB00040000040000000000000001EAA2808209C
:100CC00004000000000000000000003BB48122800E
:100CD00000004000000000000000002ED21048007C
:100CE000020000000000000000000037594500002D
:100CF00000000000000080000000001AC42800006E
:100D000002000000000000000000002F7542800477
:100D100000000000001084000000003AA80010103D
:100D200042000000000000000000003FA524004039
:100D300000000000020490000000006A5000400023
:100D4000040000000002A0000000003D88890002AD
:100D50000200000000008000000000356200010871
:100D6000000000000057F5000000005A8820002015
:100D70004A0000000000800000000036A080000251
:100D8000000000000002A0000000002D120002116F
:100D90000A000000000490000000001AC000004497
:100DA00044000200000000000000002D29040002A1
:100DB0002804000000108400000000150020082115
:100DC00010000001000000000040000CAA00010813
:100DD000A8000000000080000000000A800010044D
:100DE000400000000000000000000005510002214A
:100DF00030000000000040000000000A0421081438
:100E0000400000000000000000000005508000418C
:100E1000400000000000000000000001220000006F
:100E200080000000000000000000000280000209B5
:100E30000000000000000000000000005088202298
:100E4000020000000000000000000000840000021A
:100E500000000000000200000000000010000088F8
:100E60000004000000000000000000000900002055
:100E7000000000020000000000000800024804001A
:100E8000000000000000000000000000008241009F
:100E9000000000000000000000000000001114002D
:100EA0000000000000000000004000000000000002
:100EB0000000000000000000000000000000000032
:100EC00000000020000800000000000000000000FA
:100ED000000000000000000000000800000000000A
:100EE0000000000000000002800000001000000070
:100EF000000020000000000EA00000000000000024
:100F0000000000000000003A0000000000000000A7
:100F10000000000000000055080000000000000074
:100F200000000000000000744000000000001000FD
:100F300040000000020000D000800000000000001F
:100F400000000000000040EA8000000000000000F7
:100F500000000000000000A00000000000000000F1
:100F600000000000000000D0088000000000000029
:100F700000000000000000A40000000000000000CD
:100F800000000000000000C00A0000000000000097
:100F900000400000000000482100000000000008A0
:100FA000000020000000004004000040000000009D
:100FB0000000000000000020000000000000000011
:100FC0000000000000000008120000000000000007
:100FD0000000000000000000000000000000000011
:100FE000000000000000000540000000001C1C0084
:100FF0000000000008000000000000000040014068
:1010000000000000000000000000000002000020BE
:1010100000000000000000000000000008000018B0
:10102000008000000000000000000000000000043C
:101030000000000000000000000000000000003C74
:10104000800000000000000000000000000007FE1B
:1010500080000000000000000000000000007FFF92
:101060008000000000000000000000010000FFFF01
:10107000C000000000000020000000020003FFF894
:10108000200000000004000000000002000FFCFF30
:10109000A000000000000000000080040017FE8097
:1010A000104000000000000000000004007FFE80EF
:1010B00010000040000000000000000800FFE800F1
:1010C00008000000000000000000000001FF800098
:1010D00008004000000000000000001003FE0000B7
:1010E0000400000000000000000000100FFC0000E1
:1010F0000400000000008000000000000FF000006D
:101100000400000000000000000000001FF00000CC
:101110000000000000108400000000103FE000000C
:101120000000000000000000000000103FC00000B0
:101130000400000002049000000000107F80000006
:10114000040000000002A000000000107F0000006A
:101150000400000000008000000000107E0000007D
:10116000000000000057F50000000000FE00000035
:10117000000000000000800000000000FD000000F2
:10118000040000000002A00000000011FC00001894
:10119000040000000004900000000001FA000010AC
:1011A000000002000000000000000009F80007C075
:1011B000080400000010840000000001F8000F0087
:1011C000100000010000000000400007F800FC00D3
:1011D000100000000000800000000003F80FF00085
:1011E00020000000000000000000000179FF8000E6
:1011F000200000000000400000000000FFFC000094
:10120000000000000000000000000000FFF80000E7
:101210000000000000000000000000005F800000EF
:1012200000000000000000000000000006000000B8
:1012300000000000000000000000000000000000AE
:101240000200000000000000000000000000000894
:101250000000000000020000000000000400001078
:101260000004000000000000000000000200000078
:10127000000000020000000000000800003006002E
:101280000000000000000000000000000007F00067
:10129000000000000000000000000000000000004E
:1012A00000000000000000000040000000000000FE
:1012B0000000000000038007E00DB04DB26FD6FBC8
:1012C000FF0FF807E003C00E70781E200C20080006
:1012D000000000AA550880451020201040C01810BA
:1012E000402020451080C0F8C0C0E0F8FFF8E0C002
:1012F000C0F8C0800080C080F0C080C000080B0033
:10130000020202010009040000010202000005249B
:101310000010010524010101042402060524060031
:10132000010705810310004009040100020A0000C2
:101330000007050202400000070583024000000488
:1013400003090412010002EF02014041233680002C
:10135000010102030141726475696E6F204C4C43B8
:101360000041726475696E6F204C656F6E617264C6
:101370006F002200FF21000408020110408040108D
:1013800020408040800802040180402010020110AB
:1013900080102040402000000000250028002B0085
:1013A0002E003100040404040403040502020202B6
:1013B00004030202020206060606060604040202EE
:1013C00002040403D4213F2B11241FBECFEFDAE027
:1013D000DEBFCDBF11E0A0E0B1E0E2E1F4E602C083
:1013E00005900D92A63FB107D9F723E0A6EFB1E033
:1013F00001C01D92A43AB207E1F719E0C3EED9E0AB
:1014000004C02197FE010E94D92DC23ED107C9F721
:101410000E9420220C94FC310C9400000895FC01E1
:101420008285811134C08091F402811130C0809195
:10143000EA029091EB024081518122813381240F95
:10144000351F821793071CF52091EC023091ED02B5
:10145000820F931F48175907D4F48091EE029091A0
:10146000EF024481558126813781240F351F821771
:1014700093076CF42091F0023091F102280F391F8C
:1014800081E090E04217530724F080E0089580E067
:1014900090E00895FC018091E902882311F13FB7A3
:1014A000F89482E08093E9002091F200822F90E08E
:1014B0001816190614F481E090E0882339F0289872
:1014C00044E64093E8024091F1004083222339F042
:1014D0002091F200211103C02BE62093E8003FBFCA
:1014E00008958FEF9FEF08952FB7F89483E08093CE
:1014F000E9009091E800892F807295FF04C09091D7
:10150000F20080E4891B2FBF08958091E0028111D1
:101510000DC082E08093DC0284E08093DD021092B3
:10152000DF021092DE0281E08093E0028CED92E017
:101530000895CF93DF931F92CDB7DEB76983DC01A7
:10154000ED91FC910280F381E02D41E050E0BE017D
:101550006F5F7F4F09950F90DF91CF91089583E0E2
:101560008093E9008091F200882319F08AE3809348
:10157000E80008950E94740A90E00895CF93DF93E5
:101580001F92CDB7DEB7FC018485958597FD08C015
:101590002FEF3FEF358724870F90DF91CF9108958C
:1015A000CE0101960E944A0A019719F4898190E0C0
:1015B000F3CF8FEF9FEFF0CF0F931F93CF93DF9376
:1015C0001F92CDB7DEB78C01FC018485958597FF0E
:1015D0000BC0CE0101960E944A0A019771F48981DD
:1015E00090E0F80195878487F801848595850F90B0
:1015F000DF91CF911F910F9108958FEF9FEFF1CF62
:10160000FC018485958597FD0BC09FB7F89482E017
:101610008093E9008091F2009FBF90E001960895C9
:101620009FB7F89482E08093E9008091F2009FBF19
:1016300090E008954091D6025091D7022091D402B3
:101640003091D50242175307B4F49091E800957099
:10165000E1F39091E80092FD19C08093F100809130
:10166000D6029091D70201968F739927892B19F48E
:101670008EEF8093E8008091D6029091D702019678
:101680009093D7028093D60281E0089580E0089578
:10169000DF92EF92FF920F931F93CF93DF93D82E99
:1016A0008A01EB017B01E40EF51ECE15DF0559F032
:1016B000D7FE12C0FE0184910E941A0B219681115F
:1016C000F4CF0FEF1FEFC801DF91CF911F910F9162
:1016D000FF90EF90DF9008958881EECF0F931F93D6
:1016E000CF93DF931F92CDB7DEB782E0898342E4C8
:1016F00050E06DEF72E180E80E94480B0E94850A7D
:10170000DC0112960D911C910115110589F0D8018B
:10171000ED91FC910280F381E02DBE016F5F7F4F60
:10172000C801099597FD04C0F80100851185ECCF2B
:1017300089810F90DF91CF911F910F910895615092
:1017400030F02091F100FC0120830196F8CF289819
:1017500084E68093E8020895AF92BF92CF92DF9221
:10176000EF92FF920F931F93CF93DF936C017B0156
:101770008B01040F151FEB015E01AE18BF08C017E7
:10178000D10759F06991D601ED91FC910190F0815A
:10179000E02DC6010995892B79F7C501DF91CF911D
:1017A0001F910F91FF90EF90DF90CF90BF90AF907F
:1017B00008950895089581508F3008F047C0E82FAC
:1017C000F0E0EB51F44F0C94D92D020C060CF40B05
:1017D000FA0BFE0B260C260C260C090C0F0C130C16
:1017E000170C1D0C260C210C809180008F778093A4
:1017F00080000895809180008F7DF9CF80918000D6
:10180000877FF5CF84B58F7784BD089584B58F7DAC
:10181000FBCF809190008F77809390000895809106
:1018200090008F7DF9CF80919000877FF5CF8091D8
:10183000C0008F778093C00008958091C0008F7D95
:10184000F9CF8091C200877F8093C2000895CF9323
:10185000DF93282F30E0F901E653FA4F8491F90124
:10186000E958FC4ED491F901EC55FC4EC491CC23BF
:10187000A1F081110E94DB0BEC2FF0E0EE0FFF1FB7
:10188000E454FA4FA591B491EC91ED2381E090E0FE
:1018900009F480E0DF91CF91089580E090E0FACFE5
:1018A0001F93CF93DF93282F30E0F901E653FA4FCF
:1018B0008491F901E958FC4ED491F901EC55FC4EA4
:1018C000C491CC23A9F0162F81110E94DB0BEC2FC1
:1018D000F0E0EE0FFF1FEA56FC4EA591B4918FB7D2
:1018E000F894EC91111108C0D095DE23DC938FBFE2
:1018F000DF91CF911F910895DE2BF8CFCF93DF9327
:1019000090E0FC01E958FC4E24918C559C4EFC0162
:1019100084918823D1F090E0880F991FFC01E75152
:10192000FA4FA591B491FC01EA56FC4EC591D491B1
:10193000623071F49FB7F8943C91822F8095832395
:101940008C93E8812E2B28839FBFDF91CF91089540
:101950008FB7F894EC912E2B2C938FBFF6CF4F922C
:101960005F926F927F928F929F92AF92BF92CF922F
:10197000DF92EF92FF920F931F93CF938C01809190
:101980001101853099F08F3F09F480C0CF911F91EC
:101990000F91FF90EF90DF90CF90BF90AF909F900E
:1019A0008F907F906F905F904F900895E3ECF3E1FC
:1019B000C491C7FDEBCF61E085E00E947E0CCC2393
:1019C00019F0C23009F0F2C02801712C612C60E0DE
:1019D00072E18AE790E0A30198010E94082C490176
:1019E0005A0168E478EE81E090E0A30198010E943A
:1019F000082CDA01C9010197A109B1096C017D0127
:101A0000CC2309F46AC1C23009F05DC18F3F910552
:101A1000A105B10509F00CF4B9CF64E274EF80E0E0
:101A200090E0A30198010E94082C2150310941093E
:101A300051092F3F31054105510509F008F4A6CFA2
:101A400062E17AE780E090E0A30192010E94082C15
:101A500069017A0181E0C81AD108E108F1088FEF25
:101A6000C816D104E104F10409F00CF459C1750160
:101A700064019AE0F594E794D794C7949A95D1F7C6
:101A800081E0C81AD108E108F1084AC185E08093D5
:101A90001101E3ECF3E1C491CF3F09F477CFC130FA
:101AA00039F168F0C33009F441C0C43009F460C0B2
:101AB000C7FD6CCF61E085E00E947E0C82CF14BC34
:101AC00015BC84B5826084BD85B5816085BDE9EAB9
:101AD000F3E1E491F0E0EE0FFF1FEA56FC4E859132
:101AE0009491ECE7F3E1E491E093FA02C0E063CF74
:101AF0001092800010928100809181008860809314
:101B0000810080918100816080938100E9EAF3E1A6
:101B1000E491F0E0EE0FFF1FEA56FC4E85919491A0
:101B2000ECE7F3E1E491E093F90245CF10929000E5
:101B30001092910080919100886080939100809133
:101B40009100816080939100E9EAF3E1E491F0E093
:101B5000EE0FFF1FEA56FC4E859194919093F80288
:101B60008093F702ECE7F3E1E491E093F60223CFF0
:101B70001092C0001092C1008091C10088608093D3
:101B8000C1008091C10081608093C100E9EAF3E166
:101B9000E491F0E0EE0FFF1FEA56FC4E8591949120
:101BA000ECE7F3E1E491E093F50205CFB12CA12C31
:101BB00060E072E18AE790E0A50198010E94082C9C
:101BC00069017A0181E0C81AD108E108F10891E0C1
:101BD000C114D10481E0E806F10484F068E478EEF1
:101BE00081E090E0A50198010E94082C69017A012A
:101BF00081E0C81AD108E108F10893E0C13039F456
:101C000080918100887F892B8093810089C0C330B7
:101C100039F480919100887F892B8093910080C056
:101C2000C43009F07DC08091C100887F892B8093EA
:101C3000C10076C0C33029F1C43009F0A7CEC092EC
:101C4000CF002093FB023093FC024093FD0250939F
:101C5000FE028091720080648093720097CED092D1
:101C60008900C092880020930303309304034093BB
:101C700005035093060380916F00826080936F008C
:101C800085CED0929900C09298002093FF023093A5
:101C9000000340930103509302038091710082601E
:101CA0008093710073CE750164018AE0F594E79426
:101CB000D794C7948A95D1F781E0C81AD108E10872
:101CC000F10895E029C08FEFC816D104E104F104B2
:101CD00011F008F0B5CEC1E023C093E08FEFC81635
:101CE000D104E104F104C1F0BCF062E17AE780E0E4
:101CF00090E0A30192010E94082C69017A0181E021
:101D0000C81AD108E108F1088FEFC816D104E10420
:101D1000F10409F044F694E085B5887F892B85BDF0
:101D20009801220F331FAAE0B0E00E945C2C28EE3D
:101D300033E040E050E00E943A2CC13009F48FCFEC
:101D40000CF078CFC11122CEC7BC2093070330938B
:101D500008034093090350930A0380916E00826048
:101D600080936E0013CE1F93CF93DF93182FEB0158
:101D700061E00E947E0CCF3FD10539F461E0812FF4
:101D8000DF91CF911F910C94500CE12FF0E0E653BE
:101D9000FA4FE491E150EF3008F07FC0F0E0ED52EF
:101DA000F14F0C94D92DE20EEA0EEF0EF90E030F4F
:101DB0004D0F4D0F4D0F0D0F170F210F2B0F380F1C
:101DC0004D0F400F84B5806884BDC7BDDF91CF91B2
:101DD0001F91089584B5806284BDC8BDF7CF8091FE
:101DE0008000806880938000D0938900C093880031
:101DF000EDCF80918000806280938000D0938B0033
:101E0000C0938A00E3CF8091800088608093800037
:101E1000D0938D00C0938C00D9CF809190008068C2
:101E200080939000D0939900C0939800CFCF809179
:101E30009000806280939000D0939B00C0939A00A2
:101E4000C5CF80919000886080939000D0939D00D2
:101E5000C0939C00BBCF8091C00080688093C0007D
:101E60008091C0008F7B8093C000C093CF00AECF25
:101E70008091C00080628093C000C093D000A6CF44
:101E80008091C20088608093C2008091C2008B7FE5
:101E90008093C200C093D20099CFCF37D10509F00B
:101EA0006DCF60E06CCF3FB7F8948091A70290911E
:101EB000A802A091A902B091AA0226B5A89B05C0CC
:101EC0002F3F19F00196A11DB11D3FBFBA2FA92FB9
:101ED000982F8827BC01CD01620F711D811D911DB6
:101EE00042E0660F771F881F991F4A95D1F7089522
:101EF0008F929F92AF92BF92CF92DF92EF92FF921A
:101F00004B015C010E94530F6B017C010E94530F37
:101F10006C197D098E099F09683E73408105910502
:101F2000A8F321E0821A9108A108B10888EEC80E32
:101F300083E0D81EE11CF11C81149104A104B104BA
:101F400029F7FF90EF90DF90CF90BF90AF909F90D8
:101F50008F9008958F929F92AF92BF92CF92DF920F
:101F6000EF92FF920F931F93CF93DF936C017B014E
:101F70008A0180911001882309F45CC08091E902F4
:101F8000882309F457C08091DB0280FF05C080914F
:101F9000E00082608093E000E801B12C8AEFA82E77
:101FA00093E0892E2AE3922E209711F4BB20D9F1D9
:101FB0000E94740A81110AC0AA94AA20D9F161E092
:101FC00070E080E090E00E94780FEECF8C171D0645
:101FD00011F00CF08C2F9FB7F8948092E9002091BB
:101FE000E80025FD02C09FBFDFCF282F30E0C21BD5
:101FF000D30BF701815020F041914093F100FACFCB
:10200000E20EF31EBB2021F09092E800B12CEBCF42
:102010008091E80085FDE7CF9092E800BB24B3945F
:10202000209709F3F3CF5D9884E68093DA021016C7
:1020300011063CF081E090E0F6019383828310E08A
:1020400000E0C801DF91CF911F910F91FF90EF90B9
:10205000DF90CF90BF90AF909F908F90089508959C
:10206000FC016370658B84819581268137816130A5
:1020700039F0633029F0918780873387228708956C
:10208000318720879387828708952F923F924F92BE
:102090005F926F927F928F929F92AF92BF92CF92F8
:1020A000DF92EF92FF920F931F93CF93DF93CDB701
:1020B000DEB769970FB6F894DEBF0FBECDBF998F1C
:1020C000888F5B011A01D22E1F830E833701C982CC
:1020D000DC0158962D913C9159972115310509F055
:1020E00004C118968D919C911997681779070CF087
:1020F000C0C11A968D919C911B97481759070CF0F7
:10210000B8C18C2C912CFB0126E0C29EE00DF11D84
:102110001124F987E8871E161F060CF0AAC1A40136
:1021200093E0440F551F9A95E1F75D874C87CA01EC
:10213000820D931D181619060CF09BC157968C91B1
:10214000811104C05FEA5D1508F4D394A88DB98DA0
:10215000ED91FC9111970284F385E02DCD01099555
:10216000F5013596F98BE88BBB82AA8225018CEBB1
:1021700090E08A199B099C0145E0D49E200D311DF9
:1021800011243B8B2A8BEA89FB89E40DF51D2491F0
:102190003D822C82D12CC12C622F70E07F876E870C
:1021A000E88DF98DA081B18120FF7CC0F981F130EB
:1021B00009F069C01C96ED91FC912E813F81A1012F
:1021C0004C0D5D1DB201888D998D0995EE85FF85B9
:1021D000F595E7952E2F4FEFC41AD40A6C817D81B7
:1021E000680D791D7D836C8378E0C716D104A1F654
:1021F0008FEF481A580AAA81BB81A80DB91DBB836D
:10220000AA83E889F989E415F50509F0BCCF2E8188
:102210003F8126153705A9F0A88DB98DED91FC9168
:10222000B981B13009F051C0B5016B5F7F4F0088B3
:10223000F189E02D830128E030E0A101888D998D9E
:102240000995A88DB98DED91FC9111970688F789B4
:10225000E02DCD0169960FB6F894DEBF0FBECDBF5D
:10226000DF91CF911F910F91FF90EF90DF90CF9072
:10227000BF90AF909F908F907F906F905F904F90A6
:102280003F902F9009941E96ED91FC91EE80FF8077
:10229000840194014C815D816A817B81888D998D57
:1022A000099594CF2E813F812615370509F48ECFED
:1022B0003981313029F41C96ED91FC9193017FCF47
:1022C0001E96ED91FC917301E3CF688579856819BD
:1022D00079090684F785E02D73010C851D8594012D
:1022E000A101888D998D0995ACCFF901349694910F
:1022F000329745915491D91AB7E0DB9E400D511D9C
:102300001124F90125913491398B288BFA014590DC
:102310005490FA01329664903196C490329614919A
:10232000319604913981323008F48AC0E12E012EB1
:10233000000CFF08402F002E000C550B59874887D2
:10234000A88DB98DED91FC9111970284F385E02D54
:10235000CD010995B9818B2E912CE89CC001E99C97
:10236000900DF89C900D1124FC01EA0DFB1DFF87D8
:10237000EE871C82D12C712C9B868A869101200FBE
:10238000311D07FD3A953D8B2C8BA501410F511D49
:1023900017FD5A955F8B4E8B7C1408F052CF872D1A
:1023A00090E048855985480F591F6A857B85469F6F
:1023B0009001479F300D569F300D1124D901A20D79
:1023C000B31DBD87AC87EE85FF85FB83EA83B12C07
:1023D000A12C2C893D89280F391F3B8B2A8B8C819E
:1023E0008A0DA61408F040C0877041F4C20101961E
:1023F000E889F989E40DF51DD4902C01D7FE15C0AC
:10240000A88DB98DED91FC91B981B130F1F40484BE
:10241000F585E02D2E813F814A895B896E897F8910
:102420006A0D7B1D888D998D0995DD0CEFEFAE1A35
:10243000BE0A2A813B81280D391D3B832A83CFCFD9
:1024400019861886F12CE12C7BCF0684F785E02DC8
:10245000EE80FF80840194014C855D856A817B81DB
:10246000888D998D0995E1CF3C81360D3C8373941D
:1024700093CF69960FB6F894DEBF0FBECDBFDF9144
:10248000CF911F910F91FF90EF90DF90CF90BF9071
:10249000AF909F908F907F906F905F904F903F9004
:1024A0002F900895AF92BF92CF92EF92FF920F9329
:1024B0001F93CF93DF93EC01262F888D998D009782
:1024C00009F04FC06A30C9F41D861C868C8998E0DB
:1024D000899F900111248E859F85820F931F9F876E
:1024E0008E8781E090E0DF91CF911F910F91FF9057
:1024F000EF90CF90BF90AF9008956D3091F3CC885E
:102500008E898823C1F08C859D85E6E0CE9E800D66
:10251000911D1124488559854817590764F44E8543
:102520005F851D861C86F8E0CF9EC0011124840FB4
:10253000951F9F878E87EA88FB88088919894E85B1
:102540005F856C857D85CE010E9445102C898C8528
:102550009D8536E0239F800D911D11249D878C87DA
:10256000C0CF6A3069F41D861C86FC013696E49162
:102570002C898E859F85E29F800D911D1124AFCF00
:102580006D3009F4AECFFC0134963491631708F432
:10259000A8CF3196E491E61708F4A3CFFC01329658
:1025A00045915491E62FE31BFF0B37E03E9F50010E
:1025B0003F9FB00C1124A40EB51EF5013296349144
:1025C0003196E4913323A1F1EE2391F1CC88F5010A
:1025D0003596E4914E89442301F10E2E000CFF0B39
:1025E000E30FF11DCE9EA001CF9E500D11246C85EE
:1025F0007D85460F571F68857985641775076CF4CC
:102600004E855F851D861C860696FC018491C89EBA
:10261000400D511D11245F874E87EA88FB88088989
:1026200019894E855F856C857D85CE010E94451098
:10263000F5013496E4912C898C859D85E29F800D6F
:10264000911D11248BCF6F927F928F929F92AF92A8
:10265000BF92CF92DF92EF92FF920F931F93CF938F
:10266000DF93EC016B015A0139014801E881F981DE
:102670000284F385E02D0995E881F9810288F389C8
:10268000E02D87019301A501B601CE010995A501B1
:10269000480D591D41505109E881F9810288F3899B
:1026A000E02D9301B601CE010995E881F9810088FA
:1026B000F189E02D9401A501B601CE010995C60C62
:1026C000D71CB60161507109E881F9810088F18950
:1026D000E02D9401A501CE010995E881F9810688D4
:1026E000F789E02DCE01DF91CF911F910F91FF90DF
:1026F000EF90DF90CF90BF90AF909F908F907F90A2
:102700006F9009946F927F928F929F92AF92BF9237
:10271000CF92DF92EF92FF920F931F93CF93DF93AD
:102720005C01EB016A01490138018701DC01ED918F
:10273000FC916217730719F5641675062CF0962D37
:10274000872D3A01C92ED82E9601261937092F5FF9
:102750003F4F048CF58DE02DA301BE01C501099505
:10276000DF91CF911F910F91FF90EF90DF90CF906D
:10277000BF90AF909F908F907F906F900895461577
:10278000570591F42617370724F0892D4B01C22FE6
:10279000D82F9E01281939092F5F3F4F068CF78DDE
:1027A000E02DA601B401DACF0284F385E02D09956E
:1027B000D501ED91FC910488F589E02D8301940108
:1027C000A601BE01C5010995D501ED91FC910688D0
:1027D000F789E02DC501DF91CF911F910F91FF90F7
:1027E000EF90DF90CF90BF90AF909F908F907F90B1
:1027F0006F900994EF92FF920F931F93DC011A964A
:102800000D911C911B9718962D913C911997ED9164
:10281000FC9100A0F1A1E02D7B0150E040E070E0D0
:1028200060E009951F910F91FF90EF9008954F92EE
:102830005F926F927F928F929F92AF92BF92CF9250
:10284000DF92EF92FF920F931F93CF93DF936C0170
:102850002B015A0139014801DC01ED91FC91028400
:10286000F385E02D0995E201640C751CD601ED910C
:10287000FC91C615D7055CF40088F189E02D87012D
:102880009401A501BE01C60109952196EFCF0688E6
:10289000F789E02DC601DF91CF911F910F91FF9035
:1028A000EF90DF90CF90BF90AF909F908F907F90F0
:1028B0006F905F904F9009948F929F92AF92BF92CA
:1028C000CF92DF92EF92FF920F931F93CF93DF93FC
:1028D000EC015B014A016901E881F9810284F38519
:1028E000E02D099595012C0D3D1D21503109E88100
:1028F000F9810488F589E02D78018401A401B501EE
:10290000CE010995E881F9810688F789E02DCE018D
:10291000DF91CF911F910F91FF90EF90DF90CF90BB
:10292000BF90AF909F908F9009948F929F92AF929B
:10293000BF92CF92DF92EF92FF920F931F93CF93AC
:10294000DF93EC015B014A0169017801E881F981BB
:102950000284F385E02D0995C80CD91C860101502D
:102960001109E881F9810488F589E02D9501A40118
:10297000B501CE010995E881F9810688F789E02D36
:10298000CE01DF91CF911F910F91FF90EF90DF90DB
:10299000CF90BF90AF909F908F900994EF92FF924D
:1029A0000F931F93DC01ED91FC9100A0F1A1E02DAC
:1029B00009951F910F91FF90EF9008950F931F932A
:1029C000DC01ED91FC91068CF78DE02D09951F91AE
:1029D0000F9108950F931F93DC01ED91FC91048CEE
:1029E000F58DE02D09951F910F910895DC01ED9172
:1029F000FC910084F185E02D09943F924F925F9203
:102A00006F927F928F929F92AF92BF92CF92DF92FE
:102A1000EF92FF920F931F93CF93DF9300D000D0DC
:102A2000CDB7DEB75C013B016A014901280187E0AF
:102A3000480E511C93E0559447949A95E1F7CA01CA
:102A40008E0D9F1D9A838983F12CE12C312C1C82E1
:102A50001B828B819C8187709927330C892B61F4B1
:102A6000EB81FC8183E0F595E7958A95E1F7EE0D22
:102A7000FF1DE80DF91D349037FE0AC021E030E05B
:102A8000A6016B817C81660D771DC5010E94F6143D
:102A90008B819C8101969C838B8308171907C9F64B
:102AA0009FEFC91AD90AE40CF51C89819A81C816CE
:102AB000D90669F60F900F900F900F90DF91CF918C
:102AC0001F910F91FF90EF90DF90CF90BF90AF904C
:102AD0009F908F907F906F905F904F903F90089560
:102AE0002F923F924F925F926F927F928F929F921E
:102AF000AF92BF92CF92DF92EF92FF920F931F930C
:102B0000CF93DF9300D000D000D0CDB7DEB73C012B
:102B10006A013E832D83FC82EB825801A41AB50A18
:102B2000B7FE03C0B194A194B1088D809E80861A2F
:102B3000970A97FE03C09194819491088A149B048C
:102B40005CF0902F812F0D811E819D838E839C2DA3
:102B50008D2D6B01692F782F0C151D055CF09D8163
:102B60008E817E836D83692F782F902F812F860130
:102B7000C92ED82E1601201A310A2B012D813E8133
:102B8000421A530A57FE03C05194419451087101EF
:102B900037FE03C03FEFE31AF30AF594E7948D8103
:102BA0009E81861797075CF5A1E0B0E0BA83A98300
:102BB000C016D1064CF1D301ED91FC910484F5854A
:102BC000E02D2B813C81A8016D817E818A149B04BC
:102BD0001CF04D815E81B801C3010995E418F50828
:102BE000F7FE0AC02D813E8189819A81280F391F05
:102BF0003E832D83E20CF31C0F5F1F4FD9CF2FEFC5
:102C00003FEF3A832983D4CF26960FB6F894DEBFE0
:102C10000FBECDBFDF91CF911F910F91FF90EF902D
:102C2000DF90CF90BF90AF909F908F907F906F90EC
:102C30005F904F903F902F90089585ED8093BC005A
:102C40008091BC0084FDFCCF1092B20208952091C7
:102C50005B02260F3327331F21323105ECF420911C
:102C6000B202FC0190E080E0243069F082E0089537
:102C7000A0915B022191AC01455C5D4FA40FB52F83
:102C8000B11D2C930196861798F380915B02680F13
:102C900060935B0280E0089581E00895E091B402C2
:102CA0008091B302E81730F4F0E0E55EFD4F8081DB
:102CB00090E008958FEF9FEF08959091B402809176
:102CC000B3022FEF3FEF981748F4E92FF0E0E55EED
:102CD000FD4F208130E09F5F9093B402C9010895B9
:102CE0008091B3029091B402891B990B0895CF9201
:102CF000DF92EF92FF920F931F93CF93DF937C01AC
:102D0000CB018A0120910E03222389F0EB016B0194
:102D1000C40ED51ECC15DD0569F06991D701ED9182
:102D2000FC910190F081E02DC7010995F3CF642F4C
:102D30000E942716C801DF91CF911F910F91FF903C
:102D4000EF90DF90CF900895CF93DF931F92CDB790
:102D5000DEB7698320910E032223F9F020910B0343
:102D6000203258F021E030E0FC013383228390E0F0
:102D700080E00F90DF91CF91089580910C03E82FB0
:102D8000F0E0E550FE4F998190838F5F80930C03B4
:102D900080930B0381E090E0ECCF61E0CE010196DF
:102DA0000E942716F7CF20910B0381E0213208F013
:102DB00044C08091B2028111FCCF80910D0392E05A
:102DC0009093B20291E09093B1029FEF90937E02B4
:102DD0001092A00220939F02ABEFB1E0EFE7F2E088
:102DE00090E0291331C01092A1029091A102880FA6
:102DF000892B8093A1028091B002813049F5109215
:102E0000B0028091A1028093BB008091BC0083FD41
:102E1000F8CF85EC8093BC008091B2028230E1F360
:102E200080917E028F3FB1F080917E028032A1F0CE
:102E300080917E02803391F084E010920C03109216
:102E40000B0310920E0308953D9131939F5FC9CFFC
:102E500085EEE0CF80E0F1CF82E0EFCF83E0EDCFF1
:102E6000EF92FF920F931F93CF93DF93EC01EC80CF
:102E7000FD806E157F050CF070C057FF04C0240F55
:102E8000351F50E040E08E819F81FA01E20FF31F71
:102E90008E179F071CF49C01241B350B121613067A
:102EA0000CF05BC0922F842F8695869586958E9D1B
:102EB000D0018F9DB00D11246A0F7B1FAE8DBF8D89
:102EC000A60FB71F477049F188E0841B482F682F71
:102ED00070E0FB01EC54FF4FE491281708F063C049
:102EE000621B71092FEF30E002C0359527956A9576
:102EF000E2F7E2230130110539F0B0F1023011059B
:102F000061F58C91E82702C08C91E82BEC93941723
:102F100020F12C813D81A20FB31FE92FE41BE83083
:102F200078F00230110521F58E2F9C9190959C939D
:102F30002C813D81A20FB31F88508830B0F7E77015
:102F4000EE2359F0F0E0E455FF4FE4910130110514
:102F5000F9F010F10230110519F1DF91CF911F91B5
:102F60000F91FF90EF900895E0958C91E823CECFDC
:102F700081E00115110509F480E081959E2F8C9365
:102F80002C813D81A20FB31F98509830C0F7D7CF46
:102F90008C91E82BEC93E1CFE0958C91E823FACF6C
:102FA0008C91E827F7CF0130110509F4ADCFE0F29D
:102FB0000230110509F4A5CFAE0DBF1DAECF0F93A2
:102FC0001F93CF93DF9377FF04C0260F371F70E066
:102FD00060E0DC011496CD91DC91FB01E20FF31F60
:102FE000CE17DF071CF49E01261B370B12161306A3
:102FF0004CF5FA0157FD3796A3E0F595E795AA95AC
:10300000E1F7EC9FD001ED9FB00DFC9FB00D1124B6
:103010006A0F7B1FDC015E96ED91FC91E60FF71FB6
:103020004770552781E090E001C0880F4A95EAF784
:10303000482F0130110559F0A8F02E0F3F1F023024
:103040001105E1F0DF91CF911F910F9108952E0F9F
:103050003F1FE217F307B1F38191DF011197842B32
:103060008C93F7CF80952E0F3F1FE217F30751F394
:103070009191DF01119798239C93F7CFE217F30703
:1030800009F38191DF01119784278C93F7CF0F9378
:103090001F93FA01DC0155964C9155974230E9F0A7
:1030A0004330A1F1413061F514964D915C91DA0104
:1030B000AE1BBF0BFD01E21BF30B77FD0BC0DC0168
:1030C00016964D915C916417750724F4AB01BF010E
:1030D0000E94DF171F910F91089514964D915C91F6
:1030E000DA01A61BB70BBD0161507109DC01169610
:1030F0004D915C91DA01AE1BBF0BFD01E21BF30B9E
:1031000077FDE8CFAF010E943017E4CF16964D91BE
:103110005C91DA01A61BB70BBD0161507109CDCFDF
:103120000F931F93FA01DC0155964C91559742304D
:10313000A9F0433091F1413019F514964D915C910D
:10314000DA01AE1BBF0BFD013197F7FD04C0AB01E7
:10315000BF010E9430171F910F91089514964D9151
:103160005C91DA01A61BB70BBD01DC0116964D91EF
:103170005C91DA01AE1BBF0BFD013197621B730B33
:10318000F7FDE9CFDC0116964D915C91E417F50748
:1031900014F7AF010E94DF17DECF16964D915C91B8
:1031A000DA01A61BB70BBD01621B730BCECFFC016E
:1031B00077FD64C080859185681779070CF05EC043
:1031C00057FD5CC082859385481759070CF056C09F
:1031D00085898230B1F0833029F1813041F48481D6
:1031E0009581841B950BAB01BC01615071092130A5
:1031F000310509F108F443C02230310509F463C0F8
:10320000089584819581DC01A61BB70BBD01615037
:10321000710986819781DC01A41BB50BAD0141507A
:103220005109E5CF86819781861B970BBA01AC01C6
:1032300041505109DCCFCA0157FD0796A3E095958F
:103240008795AA95E1F7A481B5818A9F90018B9F0C
:10325000300D9A9F300D1124620F731F068CF78D6D
:10326000E02DE60FF71F4770552721E030E001C041
:10327000220F4A95EAF78081822B80830895CA0144
:1032800057FD079633E0959587953A95E1F7A48128
:10329000B5818A9F90018B9F300D9A9F300D11242C
:1032A000620F731F068CF78DE02DE60FF71F477036
:1032B000552781E090E001C0880F4A95EAF7809594
:1032C00090818923DACFCA0157FD079623E09595AF
:1032D00087952A95E1F7A481B5818A9F90018B9FFC
:1032E000300D9A9F300D1124620F731F068CF78DDD
:1032F000E02DE60FF71F4770552721E030E001C0B1
:10330000220F4A95EAF780818227B7CF08958EBDB4
:1033100000000DB407FEFDCF8EB50895FF920F9308
:103320001F93CF93DF93F82ED92FC62F80917E0362
:1033300090917F03009709F452C02091820331E0FD
:1033400030930E0320930D0310920C0310920B0385
:10335000DC01ED91FC910190F081E02D60E0099598
:103360000F2D1D2FD1E0FF24F394C15080917E03D7
:1033700090917F03CF3F61F1D032C8F00E94D31605
:1033800080917E0390917F0320918203F0920E033F
:1033900020930D0310920C0310920B03DC01ED91AE
:1033A000FC910190F081E02D60E00995D1E08091E1
:1033B0007E0390917F03F8016491DC01ED91FC9113
:1033C0000190F081E02D0995DF5F0F5F1F4FCDCF9A
:1033D000DF91CF911F910F91FF900C94D316E09144
:1033E0008E03F0918F0390818091940380958923BF
:1033F00080830F2D1D2FC15008F438C0F80184912F
:1034000020917C0330917D03232B29F00E948719A2
:103410000F5F1F4FF0CF28E030E040E8E0918A03D3
:10342000F0918B0390919203582F5423D9F050813F
:10343000952B9083E0918C03F0918D0390815091B6
:103440009303952B9083E0918C03F0918D03508131
:10345000909193039095952390834695215031093F
:10346000E9F6D6CF508190959523E3CFDF91CF91A8
:103470001F910F91FF9008951F93CF93DF93EC015D
:103480008C8D9D8D009721F1162F28A131E030936E
:103490000E0320930D0310920C0310920B03DC011A
:1034A000ED91FC910190F081E02D60E009958C8D0B
:1034B0009D8DDC01ED91FC910190F081E02D612F5B
:1034C00009958C8D9D8DDF91CF911F910C94D31612
:1034D000ACA5BDA59C918AA9809589238C938A8DE2
:1034E0009B8D892B31F0862FDF91CF911F910C940A
:1034F000871928E030E080E8A8A5B9A598A9462F4B
:103500004823C1F04C91942B9C93AAA5BBA59C91F8
:1035100049A9942B9C93AAA5BBA54C9199A99095D8
:1035200094239C9386952150310931F7DF91CF91F7
:103530001F9108954C9190959423E6CF8CBD9DBD2D
:103540000895EF92FF920F931F93CF93DF93809193
:103550007E0390917F03892B09F493C020919803F7
:103560003091990340919A0350919B0360E074E27B
:1035700084EF90E00E943A2C205131094109510911
:1035800056954795379527952093B80065E082E7D3
:1035900093E10E948E1960916603615082E693E088
:1035A0000E943C1A2091680330916903C901079673
:1035B00097FD079623E0959587952A95E1F7209149
:1035C000660330916703829F8001839F100D929F55
:1035D000100D1124C0918003D091810380917E034E
:1035E00090917F030C0F1D1F009709F489C0209153
:1035F000820331E030930E0320930D0310920C03ED
:1036000010920B03DC01ED91FC910190F081E02D13
:1036100060E40995FF24F394EE24E39480917E0303
:1036200090917F030C171D0709F442C0BFE1BF153D
:10363000D0F40E94D31680917E0390917F03209155
:103640008203E0920E0320930D0310920C0310925C
:103650000B03DC01ED91FC910190F081E02D60E421
:103660000995FF24F39480917E0390917F036991E3
:10367000DC01ED91FC910190F081E02D0995F3942E
:10368000CDCF80917C0390917D03892B31F0809187
:103690009603909197030E949E1AE0919003F091F7
:1036A00091039081809195038095892380836ECFCB
:1036B0000E94D31680917E0390917F03892B09F499
:1036C00060C020919C0330919D0340919E035091D6
:1036D0009F0360E074E284EF90E00E943A2C205156
:1036E00031094109510956954795379527952093FA
:1036F000B800DF91CF911F910F91FF90EF90089547
:10370000E0918E03F0918F03808190919403892B37
:1037100080830C171D0771F2899120917C033091F1
:103720007D03232B19F00E948719F3CF28E030E0A6
:1037300040E8E0918A03F0918B0390919203582F17
:103740005423D9F05081952B9083E0918C03F09114
:103750008D03908150919303952B9083E0918C037E
:10376000F0918D03508190919303909595239083D0
:10377000469521503109E9F6CCCF5081909595239B
:10378000E3CFE0919003F0919103808190919503B4
:10379000892B8083AECF1F93CF93DF93EC01162F3D
:1037A0008C8D9D8D892BB1F12EA93FA948AD59ADC6
:1037B00060E074E284EF90E00E943A2C20513109DD
:1037C0004109510956954795379527952093B8009B
:1037D00066EA111167EACE010E943C1A8C8D9D8D1C
:1037E000892B41F12AAD3BAD4CAD5DAD60E074E29B
:1037F00084EF90E00E943A2C20513109410951098F
:1038000056954795379527952093B800DF91CF912E
:103810001F9108958A8D9B8D892B21F08CA99DA9DC
:103820000E949E1AEEA5FFA590818BA98095892301
:103830008083CECFEEA5FFA580819BA9892B8083B5
:10384000E5CF089590E080E00895CF93DF93C3E340
:10385000D0E02197E9F16FE770E08AE00E94B30EB3
:1038600061E070E080E090E00E94780F6FEF70E020
:103870008AE00E94B30E82E390E00E94AF0C6FE7F3
:1038800070E08AE00E94B30E61E070E080E090E0BA
:103890000E94780F6FEF70E08AE00E94B30E82E31F
:1038A00090E00E94AF0C6FE770E08AE00E94B30ED8
:1038B00061E070E080E090E00E94780F6FEF70E0D0
:1038C0008AE00E94B30E82E390E00E94AF0CC1CF69
:1038D000DF91CF910895CF93C0910F0390E080E0E6
:1038E0000E94F22BC81729F06C2F90E080E00E9414
:1038F000FA2BC091100381E090E00E94F22BC817D0
:1039000029F06C2F81E090E00E94FA2B8FE093E089
:10391000CF9108952091680330916903C9010796FA
:1039200097FD079623E0959587952A95E1F72091D5
:10393000660330916703829FA001839F500D929F81
:10394000500D112470E060E080918003909181031C
:103950000C941D2F8F929F92AF92BF920F931F9343
:10396000CF93DF93CDB7DEB7A1970FB6F894DEBF44
:103970000FBECDBF19A2423008F44AE08E010F5DA0
:103980001F4F842E912CB12CA12CA50194010E94D3
:103990003A2CE62FB901CA01EA3044F5E05DD801BE
:1039A000EE938D01232B242B252B79F790E080E0DB
:1039B000109769F0FD0101900020E9F73197AF0100
:1039C0004A1B5B0BBD0182E693E00E94AC0BA19603
:1039D0000FB6F894DEBF0FBECDBFDF91CF911F9120
:1039E0000F91BF90AF909F908F900895E95CD7CFD3
:1039F000FC0101900020E9F73197AF01481B590BFA
:103A0000BC0182E693E00C94AC0BFF920F931F93E2
:103A1000CF93DF93EC01F62EFC0101900020E9F733
:103A20003197E81BF90B02E613E086E08E9FB001A8
:103A30008F9F700D11247695679590E080E00E942D
:103A4000132D9B01AC0160E070E080E892E40E94DD
:103A50006B2C0E94DD2CF801758764876F2D70E058
:103A600077876687CE01DF91CF911F910F91FF90ED
:103A70000C94F81C0E94182F1F920F920FB60F92F1
:103A800011248F939F938091E1009091E100937FA7
:103A90009093E10083FF0FC01092E90091E09093B2
:103AA000EB001092EC0092E39093ED001092E9028B
:103AB00098E09093F00082FF22C093E09093E90099
:103AC0009091F200992319F09AE39093E800909175
:103AD000DA02992341F09091DA0291509093DA0240
:103AE000911101C05D9A9091E802992341F0909163
:103AF000E80291509093E802911101C0289A84FF46
:103B000018C08091E2008E7E81608093E2008091F7
:103B1000E1008F7E8093E1008091DB028E7E8061E8
:103B20008093DB029F918F910F900FBE0F901F909B
:103B3000189580FFF7CF8091E2008E7E80618093A0
:103B4000E2008091E1008E7E8093E1008091DB02B3
:103B50008E7E8160E5CF1F920F920FB60F921124D7
:103B6000CF92DF92EF92FF920F931F932F933F9389
:103B70004F935F936F937F938F939F93AF93BF9375
:103B8000EF93FF93CF93DF93CDB7DEB76C97DEBF94
:103B9000CDBF1092E9008091E80083FF25C068E066
:103BA000CE0145960E949F0B82EF8093E8008D899D
:103BB00087FF39C09091E80090FFFCCF982F907656
:103BC00009F034C19E894F89588D2F89F88C911145
:103BD00031C0803861F58091D9028093F100109254
:103BE000F1008EEF8093E8006C960FB6F894DEBF7C
:103BF0000FBECDBFDF91CF91FF91EF91BF91AF91FC
:103C00009F918F917F916F915F914F913F912F91F4
:103C10001F910F91FF90EF90DF90CF900F900FBE0C
:103C20000F901F9018959EEF9093E800C7CF1092C9
:103C3000F100D5CF913059F48111D3CF41305105E6
:103C400081F68091D9028D7F8093D902CACF9330BB
:103C500049F48111C6CF4130510519F68091D9023E
:103C60008260F2CF953041F48091E80080FFFCCF74
:103C700020682093E300B5CF963009F0A9C00B8DE2
:103C80001C8D22E01092E9001092D7021092D60209
:103C9000F2122EC01092D5021092D4020E946E0B26
:103CA0001F8299E09983FA8291E09E8390EA988737
:103CB0009AEF99872091D6023091D702275F3F4F24
:103CC0003C832B838D831092E9001092D7021092CF
:103CD000D6021093D5020093D40249E050E0BE0111
:103CE0006F5F7F4F80E00E94480B0E946E0B79CF80
:103CF0001093D5020093D4020E94850ADC0112962B
:103D00000D911C910115110509F451C1D801ED91D6
:103D1000FC910480F581E02DBE016B5E7F4FC801F0
:103D20000995009709F03EC1F80100851185EACF99
:103D3000F3E0FF120EC08F89882309F440C082305F
:103D400061F440E860E181E693E10E94A1218111E4
:103D500048CF81E28093EB0047CF813029F440E8DF
:103D60006BE085E593E1F1CF833099F70E94850AF6
:103D7000DC011296ED90FC908E010F5F1F4F6801E1
:103D8000E114F10479F0D701ED91FC910680F781FF
:103D9000E02DB801C7010995080F111DF701E08456
:103DA000F184EECFD8011C92F60101900020E9F7D2
:103DB0003197BF016C197D0940E0C601C6CF6FE3A2
:103DC00073E1FB01449150E080E80E94480B09CF69
:103DD000973009F4BECF983021F481E08093F10050
:103DE00000CF993009F0FDCE837009F0B2CFEDE13C
:103DF000F1E081E031E096E32191222371F080939C
:103E0000E9003093EB00DF0111972C912093EC0037
:103E10009093ED008F5F873079F78EE78093EA000B
:103E20001092EA008F898093E902DBCE8B8D9C8D06
:103E30001092E9001092D7021092D6029093D50208
:103E40008093D402898D811192C08E899D89913A87
:103E500049F4813209F07DCF47E050E069E071E03C
:103E600080E0B3CF913209F074CF833269F48F8947
:103E7000988DB0E0A0E08093050190930601A09397
:103E80000701B0930801ADCE803269F48091E8005B
:103E900082FFFCCF67E089E091E00E949F0B8BEFEF
:103EA0008093E8009ECE823209F09BCE8F8980936A
:103EB0001001EEEFFFE7859194918B3F9C4D51F1FE
:103EC000E0E0F8E08091090190910A01A0910B01D6
:103ED000B0910C01803B9440A105B105F1F48091B3
:103EE000100180FD1AC0EE3F8AE0F80789F587E7E8
:103EF00097E791838083809160008093D80288E166
:103F00009BE00FB6F894A895809360000FBE909345
:103F1000600067CEEEEFFAE0D5CF808191818737E0
:103F2000974709F05ECEA8958091600088618093E4
:103F300060008091D80280936000EE3F2AE0F20793
:103F400089F08091FE0A9091FF0A9183808349CE87
:103F5000808191818737980751F29093FF0A80936F
:103F6000FE0AC5CF1092FF0A1092FE0A3ACE0E94B6
:103F7000850ADC0112960D911C910115110509F4B9
:103F8000E8CED801ED91FC910190F081E02DBE01C9
:103F90006B5E7F4FC8010995811123CEF801008522
:103FA0001185EBCF181619060CF41BCED2CEF1E01A
:103FB000FF12BECE63E473E104CF1F920F920FB6DF
:103FC0000F9211248F939F93AF93BF93EF93FF931F
:103FD0008091FF0290910003A0910103B091020330
:103FE000892B8A2B8B2BA1F19091F602E091F7029D
:103FF000F091F8028081892780838091FF0290915F
:104000000003A0910103B0910203181619061A06C5
:104010001B069CF48091FF0290910003A091010384
:10402000B09102030197A109B1098093FF02909317
:104030000003A0930103B0930203FF91EF91BF919E
:10404000AF919F918F910F900FBE0F901F90189579
:10405000809171008D7F809371008091F602E091D4
:10406000F702F091F8029081809589238083E5CF53
:104070001F920F920FB60F9211242F933F938F939D
:104080009F93AF93BF938091A3029091A402A091BC
:10409000A502B091A6023091A20223E0230F2D3792
:1040A00058F50196A11DB11D2093A2028093A30291
:1040B0009093A402A093A502B093A6028091A702B8
:1040C0009091A802A091A902B091AA020196A11D07
:1040D000B11D8093A7029093A802A093A902B09368
:1040E000AA02BF91AF919F918F913F912F910F9015
:1040F0000FBE0F901F90189526E8230F0296A11D62
:10410000B11DD2CF1F920F920FB60F9211242F9391
:104110003F934F935F936F937F938F939F93AF934F
:10412000BF93EF93FF938091B900887F803609F4A5
:104130004AC0F0F5883209F4A7C018F5803109F4B7
:104140009BC0B8F4882309F4F9C0883009F494C0FE
:10415000FF91EF91BF91AF919F918F917F916F915F
:104160005F914F913F912F910F900FBE0F901F9035
:104170001895883109F488C0803251F780937E0207
:1041800014C0803409F49DC040F48033B9F38833FF
:10419000F9F680937E0285ECB0C0803509F485C0C5
:1041A000883509F496C0883499F60E941D16D0CF40
:1041B000883909F48CC038F5883729F050F48836EE
:1041C00011F0803729F683E08093B20210927D02CD
:1041D00057C0883809F47BC0803919F0803809F05D
:1041E000B7CF80917D02803208F071C0E0917D02EE
:1041F00081E08E0F80937D028091BB00F0E0E35A56
:10420000FD4F80833DC0803B39F0E0F4803A09F4F3
:1042100079C0883A09F09CCF84E08093B202109272
:104220005C0210925B02E091AE02F091AF02099540
:1042300080915B0281110FC081E080935B0210923C
:104240003B0209C0803C09F4A6CF883C09F4A3CF07
:10425000883B09F07DCFE0915C0281E08E0F809376
:104260005C02F0E0E55CFD4F80818093BB009091A3
:104270005C0280915B0229C08091A1028093BB0007
:1042800085EC8093BC0064CF9091A00280919F0246
:10429000981758F5E091A00281E08E0F8093A0025C
:1042A000F0E0E158FD4F8081E9CFE091A00281E08C
:1042B0008E0F8093A0028091BB00F0E0E158FD4F8B
:1042C00080839091A00280919F029817C8F285E8A0
:1042D000D8CFE091A00281E08E0F8093A002809160
:1042E000BB00F0E0E158FD4F80838091B102811165
:1042F0005CCF81E08093B00284EA8093BC0010928E
:10430000B20226CF85EC8093BC001092B20280915D
:104310007D02803230F4E0917D02F0E0E35AFD4FFF
:10432000108260917D0270E0E091AC02F091AD02EC
:104330008DE592E0099510927D020ACF10927E02DF
:1043400034CFEF92FF920F931F93CF93DF93F82E0A
:10435000192FE62E042F81E0860F880F0E941A0B7A
:1043600083E00E941A0BCF2DD12FEC0EFD2EF11CF5
:10437000CE15DF05B9F007FF13C0FE0184910E943E
:104380001A0B182F80E00E941A0B812321968111AD
:10439000EFCFDF91CF911F910F91FF90EF90089594
:1043A0008881EDCF81E0F5CFE1E1F3E01382128265
:1043B00088EE93E0A0E0B0E084839583A683B78382
:1043C00087E291E0918380832FEF3FEF3587248749
:1043D000E2E6F3E01382128240E850E05583448322
:1043E00080E490E097838683518740879387828714
:1043F000158A158614861786168681E0848B338B82
:10440000228B318B208B868B178A118E108E29E39D
:1044100031E03183208321E633E0338F228F158E04
:10442000148E178E168E9FEF93A394A394E095A3FA
:104430009CE096A396E097A390E594AB85AB089596
:10444000CF93DF93CDB7DEB765970FB6F894DEBF95
:104450000FBECDBF789484B5826084BD84B5816081
:1044600084BD85B5826085BD85B5816085BD80913F
:104470006E00816080936E001092810080918100B7
:1044800082608093810080918100816080938100AF
:104490008091800081608093800080919100826093
:1044A0008093910080919100816080939100809130
:1044B00090008160809390008091C100846080931F
:1044C000C1008091C10082608093C1008091C100D1
:1044D00081608093C1008091C30081608093C3009C
:1044E0008091C00082608093C0008091C200816092
:1044F0008093C20080917A00846080937A008091DA
:104500007A00826080937A0080917A008160809343
:104510007A0080917A00806880937A001092E90294
:104520001092D9021092DB028091D70081608093B3
:10453000D70080EA8093D80089B5806189BD89B5AC
:10454000826089BD09B400FEFDCF61E070E080E0CB
:1045500090E00E94780F8091D8008F7C80618093DA
:10456000D8008091E000807F8093E0008091E1009E
:104570008E7E8093E1008DE08093E200559A209A30
:104580008091800390918103892B39F10E948A1CCC
:10459000809168039091690360916603709167034D
:1045A000813291050CF0F8C1AC014052510957FF1E
:1045B00002C04F5F5F4F559547956357710977FF6D
:1045C00002C06F5F7F4F75956795F0E2EF2EF12C7B
:1045D00003E710E023E136E0F7C120916803309152
:1045E0006903C901079697FD079623E0959587957E
:1045F0002A95E1F72091660330916703AC01429F51
:10460000C001439F900D529F900D11240E94F32DE5
:104610009093810380938003892B09F0B7CF81E0C9
:1046200080937603EE24E394F12CF0927503E092EC
:104630007403F0927303E092720362E082E10E94DD
:104640007E0C62E083E10E947E0C62E084E10E94C5
:104650007E0C62E085E10E947E0C62E087E00E94B1
:104660007E0C62E088E00E947E0C61E08AE00E949D
:104670007E0C61E08BE00E947E0C61E085E00E9490
:104680007E0C6FEF70E089E00E94B30E6FEF70E078
:104690008AE00E94B30E6FEF70E08BE00E94B30ED1
:1046A00089E190E09093C6028093C50288E090E093
:1046B0009093C8028093C70228E130E03093CA0289
:1046C0002093C90200E110E01093CC020093CB02CA
:1046D000F092CE02E092CD021092CF0223E030E0C1
:1046E0003093D3022093D2021092D1021092D002C2
:1046F0001092B5029093BD028093BC0282E090E0DC
:104700009093C1028093C00286E090E09093C30230
:104710008093C20282E08093C40280E890E090938C
:10472000EB028093EA021093ED020093EC020E94E8
:104730009A2B22E330E040E050E00E94082C685FB2
:104740007F4F8F4F9F4F7093EF026093EE02109355
:10475000F1020093F0020E949A2B24E030E040E046
:1047600050E00E94082C6F5F7F4F8F4F9F4F7093D8
:10477000F3026093F2021092F40290E080E00E9453
:10478000F22B80930F0381E090E00E94F22B809344
:10479000100380910F0390911003019631F4109251
:1047A000100310920F030E946B1CCE0101961C0196
:1047B000CC24C394D12C80910401882309F45BC0DC
:1047C00009E010E042E0A42EBB24B39439E1E32ECB
:1047D000F12C0E948A1CA0927603D0927503C0929D
:1047E0007403D0927303C0927203A8E2B0E0B09356
:1047F0006F03A0936E034AE050E05093710340931F
:10480000700381E691E00E94F81C84E190E09093AF
:104810006F0380936E03A8E2B0E0B0937103A0939E
:10482000700386E691E00E94F81C0E94A11AB092E3
:1048300076036FED70E0802F0E94B30E64E670E0A7
:1048400080E090E00E94780F88E00E94270C892B7E
:1048500009F0BCC26FEF70E089E00E94B30E6FEF09
:1048600070E08AE00E94B30E6FEF70E08BE00E9470
:10487000B30E109204018091CF02823071F4A9E14D
:10488000B0E0B093C602A093C50248E150E0509357
:10489000CA024093C9021092CF0282E10E94270C03
:1048A000892B69F48091C9029091CA0204978830DB
:1048B00091050CF454C39093CA028093C90285E118
:1048C0000E94270C892B69F48091C9029091CA0239
:1048D0000496813391050CF045C39093CA028093EE
:1048E000C90284E10E94270C892B59F48091C502EA
:1048F0009091C602049797FD3CC39093C6028093A3
:10490000C50283E10E94270C892B69F48091C502BE
:104910009091C6020496813891050CF031C39093B2
:10492000C6028093C50287E00E94270C892B09F0FC
:104930002CC38091C402823009F027C31092C402B4
:104940008091C5029091C6029093BB028093BA02F7
:104950008091C9029091CA0208969093BF028093F9
:10496000BE0203E310E00150110909F40EC36FE722
:1049700070E08BE00E94B30E61E070E080E090E0B8
:104980000E94780F6FEF70E08BE00E94B30E8EEE06
:1049900092E00E94AF0CE7CFAC014054510957FFA1
:1049A00002C04F5F5F4F559547956255710977FF7C
:1049B00002C06F5F7F4F7595679510E4E12EF12C73
:1049C00002E510E023EF37E082E693E00E94FD1459
:1049D00082E08093830380917E0390917F03892BF3
:1049E00009F4E9C08091680390916903809709F008
:1049F000E0C08CE3809382031092B4021092B30261
:104A000010920C0310920B031092B20281E080937B
:104A1000B1021092B00261E082E00E94500C61E0AD
:104A200083E00E94500C8091B9008E7F8093B90082
:104A30008091B9008D7F8093B90088E48093B8009D
:104A400085E48093BC0089ED9BE09093AF02809356
:104A5000AE028AED9BE09093AD028093AC02809110
:104A6000890387FD1EC061E00E947E0C61E0809199
:104A700089030E94500C61E070E080E090E00E94A9
:104A8000780F60E0809189030E94500C6AE070E02A
:104A900080E090E00E94780F61E0809189030E949D
:104AA000500C80917E0390917F03892B09F442C1C1
:104AB000209198033091990340919A0350919B0360
:104AC00060E074E284EF90E00E943A2C20513109BA
:104AD0004109510956954795379527952093B80078
:104AE00064E08FE096E00E948E1960916803615047
:104AF00082E693E00E943C1A64E08BE096E00E941C
:104B00008E198091830360E1813009F064E182E6CF
:104B100093E00E943C1A64E087E096E00E948E19C0
:104B200080916603909167038038910509F02DC14B
:104B300080916803909169038032910509F011C159
:104B400064E083E096E00E948E1969ED82E693E0CE
:104B50000E943C1A8091830362E2813009F061EF88
:104B600082E693E00E943C1A66E087EF95E00E949F
:104B70008E1980917E0390917F03892B09F41CC1CB
:104B800020919C0330919D0340919E0350919F037F
:104B900060E074E284EF90E00E943A2C20513109E9
:104BA0004109510956954795379527952093B800A7
:104BB00036CD8DE31FCF61E0809187030E947E0C8C
:104BC00061E0809188030E947E0C80918703082E0B
:104BD000000C990BFC01EC55FC4EE491F0E0EE0F5B
:104BE000FF1FEA56FC4E2591349130938F0320939A
:104BF0008E03FC01E958FC4EE491E093940380910C
:104C00008803082E000C990BFC01EC55FC4EE49136
:104C1000F0E0EE0FFF1FEA56FC4EA591B491B09361
:104C20009103A0939003FC01E958FC4EE491E093BA
:104C300095038C91E82BEC9380917C0390917D03FC
:104C4000892B09F434C01FB7F8948091AB0281110D
:104C500027C0E5EBF3E18491E8E8F3E19491E82FD4
:104C6000F0E0EE0FFF1FE751FA4FA591B491EC91E0
:104C7000E92321F461E081E10E94500C61E081E1CF
:104C80000E947E0C8CB580618CBD8CB580648CBD1F
:104C900061E08FE00E947E0C61E080E10E947E0C6A
:104CA0008091AB028F5F8093AB021FBFD8CE61E0D3
:104CB000809185030E947E0C61E0809186030E94B2
:104CC0007E0C80918503082E000C990BFC01EC559D
:104CD000FC4EE491F0E0EE0FFF1FEA56FC4E2591EA
:104CE000349130938B0320938A03FC01E958FC4EE6
:104CF000E491E093920380918603082E000C990BB7
:104D0000FC01EC55FC4EE491F0E0EE0FFF1FEA567B
:104D1000FC4EA591B491B0938D03A0938C03FC013C
:104D2000E958FC4EE491E09393038C91E095E823DD
:104D3000EC9395CE80917C0390917D03892B31F08B
:104D400080919603909197030E949E1AE0919003A0
:104D5000F0919103908180919503809589238083C0
:104D6000BFCE8034910509F0F0CE63E080E096E09C
:104D70000E948E19809183036FE9813009F06FECF6
:104D800082E693E00E943C1AE0CE8036910509F05D
:104D9000DCCE8091680390916903409709F0D5CEED
:104DA00063E08DEF95E00E948E198091830360E1AE
:104DB000813031F36FEAE4CFE0919003F0919103F9
:104DC000808190919503892B808329CC0E948A1C35
:104DD000A092760361E070E082E693E00E94FA130D
:104DE0001092750310927403109273031092720361
:104DF00048E250E050936F0340936E038AE090E0E6
:104E0000909371038093700381E691E00E94F81CF7
:104E1000A4E1B0E0B0936F03A0936E0348E250E0CA
:104E2000509371034093700386E691E00E94F81C52
:104E30000E94A11AB09276036FEF70E0802F0E945B
:104E4000B30E64E670E080E090E00E94780F0F5FA0
:104E50001F4F0C30110514F009E010E088E00E94AB
:104E6000270C892B09F4F6CC51E0E51AF10809F07A
:104E7000B0CC29E1E22EF12C0E948A1CD09275035D
:104E8000C0927403D0927303C0927203B0927603FF
:104E900064E08FE691E00E94051D60E18DE791E0FE
:104EA0000E94051D6CE18CE891E00E94051D66E200
:104EB00080EA91E00E94051D64E381EB91E00E948D
:104EC000051D0E94A11A6FED70E089E00E94B30EEB
:104ED0006FED70E08AE00E94B30E6FED70E08BE042
:104EE0000E94B30E64E670E080E090E00E94780FCC
:104EF00088E00E94270C892B81F46FEF70E089E035
:104F00000E94B30E6FEF70E08AE00E94B30E6FEF65
:104F100070E08BE00E94B30E9DCC0E94A11A6FEF4F
:104F200070E089E00E94B30E6FEF70E08AE00E94AB
:104F3000B30E6FEF70E08BE00E94B30E64E670E09A
:104F400080E090E00E94780F88E00E94270C892B77
:104F5000A1F281E0E81AF10809F08ECF37CC88E0A1
:104F600090E0A9CCA0E3B0E0B093CA02A093C9023C
:104F7000B8CC40E850E05093C6024093C502C1CC83
:104F80001092C6021092C502CECC8091D0029091B0
:104F9000D10268EE73E00E94C52D892B79F58091CE
:104FA000B502882359F193E3E92EF12C51E0E51A7B
:104FB000F108C9F019E06FE770E0812F0E94B30E8D
:104FC00061E070E080E090E00E94780F6FEF70E0A9
:104FD000812F0E94B30E88EC90E00E94AF0C1F5FFF
:104FE0001C3049F7E3CF8091D2029091D302019611
:104FF0009093D3028093D2021092B5028091C402A2
:1050000081110FC08091BA029091BB0206969093D5
:10501000BB028093BA02813891051CF082E0809334
:10502000C4028091F402823041F580E890E09093D0
:10503000EB028093EA020E949A2B28E230E040E0E3
:1050400050E00E94082C685F7F4F8F4F9F4F7093F6
:10505000EF026093EE020E949A2B24E030E040E0E1
:1050600050E00E94082C6F5F7F4F8F4F9F4F7093CF
:10507000F3026093F2021092F4028091F402813004
:1050800019F482E08093F4028091F402811110C03F
:105090008091EA029091EB022091F2023091F302AA
:1050A000821B930B97FD75C09093EB028093EA02ED
:1050B00085EC92E00E940F0A892B81F08091D20248
:1050C0009091D30221E02093CF0201979093D302D5
:1050D0008093D2022093F4020E94251C8AEB92E076
:1050E0000E940F0A892B09F48CC08091D002909104
:1050F000D10222E02093C40221E02093F4020A9618
:105100009093D1028093D0022093B50203E310E084
:105110000150110909F475C06FE770E089E00E9441
:10512000B30E61E070E080E090E00E94780F6FEFD6
:1051300070E089E00E94B30E82E390E00E94AF0C21
:105140006FE770E089E00E94B30E61E070E080E0FC
:1051500090E00E94780F6FEF70E089E00E94B30E3C
:1051600082E390E00E94AF0C6FE770E089E00E945C
:10517000B30E61E070E080E090E00E94780F6FEF86
:1051800070E089E00E94B30E82E390E00E94AF0CD1
:10519000BFCFA0E8B0E0B093EB02A093EA020E9478
:1051A0009A2B28E230E040E050E00E94082C685F33
:1051B0007F4F8F4F9F4F7093EF026093EE020E94DC
:1051C0009A2B24E030E040E050E00E94082C6F5F12
:1051D0007F4F8F4F9F4F7093F3026093F20282E0F4
:1051E0008093F40281E08093CF028091D20290916B
:1051F000D30201979093D3028093D2020E94251C80
:1052000057CF8091D2029091D30297FF88C000912E
:10521000D0021091D10264EF71E080E090E00E9432
:10522000780F80910F03909110038017910730F44D
:105230001093100300930F030E946B1C13E2A12E26
:10524000B12C0CE1802E912C84E0E82EF12C0CE2A4
:1052500010E00E948A1CB1E0B0937603D0927503EF
:10526000C0927403D0927303C09272036CE087EC17
:1052700091E00E94051DB0926F03A0926E03909280
:1052800071038092700386ED91E00E94F81C4090BB
:10529000D0025090D102052C000C660877084AE035
:1052A000C301B20177FE0DC06DE282E693E00E9479
:1052B000521266277727CB01641975098609970969
:1052C0004AE00E94AA1CF0926F03E0926E031093D2
:1052D00071030093700381ED91E00E94F81C6091CE
:1052E0000F037091100390E080E04AE00E94AA1C36
:1052F0000E94A11A88E00E94270C892B09F0A9CFEF
:105300001092D1021092D00283E090E09093D302E9
:105310008093D20281E0809304011092B5020E9432
:105320008A1C10926F0310926E03109271031092F8
:10533000700381E080937603D0927503C09274036A
:10534000D0927303C09272038091D0029091D102E7
:105350008A30910584F49F938F938EED91E09F9313
:105360008F933F922F920E94242F0F900F900F90B7
:105370000F900F900F908091D0029091D1029C01DC
:105380002A5031092A35310580F49F938F938FED90
:1053900091E09F938F933F922F920E94242F0F9022
:1053A0000F900F900F900F900F908091D0029091DE
:1053B000D1029C01245631092438334080F49F9354
:1053C0008F9380EE91E09F938F933F922F920E9454
:1053D000242F0F900F900F900F900F900F908091AF
:1053E000D0029091D102883E53E0950784F09F93BC
:1053F0008F9381EE91E09F938F933F922F920E9423
:10540000242F0F900F900F900F900F900F90C101CD
:105410000E94F81C10926F0310926E0388E090E0D7
:105420009093710380937003D0927503C0927403BC
:10543000D0927303C0927203B12CA12C912C812CB9
:105440008091D2029091D30288169906ACF4B8E00C
:10545000EB2EF12C04E010E025EF32E150E040E0CB
:10546000B50182E693E00E94FD149FEF891A990A24
:10547000A6E0AA0EB11CE4CF8091CF02811113C027
:105480004091C9025091CA026091C5027091C60252
:10549000A0E1EA2EF12C08E010E025EE32E182E6F0
:1054A00093E00E94FD148091CF028130B1F44091CD
:1054B000C9025091CA026091C5027091C602F8E01B
:1054C000EF2EF12C00E110E025ED32E182E693E0D1
:1054D0000E94FD1482E08093CF028091C40281116A
:1054E00013C04091BE025091BF026091BA02709108
:1054F000BB02E2E0EE2EF12C08E010E023ED32E1F9
:1055000082E693E00E94FD148091F402811113C0A1
:105510004091EE025091EF026091EA027091EB022D
:1055200030E1E32EF12C00E110E023EB32E182E6E2
:1055300093E00E94FD148091F402813099F440912F
:10554000EE025091EF026091EA027091EB0228E0C6
:10555000E22EF12C00E110E025ED32E182E693E04D
:105560000E94FD146091B6027091B7028091B8025A
:105570009091B9020E94DD2C90E4E92EF12C00E814
:1055800010E023EB3EE048E050E082E693E00E942A
:10559000FD142DEC3CEC4CEC5DE36091B602709197
:1055A000B7028091B8029091B9020E946B2C4B0116
:1055B0005C0120E030E04EEF52EC0E94D82C87FDD9
:1055C00048C08092B6029092B702A092B802B09200
:1055D000B9026091000170910101809102019091E6
:1055E00003010E94DD2C80E4E82EF12C00E810E09D
:1055F00023EB3AE048E050E082E693E00E94FD149D
:105600002DEC3CEC4CEC5DE36091000170910101EC
:1056100080910201909103010E946B2C4B015C016F
:1056200020E030E0A9010E94D82C87FD1BC08092A9
:10563000000190920101A0920201B09203010E9428
:10564000A11A80E090E0892B09F4B5C80E940000FF
:10565000B2C81092B6021092B7021092B80210921D
:10566000B902B7CF80E090E0A0E0B3E480930001FE
:1056700090930101A0930201B0930301E0CF89E36D
:1056800091E09093630380936203809180039091F3
:105690008103009711F00C948F2E08958F929F92A2
:1056A000AF92BF92CF92DF92EF92FF92CF93DF93B0
:1056B000EC01688179818A819B8161157105810581
:1056C000910521F464E279ED8BE597E02DE133EF6C
:1056D00041E050E00E94082C49015A019B01AC01B5
:1056E000A7EAB1E40E94272C6B017C01ACEEB4EF79
:1056F000A50194010E94352CC60ED71EE81EF91E86
:10570000F7FE06C081E0C81AD108E10880E8F80A6F
:10571000C882D982EA82FB82C701B6019F77DF91F6
:10572000CF91FF90EF90DF90CF90BF90AF909F9080
:105730008F9008958F929F92AF92BF92CF92DF92F7
:10574000EF92FF9260911201709113018091140108
:1057500090911501611571058105910521F464E2AF
:1057600079ED8BE597E02DE133EF41E050E00E94C9
:10577000082C49015A019B01AC01A7EAB1E40E943F
:10578000272C6B017C01ACEEB4EFA50194010E94C3
:10579000352CC60ED71EE81EF91EF7FE06C081E0A6
:1057A000C81AD108E10880E8F80AC0921201D09224
:1057B0001301E0921401F0921501C701B6019F7721
:1057C000FF90EF90DF90CF90BF90AF909F908F9021
:1057D00008956093120170931301809314019093C4
:1057E00015010895F999FECF92BD81BDF89A9927C8
:1057F00080B50895262FF999FECF1FBA92BD81BDBD
:1058000020BD0FB6F894FA9AF99A0FBE0196089542
:10581000052E97FB1EF400940E941F2C57FD07D005
:105820000E943A2C07FC03D04EF40C941F2C509588
:105830004095309521953F4F4F4F5F4F089590957C
:105840008095709561957F4F8F4F9F4F08950E946F
:105850005C2CA59F900DB49F900DA49F800D911D71
:1058600011240895B7FF0C94272C0E94272C821B2B
:10587000930B0895A1E21A2EAA1BBB1BFD010DC0BC
:10588000AA1FBB1FEE1FFF1FA217B307E407F507F0
:1058900020F0A21BB30BE40BF50B661F771F881FCC
:1058A000991F1A9469F760957095809590959B0162
:1058B000AC01BD01CF010895A29FB001B39FC0010B
:1058C000A39F700D811D1124911DB29F700D811D2C
:1058D0001124911D08955058BB27AA270E94832C9C
:1058E0000C948B2D0E947D2D38F00E94842D20F089
:1058F00039F49F3F19F426F40C947A2D0EF4E095B8
:10590000E7FB0C94742DE92F0E949C2D58F3BA17D5
:10591000620773078407950720F079F4A6F50C94C5
:10592000BE2D0EF4E0950B2EBA2FA02D0B01B90160
:1059300090010C01CA01A0011124FF27591B99F005
:10594000593F50F4503E68F11A16F040A22F232F11
:10595000342F4427585FF3CF469537952795A79561
:10596000F0405395C9F77EF41F16BA0B620B730B08
:10597000840BBAF09150A1F0FF0FBB1F661F771F79
:10598000881FC2F70EC0BA0F621F731F841F48F42E
:10599000879577956795B795F7959E3F08F0B0CFB7
:1059A0009395880F08F09927EE0F9795879508959E
:1059B0000E94502D08F481E008950E94E42C689420
:1059C000B1110C94BF2D08950E94A42D88F09F570B
:1059D00098F0B92F9927B751B0F0E1F0660F771F13
:1059E000881F991F1AF0BA95C9F714C0B13091F009
:1059F0000E94BE2DB1E008950C94BE2D672F782F24
:105A00008827B85F39F0B93FCCF3869577956795CD
:105A1000B395D9F73EF490958095709561957F4F39
:105A20008F4F9F4F0895E89409C097FB3EF49095DF
:105A30008095709561957F4F8F4F9F4F9923A9F067
:105A4000F92F96E9BB279395F695879577956795F6
:105A5000B795F111F8CFFAF4BB0F11F460FF1BC03A
:105A60006F5F7F4F8F4F9F4F16C0882311F096E9CD
:105A700011C0772321F09EE8872F762F05C066237B
:105A800071F096E8862F70E060E02AF09A95660F34
:105A9000771F881FDAF7880F9695879597F90895ED
:105AA000990F0008550FAA0BE0E8FEEF161617062F
:105AB000E807F907C0F012161306E407F50798F097
:105AC000621B730B840B950B39F40A2661F0232BB0
:105AD000242B252B21F408950A2609F4A140A6952C
