:100000000C94240A0C944C0A0C944C0A0C944C0A40
:100010000C944C0A0C944C0A0C944C0A0C944C0A08
:100020000C944C0A0C944C0A0C94281F0C94971FA7
:100030000C944C0A0C944C0A0C944C0A0C944C0AE8
:100040000C944C0A0C944C0A0C944C0A0C944C0AD8
:100050000C944C0A0C944C0A0C944C0A0C942422D8
:100060000C944C0A0C944C0A0C944C0A0C944C0AB8
:100070000C944C0A0C944C0A0C944C0A0C944C0AA8
:100080000C94C9210C944C0A0C944C0A0C944C0A04
:100090000C946E220C944C0A0C944C0A0C944C0A4E
:1000A0000C944C0A0C944C0A0C944C0A0001030763
:1000B0000F1F3F7F0080C0E0F0F8FCFE0000000052
:1000C000003E5B4F5B3E3E6B4F6B3E1C3E7C3E1CDE
:1000D000183C7E3C181C577D571C1C5E7F5E1C0024
:1000E000183C1800FFE7C3E7FF0018241800FFE7DB
:1000F000DBE7FF30483A060E2629792926407F059E
:100100000507407F05253F5A3CE73C5A7F3E1C1CB3
:1001100008081C1C3E7F14227F22145F5F005F5F73
:1001200006097F017F006689956A6060606060945F
:10013000A2FFA29408047E040810207E2010080864
:100140002A1C08081C2A08081E101010100C1E0C6F
:100150001E0C30383E3830060E3E0E060000000001
:100160000000005F00000007000700147F147F14E8
:10017000242A7F2A1223130864623649562050002D
:1001800008070300001C2241000041221C002A1C19
:100190007F1C2A08083E0808008070300008080804
:1001A0000808000060600020100804023E51494524
:1001B0003E00427F400072494949462141494D3342
:1001C0001814127F1027454545393C4A49493141A9
:1001D000211109073649494936464949291E000077
:1001E00014000000403400000008142241141414CC
:1001F0001414004122140802015909063E415D59B8
:100200004E7C1211127C7F494949363E41414122C0
:100210007F4141413E7F494949417F090909013EEA
:10022000414151737F0808087F00417F4100204011
:10023000413F017F081422417F404040407F021C23
:10024000027F7F0408107F3E4141413E7F0909093A
:10025000063E4151215E7F09192946264949493206
:1002600003017F01033F4040403F1F2040201F3FCC
:100270004038403F63140814630304780403615951
:10028000494D43007F414141020408102000414193
:10029000417F04020102044040404040000307083F
:1002A0000020545478407F2844443838444444283B
:1002B000384444287F385454541800087E090218E2
:1002C000A4A49C787F0804047800447D400020406A
:1002D000403D007F1028440000417F40007C0478AE
:1002E00004787C080404783844444438FC182424F6
:1002F0001818242418FC7C08040408485454542476
:1003000004043F44243C4040207C1C2040201C3CF2
:100310004030403C44281028444C9090907C4464E9
:10032000544C44000836410000007700000041367C
:10033000080002010204023C2623263C1EA1A16102
:10034000123A4040207A3854545559215555794134
:100350002254547842215554784020545579400C09
:100360001E527212395555555939545454593955EC
:100370005454580000457C410002457D420001452F
:100380007C407D1211127DF0282528F07C545545C3
:10039000002054547C547C0A097F4932494949322F
:1003A0003A4444443A324A4848303A4141217A3A40
:1003B00042402078009DA0A07D3D4242423D3D400C
:1003C00040403D3C24FF2424487E4943662B2FFCBB
:1003D0002F2BFF0929F620C0887E09032054547969
:1003E000410000447D413048484A32384040227A3A
:1003F000007A0A0A727D0D19317D2629292F2826B7
:100400002929292630484D402038080808080808BE
:100410000808382F10C8ACBA2F102834FA00007B17
:10042000000008142A142222142A1408550055002A
:1004300055AA55AA55AAFF55FF55FF000000FF0019
:10044000101010FF00141414FF001010FF00FF1014
:1004500010F010F0141414FC001414F700FF000046
:10046000FF00FF1414F404FC141417101F10101FC5
:10047000101F1414141F00101010F0000000001FB3
:10048000101010101F10101010F010000000FF10BE
:100490001010101010101010FF10000000FF1400BA
:1004A00000FF00FF00001F10170000FC04F41414EC
:1004B0001710171414F404F40000FF00F7141414B8
:1004C00014141414F700F7141414171410101F1038
:1004D0001F141414F4141010F010F000001F101F5B
:1004E0000000001F14000000FC140000F010F010C9
:1004F00010FF10FF141414FF141010101F00000040
:1005000000F010FFFFFFFFFFF0F0F0F0F0FFFFFF43
:100510000000000000FFFF0F0F0F0F0F384444389A
:1005200044FC4A4A4A347E02020606027E027E02E9
:1005300063554941633844443C04407E201E2006F4
:10054000027E020299A5E7A5991C2A492A1C4C7231
:1005500001724C304A4D4D303048784830BC625AB8
:10056000463D3E494949007E0101017E2A2A2A2A48
:100570002A44445F444440514A444040444A514024
:100580000000FF0103E080FF000008086B6B0836E5
:1005900012362436060F090F060000181800000056
:1005A0001010003040FF0101001F01011E00191D45
:1005B0001712003C3C3C3C00000000000000000022
:1005C0002300260029002C002F0000000002000953
:1005D0000F0000030401000C0000000000000000F8
:1005E00000000000000000000000000000240027C0
:1005F000002A002D003000DB40A4A62EAFDA0281D5
:10060000DA1281DA02818F2000A1C8D300408DAEBA
:10061000D580A8000060000000000000000000007D
:1006200000000000E00000000000000000000000EA
:10063000000001E0000000000000000000000000D9
:100640000001F000000000000000000000000000B9
:1006500003F00000000000000000000000000007A0
:10066000F00000000000000000000000000007F89B
:10067000000000000000000000000000000FF80073
:10068000000003C0007E000001E0007F0FF80000C2
:100690000003C000FE000001E000FFEFF8000000D2
:1006A00003C000FE000001E000FFFFF800000003AF
:1006B000C000F00000000F007FFE7FC0000003C0FC
:1006C00000F00000000F003FFE7FF83FF1FBCFFC81
:1006D000FEF3BC3DEFE01FFE7FFF7FFBFFDFFEFE72
:1006E000FFBC3DEFE01FC6FFFF7FFBFFDFFEFEFF0D
:1006F000BC3DEFE00FE3C7FE787BC3DE1EF0FFBC1E
:100700003DEF0007FF87FC787BC3DE1EF0F83C3D21
:10071000EF0001FFFFF0007BC3C01EF0F03C3DEF97
:100720000001F37FE03FFBC3CFFEF0F03C3DEF0064
:1007300003E33F807FFBC3DFFEF0F03C3DEF0007AB
:10074000E73C00787BC3DE1EF0F03C3DEF0007FF86
:10075000BE00787BC3DE1EF0F03C3DEF0007FFFEDD
:1007600000787BC3DE1EF0F03C3DEF000FFFFE0083
:100770007FFBFFDFFEF0F03FFDEFE00FFFFF007FAC
:10078000FBFFDFFEF0F03FFDEFE00FF9FF003E79E9
:10079000F9CF9EF0F01F3DE7E01FF1FF00000000E1
:1007A00000000000000000001F80FF007FFFFFFF2F
:1007B000FFFFFFFFFFFFE01C007F007FFFFFFFFE4A
:1007C000B46D888D18E000001F007FFFFFFFFE95CD
:1007D000AD7DB577E000000F007FFFFFFFFEA5AD08
:1007E0009D8D19E0000006007FFFFFFFFEB5ADED17
:1007F000B57EE00000000000018000000000000065
:10080000000000038000000000000000000007C09E
:1008100000000000000000000007C0000000000011
:10082000000000000FC00000000000000000001FDA
:10083000E00000000000000000001FE000000000D9
:1008400000000000003FE000000000000000000089
:100850003FF00000000000000000007FF0000000FA
:10086000000000001FF87FF0000000000000003FC3
:10087000FE7FF0000000000000003FFF7FF000005E
:1008800000000000001FFFFBE0000000000000006F
:100890000FFFF9FFC00000000000000FFFF9FFF894
:1008A00000000000000007FFF1FFFF000000000053
:1008B0000003FC73FFFF80000000000001FE3FFF0B
:1008C000FF80000000000000FF1E0FFF000000007E
:1008D0000000007FFE1FFC000000000000003FFF42
:1008E000FFF8000000000000000FDFFFE000000044
:1008F000000000001F19FFC0000000000000003FC2
:100900003CFF00000000000000007E7CF8000000BA
:1009100000000000007FFE7C0000000000000000DE
:10092000FFFFFC0000000000000000FFFFFE0000D1
:10093000000000000000FFFFFE00000000000000BB
:1009400001FFEFFE0000000000000001FFCFFE00ED
:1009500000000000000003FF07FE00000000000090
:100960000003FC07FE0000000000000003F003FE8F
:1009700000000000000000018000FE0000000000F8
:1009800000000000007E00000000000000000000E9
:100990003E000000000000000000000C000000000D
:1009A0000000078000FC000003C000000007800179
:1009B000FC000003C0000000078001FC000003C031
:1009C000000000078001E00000001E00000007801A
:1009D00001E00000001E007FE3F79FF9FDE7787B50
:1009E000DFC0FFF7FFBFFDFDFF787BDFC0FFF7FF34
:1009F000BFFDFDFF787BDFC0F0F787BC3DE1FF78EE
:100A00007BDE00F0F787BC3DE1F0787BDE0000F78D
:100A100087803DE1E0787BDE007FF7879FFDE1E0A6
:100A2000787BDE00FFF787BFFDE1E0787BDE00F03A
:100A3000F787BC3DE1E0787BDE00F0F787BC3DE165
:100A4000E0787BDE00F0F787BC3DE1E0787BDE00FC
:100A5000FFF7FFBFFDE1E07FFBDFC0FFF7FFBFFD5A
:100A6000E1E07FFBDFC07CF3F39F3DE1E03E7BCF25
:100A7000C00000000000000000000000FFFFFFFFBA
:100A8000FFFFFFFFFFFFC0FFFFFFFFFD68DB111A45
:100A900031C0FFFFFFFFFD2B5AFB6AEFC0FFFFFFD6
:100AA000FFFD4B5B3B1A33C0FFFFFFFFFD6B5BDBC2
:100AB0006AFDC007E01FF83FFC0FFC07FE03FF01C3
:100AC000FF00FF00FF01FF03FF07FE0FFC3FFC1FBD
:100AD000F807E003C00FF01FF83FFC3FFC7FFE73F8
:100AE000CE73CE7FFE7FFE7FFE7FFE7FFE7FFE6E9B
:100AF00076442207E01FF83FFC7FF07FE0FFC0FF55
:100B000080FF00FF00FF80FFC07FE07FF03FFC1F01
:100B1000F807E007E01FF83FFC7FFE7FFEFFFFFFC6
:100B2000FFFFFFFFFFFFFFFFFF7FFE7FFE3FFC1F7A
:100B3000F807E000000000000000000000000000D6
:100B4000000000200008000000000000000000007D
:100B5000000000000000000000000800000000008D
:100B600000000000000000028000000010000000F3
:100B7000000020000000000EA000000000000000A7
:100B8000000000000000003A00000000000000002B
:100B900000000000000000550800000000000000F8
:100BA0000000000000000074400000000000100081
:100BB00040000000020000D00080000000000000A3
:100BC00000000000000040EA80000000000000007B
:100BD00000000000000000A0000000000000000075
:100BE00000000000000000D00880000000000000AD
:100BF00000000000000000A4000000000000000051
:100C000000000000000000C00A000000000000001A
:100C10000040000000000048210000000000000823
:100C20000000200000000040040000400000000020
:100C30000000000000000020000000000000000094
:100C40000000000000000008120000000004400046
:100C5000000000000000000000000000005BB40085
:100C6000000000000000000540000000017D5A80E7
:100C700000000000080000000000000003EB4940F5
:100C80000000000000000000000000000BBAA414E7
:100C90000000000000000000000000002ED5510000
:100CA0000080000000000000000000001B6A0444F7
:100CB000000000000000000000000000FFB550012F
:100CC0000000000000000000000000016AAA0220ED
:100CD000400000000000000000000002DD5540045C
:100CE000000000000000000000000003F5481100B3
:100CF000200000000000002000000006B6A28420B2
:100D000000000000000400000000000FEA90400016
:100D100090000000000000000000800DBAA4200236
:100D2000044000000000000000000007EA81008885
:100D300040000040000000000000001EAA2808201B
:100D400004000000000000000000003BB48122808D
:100D500000004000000000000000002ED2104800FB
:100D600002000000000000000000003759450000AC
:100D700000000000000080000000001AC4280000ED
:100D800002000000000000000000002F75428004F7
:100D900000000000001084000000003AA8001010BD
:100DA00042000000000000000000003FA5240040B9
:100DB00000000000020490000000006A50004000A3
:100DC000040000000002A0000000003D888900022D
:100DD00002000000000080000000003562000108F1
:100DE000000000000057F5000000005A8820002095
:100DF0004A0000000000800000000036A0800002D1
:100E0000000000000002A0000000002D12000211EE
:100E10000A000000000490000000001AC000004416
:100E200044000200000000000000002D2904000220
:100E30002804000000108400000000150020082194
:100E400010000001000000000040000CAA00010892
:100E5000A8000000000080000000000A80001004CC
:100E600040000000000000000000000551000221C9
:100E700030000000000040000000000A04210814B7
:100E8000400000000000000000000005508000410C
:100E900040000000000000000000000122000000EF
:100EA0008000000000000000000000028000020935
:100EB0000000000000000000000000005088202218
:100EC000020000000000000000000000840000029A
:100ED0000000000000020000000000001000008878
:100EE00000040000000000000000000009000020D5
:100EF000000000020000000000000800024804009A
:100F0000000000000000000000000000008241001E
:100F100000000000000000000000000000111400AC
:100F20000000000000000000004000000000000081
:100F300000000000000000000000000000000000B1
:100F40000000002000080000000000000000000079
:100F50000000000000000000000008000000000089
:100F600000000000000000028000000010000000EF
:100F7000000020000000000EA000000000000000A3
:100F8000000000000000003A000000000000000027
:100F900000000000000000550800000000000000F4
:100FA000000000000000007440000000000010007D
:100FB00040000000020000D000800000000000009F
:100FC00000000000000040EA800000000000000077
:100FD00000000000000000A0000000000000000071
:100FE00000000000000000D00880000000000000A9
:100FF00000000000000000A400000000000000004D
:1010000000000000000000C00A0000000000000016
:10101000004000000000004821000000000000081F
:10102000000020000000004004000040000000001C
:101030000000000000000020000000000000000090
:101040000000000000000008120000000000000086
:101050000000000000000000000000000000000090
:10106000000000000000000540000000001C1C0003
:1010700000000000080000000000000000400140E7
:10108000000000000000000000000000020000203E
:101090000000000000000000000000000800001830
:1010A00000800000000000000000000000000004BC
:1010B0000000000000000000000000000000003CF4
:1010C000800000000000000000000000000007FE9B
:1010D00080000000000000000000000000007FFF12
:1010E0008000000000000000000000010000FFFF81
:1010F000C000000000000020000000020003FFF814
:10110000200000000004000000000002000FFCFFAF
:10111000A000000000000000000080040017FE8016
:10112000104000000000000000000004007FFE806E
:1011300010000040000000000000000800FFE80070
:1011400008000000000000000000000001FF800017
:1011500008004000000000000000001003FE000036
:101160000400000000000000000000100FFC000060
:101170000400000000008000000000000FF00000EC
:101180000400000000000000000000001FF000004C
:101190000000000000108400000000103FE000008C
:1011A0000000000000000000000000103FC0000030
:1011B0000400000002049000000000107F80000086
:1011C000040000000002A000000000107F000000EA
:1011D0000400000000008000000000107E000000FD
:1011E000000000000057F50000000000FE000000B5
:1011F000000000000000800000000000FD00000072
:10120000040000000002A00000000011FC00001813
:10121000040000000004900000000001FA0000102B
:10122000000002000000000000000009F80007C0F4
:10123000080400000010840000000001F8000F0006
:10124000100000010000000000400007F800FC0052
:10125000100000000000800000000003F80FF00004
:1012600020000000000000000000000179FF800065
:10127000200000000000400000000000FFFC000013
:10128000000000000000000000000000FFF8000067
:101290000000000000000000000000005F8000006F
:1012A0000000000000000000000000000600000038
:1012B000000000000000000000000000000000002E
:1012C0000200000000000000000000000000000814
:1012D00000000000000200000000000004000010F8
:1012E00000040000000000000000000002000000F8
:1012F00000000002000000000000080000300600AE
:101300000000000000000000000000000007F000E6
:1013100000000000000000000000000000000000CD
:10132000000000000000000000400000000000007D
:101330000000000000038007E00DB04DB26FD6FB47
:10134000FF0FF807E003C00E70781E200C20080085
:10135000000000AA550880451020201040C0181039
:10136000402020451080C0F8C0C0E0F8FFF8E0C081
:10137000C0F8C0800080C080F0C080C000080B00B2
:10138000020202000009040000010202000005241C
:1013900000100105240101010424020605240600B1
:1013A000010705810310004009040100020A000042
:1013B0000007050202400000070583024000000408
:1013C00003090412010002EF0201404123368000AC
:1013D000010102030141726475696E6F204C4C4338
:1013E0000041726475696E6F204C656F6E61726446
:1013F0006F002200FF21000408020110408040100D
:10140000204080408008020401804020100201102A
:1014100080102040402000000000250028002B0004
:101420002E00310004040404040304050202020235
:10143000040302020202060606060606040402026D
:1014400002040403C0238E2F11241FBECFEFDAE065
:10145000DEBFCDBF12E0A0E0B1E0E8E8FCE602C0EC
:1014600005900D92A036B107D9F724E0A0E6B2E0CE
:1014700001C01D92AD3CB207E1F71AE0C3E2DAE029
:1014800004C02197FE010E942832C232D107C9F759
:101490000E940D240C9437360C9400000895FC0132
:1014A00080911C04882311F13FB7F89482E0809367
:1014B000E9002091F200822F90E01816190614F42A
:1014C00081E090E0882339F0289844E640931B049B
:1014D0004091F1004083222339F02091F200211144
:1014E00003C02BE62093E8003FBF08958FEF9FEFE6
:1014F00008952FB7F89483E08093E9009091E80075
:10150000892F807295FF04C09091F20080E4891BBE
:101510002FBF08958091130481110DC082E0809344
:101520000F0484E0809310041092120410921104AE
:1015300081E0809313048FE094E00895CF93DF93CC
:101540001F92CDB7DEB76983DC01ED91FC9102807B
:10155000F381E02D41E050E0BE016F5F7F4F0995C0
:101560000F90DF91CF91089583E08093E9008091FF
:10157000F200882319F08AE38093E80008950E941E
:10158000790A90E00895CF93DF931F92CDB7DEB72D
:10159000FC018485958597FD08C02FEF3FEF3587C7
:1015A00024870F90DF91CF910895CE0101960E947C
:1015B0004F0A019719F4898190E0F3CF8FEF9FEFE5
:1015C000F0CF0F931F93CF93DF931F92CDB7DEB76A
:1015D0008C01FC018485958597FF0BC0CE01019697
:1015E0000E944F0A019771F4898190E0F801958774
:1015F0008487F801848595850F90DF91CF911F91A5
:101600000F9108958FEF9FEFF1CFFC0184859585B1
:1016100097FD0BC09FB7F89482E08093E90080911A
:10162000F2009FBF90E0019608959FB7F89482E082
:101630008093E9008091F2009FBF90E0089540916F
:10164000090450910A0420910704309108044217BC
:101650005307B4F49091E8009570E1F39091E8009D
:1016600092FD19C08093F1008091090490910A04C1
:1016700001968F739927892B19F48EEF8093E800D8
:101680008091090490910A04019690930A04809332
:10169000090481E0089580E00895DF92EF92FF92BF
:1016A0000F931F93CF93DF93D82E8A01EB017B0119
:1016B000E40EF51ECE15DF0559F0D7FE12C0FE016F
:1016C00084910E941F0B21968111F4CF0FEF1FEF21
:1016D000C801DF91CF911F910F91FF90EF90DF90A4
:1016E00008958881EECF0F931F93CF93DF931F92BE
:1016F000CDB7DEB782E0898342E450E06DE773E165
:1017000080E80E944D0B0E948A0ADC0112960D911E
:101710001C910115110589F0D801ED91FC91028011
:10172000F381E02DBE016F5F7F4FC801099597FDE2
:1017300004C0F80100851185ECCF89810F90DF91FD
:10174000CF911F910F910895615030F02091F100D9
:10175000FC0120830196F8CF289884E680931B042F
:101760000895AF92BF92CF92DF92EF92FF920F93C4
:101770001F93CF93DF936C017B018B01040F151F27
:10178000EB015E01AE18BF08C017D10759F069918F
:10179000D601ED91FC910190F081E02DC6010995F3
:1017A000892B79F7C501DF91CF911F910F91FF90A0
:1017B000EF90DF90CF90BF90AF9008950895089577
:1017C00081508F3008F047C0E82FF0E0E651F44F29
:1017D0000C942832070C0B0CF90BFF0B030C2B0C91
:1017E0002B0C2B0C0E0C140C180C1C0C220C2B0CA0
:1017F000260C809180008F778093800008958091DF
:1018000080008F7DF9CF80918000877FF5CF84B5F0
:101810008F7784BD089584B58F7DFBCF8091900034
:101820008F77809390000895809190008F7DF9CFFD
:1018300080919000877FF5CF8091C0008F77809353
:10184000C00008958091C0008F7DF9CF8091C200C3
:10185000877F8093C2000895CF93DF93282F30E0D5
:10186000F901E653FA4F8491F901E950FC4ED49105
:10187000F901EC5DFB4EC491CC23A1F081110E94D3
:10188000E00BEC2FF0E0EE0FFF1FE454FA4FA591B0
:10189000B491EC91ED2381E090E009F480E0DF91D8
:1018A000CF91089580E090E0FACF1F93CF93DF931C
:1018B000282F30E0F901E653FA4F8491F901E950FD
:1018C000FC4ED491F901EC5DFB4EC491CC23A9F000
:1018D000162F81110E94E00BEC2FF0E0EE0FFF1F9E
:1018E000EA5EFB4EA591B4918FB7F894EC9111117B
:1018F00008C0D095DE23DC938FBFDF91CF911F917D
:101900000895DE2BF8CFCF93DF9390E0FC01E950F0
:10191000FC4E24918C5D9B4EFC0184918823D1F078
:1019200090E0880F991FFC01E751FA4FA591B491FF
:10193000FC01EA5EFB4EC591D491623071F49FB711
:10194000F8943C91822F809583238C93E8812E2BF1
:1019500028839FBFDF91CF9108958FB7F894EC91C2
:101960002E2B2C938FBFF6CF4F925F926F927F9268
:101970008F929F92AF92BF92CF92DF92EF92FF929F
:101980000F931F93CF93DF9300D000D01F92CDB75A
:10199000DEB78C0149835A836B837C83809111016C
:1019A0008530C9F08F3F09F48AC00F900F900F90D7
:1019B0000F900F90DF91CF911F910F91FF90EF90BB
:1019C000DF90CF90BF90AF909F908F907F906F905F
:1019D0005F904F900895E3E4F4E124912D8327FD77
:1019E000E4CF61E085E00E94830C2D81222321F069
:1019F0008D81823009F0F5C04801B12CA12C60E046
:101A000072E18AE790E0A50198010E945730290110
:101A10003A0168E478EE81E090E0A50198010E9427
:101A20005730DA01C9010197A109B1096C017D01A3
:101A30002D81222309F471C1223009F063C18F3F47
:101A40009105A105B10509F00CF4AFCF64E274EF84
:101A500080E090E0A50198010E94573021503109A3
:101A6000410951092F3F31054105510509F008F49D
:101A70009CCF62E17AE780E090E0A50194010E94AA
:101A8000573069017A0181E0C81AD108E108F108EC
:101A90002FEFC216D104E104F10409F00CF461C186
:101AA000730162019AE0F594E794D794C7949A95EC
:101AB000D1F781E0C81AD108E108F10852C185E0E8
:101AC00080931101E3E4F4E184918D838F3F09F465
:101AD0006CCF813041F170F0833009F442C0843022
:101AE00009F461C08D8187FD60CF61E085E00E94CF
:101AF000830C7ECF14BC15BC84B5826084BD85B5D3
:101B0000816085BDE9E2F4E1E491F0E0EE0FFF1FB2
:101B1000EA5EFB4E85919491ECEFF3E1E491E09362
:101B200022041D825ECF109280001092810080916D
:101B30008100886080938100809181008160809322
:101B40008100E9E2F4E1E491F0E0EE0FFF1FEA5ECC
:101B5000FB4E85919491ECEFF3E1E491E093210445
:101B600040CF109290001092910080919100886077
:101B70008093910080919100816080939100E9E2CF
:101B8000F4E1E491F0E0EE0FFF1FEA5EFB4E859179
:101B900094919093200480931F04ECEFF3E1E4917F
:101BA000E0931E041ECF1092C0001092C1008091DD
:101BB000C10088608093C1008091C10081608093E2
:101BC000C100E9E2F4E1E491F0E0EE0FFF1FEA5E0C
:101BD000FB4E85919491ECEFF3E1E491E0931D04C9
:101BE00000CFB12CA12C60E072E18AE790E0A50162
:101BF00098010E94573069017A0181E0C81AD10822
:101C0000E108F10891E0C114D10421E0E206F104F9
:101C100084F068E478EE81E090E0A50198010E94EC
:101C2000573069017A0181E0C81AD108E108F1084A
:101C300093E02D81213039F480918100887F892BB8
:101C4000809381008EC08D81833039F48091910022
:101C5000887F892B8093910084C02D81243009F0E6
:101C600080C08091C100887F892B8093C10079C09A
:101C7000D0928900C092880020932B0430932C04CA
:101C800040932D0450932E0480916F0082608093C6
:101C90006F008BCED0929900C092980020932704B9
:101CA000309328044093290450932A0480917100B2
:101CB00082608093710079CE730162012AE0F5940D
:101CC000E794D794C7942A95D1F721E0C21AD10896
:101CD000E108F10895E041C08D818330D9F284306C
:101CE00009F063CEC092CF002093230430932404E4
:101CF0004093250450932604809172008064809361
:101D0000720053CE8FEFC816D104E104F10411F034
:101D100008F0AFCE21E02D8324C093E08FEFC816EA
:101D2000D104E104F104C9F0C4F062E17AE780E093
:101D300090E0A50194010E94573069017A0181E089
:101D4000C81AD108E108F1082FEFC216D104E10446
:101D5000F10411F00CF0B0CF94E085B5887F892BA9
:101D600085BDD801AA0FBB1F29813A814B815C81B7
:101D70000E94763028EE33E040E050E00E94893047
:101D80008D81813009F474CF0CF0A6CF81110DCE76
:101D9000C7BC20932F0430933004409331045093F8
:101DA000320480916E00826080936E00FECD1F939E
:101DB000CF93DF93182FEB0161E00E94830CCF3F9C
:101DC000D10539F461E0812FDF91CF911F910C94FF
:101DD000550CE12FF0E0E653FA4FE491E150EF307B
:101DE00008F07FC0F0E0E950F14F0C942832060F64
:101DF0000E0F130F1D0F270F710F710F710F310F82
:101E00003B0F450F4F0F5C0F710F640F84B5806857
:101E100084BDC7BDDF91CF911F91089584B58062C5
:101E200084BDC8BDF7CF809180008068809380001A
:101E3000D0938900C0938800EDCF809180008062AC
:101E400080938000D0938B00C0938A00E3CF809171
:101E50008000886080938000D0938D00C0938C00B8
:101E6000D9CF80919000806880939000D0939900A2
:101E7000C0939800CFCF80919000806280939000B3
:101E8000D0939B00C0939A00C5CF8091900088604A
:101E900080939000D0939D00C0939C00BBCF809115
:101EA000C00080688093C0008091C0008F7B8093C9
:101EB000C000C093CF00AECF8091C00080628093FD
:101EC000C000C093D000A6CF8091C20088608093EC
:101ED000C2008091C2008B7F8093C200C093D20069
:101EE00099CFCF37D10509F06DCF60E06CCF3FB708
:101EF000F89480911A0390911B03A0911C03B09158
:101F00001D0326B5A89B05C02F3F19F00196A11D02
:101F1000B11D3FBFBA2FA92F982F8827BC01CD0133
:101F2000620F711D811D911D42E0660F771F881F92
:101F3000991F4A95D1F708958F929F92AF92BF92C1
:101F4000CF92DF92EF92FF924B015C010E94770FDC
:101F50006B017C010E94770F6C197D098E099F0926
:101F6000683E734081059105A8F321E0821A91082B
:101F7000A108B10888EEC80E83E0D81EE11CF11C50
:101F800081149104A104B10429F7FF90EF90DF9030
:101F9000CF90BF90AF909F908F9008958F929F9217
:101FA000AF92BF92CF92DF92EF92FF920F931F9367
:101FB000CF93DF936C017B018A018091100188230C
:101FC00009F45CC080911C04882309F457C08091F7
:101FD0000E0480FF05C08091E00082608093E000E5
:101FE000E801B12C8AEFA82E93E0892E2AE3922EE5
:101FF000209711F4BB20D9F10E94790A81110AC0FF
:10200000AA94AA20D9F161E070E080E090E00E94FB
:102010009C0FEECF8C171D0611F00CF08C2F9FB784
:10202000F8948092E9002091E80025FD02C09FBF4E
:10203000DFCF282F30E0C21BD30BF701815020F0F7
:1020400041914093F100FACFE20EF31EBB2021F044
:102050009092E800B12CEBCF8091E80085FDE7CFAE
:102060009092E800BB24B394209709F3F3CF5D98D6
:1020700084E680930D04101611063CF081E090E098
:10208000F6019383828310E000E0C801DF91CF91D5
:102090001F910F91FF90EF90DF90CF90BF90AF9086
:1020A0009F908F9008950895FC016370668B8481E2
:1020B000958126813781613039F0633029F091872D
:1020C0008087338722870895318720879387828787
:1020D00008952F923F924F925F926F927F928F92CC
:1020E0009F92AF92BF92CF92DF92EF92FF920F93A7
:1020F0001F93CF93DF93CDB7DEB76A970FB6F894EF
:10210000DEBF0FBECDBF9A8F898F7A8369834A0164
:10211000D22E18870F833701BC2CDC0159962D91E4
:102120003C915A972115310509F015C118968D91EA
:102130009C911997681779070CF0D7C11A968D9161
:102140009C91481759070CF0D0C14C2C512CB6E08B
:10215000CB9E600D711D11247C876B8716161706A8
:102160000CF0C3C1EA2DF0E0FA87E98793E0EE0FA7
:10217000FF1F9A95E1F7F88BEF87CF01840F951F2A
:10218000181619060CF0B1C1A98DBA8D58968C910C
:10219000811104C0BFEABD1508F4D394A98DBA8D8E
:1021A000ED91FC9111970284F385E02DCD01099505
:1021B000B5E0DB9EC0011124E981FA81FC83EB8349
:1021C000312C212C9C0124543F4F388F2F8B4A2DCA
:1021D00050E05E8B4D8BEF89F88DE20DF31D44913D
:1021E0009E828D82D12CC12C69817A81620D731DF2
:1021F0007A8B698B842F90E09C8B8B8BE98DFA8D89
:10220000A081B18140FF82C0F1E0BF126FC0AF1268
:102210006DC01C96ED91FC912F813885A4014C0D69
:102220005D1D69897A89898D9A8D0995EB89FC896B
:10223000F595E7954E2F5FEFC51AD50A6D817E8122
:102240008D899E89680F791F7E836D8398E0C916FA
:10225000D10481F6AFEF2A1A3A0AEB81FC81E40D32
:10226000F51DFC83EB83F5E02F16310409F0B3CFA5
:102270002F81388526153705B9F0A98DBA8DED91D6
:10228000FC91B1E0BB1257C0AB1255C069817A8195
:102290006B5F7F4F0088F189E02D830128E030E0FB
:1022A000A401898D9A8D0995A98DBA8DED91FC9126
:1022B00011970688F789E02DCD016A960FB6F8943C
:1022C000DEBF0FBECDBFDF91CF911F910F91FF9069
:1022D000EF90DF90CF90BF90AF909F908F907F90C6
:1022E0006F905F904F903F902F9009941E96ED91C4
:1022F000FC91EF80F88409851A8592014D815E81F9
:102300006B817C81898D9A8D099590CF2F8138853D
:102310002615370509F48ACF31E0B31207C0A3129E
:1023200005C01C96ED91FC91930178CF1E96ED911E
:10233000FC917301E0CF6B857C8564197509068477
:10234000F785E02D73010F8518899201A401898D0D
:102350009A8D0995A9CFF9013496949132974591B8
:102360005491D91AB7E0DB9E400D511D1124F9019B
:10237000259134913C8B2B8BFA0125903490FA01F6
:102380003296749031963491398B329664903196AE
:10239000449041E04C1518F04A1508F07FC0662DB6
:1023A000062C000C770B7C836B83842D042C000C93
:1023B000990B9E838D83A98DBA8DED91FC91119718
:1023C0000284F385E02DCD010995512CD12CC12C2F
:1023D000EA2DF0E0FA87E9872B2D30E03C872B8748
:1023E000A401440D511D47FC5A95588F4F8B6981AC
:1023F0007A81660D711D67FC7A957E876D87798974
:10240000C71608F051CF2C2D30E04D815E81420F70
:10241000531FA985BA854A9FC0014B9F900D5A9FB3
:10242000900D1124FC01E80DF91DF88BEF87852D27
:10243000612C4F89588D420F531F5E8B4D8B671453
:1024400008F050C044244394480E877041F4C10101
:102450000196EB89FC89E20DF31DD4901C01D7FE97
:1024600019C0A98DBA8DED91FC91662D70E0B1E097
:10247000BB1219C0AB1217C02D853E85620F731FAA
:102480000484F585E02D2F8138854D895E89898DFD
:102490009A8D0995DD0C6394842DD1CF1E821D8207
:1024A0001C821B8288CF4B815C81640F751FAB85BA
:1024B000BC856A9FC0016B9F900D7A9F900D11247F
:1024C00069817A81680F791F0684F785E02DEF8096
:1024D000F88409851A859D014F855889898D9A8DC3
:1024E0000995D8CF570CC3948ACF6A960FB6F89443
:1024F000DEBF0FBECDBFDF91CF911F910F91FF9037
:10250000EF90DF90CF90BF90AF909F908F907F9093
:102510006F905F904F903F902F9008958F929F9271
:10252000AF92CF92EF92FF920F931F93CF93DF93CF
:10253000EC01262F898D9A8D009709F051C06A30E1
:10254000D1F41D861C868D8948E0849F900111245A
:102550008E859F85820F931F9F878E8781E090E0F5
:10256000DF91CF911F910F91FF90EF90CF90AF909F
:102570009F908F9008956D3089F3CC88AD888F89B6
:102580008823C1F08C859D8536E0C39E800D911D0A
:102590001124488559854817590764F44E855F858D
:1025A0001D861C8638E0A39EC0011124840F951F50
:1025B0009F878E87EA88FB88088919894E855F8501
:1025C0006C857D85CE010E9469102C898C859D8546
:1025D00046E0249F800D911D11249D878C87BECFDE
:1025E0006A3069F41D861C86FC013896E4912D89B9
:1025F0008E859F85E29F800D911D1124ADCF6D309A
:1026000009F4ACCFFC0134963491631708F4A6CFDB
:102610003296E491E61708F4A1CFFC01329685903A
:102620009490462F431B342F47E0349F800C911C1D
:102630001124F401329634913196E4913323A9F1B7
:10264000EE2399F1CC88F4013596E491AD884F8959
:10265000442301F10E2E000CFF0BE30FF11DCE9E63
:10266000A001CF9E500D11246C857D85460F571F0C
:1026700068857985641775076CF44E855F851D86BE
:102680001C86FC013896E491AE9E400D511D11242C
:102690005F874E87EA88FB88088919894E855F85A0
:1026A0006C857D85CE010E946910F4013496E49119
:1026B0002C898C859D85E29F800D911D11248DCFE5
:1026C0006F927F928F929F92AF92BF92CF92DF9242
:1026D000EF92FF920F931F93CF93DF93EC016B0167
:1026E0005A0139014801E881F9810284F385E02D1E
:1026F0000995E881F9810288F389E02D870193012A
:10270000A501B601CE010995A501480D591D4150FD
:102710005109E881F9810288F389E02D9301B6011E
:10272000CE010995E881F9810088F189E02D9401B5
:10273000A501B601CE010995C60CD71CB6016150A2
:102740007109E881F9810088F189E02D9401A501E2
:10275000CE010995E881F9810688F789E02DCE013F
:10276000DF91CF911F910F91FF90EF90DF90CF906D
:10277000BF90AF909F908F907F906F9009946F92D1
:102780007F928F929F92AF92BF92CF92DF92EF9201
:10279000FF920F931F93CF93DF935C01EB016A01CC
:1027A000490138018701DC01ED91FC916217730743
:1027B00019F5641675062CF0962D872D3A01C92E51
:1027C000D82E9601261937092F5F3F4F048CF58DBF
:1027D000E02DA301BE01C5010995DF91CF911F91A5
:1027E0000F91FF90EF90DF90CF90BF90AF909F90B0
:1027F0008F907F906F9008954615570591F4261796
:10280000370724F0892D4B01C22FD82F9E0128199C
:1028100039092F5F3F4F068CF78DE02DA601B401DB
:10282000DACF0284F385E02D0995D501ED91FC9175
:102830000488F589E02D83019401A601BE01C5013C
:102840000995D501ED91FC910688F789E02DC50128
:10285000DF91CF911F910F91FF90EF90DF90CF907C
:10286000BF90AF909F908F907F906F900994EF9260
:10287000FF920F931F93DC011A960D911C911B97E9
:1028800018962D913C911997ED91FC9100A0F1A122
:10289000E02D7B0150E040E070E060E009951F9181
:1028A0000F91FF90EF9008954F925F926F927F92F9
:1028B0008F929F92AF92BF92CF92DF92EF92FF9250
:1028C0000F931F93CF93DF936C012B015A013901B2
:1028D0004801DC01ED91FC910284F385E02D09951E
:1028E000E201640C751CD601ED91FC91C615D7056B
:1028F0005CF40088F189E02D87019401A501BE01F7
:10290000C60109952196EFCF0688F789E02DC6010B
:10291000DF91CF911F910F91FF90EF90DF90CF90BB
:10292000BF90AF909F908F907F906F905F904F90EF
:1029300009948F929F92AF92BF92CF92DF92EF92C3
:10294000FF920F931F93CF93DF93EC015B014A013A
:102950006901E881F9810284F385E02D09959501EB
:102960002C0D3D1D21503109E881F9810488F5893C
:10297000E02D78018401A401B501CE010995E8811B
:10298000F9810688F789E02DCE01DF91CF911F9163
:102990000F91FF90EF90DF90CF90BF90AF909F90FE
:1029A0008F9009948F929F92AF92BF92CF92DF92B5
:1029B000EF92FF920F931F93CF93DF93EC015B0194
:1029C0004A0169017801E881F9810284F385E02DEB
:1029D0000995C80CD91C860101501109E881F981BB
:1029E0000488F589E02D9501A401B501CE01099572
:1029F000E881F9810688F789E02DCE01DF91CF913A
:102A00001F910F91FF90EF90DF90CF90BF90AF900C
:102A10009F908F900994EF92FF920F931F93DC0188
:102A2000ED91FC9100A0F1A1E02D09951F910F916E
:102A3000FF90EF9008950F931F93DC01ED91FC91AF
:102A4000068CF78DE02D09951F910F9108950F9336
:102A50001F93DC01ED91FC91048CF58DE02D09951F
:102A60001F910F910895DC01ED91FC910084F18597
:102A7000E02D09943F924F925F926F927F928F92D6
:102A80009F92AF92BF92CF92DF92EF92FF920F93FD
:102A90001F93CF93DF9300D000D0CDB7DEB75C019A
:102AA0003B016A014901280187E0480E511C93E06F
:102AB000559447949A95E1F7CA018E0D9F1D9A830C
:102AC0008983F12CE12C312C1C821B828B819C810F
:102AD00087709927330C892B61F4EB81FC8183E0AB
:102AE000F595E7958A95E1F7EE0DFF1DE80DF91DC7
:102AF000349037FE0AC021E030E0A6016B817C8172
:102B0000660D771DC5010E9433158B819C8101964E
:102B10009C838B8308171907C9F69FEFC91AD90A36
:102B2000E40CF51C89819A81C816D90669F60F90C4
:102B30000F900F900F90DF91CF911F910F91FF9009
:102B4000EF90DF90CF90BF90AF909F908F907F904D
:102B50006F905F904F903F9008952F923F924F92C9
:102B60005F926F927F928F929F92AF92BF92CF921D
:102B7000DF92EF92FF920F931F93CF93DF9300D0DA
:102B800000D000D0CDB7DEB73C016A013E832D8373
:102B9000FC82EB825801A41AB50AB7FE03C0B194B7
:102BA000A194B1088D809E80861A970A97FE03C073
:102BB0009194819491088A149B045CF0902F812F4A
:102BC0000D811E819D838E839C2D8D2D6B01692F20
:102BD000782F0C151D055CF09D818E817E836D83A1
:102BE000692F782F902F812F8601C92ED82E16019C
:102BF000201A310A2B012D813E81421A530A57FEB9
:102C000003C0519441945108710137FE03C03FEF56
:102C1000E31AF30AF594E7948D819E81861797074E
:102C20005CF5A1E0B0E0BA83A983C016D1064CF1EF
:102C3000D301ED91FC910484F585E02D2B813C813D
:102C4000A8016D817E818A149B041CF04D815E81F8
:102C5000B801C3010995E418F508F7FE0AC02D81F3
:102C60003E8189819A81280F391F3E832D83E20C92
:102C7000F31C0F5F1F4FD9CF2FEF3FEF3A8329830C
:102C8000D4CF26960FB6F894DEBF0FBECDBFDF912E
:102C9000CF911F910F91FF90EF90DF90CF90BF9059
:102CA000AF909F908F907F906F905F904F903F90EC
:102CB0002F9008952091CB02260F3327331F213206
:102CC0003105ECF42091EF02FC0190E080E024302B
:102CD00069F082E00895A091CB022191AC014555A5
:102CE0005D4FA40FB52FB11D2C930196861798F355
:102CF0008091CB02680F6093CB0280E0089581E061
:102D000008951092EF0281E08093F1021092F00298
:102D100061E082E00E94550C61E083E00E94550C66
:102D2000E9EBF0E080818E7F808380818D7F8083DE
:102D300088E48093B80085E48093BC000895CF9325
:102D4000DF9391E09093AA028823B9F0C091B80074
:102D5000D091BA008091BC008A7B8093BC0060E077
:102D600082E00E94550C60E083E00E94550C0E94B6
:102D70008116D093BA00C093B800DF91CF91089527
:102D8000E091240380912303E81730F4F0E0EB573F
:102D9000FD4F808190E008958FEF9FEF089590910F
:102DA0002403809123032FEF3FEF981748F4E92F76
:102DB000F0E0EB57FD4F208130E09F5F90932403BC
:102DC000C90108958091230390912403891B990BD5
:102DD0000895CF92DF92EF92FF920F931F93CF93BC
:102DE000DF937C01CB018A0120913604222389F0F4
:102DF000EB016B01C40ED51ECC15DD0569F06991A0
:102E0000D701ED91FC910190F081E02DC70109956A
:102E1000F3CF642F0E945A16C801DF91CF911F9102
:102E20000F91FF90EF90DF90CF900895CF93DF93B5
:102E30001F92CDB7DEB76983209136042223F9F0C3
:102E400020913304203258F021E030E0FC0133833C
:102E5000228390E080E00F90DF91CF9108958091E0
:102E60003404E82FF0E0EB59FD4F998190838F5F98
:102E7000809334048093330481E090E0ECCF61E0F0
:102E8000CE0101960E945A16F7CFCF92DF92EF92B1
:102E9000FF920F931F93CF93DF93D091330481E080
:102EA000D13208F09CC0C09135040E94770F6B01AD
:102EB0007C018091EF0281116CC082E08093EF026F
:102EC00081E08093F1028FEF8093EE021092130362
:102ED000D0931203A5E6B2E0E2EFF2E080E0D8136F
:102EE0008DC01092140380911403CC0FC82BC09393
:102EF00014038091F002813009F084C01092F00236
:102F00000E94770F6B017C01809114038093BB00BA
:102F10008091A6029091A702A091A802B091A90267
:102F2000892B8A2B8B2BA1F00E94770F0091A60290
:102F30001091A7022091A8023091A9026C197D0975
:102F40008E099F09061717072807390708F442C09A
:102F50008091BC0083FDD8CF85EC8093BC000E949B
:102F6000770F6B017C018091EF02823009F44CC035
:102F70008091EE028F3F09F469C08091EE028032A9
:102F800009F466C08091EE02803309F463C084E0E6
:102F900026C08091A6029091A702A091A802B091AC
:102FA000A902892B8A2B8B2B09F483CF0E94770FE0
:102FB0000091A6021091A7022091A8023091A902C7
:102FC0006C197D098E099F0906171707280739070D
:102FD00008F06FCF8091A5020E949F1685E01092A5
:102FE00034041092330410923604DF91CF911F9174
:102FF0000F91FF90EF90DF90CF9008959D91919366
:103000008F5F6DCF85EEA9CF8091A6029091A70228
:10301000A091A802B091A902892B8A2B8B2B09F4CD
:10302000A2CF0E94770F0091A6021091A7022091D3
:10303000A8023091A9026C197D098E099F09061713
:1030400017072807390708F08ECFC4CF80E0C7CF15
:1030500082E0C5CF83E0C3CFEF92FF920F931F931F
:10306000CF93DF93EC01EC80FD806E157F050CF0B3
:1030700070C057FF04C0240F351F50E040E08E8120
:103080009F81FA01E20FF31F8E179F071CF49C012A
:10309000241B350B121613060CF05BC0922F842FE5
:1030A0008695869586958E9DD0018F9DB00D1124B5
:1030B0006A0F7B1FAF8DB8A1A60FB71F477049F1EC
:1030C00088E0841B482F682F70E0FB01EC54FF4F11
:1030D000E491281708F063C0621B71092FEF30E0FC
:1030E00002C0359527956A95E2F7E2230130110574
:1030F00039F0B0F10230110561F58C91E82702C07A
:103100008C91E82BEC93941720F12C813D81A20F38
:10311000B31FE92FE41BE83078F00230110521F5E8
:103120008E2F9C9190959C932C813D81A20FB31F73
:1031300088508830B0F7E770EE2359F0F0E0E4559E
:10314000FF4FE49101301105F9F010F10230110543
:1031500019F1DF91CF911F910F91FF90EF9008959A
:10316000E0958C91E823CECF81E00115110509F49B
:1031700080E081959E2F8C932C813D81A20FB31FFF
:1031800098509830C0F7D7CF8C91E82BEC93E1CFD3
:10319000E0958C91E823FACF8C91E827F7CF0130A6
:1031A000110509F4ADCFE0F20230110509F4A5CF05
:1031B000AE0DBF1DAECF0F931F93CF93DF9377FF5D
:1031C00004C0260F371F70E060E0DC011496CD913B
:1031D000DC91FB01E20FF31FCE17DF071CF49E0109
:1031E000261B370B121613064CF5FA0157FD3796BE
:1031F000A3E0F595E795AA95E1F7EC9FD001ED9F47
:10320000B00DFC9FB00D11246A0F7B1FDC015F968F
:10321000ED91FC91E60FF71F4770552781E090E094
:1032200001C0880F4A95EAF7482F0130110559F07F
:10323000A8F02E0F3F1F02301105E1F0DF91CF9172
:103240001F910F9108952E0F3F1FE217F307B1F35F
:103250008191DF011197842B8C93F7CF80952E0FEE
:103260003F1FE217F30751F39191DF011197982364
:103270009C93F7CFE217F30709F38191DF011197D0
:1032800084278C93F7CF0F931F93FA01DC01569696
:103290004C9156974230E9F04330A1F1413061F54D
:1032A00014964D915C91DA01AE1BBF0BFD01E21B40
:1032B000F30B77FD0BC0DC0116964D915C91641702
:1032C000750724F4AB01BF010E94DB181F910F9119
:1032D000089514964D915C91DA01A61BB70BBD01C0
:1032E00061507109DC0116964D915C91DA01AE1BBB
:1032F000BF0BFD01E21BF30B77FDE8CFAF010E948E
:103300002C18E4CF16964D915C91DA01A61BB70BF1
:10331000BD0161507109CDCF0F931F93FA01DC01FC
:1033200056964C9156974230A9F0433091F1413076
:1033300019F514964D915C91DA01AE1BBF0BFD019E
:103340003197F7FD04C0AB01BF010E942C181F91FB
:103350000F91089514964D915C91DA01A61BB70B5D
:10336000BD01DC0116964D915C91DA01AE1BBF0BDD
:10337000FD013197621B730BF7FDE9CFDC01169657
:103380004D915C91E417F50714F7AF010E94DB182B
:10339000DECF16964D915C91DA01A61BB70BBD01ED
:1033A000621B730BCECFFC0177FD64C080859185D5
:1033B000681779070CF05EC057FD5CC08285938565
:1033C000481759070CF056C086898230B1F0833017
:1033D00029F1813041F484819581841B950BAB01E7
:1033E000BC01615071092130310509F108F443C075
:1033F0002230310509F463C0089584819581DC0190
:10340000A61BB70BBD016150710986819781DC0154
:10341000A41BB50BAD0141505109E5CF86819781C1
:10342000861B970BBA01AC0141505109DCCFCA0190
:1034300057FD0796A3E095958795AA95E1F7A48196
:10344000B5818A9F90018B9F300D9A9F300D11247A
:10345000620F731F078CF0A1E02DE60FF71F477076
:10346000552721E030E001C0220F4A95EAF780811C
:10347000822B80830895CA0157FD079633E0959506
:1034800087953A95E1F7A481B5818A9F90018B9F3A
:10349000300D9A9F300D1124620F731F078CF0A11D
:1034A000E02DE60FF71F4770552781E090E001C03F
:1034B000880F4A95EAF7809590818923DACFCA016F
:1034C00057FD079623E0959587952A95E1F7A48106
:1034D000B5818A9F90018B9F300D9A9F300D1124EA
:1034E000620F731F078CF0A1E02DE60FF71F4770E6
:1034F000552721E030E001C0220F4A95EAF780818C
:103500008227B7CF08958EBD00000DB407FEFDCF12
:103510008EB50895FF920F931F93CF93DF93F82EEC
:10352000D92FC62F8091A7049091A804009709F481
:1035300052C02091AB0431E030933604209335041F
:103540001092340410923304DC01ED91FC9101904F
:10355000F081E02D60E009950F2D1D2FD1E0FF24B3
:10356000F394C1508091A7049091A804CF3F61F1DA
:10357000D032C8F00E9445178091A7049091A8040A
:103580002091AB04F0923604209335041092340459
:1035900010923304DC01ED91FC910190F081E02D5B
:1035A00060E00995D1E08091A7049091A804F8010A
:1035B0006491DC01ED91FC910190F081E02D099581
:1035C000DF5F0F5F1F4FCDCFDF91CF911F910F9125
:1035D000FF900C944517E091B704F091B8049081E6
:1035E0008091BD048095892380830F2D1D2FC150AC
:1035F00008F438C0F80184912091A5043091A60404
:10360000232B29F00E94831A0F5F1F4FF0CF28E071
:1036100030E040E8E091B304F091B4049091BB0431
:10362000582F5423D9F05081952B9083E091B50405
:10363000F091B60490815091BC04952B9083E09159
:10364000B504F091B60450819091BC0490959523F7
:103650009083469521503109E9F6D6CF5081909557
:103660009523E3CFDF91CF911F910F91FF900895A4
:103670001F93CF93DF93EC018D8D9E8D009721F1E9
:10368000162F29A131E0309336042093350410928F
:10369000340410923304DC01ED91FC910190F0812F
:1036A000E02D60E009958D8D9E8DDC01ED91FC9102
:1036B0000190F081E02D612F09958D8D9E8DDF9118
:1036C000CF911F910C944517ADA5BEA59C918BA9D8
:1036D000809589238C938B8D9C8D892B31F0862F3F
:1036E000DF91CF911F910C94831A28E030E080E89D
:1036F000A9A5BAA599A9462F4823C1F04C91942BAE
:103700009C93ABA5BCA59C914AA9942B9C93ABA57B
:10371000BCA54C919AA9909594239C938695215091
:10372000310931F7DF91CF911F9108954C91909518
:103730009423E6CF8CBD9DBD0895EF92FF920F9329
:103740001F93CF93DF938091A7049091A804892BB6
:1037500009F493C02091C1043091C2044091C30484
:103760005091C40460E074E284EF90E00E948930DC
:1037700020513109410951095695479537952795AB
:103780002093B80065E082EF93E10E948A1A60916D
:103790008E0461508AE894E00E94381B20919004C6
:1037A00030919104C901079697FD079623E09595FE
:1037B00087952A95E1F720918E0430918F04829F9E
:1037C0008001839F100D929F100D1124C091A904B8
:1037D000D091AA048091A7049091A8040C0F1D1FFA
:1037E000009709F489C02091AB0431E0309336048E
:1037F000209335041092340410923304DC01ED91CF
:10380000FC910190F081E02D60E40995FF24F39490
:10381000EE24E3948091A7049091A8040C171D074F
:1038200009F442C0BFE1BF15D0F40E944517809152
:10383000A7049091A8042091AB04E0923604209351
:1038400035041092340410923304DC01ED91FC91A4
:103850000190F081E02D60E40995FF24F3948091BC
:10386000A7049091A8046991DC01ED91FC9101906D
:10387000F081E02D0995F394CDCF8091A50490912E
:10388000A604892B31F08091BF049091C0040E945E
:103890009A1BE091B904F091BA0490818091BE0422
:1038A0008095892380836ECF0E9445178091A7045D
:1038B0009091A804892B09F460C02091C50430912F
:1038C000C6044091C7045091C80460E074E284EFDC
:1038D00090E00E94893020513109410951095695E3
:1038E0004795379527952093B800DF91CF911F9189
:1038F0000F91FF90EF900895E091B704F091B80414
:1039000080819091BD04892B80830C171D0771F273
:1039100089912091A5043091A604232B19F00E94CF
:10392000831AF3CF28E030E040E8E091B304F0914F
:10393000B4049091BB04582F5423D9F05081952B97
:103940009083E091B504F091B60490815091BC044D
:10395000952B9083E091B504F091B604508190913D
:10396000BC04909595239083469521503109E9F642
:10397000CCCF508190959523E3CFE091B904F0919D
:10398000BA0480819091BE04892B8083AECF1F93AF
:10399000CF93DF93EC01162F8D8D9E8D892BB1F186
:1039A0002FA938AD49AD5AAD60E074E284EF90E0E4
:1039B0000E94893020513109410951095695479596
:1039C000379527952093B80066EA111167EACE0172
:1039D0000E94381B8D8D9E8D892B41F12BAD3CAD06
:1039E0004DAD5EAD60E074E284EF90E00E948930FE
:1039F0002051310941095109569547953795279529
:103A00002093B800DF91CF911F9108958B8D9C8DED
:103A1000892B21F08DA99EA90E949A1BEFA5F8A9D8
:103A200090818CA9809589238083CECFEFA5F8A9BA
:103A300080819CA9892B8083E5CF089590E080E068
:103A40000895DC01FB011A968C911A9781112EC002
:103A5000828581112BC0808191814D915C9111975C
:103A600012962D913C911397240F351F82179307BF
:103A7000ECF422813381820F931F48175907B4F465
:103A80008481958114964D915C91159716962D9190
:103A90003C91240F351F8217930744F42681378108
:103AA000280F391F81E0421753070CF080E008957A
:103AB000CF93C2E36FE770E08AE00E94D70E61E027
:103AC00070E080E090E00E949C0F6FEF70E08AE071
:103AD0000E94D70EC15071F744E650E060E070E0FC
:103AE00082E390E0CF910C94B40CCF93C091370453
:103AF00090E080E00E944130C81729F06C2F90E0E0
:103B000080E00E944930C091380481E090E00E943A
:103B10004130C81729F06C2F81E090E00E944930B5
:103B200087E394E0CF91089520919004309191041F
:103B3000C901079697FD079623E0959587952A95E5
:103B4000E1F720918E0430918F04829FA001839F22
:103B5000500D929F500D112470E060E08091A904F7
:103B60009091AA040C9458338F929F92AF92BF9277
:103B70000F931F93CF93DF93CDB7DEB7A1970FB607
:103B8000F894DEBF0FBECDBF19A2423008F44AE060
:103B90008E010F5D1F4F842E912CB12CA12CA501FD
:103BA00094010E948930E62FB901CA01EA3044F538
:103BB000E05DD801EE938D01232B242B252B79F783
:103BC00090E080E0109769F0FD0101900020E9F796
:103BD0003197AF014A1B5B0BBD018AE894E00E945C
:103BE000B10BA1960FB6F894DEBF0FBECDBFDF912B
:103BF000CF911F910F91BF90AF909F908F9008959C
:103C0000E95CD7CFFC0101900020E9F73197AF01C3
:103C1000481B590BBC018AE894E00C94B10BFF924D
:103C20000F931F93CF93DF93EC01F62EFC010190CD
:103C30000020E9F73197E81BF90B0AE814E086E069
:103C40008E9FB0018F9F700D11247695679590E03F
:103C500080E00E9462319B01AC0160E070E080E88E
:103C600092E40E94BA300E942C31F8017587648773
:103C70006F2D70E077876687CE01DF91CF911F911E
:103C80000F91FF900C94021E4F925F926F927F9261
:103C9000AF92BF92CF92DF92EF92FF920F931F935A
:103CA000CF93DF9389E190E09093F4038093F30343
:103CB00088E090E09093F6038093F50388E190E02C
:103CC0009093F8038093F70380E190E09093FA03D8
:103CD0008093F90381E090E09093FC038093FB03D1
:103CE0001092FD0383E08093FE031092260310924E
:103CF00006041092050484E690E0909304048093F7
:103D0000030484EF91E090930104809300041092E7
:103D1000FF0381E080930204809304011092250345
:103D20001092F203EFE8F3E082EF93E0A8E0B0E056
:103D300062E070E046E050E022E0B383A283778344
:103D400066835187408722873B968E179F07A9F786
:103D500010928E03CBE2D3E080E8A82EB12C00E1D4
:103D600010E092E3492E512C612C712C24E0C22EDC
:103D7000D12CE12CF12CB982A8821B830A830E94EA
:103D8000E92FA30192010E945730685F7F4F8F4F48
:103D90009F4F7D836C831F830E830E94E92FA701B1
:103DA00096010E9457306F5F7F4F8F4F9F4F7987EB
:103DB00068871A862B9683E0CE38D807E1F6DF9124
:103DC000CF911F910F91FF90EF90DF90CF90BF9018
:103DD000AF907F906F905F904F9008950E94533303
:103DE00085ED8093BC008091A6029091A702A091DE
:103DF000A802B091A9020796A11DB11D23E0B695B6
:103E0000A795979587952A95D1F72091BC0024FD19
:103E100003C01092EF0208954091A6025091A702AC
:103E20006091A8027091A902452B462B472B69F39C
:103E30000097A105B10541F025E32A95F1F70000AF
:103E40000197A109B109E1CF8091A5020C949F16B9
:103E50001F920F920FB60F9211248F939F93809110
:103E6000E1009091E100937F9093E10083FF0FC008
:103E70001092E90091E09093EB001092EC0092E335
:103E80009093ED0010921C0498E09093F00082FF54
:103E900022C093E09093E9009091F200992319F0E9
:103EA0009AE39093E80090910D04992341F090914A
:103EB0000D04915090930D04911101C05D9A909161
:103EC0001B04992341F090911B04915090931B0483
:103ED000911101C0289A84FF18C08091E2008E7E63
:103EE00081608093E2008091E1008F7E8093E10009
:103EF00080910E048E7E806180930E049F918F913D
:103F00000F900FBE0F901F90189580FFF7CF8091F4
:103F1000E2008E7E80618093E2008091E1008E7EDF
:103F20008093E10080910E048E7E8160E5CF1F9228
:103F30000F920FB60F921124CF92DF92EF92FF9261
:103F40000F931F932F933F934F935F936F937F93A1
:103F50008F939F93AF93BF93EF93FF93CF93DF9391
:103F6000CDB7DEB76C97DEBFCDBF1092E900809170
:103F7000E80083FF25C068E0CE0145960E94A40BAF
:103F800082EF8093E8008D8987FF39C09091E80027
:103F900090FFFCCF982F907609F034C19E894F890D
:103FA000588D2F89F88C911131C0803861F580913E
:103FB0000C048093F1001092F1008EEF8093E800E2
:103FC0006C960FB6F894DEBF0FBECDBFDF91CF91D8
:103FD000FF91EF91BF91AF919F918F917F916F91E1
:103FE0005F914F913F912F911F910F91FF90EF9013
:103FF000DF90CF900F900FBE0F901F9018959EEFFF
:104000009093E800C7CF1092F100D5CF913059F4CA
:104010008111D3CF4130510581F680910C048D7F01
:1040200080930C04CACF933049F48111C6CF41303C
:10403000510519F680910C048260F2CF953041F45D
:104040008091E80080FFFCCF20682093E300B5CF8B
:10405000963009F0A9C00B8D1C8D22E01092E9006A
:1040600010920A0410920904F2122EC01092080451
:10407000109207040E94730B1F8299E09983FA82C1
:1040800091E09E8390EA98879AEF9987209109049E
:1040900030910A04275F3F4F3C832B838D8310921E
:1040A000E90010920A041092090410930804009386
:1040B000070449E050E0BE016F5F7F4F80E00E943F
:1040C0004D0B0E94730B79CF1093080400930704E3
:1040D0000E948A0ADC0112960D911C9101151105AE
:1040E00009F451C1D801ED91FC910480F581E02DD6
:1040F000BE016B5E7F4FC8010995009709F03EC174
:10410000F80100851185EACFF3E0FF120EC08F8918
:10411000882309F440C0823061F440E860E181EE18
:1041200093E10E948D23811148CF81E28093EB00BF
:1041300047CF813029F440E86BE085ED93E1F1CF82
:10414000833099F70E948A0ADC011296ED90FC9068
:104150008E010F5F1F4F6801E114F10479F0D70160
:10416000ED91FC910680F781E02DB801C70109951A
:10417000080F111DF701E084F184EECFD8011C92E5
:10418000F60101900020E9F73197BF016C197D0914
:1041900040E0C601C6CF6FEB73E1FB01449150E0F4
:1041A00080E80E944D0B09CF973009F4BECF9830BC
:1041B00021F481E08093F10000CF993009F0FDCE29
:1041C000837009F0B2CFEDE1F1E081E031E096E3F8
:1041D0002191222371F08093E9003093EB00DF01FD
:1041E00011972C912093EC009093ED008F5F873016
:1041F00079F78EE78093EA001092EA008F89809326
:104200001C04DBCE8B8D9C8D1092E90010920A0469
:10421000109209049093080480930704898D8111FA
:1042200092C08E899D89913A49F4813209F07DCFFF
:1042300047E050E069E071E080E0B3CF913209F0EF
:1042400074CF833269F48F89988DB0E0A0E08093B9
:10425000050190930601A0930701B0930801ADCE2C
:10426000803269F48091E80082FFFCCF67E089E04A
:1042700091E00E94A40B8BEF8093E8009ECE8232E7
:1042800009F09BCE8F8980931001EEEFFFE78591B7
:1042900094918B3F9C4D51F1E0E0F8E08091090151
:1042A00090910A01A0910B01B0910C01803B9440C8
:1042B000A105B105F1F48091100180FD1AC0EE3F17
:1042C0008AE0F80789F587E797E7918380838091F3
:1042D000600080930B0488E19BE00FB6F894A895EA
:1042E000809360000FBE9093600067CEEEEFFAE01F
:1042F000D5CF808191818737974709F05ECEA89509
:104300008091600088618093600080910B048093AD
:104310006000EE3F2AE0F20789F08091FE0A90915A
:10432000FF0A9183808349CE8081918187379807E6
:1043300051F29093FF0A8093FE0AC5CF1092FF0AB4
:104340001092FE0A3ACE0E948A0ADC0112960D9162
:104350001C910115110509F4E8CED801ED91FC91ED
:104360000190F081E02DBE016B5E7F4FC801099581
:10437000811123CEF80100851185EBCF181619069F
:104380000CF41BCED2CEF1E0FF12BECE63EC73E193
:1043900004CF1F920F920FB60F9211248F939F9309
:1043A000AF93BF93EF93FF938091270490912804DC
:1043B000A0912904B0912A04892B8A2B8B2BA1F17F
:1043C00090911E04E0911F04F091200480818927C0
:1043D00080838091270490912804A0912904B091B2
:1043E0002A04181619061A061B069CF48091270445
:1043F00090912804A0912904B0912A040197A10961
:10440000B1098093270490932804A0932904B093C2
:104410002A04FF91EF91BF91AF919F918F910F90DF
:104420000FBE0F901F901895809171008D7F809323
:10443000710080911E04E0911F04F091200490818E
:10444000809589238083E5CF1F920F920FB60F923C
:1044500011242F933F938F939F93AF93BF9380919A
:10446000160390911703A0911803B091190330918E
:10447000150323E0230F2D3758F50196A11DB11D1B
:10448000209315038093160390931703A0931803AA
:10449000B093190380911A0390911B03A0911C0300
:1044A000B0911D030196A11DB11D80931A03909335
:1044B0001B03A0931C03B0931D03BF91AF919F9169
:1044C0008F913F912F910F900FBE0F901F901895D5
:1044D00026E8230F0296A11DB11DD2CF1F920F9285
:1044E0000FB60F9211242F933F934F935F936F93C7
:1044F0007F938F939F93AF93BF93EF93FF9380919D
:10450000B900887F803609F44AC0F0F5883209F492
:10451000A7C018F5803109F49BC0B8F4882309F4CA
:10452000F9C0883009F494C0FF91EF91BF91AF9129
:104530009F918F917F916F915F914F913F912F91BB
:104540000F900FBE0F901F901895883109F488C006
:10455000803251F78093EE0214C0803409F49DC07C
:1045600040F48033B9F38833F9F68093EE0285EC9A
:10457000B0C0803509F485C0883509F496C0883408
:1045800099F60E94F01ED0CF883909F48CC038F516
:10459000883729F050F4883611F0803729F683E007
:1045A0008093EF021092ED0257C0883809F47BC067
:1045B000803919F0803809F0B7CF8091ED02803250
:1045C00008F071C0E091ED0281E08E0F8093ED0262
:1045D0008091BB00F0E0E353FD4F80833DC0803B02
:1045E00039F0E0F4803A09F479C0883A09F09CCFB8
:1045F00084E08093EF021092CC021092CB02E09103
:104600002103F091220309958091CB0281110FC003
:1046100081E08093CB021092AB0209C0803C09F488
:10462000A6CF883C09F4A3CF883B09F07DCFE09169
:10463000CC0281E08E0F8093CC02F0E0E555FD4F77
:1046400080818093BB009091CC028091CB0229C0E5
:10465000809114038093BB0085EC8093BC0064CFF1
:104660009091130380911203981758F5E09113036A
:1046700081E08E0F80931303F0E0EE50FD4F8081B8
:10468000E9CFE091130381E08E0F809313038091B3
:10469000BB00F0E0EE50FD4F8083909113038091BA
:1046A00012039817C8F285E8D8CFE091130381E090
:1046B0008E0F809313038091BB00F0E0EE50FD4F0E
:1046C00080838091F10281115CCF81E08093F002C0
:1046D00084EA8093BC001092EF0226CF85EC809391
:1046E000BC001092EF028091ED02803230F4E09134
:1046F000ED02F0E0E353FD4F10826091ED0270E0B7
:10470000E0911F03F09120038DEC92E00995109247
:10471000ED020ACF1092EE0234CFEF92FF920F9388
:104720001F93CF93DF93F82E192FE62E042F81E0ED
:10473000860F880F0E941F0B83E00E941F0BCF2D56
:10474000D12FEC0EFD2EF11CCE15DF05B9F007FFC1
:1047500013C0FE0184910E941F0B182F80E00E945D
:104760001F0B812321968111EFCFDF91CF911F91F4
:104770000F91FF90EF9008958881EDCF81E0F5CF04
:10478000E9E3F4E01382128288EE93E0A0E0B0E067
:1047900084839583A683B78387E291E091838083A6
:1047A0002FEF3FEF35872487EAE8F4E01382128287
:1047B00040E850E05583448380E490E0978386830B
:1047C0005187408793878287168A158614861786B5
:1047D000168681E0858B848B338B228B318B208BEB
:1047E000878B108E128E118E29E331E03183208366
:1047F00029E834E0348F238F168E158E10A2178E81
:104800009FEF94A395A394E096A39CE097A396E0D2
:1048100090A790E595AB86AB0895CF93DF93CDB786
:10482000DEB765970FB6F894DEBF0FBECDBF7894A4
:1048300084B5826084BD84B5816084BD85B58260A5
:1048400085BD85B5816085BD80916E008160809356
:104850006E001092810080918100826080938100BF
:1048600080918100816080938100809180008160CF
:10487000809380008091910082608093910080916C
:10488000910081608093910080919000816080937D
:1048900090008091C10084608093C1008091C1002C
:1048A00082608093C1008091C10081608093C100CB
:1048B0008091C30081608093C3008091C0008260BA
:1048C0008093C0008091C20081608093C20080917B
:1048D0007A00846080937A0080917A00826080936D
:1048E0007A0080917A00816080937A0080917A00CA
:1048F000806880937A0010921C0410920C0410922D
:104900000E048091D70081608093D70080EA809365
:10491000D80089B5806189BD89B5826089BD09B437
:1049200000FEFDCF61E070E080E090E00E949C0F0F
:104930008091D8008F7C80618093D8008091E000C6
:10494000807F8093E0008091E1008E7E8093E10083
:104950008DE08093E200559A209A8091A90490916D
:10496000AA04892B39F10E94941D809190049091A2
:10497000910460918E0470918F04813291050CF046
:1049800051C3AC014052510957FF02C04F5F5F4F06
:10499000559547956357710977FF02C06F5F7F4F49
:1049A00075956795F0E2EF2EF12C03E710E023E117
:1049B00036E050C32091900430919104C9010796CC
:1049C00097FD079623E0959587952A95E1F7209125
:1049D0008E0430918F04AC01429FC001439F900D23
:1049E000529F900D11240E942E329093AA0480931E
:1049F000A904892B09F0B7CF81E080939E048093AE
:104A00009F0481E090E090939D0480939C04909398
:104A10009B0480939A0462E082E10E94830C62E02E
:104A200083E10E94830C62E084E10E94830C62E0D7
:104A300085E10E94830C62E086E10E94830C62E0C3
:104A400087E00E94830C62E088E00E94830C61E0B2
:104A50008AE00E94830C61E08BE00E94830C61E09D
:104A600085E00E94830C6FEF70E089E00E94D70E12
:104A70006FEF70E08AE00E94D70E6FEF70E08BE07E
:104A80000E94D70E61E082E00E94830C61E083E027
:104A90000E94830C61E082E00E94550C60E083E09C
:104AA0000E94550C0E94441E90E080E00E9441301C
:104AB0008093370481E090E00E9441308093380475
:104AC0008091370490913804019631F410923804A3
:104AD000109237040E94751DCE0101961C01CC2452
:104AE000C394D12C80910401882309F45DC0E9E0CE
:104AF0009E2EF2E07F2E08E210E0AAE0EA2EF12CD2
:104B0000B4E1AB2EB12C8824839479E1672E0E9406
:104B1000941D70929E0470929F04D0929D04C09246
:104B20009C04D0929B04C0929A0410939704009323
:104B30009604F0929904E092980481E691E00E9434
:104B4000021EB0929704A0929604109399040093C9
:104B5000980486E691E00E94021E0E949D1B8092AE
:104B60009E0480929F046FED70E0892D0E94D70E05
:104B700064E670E080E090E00E949C0F88E00E9474
:104B80002C0C81114CC46FEF70E089E00E94D70EAD
:104B90006FEF70E08AE00E94D70E6FEF70E08BE05D
:104BA0000E94D70E10920401209103043091040456
:104BB0008091050490910604B9010E941432892B5A
:104BC00009F04AC180910204882309F445C180910B
:104BD00026038F5F8A3008F0E3C480932603809118
:104BE000F2038F5F8A3008F0DDC48093F203809176
:104BF0008E038F5F8A3008F0D7C480938E031092A3
:104C0000020410912603123008F4D0C4220F331F7F
:104C10003093040420930304EAE08E2EF9E05F2E23
:104C2000A2E04A2E0DE210E0BAE0EB2EF12C80E477
:104C3000682E712C98E2A92EB12C992493940E948D
:104C4000941D40929E0440929F04D0929D04C09275
:104C50009C04D0929B04C0929A04109397040093F2
:104C60009604F0929904E092980488EE91E00E94F4
:104C7000021E7092970460929604B0929904A092DA
:104C800098046091260370E090E080E04AE00E9482
:104C9000B41D0E949D1B90929E0490929F046FED04
:104CA00070E0852D0E94D70E64E670E080E090E011
:104CB0000E949C0F6FEF70E089E00E94D70E6FEFAB
:104CC00070E08AE00E94D70E6FEF70E08BE00E94E8
:104CD000D70E0E94941D40929E0440929F0461E072
:104CE00070E08AE894E00E94371410929D041092BC
:104CF0009C0410929B0410929A04109397040093C2
:104D00009604F0929904E092980488EE91E00E9453
:104D1000021EACE3B0E0B0939704A0939604B09267
:104D20009904A09298046091260370E090E080E0DE
:104D30004AE00E94B41D0E949D1B90929E04909296
:104D40009F046FEF70E0852D0E94D70E64E670E03F
:104D500080E090E00E949C0F5394BBE0B51510F4E6
:104D600079E0572E6FEF70E089E00E94D70E6FEF69
:104D700070E08AE00E94D70E6FEF70E08BE00E9437
:104D8000D70E8A9481105BCF80912603893009F079
:104D900063C06EECA62EBB24BA9499249394882405
:104DA00083940E94941DE1E08E1609F425C4F2E07C
:104DB0008F1609F439C420E1E22EF12C00E110E055
:104DC00023ED3AE044E150E0B5018AE894E00E9426
:104DD0003A150E949D1B6AE070E080E090E00E941E
:104DE0009C0F4FEFA41AB40A5CE8A516B104C9F6EB
:104DF00068EE73E080E090E00E949C0F0E94941D9A
:104E000081E0881609F427C492E0891609F43BC4AE
:104E100010E1E12EF12C00E110E023ED3AE044E155
:104E200050E0B5018AE894E00E943A150E949D1B6B
:104E30006AE070E080E090E00E949C0FE1E0AE1A32
:104E4000B108FEECAF16FFEFBF06C1F668EE73E0E7
:104E500080E090E00E949C0F8091050490910604F0
:104E600060910004709101040E941432892B51F565
:104E70008091FF03882331F102E319E06FE770E0CE
:104E8000812F0E94D70E61E070E080E090E00E94E8
:104E90009C0F6FEF70E0812F0E94D70E4AE050E028
:104EA00060E070E088EC90E00E94B40C1F5F1C3062
:104EB00029F7015011F78091FE038F5F8093FE0365
:104EC0001092FF038091FD03823071F489E190E03C
:104ED0009093F4038093F30388E190E09093F803B8
:104EE0008093F7031092FD0382E10E942C0C892B22
:104EF00069F48091F7039091F80304978830910545
:104F00000CF4D8C39093F8038093F70385E10E94D3
:104F10002C0C892B69F48091F7039091F803049687
:104F2000813391050CF0C9C39093F8038093F70384
:104F300084E10E942C0C892B59F48091F303909109
:104F4000F403049797FDBCC39093F4038093F30399
:104F500083E10E942C0C892B69F48091F3039091DA
:104F6000F4030496813891050CF0ADC39093F403DB
:104F70008093F30387E00E942C0C1091F203892B9D
:104F8000D9F5809125032BE0829FF0011124E15790
:104F9000FC4F9285923081F512862091F303309177
:104FA000F403318320832091F7033091F803285FC5
:104FB0003F4F358324838F5F811708F089C3809327
:104FC000250302E36FE770E08BE00E94D70E61E0FB
:104FD00070E080E090E00E949C0F6FEF70E08BE04B
:104FE0000E94D70E015071F744E650E060E070E097
:104FF0008EEE92E00E94B40CEFE8F3E020E032E0A5
:10500000121709F468C38285811109C080819181DA
:10501000069691838083813891050CF032872F5F4B
:105020003B96EECFAC014054510957FF02C04F5F91
:105030005F4F559547956255710977FF02C06F5FC5
:105040007F4F7595679510E4E12EF12C02E510E095
:1050500023EF37E08AE894E00E943A1582E08093DB
:10506000AC048091A7049091A804892B09F4CCC0CA
:105070008091900490919104809709F0C3C08CE3D3
:105080008093AB04109224031092230310923404F3
:10509000109233040E9481168EED9BE090932203C0
:1050A000809321038FED9BE09093200380931F0357
:1050B0008091B20487FD1EC061E00E94830C61E014
:1050C0008091B2040E94550C61E070E080E090E0B5
:1050D0000E949C0F60E08091B2040E94550C6AE02F
:1050E00070E080E090E00E949C0F61E08091B2044B
:1050F0000E94550C8091A7049091A804892B09F473
:1051000042C12091C1043091C2044091C304509126
:10511000C40460E074E284EF90E00E948930205182
:10512000310941095109569547953795279520939F
:10513000B80064E08FE096E00E948A1A60919004C3
:1051400061508AE894E00E94381B64E08BE096E0AE
:105150000E948A1A8091AC0460E1813009F064E118
:105160008AE894E00E94381B64E087E096E00E94A1
:105170008A1A80918E0490918F048038910509F0ED
:105180002DC180919004909191048032910509F095
:1051900011C164E083E096E00E948A1A69ED8AE812
:1051A00094E00E94381B8091AC0462E2813009F0E7
:1051B00061EF8AE894E00E94381B66E087EF95E093
:1051C0000E948A1A8091A7049091A804892B09F45F
:1051D0001CC12091C5043091C6044091C704509170
:1051E000C80460E074E284EF90E00E9489302051AE
:1051F00031094109510956954795379527952093CF
:10520000B800FACB8DE33CCF61E08091B0040E94FE
:10521000830C61E08091B1040E94830C8091B00402
:10522000082E000C990BFC01EC5DFB4EE491F0E0C4
:10523000EE0FFF1FEA5EFB4E259134913093B804C8
:105240002093B704FC01E950FC4EE491E093BD04C7
:105250008091B104082E000C990BFC01EC5DFB4E13
:10526000E491F0E0EE0FFF1FEA5EFB4EA591B491D2
:10527000B093BA04A093B904FC01E950FC4EE49148
:10528000E093BE048C91E82BEC938091A50490915F
:10529000A604892B09F434C01FB7F89480911E032B
:1052A000811127C0E5E3F4E18491E8E0F4E1949111
:1052B000E82FF0E0EE0FFF1FE751FA4FA591B491F0
:1052C000EC91E92321F461E081E10E94550C61E059
:1052D00081E10E94830C8CB580618CBD8CB58064AB
:1052E0008CBD61E08FE00E94830C61E080E10E9450
:1052F000830C80911E038F5F80931E031FBFD8CE47
:1053000061E08091AE040E94830C61E08091AF0463
:105310000E94830C8091AE04082E000C990BFC01B6
:10532000EC5DFB4EE491F0E0EE0FFF1FEA5EFB4EFA
:10533000259134913093B4042093B304FC01E950D7
:10534000FC4EE491E093BB048091AF04082E000C66
:10535000990BFC01EC5DFB4EE491F0E0EE0FFF1FBA
:10536000EA5EFB4EA591B491B093B604A093B50448
:10537000FC01E950FC4EE491E093BC048C91E09573
:10538000E823EC9395CE8091A5049091A604892BF7
:1053900031F08091BF049091C0040E949A1BE0916B
:1053A000B904F091BA0490818091BE04809589235C
:1053B0008083BFCE8034910509F0F0CE63E080E0B9
:1053C00096E00E948A1A8091AC046FE9813009F05E
:1053D0006FEC8AE894E00E94381BE0CE803691059D
:1053E00009F0DCCE8091900490919104409709F0EF
:1053F000D5CE63E08DEF95E00E948A1A8091AC04CF
:1054000060E1813031F36FEAE4CFE091B904F091CB
:10541000BA0480819091BE04892B8083EDCA0E94DA
:10542000941D70929E0470929F0461E070E08AE87F
:1054300094E00E94371410929D0410929C041092E4
:105440009B0410929A041093970400939604F09290
:105450009904E092980481E691E00E94021EB092C5
:105460009704A0929604109399040093980486E6FA
:1054700091E00E94021E0E949D1B80929E048092D9
:105480009F046FEF70E0892D0E94D70E64E670E0F4
:1054900080E090E00E949C0F93949BE0991510F49B
:1054A00069E0962E88E00E942C0C882309F46BCBCF
:1054B0006A9461102CCB59E1652E0E94941DD09204
:1054C0009D04C0929C04D0929B04C0929A04809246
:1054D0009E0480929F0464E08FE691E00E940F1E7C
:1054E00060E18DE791E00E940F1E6CE18CE891E095
:1054F0000E940F1E66E280EA91E00E940F1E64E3A4
:1055000081EB91E00E940F1E0E949D1B6FED70E0E9
:1055100089E00E94D70E6FED70E08AE00E94D70EFE
:105520006FED70E08BE00E94D70E64E670E080E0E3
:1055300090E00E949C0F88E00E942C0C811110C00A
:105540006FEF70E089E00E94D70E6FEF70E08AE0A5
:105550000E94D70E6FEF70E08BE00E94D70E13CB46
:105560000E949D1B6FEF70E089E00E94D70E6FEFE5
:1055700070E08AE00E94D70E6FEF70E08BE00E942F
:10558000D70E64E670E080E090E00E949C0F88E017
:105590000E942C0C8823A1F26A9461108ECFB5CAA8
:1055A00089E01BCB89E021CB89E027CB113009F0C2
:1055B00033CB0E94941DD0929D04C0929C04D09243
:1055C0009B04C0929A0410939E0410939F0469E177
:1055D00086EC91E00E940F1E68E285ED91E00E944A
:1055E0000F1E0E949D1B68EB7BE080E090E00E9414
:1055F0009C0F0E94941D10CB50E1E52EF12C00E190
:1056000010E023E13BE044E150E0B501625E7F4FF2
:105610008AE894E00E943A1593942AE09212CBCB48
:1056200032E0832E912CC7CB40E1E42EF12C00E137
:1056300010E023EF3AE044E150E0B501625E7F4FB5
:105640008AE894E00E943A1593943AE09312B3CB1F
:1056500088248394E7CF90E1E92EF12C00E110E05B
:1056600023E13BE044E150E0B501625E7F4F8AE810
:1056700094E00E943A159394AAE09A12C9CB02E0F2
:10568000802E912CC5CB80E1E82EF12C00E110E0BA
:1056900023EB3AE044E150E0B501625E7F4F8AE8D7
:1056A00094E00E943A159394BAE09B12B1CB8824FF
:1056B0008394E7CF88E090E025CC80E390E034CC81
:1056C00080E890E041CC1092F4031092F30352CCA6
:1056D0001092250376CCF12CFBE0EF2EA0E8AA2E49
:1056E000B12CB2E07B2E6624639490908E03F91463
:1056F00008F1EBE2EE2EE3E0FE2E00E0BB24B394D3
:105700001091FE03091509F498C0B70183EF93E0E7
:105710000E94211D882349F0B092FD03115010937F
:10572000FE03F701B2860E94581D0F5FFBE0EF0EEB
:10573000F11CE6CF8F2C912CE89C8001E99C100D88
:105740001124055D1C4FD8011A968C911A9782304E
:1057500021F5AD92BC920E94E92F28E230E040E0B2
:1057600050E00E945730685F7F4F8F4F9F4FF80186
:10577000758364830E94E92F24E030E040E050E02C
:105780000E9457306F5F7F4F8F4F9F4FD801199600
:105790007C936E9318971A961C92E89CF001E99CF2
:1057A000F00D1124E55DFC4F8285813009F472868D
:1057B000E89C8001E99C100D1124055D1C4FF80147
:1057C000828581110AC08081918120853185821B6B
:1057D000930B97FD04C091838083F39486CFB182AD
:1057E000A0820E94E92F28E230E040E050E00E94D1
:1057F0005730685F7F4F8F4F9F4FF80175836483E9
:105800000E94E92F24E030E040E050E00E94573051
:105810006F5F7F4F8F4F9F4FD80119967C936E9388
:1058200018971A967C926092FD038091FE03815036
:105830008093FE030E94581DD0CF00E0662463943D
:105840008091F203081708F058C02BE0029FC001B6
:105850001124AC0141575C4F5A017BE2E72E73E003
:10586000F72E812C2A015AE0450E511C891409F4A7
:1058700042C0B701C5010E94211D8823B9F1809162
:10588000050490910604E2E0D201EC93E1E0D70137
:105890001A96EC930A9690930604809305041B30A5
:1058A00014F46092FF0380912603893010F4609213
:1058B000020462E3762E6FE770E089E00E94D70E63
:1058C00061E070E080E090E00E949C0F6FEF70E07C
:1058D00089E00E94D70E7A947110EDCF44E650E033
:1058E00060E070E082E390E00E94B40C8394FBE0FF
:1058F000EF0EF11CBBCF0F5FA3CF17FFEAC00091E3
:1059000005041091060464EF71E080E090E00E94CD
:105910009C0F80913704909138048017910730F4E0
:1059200010933804009337040E94751D77247394F4
:105930003EE1832E912C4CE1A42EB12C53E2E52EB6
:10594000F12C0CE210E00E94941D70929E04709263
:105950009F04D0929D04C0929C04D0929B04C0925C
:105960009A046CE08DEE91E00E940F1E90929704D5
:1059700080929604B0929904A092980487EF91E0E7
:105980000E94021E609105047091060490E080E080
:105990004AE00E94B41DF0929704E092960410939E
:1059A0009904009398048FEF91E00E94021E609189
:1059B00037047091380490E080E04AE00E94B41D02
:1059C0000E949D1B88E00E942C0C8111BCCF10E02E
:1059D0007724739484E1E82EF12C9AE0A92EB12C5F
:1059E00028E2822E912C86E10E942C0C84E10E94F8
:1059F0002C0C082F83E10E942C0C002309F438C2E0
:105A0000882309F437C2113009F034C2D0929D04C2
:105A1000C0929C04D0929B04C0929A0470929E04FF
:105A200070929F042CE030E030939704209396040A
:105A3000109299041092980486E092E00E94021E4F
:105A400040E250E05093970440939604F0929904FA
:105A5000E092980488E192E00E94021E01E010E0CA
:105A600021E130E04EE150E060E270E08AE894E04D
:105A70000E948C19B0929704A09296049092990477
:105A80008092980483E292E00E94021E8CE090E0F3
:105A90009093970480939604A6E3B0E0B0939904A2
:105AA000A093980486E392E00E94021E0E949D1B30
:105AB00010923804109237040E94751D11E086E19F
:105AC0000E942C0C082F0E94941D01118CCF0E9463
:105AD000441E0E94941D10929704109296041092F6
