:100000000C946D090C9495090C9495090C94950920
:100010000C9495090C9495090C9495090C94CC18A2
:100020000C9495090C9495090C9495090C949509D8
:100030000C9495090C9495090C9495090C949509C8
:100040000C944E190C9495090C9495090C949509EF
:100050000C9495090C9495090C9495090C949509A8
:100060000C9498190C949509000103070F1F3F7F0A
:100070000080C0E0F0F8FCFE00000000003E5B4F96
:100080005B3E3E6B4F6B3E1C3E7C3E1C183C7E3CF8
:10009000181C577D571C1C5E7F5E1C00183C180006
:1000A000FFE7C3E7FF0018241800FFE7DBE7FF3096
:1000B000483A060E2629792926407F050507407F04
:1000C00005253F5A3CE73C5A7F3E1C1C08081C1C77
:1000D0003E7F14227F22145F5F005F5F06097F016D
:1000E0007F006689956A606060606094A2FFA29458
:1000F00008047E040810207E201008082A1C080826
:100100001C2A08081E101010100C1E0C1E0C303873
:100110003E3830060E3E0E06000000000000005F74
:1001200000000007000700147F147F14242A7F2A90
:100130001223130864623649562050000807030052
:10014000001C2241000041221C002A1C7F1C2A089E
:10015000083E080800807030000808080808000001
:1001600060600020100804023E5149453E00427F75
:10017000400072494949462141494D331814127FC4
:100180001027454545393C4A494931412111090764
:100190003649494936464949291E000014000000E5
:1001A00040340000000814224114141414140041B7
:1001B00022140802015909063E415D594E7C121174
:1001C000127C7F494949363E414141227F414141AC
:1001D0003E7F494949417F090909013E4141517327
:1001E0007F0808087F00417F41002040413F017F98
:1001F000081422417F404040407F021C027F7F0460
:1002000008107F3E4141413E7F090909063E4151A8
:10021000215E7F09192946264949493203017F0198
:10022000033F4040403F1F2040201F3F4038403F99
:10023000631408146303047804036159494D4300AF
:100240007F4141410204081020004141417F0402E6
:10025000010204404040404000030708002054547D
:1002600078407F284444383844444428384444285B
:100270007F385454541800087E090218A4A49C78AE
:100280007F0804047800447D40002040403D007F0A
:100290001028440000417F40007C047804787C08EA
:1002A0000404783844444438FC18242418182424BE
:1002B00018FC7C08040408485454542404043F44A3
:1002C000243C4040207C1C2040201C3C4030403CD2
:1002D00044281028444C9090907C4464544C440032
:1002E0000836410000007700000041360800020196
:1002F0000204023C2623263C1EA1A161123A404082
:10030000207A3854545559215555794122545478FE
:1003100042215554784020545579400C1E52721297
:100320003955555559395454545939555454580020
:1003300000457C410002457D420001457C407D1224
:1003400011127DF0282528F07C5455450020545486
:100350007C547C0A097F4932494949323A44444431
:100360003A324A4848303A4141217A3A424020786C
:10037000009DA0A07D3D4242423D3D4040403D3C6D
:1003800024FF2424487E4943662B2FFC2F2BFF0992
:1003900029F620C0887E0903205454794100004486
:1003A0007D413048484A32384040227A007A0A0A71
:1003B000727D0D19317D2629292F282629292926E4
:1003C00030484D4020380808080808080808382F29
:1003D00010C8ACBA2F102834FA00007B00000814B3
:1003E0002A142222142A14085500550055AA55AA89
:1003F00055AAFF55FF55FF000000FF00101010FF29
:1004000000141414FF001010FF00FF1010F010F083
:10041000141414FC001414F700FF0000FF00FF1474
:1004200014F404FC141417101F10101F101F1414C0
:10043000141F00101010F0000000001F101010100A
:100440001F10101010F010000000FF1010101010FE
:1004500010101010FF10000000FF140000FF00FF3C
:1004600000001F10170000FC04F4141417101714D8
:1004700014F404F40000FF00F714141414141414FA
:10048000F700F7141414171410101F101F1414146D
:10049000F4141010F010F000001F101F0000001FD7
:1004A00014000000FC140000F010F01010FF10FF0A
:1004B000141414FF141010101F00000000F010FF9F
:1004C000FFFFFFFFF0F0F0F0F0FFFFFF0000000083
:1004D00000FFFF0F0F0F0F0F3844443844FC4A4A07
:1004E0004A347E02020606027E027E0263554941BC
:1004F000633844443C04407E201E2006027E0202F3
:1005000099A5E7A5991C2A492A1C4C7201724C3006
:100510004A4D4D303048784830BC625A463D3E49DD
:100520004949007E0101017E2A2A2A2A2A44445F81
:10053000444440514A444040444A51400000FF0175
:1005400003E080FF000008086B6B08361236243683
:10055000060F090F060000181800000010100030E8
:1005600040FF0101001F01011E00191D1712003C70
:100570003C3C3C000000000000000000230026007E
:100580002900000000080002010000030407000029
:1005900000000000000000000000240027002A00E6
:1005A000DB40A4A62EAFDA0281DA1281DA02818F53
:1005B0002000A1C8D300408DAED580A80000600007
:1005C00000000000000000000000000000E000004B
:1005D000000000000000000000000001E00000003A
:1005E0000000000000000000000001F0000000001A
:1005F00000000000000000000003F0000000000008
:10060000000000000000000007F0000000000000F3
:100610000000000000000007F800000000000000DB
:100620000000000000000FF800000003C0007E0082
:100630000001E0007F0FF800000003C000FE000092
:1006400001E000FFEFF800000003C000FE00000121
:10065000E000FFFFF800000003C000F00000000F02
:10066000007FFE7FC0000003C000F00000000F000C
:100670003FFE7FF83FF1FBCFFCFEF3BC3DEFE01FF8
:10068000FE7FFF7FFBFFDFFEFEFFBC3DEFE01FC6EE
:10069000FFFF7FFBFFDFFEFEFFBC3DEFE00FE3C788
:1006A000FE787BC3DE1EF0FFBC3DEF0007FF87FC3A
:1006B000787BC3DE1EF0F83C3DEF0001FFFFF00049
:1006C0007BC3C01EF0F03C3DEF0001F37FE03FFB39
:1006D000C3CFFEF0F03C3DEF0003E33F807FFBC360
:1006E000DFFEF0F03C3DEF0007E73C00787BC3DE27
:1006F0001EF0F03C3DEF0007FFBE00787BC3DE1E1E
:10070000F0F03C3DEF0007FFFE00787BC3DE1EF0FB
:10071000F03C3DEF000FFFFE007FFBFFDFFEF0F03F
:100720003FFDEFE00FFFFF007FFBFFDFFEF0F03F3C
:10073000FDEFE00FF9FF003E79F9CF9EF0F01F3D8D
:10074000E7E01FF1FF0000000000000000000000D3
:10075000001F80FF007FFFFFFFFFFFFFFFFFFFE0A5
:100760001C007F007FFFFFFFFEB46D888D18E00046
:10077000001F007FFFFFFFFE95AD7DB577E0000015
:100780000F007FFFFFFFFEA5AD9D8D19E000000665
:10079000007FFFFFFFFEB5ADEDB57EE0000000007D
:1007A0000001800000000000000000000380000045
:1007B0000000000000000007C00000000000000072
:1007C000000007C00000000000000000000FC00093
:1007D00000000000000000001FE00000000000001A
:1007E0000000001FE00000000000000000003FE0EB
:1007F0000000000000000000003FF00000000000CA
:10080000000000007FF0000000000000001FF87FE3
:10081000F0000000000000003FFE7FF0000000003C
:100820000000003FFF7FF0000000000000001FFFFD
:10083000FBE0000000000000000FFFF9FFC0000017
:10084000000000000FFFF9FFF800000000000007A3
:10085000FFF1FFFF00000000000003FC73FFFF80BA
:10086000000000000001FE3FFFFF800000000000CC
:1008700000FF1E0FFF000000000000007FFE1FFCB5
:10088000000000000000003FFFFFF8000000000033
:1008900000000FDFFFE0000000000000001F19FF54
:1008A000C0000000000000003F3CFF00000000000E
:1008B0000000007E7CF800000000000000007FFEC9
:1008C0007C0000000000000000FFFFFC00000000B2
:1008D00000000000FFFFFE0000000000000000FF1D
:1008E000FFFE0000000000000001FFEFFE0000001E
:1008F0000000000001FFCFFE000000000000000328
:10090000FF07FE0000000000000003FC07FE0000DF
:10091000000000000003F003FE00000000000000E3
:10092000018000FE000000000000000000007E00CA
:100930000000000000000000003E00000000000079
:10094000000000000C000000000000078000FC0018
:100950000003C0000000078001FC000003C000008D
:1009600000078001FC000003C0000000078001E0D8
:100970000000001E000000078001E00000001E00D3
:100980007FE3F79FF9FDE7787BDFC0FFF7FFBFFD4F
:10099000FDFF787BDFC0FFF7FFBFFDFDFF787BDF4A
:1009A000C0F0F787BC3DE1FF787BDE00F0F787BC45
:1009B0003DE1F0787BDE0000F787803DE1E0787B69
:1009C000DE007FF7879FFDE1E0787BDE00FFF787A1
:1009D000BFFDE1E0787BDE00F0F787BC3DE1E07829
:1009E0007BDE00F0F787BC3DE1E0787BDE00F0F7CE
:1009F00087BC3DE1E0787BDE00FFF7FFBFFDE1E073
:100A00007FFBDFC0FFF7FFBFFDE1E07FFBDFC07CC6
:100A1000F3F39F3DE1E03E7BCFC00000000000000B
:100A20000000000000FFFFFFFFFFFFFFFFFFFFC010
:100A3000FFFFFFFFFD68DB111A31C0FFFFFFFFFD65
:100A40002B5AFB6AEFC0FFFFFFFFFD4B5B3B1A33E6
:100A5000C0FFFFFFFFFD6B5BDB6AFDC00000000015
:100A6000000000000000000000000000200008005E
:100A70000000000000000000000000000000000076
:100A8000000000080000000000000000000000005E
:100A900002800000001000000000002000000000A4
:100AA0000EA0000000000000000000000000000098
:100AB0003A000000000000000000000000000000FC
:100AC00055080000000000000000000000000000C9
:100AD0007440000000000010004000000002000010
:100AE000D000800000000000000000000000004076
:100AF000EA8000000000000000000000000000008C
:100B0000A000000000000000000000000000000045
:100B1000D00880000000000000000000000000007D
:100B2000A400000000000000000000000000000021
:100B3000C00A0000000000000000400000000000AB
:100B40004821000000000000080000200000000014
:100B50004004000040000000000000000000000011
:100B60002000000000000000000000000000000065
:100B70000812000000000440000000000000000017
:100B80000000000000005BB4000000000000000056
:100B90000540000000017D5A8000000000080000B0
:100BA000000000000003EB494000000000000000CE
:100BB00000000000000BBAA41400000000000000B8
:100BC00000000000002ED551000080000000000051
:100BD00000000000001B6A04440000000000000048
:100BE0000000000000FFB550010000000000000000
:100BF00000000000016AAA0220400000000000007E
:100C00000000000002DD554004000000000000006C
:100C10000000000003F54811002000000000000063
:100C20002000000006B6A28420000000000004009E
:100C3000000000000FEA904000900000000000005B
:100C4000000000800DBAA420020440000000000053
:100C50000000000007EA810088400000400000001A
:100C6000000000001EAA2808200400000000000068
:100C7000000000003BB48122800000400000000022
:100C8000000000002ED2104800020000000000000A
:100C900000000000375945000000000000000080FF
:100CA000000000001AC4280000020000000000003C
:100CB000000000002F754280040000000000108436
:100CC000000000003AA800101042000000000000E0
:100CD000000000003FA52400400000000002049036
:100CE000000000006A50004000040000000002A064
:100CF000000000003D888900020200000000008022
:100D0000000000003562000108000000000057F5F7
:100D1000000000005A882000204A000000000080E7
:100D20000000000036A0800002000000000002A0C9
:100D3000000000002D120002110A000000000490C3
:100D4000000000001AC0000044440002000000003F
:100D5000000000002D290400022804000000108477
:100D60000000000015002008211000000100000014
:100D7000000040000CAA000108A80000000000804C
:100D8000000000000A800010044000000000000085
:100D9000000000000551000221300000000000406A
:100DA000000000000A0421081440000000000000B8
:100DB00000000000055080004140000000000000DD
:100DC0000000000001220000008000000000000080
:100DD0000000000002800002090000000000000086
:100DE00000000000005088202202000000000000E7
:100DF000000000000084000002000000000002006B
:100E00000000000000100000880004000000000046
:100E100000000000000900002000000002000000A7
:100E2000000000080002480400000000000000006C
:100E300000000000000082410000000000000000EF
:100E4000000000000000111400000000000000007D
:100E50000000400000000000000000000000000052
:100E6000000000000000000000000000200008005A
:100E70000000000000000000000000000000000072
:100E8000000000080000000000000000000000005A
:100E900002800000001000000000002000000000A0
:100EA0000EA0000000000000000000000000000094
:100EB0003A000000000000000000000000000000F8
:100EC00055080000000000000000000000000000C5
:100ED000744000000000001000400000000200000C
:100EE000D000800000000000000000000000004072
:100EF000EA80000000000000000000000000000088
:100F0000A000000000000000000000000000000041
:100F1000D008800000000000000000000000000079
:100F2000A40000000000000000000000000000001D
:100F3000C00A0000000000000000400000000000A7
:100F40004821000000000000080000200000000010
:100F5000400400004000000000000000000000000D
:100F60002000000000000000000000000000000061
:100F70000812000000000000000000000000000057
:100F80000000000000000000000000000000000061
:100F90000540000000001C1C0000000000080000CC
:100FA00000000000000040014000000000000000C0
:100FB000000000000002000020000000000000000F
:100FC0000000000000080000180080000000000081
:100FD000000000000000000004000000000000000D
:100FE00000000000000000003C8000000000000045
:100FF0000000000000000007FE800000000000006C
:10100000000000000000007FFF80000000000000E2
:1010100000000000010000FFFFC000000000000011
:1010200020000000020003FFF82000000000040080
:101030000000000002000FFCFFA000000000000004
:1010400000000080040017FE801040000000000037
:101050000000000004007FFE80100000400000003F
:10106000000000000800FFE8000800000000000089
:10107000000000000001FF800008004000000000A8
:10108000000000001003FE0000040000000000004B
:1010900000000000100FFC000004000000000080B1
:1010A00000000000000FF00000040000000000003D
:1010B00000000000001FF00000000000000010848D
:1010C00000000000103FE0000000000000000000F1
:1010D00000000000103FC000000400000002049067
:1010E00000000000107F800000040000000002A04B
:1010F00000000000107F00000004000000000080DD
:1011000000000000107E000000000000000057F505
:101110000000000000FE0000000000000000008051
:101120000000000000FD000000040000000002A01C
:101130000000000011FC00001804000000000490F2
:101140000000000001FA0000100000020000000092
:101150000000000009F80007C00804000000108427
:101160000000000001F8000F001000000100000066
:101170000000400007F800FC0010000000000080A4
:101180000000000003F80FF0002000000000000045
:10119000000000000179FF800020000000000040F6
:1011A0000000000000FFFC00000000000000000044
:1011B0000000000000FFF800000000000000000038
:1011C00000000000005F8000000000000000000040
:1011D0000000000000060000000000000000000009
:1011E00000000000000000000002000000000000FD
:1011F00000000000000000000800000000000200E5
:1012000000000000000400001000040000000000C6
:1012100000000000000200000000000002000000CA
:101220000000000800003006000000000000000080
:1012300000000000000007F00000000000000000B7
:10124000000000000000000000000000000000009E
:1012500000004000000000000000000000000380CB
:1012600007E00DB04DB26FD6FBFF0FF807E003C0EB
:101270000E70781E200C200800000000AA5508807F
:10128000451020201040C01810402020451080C07C
:10129000F8C0C0E0F8FFF8E0C0C0F8C0800022004D
:1012A000FF21000102040810204080010204081000
:1012B0002001020408102000000000250028002B57
:1012C00000040404040404040402020202020203EF
:1012D000030303030302B71A6F2111241FBECFEFCC
:1012E000D8E0DEBFCDBF11E0A0E0B1E0E8EFF9E467
:1012F00002C005900D92A235B107D9F722E0A2E510
:10130000B1E001C01D92AF37B207E1F719E0CCE6BA
:10131000D9E004C02197FE010E94B823CB36D10743
:10132000C9F70E94F11A0C94EF240C940000089560
:10133000AF92BF92CF92DF92EF92FF920F931F93E3
:10134000CF93DF936C017B018B01040F151FEB0121
:101350005E01AE18BF08C017D10759F06991D601D8
:10136000ED91FC910190F081E02DC6010995892B4A
:1013700079F7C501DF91CF911F910F91FF90EF9009
:10138000DF90CF90BF90AF90089508950895833077
:1013900081F028F4813099F08230A9F008958730E7
:1013A000A9F08830C9F08430B1F4809180008F7D3D
:1013B00003C0809180008F7780938000089584B56A
:1013C0008F7784BD089584B58F7DFBCF8091B00069
:1013D0008F778093B00008958091B0008F7DF9CF12
:1013E000CF93DF93282F30E0F901EE57FA4F849125
:1013F000F901ED55FD4ED491F901EF53FD4EC49125
:10140000CC23A1F081110E94C709EC2FF0E0EE0F70
:10141000FF1FE858FA4FA591B491EC91ED2381E0BC
:1014200090E009F480E0DF91CF91089580E090E0B2
:10143000FACF1F93CF93DF93282F30E0F901EE57B7
:10144000FA4F8491F901ED55FD4ED491F901EF5316
:10145000FD4EC491CC23A9F0162F81110E94C7091B
:10146000EC2FF0E0EE0FFF1FE954FD4EA591B49173
:101470008FB7F894EC91111108C0D095DE23DC935E
:101480008FBFDF91CF911F910895DE2BF8CFCF93BF
:10149000DF9390E0FC01ED55FD4E24918F539D4E5E
:1014A000FC0184918823D1F090E0880F991FFC0102
:1014B000EA56FA4FA591B491FC01E954FD4EC5914D
:1014C000D491623071F49FB7F8943C91822F80954B
:1014D00083238C93E8812E2B28839FBFDF91CF91AC
:1014E00008958FB7F894EC912E2B2C938FBFF6CFE5
:1014F000CF9380910401853021F08F3F59F1CF9136
:101500000895E5EDF2E1C491C7FDF9CF61E085E012
:101510000E94470ACC2309F48BC0C23009F0A0C056
:101520008091B10087608093B1008BE98093B30014
:1015300081E090E0A0E0B0E080932A0290932B023B
:10154000A0932C02B0932D02809170008260809352
:101550007000D5CF85E080930401E5EDF2E1C49100
:10156000CF3F69F2C13021F150F0C23009F43EC0E2
:10157000C7FDC5CF61E085E00E94470ACECF14BC0D
:1015800015BC84B5826084BD85B5816085BDE6ECFF
:10159000F2E1E491F0E0EE0FFF1FE954FD4E85917A
:1015A0009491E8EAF2E1E491E0932902C0E0AECF41
:1015B0001092800010928100809181008860809359
:1015C000810080918100816080938100E6ECF2E1EE
:1015D000E491F0E0EE0FFF1FE954FD4E85919491E8
:1015E000E8EAF2E1E491E093280290CF1092B00093
:1015F0001092B1008091B00082608093B000809121
:10160000B10081608093B100E6ECF2E1E491F0E09A
:10161000EE0FFF1FE954FD4E8591949190932702A0
:1016200080932602E8EAF2E1E491E09325026ECF8E
:1016300085B5887F856085BD8BE987BD81E090E0B9
:10164000A0E0B0E08093320290933302A093340282
:10165000B093350280916E00826080936E004FCF10
:10166000C130F1F480918100887F83608093810094
:1016700083EC99E0909389008093880081E090E06A
:10168000A0E0B0E080932E0290932F02A09330024E
:10169000B093310280916F00826080936F002FCFF2
:1016A000C23021F0C1112BCF83ECC7CF83EC3ECFEA
:1016B0001F93CF93DF93182FEB0161E00E94470A3D
:1016C000209739F460E0812FDF91CF911F910C9426
:1016D000190ACF3FD10511F461E0F5CFE12FF0E019
:1016E000EE57FA4FE491E33031F140F4E130B1F0DC
:1016F000E230E1F0C038D1057CF7E4CFE73029F1E2
:10170000E83059F1E430B1F7809180008062809335
:101710008000D0938B00C0938A0004C084B5806899
:1017200084BDC7BDDF91CF911F91089584B58062BC
:1017300084BDC8BDF7CF8091800080688093800011
:10174000D0938900C0938800EDCF8091B00080686D
:101750008093B000C093B300E5CF8091B000806269
:101760008093B000C093B400DDCF3FB7F894809170
:10177000FE019091FF01A0910002B091010226B5F7
:10178000A89B05C02F3F19F00196A11DB11D3FBFB9
:10179000BA2FA92F982F8827BC01CD01620F711D88
:1017A000811D911D42E0660F771F881F991F4A9582
:1017B000D1F708958F929F92AF92BF92CF92DF920E
:1017C000EF92FF924B015C010E94B50B6B017C0113
:1017D0000E94B50B6C197D098E099F09683E734004
:1017E00081059105A8F321E0821A9108A108B108AA
:1017F00088EEC80E83E0D81EE11CF11C8114910410
:10180000A104B10429F7FF90EF90DF90CF90BF9033
:10181000AF909F908F9008950895FC016370658B41
:101820008481958126813781613039F0633029F0D8
:101830009187808733872287089531872087938710
:10184000828708952F923F924F925F926F927F927C
:101850008F929F92AF92BF92CF92DF92EF92FF92C0
:101860000F931F93CF93DF93CDB7DEB769970FB672
:10187000F894DEBF0FBECDBF998F888F5B011A0130
:10188000D22E1F830E833701C982DC0158962D9119
:101890003C9159972115310509F004C118968D9195
:1018A0009C911997681779070CF0C0C11A968D9111
:1018B0009C911B97481759070CF0B8C18C2C912CA0
:1018C000FB0126E0C29EE00DF11D1124F987E88797
:1018D0001E161F060CF0AAC1A40193E0440F551F69
:1018E0009A95E1F75D874C87CA01820D931D181602
:1018F00019060CF09BC157968C91811104C05FEAC8
:101900005D1508F4D394A88DB98DED91FC911197D4
:101910000284F385E02DCD010995F5013596F98B0B
:10192000E88BBB82AA82250188E790E08A199B098F
:101930009C0145E0D49E200D311D11243B8B2A8B48
:10194000EA89FB89E40DF51D24913D822C82D12C7E
:10195000C12C622F70E07F876E87E88DF98DA081A2
:10196000B18120FF7CC0F981F13009F069C01C967B
:10197000ED91FC912E813F81A1014C0D5D1DB201C5
:10198000888D998D0995EE85FF85F595E7952E2F24
:101990004FEFC41AD40A6C817D81680D791D7D8357
:1019A0006C8378E0C716D104A1F68FEF481A580A65
:1019B000AA81BB81A80DB91DBB83AA83E889F989D7
:1019C000E415F50509F0BCCF2E813F8126153705BA
:1019D000A9F0A88DB98DED91FC91B981B13009F0D4
:1019E00051C0B5016B5F7F4F0088F189E02D830105
:1019F00028E030E0A101888D998D0995A88DB98DD9
:101A0000ED91FC9111970688F789E02DCD0169963B
:101A10000FB6F894DEBF0FBECDBFDF91CF911F91FF
:101A20000F91FF90EF90DF90CF90BF90AF909F907D
:101A30008F907F906F905F904F903F902F90099480
:101A40001E96ED91FC91EE80FF80840194014C8103
:101A50005D816A817B81888D998D099594CF2E81D6
:101A60003F812615370509F48ECF3981313029F4AD
:101A70001C96ED91FC9193017FCF1E96ED91FC9108
:101A80007301E3CF68857985681979090684F7853C
:101A9000E02D73010C851D859401A101888D998D20
:101AA0000995ACCFF90134969491329745915491B0
:101AB000D91AB7E0DB9E400D511D1124F901259183
:101AC0003491398B288BFA0145905490FA01329663
:101AD00064903196C4903296149131960491398174
:101AE000323008F48AC0E12E012E000CFF08402F8E
:101AF000002E000C550B59874887A88DB98DED91A4
:101B0000FC9111970284F385E02DCD010995B981EF
:101B10008B2E912CE89CC001E99C900DF89C900DB7
:101B20001124FC01EA0DFB1DFF87EE871C82D12CDE
:101B3000712C9B868A869101200F311D07FD3A95F5
:101B40003D8B2C8BA501410F511D17FD5A955F8BC5
:101B50004E8B7C1408F052CF872D90E04885598534
:101B6000480F591F6A857B85469F9001479F300D1E
:101B7000569F300D1124D901A20DB31DBD87AC872E
:101B8000EE85FF85FB83EA83B12CA12C2C893D894E
:101B9000280F391F3B8B2A8B8C818A0DA61408F0E5
:101BA00040C0877041F4C2010196E889F989E40DCB
:101BB000F51DD4902C01D7FE15C0A88DB98DED91DF
:101BC000FC91B981B130F1F40484F585E02D2E81CA
:101BD0003F814A895B896E897F896A0D7B1D888D6B
:101BE000998D0995DD0CEFEFAE1ABE0A2A813B8173
:101BF000280D391D3B832A83CFCF19861886F12CF7
:101C0000E12C7BCF0684F785E02DEE80FF808401F8
:101C100094014C855D856A817B81888D998D0995BC
:101C2000E1CF3C81360D3C83739493CF69960FB618
:101C3000F894DEBF0FBECDBFDF91CF911F910F9102
:101C4000FF90EF90DF90CF90BF90AF909F908F90DC
:101C50007F906F905F904F903F902F900895AF923C
:101C6000BF92CF92EF92FF920F931F93CF93DF9388
:101C7000EC01262F888D998D009709F04FC06A30AE
:101C8000C9F41D861C868C8998E0899F90011124D7
:101C90008E859F85820F931F9F878E8781E090E0BE
:101CA000DF91CF911F910F91FF90EF90CF90BF9058
:101CB000AF9008956D3091F3CC888E898823C1F060
:101CC0008C859D85E6E0CE9E800D911D1124488572
:101CD00059854817590764F44E855F851D861C8613
:101CE000F8E0CF9EC0011124840F951F9F878E8737
:101CF000EA88FB88088919894E855F856C857D8512
:101D0000CE010E94220C2C898C859D8536E0239F74
:101D1000800D911D11249D878C87C0CF6A3069F496
:101D20001D861C86FC013696E4912C898E859F8544
:101D3000E29F800D911D1124AFCF6D3009F4AECF1D
:101D4000FC0134963491631708F4A8CF3196E491DE
:101D5000E61708F4A3CFFC01329645915491E62F83
:101D6000E31BFF0B37E03E9F50013F9FB00C112457
:101D7000A40EB51EF501329634913196E4913323C9
:101D8000A1F1EE2391F1CC88F5013596E4914E89CD
:101D9000442301F10E2E000CFF0BE30FF11DCE9E2C
:101DA000A001CF9E500D11246C857D85460F571FD5
:101DB00068857985641775076CF44E855F851D8687
:101DC0001C860696FC018491C89E400D511D11246D
:101DD0005F874E87EA88FB88088919894E855F8569
:101DE0006C857D85CE010E94220CF5013496E4912C
:101DF0002C898C859D85E29F800D911D11248BCFB0
:101E00006F927F928F929F92AF92BF92CF92DF920A
:101E1000EF92FF920F931F93CF93DF93EC016B012F
:101E20005A0139014801E881F9810284F385E02DE6
:101E30000995E881F9810288F389E02D87019301F2
:101E4000A501B601CE010995A501480D591D4150C6
:101E50005109E881F9810288F389E02D9301B601E7
:101E6000CE010995E881F9810088F189E02D94017E
:101E7000A501B601CE010995C60CD71CB60161506B
:101E80007109E881F9810088F189E02D9401A501AB
:101E9000CE010995E881F9810688F789E02DCE0108
:101EA000DF91CF911F910F91FF90EF90DF90CF9036
:101EB000BF90AF909F908F907F906F9009946F929A
:101EC0007F928F929F92AF92BF92CF92DF92EF92CA
:101ED000FF920F931F93CF93DF935C01EB016A0195
:101EE000490138018701DC01ED91FC91621773070C
:101EF00019F5641675062CF0962D872D3A01C92E1A
:101F0000D82E9601261937092F5F3F4F048CF58D87
:101F1000E02DA301BE01C5010995DF91CF911F916D
:101F20000F91FF90EF90DF90CF90BF90AF909F9078
:101F30008F907F906F9008954615570591F426175E
:101F4000370724F0892D4B01C22FD82F9E01281965
:101F500039092F5F3F4F068CF78DE02DA601B401A4
:101F6000DACF0284F385E02D0995D501ED91FC913E
:101F70000488F589E02D83019401A601BE01C50105
:101F80000995D501ED91FC910688F789E02DC501F1
:101F9000DF91CF911F910F91FF90EF90DF90CF9045
:101FA000BF90AF909F908F907F906F900994EF9229
:101FB000FF920F931F93DC011A960D911C911B97B2
:101FC00018962D913C911997ED91FC9100A0F1A1EB
:101FD000E02D7B0150E040E070E060E009951F914A
:101FE0000F91FF90EF9008954F925F926F927F92C2
:101FF0008F929F92AF92BF92CF92DF92EF92FF9219
:102000000F931F93CF93DF936C012B015A0139017A
:102010004801DC01ED91FC910284F385E02D0995E6
:10202000E201640C751CD601ED91FC91C615D70533
:102030005CF40088F189E02D87019401A501BE01BF
:10204000C60109952196EFCF0688F789E02DC601D4
:10205000DF91CF911F910F91FF90EF90DF90CF9084
:10206000BF90AF909F908F907F906F905F904F90B8
:1020700009948F929F92AF92BF92CF92DF92EF928C
:10208000FF920F931F93CF93DF93EC015B014A0103
:102090006901E881F9810284F385E02D09959501B4
:1020A0002C0D3D1D21503109E881F9810488F58905
:1020B000E02D78018401A401B501CE010995E881E4
:1020C000F9810688F789E02DCE01DF91CF911F912C
:1020D0000F91FF90EF90DF90CF90BF90AF909F90C7
:1020E0008F9009948F929F92AF92BF92CF92DF927E
:1020F000EF92FF920F931F93CF93DF93EC015B015D
:102100004A0169017801E881F9810284F385E02DB3
:102110000995C80CD91C860101501109E881F98183
:102120000488F589E02D9501A401B501CE0109953A
:10213000E881F9810688F789E02DCE01DF91CF9102
:102140001F910F91FF90EF90DF90CF90BF90AF90D5
:102150009F908F900994EF92FF920F931F93DC0151
:10216000ED91FC9100A0F1A1E02D09951F910F9137
:10217000FF90EF9008950F931F93DC01ED91FC9178
:10218000068CF78DE02D09951F910F9108950F93FF
:102190001F93DC01ED91FC91048CF58DE02D0995E8
:1021A0001F910F910895DC01ED91FC910084F18560
:1021B000E02D09943F924F925F926F927F928F929F
:1021C0009F92AF92BF92CF92DF92EF92FF920F93C6
:1021D0001F93CF93DF9300D000D0CDB7DEB75C0163
:1021E0003B016A014901280187E0480E511C93E038
:1021F000559447949A95E1F7CA018E0D9F1D9A83D5
:102200008983F12CE12C312C1C821B828B819C81D7
:1022100087709927330C892B61F4EB81FC8183E073
:10222000F595E7958A95E1F7EE0DFF1DE80DF91D8F
:10223000349037FE0AC021E030E0A6016B817C813A
:10224000660D771DC5010E94D3108B819C8101967C
:102250009C838B8308171907C9F69FEFC91AD90AFF
:10226000E40CF51C89819A81C816D90669F60F908D
:102270000F900F900F90DF91CF911F910F91FF90D2
:10228000EF90DF90CF90BF90AF909F908F907F9016
:102290006F905F904F903F9008952F923F924F9292
:1022A0005F926F927F928F929F92AF92BF92CF92E6
:1022B000DF92EF92FF920F931F93CF93DF9300D0A3
:1022C00000D000D0CDB7DEB73C016A013E832D833C
:1022D000FC82EB825801A41AB50AB7FE03C0B19480
:1022E000A194B1088D809E80861A970A97FE03C03C
:1022F0009194819491088A149B045CF0902F812F13
:102300000D811E819D838E839C2D8D2D6B01692FE8
:10231000782F0C151D055CF09D818E817E836D8369
:10232000692F782F902F812F8601C92ED82E160164
:10233000201A310A2B012D813E81421A530A57FE81
:1023400003C0519441945108710137FE03C03FEF1F
:10235000E31AF30AF594E7948D819E818617970717
:102360005CF5A1E0B0E0BA83A983C016D1064CF1B8
:10237000D301ED91FC910484F585E02D2B813C8106
:10238000A8016D817E818A149B041CF04D815E81C1
:10239000B801C3010995E418F508F7FE0AC02D81BC
:1023A0003E8189819A81280F391F3E832D83E20C5B
:1023B000F31C0F5F1F4FD9CF2FEF3FEF3A832983D5
:1023C000D4CF26960FB6F894DEBF0FBECDBFDF91F7
:1023D000CF911F910F91FF90EF90DF90CF90BF9022
:1023E000AF909F908F907F906F905F904F903F90B5
:1023F0002F900895EF92FF920F931F93CF93DF9347
:10240000EC01EC80FD806E157F050CF070C057FF6D
:1024100004C0240F351F50E040E08E819F81FA01F7
:10242000E20FF31F8E179F071CF49C01241B350B32
:10243000121613060CF05BC0922F842F869586959A
:1024400086958E9DD0018F9DB00D11246A0F7B1F44
:10245000AE8DBF8DA60FB71F477049F188E0841B72
:10246000482F682F70E0FB01E059FF4FE4912817D7
:1024700008F063C0621B71092FEF30E002C0359590
:1024800027956A95E2F7E2230130110539F0B0F1A2
:102490000230110561F58C91E82702C08C91E82B80
:1024A000EC93941720F12C813D81A20FB31FE92FEB
:1024B000E41BE83078F00230110521F58E2F9C9155
:1024C00090959C932C813D81A20FB31F885088303A
:1024D000B0F7E770EE2359F0F0E0E859FF4FE491D0
:1024E00001301105F9F010F10230110519F1DF91F9
:1024F000CF911F910F91FF90EF900895E0958C91EF
:10250000E823CECF81E00115110509F480E0819523
:102510009E2F8C932C813D81A20FB31F9850983031
:10252000C0F7D7CF8C91E82BEC93E1CFE0958C915D
:10253000E823FACF8C91E827F7CF0130110509F491
:10254000ADCFE0F20230110509F4A5CFAE0DBF1DED
:10255000AECF0F931F93CF93DF9377FF04C0260F67
:10256000371F70E060E0DC011496CD91DC91FB0137
:10257000E20FF31FCE17DF071CF49E01261B370B5B
:10258000121613064CF5FA0157FD3796A3E0F595A0
:10259000E795AA95E1F7EC9FD001ED9FB00DFC9F68
:1025A000B00D11246A0F7B1FDC015E96ED91FC914A
:1025B000E60FF71F4770552781E090E001C0880FB4
:1025C0004A95EAF7482F0130110559F0A8F02E0F6F
:1025D0003F1F02301105E1F0DF91CF911F910F9164
:1025E00008952E0F3F1FE217F307B1F38191DF012A
:1025F0001197842B8C93F7CF80952E0F3F1FE217F6
:10260000F30751F39191DF01119798239C93F7CF32
:10261000E217F30709F38191DF01119784278C9367
:10262000F7CF0F931F93FA01DC0155964C91559704
:102630004230E9F04330A1F1413061F514964D91FB
:102640005C91DA01AE1BBF0BFD01E21BF30B77FDC2
:102650000BC0DC0116964D915C916417750724F44C
:10266000AB01BF010E94A9121F910F91089514960A
:102670004D915C91DA01A61BB70BBD016150710948
:10268000DC0116964D915C91DA01AE1BBF0BFD018A
:10269000E21BF30B77FDE8CFAF010E94FA11E4CF04
:1026A00016964D915C91DA01A61BB70BBD016150E6
:1026B0007109CDCF0F931F93FA01DC0155964C9110
:1026C00055974230A9F0433091F1413019F51496F5
:1026D0004D915C91DA01AE1BBF0BFD013197F7FD07
:1026E00004C0AB01BF010E94FA111F910F91089520
:1026F00014964D915C91DA01A61BB70BBD01DC016C
:1027000016964D915C91DA01AE1BBF0BFD0131971E
:10271000621B730BF7FDE9CFDC0116964D915C91BE
:10272000E417F50714F7AF010E94A912DECF169641
:102730004D915C91DA01A61BB70BBD01621B730BB7
:10274000CECFFC0177FD64C080859185681779073D
:102750000CF05EC057FD5CC0828593854817590711
:102760000CF056C085898230B1F0833029F1813078
:1027700041F484819581841B950BAB01BC016150B0
:1027800071092130310509F108F443C022303105C7
:1027900009F463C0089584819581DC01A61BB70B01
:1027A000BD016150710986819781DC01A41BB50BC5
:1027B000AD0141505109E5CF86819781861B970B6A
:1027C000BA01AC0141505109DCCFCA0157FD07964F
:1027D000A3E095958795AA95E1F7A481B5818A9F95
:1027E00090018B9F300D9A9F300D1124620F731F43
:1027F000068CF78DE02DE60FF71F4770552721E077
:1028000030E001C0220F4A95EAF78081822B808355
:102810000895CA0157FD079633E0959587953A9537
:10282000E1F7A481B5818A9F90018B9F300D9A9F1B
:10283000300D1124620F731F068CF78DE02DE60F0B
:10284000F71F4770552781E090E001C0880F4A9537
:10285000EAF7809590818923DACFCA0157FD079660
:1028600023E0959587952A95E1F7A481B5818A9F04
:1028700090018B9F300D9A9F300D1124620F731FB2
:10288000068CF78DE02DE60FF71F4770552721E0E6
:1028900030E001C0220F4A95EAF780818227B7CF46
:1028A00008958EBD00000DB407FEFDCF8EB50895CE
:1028B0008CBD9DBD0895089585ED8093BC008091E9
:1028C000BC0084FDFCCF1092090208952091B20152
:1028D000260F3327331F21323105ECF420910902F2
:1028E000FC0190E080E0243069F082E00895A0913E
:1028F000B2012191AC014E565E4FA40FB52FB11D10
:102900002C930196861798F38091B201680F60931B
:10291000B20180E0089581E00895E0910B0280917A
:102920000A02E81730F4F0E0EE58FE4F808190E0A4
:1029300008958FEF9FEF089590910B0280910A0206
:102940002FEF3FEF981748F4E92FF0E0EE58FE4FD5
:10295000208130E09F5F90930B02C9010895809120
:102960000A0290910B02891B990B0895CF92DF9276
:10297000EF92FF920F931F93CF93DF937C01CB01D4
:102980008A0120913902222389F0EB016B01C40EE8
:10299000D51ECC15DD0569F06991D701ED91FC914B
:1029A0000190F081E02DC7010995F3CF642F0E94BB
:1029B0006614C801DF91CF911F910F91FF90EF90A6
:1029C000DF90CF900895CF93DF931F92CDB7DEB7FE
:1029D0006983209139022223F9F0209136022032B6
:1029E00058F021E030E0FC013383228390E080E066
:1029F0000F90DF91CF91089580913702E82FF0E09A
:102A0000EE5AFE4F998190838F5F809337028093B7
:102A1000360281E090E0ECCF61E0CE0101960E94A9
:102A20006614F7CF2091360281E0213208F044C0CD
:102A3000809109028111FCCF8091380292E090933D
:102A4000090291E0909308029FEF9093D5011092B4
:102A5000F7012093F601A2E5B1E0E6EDF1E090E0A8
:102A6000291331C01092F8019091F801880F892B39
:102A70008093F80180910702813049F51092070296
:102A80008091F8018093BB008091BC0083FDF8CF5A
:102A900085EC8093BC00809109028230E1F3809143
:102AA000D5018F3FB1F08091D5018032A1F08091A6
:102AB000D501803391F084E01092370210923602F3
:102AC0001092390208953D9131939F5FC9CF85EEF1
:102AD000E0CF80E0F1CF82E0EFCF83E0EDCFFF9257
:102AE0000F931F93CF93DF93F82ED92FC62F80918A
:102AF000590290915A02009709F452C020915D0248
:102B000031E030933902209338021092370210924C
:102B10003602DC01ED91FC910190F081E02D60E046
:102B200009950F2D1D2FD1E0FF24F394C150809102
:102B3000590290915A02CF3F61F1D032C8F00E9401
:102B400012158091590290915A0220915D02F092E3
:102B50003902209338021092370210923602DC01BB
:102B6000ED91FC910190F081E02D60E00995D1E0BC
:102B70008091590290915A02F8016491DC01ED9123
:102B8000FC910190F081E02D0995DF5F0F5F1F4FF1
:102B9000CDCFDF91CF911F910F91FF900C94121523
:102BA000E0916902F0916A02908180916F028095B4
:102BB000892380830F2D1D2FC15008F438C0F801E0
:102BC00084912091570230915802232B29F00E94C2
:102BD00051140F5F1F4FF0CF28E030E040E8E09144
:102BE0006502F091660290916D02582F5423D9F03E
:102BF0005081952B9083E0916702F091680290815B
:102C000050916E02952B9083E0916702F0916802DB
:102C1000508190916E029095952390834695215016
:102C20003109E9F6D6CF508190959523E3CFDF9116
:102C3000CF911F910F91FF9008951F93CF93DF9332
:102C4000EC018C8D9D8D009721F1162F28A131E08C
:102C500030933902209338021092370210923602D4
:102C6000DC01ED91FC910190F081E02D60E009958F
:102C70008C8D9D8DDC01ED91FC910190F081E02D1A
:102C8000612F09958C8D9D8DDF91CF911F910C94B3
:102C90001215ACA5BDA59C918AA9809589238C931A
:102CA0008A8D9B8D892B31F0862FDF91CF911F91DB
:102CB0000C94511428E030E080E8A8A5B9A598A9A3
:102CC000462F4823C1F04C91942B9C93AAA5BBA5F9
:102CD0009C9149A9942B9C93AAA5BBA54C9199A919
:102CE000909594239C9386952150310931F7DF917B
:102CF000CF911F9108954C9190959423E6CFEF9238
:102D0000FF920F931F93CF93DF938091590290917D
:102D10005A02892B09F493C02091730230917402F6
:102D2000409175025091760260E074E284EF90E089
:102D30000E946A222051310941095109569547954F
:102D4000379527952093B80065E08EE992E10E94BF
:102D50006F156091410261508DE392E00E941D1653
:102D60002091430230914402C901079697FD0796CE
:102D700023E0959587952A95E1F7209141023091BE
:102D80004202829F8001839F100D929F100D11249B
:102D9000C0915B02D0915C028091590290915A02DD
:102DA0000C0F1D1F009709F489C020915D0231E0CE
:102DB0003093390220933802109237021092360273
:102DC000DC01ED91FC910190F081E02D60E409952A
:102DD000FF24F394EE24E3948091590290915A02D7
:102DE0000C171D0709F442C0BFE1BF15D0F40E94C3
:102DF00012158091590290915A0220915D02E09241
:102E00003902209338021092370210923602DC0108
:102E1000ED91FC910190F081E02D60E40995FF2493
:102E2000F3948091590290915A026991DC01ED91DD
:102E3000FC910190F081E02D0995F394CDCF809124
:102E4000570290915802892B31F080917102909134
:102E500072020E945814E0916B02F0916C02908112
:102E6000809170028095892380836ECF0E94121515
:102E70008091590290915A02892B09F460C02091E7
:102E80007702309178024091790250917A0260E0A5
:102E900074E284EF90E00E946A22205131094109D6
:102EA000510956954795379527952093B800DF919E
:102EB000CF911F910F91FF90EF900895E0916902DB
:102EC000F0916A02808190916F02892B80830C17A8
:102ED0001D0771F289912091570230915802232BDE
:102EE00019F00E945114F3CF28E030E040E8E0915F
:102EF0006502F091660290916D02582F5423D9F02B
:102F00005081952B9083E0916702F0916802908147
:102F100050916E02952B9083E0916702F0916802C8
:102F2000508190916E029095952390834695215003
:102F30003109E9F6CCCF508190959523E3CFE0910C
:102F40006B02F0916C02808190917002892B8083DA
:102F5000AECF1F93CF93DF93EC01162F8C8D9D8DF9
:102F6000892BB1F12EA93FA948AD59AD60E074E2BB
:102F700084EF90E00E946A222051310941095109F1
:102F800056954795379527952093B80066EA111115
:102F900067EACE010E941D168C8D9D8D892B41F113
:102FA0002AAD3BAD4CAD5DAD60E074E284EF90E0E6
:102FB0000E946A22205131094109510956954795CD
:102FC000379527952093B800DF91CF911F910895F1
:102FD0008A8D9B8D892B21F08CA99DA90E94581464
:102FE000EEA5FFA590818BA9809589238083CECF04
:102FF000EEA5FFA580819BA9892B8083E5CF90E07A
:1030000080E00895CF93DF93C3E3D0E0219729F1C7
:103010006FE770E089E00E94580B61E070E080E0AB
:1030200090E00E94DA0B6FEF70E089E00E94580B8D
:103030000E94780A6FE770E08AE00E94580B61E016
:1030400070E080E090E00E94DA0B6FEF70E08AE0C1
:103050000E94580B0E94780AD9CFDF91CF91089532
:10306000CF93C0913A0290E080E00E942222C817DC
:1030700029F06C2F90E080E00E942A22C0913B0250
:1030800081E090E00E942222C81729F06C2F81E095
:1030900090E00E942A228AE392E0CF910895209145
:1030A000430230914402C901079697FD079623E039
:1030B000959587952A95E1F720914102309142023A
:1030C000829FA001839F500D929F500D112470E0AC
:1030D00060E080915B0290915C020C94E8248F92F6
:1030E0009F92AF92BF920F931F93CF93DF93CDB771
:1030F000DEB7A1970FB6F894DEBF0FBECDBF19A201
:10310000423008F44AE08E010F5D1F4F842E912C4F
:10311000B12CA12CA50194010E946A22E62FB901CD
:10312000CA01EA3044F5E05DD801EE938D01232B0E
:10313000242B252B79F790E080E0109769F0FD01B2
:1031400001900020E9F73197AF014A1B5B0BBD01ED
:103150008DE392E00E949809A1960FB6F894DEBF25
:103160000FBECDBFDF91CF911F910F91BF90AF9058
:103170009F908F900895E95CD7CFFC0101900020CB
:10318000E9F73197AF01481B590BBC018DE392E081
:103190000C9498090E94E3241F920F920FB60F928D
:1031A00011242F933F934F935F936F937F938F934C
:1031B0009F93AF93BF93EF93FF9380912A029091D7
:1031C0002B02A0912C02B0912D02892B8A2B8B2BE4
:1031D000D1F190912502E0912602F09127028081A1
:1031E0008927808380912A0290912B02A0912C0242
:1031F000B0912D02181619061A061B069CF4809130
:103200002A0290912B02A0912C02B0912D020197DD
:10321000A109B10980932A0290932B02A0932C025A
:10322000B0932D02FF91EF91BF91AF919F918F913C
:103230007F916F915F914F913F912F910F900FBEB2
:103240000F901F90189580910401E5EDF2E1E49153
:103250009FEF90930401E13051F030F0E23069F0DB
:1032600060E00E94190ADECF10926E00F9CF9091B3
:103270006F009D7F90936F00F3CF909170009D7FC2
:103280009093700091E09093B0009091B100987F7E
:1032900094609093B1001092B300E2CF1F920F920E
:1032A0000FB60F9211242F933F938F939F93AF9359
:1032B000BF938091FA019091FB01A091FC01B09124
:1032C000FD013091F90123E0230F2D3758F50196C8
:1032D000A11DB11D2093F9018093FA019093FB0188
:1032E000A093FC01B093FD018091FE019091FF013C
:1032F000A0910002B09101020196A11DB11D809321
:10330000FE019093FF01A0930002B0930102BF91D0
:10331000AF919F918F913F912F910F900FBE0F9082
:103320001F90189526E8230F0296A11DB11DD2CF3C
:103330001F920F920FB60F9211242F933F934F932A
:103340005F936F937F938F939F93AF93BF93EF930D
:10335000FF938091B900887F803609F44AC0F0F568
:10336000883209F4A7C018F5803109F49BC0B8F47D
:10337000882309F4F9C0883009F494C0FF91EF91D3
:10338000BF91AF919F918F917F916F915F914F917D
:103390003F912F910F900FBE0F901F90189588317D
:1033A00009F488C0803251F78093D50114C080346D
:1033B00009F49DC040F48033B9F38833F9F6809363
:1033C000D50185ECB0C0803509F485C0883509F495
:1033D00096C0883499F60E945C14D0CF883909F4DD
:1033E0008CC038F5883729F050F4883611F08037D2
:1033F00029F683E0809309021092D40157C08838DF
:1034000009F47BC0803919F0803809F0B7CF80917A
:10341000D401803208F071C0E091D40181E08E0FB8
:103420008093D4018091BB00F0E0EC54FE4F808388
:103430003DC0803B39F0E0F4803A09F479C0883A25
:1034400009F09CCF84E0809309021092B30110929E
:10345000B201E0910502F091060209958091B20156
:1034600081110FC081E08093B2011092920109C0D6
:10347000803C09F4A6CF883C09F4A3CF883B09F02F
:103480007DCFE091B30181E08E0F8093B301F0E036
:10349000EE56FE4F80818093BB009091B3018091E6
:1034A000B20129C08091F8018093BB0085EC809324
:1034B000BC0064CF9091F7018091F601981758F500
:1034C000E091F70181E08E0F8093F701F0E0EA527E
:1034D000FE4F8081E9CFE091F70181E08E0F80936C
:1034E000F7018091BB00F0E0EA52FE4F808390919B
:1034F000F7018091F6019817C8F285E8D8CFE091DE
:10350000F70181E08E0F8093F7018091BB00F0E01E
:10351000EA52FE4F80838091080281115CCF81E0E6
:103520008093070284EA8093BC001092090226CFA0
:1035300085EC8093BC00109209028091D401803206
:1035400030F4E091D401F0E0EC54FE4F1082609131
:10355000D40170E0E0910302F091040284EB91E069
:1035600009951092D4010ACF1092D50134CFEDE322
:10357000F2E01382128220E830E03583248380E475
:1035800090E0978386833187208793878287158A87
:10359000158614861786168681E0848B2FEF3FEF01
:1035A000338B228B318B208B868B178A118E108E5A
:1035B00023E131E0318320832CE332E0338F228F0B
:1035C000158E148E178E168E9FEF93A394A394E0FE
:1035D00095A39CE096A396E097A390E594AB85AB6A
:1035E0000895789484B5826084BD84B5816084BD7B
:1035F00085B5826085BD85B5816085BD80916E0091
:10360000816080936E0010928100809181008260C1
:1036100080938100809181008160809381008091FE
:1036200080008160809380008091B10084608093ED
:10363000B1008091B00081608093B00080917A00E9
:10364000846080937A0080917A00826080937A000F
:1036500080917A00816080937A0080917A008068FE
:1036600080937A001092C10080915B0290915C027D
:10367000892B39F10E944F188091430290914402A6
:103680006091410270914202813291050CF0B5C304
:10369000AC014052510957FF02C04F5F5F4F559533
:1036A00047956357710977FF02C06F5F7F4F75952C
:1036B0006795F0E2EF2EF12C03E710E02CEB35E0FC
:1036C000B4C32091430230914402C901079697FD8B
:1036D000079613E0959587951A95E1F72091410299
:1036E00030914202AC01429FC001439F900D529F16
:1036F000900D11240E94BE2390935C0280935B0284
:10370000892B09F0B7CF81E08093510281E090E0EE
:103710009093500280934F0290934E0280934D02FB
:1037200062E08EE00E94470A62E08FE00E94470A52
:1037300062E080E10E94470A62E081E10E94470A5C
:1037400062E087E00E94470A62E088E00E94470A40
:1037500061E089E00E94470A61E08AE00E94470A2E
:1037600061E085E00E94470A6FEF70E089E00E9407
:10377000580B6FEF70E08AE00E94580B80E290E0F7
:1037800090931D0280931C0288E190E090931F02A9
:1037900080931E021092200282E080931B0283E03D
:1037A00090E0909324028093230280E890E090932D
:1037B0001102809310020E94CA2122E330E040E00F
:1037C00050E00E943822685F7F4F8F4F9F4F709369
:1037D0001302609312020E94CA2124E030E040E00C
:1037E00050E00E9438226F5F7F4F8F4F9F4F709342
:1037F0001502609314021092160290E080E00E947D
:10380000222280933A0281E090E00E94222280935B
:103810003B0280913A0290913B02019631F4109262
:103820003B0210923A020E9430188EE00E94F0098A
:10383000892B09F4FCC4B0E82B2E312CC2E38C2E6A
:10384000912CA12CB12CD4E04D2E512C612C712C3B
:10385000C0E2D0E080912002823061F4D0931D025A
:10386000C0931C0288E190E090931F0280931E0297
:10387000109220028EE00E94F009892B59F4809169
:103880001E0290911F02049797FDDCC490931F02C3
:1038900080931E0281E10E94F009892B69F48091D6
:1038A0001E0290911F020496893391050CF0CFC43B
:1038B00090931F0280931E0280E10E94F009892BE1
:1038C00059F480911C0290911D02049797FDC6C483
:1038D00090931D0280931C028FE00E94F009892BB7
:1038E00069F480911C0290911D0204968138910523
:1038F0000CF0B9C490931D0280931C0287E00E94D3
:10390000F009892BB9F480911B02823099F410924E
:103910001B0280911C0290911D02909318028093CB
:10392000170280911E0290911F02089690931A022E
:103930008093190280911B0281110FC080911702A0
:10394000909118020696909318028093170281387E
:1039500091051CF082E080931B0280911602823058
:1039600011F530921102209210020E94CA21A50185
:1039700094010E943822685F7F4F8F4F9F4F709352
:103980001302609312020E94CA21A30192010E94B5
:1039900038226F5F7F4F8F4F9F4F70931502609358
:1039A00014021092160280911602813019F482E0FE
:1039B0008093160280911602811110C0809110022E
:1039C000909111022091140230911502821B930BE9
:1039D00097FD4EC4909311028093100280911B02B8
:1039E000811138C080911602811134C020911002DB
:1039F000309111028091170290911802AC01485F3A
:103A00005F4F4217530734F1281739071CF12091F3
:103A1000190230911A028091120290911302A901A9
:103A20004E5F5F4F48175907ACF0409682179307D7
:103A30008CF082E080931B0281E0809316028091DB
:103A40002102909122020A969093220280932102F1
:103A50000E9402188091200281112EC080911602CE
:103A600081112AC0209110023091110280911C0214
:103A700090911D02AC01485F5F4F42175307E4F07D
:103A800028173907CCF020911E0230911F02809137
:103A9000120290911302A901405F5F4F4817590726
:103AA0005CF04096821793073CF081E080932002FF
:103AB000809316020E9402188091230290912402A2
:103AC00097FF75C064EF71E080E090E00E94DA0B30
:103AD000809121029091220220913A0230913B0282
:103AE0002817390730F490933B0280933A020E94E2
:103AF000301800E310E00E944F1841E050E050936E
:103B0000500240934F0250934E0240934D0285E283
:103B100090E090934A0280934902A0E1B0E0B09314
:103B20004C02A0934B028BE391E00E94BD184DE143
:103B300050E050934A0240934902D0934C02C09304
:103B40004B028AE491E00E94BD18609121027091BD
:103B5000220290E080E04AE00E946F1884E090E04A
:103B600090934A028093490210934C0200934B02B7
:103B700085E491E00E94BD1860913A0270913B0289
:103B800090E080E04AE00E946F180E947F1688E073
:103B90000E94F009892B09F0AECF109222021092F8
:103BA000210283E090E090932402809323020E94FC
:103BB0004F1810924A021092490210924C02109231
:103BC0004B02C0902302D09024020D2C000CEE0872
:103BD000FF084AE0C701B601F7FE0DC06DE28DE3B4
:103BE00092E00E942F0E66277727CB016C197D0982
:103BF0008E099F094AE00E946F18A0E4B0E0B093DC
:103C00004A02A093490210924C0210924B0260911A
:103C100021027091220290E080E04AE00E946F1839
:103C200080912002811113C040911E0250911F0209
:103C300060911C0270911D02A0E1EA2EF12C08E0B7
:103C400010E02EE832E18DE392E00E94DA108091DC
:103C500020028130B1F440911E0250911F02609108
:103C60001C0270911D02F8E0EF2EF12C00E110E033
:103C70002EE732E18DE392E00E94DA1082E0809339
:103C8000200280911B02811113C0409119025091B2
:103C90001A026091170270911802E2E0EE2EF12CE8
:103CA00008E010E02CE732E18DE392E00E94DA10A8
:103CB00080911602811113C040911202509113029B
:103CC000609110027091110230E1E32EF12C00E1BD
:103CD00010E02CE532E18DE392E00E94DA10809151
:103CE0001602813099F440911202509113026091B2
:103CF00010027091110228E0E22EF12C00E110E098
:103D00002EE732E18DE392E00E94DA1060910C021E
:103D100070910D0280910E0290910F020E940D236E
:103D200090E4E92EF12C00E810E02CE53EE050E0B4
:103D300040E08DE392E00E94DA102DEC3CEC4CEC7C
:103D40005DE360910C0270910D0280910E029091E2
:103D50000F020E949B226B017C0120E030E04EEFBD
:103D600052EC0E94082387FDA4C2C0920C02D0929C
:103D70000D02E0920E02F0920F026091000170912C
:103D8000010180910201909103010E940D2380E4C2
:103D9000E82EF12C00E810E02CE53AE050E040E09D
:103DA0008DE392E00E94DA102DEC3CEC4CEC5DE3EC
:103DB00060910001709101018091020190910301D5
:103DC0000E949B226B017C0120E030E0A9010E944F
:103DD000082387FD77C2C0920001D0920101E092D2
:103DE0000201F09203010E947F1680E090E0892B8F
:103DF00009F430CD0E9400002DCDAC014054510992
:103E000057FF02C04F5F5F4F559547956255710947
:103E100077FF02C06F5F7F4F75956795C0E4EC2E0A
:103E2000F12C02E510E02CE937E08DE392E00E94EE
:103E3000DA1082E080935E028091590290915A02DA
:103E4000892B09F4E9C08091430290914402809744
:103E500009F0E0C08CE380935D0210920B02109297
:103E60000A0210923702109236021092090281E083
:103E7000809308021092070261E082E10E94190A11
:103E800061E083E10E94190A8091B9008E7F8093DE
:103E9000B9008091B9008D7F8093B90088E4809348
:103EA000B80085E48093BC0085EC99E0909306020D
:103EB0008093050286EC99E09093040280930302BC
:103EC0008091640287FD1EC061E00E94470A61E0A4
:103ED000809164020E94190A61E070E080E090E045
:103EE0000E94DA0B60E0809164020E94190A6AE085
:103EF00070E080E090E00E94DA0B61E08091640263
:103F00000E94190A8091590290915A02892B09F452
:103F100042C1209173023091740240917502509118
:103F2000760260E074E284EF90E00E946A22205101
:103F300031094109510956954795379527952093A1
:103F4000B80064E088EB95E00E946F156091430231
:103F500061508DE392E00E941D1664E084EB95E0D1
:103F60000E946F1580915E0260E1813009F064E18A
:103F70008DE392E00E941D1664E080EB95E00E94C4
:103F80006F1580914102909142028038910509F0AD
:103F90002DC180914302909144028032910509F035
:103FA00011C164E08CEA95E00E946F1569ED8DE324
:103FB00092E00E941D1680915E0262E2813009F05B
:103FC00061EF8DE392E00E941D1666E080EA95E0C5
:103FD0000E946F158091590290915A02892B09F421
:103FE0001CC1209177023091780240917902509162
:103FF0007A0260E074E284EF90E00E946A2220512D
:1040000031094109510956954795379527952093D0
:10401000B80079CB8DE31FCF61E0809162020E94EE
:10402000470A61E0809163020E94470A8091620220
:10403000082E000C990BFC01EF53FD4EE491F0E0CB
:10404000EE0FFF1FE954FD4E2591349130936A0223
:1040500020936902FC01ED55FD4EE491E0936F025F
:1040600080916302082E000C990BFC01EF53FD4E6A
:10407000E491F0E0EE0FFF1FE954FD4EA591B491DD
:10408000B0936C02A0936B02FC01ED55FD4EE491E0
:10409000E09370028C91E82BEC9380915702909101
:1040A0005802892B09F434C0CFB7F89480910202EA
:1040B000811127C0EBECF2E18491EDEAF2E19491F9
:1040C000E82FF0E0EE0FFF1FEA56FA4FA591B491EA
:1040D000EC91E92321F461E08AE00E94190A61E091
:1040E0008AE00E94470A8CB580618CBD8CB58064E3
:1040F0008CBD61E08DE00E94470A61E08BE00E9488
:10410000470A809102028F5F80930202CFBFD8CE10
:1041100061E0809160020E94470A61E08091610243
:104120000E94470A80916002082E000C990BFC0146
:10413000EF53FD4EE491F0E0EE0FFF1FE954FD4E0A
:10414000259134913093660220936502FC01ED5570
:10415000FD4EE491E0936D0280916102082E000C07
:10416000990BFC01EF53FD4EE491F0E0EE0FFF1FC1
:10417000E954FD4EA591B491B0936802A0936702F3
:10418000FC01ED55FD4EE491E0936E028C91E095BB
:10419000E823EC9395CE8091570290915802892B99
:1041A00031F080917102909172020E945814E09156
:1041B0006B02F0916C02908180917002809589234E
:1041C0008083BFCE8034910509F0F0CE63E089EAA8
:1041D00095E00E946F1580915E026FE9813009F0D1
:1041E0006FEC8DE392E00E941D16E0CE80369105C3
:1041F00009F0DCCE8091430290914402409709F08F
:10420000D5CE63E086EA95E00E946F1580915E024C
:1042100060E1813031F36FEAE4CFE0916B02F0911D
:104220006C02808190917002892B80836CCA70E04F
:1042300060E089E00E94580B70E060E08AE00E9434
:10424000580BF5CF10921F0210921E0223CBA8E349
:10425000B0E0B0931F02A0931E022ECB10921D025D
:1042600010921C0239CB30921D0220921C0246CBC8
:1042700030921102209210020E94CA21A5019401DD
:104280000E943822685F7F4F8F4F9F4F70931302B9
:10429000609312020E94CA21A30192010E94382257
:1042A0006F5F7F4F8F4F9F4F709315026093140283
:1042B00095CB10920C0210920D0210920E021092E9
:1042C0000F025BCD80E090E0A0E0B3E480930001BA
:1042D00090930101A0930201B093030184CD83E187
:1042E00091E090933E0280933D0280915B02909119
:1042F0005C02009711F00C945A2408958F929F92BB
:10430000AF92BF92CF92DF92EF92FF92CF93DF9363
:10431000EC01688179818A819B8161157105810534
:10432000910521F464E279ED8BE597E02DE133EF1F
:1043300041E050E00E94382249015A019B01AC0142
:10434000A7EAB1E40E9457226B017C01ACEEB4EF06
:10435000A50194010E946522C60ED71EE81EF91E13
:10436000F7FE06C081E0C81AD108E10880E8F80A23
:10437000C882D982EA82FB82C701B6019F77DF91AA
:10438000CF91FF90EF90DF90CF90BF90AF909F9034
:104390008F9008958F929F92AF92BF92CF92DF92AB
:1043A000EF92FF92609105017091060180910701E3
:1043B00090910801611571058105910521F464E270
:1043C00079ED8BE597E02DE133EF41E050E00E947D
:1043D000382249015A019B01AC01A7EAB1E40E94CD
:1043E00057226B017C01ACEEB4EFA50194010E9451
:1043F0006522C60ED71EE81EF91EF7FE06C081E034
:10440000C81AD108E10880E8F80AC0920501D092E4
:104410000601E0920701F0920801C701B6019F77FB
:10442000FF90EF90DF90CF90BF90AF909F908F90D4
:10443000089560930501709306018093070190939E
:1044400008010895F999FECF92BD81BDF89A992788
:1044500080B50895262FF999FECF1FBA92BD81BD70
:1044600020BD0FB6F894FA9AF99A0FBE01960895F6
:10447000052E97FB1EF400940E944F2257FD07D093
:104480000E946A2207FC03D04EF40C944F225095F0
:104490004095309521953F4F4F4F5F4F0895909530
:1044A0008095709561957F4F8F4F9F4F08950E9423
:1044B0008C22A59F900DB49F900DA49F800D911DFF
:1044C00011240895B7FF0C9457220E945722821B93
:1044D000930B0895A1E21A2EAA1BBB1BFD010DC070
:1044E000AA1FBB1FEE1FFF1FA217B307E407F507A4
:1044F00020F0A21BB30BE40BF50B661F771F881F80
:10450000991F1A9469F760957095809590959B0115
:10451000AC01BD01CF010895A29FB001B39FC001BE
:10452000A39F700D811D1124911DB29F700D811DDF
:104530001124911D08955058BB27AA270E94B32229
:104540000C947E230E94702338F00E94772320F081
:1045500039F49F3F19F426F40C946D230EF4E09582
:10456000E7FB0C946723E92F0E948F2358F3BA17B7
:10457000620773078407950720F079F4A6F50C9479
:10458000B1230EF4E0950B2EBA2FA02D0B01B9012B
:1045900090010C01CA01A0011124FF27591B99F0B9
:1045A000593F50F4503E68F11A16F040A22F232FC5
:1045B000342F4427585FF3CF469537952795A79515
:1045C000F0405395C9F77EF41F16BA0B620B730BBC
:1045D000840BBAF09150A1F0FF0FBB1F661F771F2D
:1045E000881FC2F70EC0BA0F621F731F841F48F4E2
:1045F000879577956795B795F7959E3F08F0B0CF6B
:104600009395880F08F09927EE0F97958795089551
:104610000E94432308F481E008950E9414236894C3
:10462000B1110C94B22308950E94972388F09F57EC
:1046300098F0B92F9927B751B0F0E1F0660F771FC6
:10464000881F991F1AF0BA95C9F714C0B13091F0BC
:104650000E94B123B1E008950C94B123672F782F05
:104660008827B85F39F0B93FCCF386957795679581
:10467000B395D9F73EF490958095709561957F4FED
:104680008F4F9F4F0895990F0008550FAA0BE0E830
:10469000FEEF16161706E807F907C0F01216130604
:1046A000E407F50798F0621B730B840B950B39F444
:1046B0000A2661F0232B242B252B21F408950A26AA
:1046C00009F4A140A6958FEF811D811D089597F9EA
:1046D0009F6780E870E060E008959FEF80EC0895A8
:1046E00000240A94161617061806090608950024D1
:1046F0000A9412161306140605060895092E03944B
:10470000000C11F4882352F0BB0F40F4BF2B11F4BE
:1047100060FF04C06F5F7F4F8F4F9F4F089557FD1D
:104720009058440F551F59F05F3F71F04795880F1F
:1047300097FB991F61F09F3F79F0879508951216B6
:1047400013061406551FF2CF4695F1DF08C0161662
:1047500017061806991FF1CF869571056105089413
:104760000895E894BB2766277727CB0197F908952A
:10477000EE0FFF1F0590F491E02D09940F931F9306
:10478000CF93DF938230910510F482E090E0E091C6
:104790007D02F0917E0230E020E0B0E0A0E03097B2
:1047A00099F42115310509F44AC0281B390B24302E
:1047B0003105D8F58A819B816115710589F1FB016D
:1047C00093838283FE0111C0408151810281138154
:1047D00048175907E0F04817590799F4109761F006
:1047E00012960C93129713961C933296CF01DF9179
:1047F000CF911F910F91089500937D0210937E0237
:10480000F4CF2115310551F04217530738F0A901B3
:10481000DB019A01BD01DF01F801C1CFEF01F9CF42
:1048200090937E0280937D02CDCFFE01E20FF31FB5
:10483000819391932250310939832883D7CF2091D6
:104840007B0230917C02232B41F420910B013091AB
:104850000C0130937C0220937B022091090130915E
:104860000A012115310541F42DB73EB740910D01E4
:1048700050910E01241B350BE0917B02F0917C02DC
:10488000E217F307A0F42E1B3F0B2817390778F027
:10489000AC014E5F5F4F2417350748F04E0F5F1F86
:1048A00050937C0240937B02819391939FCFF0E0E1
:1048B000E0E09CCFCF93DF930097E9F0FC013297C3
:1048C00013821282A0917D02B0917E02ED0130E050
:1048D00020E01097A1F420813181820F931F209155
:1048E0007B0230917C022817390709F061C0F093F0
:1048F0007C02E0937B02DF91CF910895EA01CE170D
:10490000DF07E8F54A815B819E0141155105B1F74A
:10491000E901FB83EA8349915991C40FD51FEC1734
:10492000FD0761F4808191810296840F951FE90152
:1049300099838883828193819B838A83F0E0E0E07E
:1049400012968D919C9113970097B9F52D913C91FA
:104950001197CD010296820F931F20917B02309117
:104960007C022817390739F6309751F510927E02EC
:1049700010927D02B0937C02A0937B02BCCFD383C4
:10498000C28340815181840F951FC817D90761F4F4
:104990004E5F5F4F88819981480F591F5183408333
:1049A0008A819B81938382832115310509F0B0CFE1
:1049B000F0937E02E0937D029ECFFD01DC01C0CF2B
:1049C00013821282D7CF81E090E0F8940C94EF2408
:1049D000DC0101C06D9341505040E0F7089519E0AB
:1049E000CCE6D9E004C0FE010E94B8232196CD3662
:0849F000D107C9F7F894FFCFCD
:1049F80000000043FF0100000000007F028000006B
:104A08000000002F0E9809FF175B14A1139709D314
:104A180010AB10C710BB104D1197090D0CA9171139
:104A2800135A13F40FD70F5F0F000F47414D45205E
:104A38004F56455200486967682053636F72653A5C
:024A480020004C
:107E0000112484B714BE81FFF0D085E080938100F7
:107E100082E08093C00088E18093C10086E0809377
:107E2000C20080E18093C4008EE0C9D0259A86E02C
:107E300020E33CEF91E0309385002093840096BBD3
:107E4000B09BFECF1D9AA8958150A9F7CC24DD24C4
:107E500088248394B5E0AB2EA1E19A2EF3E0BF2EE7
:107E6000A2D0813461F49FD0082FAFD0023811F036
:107E7000013811F484E001C083E08DD089C08234E0
:107E800011F484E103C0853419F485E0A6D080C0E4
:107E9000853579F488D0E82EFF2485D0082F10E0AE
:107EA000102F00270E291F29000F111F8ED06801E7
:107EB0006FC0863521F484E090D080E0DECF843638
:107EC00009F040C070D06FD0082F6DD080E0C81688
:107ED00080E7D80618F4F601B7BEE895C0E0D1E017
:107EE00062D089930C17E1F7F0E0CF16F0E7DF06D8
:107EF00018F0F601B7BEE89568D007B600FCFDCFD4
:107F0000A601A0E0B1E02C9130E011968C91119780
:107F100090E0982F8827822B932B1296FA010C0160
:107F200087BEE89511244E5F5F4FF1E0A038BF0790
:107F300051F7F601A7BEE89507B600FCFDCF97BE46
:107F4000E89526C08437B1F42ED02DD0F82E2BD052
:107F50003CD0F601EF2C8F010F5F1F4F84911BD097
:107F6000EA94F801C1F70894C11CD11CFA94CF0C13
:107F7000D11C0EC0853739F428D08EE10CD085E9AC
:107F80000AD08FE07ACF813511F488E018D01DD067
:107F900080E101D065CF982F8091C00085FFFCCF94
:107FA0009093C60008958091C00087FFFCCF809118
:107FB000C00084FD01C0A8958091C6000895E0E648
:107FC000F0E098E1908380830895EDDF803219F02E
:107FD00088E0F5DFFFCF84E1DECF1F93182FE3DFCA
:107FE0001150E9F7F2DF1F91089580E0E8DFEE27F6
:047FF000FF270994CA
:027FFE00040479
:0400000300007E007B
:00000001FF