:100000000C94EE070C9416080C9416080C94160821
:100010000C9416080C9416080C9416080C941608E8
:100020000C9416080C9416080C94C8120C943A13ED
:100030000C9416080C9416080C9416080C941608C8
:100040000C9416080C9416080C9416080C941608B8
:100050000C9416080C9416080C9416080C94C30EF5
:100060000C9416080C9416080C9416080C94160898
:100070000C9416080C9416080C9416080C94160888
:100080000C9416080C9416080C9416080C94160878
:100090000C940D0F0C9416080C9416080C9416086A
:1000A0000C9416080C9416080C94160830083308A3
:1000B000220826082C0854085408540837083B081E
:1000C0003F084508490854084F0800000000230075
:1000D000260029002C002F000000000200090F005C
:1000E00000030401000C00000000000000000000FC
:1000F0000000000000000000000000240027002A8B
:10010000002D003000DB40A4A62EAFDA0281DA1207
:1001100081DA02818F2000A1C8D300408DAED58046
:10012000A804080201104080401020408040800850
:100130000204018040201002011080102040402065
:1001400000000000250028002B002E0031000404D0
:100150000404040304050202020204030202020270
:1001600006060606060604040202020404000060F5
:100170000000000000000000000000000000E0009F
:1001800000000000000000000000000001E000008E
:10019000000000000000000000000001F00000006E
:1001A0000000000000000000000003F0000000005C
:1001B00000000000000000000007F0000000000048
:1001C000000000000000000007F800000000000030
:1001D000000000000000000FF800000003C0007ED7
:1001E000000001E0007F0FF800000003C000FE00E7
:1001F0000001E000FFEFF800000003C000FE000077
:1002000001E000FFFFF800000003C000F000000064
:100210000F007FFE7FC0000003C000F00000000F51
:10022000003FFE7FF83FF1FBCFFCFEF3BC3DEFE06B
:100230001FFE7FFF7FFBFFDFFEFEFFBC3DEFE01FE9
:10024000C6FFFF7FFBFFDFFEFEFFBC3DEFE00FE3DD
:10025000C7FE787BC3DE1EF0FFBC3DEF0007FF87C3
:10026000FC787BC3DE1EF0F83C3DEF0001FFFFF0A1
:10027000007BC3C01EF0F03C3DEF0001F37FE03F88
:10028000FBC3CFFEF0F03C3DEF0003E33F807FFB7C
:10029000C3DFFEF0F03C3DEF0007E73C00787BC396
:1002A000DE1EF0F03C3DEF0007FFBE00787BC3DEB2
:1002B0001EF0F03C3DEF0007FFFE00787BC3DE1E22
:1002C000F0F03C3DEF000FFFFE007FFBFFDFFEF094
:1002D000F03FFDEFE00FFFFF007FFBFFDFFEF0F0E0
:1002E0003FFDEFE00FF9FF003E79F9CF9EF0F01FE0
:1002F0003DE7E01FF1FF00000000000000000000EB
:1003000000001F80FF007FFFFFFFFFFFFFFFFFFFD9
:10031000E01C007F007FFFFFFFFEB46D888D18E0BA
:1003200000001F007FFFFFFFFE95AD7DB577E00069
:10033000000F007FFFFFFFFEA5AD9D8D19E00000BF
:1003400006007FFFFFFFFEB5ADEDB57EE0000000CB
:100350000000018000000000000000000003800099
:10036000000000000000000007C0000000000000C6
:1003700000000007C00000000000000000000FC0E7
:100380000000000000000000001FE000000000006E
:10039000000000001FE00000000000000000003F1F
:1003A000E00000000000000000003FF0000000003E
:1003B00000000000007FF0000000000000001FF8B7
:1003C0007FF0000000000000003FFE7FF000000012
:1003D000000000003FFF7FF0000000000000001F51
:1003E000FFFBE0000000000000000FFFF9FFC0006D
:1003F00000000000000FFFF9FFF8000000000000FF
:1004000007FFF1FFFF00000000000003FC73FFFF87
:1004100080000000000001FE3FFFFF8000000000A0
:100420000000FF1E0FFF000000000000007FFE1F05
:10043000FC000000000000003FFFFFF8000000008B
:100440000000000FDFFFE0000000000000001F19A7
:10045000FFC0000000000000003F3CFF0000000063
:10046000000000007E7CF800000000000000007F1B
:10047000FE7C0000000000000000FFFFFC00000008
:100480000000000000FFFFFE000000000000000070
:10049000FFFFFE0000000000000001FFEFFE000073
:1004A000000000000001FFCFFE000000000000007F
:1004B00003FF07FE0000000000000003FC07FE0031
:1004C00000000000000003F003FE00000000000038
:1004D00000018000FE000000000000000000007E1F
:1004E000000000000000000000003E0000000000CE
:1004F00000000000000C000000000000078000FC6D
:10050000000003C0000000078001FC000003C000E1
:100510000000078001FC000003C00000000780010C
:10052000E00000001E000000078001E00000001E47
:10053000007FE3F79FF9FDE7787BDFC0FFF7FFBFA0
:10054000FDFDFF787BDFC0FFF7FFBFFDFDFF787B80
:10055000DFC0F0F787BC3DE1FF787BDE00F0F78776
:10056000BC3DE1F0787BDE0000F787803DE1E0787C
:100570007BDE007FF7879FFDE1E0787BDE00FFF701
:1005800087BFFDE1E0787BDE00F0F787BC3DE1E06E
:10059000787BDE00F0F787BC3DE1E0787BDE00F0A1
:1005A000F787BC3DE1E0787BDE00FFF7FFBFFDE1B0
:1005B000E07FFBDFC0FFF7FFBFFDE1E07FFBDFC0B7
:1005C0007CF3F39F3DE1E03E7BCFC00000000000E4
:1005D000000000000000FFFFFFFFFFFFFFFFFFFF25
:1005E000C0FFFFFFFFFD68DB111A31C0FFFFFFFFF7
:1005F000FD2B5AFB6AEFC0FFFFFFFFFD4B5B3B1A71
:1006000033C0FFFFFFFFFD6B5BDB6AFDC02200FF15
:1006100021000000000000000000000000000000B9
:1006200000002000080000000000000000000000A2
:1006300000000000000000000008000000000000B2
:100640000000000000000280000000100000000018
:100650000020000000000EA00000000000000000CC
:100660000000000000003A00000000000000000050
:10067000000000000000550800000000000000001D
:100680000000000000007440000000000010004066
:10069000000000020000D000800000000000000008
:1006A000000000000040EA800000000000000000A0
:1006B000000000000000A00000000000000000009A
:1006C000000000000000D0088000000000000000D2
:1006D000000000000000A400000000000000000076
:1006E000000000000000C00A000000000000000040
:1006F0004000000000004821000000000000080049
:100700000020000000004004000040000000000045
:1007100000000000000020000000000000000000B9
:10072000000000000000081200000000044000006B
:100730000000000000000000000000005BB40000AA
:100740000000000000000540000000017D5A80000C
:10075000000000080000000000000003EB4940001A
:1007600000000000000000000000000BBAA414000C
:1007700000000000000000000000002ED551000025
:1007800080000000000000000000001B6A0444001C
:100790000000000000000000000000FFB550010054
:1007A00000000000000000000000016AAA022040D2
:1007B0000000000000000000000002DD55400400C1
:1007C0000000000000000000000003F548110020B8
:1007D0000000000000002000000006B6A2842000F7
:1007E000000000000400000000000FEA90400090AC
:1007F000000000000000000000800DBAA4200204E8
:100800004000000000000000000007EA810088406E
:10081000000040000000000000001EAA280820047C
:10082000000000000000000000003BB481228000B6
:10083000004000000000000000002ED2104800021E
:1008400000000000000000000000375945000000D3
:10085000000000000080000000001AC42800000210
:10086000000000000000000000002F75428004001E
:10087000000000001084000000003AA800101042A0
:10088000000000000000000000003FA52400400020
:10089000000000020490000000006A5000400004C4
:1008A0000000000002A0000000003D888900020254
:1008B0000000000000800000000035620001080018
:1008C0000000000057F5000000005A882000204A70
:1008D0000000000000800000000036A08000020040
:1008E0000000000002A0000000002D120002110A0A
:1008F000000000000490000000001AC00000444402
:10090000000200000000000000002D290400022861
:1009100004000000108400000000150020082110D1
:10092000000001000000000040000CAA000108A81F
:10093000000000000080000000000A800010044059
:1009400000000000000000000000055100022130FE
:10095000000000000040000000000A0421081440CC
:100960000000000000000000000005508000414031
:1009700000000000000000000000012200000080D4
:1009800000000000000000000000028000020900DA
:10099000000000000000000000000050882022023B
:1009A00000000000000000000000008400000200C1
:1009B000000000000200000000000010000088009D
:1009C00004000000000000000000000900002000FA
:1009D00000000200000000000008000248040000BF
:1009E0000000000000000000000000008241000044
:1009F00000000000000000000000000011140000D2
:100A000000000000000000004000000000000000A6
:100A100000000000038007E00DB04DB26FD6FBFF71
:100A20000FF807E003C00E70781E200C20080000AD
:100A30000000AA550880451020201040C018104022
:100A40002020451080C0E0F0F8FCFEFFFEFCF8F02E
:100A5000E0C080080B00020202010009040000014E
:100A600002020000052400100105240101010424F4
:100A70000206052406000107058103100040090451
:100A80000100020A000000070502024000000705FD
:100A900083024000000403090412010002EF020176
:100AA00040412336800001010203014172647569EF
:100AB0006E6F204C4C430041726475696E6F204C20
:100AC000656F6E6172646F0000000000003E5B4F56
:100AD0005B3E3E6B4F6B3E1C3E7C3E1C183C7E3C9E
:100AE000181C577D571C1C5E7F5E1C00183C1800AC
:100AF000FFE7C3E7FF0018241800FFE7DBE7FF303C
:100B0000483A060E2629792926407F050507407FA9
:100B100005253F5A3CE73C5A7F3E1C1C08081C1C1C
:100B20003E7F14227F22145F5F005F5F06097F0112
:100B30007F006689956A606060606094A2FFA294FD
:100B400008047E040810207E201008082A1C0808CB
:100B50001C2A08081E101010100C1E0C1E0C303819
:100B60003E3830060E3E0E06000000000000005F1A
:100B700000000007000700147F147F14242A7F2A36
:100B800012231308646236495620500008070300F8
:100B9000001C2241000041221C002A1C7F1C2A0844
:100BA000083E0808008070300008080808080000A7
:100BB00060600020100804023E5149453E00427F1B
:100BC000400072494949462141494D331814127F6A
:100BD0001027454545393C4A49493141211109070A
:100BE0003649494936464949291E0000140000008B
:100BF000403400000008142241141414141400415D
:100C000022140802015909063E415D594E7C121119
:100C1000127C7F494949363E414141227F41414151
:100C20003E7F494949417F090909013E41415173CC
:100C30007F0808087F00417F41002040413F017F3D
:100C4000081422417F404040407F021C027F7F0405
:100C500008107F3E4141413E7F090909063E41514E
:100C6000215E7F09192946264949493203017F013E
:100C7000033F4040403F1F2040201F3F4038403F3F
:100C8000631408146303047804036159494D430055
:100C90007F4141410204081020004141417F04028C
:100CA0000102044040404040000307080020545423
:100CB00078407F2844443838444444283844442801
:100CC0007F385454541800087E090218A4A49C7854
:100CD0007F0804047800447D40002040403D007FB0
:100CE0001028440000417F40007C047804787C0890
:100CF0000404783844444438FC1824241818242464
:100D000018FC7C08040408485454542404043F4448
:100D1000243C4040207C1C2040201C3C4030403C77
:100D200044281028444C9090907C4464544C4400D7
:100D3000083641000000770000004136080002013B
:100D40000204023C2623263C1EA1A161123A404027
:100D5000207A3854545559215555794122545478A4
:100D600042215554784020545579400C1E5272123D
:100D700039555555593954545459395554545800C6
:100D800000457C410002457D420001457C407D12CA
:100D900011127DF0282528F07C545545002054542C
:100DA0007C547C0A097F4932494949323A444444D7
:100DB0003A324A4848303A4141217A3A4240207812
:100DC000009DA0A07D3D4242423D3D4040403D3C13
:100DD00024FF2424487E4943662B2FFC2F2BFF0938
:100DE00029F620C0887E090320545479410000442C
:100DF0007D413048484A32384040227A007A0A0A17
:100E0000727D0D19317D2629292F28262929292689
:100E100030484D4020380808080808080808382FCE
:100E200010C8ACBA2F102834FA00007B0000081458
:100E30002A142222142A14085500550055AA55AA2E
:100E400055AAFF55FF55FF000000FF00101010FFCE
:100E500000141414FF001010FF00FF1010F010F029
:100E6000141414FC001414F700FF0000FF00FF141A
:100E700014F404FC141417101F10101F101F141466
:100E8000141F00101010F0000000001F10101010B0
:100E90001F10101010F010000000FF1010101010A4
:100EA00010101010FF10000000FF140000FF00FFE2
:100EB00000001F10170000FC04F41414171017147E
:100EC00014F404F40000FF00F714141414141414A0
:100ED000F700F7141414171410101F101F14141413
:100EE000F4141010F010F000001F101F0000001F7D
:100EF00014000000FC140000F010F01010FF10FFB0
:100F0000141414FF141010101F00000000F010FF44
:100F1000FFFFFFFFF0F0F0F0F0FFFFFF0000000028
:100F200000FFFF0F0F0F0F0F3844443844FC4A4AAC
:100F30004A347E02020606027E027E026355494161
:100F4000633844443C04407E201E2006027E020298
:100F500099A5E7A5991C2A492A1C4C7201724C30AC
:100F60004A4D4D303048784830BC625A463D3E4983
:100F70004949007E0101017E2A2A2A2A2A44445F27
:100F8000444440514A444040444A51400000FF011B
:100F900003E080FF000008086B6B08361236243629
:100FA000060F090F0600001818000000101000308E
:100FB00040FF0101001F01011E00191D1712003C16
:100FC0003C3C3C0000000000000103070F1F3F7F76
:100FD0000080C0E0F0F8FCFEFB21BB1A11241FBE0C
:100FE000CFEFDAE0DEBFCDBF11E0A0E0B1E0ECE78B
:100FF000F9E402C005900D92A837B107D9F723E0B4
:10100000A8E7B1E001C01D92A130B207E1F717E0F7
:10101000CDEED7E004C02197FE010E947E23CC3E96
:10102000D107C9F70E94CA1A0C94B1240C9400008D
:1010300090E0FC013197EF30F105B0F5EA5AFF4F2F
:101040000C947E23809180008F7703C08091800074
:101050008F7D80938000089580918000877FF9CFF5
:1010600084B58F7702C084B58F7D84BD089580914B
:1010700090008F7707C0809190008F7D03C0809192
:101080009000877F8093900008958091C0008F77B3
:1010900003C08091C0008F7D8093C000089580912F
:1010A000C200877F8093C20008953FB7F894809173
:1010B000E0019091E101A091E201B091E30126B538
:1010C000A89B05C02F3F19F00196A11DB11D3FBF80
:1010D000BA2FA92F982F8827820F911DA11DB11D0E
:1010E000BC01CD0142E0660F771F881F991F4A950A
:1010F000D1F708950895FC016370658B8481958113
:1011000026813781613039F0633029F091878087FB
:1011100033872287089531872087938782870895B0
:101120006F927F928F929F92AF92BF92CF92DF92F7
:10113000EF92FF920F931F93CF93DF93EC014B013C
:101140005A0169013801E881F9810284F385E02DB3
:101150000995E881F9810288F389E02D87019601DC
:10116000A501B401CE010995A501460D571D4150B9
:101170005109E881F9810288F389E02D9601B401D3
:10118000CE010995E881F9810088F189E02D93016C
:10119000A501B401CE010995C80CD91CB601615056
:1011A0007109E881F9810088F189E02D9301A50199
:1011B000CE010995E881F9810688F789E02DCE01F5
:1011C000DF91CF911F910F91FF90EF90DF90CF9023
:1011D000BF90AF909F908F907F906F9009948F9267
:1011E0009F92AF92BF92CF92DF92EF92FF920F93B6
:1011F0001F93CF93DF934C016B015A01E901DC018E
:10120000ED91FC916217730781F40417150724F41C
:101210008B2D5801042F182F0A191B0998012F5FD5
:101220003F4F048CF58DE02D12C04017510709F592
:101230002617370724F48D2D6901C62FD82F9E015C
:101240002C193D092F5F3F4F068CF78DE02D87014C
:10125000A501B601C4010995DF91CF911F910F91AE
:10126000FF90EF90DF90CF90BF90AF909F908F90C6
:1012700008950284F385E02D0995D401ED91FC9148
:101280000488F589E02D9E01A501B601C4010995E8
:10129000D401ED91FC910688F789E02DC401DF911E
:1012A000CF911F910F91FF90EF90DF90CF90BF9063
:1012B000AF909F908F900994EF92FF920F931F939E
:1012C000DC011A960D911C911B9718962D913C915B
:1012D0001997ED91FC9100A0F1A1E02D7B0140E078
:1012E00050E060E070E009951F910F91FF90EF9042
:1012F00008954F925F926F927F928F929F92AF92DA
:10130000BF92CF92DF92EF92FF920F931F93CF93F2
:10131000DF936C012B015A0139014801DC01ED9189
:10132000FC910284F385E02D0995E201640C751CA3
:10133000D601ED91FC91C615D7055CF40088F189C2
:10134000E02D87019401A501BE01C60109952196F2
:10135000EFCF0688F789E02DC601DF91CF911F916D
:101360000F91FF90EF90DF90CF90BF90AF909F9044
:101370008F907F906F905F904F9009948F929F9283
:10138000AF92BF92CF92DF92EF92FF920F931F9393
:10139000CF93DF93EC015B014A016901E881F98198
:1013A0000284F385E02D099595012C0D3D1D2150FA
:1013B0003109E881F9810488F589E02D78018401FB
:1013C000A401B501CE010995E881F9810688F78964
:1013D000E02DCE01DF91CF911F910F91FF90EF9003
:1013E000DF90CF90BF90AF909F908F9009948F9295
:1013F0009F92AF92BF92CF92DF92EF92FF920F93A4
:101400001F93CF93DF93EC015B014A0169017801DF
:10141000E881F9810284F385E02D0995C80CD91C77
:10142000860101501109E881F9810488F589E02DD0
:101430009501A401B501CE010995E881F9810688DD
:10144000F789E02DCE01DF91CF911F910F91FF9091
:10145000EF90DF90CF90BF90AF909F908F900994C6
:101460000895EF92FF920F931F93DC01ED91FC9191
:1014700000A0F1A1E02D09951F910F91FF90EF9031
:1014800008950F931F93DC01ED91FC91068CF78D6D
:10149000E02D09951F910F9108950F931F93DC0183
:1014A000ED91FC91048CF58DE02D09951F910F9124
:1014B0000895DC01ED91FC910084F185E02D099403
:1014C0002F923F924F925F926F927F928F929F9254
:1014D000AF92BF92CF92DF92EF92FF920F931F9342
:1014E000CF93DF9300D000D000D0CDB7DEB72C0172
:1014F0007E836D836A015901C801FC82EB82480139
:10150000841A950A97FE03C091948194910835013D
:101510002D813E81621A730A77FE03C07194619433
:101520007108681479045CF43A2D2B2D5C01832F2B
:10153000922F3D812E81DE82CD82C32ED22EAD81AF
:10154000BE81AA16BB065CF43C2D2D2D6C01832FA9
:10155000922F3D812E81BE82AD82A32EB22E8501B7
:101560002D813E81021B130B1C012C183D0837FEF8
:1015700003C0319421943108780117FF03C03FEF75
:10158000E31AF30AF594E794C816D9062CF08FEF06
:101590009FEF9A83898304C0A1E0B0E0BA83A98356
:1015A0002D813E81A216B30624F1D201ED91FC916A
:1015B0000484F585E02D2B813C816814790424F4A2
:1015C0004D815E81B60103C0A6016D817E81C2019D
:1015D0000995E218F308F7FE06C029813A81C20E88
:1015E000D31EE00EF11E8D819E8101969E838D8318
:1015F000D7CF26960FB6F894DEBF0FBECDBFDF91D2
:10160000CF911F910F91FF90EF90DF90CF90BF90FF
:10161000AF909F908F907F906F905F904F903F9092
:101620002F90089585ED8093BC008091BC0084FDCF
:10163000FCCF1092320208954091B801262F30E07D
:10164000240F311D21323105DCF420913202243087
:10165000C9F4FC0180E090E0861758F43091B8019D
:101660002191DC01A856BE4FA30FB11D2C9301960A
:10167000F3CF8091B801680F6093B80180E00895BE
:1016800081E0089582E0089508950895E091E901C8
:101690008091E801E81730F4F0E0E858FE4F8081CF
:1016A00090E008958FEF9FEF08959091E901809168
:1016B000E801981750F4E92FF0E0E858FE4F208138
:1016C00030E09F5F9093E90102C02FEF3FEFC90127
:1016D00008958091E80190E02091E901821B910931
:1016E0000895CF92DF92EF92FF920F931F93CF93C3
:1016F000DF937C01CB018A0120913302222389F000
:10170000EB016B01C40ED51ECC15DD0569F06991A6
:10171000D701ED91FC910190F081E02DC701099571
:10172000F3CF642F0E941C0BC801DF91CF911F9152
:101730000F91FF90EF90DF90CF900895CF93DF93BC
:101740001F92CDB7DEB76983209133022223D1F0F7
:1017500020915602203240F021E030E0FC0133833A
:10176000228380E090E015C080913402E82FF0E001
:10177000EB5CFD4F998190838F5F8093340280935F
:10178000560205C061E0CE0101960E941C0B81E06B
:1017900090E00F90DF91CF910895FC0177FDB9C0E3
:1017A00080859185681779070CF0B3C057FDB1C0EB
:1017B00082859385481759070CF0089585898230F2
:1017C00079F484819581DC01A61BB70BBD016150C2
:1017D000710986819781DC01A41BB50BAD010EC098
:1017E000833009F084C064277527CA0186279727AC
:1017F0006827792746815781481B590B4150510969
:101800002130310531F048F12230310509F44AC068
:101810000895CA0157FD07969C01A3E035952795C9
:10182000AA95E1F7A481B5812A9FC0012B9F900D55
:101830003A9F900D1124680F791F068CF78DE02DCB
:10184000E60FF71F4770552781E090E001C0880F31
:101850004A95EAF79081892B48C0CA0157FD07963F
:101860009C0193E0359527959A95E1F7A481B58180
:101870002A9FC0012B9F900D3A9F900D1124680F55
:10188000791F068CF78DE02DE60FF71F477055275F
:1018900081E090E001C0880F4A95EAF78095908139
:1018A000892323C0CA0157FD07969C0183E0359523
:1018B00027958A95E1F7A481B5812A9FC0012B9FC6
:1018C000900D3A9F900D1124680F791F068CF78DAB
:1018D000E02DE60FF71F4770552781E090E001C02B
:1018E000880F4A95EAF7908189278083089581308F
:1018F00009F086CF64277527462757276427752761
:1019000084819581DC01A61BB70BBD016150710973
:1019100077CF0895089580E090E008950E94A5246F
:10192000AF92BF92CF92EF92FF920F931F93CF93FC
:10193000DF93EC01262F888D998D009709F040C028
:101940006A3059F41D861C862C898E859F8538E067
:10195000239F800D911D112441C06D3009F4AAC050
:101960008E898823C1F03C898C859D8546E0349F13
:10197000800D911D112448855985481759075CF43D
:101980001D861C868E859F8548E0349F800D911DA5
:1019900011249F878E87EA88FB88088919894E85DC
:1019A0005F856C857D85CC88CE010E944E182C8980
:1019B0008C859D8536E0239F800D911D112442C0AA
:1019C0006A3079F41D861C862C89FC013696E491D8
:1019D0008E859F852E9F800D911D11249F878E8758
:1019E00069C06D3009F466C0FC0134963491631708
:1019F00008F460C03196E491E61708F45BC0FC017E
:101A0000329665917491422F50E0431B510937E0A3
:101A1000349F5001359FB00C1124A60EB71EF5015E
:101A2000329634913196E491332311F0E1110DC0D7
:101A3000F5013496E4912C898C859D85E29F800D7B
:101A4000911D11249D878C8735C0F50135964491F1
:101A50005E89552311F16C89E32FF0E0E40FF11D4D
:101A600047FDFA956E9FD0016F9FB00D11244C85F4
:101A70005D854A0F5B1FE885F985E417F5076CF46F
:101A80001D861C86FC013696E4918E859F856E9F8F
:101A9000800D911D11249F878E87EA88FB88088915
:101AA00019894E855F856C857D85CC88CE010E9425
:101AB0004E18BECF81E090E0DF91CF911F910F9142
:101AC000FF90EF90CF90BF90AF9008950F931F932A
:101AD000CF93DF93DC015596EC915597E23071F08E
:101AE000E330E9F0E13079F5FB0114960D90BC91FB
:101AF000A02DA41BB50BA21BB30B18C0EC01EC81ED
:101B0000FD81E61BF70BBF0161507109EE81FF817A
:101B1000DF01A41BB50BAD01421B530B14C0DA014E
:101B2000EC01EE81FF81E61BF70B3197F7FD0DC04D
:101B3000EC014E815F81E417F5073CF4AF01BD0174
:101B40000E94321702C00E949917DF91CF911F9116
:101B50000F9108950F931F93DC015596EC915597C3
:101B6000E23061F0E33009F1E13081F51496ED9156
:101B7000FC911597E41BF50B319723C0DC011496FB
:101B8000ED91FC911597DF01A61BB70BBD01DC01A0
:101B90001696ED91FC911797DF01A41BB50BAD01D3
:101BA00041505109621B730B11C0FA01DC011696FA
:101BB0004D915C911797DA01A61BB70BBD01621B13
:101BC000730BAB01BF010E9499170CC057FD0AC0EF
:101BD000DC011696ED91FC9117974E175F0714F4F0
:101BE0000E9432171F910F910895CF93DF93282FF2
:101BF00030E0F901E852FF4F8491F901EF5DFE4FAB
:101C0000D491F901E25BFE4FC491CC2391F0811194
:101C10000E941808EC2FF0E0EE0FFF1FE653FF4F75
:101C2000A591B491EC91ED2381E090E021F480E066
:101C300002C080E090E0DF91CF9108951F93CF9391
:101C4000DF93282F30E0F901E852FF4F8491F9012A
:101C5000EF5DFE4FD491F901E25BFE4FC491CC23BE
:101C6000C1F0162F81110E941808EC2FF0E0EE0F42
:101C7000FF1FE05CFE4FA591B4919FB7F89411113E
:101C800004C08C91D095D82302C0EC91DE2BDC935C
:101C90009FBFDF91CF911F910895CF93DF9390E085
:101CA000FC01EF5DFE4F2491FC01E25BFE4F84914D
:101CB000882361F190E0880F991FFC01E950FF4FE4
:101CC000C591D491FC01E05CFE4FA591B4916111E6
:101CD00009C09FB7F8948881209582238883EC916E
:101CE0002E230BC0623061F49FB7F8948881322FA5
:101CF000309583238883EC912E2B2C939FBF06C0B5
:101D00008FB7F894E8812E2B28838FBFDF91CF9176
:101D100008958F929F92AF92BF92CF92DF92EF92EF
:101D2000FF926B017C010E9455084B015C01C114BC
:101D3000D104E104F104F1F00E945508DC01CB016B
:101D400088199909AA09BB09883E9340A105B105E4
:101D500070F321E0C21AD108E108F10888EE880E7C
:101D600083E0981EA11CB11CC114D104E104F1044C
:101D700019F7DDCFFF90EF90DF90CF90BF90AF903D
:101D80009F908F9008951F920F920FB60F9211247B
:101D90002F933F938F939F93AF93BF938091DC01D9
:101DA0009091DD01A091DE01B091DF013091DB0166
:101DB00023E0230F2D3720F40196A11DB11D05C08E
:101DC00026E8230F0296A11DB11D2093DB0180930D
:101DD000DC019093DD01A093DE01B093DF018091DF
:101DE000E0019091E101A091E201B091E30101963F
:101DF000A11DB11D8093E0019093E101A093E20148
:101E0000B093E301BF91AF919F918F913F912F913B
:101E10000F900FBE0F901F9018951F920F920FB644
:101E20000F9211242F933F934F935F936F937F9360
:101E30008F939F93AF93BF93EF93FF938091B900DC
:101E4000887F803609F49CC068F5883209F45BC04D
:101E500090F4803109F454C038F4882309F4F6C0B2
:101E6000883009F44DC0F6C0883109F44CC0803286
:101E700009F45DC0EFC0803409F468C048F48033D1
:101E800009F455C0883309F0E5C080933002D8C00A
:101E9000803509F44FC0883509F45DC0883409F0F5
:101EA000D9C0D6C0883909F4C7C0A8F4883709F466
:101EB00067C038F4883609F463C0803709F460C01D
:101EC000C9C0883809F4B8C0803909F45FC08038C7
:101ED00009F0C0C05BC0803B09F486C038F4803A8A
:101EE00009F466C0883A09F47FC0B4C0803C09F4A4
:101EF000A7C0883C09F4A4C0883B09F48AC0AAC0E2
:101F000080910D0210C090912F0280912E0298179F
:101F100070F5E0912F0281E08E0F80932F02F0E0A8
:101F2000E25FFD4F80818093BB0085EC86C080938B
:101F300030028EC0E0912F0281E08E0F80932F023D
:101F40008091BB00F0E0E25FFD4F808390912F0213
:101F500080912E026EC0E0912F0281E08E0F80935F
:101F60002F028091BB00F0E0E25FFD4F8083809103
:101F7000310281116DC081E080930C0284EA61C05E
:101F800083E0809332021092DA01CFCF8091DA01A0
:101F9000803208F051C0E091DA0181E08E0F809329
:101FA000DA018091BB00F0E0E654FE4F8083BDCFA4
:101FB00085EC8093BC00109232028091DA0180326D
:101FC00030F4E091DA01F0E0E654FE4F10826091C7
:101FD000DA0170E0E091E401F091E5018AEB91E033
:101FE00009951092DA0136C084E080933202109293
:101FF000B9011092B801E091E601F091E70109956D
:102000008091B801811105C081E08093B8011092E0
:102010009801E091B90181E08E0F8093B901F0E061
:10202000E856FE4F80818093BB009091B90180916A
:10203000B801981708F479CF85E88093BC000AC0EE
:1020400085EC8093BC001092320204C010923002E2
:102050000E94120BFF91EF91BF91AF919F918F91D1
:102060007F916F915F914F913F912F910F900FBE94
:102070000F901F90189508958EBD00000DB407FEB7
:10208000FDCF8EB508951F93CF93DF93FC01848D10
:10209000958D009729F1162FEF0120A131E03093A3
:1020A0003302209355021092340210925602DC0142
:1020B000ED91FC910190F081E02D60E009958C8D0F
:1020C0009D8DDC01ED91FC910190F081E02D612F5F
:1020D00009958C8D9D8DDF91CF911F910C942116C8
:1020E000A4A5B5A59C9182A9809589238C93828D06
:1020F000938D892B31F0862FDF91CF911F910C9416
:102100003C1028E030E080E8A0A5B1A590A9462FBA
:10211000482319F04C91942B03C04C919095942333
:102120009C93A2A5B3A54C9191A9942B9C93A2A595
:10213000B3A54C9191A9909594239C938695215099
:10214000310911F7DF91CF911F9108958CBD9DBD8D
:1021500008951F93CF93DF93EC01162F8C8D9D8DE7
:10216000892BB1F02EA93FA948AD59AD60E074E2CA
:1021700084EF90E00E944D23DA01C9014097A10944
:10218000B109B695A795979587958093B8000FC02C
:102190008A8D9B8D892B21F08CA99DA90E94A61068
:1021A000EEA5FFA590818BA98095892380831111CD
:1021B00002C066EA01C067EACE010E9443108C8D1E
:1021C0009D8D892BB1F02AAD3BAD4CAD5DAD60E08E
:1021D00074E284EF90E00E944D23DA01C901409738
:1021E000A109B109B695A795979587958093B800F1
:1021F00006C0EEA5FFA590818BA9892B8083DF9176
:10220000CF911F910895CF93DF931F92CDB7DEB783
:102210006983DC01ED91FC910280F381E02D41E0C6
:1022200050E0BE016F5F7F4F09950F90DF91CF9116
:10223000089583E08093E9008091F200882319F0EB
:102240008AE38093E8000895FC018485958597FDD5
:102250000BC09FB7F89482E08093E9008091F20070
:102260009FBF90E0019608959FB7F89482E0809315
:10227000E9008091F2009FBF90E00895409106022E
:102280005091070220910402309105024217530732
:10229000B4F49091E8009570E1F39091E80092FD1C
:1022A00019C08093F1008091060290910702019677
:1022B0008F739927892B19F48EEF8093E800809112
:1022C00006029091070201969093070280930602FE
:1022D00081E0089580E00895DF92EF92FF920F93DE
:1022E0001F93CF93DF93D82E8A017B01E40EF51E56
:1022F000EB01CE15DF0571F0D7FE03C0FE0184911E
:1023000001C088810E943E1121968111F2CF8FEF8A
:102310009FEF01C0C801DF91CF911F910F91FF90F6
:10232000EF90DF900895615030F02091F100FC01B2
:1023300020830196F8CF289884E680930A020895B6
:10234000CF92DF92EF92FF920F931F93CF93DF9381
:102350006C017A018B01C0E0D0E0CE15DF0581F081
:10236000D8016D918D01D601ED91FC910190F08124
:10237000E02DC6010995892B11F02196EECF7E0143
:10238000C701DF91CF911F910F91FF90EF90DF90E8
:10239000CF9008958F929F92AF92BF92CF92DF928B
:1023A000EF92FF920F931F93CF93DF936C017B010A
:1023B0008A0180910B01882309F45CC080910B0293
:1023C000882309F457C08091030280FF05C08091E3
:1023D000E00082608093E000E801B12C8AEFA82E33
:1023E00093E0892E2AE3922E209711F4BB20D9F195
:1023F0000E94961A81110AC0AA94AA20D9F161E01C
:1024000070E080E090E00E94890EEECF282F30E04F
:10241000C217D3070CF48C2F9FB7F8948092E90071
:102420002091E80025FF1DC0282F30E0C21BD30BF0
:10243000F701815020F041914093F100FACFE20E74
:10244000F31EBB2019F09092E8000AC08091E800CA
:1024500085FD07C09092E800BB24B394209709F053
:10246000B12C9FBFC1CF5D9884E6809309021016FE
:10247000110644F081E090E0F6019383828380E0CE
:1024800090E001C0C801DF91CF911F910F91FF90A3
:10249000EF90DF90CF90BF90AF909F908F90089576
:1024A0000E94961A90E008950F931F93CF93DF93A5
:1024B0001F92CDB7DEB78C01FC018485958597FF0F
:1024C0000EC0CE0101960E94681A019719F4898105
:1024D00090E002C08FEF9FEFF80195878487F801A5
:1024E000848595850F90DF91CF911F910F9108956D
:1024F000CF93DF931F92CDB7DEB7FC01848595851E
:1025000097FD05C02FEF3FEF358724870BC0CE0125
:1025100001960E94681A019719F4898190E002C01F
:102520008FEF9FEF0F90DF91CF9108950F931F933F
:10253000CF93DF931F92CDB7DEB782E0898342E469
:1025400050E063E57AE080E80E946C110E94A71ACF
:10255000DC0112960D911C9113970115110589F05C
:10256000D801ED91FC910280F381E02DBE016F5FF7
:102570007F4FC801099597FD04C0F80100851185BA
:10258000ECCF89810F90DF91CF911F910F9108952A
:102590001F920F920FB60F9211248F939F938091E9
:1025A000E1009091E100937F9093E10083FF0FC0E1
:1025B0001092E90091E09093EB001092EC0092E30E
:1025C0009093ED0010920B0298E09093F00082FF40
:1025D00020C093E09093E9009091F200992319F0C4
:1025E0009AE39093E80090910902992339F0909131
:1025F0000902915090930902992389F190910A025E
:10260000992339F090910A02915090930A029923EC
:1026100041F184FF10C08091E2008E7E8160809342
:10262000E2008091E1008F7E8093E10080910302BF
:102630008E7E806111C080FF16C08091E2008E7E88
:1026400080618093E2008091E1008E7E8093E100C2
:10265000809103028E7E81608093030204C05D9AA4
:10266000CDCF289AD6CF9F918F910F900FBE0F900C
:102670001F9018951F920F920FB60F921124CF92B0
:10268000DF92EF92FF920F931F932F933F934F93FD
:102690005F936F937F938F939F93AF93BF93EF93CA
:1026A000FF93CF93DF93CDB7DEB76C97DEBFCDBF7F
:1026B0001092E9008091E80083FFFBC168E0CE0141
:1026C00045960E94931182EF8093E8008D8987FFE1
:1026D00005C09091E80090FFFCCF03C09EEF90935F
:1026E000E800982F907609F0C6C09E894F89588DD2
:1026F0002F89F88C91110CC0803829F48091020246
:102700008093F10002C01092F1001092F10045C1D7
:10271000913051F4811141C14130510509F03DC161
:10272000809102028D7F0BC0933061F4811135C11D
:102730004130510509F031C18091020282608093DD
:1027400002022BC1953049F48091E80080FFFCCF54
:10275000822F80688093E30020C1963009F05EC02C
:102760000B8D1C8D22E01092E9001092070210924E
:102770000602F21232C010920502109204020E9468
:10278000961299E0BE016F5F7F4FDB01E92F1D922A
:10279000EA95E9F79983FA8291E09E8390EA988717
:1027A0009AEF99872091060230910702275F3F4FE9
:1027B0003C832B838D831092E900109207021092C4
:1027C0000602109305020093040249E050E080E005
:1027D0000E946C110E949612E0C0109305020093B3
:1027E00004020E94A71ADC0112960D911C91139706
:1027F0000115110509F4BBC0D801ED91FC910480CD
:10280000F581E02DBE016B5E7F4FC80109950097F1
:1028100009F0C7C0F80100851185EACF973009F4A7
:1028200045C1983021F481E08093F100B6C0993021
:1028300009F0B3C0837009F039C1E7E1F1E081E04C
:1028400031E096E32081211109C08EE78093EA00F0
:102850001092EA008F8980930B029FC08093E90059
:102860003093EB0021912093EC009093ED008F5F6B
:10287000873041F7EACF8B8D9C8D1092E900109242
:102880000702109206029093050280930402898D3C
:10289000811153C08E899D89913A49F4813209F0A2
:1028A00005C147E050E064E071E080E0BBC09132D8
:1028B00009F0FCC0833269F48F89988DA0E0B0E004
:1028C0008093000190930101A0930201B093030152
:1028D00064C0803269F48091E80082FFFCCF67E039
:1028E00084E091E00E9493118BEF8093E80055C043
:1028F000823209F052C08F8980930B01EEEFFFE71F
:10290000859194918B3F9C4D19F0E0E0F8E002C076
:10291000EEEFFAE08091040190910501A09106018B
:10292000B0910701803B9440A105B10509F09EC01C
:1029300080910B0180FF79C099C00E94A71AFC0109
:10294000028113810115110509F4B0C0D801ED9180
:10295000FC910190F081E02DBE016B5E7F4FC801BC
:10296000099581111AC0F80100851185EBCFF1E0BE
:10297000FF1609F44EC0F3E0FF1298C08F89882338
:1029800009F44AC0823089F440E860E187EB9AE0BC
:102990000E94C621882309F489C08EEF8093E80045
:1029A00088C018161906CCF381C0813029F440E89C
:1029B0006BE08BEA9AE0ECCF833009F077C00E949D
:1029C000A71ADC011296ED90FC9013978E010F5F11
:1029D0001F4F6801E114F10479F0D701ED91FC91EA
:1029E0000680F781E02DB801C7010995080F111D78
:1029F000F701E084F184EECFD8011C92F60101903A
:102A00000020E9F73197BF016C197D0940E0C6014C
:102A1000BFCF69E97AE002C065E97AE0FB01449141
:102A200050E080E80E946C11B8CFEE3F2AE0F20738
:102A300051F0808191818737A7E79A0721F0909321
:102A4000FF0A8093FE0A87E797E79183808380914E
:102A50006000809308029BE088E10FB6F894A89587
:102A6000809360000FBE9093600097CF808191812A
:102A70008737974709F091CFA895809160008861CA
:102A8000809360008091080280936000EE3FBAE07E
:102A9000FB0739F08091FE0A9091FF0A91838083B1
:102AA0007CCF1092FF0A1092FE0A77CF81E28093CA
:102AB000EB006C960FB6F894DEBF0FBECDBFDF9172
:102AC000CF91FF91EF91BF91AF919F918F917F91A6
:102AD0006F915F914F913F912F911F910F91FF90B7
:102AE000EF90DF90CF900F900FBE0F901F90189532
:102AF00020915D0230915E02C901079697FD07960D
:102B000023E0959587952A95E1F720915B02309116
:102B10005C02829FA001839F500D929F500D112453
:102B200060E070E080917502909176020C94AA2486
:102B30003F924F925F926F927F928F929F92AF924D
:102B4000BF92CF92DF92EF92FF920F931F93CF939A
:102B5000DF93CDB7DEB728970FB6F894DEBF0FBE70
:102B6000CDBF4C017E836D832A013901C8010796D0
:102B700097FD07969C0193E0359527959A95E1F787
:102B80003C832B83A12CB12CC12CD12C312CC20124
:102B90008C0D9D1D9A838983CE14DF04D4F518868D
:102BA0001F822F813885201731075CF5C901877096
:102BB0009927892B11F0330C0EC0EF81F885F7FDB2
:102BC000379683E0F595E7958A95E1F7EA0DFB1DC9
:102BD000E60DF71D349037FE0DC021E030E049814D
:102BE0005A816D817E818F819885680F791FC4011C
:102BF0000E94590A2F8138852F5F3F4F38872F83D6
:102C0000D0CF3FEFC31AD30A8B819C81A80EB91E87
:102C1000BECF28960FB6F894DEBF0FBECDBFDF91B2
:102C2000CF911F910F91FF90EF90DF90CF90BF90C9
:102C3000AF909F908F907F906F905F904F903F905C
:102C4000089530915602313208F04BC08091320223
:102C50008111FCCF9091550222E02093320221E0B5
:102C6000209331022FEF2093300210922F023093E5
:102C70002E02E5E3F2E0AEE0B2E020E0321721F010
:102C800041914D932F5FFACF10920D0220910D02CA
:102C9000990F922B90930D0290910C02913061F458
:102CA00010920C0290910D029093BB009091BC0089
:102CB00093FDF8CF95EC01C095EE9093BC009091F8
:102CC00032029230E1F3909130029F3F79F080918F
:102CD0003002803241F080913002803331F084E064
:102CE00005C081E003C082E001C083E0109234029D
:102CF00010925602109233020895DF92EF92FF92E3
:102D00000F931F93CF93DF93D82ED92FC62F809187
:102D1000730290917402009709F454C020917702D5
:102D200031E0309333022093550210923402109216
:102D30005602DC01ED91FC910190F081E02D60E004
:102D40000995ED2CFD2E11E0D1E080917302909158
:102D50007402CC2371F11032C8F00E9421168091C8
:102D60007702D0933302809355021092340210926E
:102D700056028091730290917402DC01ED91FC91F6
:102D80000190F081E02D60E0099511E080917302DF
:102D900090917402F7016491DC01ED91FC91019036
:102DA000F081E02D09951F5FC150BFEFEB1AFB0AC0
:102DB000CCCFDF91CF911F910F91FF90EF90DF90DB
:102DC0000C942116E0918302F0918402908180910D
:102DD00089028095892380830D2D1D2FCC2309F432
:102DE00039C0F80184912091710230917202232B35
:102DF00031F00E943C10C1500F5F1F4FEFCF28E011
:102E000030E040E8E0917F02F091800290918702EB
:102E1000582F542319F05081952B03C05081909561
:102E200095239083E0918102F091820250819091EC
:102E30008802952B9083E0918102F091820250816B
:102E40009091880290959523908346952150310961
:102E5000C9F6D1CFDF91CF911F910F91FF90EF90E5
:102E6000DF9008950F931F93CF93DF9377FF04C0F4
:102E7000260F371F60E070E0DC011496CD91DC91E5
:102E80001597FB01E20FF31FCE17DF071CF49E011D
:102E9000261B370B121613060CF046C0FA0157FD1D
:102EA0003796DF01E3E0B595A795EA95E1F7AC9F8A
:102EB000F001AD9FF00DBC9FF00D11246E0F7F1F30
:102EC000DC015E96ED91FC915F97E60FF71F47706E
:102ED000552781E090E001C0880F4A95EAF7482F16
:102EE0000130110539F078F002301105E9F42E0FA8
:102EF0003F1F13C02E0F3F1FE217F307A9F0808179
:102F0000842B8193F9CF80952E0F3F1FE217F30793
:102F100059F0908198239193F9CFE217F30721F0AC
:102F2000808184278193F9CFDF91CF911F910F91F9
:102F30000895EF92FF920F931F93CF93DF93EC01CD
:102F400077FDA5C0EC80FD806E157F050CF09FC05D
:102F500057FF04C0240F351F40E050E08E819F8151
:102F6000FA01E20FF31F8E179F071CF49C01241B2C
:102F7000350B121613060CF08AC0922F842F8695FB
:102F8000869586958E9DD0018F9DB00D11246A0F78
:102F90007B1FAE8DBF8DA60FB71F4770B1F188E0C4
:102FA000841B482F682F70E0FB01E053F04FE49141
:102FB000281798F4621B71092FEF30E002C0359595
:102FC00027956A95E2F7E2230130110549F078F080
:102FD0000230110509F05BC00EC00130110519F473
:102FE0008C91E82B0AC00130110508F049C0E0952A
:102FF0008C91E82302C08C91E827EC93941708F495
:1030000046C02C813D81A20FB31FE92FE41BE8309D
:10301000F8F00230110561F48E2F9C9190959C93ED
:103020002C813D81A20FB31F88508830B0F70FC0AC
:1030300081E00115110509F480E081959E2F8C93A4
:103040002C813D81A20FB31F98509830C0F7E770D4
:10305000EE23E9F0F0E0E853F04FE4910130110580
:1030600039F048F00230110591F48C91E82706C040
:103070008C91E82B03C0E0958C91E823EC9307C07A
:103080000230110509F4B7CFAE0DBF1DBECFDF91E1
:10309000CF911F910F91FF90EF9008952F923F9243
:1030A0004F925F926F927F928F929F92AF92BF9258
:1030B000CF92DF92EF92FF920F931F93CF93DF9304
:1030C000CDB7DEB76B970FB6F894DEBF0FBECDBF9E
:1030D0009B8F8A8F5B011A01D22E1F830E833701CB
:1030E000C982DC0158962D913C91599721153105E3
:1030F00009F0E6C018968D919C9119976817790789
:103100000CF0CDC11A968D919C911B9748175907C9
:103110000CF0C5C18C2C912CFB0126E0C29EE00D69
:10312000F11D1124FB87EA871E161F060CF0B7C19C
:10313000A40183E0440F551F8A95E1F75D874C8712
:10314000CA01820D931D181619060CF0A8C15796D6
:103150008C91811104C05FEA5D1508F4D394AA8DA7
:10316000BB8DED91FC9111970284F385E02DCD018B
:103170000995B5E0DB9EC0011124F5013596FF8766
:10318000EE87BB82AA8225019C012A193B09398B53
:10319000288BA101485F5F4F5B8B4A8BE889F989D7
:1031A000E40DF51DE853F54F5491588761013D82B8
:1031B0002C82888580FF13C0AA8DBB8DED91FC9178
:1031C000B981B13031F40484F585E02D2E813F8141
:1031D00016C00684F785E02DEE80FF801AC0EE81D0
:1031E000FF81E615F705F1F0AA8DBB8DED91FC91FD
:1031F000B981B13051F40484F585E02D9301A60125
:10320000B2018A8D9B8D09950DC00684F785E02D4E
:103210007301840194014C815D816A817B818A8D77
:103220009B8D0995E885E695E887FFEFCF1ADF0AC1
:103230002C813D81280D391D3D832C834A895B8972
:10324000C416D50609F0B5CF5FEF451A550A8A8135
:103250009B81880D991D9B838A83AE85BF854A1605
:103260005B0609F09BCFEE81FF81E615F70509F4B7
:10327000F4C0EA8DFB8DA081B181F981F13079F440
:10328000B5016B5F7F4F5096ED91FC915197830193
:1032900028E030E0A1018A8D9B8D0995DEC06A850A
:1032A0007B85681979091E96ED91FC911F97730132
:1032B0000C851D859401A1018A8D9B8D0995CDC03A
:1032C000F9013496E491DE1AF901329685919491D0
:1032D000B7E0DB9E800D911D1124F90125913491F9
:1032E0003B8B2A8BFC01259134912901FC013296FC
:1032F000C490319634913E87329614913196D49091
:103300004981423058F0612E012E000C77088D2D36
:103310000D2C000C990B9987888704C01986188694
:10332000612C712CAA8DBB8DED91FC9111970284BB
:10333000F385E02DCD010995B9818B2E912C689CE8
:10334000C001699C900D789C900D1124FC01EA0D40
:10335000FB1DFD87EC871A82712C612CE12F110F68
:10336000FF0B95012E0F3F1F3B872A87AC0CB11C2A
:10337000A5014E0F5F1F5F8B4E8BC1018D0D911DFF
:10338000D7FC9A95998F888F9E85691608F065C03D
:10339000862D90E048855985480F591F489D90011A
:1033A000499D300D589D300D1124D101A20FB31F3E
:1033B000B98BA88BEC85FD85FD83EC83AA84BB8447
:1033C000DA80FA85DF1A288D398D280F391F3D8B59
:1033D0002C8B8D2D8A0D4E895F89A416B506C1F1FF
:1033E000877041F4C2010196EA89FB89E40DF51D5D
:1033F00074902C0177FE21C0AA8DBB8DED91FC91BC
:10340000B981B13061F40484F585E02D2E813F81CE
:103410004C895D89B5018A8D9B8D09950EC0068406
:10342000F785E02DEE80FF80840194014889598959
:103430006C817D818A8D9B8D0995770CEFEFAE1A9B
:10344000BE0A2C813D81280D391D3D832C83C1CFBF
:103450003A813C0D3A83639497CFAA8DBB8DED9151
:10346000FC9111970688F789E02DCD016B960FB678
:10347000F894DEBF0FBECDBFDF91CF911F910F91AA
:10348000FF90EF90DF90CF90BF90AF909F908F9084
:103490007F906F905F904F903F902F9009946B9624
:1034A0000FB6F894DEBF0FBECDBFDF91CF911F9155
:1034B0000F91FF90EF90DF90CF90BF90AF909F90D3
:1034C0008F907F906F905F904F903F902F900895D6
:1034D00020910B02211103C08FEF9FEF08955FB77A
:1034E000F89422E02093E9002091F20030E01216D7
:1034F000130614F421E030E0422FFC0184E6415031
:1035000038F0289880930A029091F1009193F7CFB8
:103510002115310521F08091F200882319F05FBF59
:10352000C90108958BE68093E800F9CF2FB7F8948E
:1035300083E08093E9009091E800892F807295FFE5
:1035400004C09091F20080E4891B2FBF0895809100
:10355000990281110DC082E08093950284E08093EE
:103560009602109298021092970281E0809399023D
:1035700085E992E0089585E491E090935802809364
:1035800057028091750290917602009711F00C9489
:103590001C240895CF93DF93CDB7DEB7A1970FB664
:1035A000F894DEBF0FBECDBF789484B5826084BD31
:1035B00084B5816084BD85B5826085BD85B5816037
:1035C00085BD80916E00816080936E0010928100B5
:1035D0008091810082608093810080918100816070
:1035E0008093810080918000816080938000809131
:1035F000910082608093910080919100816080931E
:103600009100809190008160809390008091C10032
:1036100084608093C1008091C10082608093C1006A
:103620008091C10081608093C1008091C30081605E
:103630008093C3008091C00082608093C00080911D
:10364000C20081608093C20080917A008460809380
:103650007A0080917A00826080937A0080917A006B
:10366000816080937A0080917A00806880937A00EC
:1036700010920B0210920202109203028091D70066
:1036800081608093D70080EA8093D80089B58061FB
:1036900089BD89B5826089BD09B400FEFDCF61E0B6
:1036A00070E080E090E00E94890E8091D8008F7CCD
:1036B00080618093D8008091E000807F8093E0005B
:1036C0008091E1008E7E8093E1008DE08093E200A6
:1036D000559A209A8091750290917602892B11F566
:1036E00020915D0230915E02C901079697FD079611
:1036F00033E0959587953A95E1F720915B023091FB
:103700005C02AC01429FC001439F900D529F900DFF
:1037100011240E9484239093760280937502892B52
:1037200009F415C10E94781580915D0290915E02A6
:1037300060915B0270915C02813291050CF4DFC4F0
:10374000AC014054510957FF02C04F5F5F4F559580
:1037500047956255710977FF02C06F5F7F4F75957E
:10376000679590E4E92EF12C02E510E02DE433E0BA
:1037700087E592E00E94981582E08093780280911C
:10378000730290917402892B09F4D2C48CE3809364
:1037900077021092E9011092E8011092340210921F
:1037A00056021092320281E08093310210920C0294
:1037B00061E082E00E941E0E61E083E00E941E0E26
:1037C0008091B9008E7F8093B9008091B9008D7F80
:1037D0008093B90088E48093B80085E48093BC00AE
:1037E00084E49BE09093E7018093E60185E49BE00D
:1037F0009093E5018093E40180917E0287FD1EC0D5
:1038000061E00E944D0E61E080917E020E941E0EDA
:1038100061E070E080E090E00E94890E60E08091BD
:103820007E020E941E0E6AE070E080E090E00E943E
:10383000890E61E080917E020E941E0E80917302CB
:1038400090917402892B09F432C520918D02309138
:103850008E0240918F025091900260E074E284EFFA
:1038600090E00E944D23DA01C9014097A109B109F6
:10387000B695A795979587958093B80064E08DE1FC
:1038800091E00E947D1660915D02615087E592E0B3
:103890000E94431064E089E191E00E947D168091CE
:1038A0007802813009F41AC564E187E592E00E944C
:1038B000431064E085E191E00E947D1680915B02F7
:1038C00090915C028038910509F01BC580915D02E2
:1038D00090915E028032910509F002C564E081E1B9
:1038E00091E00E947D1669ED87E592E00E94431009
:1038F00080917802813009F420C561EF87E592E07C
:103900000E94431066E085E091E00E947D16809160
:10391000730290917402892B09F411C520919102D0
:1039200030919202409193025091940260E074E2CF
:1039300084EF90E00E944D23DA01C9014097A1096C
:10394000B109B695A795979587958093B80081E0C2
:1039500080936B0201E010E010936A020093690209
:10396000109368020093670262E084E00E944D0EAB
:1039700062E085E00E944D0E62E086E00E944D0EFE
:1039800062E087E00E944D0E62E088E00E944D0EEA
:1039900061E089E00E944D0E61E08AE00E944D0ED8
:1039A00061E08BE00E944D0E80E290E09093FC017C
:1039B0008093FB0188E190E09093FE018093FD01EC
:1039C0001092FF0122E02093FA0120E830E03093CA
:1039D000EE012093ED019093F0018093EF0110939D
:1039E000F2010093F1011092F30180E090E00E9457
:1039F00005238093EB0181E090E00E9405238093F2
:103A0000EC018091EB019091EC010196E1F41092B0
:103A1000EC011092EB0180E090E00E9405238823E6
:103A200029F060E080E090E00E940D231091EC010D
:103A300081E090E00E940523811729F0612F81E049
:103A400090E00E940D2384E0482E512C612C712CB3
:103A5000812C94E2992E94EFA92EB12C00E8202E0F
:103A6000312C8091FF01823071F480E290E09093DC
:103A7000FC018093FB01A8E1B0E0B093FE01A093AC
:103A8000FD011092FF0184E00E94F50D892B81F465
:103A90008091FD019091FE01049797FD05C09093E0
:103AA000FE018093FD0104C01092FE011092FD0101
:103AB00085E00E94F50D892B99F48091FD0190918C
:103AC000FE010496893391052CF49093FE018093B6
:103AD000FD0106C0E8E3F0E0F093FE01E093FD0194
:103AE00086E00E94F50D892B81F48091FB01909175
:103AF000FC01049797FD05C09093FC018093FB01A6
:103B000004C01092FC011092FB0187E00E94F50DA9
:103B1000892B89F48091FB019091FC0104968138F6
:103B200091052CF49093FC018093FB0104C030922A
:103B3000FC012092FB0188E00E94F50D892B29F4FD
:103B40008091FA01823009F40DC48091FA0181114B
:103B500009C08091F4019091F50106969093F501CA
:103B60008093F4018091F301823031F53092EE01BF
:103B70002092ED010E94AE2222E330E040E050E0CE
:103B80000E941B23DC01CB010896A11DB11D90935F
:103B9000F0018093EF010E94AE22A30192010E94E6
:103BA0001B23DC01CB010196A11DB11D9093F201F5
:103BB0008093F1011092F3018091F301813019F4A7
:103BC00082E08093F3018091F301811135C08091EF
:103BD000ED019091EE012091F1013091F201821BF3
:103BE000930B97FD05C09093EE018093ED0124C0E7
:103BF0003092EE012092ED010E94AE2222E330E0ED
:103C000040E050E00E941B23DC01CB010896A11D7F
:103C1000B11D9093F0018093EF010E94AE22A301A9
:103C200092010E941B23DC01CB010196A11DB11D55
:103C30009093F2018093F1018091FA01811136C0D5
:103C40008091F301811132C02091ED013091EE019C
:103C50008091F4019091F501AC01485F5F4F4217EC
:103C6000530724F1281739070CF12091F601309100
:103C7000F7018091EF019091F001A9014E5F5F4F34
:103C8000481759079CF04096821793077CF082E012
:103C90008093FA0181E08093F3018091000290917A
:103CA00001020A9690930102809300028091FF0125
:103CB000811135C08091F301811131C02091ED0156
:103CC0003091EE018091FB019091FC01AC01485FC5
:103CD0005F4F421753071CF12817390704F1209151
:103CE000FD013091FE018091EF019091F001A90159
:103CF000405F5F4F4817590794F04096821793072B
:103D000074F081E08093FF018093F30180910002C1
:103D1000909101020A9690930102809300020E9402
:103D2000781545E250E0509364024093630210928C
:103D300066021092650249E050E06DE671E087E5A9
:103D400092E00E94A011209100023091010240E017
:103D500050E019A28E010F5D1F4FCA01B9012AE080
:103D600030E040E050E00E944D23605DD8016E934A
:103D70008D01211531054105510579F7109769F03D
:103D8000FD0101900020E9F73197AF014A1B5B0B61
:103D9000BD0187E592E00E94A0118091FF01811191
:103DA00013C04091FD015091FE016091FB017091A3
:103DB000FC0110E1E12EF12C08E010E024E43AE0EF
:103DC00087E592E00E9498158091FF018130B1F45F
:103DD0004091FD015091FE016091FB017091FC0149
:103DE000B8E0EB2EF12C00E110E024E33AE087E5A7
:103DF00092E00E94981582E08093FF018091FA0181
:103E0000811113C04091F6015091F7016091F401C6
:103E10007091F501A2E0EA2EF12C08E010E022E317
:103E20003AE087E592E00E9498158091F3018111B4
:103E300013C04091EF015091F0016091ED0170913C
:103E4000EE01F0E1EF2EF12C00E110E022E13AE08A
:103E500087E592E00E9498158091F301813099F4F2
:103E60004091EF015091F0016091ED017091EE01F0
:103E7000E8E0EE2EF12C00E110E024E33AE087E5E3
:103E800092E00E94981550E4E52EF12C00E810E035
:103E900022E136E040E050E060E070E087E592E04B
:103EA0000E9498158091730290917402892BC1F041
:103EB00020918D0230918E0240918F02509190029C
:103EC000C501B4010E944D23DA01C9014097A1093F
:103ED000B109B695A795979587958093B80016C0B8
:103EE0008091710290917202892B31F080918B0246
:103EF00090918C020E94A610E0918502F0918602BA
:103F0000908180918A0280958923808365E08DE08D
:103F100096E00E947D1660915B02615087E592E019
:103F20000E94431020915D0230915E02C901079604
:103F300097FD079633E0959587953A95E1F720919F
:103F40005B0230915C02829F7001839FF00C929F14
:103F5000F00C112400917502109176028091730289
:103F600090917402E00EF11E009709F44EC020916A
:103F7000770231E0309333022093550210923402DD
:103F800010925602DC01ED91FC910190F081E02D40
:103F900060E40995DD24D394CC24C394809173020A
:103FA00090917402E016F10669F1BFE1BD15D0F4FD
:103FB0000E94211680917702C092330280935502AD
:103FC0001092340210925602809173029091740202
:103FD000DC01ED91FC910190F081E02D60E4099508
:103FE000DD24D3948091730290917402F801619161
:103FF0008F01DC01ED91FC910190F081E02D09959C
:10400000D394CCCF0E94211643C0E0918302F0915B
:104010008402908180918902892B8083E016F106C9
:10402000B9F1F80181918F012091710230917202F2
:10403000232B19F00E943C10F1CF28E030E040E83B
:10404000E0917F02F091800290918702542F5823D3
:1040500019F05081952B03C0508190959523908342
:10406000E0918102F0918202508190918802952B1B
:104070009083E0918102F0918202508190918802B8
:10408000909595239083469521503109C9F6C6CF66
:104090008091730290917402892BC1F0209191025A
:1040A000309192024091930250919402C501B40163
:1040B0000E944D23DA01C9014097A109B109B695C3
:1040C000A795979587958093B80011C0E0918502D8
:1040D000F0918602908180918A02892B8083809161
:1040E000710290917202892B11F00E943B1040E006
:1040F00050E0452B09F4B5CC0E940000AFCCAC01D8
:104100004052510957FF02C04F5F5F4F5595479589
:104110006357710977FF02C06F5F7F4F7595679591
:1041200010E2E12EF12C03E710E02DE631E020CB88
:1041300061E080917C020E944D0E61E080917D02E1
:104140000E944D0E80917C02082E000C990BFC0100
:10415000E25BFE4FE491F0E0EE0FFF1FE05CFE4FEC
:10416000259134913093840220938302FC01EF5D0A
:10417000FE4FE491E093890280917D02082E000CAD
:10418000990BFC01E25BFE4FE491F0E0EE0FFF1FA4
:10419000E05CFE4FA591B491B0938602A093850296
:1041A000FC01EF5DFE4FE491E0938A028C91E82BD5
:1041B000EC938091710290917202892B09F434C0C2
:1041C0001FB7F8948091EA01811127C0EFE5F1E073
:1041D0008491E2E3F1E09491E82FF0E0EE0FFF1F0D
:1041E000E950FF4FA591B491EC91E92321F461E0EE
:1041F00081E10E941E0E61E081E10E944D0E8CB5AE
:1042000080618CBD8CB580648CBD61E08FE00E94C4
:104210004D0E61E080E10E944D0E8091EA018F5FBA
:104220008093EA011FBFE8CA61E080917A020E9490
:104230004D0E61E080917B020E944D0E80917A02CA
:10424000082E000C990BFC01E25BFE4FE491F0E0BC
:10425000EE0FFF1FE05CFE4F2591349130938002FA
:1042600020937F02FC01EF5DFE4FE491E093870213
:1042700080917B02082E000C990BFC01E25BFE4F43
:10428000E491F0E0EE0FFF1FE05CFE4FA591B491CA
:10429000B0938202A0938102FC01EF5DFE4FE49196
:1042A000E09388028C91E095E823EC93A5CA809175
:1042B000710290917202892B31F080918B02909162
:1042C0008C020E94A610E0918502F09186029081F6
:1042D00080918A02809589238083D0CA60E1E5CAF3
:1042E0008034910509F0FFCA63E08EE091E00E94FE
:1042F0007D1680917802813011F06FEC19C06FE962
:1043000017C08036910509F0EECA80915D02909148
:104310005E02409709F0E7CA63E08BE091E00E94FB
:104320007D1680917802813011F06FEA01C060E162
:1043300087E592E00E944310D6CA62E2DFCAE091AC
:104340008502F0918602908180918A02892B808378
:104350008091710290917202892B09F4F8CA0E942F
:104360003B10F5CA1092FA018091FB019091FC017B
:104370009093F5018093F4018091FD019091FE01ED
:1043800008969093F7018093F601DFCBDF92EF92CE
:10439000FF920F931F93CF93DF93D82EF92EE42E25
:1043A000062F10E0C8010196880F0E943E1183E09D
:1043B0000E943E11CD2DDF2D0C0F1D1FC017D10700
:1043C00089F0E7FE03C0FE01849101C088810E944C
:1043D0003E11F82E80E00E943E118F21219681111E
:1043E000EDCF01C081E0DF91CF911F910F91FF9040
:1043F000EF90DF900895E1EAF2E01382128248EE36
:1044000053E060E070E0448355836683778381E204
:1044100091E0918380838FEF9FEF95878487A1EF51
:10442000B2E013961C921E92129714964D935D93D0
:104430006D937C93179723E331E011963C932E9371
:10444000E7E5F2E01382128240E850E055834483AE
:1044500020E430E0378326835187408733872287E3
:10446000158A158614861786168621E0248B938B71
:10447000828B918B808B268B178A118E108E85E410
:1044800091E091838083138E128EB58FA48F178E47
:10449000168E8FEF83A384A385A386A387A380E5CD
:1044A00084AB15AA80E89AE1A6E0B0E086AB97ABB2
:1044B000A0AFB1AF80EA96E8A1E0B0E082AF93AFE1
:1044C000A4AFB5AF08958F929F92AF92BF92CF9253
:1044D000DF92EF92FF92CF93DF93EC0168817981B5
:1044E0008A819B81611571058105910521F464E242
:1044F00079ED8BE597E02DE133EF41E050E00E944C
:104500001B2349015A019B01AC01A7EAB1E40E94B7
:104510003A236B017C01ACEEB4EFA50194010E943B
:104520004823DC01CB018C0D9D1DAE1DBF1DB7FFC7
:1045300003C00197A109B04888839983AA83BB83EC
:10454000BC01CD019F77DF91CF91FF90EF90DF907D
:10455000CF90BF90AF909F908F9008958F929F9231
:10456000AF92BF92CF92DF92EF92FF9260910C01D7
:1045700070910D0180910E0190910F0161157105EF
:104580008105910521F464E279ED8BE597E02DE159
:1045900033EF41E050E00E941B2349015A019B0187
:1045A000AC01A7EAB1E40E943A236B017C01ACEEB6
:1045B000B4EFA50194010E944823DC01CB018C0DCE
:1045C0009D1DAE1DBF1DB7FF03C00197A109B048D7
:1045D00080930C0190930D01A0930E01B0930F01F5
:1045E000BC01CD019F77FF90EF90DF90CF90BF90FF
:1045F000AF909F908F90089560930C0170930D0180
:1046000080930E0190930F010895F999FECF92BD0A
:1046100081BDF89A992780B50895262FF999FECF84
:104620001FBA92BD81BD20BD0FB6F894FA9AF99ACF
:104630000FBE01960895052E97FB1EF400940E946C
:10464000322357FD07D00E944D2307FC03D04EF4C0
:104650000C94322350954095309521953F4F4F4F04
:104660005F4F089590958095709561957F4F8F4F1E
:104670009F4F08950E946F23A59F900DB49F900DAA
:10468000A49F800D911D11240895B7FF0C943A2327
:104690000E943A23821B930B0895A1E21A2EAA1BB3
:1046A000BB1BFD010DC0AA1FBB1FEE1FFF1FA217E2
:1046B000B307E407F50720F0A21BB30BE40BF50BDF
:1046C000661F771F881F991F1A9469F76095709568
:1046D000809590959B01AC01BD01CF010895A29FEB
:1046E000B001B39FC001A39F700D811D1124911DC6
:1046F000B29F700D811D1124911D0895EE0FFF1FB3
:104700000590F491E02D09940F931F93CF93DF93BD
:104710008230910510F482E090E0E091FF02F09188
:10472000000320E030E0A0E0B0E0309719F14081D4
:1047300051810281138148175907C8F084179507E2
:1047400069F4109731F012960C93129713961C93FC
:1047500027C00093FF021093000322C021153105EA
:1047600019F04217530718F49A01BD01EF01DF0158
:10477000F801DBCF21153105F9F0281B390B243066
:10478000310580F48A819B816115710521F0FB015F
:104790009383828304C0909300038093FF02FE0101
:1047A000329644C0FE01E20FF31F81939193225091
:1047B0003109398328833AC02091FD023091FE02ED
:1047C000232B41F420911201309113013093FE020A
:1047D0002093FD0220911001309111012115310526
:1047E00041F42DB73EB74091140150911501241B9F
:1047F000350BE091FD02F091FE02E217F307A0F401
:104800002E1B3F0B2817390778F0AC014E5F5F4F26
:104810002417350748F04E0F5F1F5093FE02409358
:10482000FD028193919302C0E0E0F0E0CF01DF91BF
:10483000CF911F910F910895CF93DF93009709F4C3
:1048400081C0FC01329713821282A091FF02B091C5
:104850000003109781F420813181820F931F2091F2
:10486000FD023091FE022817390751F5F093FE0240
:10487000E093FD0267C0ED0120E030E0CE17DF07D6
:1048800040F44A815B819E0141155105F1F0EA0136
:10489000F5CFD383C28340815181840F951FC81700
:1048A000D90759F488819981840F951F02969183C5
:1048B00080838A819B81938382832115310529F42A
:1048C000F0930003E093FF023DC0E901FB83EA831C
:1048D00049915991C40FD51FEC17FD0761F48081F0
:1048E0009181840F951F0296E901998388838281C3
:1048F00093819B838A83E0E0F0E012968D919C91F6
:104900001397009719F0FD01DC01F7CF8D919C9171
:1049100011979D012E5F3F4F820F931F2091FD0243
:104920003091FE022817390769F4309729F4109264
:1049300000031092FF0202C013821282B093FE02A3
:10494000A093FD02DF91CF91089581E090E0F8946B
:104950000C94B124DC0101C06D9341505040E0F74C
:10496000089517E0CDEED7E004C0FE010E947E233B
:0C4970002196CE3ED107C9F7F894FFCF86
:10497C00FFFFFFFF00E1000000000000010000004D
:10498C0000000103800000C18081000000000000D5
:10499C00000311CA1150121911241178125412006B
:1049AC000000009E0B710B8B0C300A690B550B46EB
:1049BC000B00000000900CA0118B0C8A0CCD0B305E
:1049CC000A590A310A4D0A410A600A300A7B08A9C1
:1049DC0010660DAA0D79095C09EF08900853636FF6
:0849EC0072652020202000006C
:00000001FF
