:100000000C94E0090C94080A0C94080A0C94080A51
:100010000C94080A0C94080A0C94080A0C94080A18
:100020000C94080A0C94080A0C947C1C0C94EB1C8D
:100030000C94080A0C94080A0C94080A0C94080AF8
:100040000C94080A0C94080A0C94080A0C94080AE8
:100050000C94080A0C94080A0C94080A0C94781F53
:100060000C94080A0C94080A0C94080A0C94080AC8
:100070000C94080A0C94080A0C94080A0C94080AB8
:100080000C941D1F0C94080A0C94080A0C94080A7E
:100090000C94C21F0C94080A0C94080A0C94080AC9
:1000A0000C94080A0C94080A0C94080A000103072F
:1000B0000F1F3F7F0080C0E0F0F8FCFE0000000052
:1000C000003E5B4F5B3E3E6B4F6B3E1C3E7C3E1CDE
:1000D000183C7E3C181C577D571C1C5E7F5E1C0024
:1000E000183C1800FFE7C3E7FF0018241800FFE7DB
:1000F000DBE7FF30483A060E2629792926407F059E
:100100000507407F05253F5A3CE73C5A7F3E1C1CB3
:1001100008081C1C3E7F14227F22145F5F005F5F73
:1001200006097F017F006689956A6060606060945F
:10013000A2FFA29408047E040810207E2010080864
:100140002A1C08081C2A08081E101010100C1E0C6F
:100150001E0C30383E3830060E3E0E060000000001
:100160000000005F00000007000700147F147F14E8
:10017000242A7F2A1223130864623649562050002D
:1001800008070300001C2241000041221C002A1C19
:100190007F1C2A08083E0808008070300008080804
:1001A0000808000060600020100804023E51494524
:1001B0003E00427F400072494949462141494D3342
:1001C0001814127F1027454545393C4A49493141A9
:1001D000211109073649494936464949291E000077
:1001E00014000000403400000008142241141414CC
:1001F0001414004122140802015909063E415D59B8
:100200004E7C1211127C7F494949363E41414122C0
:100210007F4141413E7F494949417F090909013EEA
:10022000414151737F0808087F00417F4100204011
:10023000413F017F081422417F404040407F021C23
:10024000027F7F0408107F3E4141413E7F0909093A
:10025000063E4151215E7F09192946264949493206
:1002600003017F01033F4040403F1F2040201F3FCC
:100270004038403F63140814630304780403615951
:10028000494D43007F414141020408102000414193
:10029000417F04020102044040404040000307083F
:1002A0000020545478407F2844443838444444283B
:1002B000384444287F385454541800087E090218E2
:1002C000A4A49C787F0804047800447D400020406A
:1002D000403D007F1028440000417F40007C0478AE
:1002E00004787C080404783844444438FC182424F6
:1002F0001818242418FC7C08040408485454542476
:1003000004043F44243C4040207C1C2040201C3CF2
:100310004030403C44281028444C9090907C4464E9
:10032000544C44000836410000007700000041367C
:10033000080002010204023C2623263C1EA1A16102
:10034000123A4040207A3854545559215555794134
:100350002254547842215554784020545579400C09
:100360001E527212395555555939545454593955EC
:100370005454580000457C410002457D420001452F
:100380007C407D1211127DF0282528F07C545545C3
:10039000002054547C547C0A097F4932494949322F
:1003A0003A4444443A324A4848303A4141217A3A40
:1003B00042402078009DA0A07D3D4242423D3D400C
:1003C00040403D3C24FF2424487E4943662B2FFCBB
:1003D0002F2BFF0929F620C0887E09032054547969
:1003E000410000447D413048484A32384040227A3A
:1003F000007A0A0A727D0D19317D2629292F2826B7
:100400002929292630484D402038080808080808BE
:100410000808382F10C8ACBA2F102834FA00007B17
:10042000000008142A142222142A1408550055002A
:1004300055AA55AA55AAFF55FF55FF000000FF0019
:10044000101010FF00141414FF001010FF00FF1014
:1004500010F010F0141414FC001414F700FF000046
:10046000FF00FF1414F404FC141417101F10101FC5
:10047000101F1414141F00101010F0000000001FB3
:10048000101010101F10101010F010000000FF10BE
:100490001010101010101010FF10000000FF1400BA
:1004A00000FF00FF00001F10170000FC04F41414EC
:1004B0001710171414F404F40000FF00F7141414B8
:1004C00014141414F700F7141414171410101F1038
:1004D0001F141414F4141010F010F000001F101F5B
:1004E0000000001F14000000FC140000F010F010C9
:1004F00010FF10FF141414FF141010101F00000040
:1005000000F010FFFFFFFFFFF0F0F0F0F0FFFFFF43
:100510000000000000FFFF0F0F0F0F0F384444389A
:1005200044FC4A4A4A347E02020606027E027E02E9
:1005300063554941633844443C04407E201E2006F4
:10054000027E020299A5E7A5991C2A492A1C4C7231
:1005500001724C304A4D4D303048784830BC625AB8
:10056000463D3E494949007E0101017E2A2A2A2A48
:100570002A44445F444440514A444040444A514024
:100580000000FF0103E080FF000008086B6B0836E5
:1005900012362436060F090F060000181800000056
:1005A0001010003040FF0101001F01011E00191D45
:1005B0001712003C3C3C3C00000000000000000022
:1005C0002300260029002C002F0000000002000953
:1005D0000F0000030401000C0000000000000000F8
:1005E00000000000000000000000000000240027C0
:1005F000002A002D003000DB40A4A62EAFDA0281D5
:10060000DA1281DA02818F2000A1C8D300408DAEBA
:10061000D580A8000060000000000000000000007D
:1006200000000000E00000000000000000000000EA
:10063000000001E0000000000000000000000000D9
:100640000001F000000000000000000000000000B9
:1006500003F00000000000000000000000000007A0
:10066000F00000000000000000000000000007F89B
:10067000000000000000000000000000000FF80073
:10068000000003C0007E000001E0007F0FF80000C2
:100690000003C000FE000001E000FFEFF8000000D2
:1006A00003C000FE000001E000FFFFF800000003AF
:1006B000C000F00000000F007FFE7FC0000003C0FC
:1006C00000F00000000F003FFE7FF83FF1FBCFFC81
:1006D000FEF3BC3DEFE01FFE7FFF7FFBFFDFFEFE72
:1006E000FFBC3DEFE01FC6FFFF7FFBFFDFFEFEFF0D
:1006F000BC3DEFE00FE3C7FE787BC3DE1EF0FFBC1E
:100700003DEF0007FF87FC787BC3DE1EF0F83C3D21
:10071000EF0001FFFFF0007BC3C01EF0F03C3DEF97
:100720000001F37FE03FFBC3CFFEF0F03C3DEF0064
:1007300003E33F807FFBC3DFFEF0F03C3DEF0007AB
:10074000E73C00787BC3DE1EF0F03C3DEF0007FF86
:10075000BE00787BC3DE1EF0F03C3DEF0007FFFEDD
:1007600000787BC3DE1EF0F03C3DEF000FFFFE0083
:100770007FFBFFDFFEF0F03FFDEFE00FFFFF007FAC
:10078000FBFFDFFEF0F03FFDEFE00FF9FF003E79E9
:10079000F9CF9EF0F01F3DE7E01FF1FF00000000E1
:1007A00000000000000000001F80FF007FFFFFFF2F
:1007B000FFFFFFFFFFFFE01C007F007FFFFFFFFE4A
:1007C000B46D888D18E000001F007FFFFFFFFE95CD
:1007D000AD7DB577E000000F007FFFFFFFFEA5AD08
:1007E0009D8D19E0000006007FFFFFFFFEB5ADED17
:1007F000B57EE00000000000018000000000000065
:10080000000000038000000000000000000007C09E
:1008100000000000000000000007C0000000000011
:10082000000000000FC00000000000000000001FDA
:10083000E00000000000000000001FE000000000D9
:1008400000000000003FE000000000000000000089
:100850003FF00000000000000000007FF0000000FA
:10086000000000001FF87FF0000000000000003FC3
:10087000FE7FF0000000000000003FFF7FF000005E
:1008800000000000001FFFFBE0000000000000006F
:100890000FFFF9FFC00000000000000FFFF9FFF894
:1008A00000000000000007FFF1FFFF000000000053
:1008B0000003FC73FFFF80000000000001FE3FFF0B
:1008C000FF80000000000000FF1E0FFF000000007E
:1008D0000000007FFE1FFC000000000000003FFF42
:1008E000FFF8000000000000000FDFFFE000000044
:1008F000000000001F19FFC0000000000000003FC2
:100900003CFF00000000000000007E7CF8000000BA
:1009100000000000007FFE7C0000000000000000DE
:10092000FFFFFC0000000000000000FFFFFE0000D1
:10093000000000000000FFFFFE00000000000000BB
:1009400001FFEFFE0000000000000001FFCFFE00ED
:1009500000000000000003FF07FE00000000000090
:100960000003FC07FE0000000000000003F003FE8F
:1009700000000000000000018000FE0000000000F8
:1009800000000000007E00000000000000000000E9
:100990003E000000000000000000000C000000000D
:1009A0000000078000FC000003C000000007800179
:1009B000FC000003C0000000078001FC000003C031
:1009C000000000078001E00000001E00000007801A
:1009D00001E00000001E007FE3F79FF9FDE7787B50
:1009E000DFC0FFF7FFBFFDFDFF787BDFC0FFF7FF34
:1009F000BFFDFDFF787BDFC0F0F787BC3DE1FF78EE
:100A00007BDE00F0F787BC3DE1F0787BDE0000F78D
:100A100087803DE1E0787BDE007FF7879FFDE1E0A6
:100A2000787BDE00FFF787BFFDE1E0787BDE00F03A
:100A3000F787BC3DE1E0787BDE00F0F787BC3DE165
:100A4000E0787BDE00F0F787BC3DE1E0787BDE00FC
:100A5000FFF7FFBFFDE1E07FFBDFC0FFF7FFBFFD5A
:100A6000E1E07FFBDFC07CF3F39F3DE1E03E7BCF25
:100A7000C00000000000000000000000FFFFFFFFBA
:100A8000FFFFFFFFFFFFC0FFFFFFFFFD68DB111A45
:100A900031C0FFFFFFFFFD2B5AFB6AEFC0FFFFFFD6
:100AA000FFFD4B5B3B1A33C0FFFFFFFFFD6B5BDBC2
:100AB0006AFDC0000000000000000000000000000F
:100AC00000000020000800000000000000000000FE
:100AD000000000000000000000000800000000000E
:100AE0000000000000000002800000001000000074
:100AF000000020000000000EA00000000000000028
:100B0000000000000000003A0000000000000000AB
:100B10000000000000000055080000000000000078
:100B20000000000000000074400000000000100001
:100B300040000000020000D0008000000000000023
:100B400000000000000040EA8000000000000000FB
:100B500000000000000000A00000000000000000F5
:100B600000000000000000D008800000000000002D
:100B700000000000000000A40000000000000000D1
:100B800000000000000000C00A000000000000009B
:100B900000400000000000482100000000000008A4
:100BA00000002000000000400400004000000000A1
:100BB0000000000000000020000000000000000015
:100BC00000000000000000081200000000044000C7
:100BD000000000000000000000000000005BB40006
:100BE000000000000000000540000000017D5A8068
:100BF00000000000080000000000000003EB494076
:100C00000000000000000000000000000BBAA41467
:100C10000000000000000000000000002ED5510080
:100C20000080000000000000000000001B6A044477
:100C3000000000000000000000000000FFB55001AF
:100C40000000000000000000000000016AAA02206D
:100C5000400000000000000000000002DD554004DC
:100C6000000000000000000000000003F548110033
:100C7000200000000000002000000006B6A2842032
:100C800000000000000400000000000FEA90400097
:100C900090000000000000000000800DBAA42002B7
:100CA000044000000000000000000007EA81008806
:100CB00040000040000000000000001EAA2808209C
:100CC00004000000000000000000003BB48122800E
:100CD00000004000000000000000002ED21048007C
:100CE000020000000000000000000037594500002D
:100CF00000000000000080000000001AC42800006E
:100D000002000000000000000000002F7542800477
:100D100000000000001084000000003AA80010103D
:100D200042000000000000000000003FA524004039
:100D300000000000020490000000006A5000400023
:100D4000040000000002A0000000003D88890002AD
:100D50000200000000008000000000356200010871
:100D6000000000000057F5000000005A8820002015
:100D70004A0000000000800000000036A080000251
:100D8000000000000002A0000000002D120002116F
:100D90000A000000000490000000001AC000004497
:100DA00044000200000000000000002D29040002A1
:100DB0002804000000108400000000150020082115
:100DC00010000001000000000040000CAA00010813
:100DD000A8000000000080000000000A800010044D
:100DE000400000000000000000000005510002214A
:100DF00030000000000040000000000A0421081438
:100E0000400000000000000000000005508000418C
:100E1000400000000000000000000001220000006F
:100E200080000000000000000000000280000209B5
:100E30000000000000000000000000005088202298
:100E4000020000000000000000000000840000021A
:100E500000000000000200000000000010000088F8
:100E60000004000000000000000000000900002055
:100E7000000000020000000000000800024804001A
:100E8000000000000000000000000000008241009F
:100E9000000000000000000000000000001114002D
:100EA0000000000000000000004000000000000002
:100EB0000000000000000000000000000000000032
:100EC00000000020000800000000000000000000FA
:100ED000000000000000000000000800000000000A
:100EE0000000000000000002800000001000000070
:100EF000000020000000000EA00000000000000024
:100F0000000000000000003A0000000000000000A7
:100F10000000000000000055080000000000000074
:100F200000000000000000744000000000001000FD
:100F300040000000020000D000800000000000001F
:100F400000000000000040EA8000000000000000F7
:100F500000000000000000A00000000000000000F1
:100F600000000000000000D0088000000000000029
:100F700000000000000000A40000000000000000CD
:100F800000000000000000C00A0000000000000097
:100F900000400000000000482100000000000008A0
:100FA000000020000000004004000040000000009D
:100FB0000000000000000020000000000000000011
:100FC0000000000000000008120000000000000007
:100FD0000000000000000000000000000000000011
:100FE000000000000000000540000000001C1C0084
:100FF0000000000008000000000000000040014068
:1010000000000000000000000000000002000020BE
:1010100000000000000000000000000008000018B0
:10102000008000000000000000000000000000043C
:101030000000000000000000000000000000003C74
:10104000800000000000000000000000000007FE1B
:1010500080000000000000000000000000007FFF92
:101060008000000000000000000000010000FFFF01
:10107000C000000000000020000000020003FFF894
:10108000200000000004000000000002000FFCFF30
:10109000A000000000000000000080040017FE8097
:1010A000104000000000000000000004007FFE80EF
:1010B00010000040000000000000000800FFE800F1
:1010C00008000000000000000000000001FF800098
:1010D00008004000000000000000001003FE0000B7
:1010E0000400000000000000000000100FFC0000E1
:1010F0000400000000008000000000000FF000006D
:101100000400000000000000000000001FF00000CC
:101110000000000000108400000000103FE000000C
:101120000000000000000000000000103FC00000B0
:101130000400000002049000000000107F80000006
:10114000040000000002A000000000107F0000006A
:101150000400000000008000000000107E0000007D
:10116000000000000057F50000000000FE00000035
:10117000000000000000800000000000FD000000F2
:10118000040000000002A00000000011FC00001894
:10119000040000000004900000000001FA000010AC
:1011A000000002000000000000000009F80007C075
:1011B000080400000010840000000001F8000F0087
:1011C000100000010000000000400007F800FC00D3
:1011D000100000000000800000000003F80FF00085
:1011E00020000000000000000000000179FF8000E6
:1011F000200000000000400000000000FFFC000094
:10120000000000000000000000000000FFF80000E7
:101210000000000000000000000000005F800000EF
:1012200000000000000000000000000006000000B8
:1012300000000000000000000000000000000000AE
:101240000200000000000000000000000000000894
:101250000000000000020000000000000400001078
:101260000004000000000000000000000200000078
:10127000000000020000000000000800003006002E
:101280000000000000000000000000000007F00067
:10129000000000000000000000000000000000004E
:1012A00000000000000000000040000000000000FE
:1012B0000000000000038007E00DB04DB26FD6FBC8
:1012C000FF0FF807E003C00E70781E200C20080006
:1012D000000000AA550880451020201040C01810BA
:1012E000402020451080C0F8C0C0E0F8FFF8E0C002
:1012F000C0F8C08000080B000202020100090400CF
:101300000001020200000524001001052401010172
:10131000042402060524060001070581031000408D
:1013200009040100020A0000000705020240000053
:10133000070583024000000403090412010002EFC4
:101340000201404123368000010102030141726421
:1013500075696E6F204C4C430041726475696E6F05
:10136000204C656F6E6172646F002200FF210004E3
:101370000802011040804010204080408008020494
:101380000180402010020110801020404020000009
:101390000000250028002B002E0031000404040466
:1013A000040304050202020204030202020206060A
:1013B00006060606040402020204040314219D2A00
:1013C00011241FBECFEFDAE0DEBFCDBF11E0A0E0F9
:1013D000B1E0EEE7F2E602C005900D92AE3EB10735
:1013E000D9F723E0AEEEB1E001C01D92AB39B207F0
:1013F000E1F719E0CFEDD9E004C02197FE010E948A
:10140000232DCE3DD107C9F70E9460210C943231C3
:101410000C9400000895FC018285811134C08091F4
:10142000EB02811130C08091E1029091E202408193
:10143000518122813381240F351F821793071CF5B8
:101440002091E3023091E402820F931F481759075D
:10145000D4F48091E5029091E60244815581268181
:101460003781240F351F821793076CF42091E70210
:101470003091E802280F391F81E090E042175307AE
:1014800024F080E0089580E090E00895FC018091D0
:10149000E002882311F13FB7F89482E08093E900DD
:1014A0002091F200822F90E01816190614F481E0C2
:1014B00090E0882339F0289844E64093DF02409179
:1014C000F1004083222339F02091F200211103C062
:1014D0002BE62093E8003FBF08958FEF9FEF08951C
:1014E0002FB7F89483E08093E9009091E800892F6A
:1014F000807295FF04C09091F20080E4891B2FBF99
:1015000008958091D70281110DC082E08093D302AB
:1015100084E08093D4021092D6021092D50281E02A
:101520008093D70283ED92E00895CF93DF931F92CB
:10153000CDB7DEB76983DC01ED91FC910280F381C8
:10154000E02D41E050E0BE016F5F7F4F09950F90A5
:10155000DF91CF91089583E08093E9008091F200BC
:10156000882319F08AE38093E80008950E94700AA6
:1015700090E00895CF93DF931F92CDB7DEB7FC01C3
:101580008485958597FD08C02FEF3FEF3587248729
:101590000F90DF91CF910895CE0101960E94460AE7
:1015A000019719F4898190E0F3CF8FEF9FEFF0CF8F
:1015B0000F931F93CF93DF931F92CDB7DEB78C01AC
:1015C000FC018485958597FF0BC0CE0101960E9492
:1015D000460A019771F4898190E0F8019587848724
:1015E000F801848595850F90DF91CF911F910F9120
:1015F00008958FEF9FEFF1CFFC018485958597FDCE
:101600000BC09FB7F89482E08093E9008091F200CC
:101610009FBF90E0019608959FB7F89482E0809371
:10162000E9008091F2009FBF90E008954091CD02C3
:101630005091CE022091CB023091CC024217530739
:10164000B4F49091E8009570E1F39091E80092FD78
:1016500019C08093F1008091CD029091CE02019645
:101660008F739927892B19F48EEF8093E80080916E
:10167000CD029091CE0201969093CE028093CD023E
:1016800081E0089580E00895DF92EF92FF920F933A
:101690001F93CF93DF93D82E8A01EB017B01E40ED9
:1016A000F51ECE15DF0559F0D7FE12C0FE0184915C
:1016B0000E94160B21968111F4CF0FEF1FEFC80186
:1016C000DF91CF911F910F91FF90EF90DF900895E0
:1016D0008881EECF0F931F93CF93DF931F92CDB7E7
:1016E000DEB782E0898342E450E065EF72E180E892
:1016F0000E94440B0E94810ADC0112960D911C91FC
:101700000115110589F0D801ED91FC910280F3815A
:10171000E02DBE016F5F7F4FC801099597FD04C0A2
:10172000F80100851185ECCF89810F90DF91CF9171
:101730001F910F910895615030F02091F100FC014C
:1017400020830196F8CF289884E68093DF020895DD
:10175000AF92BF92CF92DF92EF92FF920F931F93BF
:10176000CF93DF936C017B018B01040F151FEB01FD
:101770005E01AE18BF08C017D10759F06991D601B4
:10178000ED91FC910190F081E02DC6010995892B26
:1017900079F7C501DF91CF911F910F91FF90EF90E5
:1017A000DF90CF90BF90AF90089508950895815035
:1017B0008F3008F047C0E82FF0E0EF51F44F0C9461
:1017C000232DFE0B020CF00BF60BFA0B220C220C55
:1017D000220C050C0B0C0F0C130C190C220C1D0CFD
:1017E000809180008F7780938000089580918000A1
:1017F0008F7DF9CF80918000877FF5CF84B58F777B
:1018000084BD089584B58F7DFBCF809190008F7744
:10181000809390000895809190008F7DF9CF809102
:101820009000877FF5CF8091C0008F778093C000B4
:1018300008958091C0008F7DF9CF8091C200877F8D
:101840008093C2000895CF93DF93282F30E0F901F1
:10185000E653FA4F8491F901E159FC4ED491F90114
:10186000E456FC4EC491CC23A1F081110E94D70B09
:10187000EC2FF0E0EE0FFF1FE454FA4FA591B49166
:10188000EC91ED2381E090E009F480E0DF91CF91CD
:10189000089580E090E0FACF1F93CF93DF93282F35
:1018A00030E0F901E653FA4F8491F901E159FC4E19
:1018B000D491F901E456FC4EC491CC23A9F0162F23
:1018C00081110E94D70BEC2FF0E0EE0FFF1FE257C3
:1018D000FC4EA591B4918FB7F894EC91111108C00A
:1018E000D095DE23DC938FBFDF91CF911F910895B8
:1018F000DE2BF8CFCF93DF9390E0FC01E159FC4E53
:10190000249184569C4EFC0184918823D1F090E070
:10191000880F991FFC01E751FA4FA591B491FC0182
:10192000E257FC4EC591D491623071F49FB7F894A0
:101930003C91822F809583238C93E8812E2B2883E2
:101940009FBFDF91CF9108958FB7F894EC912E2B24
:101950002C938FBFF6CFCF9380911101853021F06A
:101960008F3F89F1CF910895EBEBF3E1C491C7FD6F
:10197000F9CF61E085E00E947A0CCC2309F4B2C073
:10198000C23081F3C13009F0C5C080918100887FE9
:1019900083608093810083EC99E090938900809329
:1019A000880081E090E0A0E0B0E08093FA0290939C
:1019B000FB02A093FC02B093FD0280916F00826055
:1019C00080936F00CFCF85E080931101EBEBF3E1C3
:1019D000C491CF3F39F2C13039F168F0C33009F416
:1019E00041C0C43009F460C0C7FDBCCF61E085E0F0
:1019F0000E947A0CC5CF14BC15BC84B5826084BD2E
:101A000085B5816085BDE1EAF3E1E491F0E0EE0F98
:101A1000FF1FE257FC4E85919491E4E7F3E1E491D6
:101A2000E093F102C0E0A5CF1092800010928100F7
:101A30008091810088608093810080918100816025
:101A400080938100E1EAF3E1E491F0E0EE0FFF1F03
:101A5000E257FC4E85919491E4E7F3E1E491E09341
:101A6000F00287CF10929000109291008091910027
:101A700088608093910080919100816080939100B3
:101A8000E1EAF3E1E491F0E0EE0FFF1FE257FC4ED4
:101A9000859194919093EF028093EE02E4E7F3E155
:101AA000E491E093ED0265CF1092C0001092C10066
:101AB0008091C10088608093C1008091C1008160E5
:101AC0008093C100E1EAF3E1E491F0E0EE0FFF1F43
:101AD000E257FC4E85919491E4E7F3E1E491E093C1
:101AE000EC0247CF85B5887F856085BD8BE987BDD2
:101AF00081E090E0A0E0B0E08093FE029093FF02CE
:101B0000A0930003B093010380916E0082608093E4
:101B10006E0028CFC330F1F480919100887F8360FC
:101B20008093910083EC99E09093990080939800C2
:101B300081E090E0A0E0B0E08093F6029093F7029D
:101B4000A093F802B093F9028091710082608093B3
:101B5000710008CFC430D9F48091C100887F8360C0
:101B60008093C10083EC8093CF0081E090E0A0E0FF
:101B7000B0E08093F2029093F302A093F402B0934A
:101B8000F50280917200806480937200EBCEC130C8
:101B900009F401CF24F4C111E5CE83ECA8CFC33002
:101BA00009F4C0CFC430F1F2DDCE1F93CF93DF93A1
:101BB000182FEB0161E00E947A0C209739F460E065
:101BC000812FDF91CF911F910C944C0CCF3FD10509
:101BD00011F461E0F5CFE12FF0E0E653FA4FE49124
:101BE000E150EF3008F07FC0F0E0E750F24F0C9486
:101BF000232D080E100E150E1F0E290E730E730ED8
:101C0000730E330E3D0E470E510E5E0E730E660EB2
:101C100084B5806884BDC7BDDF91CF911F910895C1
:101C200084B5806284BDC8BDF7CF80918000806894
:101C300080938000D0938900C0938800EDCF80917D
:101C40008000806280938000D0938B00C0938A00D4
:101C5000E3CF80918000886080938000D0938D00D6
:101C6000C0938C00D9CF80919000806880939000C1
:101C7000D0939900C0939800CFCF8091900080625C
:101C800080939000D0939B00C0939A00C5CF809121
:101C90009000886080939000D0939D00C0939C003A
:101CA000BBCF8091C00080688093C0008091C0004D
:101CB0008F7B8093C000C093CF00AECF8091C000D7
:101CC00080628093C000C093D000A6CF8091C200F4
:101CD00088608093C2008091C2008B7F8093C20095
:101CE000C093D20099CFC038D1050CF072CF67CF26
:101CF0003FB7F89480919F029091A002A091A10219
:101D0000B091A20226B5A89B05C02F3F19F00196FD
:101D1000A11DB11D3FBFBA2FA92F982F8827BC0145
:101D2000CD01620F711D811D911D42E0660F771F6D
:101D3000881F991F4A95D1F708958F929F92AF926D
:101D4000BF92CF92DF92EF92FF924B015C010E9413
:101D5000780E6B017C010E94780E6C197D098E094A
:101D60009F09683E734081059105A8F321E0821A1E
:101D70009108A108B10888EEC80E83E0D81EE11CC6
:101D8000F11C81149104A104B10429F7FF90EF9094
:101D9000DF90CF90BF90AF909F908F9008958F92DB
:101DA0009F92AF92BF92CF92DF92EF92FF920F93EA
:101DB0001F93CF93DF936C017B018A018091100107
:101DC000882309F45CC08091E002882309F457C09D
:101DD0008091D20280FF05C08091E00082608093F4
:101DE000E000E801B12C8AEFA82E93E0892E2AE3C7
:101DF000922E209711F4BB20D9F10E94700A811114
:101E00000AC0AA94AA20D9F161E070E080E090E0D5
:101E10000E949D0EEECF8C171D0611F00CF08C2F3A
:101E20009FB7F8948092E9002091E80025FD02C058
:101E30009FBFDFCF282F30E0C21BD30BF7018150AB
:101E400020F041914093F100FACFE20EF31EBB2047
:101E500021F09092E800B12CEBCF8091E80085FD55
:101E6000E7CF9092E800BB24B394209709F3F3CF17
:101E70005D9884E68093D102101611063CF081E053
:101E800090E0F6019383828310E000E0C801DF91C7
:101E9000CF911F910F91FF90EF90DF90CF90BF9067
:101EA000AF909F908F9008950895FC016370658BAB
:101EB0008481958126813781613039F0633029F042
:101EC000918780873387228708953187208793877A
:101ED000828708952F923F924F925F926F927F92E6
:101EE0008F929F92AF92BF92CF92DF92EF92FF922A
:101EF0000F931F93CF93DF93CDB7DEB769970FB6DC
:101F0000F894DEBF0FBECDBF998F888F5B011A0199
:101F1000D22E1F830E833701C982DC0158962D9182
:101F20003C9159972115310509F004C118968D91FE
:101F30009C911997681779070CF0C0C11A968D917A
:101F40009C911B97481759070CF0B8C18C2C912C09
:101F5000FB0126E0C29EE00DF11D1124F987E88700
:101F60001E161F060CF0AAC1A40193E0440F551FD2
:101F70009A95E1F75D874C87CA01820D931D18166B
:101F800019060CF09BC157968C91811104C05FEA31
:101F90005D1508F4D394A88DB98DED91FC9111973E
:101FA0000284F385E02DCD010995F5013596F98B75
:101FB000E88BBB82AA8225018CEB90E08A199B09F1
:101FC0009C0145E0D49E200D311D11243B8B2A8BB2
:101FD000EA89FB89E40DF51D24913D822C82D12CE8
:101FE000C12C622F70E07F876E87E88DF98DA0810C
:101FF000B18120FF7CC0F981F13009F069C01C96E5
:10200000ED91FC912E813F81A1014C0D5D1DB2012E
:10201000888D998D0995EE85FF85F595E7952E2F8D
:102020004FEFC41AD40A6C817D81680D791D7D83C0
:102030006C8378E0C716D104A1F68FEF481A580ACE
:10204000AA81BB81A80DB91DBB83AA83E889F98940
:10205000E415F50509F0BCCF2E813F812615370523
:10206000A9F0A88DB98DED91FC91B981B13009F03D
:1020700051C0B5016B5F7F4F0088F189E02D83016E
:1020800028E030E0A101888D998D0995A88DB98D42
:10209000ED91FC9111970688F789E02DCD016996A5
:1020A0000FB6F894DEBF0FBECDBFDF91CF911F9169
:1020B0000F91FF90EF90DF90CF90BF90AF909F90E7
:1020C0008F907F906F905F904F903F902F900994EA
:1020D0001E96ED91FC91EE80FF80840194014C816D
:1020E0005D816A817B81888D998D099594CF2E8140
:1020F0003F812615370509F48ECF3981313029F417
:102100001C96ED91FC9193017FCF1E96ED91FC9171
:102110007301E3CF68857985681979090684F785A5
:10212000E02D73010C851D859401A101888D998D89
:102130000995ACCFF9013496949132974591549119
:10214000D91AB7E0DB9E400D511D1124F9012591EC
:102150003491398B288BFA0145905490FA013296CC
:1021600064903196C49032961491319604913981DD
:10217000323008F48AC0E12E012E000CFF08402FF7
:10218000002E000C550B59874887A88DB98DED910D
:10219000FC9111970284F385E02DCD010995B98159
:1021A0008B2E912CE89CC001E99C900DF89C900D21
:1021B0001124FC01EA0DFB1DFF87EE871C82D12C48
:1021C000712C9B868A869101200F311D07FD3A955F
:1021D0003D8B2C8BA501410F511D17FD5A955F8B2F
:1021E0004E8B7C1408F052CF872D90E0488559859E
:1021F000480F591F6A857B85469F9001479F300D88
:10220000569F300D1124D901A20DB31DBD87AC8797
:10221000EE85FF85FB83EA83B12CA12C2C893D89B7
:10222000280F391F3B8B2A8B8C818A0DA61408F04E
:1022300040C0877041F4C2010196E889F989E40D34
:10224000F51DD4902C01D7FE15C0A88DB98DED9148
:10225000FC91B981B130F1F40484F585E02D2E8133
:102260003F814A895B896E897F896A0D7B1D888DD4
:10227000998D0995DD0CEFEFAE1ABE0A2A813B81DC
:10228000280D391D3B832A83CFCF19861886F12C60
:10229000E12C7BCF0684F785E02DEE80FF80840162
:1022A00094014C855D856A817B81888D998D099526
:1022B000E1CF3C81360D3C83739493CF69960FB682
:1022C000F894DEBF0FBECDBFDF91CF911F910F916C
:1022D000FF90EF90DF90CF90BF90AF909F908F9046
:1022E0007F906F905F904F903F902F900895AF92A6
:1022F000BF92CF92EF92FF920F931F93CF93DF93F2
:10230000EC01262F888D998D009709F04FC06A3017
:10231000C9F41D861C868C8998E0899F9001112440
:102320008E859F85820F931F9F878E8781E090E027
:10233000DF91CF911F910F91FF90EF90CF90BF90C1
:10234000AF9008956D3091F3CC888E898823C1F0C9
:102350008C859D85E6E0CE9E800D911D11244885DB
:1023600059854817590764F44E855F851D861C867C
:10237000F8E0CF9EC0011124840F951F9F878E87A0
:10238000EA88FB88088919894E855F856C857D857B
:10239000CE010E946A0F2C898C859D8536E0239F93
:1023A000800D911D11249D878C87C0CF6A3069F400
:1023B0001D861C86FC013696E4912C898E859F85AE
:1023C000E29F800D911D1124AFCF6D3009F4AECF87
:1023D000FC0134963491631708F4A8CF3196E49148
:1023E000E61708F4A3CFFC01329645915491E62FED
:1023F000E31BFF0B37E03E9F50013F9FB00C1124C1
:10240000A40EB51EF501329634913196E491332332
:10241000A1F1EE2391F1CC88F5013596E4914E8936
:10242000442301F10E2E000CFF0BE30FF11DCE9E95
:10243000A001CF9E500D11246C857D85460F571F3E
:1024400068857985641775076CF44E855F851D86F0
:102450001C860696FC018491C89E400D511D1124D6
:102460005F874E87EA88FB88088919894E855F85D2
:102470006C857D85CE010E946A0FF5013496E4914A
:102480002C898C859D85E29F800D911D11248BCF19
:102490006F927F928F929F92AF92BF92CF92DF9274
:1024A000EF92FF920F931F93CF93DF93EC016B0199
:1024B0005A0139014801E881F9810284F385E02D50
:1024C0000995E881F9810288F389E02D870193015C
:1024D000A501B601CE010995A501480D591D415030
:1024E0005109E881F9810288F389E02D9301B60151
:1024F000CE010995E881F9810088F189E02D9401E8
:10250000A501B601CE010995C60CD71CB6016150D4
:102510007109E881F9810088F189E02D9401A50114
:10252000CE010995E881F9810688F789E02DCE0171
:10253000DF91CF911F910F91FF90EF90DF90CF909F
:10254000BF90AF909F908F907F906F9009946F9203
:102550007F928F929F92AF92BF92CF92DF92EF9233
:10256000FF920F931F93CF93DF935C01EB016A01FE
:10257000490138018701DC01ED91FC916217730775
:1025800019F5641675062CF0962D872D3A01C92E83
:10259000D82E9601261937092F5F3F4F048CF58DF1
:1025A000E02DA301BE01C5010995DF91CF911F91D7
:1025B0000F91FF90EF90DF90CF90BF90AF909F90E2
:1025C0008F907F906F9008954615570591F42617C8
:1025D000370724F0892D4B01C22FD82F9E012819CF
:1025E00039092F5F3F4F068CF78DE02DA601B4010E
:1025F000DACF0284F385E02D0995D501ED91FC91A8
:102600000488F589E02D83019401A601BE01C5016E
:102610000995D501ED91FC910688F789E02DC5015A
:10262000DF91CF911F910F91FF90EF90DF90CF90AE
:10263000BF90AF909F908F907F906F900994EF9292
:10264000FF920F931F93DC011A960D911C911B971B
:1026500018962D913C911997ED91FC9100A0F1A154
:10266000E02D7B0150E040E070E060E009951F91B3
:102670000F91FF90EF9008954F925F926F927F922B
:102680008F929F92AF92BF92CF92DF92EF92FF9282
:102690000F931F93CF93DF936C012B015A013901E4
:1026A0004801DC01ED91FC910284F385E02D099550
:1026B000E201640C751CD601ED91FC91C615D7059D
:1026C0005CF40088F189E02D87019401A501BE0129
:1026D000C60109952196EFCF0688F789E02DC6013E
:1026E000DF91CF911F910F91FF90EF90DF90CF90EE
:1026F000BF90AF909F908F907F906F905F904F9022
:1027000009948F929F92AF92BF92CF92DF92EF92F5
:10271000FF920F931F93CF93DF93EC015B014A016C
:102720006901E881F9810284F385E02D099595011D
:102730002C0D3D1D21503109E881F9810488F5896E
:10274000E02D78018401A401B501CE010995E8814D
:10275000F9810688F789E02DCE01DF91CF911F9195
:102760000F91FF90EF90DF90CF90BF90AF909F9030
:102770008F9009948F929F92AF92BF92CF92DF92E7
:10278000EF92FF920F931F93CF93DF93EC015B01C6
:102790004A0169017801E881F9810284F385E02D1D
:1027A0000995C80CD91C860101501109E881F981ED
:1027B0000488F589E02D9501A401B501CE010995A4
:1027C000E881F9810688F789E02DCE01DF91CF916C
:1027D0001F910F91FF90EF90DF90CF90BF90AF903F
:1027E0009F908F900994EF92FF920F931F93DC01BB
:1027F000ED91FC9100A0F1A1E02D09951F910F91A1
:10280000FF90EF9008950F931F93DC01ED91FC91E1
:10281000068CF78DE02D09951F910F9108950F9368
:102820001F93DC01ED91FC91048CF58DE02D099551
:102830001F910F910895DC01ED91FC910084F185C9
:10284000E02D09943F924F925F926F927F928F9208
:102850009F92AF92BF92CF92DF92EF92FF920F932F
:102860001F93CF93DF9300D000D0CDB7DEB75C01CC
:102870003B016A014901280187E0480E511C93E0A1
:10288000559447949A95E1F7CA018E0D9F1D9A833E
:102890008983F12CE12C312C1C821B828B819C8141
:1028A00087709927330C892B61F4EB81FC8183E0DD
:1028B000F595E7958A95E1F7EE0DFF1DE80DF91DF9
:1028C000349037FE0AC021E030E0A6016B817C81A4
:1028D000660D771DC5010E941B148B819C8101969A
:1028E0009C838B8308171907C9F69FEFC91AD90A69
:1028F000E40CF51C89819A81C816D90669F60F90F7
:102900000F900F900F90DF91CF911F910F91FF903B
:10291000EF90DF90CF90BF90AF909F908F907F907F
:102920006F905F904F903F9008952F923F924F92FB
:102930005F926F927F928F929F92AF92BF92CF924F
:10294000DF92EF92FF920F931F93CF93DF9300D00C
:1029500000D000D0CDB7DEB73C016A013E832D83A5
:10296000FC82EB825801A41AB50AB7FE03C0B194E9
:10297000A194B1088D809E80861A970A97FE03C0A5
:102980009194819491088A149B045CF0902F812F7C
:102990000D811E819D838E839C2D8D2D6B01692F52
:1029A000782F0C151D055CF09D818E817E836D83D3
:1029B000692F782F902F812F8601C92ED82E1601CE
:1029C000201A310A2B012D813E81421A530A57FEEB
:1029D00003C0519441945108710137FE03C03FEF89
:1029E000E31AF30AF594E7948D819E818617970781
:1029F0005CF5A1E0B0E0BA83A983C016D1064CF122
:102A0000D301ED91FC910484F585E02D2B813C816F
:102A1000A8016D817E818A149B041CF04D815E812A
:102A2000B801C3010995E418F508F7FE0AC02D8125
:102A30003E8189819A81280F391F3E832D83E20CC4
:102A4000F31C0F5F1F4FD9CF2FEF3FEF3A8329833E
:102A5000D4CF26960FB6F894DEBF0FBECDBFDF9160
:102A6000CF911F910F91FF90EF90DF90CF90BF908B
:102A7000AF909F908F907F906F905F904F903F901E
:102A80002F90089585ED8093BC008091BC0084FD5B
:102A9000FCCF1092AA02089520915302260F3327EB
:102AA000331F21323105ECF42091AA02FC0190E0A1
:102AB00080E0243069F082E00895A09153022191D2
:102AC000AC014D5C5D4FA40FB52FB11D2C93019649
:102AD000861798F380915302680F6093530280E049
:102AE000089581E00895E091AC028091AB02E8176F
:102AF00030F4F0E0ED5EFD4F808190E008958FEFBF
:102B00009FEF08959091AC028091AB022FEF3FEFC1
:102B1000981748F4E92FF0E0ED5EFD4F208130E09A
:102B20009F5F9093AC02C90108958091AB02909190
:102B3000AC02891B990B0895CF92DF92EF92FF921E
:102B40000F931F93CF93DF937C01CB018A012091D8
:102B50000503222389F0EB016B01C40ED51ECC15B1
:102B6000DD0569F06991D701ED91FC910190F0814B
:102B7000E02DC7010995F3CF642F0E944C15C801C1
:102B8000DF91CF911F910F91FF90EF90DF90CF9049
:102B90000895CF93DF931F92CDB7DEB7698320915D
:102BA00005032223F9F020910203203258F021E09E
:102BB00030E0FC013383228390E080E00F90DF91CE
:102BC000CF91089580910303E82FF0E0ED50FE4F80
:102BD000998190838F5F809303038093020381E048
:102BE00090E0ECCF61E0CE0101960E944C15F7CF4A
:102BF0002091020381E0213208F044C08091AA02B2
:102C00008111FCCF8091040392E09093AA0291E09D
:102C10009093A9029FEF90937602109298022093CE
:102C20009702A3EFB1E0E7E7F2E090E0291331C0AB
:102C30001092990290919902880F892B80939902A2
:102C40008091A802813049F51092A80280919902E2
:102C50008093BB008091BC0083FDF8CF85EC80930E
:102C6000BC008091AA028230E1F3809176028F3F0E
:102C7000B1F0809176028032A1F0809176028033AB
:102C800091F084E010920303109202031092050366
:102C900008953D9131939F5FC9CF85EEE0CF80E0ED
:102CA000F1CF82E0EFCF83E0EDCFEF92FF920F9371
:102CB0001F93CF93DF93EC01EC80FD806E157F05B1
:102CC0000CF070C057FF04C0240F351F50E040E0E7
:102CD0008E819F81FA01E20FF31F8E179F071CF46C
:102CE0009C01241B350B121613060CF05BC0922FAF
:102CF000842F8695869586958E9DD0018F9DB00DEB
:102D000011246A0F7B1FAE8DBF8DA60FB71F4770B2
:102D100049F188E0841B482F682F70E0FB01EC54D8
:102D2000FF4FE491281708F063C0621B71092FEF71
:102D300030E002C0359527956A95E2F7E22301302D
:102D4000110539F0B0F10230110561F58C91E827D9
:102D500002C08C91E82BEC93941720F12C813D81DB
:102D6000A20FB31FE92FE41BE83078F00230110501
:102D700021F58E2F9C9190959C932C813D81A20FE3
:102D8000B31F88508830B0F7E770EE2359F0F0E0B9
:102D9000E455FF4FE49101301105F9F010F10230D4
:102DA000110519F1DF91CF911F910F91FF90EF90D5
:102DB0000895E0958C91E823CECF81E001151105AF
:102DC00009F480E081959E2F8C932C813D81A20F88
:102DD000B31F98509830C0F7D7CF8C91E82BEC9365
:102DE000E1CFE0958C91E823FACF8C91E827F7CFDB
:102DF0000130110509F4ADCFE0F20230110509F4FC
:102E0000A5CFAE0DBF1DAECF0F931F93CF93DF9312
:102E100077FF04C0260F371F70E060E0DC011496D6
:102E2000CD91DC91FB01E20FF31FCE17DF071CF4FD
:102E30009E01261B370B121613064CF5FA0157FD9F
:102E40003796A3E0F595E795AA95E1F7EC9FD001B9
:102E5000ED9FB00DFC9FB00D11246A0F7B1FDC01AC
:102E60005E96ED91FC91E60FF71F4770552781E0C4
:102E700090E001C0880F4A95EAF7482F013011050C
:102E800059F0A8F02E0F3F1F02301105E1F0DF913D
:102E9000CF911F910F9108952E0F3F1FE217F30757
:102EA000B1F38191DF011197842B8C93F7CF80953B
:102EB0002E0F3F1FE217F30751F39191DF01119796
:102EC00098239C93F7CFE217F30709F38191DF0171
:102ED000119784278C93F7CF0F931F93FA01DC018E
:102EE00055964C9155974230E9F04330A1F141306D
:102EF00061F514964D915C91DA01AE1BBF0BFD019B
:102F0000E21BF30B77FD0BC0DC0116964D915C9133
:102F10006417750724F4AB01BF010E9404171F91C9
:102F20000F91089514964D915C91DA01A61BB70B91
:102F3000BD0161507109DC0116964D915C91DA0179
:102F4000AE1BBF0BFD01E21BF30B77FDE8CFAF011A
:102F50000E945516E4CF16964D915C91DA01A61B9E
:102F6000B70BBD0161507109CDCF0F931F93FA01CB
:102F7000DC0155964C9155974230A9F0433091F1C0
:102F8000413019F514964D915C91DA01AE1BBF0BDF
:102F9000FD013197F7FD04C0AB01BF010E9455163A
:102FA0001F910F91089514964D915C91DA01A61B23
:102FB000B70BBD01DC0116964D915C91DA01AE1B99
:102FC000BF0BFD013197621B730BF7FDE9CFDC01ED
:102FD00016964D915C91E417F50714F7AF010E9426
:102FE0000417DECF16964D915C91DA01A61BB70B44
:102FF000BD01621B730BCECFFC0177FD64C08085E1
:103000009185681779070CF05EC057FD5CC082851A
:103010009385481759070CF056C085898230B1F066
:10302000833029F1813041F484819581841B950B93
:10303000AB01BC01615071092130310509F108F47F
:1030400043C02230310509F463C00895848195811D
:10305000DC01A61BB70BBD01615071098681978108
:10306000DC01A41BB50BAD0141505109E5CF8681B0
:103070009781861B970BBA01AC0141505109DCCFF7
:10308000CA0157FD0796A3E095958795AA95E1F7A4
:10309000A481B5818A9F90018B9F300D9A9F300D3E
:1030A0001124620F731F068CF78DE02DE60FF71FBA
:1030B0004770552721E030E001C0220F4A95EAF71A
:1030C0008081822B80830895CA0157FD079633E0E3
:1030D000959587953A95E1F7A481B5818A9F9001EE
:1030E0008B9F300D9A9F300D1124620F731F068C39
:1030F000F78DE02DE60FF71F4770552781E090E030
:1031000001C0880F4A95EAF7809590818923DACF2C
:10311000CA0157FD079623E0959587952A95E1F713
:10312000A481B5818A9F90018B9F300D9A9F300DAD
:103130001124620F731F068CF78DE02DE60FF71F29
:103140004770552721E030E001C0220F4A95EAF789
:1031500080818227B7CF08958EBD00000DB407FE91
:10316000FDCF8EB50895FF920F931F93CF93DF93FA
:10317000F82ED92FC62F8091750390917603009772
:1031800009F452C02091790331E030930503209374
:1031900004031092030310920203DC01ED91FC91F1
:1031A0000190F081E02D60E009950F2D1D2FD1E0F9
:1031B000FF24F394C1508091750390917603CF3F23
:1031C00061F1D032C8F00E94F8158091750390919A
:1031D000760320917903F092050320930403109263
:1031E000030310920203DC01ED91FC910190F08148
:1031F000E02D60E00995D1E0809175039091760310
:10320000F8016491DC01ED91FC910190F081E02DD9
:103210000995DF5F0F5F1F4FCDCFDF91CF911F91DA
:103220000F91FF900C94F815E0918503F0918603BF
:10323000908180918B038095892380830F2D1D2F92
:10324000C15008F438C0F801849120917303309183
:103250007403232B29F00E94AC180F5F1F4FF0CF8F
:1032600028E030E040E8E0918103F0918203909102
:103270008903582F5423D9F05081952B9083E091E6
:103280008303F0918403908150918A03952B90835E
:10329000E0918303F0918403508190918A0390958B
:1032A00095239083469521503109E9F6D6CF508178
:1032B00090959523E3CFDF91CF911F910F91FF90D0
:1032C00008951F93CF93DF93EC018C8D9D8D009714
:1032D00021F1162F28A131E0309305032093040338
:1032E0001092030310920203DC01ED91FC91019016
:1032F000F081E02D60E009958C8D9D8DDC01ED91D4
:10330000FC910190F081E02D612F09958C8D9D8DB0
:10331000DF91CF911F910C94F815ACA5BDA59C91A0
:103320008AA9809589238C938A8D9B8D892B31F076
:10333000862FDF91CF911F910C94AC1828E030E0DC
:1033400080E8A8A5B9A598A9462F4823C1F04C91BB
:10335000942B9C93AAA5BBA59C9149A9942B9C93C3
:10336000AAA5BBA54C9199A9909594239C93869569
:103370002150310931F7DF91CF911F9108954C9180
:1033800090959423E6CF8CBD9DBD0895EF92FF925A
:103390000F931F93CF93DF938091750390917603E2
:1033A000892B09F493C020918F03309190034091B1
:1033B00091035091920360E074E284EF90E00E94E8
:1033C000982B205131094109510956954795379558
:1033D00027952093B80065E08AE693E10E94B31830
:1033E00060915D03615089E593E00E94611920912D
:1033F0005F0330916003C901079697FD079623E0AC
:10340000959587952A95E1F720915D0330915E03AC
:10341000829F8001839F100D929F100D1124C091F7
:103420007703D091780380917503909176030C0F08
:103430001D1F009709F489C02091790331E0309372
:103440000503209304031092030310920203DC018E
:10345000ED91FC910190F081E02D60E40995FF244D
:10346000F394EE24E39480917503909176030C1706
:103470001D0709F442C0BFE1BF15D0F40E94F81542
:10348000809175039091760320917903E092050372
:10349000209304031092030310920203DC01ED91C8
:1034A000FC910190F081E02D60E40995FF24F394F4
:1034B00080917503909176036991DC01ED91FC9107
:1034C0000190F081E02D0995F394CDCF80917303A5
:1034D00090917403892B31F080918D0390918E032C
:1034E0000E94C319E0918703F09188039081809135
:1034F0008C038095892380836ECF0E94F81580917C
:10350000750390917603892B09F460C02091930391
:1035100030919403409195035091960360E074E2DA
:1035200084EF90E00E94982B205131094109510904
:1035300056954795379527952093B800DF91CF9101
:103540001F910F91FF90EF900895E0918503F09106
:103550008603808190918B03892B80830C171D0734
:1035600071F289912091730330917403232B19F028
:103570000E94AC18F3CF28E030E040E8E0918103EE
:10358000F091820390918903582F5423D9F05081F0
:10359000952B9083E0918303F09184039081509167
:1035A0008A03952B9083E0918303F09184035081EB
:1035B00090918A03909595239083469521503109E7
:1035C000E9F6CCCF508190959523E3CFE091870326
:1035D000F0918803808190918C03892B8083AECFFA
:1035E0001F93CF93DF93EC01162F8C8D9D8D892B2C
:1035F000B1F12EA93FA948AD59AD60E074E284EF66
:1036000090E00E94982B20513109410951095695AB
:103610004795379527952093B80066EA111167EA18
:10362000CE010E9461198C8D9D8D892B41F12AADAF
:103630003BAD4CAD5DAD60E074E284EF90E00E9484
:10364000982B2051310941095109569547953795D5
:1036500027952093B800DF91CF911F9108958A8D0F
:103660009B8D892B21F08CA99DA90E94C319EEA5E1
:10367000FFA590818BA9809589238083CECFEEA56D
:10368000FFA580819BA9892B8083E5CF089590E0D9
:1036900080E00895CF93DF93C3E3D0E02197B9F1A1
:1036A0006FE770E08AE00E94D50D61E070E080E095
:1036B00090E00E949D0E6FEF70E08AE00E94D50DB1
:1036C0000E94AB0C6FE770E08BE00E94D50D61E0CB
:1036D00070E080E090E00E949D0E6FEF70E08BE064
:1036E0000E94D50D0E94AB0C6FE770E089E00E944C
:1036F000D50D61E070E080E090E00E949D0E6FEFDC
:1037000070E089E00E94D50D0E94AB0CC7CFDF911D
:10371000CF910895CF93C091060390E080E00E947E
:10372000502BC81729F06C2F90E080E00E94582B96
:10373000C091070381E090E00E94502BC81729F048
:103740006C2F81E090E00E94582B86E093E0CF91AF
:10375000089520915F0330916003C901079697FD9A
:10376000079623E0959587952A95E1F720915D03CB
:1037700030915E03829FA001839F500D929F500D58
:10378000112470E060E080917703909178030C94AD
:10379000532E8F929F92AF92BF920F931F93CF930E
:1037A000DF93CDB7DEB7A1970FB6F894DEBF0FBE9B
:1037B000CDBF19A2423008F44AE08E010F5D1F4FC1
:1037C000842E912CB12CA12CA50194010E94982B40
:1037D000E62FB901CA01EA3044F5E05DD801EE9365
:1037E0008D01232B242B252B79F790E080E0109777
:1037F00069F0FD0101900020E9F73197AF014A1B04
:103800005B0BBD0189E593E00E94A80BA1960FB662
:10381000F894DEBF0FBECDBFDF91CF911F910F9106
:10382000BF90AF909F908F900895E95CD7CFCF92D3
:10383000DF92EF92FF92CF93DF936B017C016DE2F9
:1038400089E593E00E947711EC0166277727CB0189
:103850006C197D098E099F094AE00E94C91B8C0FD3
:103860009D1FDF91CF91FF90EF90DF90CF90089553
:10387000FC0101900020E9F73197AF01481B590B7B
:10388000BC0189E593E00C94A80BFF920F931F9362
:10389000CF93DF93EC01F62EFC0101900020E9F7B5
:1038A0003197E81BF90B09E513E086E08E9FB00124
:1038B0008F9F700D11247695679590E080E00E94AF
:1038C000712C9B01AC0160E070E080E892E40E9402
:1038D000C92B0E943B2CF801758764876F2D70E01F
:1038E00077876687CE01DF91CF911F910F91FF906F
:1038F0000C94381C0E944E2E1F920F920FB60F92FE
:1039000011248F939F938091E1009091E100937F28
:103910009093E10083FF0FC01092E90091E0909333
:10392000EB001092EC0092E39093ED001092E00215
:1039300098E09093F00082FF22C093E09093E9001A
:103940009091F200992319F09AE39093E8009091F6
:10395000D102992341F09091D10291509093D102DC
:10396000911101C05D9A9091DF02992341F09091ED
:10397000DF0291509093DF02911101C0289A84FFD9
:1039800018C08091E2008E7E81608093E200809179
:10399000E1008F7E8093E1008091D2028E7E806173
:1039A0008093D2029F918F910F900FBE0F901F9026
:1039B000189580FFF7CF8091E2008E7E8061809322
:1039C000E2008091E1008E7E8093E1008091D2023E
:1039D0008E7E8160E5CF1F920F920FB60F92112459
:1039E000CF92DF92EF92FF920F931F932F933F930B
:1039F0004F935F936F937F938F939F93AF93BF93F7
:103A0000EF93FF93CF93DF93CDB7DEB76C97DEBF15
:103A1000CDBF1092E9008091E80083FF25C068E0E7
:103A2000CE0145960E949B0B82EF8093E8008D8922
:103A300087FF39C09091E80090FFFCCF982F9076D7
:103A400009F034C19E894F89588D2F89F88C9111C6
:103A500031C0803861F58091D0028093F1001092DE
:103A6000F1008EEF8093E8006C960FB6F894DEBFFD
:103A70000FBECDBFDF91CF91FF91EF91BF91AF917D
:103A80009F918F917F916F915F914F913F912F9176
:103A90001F910F91FF90EF90DF90CF900F900FBE8E
:103AA0000F901F9018959EEF9093E800C7CF10924B
:103AB000F100D5CF913059F48111D3CF4130510568
:103AC00081F68091D0028D7F8093D002CACF93304F
:103AD00049F48111C6CF4130510519F68091D002C9
:103AE0008260F2CF953041F48091E80080FFFCCFF6
:103AF00020682093E300B5CF963009F0A9C00B8D64
:103B00001C8D22E01092E9001092CE021092CD029C
:103B1000F2122EC01092CC021092CB020E946A0BBD
:103B20001F8299E09983FA8291E09E8390EA9887B8
:103B30009AEF99872091CD023091CE02275F3F4FB7
:103B40003C832B838D831092E9001092CE02109259
:103B5000CD021093CC020093CB0249E050E0BE01AD
:103B60006F5F7F4F80E00E94440B0E946A0B79CF09
:103B70001093CC020093CB020E94810ADC011296C2
:103B80000D911C910115110509F451C1D801ED9158
:103B9000FC910480F581E02DBE016B5E7F4FC80172
:103BA0000995009709F03EC1F80100851185EACF1B
:103BB000F3E0FF120EC08F89882309F440C08230E1
:103BC00061F440E860E189E593E10E94E120811120
:103BD00048CF81E28093EB0047CF813029F440E861
:103BE0006BE08DE493E1F1CF833099F70E94810A75
:103BF000DC011296ED90FC908E010F5F1F4F680163
:103C0000E114F10479F0D701ED91FC910680F78180
:103C1000E02DB801C7010995080F111DF701E084D7
:103C2000F184EECFD8011C92F60101900020E9F753
:103C30003197BF016C197D0940E0C601C6CF67E32B
:103C400073E1FB01449150E080E80E94440B09CFEE
:103C5000973009F4BECF983021F481E08093F100D1
:103C600000CF993009F0FDCE837009F0B2CFEDE1BD
:103C7000F1E081E031E096E32191222371F080931D
:103C8000E9003093EB00DF0111972C912093EC00B9
:103C90009093ED008F5F873079F78EE78093EA008D
:103CA0001092EA008F898093E002DBCE8B8D9C8D91
:103CB0001092E9001092CE021092CD029093CC02A5
:103CC0008093CB02898D811192C08E899D89913A12
:103CD00049F4813209F07DCF47E050E069E071E0BE
:103CE00080E0B3CF913209F074CF833269F48F89C9
:103CF000988DB0E0A0E08093050190930601A09319
:103D00000701B0930801ADCE803269F48091E800DC
:103D100082FFFCCF67E089E091E00E949B0B8BEF74
:103D20008093E8009ECE823209F09BCE8F898093EB
:103D30001001EEEFFFE7859194918B3F9C4D51F17F
:103D4000E0E0F8E08091090190910A01A0910B0157
:103D5000B0910C01803B9440A105B105F1F4809134
:103D6000100180FD1AC0EE3F8AE0F80789F587E769
:103D700097E791838083809160008093CF0288E1F0
:103D80009BE00FB6F894A895809360000FBE9093C7
:103D9000600067CEEEEFFAE0D5CF80819181873762
:103DA000974709F05ECEA895809160008861809366
:103DB00060008091CF0280936000EE3F2AE0F2071E
:103DC00089F08091FE0A9091FF0A9183808349CE09
:103DD000808191818737980751F29093FF0A8093F1
:103DE000FE0AC5CF1092FF0A1092FE0A3ACE0E9438
:103DF000810ADC0112960D911C910115110509F43F
:103E0000E8CED801ED91FC910190F081E02DBE014A
:103E10006B5E7F4FC8010995811123CEF8010085A3
:103E20001185EBCF181619060CF41BCED2CEF1E09B
:103E3000FF12BECE6BE373E104CF1F920F920FB659
:103E40000F9211248F939F93AF93BF93EF93FF93A0
:103E50008091F6029091F702A091F802B091F902D8
:103E6000892B8A2B8B2BA1F19091ED02E091EE0230
:103E7000F091EF028081892780838091F6029091F2
:103E8000F702A091F802B091F902181619061A0665
:103E90001B069CF48091F6029091F702A091F80223
:103EA000B091F9020197A109B1098093F6029093AC
:103EB000F702A093F802B093F902FF91EF91BF913E
:103EC000AF919F918F910F900FBE0F901F901895FB
:103ED000809171008D7F809371008091ED02E0915F
:103EE000EE02F091EF029081809589238083E5CFE7
:103EF0001F920F920FB60F9211242F933F938F931F
:103F00009F93AF93BF9380919B0290919C02A0914D
:103F10009D02B0919E0230919A0223E0230F2D372B
:103F200058F50196A11DB11D20939A0280939B0222
:103F300090939C02A0939D02B0939E0280919F0259
:103F40009091A002A091A102B091A2020196A11DA0
:103F5000B11D80939F029093A002A093A102B09301
:103F6000A202BF91AF919F918F913F912F910F909E
:103F70000FBE0F901F90189526E8230F0296A11DE3
:103F8000B11DD2CF1F920F920FB60F9211242F9313
:103F90003F934F935F936F937F938F939F93AF93D1
:103FA000BF93EF93FF938091B900887F803609F427
:103FB0004AC0F0F5883209F4A7C018F5803109F439
:103FC0009BC0B8F4882309F4F9C0883009F494C080
:103FD000FF91EF91BF91AF919F918F917F916F91E1
:103FE0005F914F913F912F910F900FBE0F901F90B7
:103FF0001895883109F488C0803251F78093760291
:1040000014C0803409F49DC040F48033B9F3883380
:10401000F9F68093760285ECB0C0803509F485C04E
:10402000883509F496C0883499F60E944215D0CF9D
:10403000883909F48CC038F5883729F050F488366F
:1040400011F0803729F683E08093AA02109275025E
:1040500057C0883809F47BC0803919F0803809F0DE
:10406000B7CF80917502803208F071C0E09175027F
:1040700081E08E0F809375028091BB00F0E0EB5AD7
:10408000FD4F80833DC0803B39F0E0F4803A09F475
:1040900079C0883A09F09CCF84E08093AA021092FC
:1040A000540210925302E091A602F091A7020995E2
:1040B0008091530281110FC081E0809353021092CE
:1040C000330209C0803C09F4A6CF883C09F4A3CF91
:1040D000883B09F07DCFE091540281E08E0F809300
:1040E0005402F0E0ED5CFD4F80818093BB00909125
:1040F00054028091530229C0809199028093BB00A1
:1041000085EC8093BC0064CF9091980280919702D7
:10411000981758F5E091980281E08E0F80939802ED
:10412000F0E0E958FD4F8081E9CFE091980281E00D
:104130008E0F809398028091BB00F0E0E958FD4F0C
:10414000808390919802809197029817C8F285E831
:10415000D8CFE091980281E08E0F809398028091F1
:10416000BB00F0E0E958FD4F80838091A9028111E6
:104170005CCF81E08093A80284EA8093BC00109217
:10418000AA0226CF85EC8093BC001092AA028091EF
:104190007502803230F4E0917502F0E0EB5AFD4F89
:1041A00010826091750270E0E091A402F091A50286
:1041B00085E592E00995109275020ACF1092760279
:1041C00034CFEF92FF920F931F93CF93DF93F82E8C
:1041D000192FE62E042F81E0860F880F0E94160B00
:1041E00083E00E94160BCF2DD12FEC0EFD2EF11C7B
:1041F000CE15DF05B9F007FF13C0FE0184910E94C0
:10420000160B182F80E00E94160B81232196811136
:10421000EFCFDF91CF911F910F91FF90EF90089515
:104220008881EDCF81E0F5CFE8E0F3E013821282E0
:1042300088EE93E0A0E0B0E084839583A683B78303
:1042400087E291E0918380832FEF3FEF35872487CA
:10425000E9E5F3E01382128240E850E0558344839D
:1042600080E490E097838683518740879387828795
:10427000158A158614861786168681E0848B338B03
:10428000228B318B208B868B178A118E108E29E31F
:1042900031E03183208328E533E0338F228F158E80
:1042A000148E178E168E9FEF93A394A394E095A37C
:1042B0009CE096A396E097A390E594AB85AB089518
:1042C000CF93DF93CDB7DEB765970FB6F894DEBF17
:1042D0000FBECDBF789484B5826084BD84B5816003
:1042E00084BD85B5826085BD85B5816085BD8091C1
:1042F0006E00816080936E00109281008091810039
:104300008260809381008091810081608093810030
:104310008091800081608093800080919100826014
:1043200080939100809191008160809391008091B1
:1043300090008160809390008091C10084608093A0
:10434000C1008091C10082608093C1008091C10052
:1043500081608093C1008091C30081608093C3001D
:104360008091C00082608093C0008091C200816013
:104370008093C20080917A00846080937A0080915B
:104380007A00826080937A0080917A0081608093C5
:104390007A0080917A00806880937A001092E0021F
:1043A0001092D0021092D2028091D7008160809347
:1043B000D70080EA8093D80089B5806189BD89B52E
:1043C000826089BD09B400FEFDCF61E070E080E04D
:1043D00090E00E949D0E8091D8008F7C8061809338
:1043E000D8008091E000807F8093E0008091E10020
:1043F0008E7E8093E1008DE08093E200559A209AB2
:104400008091770390917803892B39F10E94A91B41
:1044100080915F039091600360915D0370915E03F2
:10442000813291050CF009C2AC014052510957FF8D
:1044300002C04F5F5F4F559547956357710977FFEE
:1044400002C06F5F7F4F75956795F0E2EF2EF12CFC
:1044500003E710E023E136E008C220915F033091CA
:104460006003C901079697FD079623E09595879508
:104470002A95E1F720915D0330915E03AC01429FE4
:10448000C001439F900D529F900D11240E94292D31
:104490009093780380937703892B09F0B7CF81E05D
:1044A00080936D03EE24E394F12CF0926C03E09280
:1044B0006B03F0926A03E092690362E082E10E947A
:1044C0007A0C62E083E10E947A0C62E084E10E944F
:1044D0007A0C62E085E10E947A0C62E087E00E943B
:1044E0007A0C62E088E00E947A0C61E08AE00E9427
:1044F0007A0C61E08BE00E947A0C61E085E00E941A
:104500007A0C6FEF70E089E00E94D50D6FEF70E0DC
:104510008AE00E94D50D6FEF70E08BE00E94D50D10
:1045200089E190E09093BD028093BC0288E090E026
:104530009093BF028093BE0228E130E03093C10225
:104540002093C00200E110E01093C3020093C20266
:10455000F092C502E092C4021092C6029093B40297
:104560008093B30282E090E09093B8028093B70208
:1045700086E090E09093BA028093B90282E0809343
:10458000BB0283E090E09093CA028093C90210922C
:10459000C8021092C70280E890E09093E2028093F4
:1045A000E1021093E4020093E3020E94F82A22E35E
:1045B00030E040E050E00E94662B685F7F4F8F4FF5
:1045C0009F4F7093E6026093E5021093E802009318
:1045D000E7020E94F82A24E030E040E050E00E9428
:1045E000662B6F5F7F4F8F4F9F4F7093EA026093F0
:1045F000E9021092EB0290E080E00E94502B809341
:10460000060381E090E00E94502B80930703809185
:10461000060390910703019631F41092070310925C
:1046200006030E948A1B82E10E94230C892B09F455
:104630001EC3F4E02F2E312C412C512CCE010196BB
:104640003C01CC24C394D12C80910401882309F42B
:104650003AC509E010E042E0B42E39E1E32EF12C36
:104660000E94A91BB0926D03D0926C03C0926B03A1
:10467000D0926A03C0926903A8E2B0E0B0936603E7
:10468000A09365034AE050E05093680340936703AA
:1046900081E691E00E94381C84E190E090936603EB
:1046A00080936503A8E2B0E0B0936803A09367032A
:1046B00086E691E00E94381C0E94C619B1E0B093D2
:1046C0006D0370E060E0802F0E94D50D64E670E01D
:1046D00080E090E00E949D0E88E00E94230C892BD0
:1046E00009F4EFC40E94A91BB0926D0361E070E071
:1046F00089E593E00E941F1310926C0310926B03E4
:1047000010926A031092690348E250E050936603E6
:10471000409365038AE090E0909368038093670379
:1047200081E691E00E94381CA4E1B0E0B0936603FA
:10473000A093650348E250E05093680340936703F9
:1047400086E691E00E94381C0E94C61951E0509301
:104750006D036FEF70E0802F0E94D50D64E670E06E
:1047600080E090E00E949D0E0F5F1F4F0C301105FE
:1047700014F009E010E088E00E94230C892B09F472
:10478000A0C481E0E81AF10809F06ACF29E1E22E1D
:10479000F12C0E94A91BD0926C03C0926B03D092A3
:1047A0006A03C092690391E090936D036EE18FE616
:1047B00091E00E94451C0E94C61970E060E089E00B
:1047C0000E94D50D70E060E08AE00E94D50D70E097
:1047D00060E08BE00E94D50D64E670E080E090E040
:1047E0000E949D0E88E00E94230C892B09F469C465
:1047F0000E94A91B0E94C6196FEF70E089E00E9419
:10480000D50D6FEF70E08AE00E94D50D6FEF70E07C
:104810008BE00E94D50D64E670E080E090E00E949D
:104820009D0E88E00E94230C892B09F44AC4A1E064
:10483000EA1AF10809F0ADCF10CFAC01405451098C
:1048400057FF02C04F5F5F4F5595479562557109FD
:1048500077FF02C06F5F7F4F7595679510E4E12E7B
:10486000F12C02E510E023EF37E089E593E00E94A8
:10487000221482E080937A038091750390917603ED
:10488000892B09F4E9C080915F03909160038097C0
:1048900009F0E0C08CE3809379031092AC0210928F
:1048A000AB0210920303109202031092AA0281E05D
:1048B0008093A9021092A80261E082E00E944C0C51
:1048C00061E083E00E944C0C8091B9008E7F809360
:1048D000B9008091B9008D7F8093B90088E48093FE
:1048E000B80085E48093BC0085ED9BE09093A7021F
:1048F0008093A60286ED9BE09093A5028093A4028C
:104900008091800387FD1EC061E00E947A0C61E007
:10491000809180030E944C0C61E070E080E090E0A8
:104920000E949D0E60E0809180030E944C0C6AE022
:1049300070E080E090E00E949D0E61E08091800335
:104940000E944C0C8091750390917603892B09F499
:1049500042C120918F033091900340919103509177
:10496000920360E074E284EF90E00E94982B205163
:104970003109410951095695479537952795209357
:10498000B80064E08FE096E00E94B31860915F0386
:10499000615089E593E00E94611964E08BE096E044
:1049A0000E94B31880917A0360E1813009F064E1DC
:1049B00089E593E00E94611964E087E096E00E9437
:1049C000B31880915D0390915E038038910509F0E2
:1049D0002DC180915F03909160038032910509F0B1
:1049E00011C164E083E096E00E94B31869ED89E5A7
:1049F00093E00E94611980917A0362E2813009F0AC
:104A000061EF89E593E00E94611966E087EF95E028
:104A10000E94B3188091750390917603892B09F455
:104A20001CC12091930330919403409195035091C0
:104A3000960360E074E284EF90E00E94982B20518E
:104A40003109410951095695479537952795209386
:104A5000B80025CD8DE31FCF61E080917E030E94D9
:104A60007A0C61E080917F030E947A0C80917E0332
:104A7000082E000C990BFC01E456FC4EE491F0E08A
:104A8000EE0FFF1FE257FC4E2591349130938603C1
:104A900020938503FC01E159FC4EE491E0938B03E4
:104AA00080917F03082E000C990BFC01E456FC4E0C
:104AB000E491F0E0EE0FFF1FE257FC4EA591B49198
:104AC000B0938803A0938703FC01E159FC4EE49165
:104AD000E0938C038C91E82BEC938091730390917D
:104AE0007403892B09F434C01FB7F8948091A30292
:104AF000811127C0EDEAF3E18491E0E8F3E19491BC
:104B0000E82FF0E0EE0FFF1FE751FA4FA591B491A7
:104B1000EC91E92321F461E081E10E944C0C61E019
:104B200081E10E947A0C8CB580618CBD8CB580646B
:104B30008CBD61E08FE00E947A0C61E080E10E9410
:104B40007A0C8091A3028F5F8093A3021FBFD8CEFF
:104B500061E080917C030E947A0C61E080917D038A
:104B60000E947A0C80917C03082E000C990BFC01AA
:104B7000E456FC4EE491F0E0EE0FFF1FE257FC4ECE
:104B8000259134913093820320938103FC01E159F4
:104B9000FC4EE491E093890380917D03082E000C84
:104BA000990BFC01E456FC4EE491F0E0EE0FFF1F80
:104BB000E257FC4EA591B491B0938403A093830374
:104BC000FC01E159FC4EE491E0938A038C91E0955D
:104BD000E823EC9395CE8091730390917403892B15
:104BE00031F080918D0390918E030E94C319E09162
:104BF0008703F0918803908180918C0380958923AD
:104C00008083BFCE8034910509F0F0CE63E080E070
:104C100096E00E94B31880917A036FE9813009F021
:104C20006FEC89E593E00E946119E0CE8036910532
:104C300009F0DCCE80915F0390916003409709F00A
:104C4000D5CE63E08DEF95E00E94B31880917A0392
:104C500060E1813031F36FEAE4CFE0918703F091B6
:104C60008803808190918C03892B808318CC62E02B
:104C7000962E08E210E07AE0C72ED12CE4E1EE2E69
:104C8000F12C0E94A91B90926D0361E070E089E510
:104C900093E00E941F1310926C0310926B0310920A
:104CA0006A03109269031093660300936503D09220
:104CB0006803C092670381E691E00E94381CF0927D
:104CC0006603E0926503109368030093670386E62A
:104CD00091E00E94381C0E94C61970E060E08AE0F2
:104CE0000E94D50D0E94A91B90926D03AA24A39443
:104CF000B12CB0926C03A0926B03B0926A03A092A5
:104D000069031093660300936503D0926803C09211
:104D1000670381E691E00E94381CF0926603E092FE
:104D20006503109368030093670386E691E00E9491
:104D3000381C0E94C61964E670E080E090E00E9492
:104D40009D0E6FEF70E08AE00E94D50D70E060E08C
:104D50008BE00E94D50D0E94A91B90926D0361E02B
:104D600070E089E593E00E941F1310926C0310928B
:104D70006B0310926A031092690310936603009309
:104D80006503D0926803C092670381E691E00E94B8
:104D9000381CF0926603E092650310936803009359
:104DA000670386E691E00E94381C0E94C61964E6FB
:104DB00070E080E090E00E949D0E6FEF70E08BE06D
:104DC0000E94D50D70E060E089E00E94D50D0E9440
:104DD000A91B90926D03B0926C03A0926B03B092EA
:104DE0006A03A09269031093660300936503D0924F
:104DF0006803C092670381E691E00E94381CF0923C
:104E00006603E0926503109368030093670386E6E8
:104E100091E00E94381C0E94C61964E670E080E0B0
:104E200090E00E949D0E6FEF70E089E00E94D50D2A
:104E300028CF1092C1021092C00267C1A8E3B0E06F
:104E4000B093C102A093C00272C11092BD02109231
:104E5000BC027DC140E850E05093BD024093BC02CB
:104E600088C1A0E8B0E0B093E202A093E1020E9402
:104E7000F82A22E330E040E050E00E94662B685FB1
:104E80007F4F8F4F9F4F7093E6026093E5020E9421
:104E9000F82AA20191010E94662B6F5F7F4F8F4F0E
:104EA0009F4F7093EA026093E902D7C14AE00E94E3
:104EB000C91B52C24AE00E94C91B1DC38091C60291
:104EC000811113C04091C0025091C1026091BC0297
:104ED0007091BD02A0E1EA2EF12C08E010E025EE71
:104EE00032E189E593E00E9422148091C60281306C
:104EF000B1F44091C0025091C1026091BC02709126
:104F0000BD02F8E0EF2EF12C00E110E025ED32E1DA
:104F100089E593E00E94221482E08093C60280918A
:104F2000BB02811113C04091B5025091B60260914D
:104F3000B1027091B202E2E0EE2EF12C08E010E036
:104F400023ED32E189E593E00E9422148091EB0287
:104F5000811113C04091E5025091E6026091E10297
:104F60007091E20230E1E32EF12C00E110E023EB3E
:104F700032E189E593E00E9422148091EB028130B6
:104F800099F44091E5025091E6026091E10270913E
:104F9000E20228E0E22EF12C00E110E025ED32E102
:104FA00089E593E00E9422146091AD027091AE02F7
:104FB0008091AF029091B0020E943B2C90E4E92EC8
:104FC000F12C00E810E023EB3EE050E040E089E502
:104FD00093E00E9422142DEC3CEC4CEC5DE36091DC
:104FE000AD027091AE028091AF029091B0020E942A
:104FF000C92B4B015C0120E030E04EEF52EC0E94E7
:10500000362C87FD48C08092AD029092AE02A092ED
:10501000AF02B092B00260910001709101018091E5
:105020000201909103010E943B2C80E4E82EF12CB8
:1050300000E810E023EB3AE050E040E089E593E03F
:105040000E9422142DEC3CEC4CEC5DE360910001DD
:105050007091010180910201909103010E94C92B7E
:105060004B015C0120E030E0A9010E94362C87FD55
:105070001BC08092000190920101A0920201B092A7
:1050800003010E94C61980E090E0892B09F4DCCA74
:105090000E940000D9CA1092AD021092AE02109286
:1050A000AF021092B002B7CF80E090E0A0E0B3E48E
:1050B0008093000190930101A0930201B09303013A
:1050C000E0CF109204018091C602823071F449E170
:1050D00050E05093BD024093BC0288E190E0909371
:1050E000C1028093C0021092C60282E10E94230C8A
:1050F000892B59F48091C0029091C102049797FDC9
:1051000098CE9093C1028093C00285E10E94230C47
:10511000892B69F48091C0029091C1020496893371
:1051200091050CF08BCE9093C1028093C00284E174
:105130000E94230C892B59F48091BC029091BD02EE
:10514000049797FD82CE9093BD028093BC0283E1C9
:105150000E94230C892B69F48091BC029091BD02BE
:105160000496813891050CF075CE9093BD02809322
:10517000BC0287E00E94230C892BB9F48091BB020A
:10518000823099F41092BB028091BC029091BD02D2
:105190009093B2028093B1028091C0029091C102BB
:1051A00008969093B6028093B5028091BB0281115C
:1051B0000FC08091B1029091B20206969093B20214
:1051C0008093B102813891051CF082E08093BB028C
:1051D0008091EB02823031F580E890E09093E2021A
:1051E0008093E1020E94F82A22E330E040E050E0A0
:1051F0000E94662B685F7F4F8F4F9F4F7093E60230
:105200006093E5020E94F82AA20191010E94662B98
:105210006F5F7F4F8F4F9F4F7093EA026093E90259
:105220001092EB028091EB02813019F482E08093BE
:10523000EB028091EB02811110C08091E10290910C
:10524000E2022091E9023091EA02821B930B97FD62
:1052500008CE9093E2028093E1028CEB92E00E94F0
:105260000B0A892B81F08091C9029091CA02B1E0AA
:10527000B093C60201979093CA028093C902B0937B
:10528000EB020E944A1B81EB92E00E940B0A892BE1
:1052900089F08091C7029091C80222E02093BB025E
:1052A00021E02093EB020A969093C8028093C702F4
:1052B0000E944A1B8091C9029091CA0297FF76C052
:1052C0000091C7021091C80264EF71E080E090E0A5
:1052D0000E949D0E8091060390910703801791070D
:1052E00030F410930703009306030E948A1B0DE11C
:1052F000A02EB12C80E2882E912C94E0E92EF12C86
:1053000000E310E00E94A91B41E040936D03D0929E
:105310006C03C0926B03D0926A03C092690360E190
:105320008CE791E00E94451CB0926603A092650351
:1053300090926803809267038BE891E00E94381C8A
:105340006091C7027091C802072E000C880B990B60
:1053500097FFACCD0E94171CF0926603E0926503A4
:10536000109368030093670386E891E00E94381C5D
:10537000609106037091070390E080E04AE00E948C
:10538000C91B0E94C61988E00E94230C892B09F0D2
:10539000B9CF1092C8021092C70283E090E09093B8
:1053A000CA028093C90251E0509304010E94A91BD4
:1053B00010926603109265031092680310926703BF
:1053C00081E080936D03D0926C03C0926B03D09206
:1053D0006A03C09269038091C7029091C8028A3023
:1053E0009105ACF49F938F938091CA028F93809123
:1053F000C9028F9383E991E09F938F937F926F927D
:105400000E945A2E0FB6F894DEBF0FBECDBF80911A
:10541000C7029091C8029C012A5031092A353105F2
:10542000A8F49F938F938091CA028F938091C902B1
:105430008F938BEA91E09F938F937F926F920E945C
:105440005A2E0FB6F894DEBF0FBECDBF8091C702B3
:105450009091C8029C012456310924383340A8F4A5
:105460009F938F938091CA028F938091C9028F93EB
:1054700082EC91E09F938F937F926F920E945A2EBD
:105480000FB6F894DEBF0FBECDBF8091C7029091DA
:10549000C8028131A7E29A07ACF09F938F93809165
:1054A000CA028F938091C9028F9388ED91E09F93F8
:1054B0008F937F926F920E945A2E0FB6F894DEBFA0
:1054C0000FBECDBFC3010E94381C8AE090E09093CC
:1054D00066038093650390936803809367036091EC
:1054E000C7027091C802072E000C880B990B97FF1A
:1054F000E1CC0E94171C12E0A12EB12C912C812C22
:105500008091C9029091CA02881699060CF0D6CCF7
:10551000B0E1EB2EF12C08E010E025EE32E140E3A3
:1055200050E0B50189E593E00E9422149FEF891AAB
:10553000990AA8E0AA0EB11CE3CF89E391E0909309
:105540005A038093590380917703909178030097D1
:1055500011F00C94C52D08958F929F92AF92BF9237
:10556000CF92DF92EF92FF92CF93DF93EC016881AD
:1055700079818A819B81611571058105910521F4ED
:1055800064E279ED8BE597E02DE133EF41E050E007
:105590000E94662B49015A019B01AC01A7EAB1E4C4
:1055A0000E94852B6B017C01ACEEB4EFA501940148
:1055B0000E94932BC60ED71EE81EF91EF7FE06C0EA
:1055C00081E0C81AD108E10880E8F80AC882D982C7
:1055D000EA82FB82C701B6019F77DF91CF91FF90EE
:1055E000EF90DF90CF90BF90AF909F908F900895F5
:1055F0008F929F92AF92BF92CF92DF92EF92FF92E3
:105600006091120170911301809114019091150124
:10561000611571058105910521F464E279ED8BE551
:1056200097E02DE133EF41E050E00E94662B490105
:105630005A019B01AC01A7EAB1E40E94852B6B01E2
:105640007C01ACEEB4EFA50194010E94932BC60E31
:10565000D71EE81EF91EF7FE06C081E0C81AD10861
:10566000E10880E8F80AC0921201D0921301E0929A
:105670001401F0921501C701B6019F77FF90EF90DA
:10568000DF90CF90BF90AF909F908F9008956093E0
:1056900012017093130180931401909315010895E2
:1056A000F999FECF92BD81BDF89A992780B50895EA
:1056B000262FF999FECF1FBA92BD81BD20BD0FB62E
:1056C000F894FA9AF99A0FBE01960895052E97FB61
:1056D0001EF400940E947D2B57FD07D00E94982B4A
:1056E00007FC03D04EF40C947D2B509540953095DB
:1056F00021953F4F4F4F5F4F08959095809570953E
:1057000061957F4F8F4F9F4F08950E94BA2BA59FA1
:10571000900DB49F900DA49F800D911D11240895AC
:10572000B7FF0C94852B0E94852B821B930B089549
:10573000A1E21A2EAA1BBB1BFD010DC0AA1FBB1F95
:10574000EE1FFF1FA217B307E407F50720F0A21B07
:10575000B30BE40BF50B661F771F881F991F1A9474
:1057600069F760957095809590959B01AC01BD019E
:10577000CF010895A29FB001B39FC001A39F700DF8
:10578000811D1124911DB29F700D811D1124911D49
:1057900008955058BB27AA270E94E12B0C94E92CAE
:1057A0000E94DB2C38F00E94E22C20F039F49F3F5D
:1057B00019F426F40C94D82C0EF4E095E7FB0C9425
:1057C000D22CE92F0E94FA2C58F3BA1762077307FC
:1057D0008407950720F079F4A6F50C941C2D0EF49F
:1057E000E0950B2EBA2FA02D0B01B90190010C01F1
:1057F000CA01A0011124FF27591B99F0593F50F409
:10580000503E68F11A16F040A22F232F342F442760
:10581000585FF3CF469537952795A795F040539558
:10582000C9F77EF41F16BA0B620B730B840BBAF028
:105830009150A1F0FF0FBB1F661F771F881FC2F793
:105840000EC0BA0F621F731F841F48F487957795A7
:105850006795B795F7959E3F08F0B0CF9395880F61
:1058600008F09927EE0F9795879508950E94AE2C22
:1058700008F481E008950E94422C6894B1110C94C0
:105880001D2D08950E94022D88F09F5798F0B92F82
:105890009927B751B0F0E1F0660F771F881F991F65
:1058A0001AF0BA95C9F714C0B13091F00E941C2DBE
:1058B000B1E008950C941C2D672F782F8827B85FCE
:1058C00039F0B93FCCF3869577956795B395D9F7BD
:1058D0003EF490958095709561957F4F8F4F9F4FC7
:1058E0000895E89409C097FB3EF4909580957095D3
:1058F00061957F4F8F4F9F4F9923A9F0F92F96E91C
:10590000BB279395F695879577956795B795F11190
:10591000F8CFFAF4BB0F11F460FF1BC06F5F7F4F2D
:105920008F4F9F4F16C0882311F096E911C077233F
:1059300021F09EE8872F762F05C0662371F096E848
:10594000862F70E060E02AF09A95660F771F881F17
:10595000DAF7880F9695879597F90895990F0008BB
:10596000550FAA0BE0E8FEEF16161706E807F90731
:10597000C0F012161306E407F50798F0621B730BCC
:10598000840B950B39F40A2661F0232B242B252B4D
:1059900021F408950A2609F4A140A6958FEF811DF0
:1059A000811D089597F99F6780E870E060E0089591
:1059B0009FEF80EC089500240A9416161706180627
:1059C0000906089500240A94121613061406050603
:1059D0000895092E0394000C11F4882352F0BB0F94
:1059E00040F4BF2B11F460FF04C06F5F7F4F8F4FF7
:1059F0009F4F089557FD9058440F551F59F05F3F32
:105A000071F04795880F97FB991F61F09F3F79F0E0
:105A100087950895121613061406551FF2CF469562
:105A2000F1DF08C0161617061806991FF1CF8695E4
:105A30007105610508940895E894BB2766277727C8
:105A4000CB0197F90895EE0FFF1F0590F491E02D1B
:105A500009940F931F93CF93DF938230910510F435
:105A600082E090E0E0919903F0919A0330E020E029
:105A7000B0E0A0E0309799F42115310509F44AC04F
:105A8000281B390B24303105D8F58A819B8161159B
:105A9000710589F1FB0193838283FE0111C040816E
:105AA00051810281138148175907E0F048175907BF
:105AB00099F4109761F012960C93129713961C9319
:105AC0003296CF01DF91CF911F910F9108950093EE
:105AD000990310939A03F4CF2115310551F0421721
