:100000000C94E4090C940C0A0C940C0A0C940C0A41
:100010000C940C0A0C940C0A0C940C0A0C940C0A08
:100020000C940C0A0C940C0A0C94D81D0C94471ECA
:100030000C940C0A0C940C0A0C940C0A0C940C0AE8
:100040000C940C0A0C940C0A0C940C0A0C940C0AD8
:100050000C940C0A0C940C0A0C940C0A0C94D420EA
:100060000C940C0A0C940C0A0C940C0A0C940C0AB8
:100070000C940C0A0C940C0A0C940C0A0C940C0AA8
:100080000C9479200C940C0A0C940C0A0C940C0A15
:100090000C941E210C940C0A0C940C0A0C940C0A5F
:1000A0000C940C0A0C940C0A0C940C0A0001030723
:1000B0000F1F3F7F0080C0E0F0F8FCFE0000000052
:1000C000003E5B4F5B3E3E6B4F6B3E1C3E7C3E1CDE
:1000D000183C7E3C181C577D571C1C5E7F5E1C0024
:1000E000183C1800FFE7C3E7FF0018241800FFE7DB
:1000F000DBE7FF30483A060E2629792926407F059E
:100100000507407F05253F5A3CE73C5A7F3E1C1CB3
:1001100008081C1C3E7F14227F22145F5F005F5F73
:1001200006097F017F006689956A6060606060945F
:10013000A2FFA29408047E040810207E2010080864
:100140002A1C08081C2A08081E101010100C1E0C6F
:100150001E0C30383E3830060E3E0E060000000001
:100160000000005F00000007000700147F147F14E8
:10017000242A7F2A1223130864623649562050002D
:1001800008070300001C2241000041221C002A1C19
:100190007F1C2A08083E0808008070300008080804
:1001A0000808000060600020100804023E51494524
:1001B0003E00427F400072494949462141494D3342
:1001C0001814127F1027454545393C4A49493141A9
:1001D000211109073649494936464949291E000077
:1001E00014000000403400000008142241141414CC
:1001F0001414004122140802015909063E415D59B8
:100200004E7C1211127C7F494949363E41414122C0
:100210007F4141413E7F494949417F090909013EEA
:10022000414151737F0808087F00417F4100204011
:10023000413F017F081422417F404040407F021C23
:10024000027F7F0408107F3E4141413E7F0909093A
:10025000063E4151215E7F09192946264949493206
:1002600003017F01033F4040403F1F2040201F3FCC
:100270004038403F63140814630304780403615951
:10028000494D43007F414141020408102000414193
:10029000417F04020102044040404040000307083F
:1002A0000020545478407F2844443838444444283B
:1002B000384444287F385454541800087E090218E2
:1002C000A4A49C787F0804047800447D400020406A
:1002D000403D007F1028440000417F40007C0478AE
:1002E00004787C080404783844444438FC182424F6
:1002F0001818242418FC7C08040408485454542476
:1003000004043F44243C4040207C1C2040201C3CF2
:100310004030403C44281028444C9090907C4464E9
:10032000544C44000836410000007700000041367C
:10033000080002010204023C2623263C1EA1A16102
:10034000123A4040207A3854545559215555794134
:100350002254547842215554784020545579400C09
:100360001E527212395555555939545454593955EC
:100370005454580000457C410002457D420001452F
:100380007C407D1211127DF0282528F07C545545C3
:10039000002054547C547C0A097F4932494949322F
:1003A0003A4444443A324A4848303A4141217A3A40
:1003B00042402078009DA0A07D3D4242423D3D400C
:1003C00040403D3C24FF2424487E4943662B2FFCBB
:1003D0002F2BFF0929F620C0887E09032054547969
:1003E000410000447D413048484A32384040227A3A
:1003F000007A0A0A727D0D19317D2629292F2826B7
:100400002929292630484D402038080808080808BE
:100410000808382F10C8ACBA2F102834FA00007B17
:10042000000008142A142222142A1408550055002A
:1004300055AA55AA55AAFF55FF55FF000000FF0019
:10044000101010FF00141414FF001010FF00FF1014
:1004500010F010F0141414FC001414F700FF000046
:10046000FF00FF1414F404FC141417101F10101FC5
:10047000101F1414141F00101010F0000000001FB3
:10048000101010101F10101010F010000000FF10BE
:100490001010101010101010FF10000000FF1400BA
:1004A00000FF00FF00001F10170000FC04F41414EC
:1004B0001710171414F404F40000FF00F7141414B8
:1004C00014141414F700F7141414171410101F1038
:1004D0001F141414F4141010F010F000001F101F5B
:1004E0000000001F14000000FC140000F010F010C9
:1004F00010FF10FF141414FF141010101F00000040
:1005000000F010FFFFFFFFFFF0F0F0F0F0FFFFFF43
:100510000000000000FFFF0F0F0F0F0F384444389A
:1005200044FC4A4A4A347E02020606027E027E02E9
:1005300063554941633844443C04407E201E2006F4
:10054000027E020299A5E7A5991C2A492A1C4C7231
:1005500001724C304A4D4D303048784830BC625AB8
:10056000463D3E494949007E0101017E2A2A2A2A48
:100570002A44445F444440514A444040444A514024
:100580000000FF0103E080FF000008086B6B0836E5
:1005900012362436060F090F060000181800000056
:1005A0001010003040FF0101001F01011E00191D45
:1005B0001712003C3C3C3C00000000000000000022
:1005C0002300260029002C002F0000000002000953
:1005D0000F0000030401000C0000000000000000F8
:1005E00000000000000000000000000000240027C0
:1005F000002A002D003000DB40A4A62EAFDA0281D5
:10060000DA1281DA02818F2000A1C8D300408DAEBA
:10061000D580A8000060000000000000000000007D
:1006200000000000E00000000000000000000000EA
:10063000000001E0000000000000000000000000D9
:100640000001F000000000000000000000000000B9
:1006500003F00000000000000000000000000007A0
:10066000F00000000000000000000000000007F89B
:10067000000000000000000000000000000FF80073
:10068000000003C0007E000001E0007F0FF80000C2
:100690000003C000FE000001E000FFEFF8000000D2
:1006A00003C000FE000001E000FFFFF800000003AF
:1006B000C000F00000000F007FFE7FC0000003C0FC
:1006C00000F00000000F003FFE7FF83FF1FBCFFC81
:1006D000FEF3BC3DEFE01FFE7FFF7FFBFFDFFEFE72
:1006E000FFBC3DEFE01FC6FFFF7FFBFFDFFEFEFF0D
:1006F000BC3DEFE00FE3C7FE787BC3DE1EF0FFBC1E
:100700003DEF0007FF87FC787BC3DE1EF0F83C3D21
:10071000EF0001FFFFF0007BC3C01EF0F03C3DEF97
:100720000001F37FE03FFBC3CFFEF0F03C3DEF0064
:1007300003E33F807FFBC3DFFEF0F03C3DEF0007AB
:10074000E73C00787BC3DE1EF0F03C3DEF0007FF86
:10075000BE00787BC3DE1EF0F03C3DEF0007FFFEDD
:1007600000787BC3DE1EF0F03C3DEF000FFFFE0083
:100770007FFBFFDFFEF0F03FFDEFE00FFFFF007FAC
:10078000FBFFDFFEF0F03FFDEFE00FF9FF003E79E9
:10079000F9CF9EF0F01F3DE7E01FF1FF00000000E1
:1007A00000000000000000001F80FF007FFFFFFF2F
:1007B000FFFFFFFFFFFFE01C007F007FFFFFFFFE4A
:1007C000B46D888D18E000001F007FFFFFFFFE95CD
:1007D000AD7DB577E000000F007FFFFFFFFEA5AD08
:1007E0009D8D19E0000006007FFFFFFFFEB5ADED17
:1007F000B57EE00000000000018000000000000065
:10080000000000038000000000000000000007C09E
:1008100000000000000000000007C0000000000011
:10082000000000000FC00000000000000000001FDA
:10083000E00000000000000000001FE000000000D9
:1008400000000000003FE000000000000000000089
:100850003FF00000000000000000007FF0000000FA
:10086000000000001FF87FF0000000000000003FC3
:10087000FE7FF0000000000000003FFF7FF000005E
:1008800000000000001FFFFBE0000000000000006F
:100890000FFFF9FFC00000000000000FFFF9FFF894
:1008A00000000000000007FFF1FFFF000000000053
:1008B0000003FC73FFFF80000000000001FE3FFF0B
:1008C000FF80000000000000FF1E0FFF000000007E
:1008D0000000007FFE1FFC000000000000003FFF42
:1008E000FFF8000000000000000FDFFFE000000044
:1008F000000000001F19FFC0000000000000003FC2
:100900003CFF00000000000000007E7CF8000000BA
:1009100000000000007FFE7C0000000000000000DE
:10092000FFFFFC0000000000000000FFFFFE0000D1
:10093000000000000000FFFFFE00000000000000BB
:1009400001FFEFFE0000000000000001FFCFFE00ED
:1009500000000000000003FF07FE00000000000090
:100960000003FC07FE0000000000000003F003FE8F
:1009700000000000000000018000FE0000000000F8
:1009800000000000007E00000000000000000000E9
:100990003E000000000000000000000C000000000D
:1009A0000000078000FC000003C000000007800179
:1009B000FC000003C0000000078001FC000003C031
:1009C000000000078001E00000001E00000007801A
:1009D00001E00000001E007FE3F79FF9FDE7787B50
:1009E000DFC0FFF7FFBFFDFDFF787BDFC0FFF7FF34
:1009F000BFFDFDFF787BDFC0F0F787BC3DE1FF78EE
:100A00007BDE00F0F787BC3DE1F0787BDE0000F78D
:100A100087803DE1E0787BDE007FF7879FFDE1E0A6
:100A2000787BDE00FFF787BFFDE1E0787BDE00F03A
:100A3000F787BC3DE1E0787BDE00F0F787BC3DE165
:100A4000E0787BDE00F0F787BC3DE1E0787BDE00FC
:100A5000FFF7FFBFFDE1E07FFBDFC0FFF7FFBFFD5A
:100A6000E1E07FFBDFC07CF3F39F3DE1E03E7BCF25
:100A7000C00000000000000000000000FFFFFFFFBA
:100A8000FFFFFFFFFFFFC0FFFFFFFFFD68DB111A45
:100A900031C0FFFFFFFFFD2B5AFB6AEFC0FFFFFFD6
:100AA000FFFD4B5B3B1A33C0FFFFFFFFFD6B5BDBC2
:100AB0006AFDC0000000000000000000000000000F
:100AC00000000020000800000000000000000000FE
:100AD000000000000000000000000800000000000E
:100AE0000000000000000002800000001000000074
:100AF000000020000000000EA00000000000000028
:100B0000000000000000003A0000000000000000AB
:100B10000000000000000055080000000000000078
:100B20000000000000000074400000000000100001
:100B300040000000020000D0008000000000000023
:100B400000000000000040EA8000000000000000FB
:100B500000000000000000A00000000000000000F5
:100B600000000000000000D008800000000000002D
:100B700000000000000000A40000000000000000D1
:100B800000000000000000C00A000000000000009B
:100B900000400000000000482100000000000008A4
:100BA00000002000000000400400004000000000A1
:100BB0000000000000000020000000000000000015
:100BC00000000000000000081200000000044000C7
:100BD000000000000000000000000000005BB40006
:100BE000000000000000000540000000017D5A8068
:100BF00000000000080000000000000003EB494076
:100C00000000000000000000000000000BBAA41467
:100C10000000000000000000000000002ED5510080
:100C20000080000000000000000000001B6A044477
:100C3000000000000000000000000000FFB55001AF
:100C40000000000000000000000000016AAA02206D
:100C5000400000000000000000000002DD554004DC
:100C6000000000000000000000000003F548110033
:100C7000200000000000002000000006B6A2842032
:100C800000000000000400000000000FEA90400097
:100C900090000000000000000000800DBAA42002B7
:100CA000044000000000000000000007EA81008806
:100CB00040000040000000000000001EAA2808209C
:100CC00004000000000000000000003BB48122800E
:100CD00000004000000000000000002ED21048007C
:100CE000020000000000000000000037594500002D
:100CF00000000000000080000000001AC42800006E
:100D000002000000000000000000002F7542800477
:100D100000000000001084000000003AA80010103D
:100D200042000000000000000000003FA524004039
:100D300000000000020490000000006A5000400023
:100D4000040000000002A0000000003D88890002AD
:100D50000200000000008000000000356200010871
:100D6000000000000057F5000000005A8820002015
:100D70004A0000000000800000000036A080000251
:100D8000000000000002A0000000002D120002116F
:100D90000A000000000490000000001AC000004497
:100DA00044000200000000000000002D29040002A1
:100DB0002804000000108400000000150020082115
:100DC00010000001000000000040000CAA00010813
:100DD000A8000000000080000000000A800010044D
:100DE000400000000000000000000005510002214A
:100DF00030000000000040000000000A0421081438
:100E0000400000000000000000000005508000418C
:100E1000400000000000000000000001220000006F
:100E200080000000000000000000000280000209B5
:100E30000000000000000000000000005088202298
:100E4000020000000000000000000000840000021A
:100E500000000000000200000000000010000088F8
:100E60000004000000000000000000000900002055
:100E7000000000020000000000000800024804001A
:100E8000000000000000000000000000008241009F
:100E9000000000000000000000000000001114002D
:100EA0000000000000000000004000000000000002
:100EB0000000000000000000000000000000000032
:100EC00000000020000800000000000000000000FA
:100ED000000000000000000000000800000000000A
:100EE0000000000000000002800000001000000070
:100EF000000020000000000EA00000000000000024
:100F0000000000000000003A0000000000000000A7
:100F10000000000000000055080000000000000074
:100F200000000000000000744000000000001000FD
:100F300040000000020000D000800000000000001F
:100F400000000000000040EA8000000000000000F7
:100F500000000000000000A00000000000000000F1
:100F600000000000000000D0088000000000000029
:100F700000000000000000A40000000000000000CD
:100F800000000000000000C00A0000000000000097
:100F900000400000000000482100000000000008A0
:100FA000000020000000004004000040000000009D
:100FB0000000000000000020000000000000000011
:100FC0000000000000000008120000000000000007
:100FD0000000000000000000000000000000000011
:100FE000000000000000000540000000001C1C0084
:100FF0000000000008000000000000000040014068
:1010000000000000000000000000000002000020BE
:1010100000000000000000000000000008000018B0
:10102000008000000000000000000000000000043C
:101030000000000000000000000000000000003C74
:10104000800000000000000000000000000007FE1B
:1010500080000000000000000000000000007FFF92
:101060008000000000000000000000010000FFFF01
:10107000C000000000000020000000020003FFF894
:10108000200000000004000000000002000FFCFF30
:10109000A000000000000000000080040017FE8097
:1010A000104000000000000000000004007FFE80EF
:1010B00010000040000000000000000800FFE800F1
:1010C00008000000000000000000000001FF800098
:1010D00008004000000000000000001003FE0000B7
:1010E0000400000000000000000000100FFC0000E1
:1010F0000400000000008000000000000FF000006D
:101100000400000000000000000000001FF00000CC
:101110000000000000108400000000103FE000000C
:101120000000000000000000000000103FC00000B0
:101130000400000002049000000000107F80000006
:10114000040000000002A000000000107F0000006A
:101150000400000000008000000000107E0000007D
:10116000000000000057F50000000000FE00000035
:10117000000000000000800000000000FD000000F2
:10118000040000000002A00000000011FC00001894
:10119000040000000004900000000001FA000010AC
:1011A000000002000000000000000009F80007C075
:1011B000080400000010840000000001F8000F0087
:1011C000100000010000000000400007F800FC00D3
:1011D000100000000000800000000003F80FF00085
:1011E00020000000000000000000000179FF8000E6
:1011F000200000000000400000000000FFFC000094
:10120000000000000000000000000000FFF80000E7
:101210000000000000000000000000005F800000EF
:1012200000000000000000000000000006000000B8
:1012300000000000000000000000000000000000AE
:101240000200000000000000000000000000000894
:101250000000000000020000000000000400001078
:101260000004000000000000000000000200000078
:10127000000000020000000000000800003006002E
:101280000000000000000000000000000007F00067
:10129000000000000000000000000000000000004E
:1012A00000000000000000000040000000000000FE
:1012B0000000000000038007E00DB04DB26FD6FBC8
:1012C000FF0FF807E003C00E70781E200C20080006
:1012D000000000AA550880451020201040C01810BA
:1012E000402020451080C0F8C0C0E0F8FFF8E0C002
:1012F000C0F8C0800080C080F0C080C000080B0033
:10130000020202010009040000010202000005249B
:101310000010010524010101042402060524060031
:10132000010705810310004009040100020A0000C2
:101330000007050202400000070583024000000488
:1013400003090412010002EF02014041233680002C
:10135000010102030141726475696E6F204C4C43B8
:101360000041726475696E6F204C656F6E617264C6
:101370006F002200FF21000408020110408040108D
:1013800020408040800802040180402010020110AB
:1013900080102040402000000000250028002B0085
:1013A0002E003100040404040403040502020202B6
:1013B00004030202020206060606060604040202EE
:1013C000020404037022672D11241FBECFEFDAE060
:1013D000DEBFCDBF12E0A0E0B1E0EAE3F8E602C074
:1013E00005900D92A036B107D9F724E0A0E6B2E04F
:1013F00001C01D92AC3DB207E1F719E0C3EED9E0A0
:1014000004C02197FE010E940130C23ED107C9F7F6
:101410000E94BC220C9410340C9400000895FC012E
:1014200080912C04882311F13FB7F89482E08093D7
:10143000E9002091F200822F90E01816190614F4AA
:1014400081E090E0882339F0289844E640932B040B
:101450004091F1004083222339F02091F2002111C4
:1014600003C02BE62093E8003FBF08958FEF9FEF66
:1014700008952FB7F89483E08093E9009091E800F5
:10148000892F807295FF04C09091F20080E4891B3F
:101490002FBF08958091230481110DC082E08093B5
:1014A0001F0484E0809320041092220410922104EF
:1014B00081E0809323048FE194E00895CF93DF933C
:1014C0001F92CDB7DEB76983DC01ED91FC910280FC
:1014D000F381E02D41E050E0BE016F5F7F4F099541
:1014E0000F90DF91CF91089583E08093E900809180
:1014F000F200882319F08AE38093E80008950E949F
:10150000390A90E00895CF93DF931F92CDB7DEB7ED
:10151000FC018485958597FD08C02FEF3FEF358747
:1015200024870F90DF91CF910895CE0101960E94FC
:101530000F0A019719F4898190E0F3CF8FEF9FEFA5
:10154000F0CF0F931F93CF93DF931F92CDB7DEB7EA
:101550008C01FC018485958597FF0BC0CE01019617
:101560000E940F0A019771F4898190E0F801958734
:101570008487F801848595850F90DF91CF911F9125
:101580000F9108958FEF9FEFF1CFFC018485958532
:1015900097FD0BC09FB7F89482E08093E90080919B
:1015A000F2009FBF90E0019608959FB7F89482E003
:1015B0008093E9008091F2009FBF90E008954091F0
:1015C000190450911A0420911704309118044217FD
:1015D0005307B4F49091E8009570E1F39091E8001E
:1015E00092FD19C08093F1008091190490911A0422
:1015F00001968F739927892B19F48EEF8093E80059
:101600008091190490911A04019690931A04809382
:10161000190481E0089580E00895DF92EF92FF922F
:101620000F931F93CF93DF93D82E8A01EB017B0199
:10163000E40EF51ECE15DF0559F0D7FE12C0FE01EF
:1016400084910E94DF0A21968111F4CF0FEF1FEFE2
:10165000C801DF91CF911F910F91FF90EF90DF9024
:1016600008958881EECF0F931F93CF93DF931F923E
:10167000CDB7DEB782E0898342E450E06DEF72E1DE
:1016800080E80E940D0B0E944A0ADC0112960D911F
:101690001C910115110589F0D801ED91FC91028092
:1016A000F381E02DBE016F5F7F4FC801099597FD63
:1016B00004C0F80100851185ECCF89810F90DF917E
:1016C000CF911F910F910895615030F02091F1005A
:1016D000FC0120830196F8CF289884E680932B04A0
:1016E0000895AF92BF92CF92DF92EF92FF920F9345
:1016F0001F93CF93DF936C017B018B01040F151FA8
:10170000EB015E01AE18BF08C017D10759F069910F
:10171000D601ED91FC910190F081E02DC601099573
:10172000892B79F7C501DF91CF911F910F91FF9020
:10173000EF90DF90CF90BF90AF90089508950895F7
:1017400081508F3008F047C0E82FF0E0E655F44FA5
:101750000C940130C70BCB0BB90BBF0BC30BEB0BBE
:10176000EB0BEB0BCE0BD40BD80BDC0BE20BEB0B28
:10177000E60B809180008F778093800008958091A0
:1017800080008F7DF9CF80918000877FF5CF84B571
:101790008F7784BD089584B58F7DFBCF80919000B5
:1017A0008F77809390000895809190008F7DF9CF7E
:1017B00080919000877FF5CF8091C0008F778093D4
:1017C000C00008958091C0008F7DF9CF8091C20044
:1017D000877F8093C2000895CF93DF93282F30E056
:1017E000F901E653FA4F8491F901E958FC4ED4917E
:1017F000F901EC55FC4EC491CC23A1F081110E945B
:10180000A00BEC2FF0E0EE0FFF1FE454FA4FA59170
:10181000B491EC91ED2381E090E009F480E0DF9158
:10182000CF91089580E090E0FACF1F93CF93DF939C
:10183000282F30E0F901E653FA4F8491F901E95875
:10184000FC4ED491F901EC55FC4EC491CC23A9F087
:10185000162F81110E94A00BEC2FF0E0EE0FFF1F5E
:10186000EA56FC4EA591B4918FB7F894EC91111102
:1018700008C0D095DE23DC938FBFDF91CF911F91FD
:101880000895DE2BF8CFCF93DF9390E0FC01E95869
:10189000FC4E24918C559C4EFC0184918823D1F000
:1018A00090E0880F991FFC01E751FA4FA591B49180
:1018B000FC01EA56FC4EC591D491623071F49FB799
:1018C000F8943C91822F809583238C93E8812E2B72
:1018D00028839FBFDF91CF9108958FB7F894EC9143
:1018E0002E2B2C938FBFF6CF4F925F926F927F92E9
:1018F0008F929F92AF92BF92CF92DF92EF92FF9220
:101900000F931F93CF93DF9300D000D01F92CDB7DA
:10191000DEB78C0149835A836B837C8380911101EC
:101920008530C9F08F3F09F48AC00F900F900F9057
:101930000F900F90DF91CF911F910F91FF90EF903B
:10194000DF90CF90BF90AF909F908F907F906F90DF
:101950005F904F900895E3ECF3E124912D8327FDF0
:10196000E4CF61E085E00E94430C2D81222321F029
:101970008D81823009F0F5C04801B12CA12C60E0C6
:1019800072E18AE790E0A50198010E94302E2901BA
:101990003A0168E478EE81E090E0A50198010E94A8
:1019A000302EDA01C9010197A109B1096C017D014D
:1019B0002D81222309F471C1223009F063C18F3FC8
:1019C0009105A105B10509F00CF4AFCF64E274EF05
:1019D00080E090E0A50198010E94302E215031094D
:1019E000410951092F3F31054105510509F008F41E
:1019F0009CCF62E17AE780E090E0A50194010E942B
:101A0000302E69017A0181E0C81AD108E108F10895
:101A10002FEFC216D104E104F10409F00CF461C106
:101A2000730162019AE0F594E794D794C7949A956C
:101A3000D1F781E0C81AD108E108F10852C185E068
:101A400080931101E3ECF3E184918D838F3F09F4DE
:101A50006CCF813041F170F0833009F442C08430A2
:101A600009F461C08D8187FD60CF61E085E00E944F
:101A7000430C7ECF14BC15BC84B5826084BD85B593
:101A8000816085BDE9EAF3E1E491F0E0EE0FFF1F2C
:101A9000EA56FC4E85919491ECE7F3E1E491E093F2
:101AA00032041D825ECF10928000109281008091DE
:101AB00081008860809381008091810081608093A3
:101AC0008100E9EAF3E1E491F0E0EE0FFF1FEA564E
:101AD000FC4E85919491ECE7F3E1E491E0933104BD
:101AE00040CF1092900010929100809191008860F8
:101AF0008093910080919100816080939100E9EA48
:101B0000F3E1E491F0E0EE0FFF1FEA56FC4E859101
:101B100094919093300480932F04ECE7F3E1E491E7
:101B2000E0932E041ECF1092C0001092C10080914D
:101B3000C10088608093C1008091C1008160809362
:101B4000C100E9EAF3E1E491F0E0EE0FFF1FEA568D
:101B5000FC4E85919491ECE7F3E1E491E0932D0440
:101B600000CFB12CA12C60E072E18AE790E0A501E2
:101B700098010E94302E69017A0181E0C81AD108CB
:101B8000E108F10891E0C114D10421E0E206F1047A
:101B900084F068E478EE81E090E0A50198010E946D
:101BA000302E69017A0181E0C81AD108E108F108F4
:101BB00093E02D81213039F480918100887F892B39
:101BC000809381008EC08D81833039F480919100A3
:101BD000887F892B8093910084C02D81243009F067
:101BE00080C08091C100887F892B8093C10079C01B
:101BF000D0928900C092880020933B0430933C042B
:101C000040933D0450933E0480916F008260809326
:101C10006F008BCED0929900C09298002093370429
:101C2000309338044093390450933A048091710002
:101C300082608093710079CE730162012AE0F5948D
:101C4000E794D794C7942A95D1F721E0C21AD10816
:101C5000E108F10895E041C08D818330D9F28430EC
:101C600009F063CEC092CF00209333043093340444
:101C700040933504509336048091720080648093C1
:101C8000720053CE8FEFC816D104E104F10411F0B5
:101C900008F0AFCE21E02D8324C093E08FEFC8166B
:101CA000D104E104F104C9F0C4F062E17AE780E014
:101CB00090E0A50194010E94302E69017A0181E033
:101CC000C81AD108E108F1082FEFC216D104E104C7
:101CD000F10411F00CF0B0CF94E085B5887F892B2A
:101CE00085BDD801AA0FBB1F29813A814B815C8138
:101CF0000E944F2E28EE33E040E050E00E94622E1A
:101D00008D81813009F474CF0CF0A6CF81110DCEF6
:101D1000C7BC20933F043093400440934104509348
:101D2000420480916E00826080936E00FECD1F930E
:101D3000CF93DF93182FEB0161E00E94430CCF3F5C
:101D4000D10539F461E0812FDF91CF911F910C947F
:101D5000150CE12FF0E0E653FA4FE491E150EF303B
:101D600008F07FC0F0E0E954F14F0C940130C60E4A
:101D7000CE0ED30EDD0EE70E310F310F310FF10E07
:101D8000FB0E050F0F0F1C0F310F240F84B5806859
:101D900084BDC7BDDF91CF911F91089584B5806246
:101DA00084BDC8BDF7CF809180008068809380009B
:101DB000D0938900C0938800EDCF8091800080622D
:101DC00080938000D0938B00C0938A00E3CF8091F2
:101DD0008000886080938000D0938D00C0938C0039
:101DE000D9CF80919000806880939000D093990023
:101DF000C0939800CFCF8091900080628093900034
:101E0000D0939B00C0939A00C5CF809190008860CA
:101E100080939000D0939D00C0939C00BBCF809195
:101E2000C00080688093C0008091C0008F7B809349
:101E3000C000C093CF00AECF8091C000806280937D
:101E4000C000C093D000A6CF8091C200886080936C
:101E5000C2008091C2008B7F8093C200C093D200E9
:101E600099CFCF37D10509F06DCF60E06CCF3FB788
:101E7000F8948091110390911203A0911303B091F3
:101E8000140326B5A89B05C02F3F19F00196A11D8C
:101E9000B11D3FBFBA2FA92F982F8827BC01CD01B4
:101EA000620F711D811D911D42E0660F771F881F13
:101EB000991F4A95D1F708958F929F92AF92BF9242
:101EC000CF92DF92EF92FF924B015C010E94370F9D
:101ED0006B017C010E94370F6C197D098E099F09E7
:101EE000683E734081059105A8F321E0821A9108AC
:101EF000A108B10888EEC80E83E0D81EE11CF11CD1
:101F000081149104A104B10429F7FF90EF90DF90B0
:101F1000CF90BF90AF909F908F9008958F929F9297
:101F2000AF92BF92CF92DF92EF92FF920F931F93E7
:101F3000CF93DF936C017B018A018091100188238C
:101F400009F45CC080912C04882309F457C0809167
:101F50001E0480FF05C08091E00082608093E00055
:101F6000E801B12C8AEFA82E93E0892E2AE3922E65
:101F7000209711F4BB20D9F10E94390A81110AC0BF
:101F8000AA94AA20D9F161E070E080E090E00E947C
:101F90005C0FEECF8C171D0611F00CF08C2F9FB745
:101FA000F8948092E9002091E80025FD02C09FBFCF
:101FB000DFCF282F30E0C21BD30BF701815020F078
:101FC00041914093F100FACFE20EF31EBB2021F0C5
:101FD0009092E800B12CEBCF8091E80085FDE7CF2F
:101FE0009092E800BB24B394209709F3F3CF5D9857
:101FF00084E680931D04101611063CF081E090E009
:10200000F6019383828310E000E0C801DF91CF9155
:102010001F910F91FF90EF90DF90CF90BF90AF9006
:102020009F908F9008950895FC016370658B848163
:10203000958126813781613039F0633029F09187AD
:102040008087338722870895318720879387828707
:1020500008952F923F924F925F926F927F928F924C
:102060009F92AF92BF92CF92DF92EF92FF920F9327
:102070001F93CF93DF93CDB7DEB769970FB6F89470
:10208000DEBF0FBECDBF998F888F5B011A01D22EA4
:102090001F830E833701C982DC0158962D913C9134
:1020A00059972115310509F004C118968D919C911D
:1020B0001997681779070CF0C0C11A968D919C91F9
:1020C0001B97481759070CF0B8C18C2C912CFB01B9
:1020D00026E0C29EE00DF11D1124F987E8871E1647
:1020E0001F060CF0AAC1A40193E0440F551F9A9556
:1020F000E1F75D874C87CA01820D931D18161906FA
:102100000CF09BC157968C91811104C05FEA5D155C
:1021100008F4D394A88DB98DED91FC9111970284A8
:10212000F385E02DCD010995F5013596F98BE88B06
:10213000BB82AA8225018CEB90E08A199B099C0145
:1021400045E0D49E200D311D11243B8B2A8BEA895A
:10215000FB89E40DF51D24913D822C82D12CC12CEC
:10216000622F70E07F876E87E88DF98DA081B18145
:1021700020FF7CC0F981F13009F069C01C96ED9117
:10218000FC912E813F81A1014C0D5D1DB201888D16
:10219000998D0995EE85FF85F595E7952E2F4FEFE3
:1021A000C41AD40A6C817D81680D791D7D836C838E
:1021B00078E0C716D104A1F68FEF481A580AAA8111
:1021C000BB81A80DB91DBB83AA83E889F989E415F1
:1021D000F50509F0BCCF2E813F8126153705A9F002
:1021E000A88DB98DED91FC91B981B13009F051C044
:1021F000B5016B5F7F4F0088F189E02D830128E0F6
:1022000030E0A101888D998D0995A88DB98DED914A
:10221000FC9111970688F789E02DCD0169960FB6DC
:10222000F894DEBF0FBECDBFDF91CF911F910F910C
:10223000FF90EF90DF90CF90BF90AF909F908F90E6
:102240007F906F905F904F903F902F9009941E96D3
:10225000ED91FC91EE80FF80840194014C815D81C1
:102260006A817B81888D998D099594CF2E813F81DC
:102270002615370509F48ECF3981313029F41C96A3
:10228000ED91FC9193017FCF1E96ED91FC9173012E
:10229000E3CF68857985681979090684F785E02D8B
:1022A00073010C851D859401A101888D998D099577
:1022B000ACCFF90134969491329745915491D91A43
:1022C000B7E0DB9E400D511D1124F9012591349199
:1022D000398B288BFA0145905490FA01329664901C
:1022E0003196C490329614913196049139813230EE
:1022F00008F48AC0E12E012E000CFF08402F002EAA
:10230000000C550B59874887A88DB98DED91FC912C
:1023100011970284F385E02DCD010995B9818B2EAB
:10232000912CE89CC001E99C900DF89C900D112423
:10233000FC01EA0DFB1DFF87EE871C82D12C712C5E
:102340009B868A869101200F311D07FD3A953D8BB2
:102350002C8BA501410F511D17FD5A955F8B4E8B9C
:102360007C1408F052CF872D90E048855985480F9E
:10237000591F6A857B85469F9001479F300D569F68
:10238000300D1124D901A20DB31DBD87AC87EE8598
:10239000FF85FB83EA83B12CA12C2C893D89280F72
:1023A000391F3B8B2A8B8C818A0DA61408F040C004
:1023B000877041F4C2010196E889F989E40DF51DA1
:1023C000D4902C01D7FE15C0A88DB98DED91FC914C
:1023D000B981B130F1F40484F585E02D2E813F817F
:1023E0004A895B896E897F896A0D7B1D888D998DED
:1023F0000995DD0CEFEFAE1ABE0A2A813B81280D4C
:10240000391D3B832A83CFCF19861886F12CE12C06
:102410007BCF0684F785E02DEE80FF808401940158
:102420004C855D856A817B81888D998D0995E1CF89
:102430003C81360D3C83739493CF69960FB6F89424
:10244000DEBF0FBECDBFDF91CF911F910F91FF90E7
:10245000EF90DF90CF90BF90AF909F908F907F9044
:102460006F905F904F903F902F900895AF92BF92E2
:10247000CF92EF92FF920F931F93CF93DF93EC01D4
:10248000262F888D998D009709F04FC06A30C9F4C6
:102490001D861C868C8998E0899F900111248E8569
:1024A0009F85820F931F9F878E8781E090E0DF9149
:1024B000CF911F910F91FF90EF90CF90BF90AF9071
:1024C00008956D3091F3CC888E898823C1F08C8576
:1024D0009D85E6E0CE9E800D911D1124488559858D
:1024E0004817590764F44E855F851D861C86F8E001
:1024F000CF9EC0011124840F951F9F878E87EA8885
:10250000FB88088919894E855F856C857D85CE019C
:102510000E9429102C898C859D8536E0239F800D93
:10252000911D11249D878C87C0CF6A3069F41D8668
:102530001C86FC013696E4912C898E859F85E29F4E
:10254000800D911D1124AFCF6D3009F4AECFFC0189
:1025500034963491631708F4A8CF3196E491E617C6
:1025600008F4A3CFFC01329645915491E62FE31B6A
:10257000FF0B37E03E9F50013F9FB00C1124A40E8B
:10258000B51EF501329634913196E4913323A1F1D1
:10259000EE2391F1CC88F5013596E4914E894423E0
:1025A00001F10E2E000CFF0BE30FF11DCE9EA001DA
:1025B000CF9E500D11246C857D85460F571F688571
:1025C0007985641775076CF44E855F851D861C86BA
:1025D0000696FC018491C89E400D511D11245F8711
:1025E0004E87EA88FB88088919894E855F856C8546
:1025F0007D85CE010E942910F5013496E4912C8945
:102600008C859D85E29F800D911D11248BCF6F924B
:102610007F928F929F92AF92BF92CF92DF92EF9272
:10262000FF920F931F93CF93DF93EC016B015A013D
:1026300039014801E881F9810284F385E02D09958B
:10264000E881F9810288F389E02D87019301A501D2
:10265000B601CE010995A501480D591D41505109FA
:10266000E881F9810288F389E02D9301B601CE015A
:102670000995E881F9810088F189E02D9401A5018F
:10268000B601CE010995C60CD71CB601615071097F
:10269000E881F9810088F189E02D9401A501CE013E
:1026A0000995E881F9810688F789E02DCE01DF914F
:1026B000CF911F910F91FF90EF90DF90CF90BF903F
:1026C000AF909F908F907F906F9009946F927F92C0
:1026D0008F929F92AF92BF92CF92DF92EF92FF9232
:1026E0000F931F93CF93DF935C01EB016A014901C4
:1026F00038018701DC01ED91FC916217730719F530
:10270000641675062CF0962D872D3A01C92ED82E09
:102710009601261937092F5F3F4F048CF58DE02D68
:10272000A301BE01C5010995DF91CF911F910F91C2
:10273000FF90EF90DF90CF90BF90AF909F908F90E1
:102740007F906F9008954615570591F42617370727
:1027500024F0892D4B01C22FD82F9E012819390949
:102760002F5F3F4F068CF78DE02DA601B401DACF25
:102770000284F385E02D0995D501ED91FC91048843
:10278000F589E02D83019401A601BE01C5010995DB
:10279000D501ED91FC910688F789E02DC501DF9107
:1027A000CF911F910F91FF90EF90DF90CF90BF904E
:1027B000AF909F908F907F906F900994EF92FF92CF
:1027C0000F931F93DC011A960D911C911B9718967D
:1027D0002D913C911997ED91FC9100A0F1A1E02D74
:1027E0007B0150E040E070E060E009951F910F919F
:1027F000FF90EF9008954F925F926F927F928F9229
:102800009F92AF92BF92CF92DF92EF92FF920F937F
:102810001F93CF93DF936C012B015A0139014801BB
:10282000DC01ED91FC910284F385E02D0995E20134
:10283000640C751CD601ED91FC91C615D7055CF4AE
:102840000088F189E02D87019401A501BE01C60130
:1028500009952196EFCF0688F789E02DC601DF9113
:10286000CF911F910F91FF90EF90DF90CF90BF908D
:10287000AF909F908F907F906F905F904F90099452
:102880008F929F92AF92BF92CF92DF92EF92FF9280
:102890000F931F93CF93DF93EC015B014A01690112
:1028A000E881F9810284F385E02D099595012C0DCD
:1028B0003D1D21503109E881F9810488F589E02D19
:1028C00078018401A401B501CE010995E881F9815F
:1028D0000688F789E02DCE01DF91CF911F910F91EE
:1028E000FF90EF90DF90CF90BF90AF909F908F9030
:1028F00009948F929F92AF92BF92CF92DF92EF9204
:10290000FF920F931F93CF93DF93EC015B014A017A
:1029100069017801E881F9810284F385E02D099548
:10292000C80CD91C860101501109E881F98104887D
:10293000F589E02D9501A401B501CE010995E88145
:10294000F9810688F789E02DCE01DF91CF911F91A3
:102950000F91FF90EF90DF90CF90BF90AF909F903E
:102960008F900994EF92FF920F931F93DC01ED91EA
:10297000FC9100A0F1A1E02D09951F910F91FF900E
:10298000EF9008950F931F93DC01ED91FC91068C5D
:10299000F78DE02D09951F910F9108950F931F93C7
:1029A000DC01ED91FC91048CF58DE02D09951F91D2
:1029B0000F910895DC01ED91FC910084F185E02DEB
:1029C00009943F924F925F926F927F928F929F9263
:1029D000AF92BF92CF92DF92EF92FF920F931F932D
:1029E000CF93DF9300D000D0CDB7DEB75C013B01C1
:1029F0006A014901280187E0480E511C93E0559473
:102A000047949A95E1F7CA018E0D9F1D9A83898399
:102A1000F12CE12C312C1C821B828B819C818770D4
:102A20009927330C892B61F4EB81FC8183E0F595C8
:102A3000E7958A95E1F7EE0DFF1DE80DF91D34903D
:102A400037FE0AC021E030E0A6016B817C81660D73
:102A5000771DC5010E94DA148B819C8101969C83AD
:102A60008B8308171907C9F69FEFC91AD90AE40C16
:102A7000F51C89819A81C816D90669F60F900F90C6
:102A80000F900F90DF91CF911F910F91FF90EF90DA
:102A9000DF90CF90BF90AF909F908F907F906F907E
:102AA0005F904F903F9008952F923F924F925F9288
:102AB0006F927F928F929F92AF92BF92CF92DF924E
:102AC000EF92FF920F931F93CF93DF9300D000D02C
:102AD00000D0CDB7DEB73C016A013E832D83FC8276
:102AE000EB825801A41AB50AB7FE03C0B194A194B1
:102AF000B1088D809E80861A970A97FE03C0919434
:102B0000819491088A149B045CF0902F812F0D8191
:102B10001E819D838E839C2D8D2D6B01692F782FB7
:102B20000C151D055CF09D818E817E836D83692F60
:102B3000782F902F812F8601C92ED82E1601201AAA
:102B4000310A2B012D813E81421A530A57FE03C0E0
:102B5000519441945108710137FE03C03FEFE31ACD
:102B6000F30AF594E7948D819E81861797075CF5AB
:102B7000A1E0B0E0BA83A983C016D1064CF1D3011D
:102B8000ED91FC910484F585E02D2B813C81A80119
:102B90006D817E818A149B041CF04D815E81B80199
:102BA000C3010995E418F508F7FE0AC02D813E819E
:102BB00089819A81280F391F3E832D83E20CF31CF3
:102BC0000F5F1F4FD9CF2FEF3FEF3A832983D4CF29
:102BD00026960FB6F894DEBF0FBECDBFDF91CF9122
:102BE0001F910F91FF90EF90DF90CF90BF90AF902B
:102BF0009F908F907F906F905F904F903F902F901D
:102C0000089585ED8093BC008091BC0084FDFCCFCD
:102C100010921C0308952091C502260F3327331FFD
:102C200021323105ECF420911C03FC0190E080E09E
:102C3000243069F082E00895A091C5022191AC0191
:102C40004B555D4FA40FB52FB11D2C9301968617E0
:102C500098F38091C502680F6093C50280E00895E3
:102C600081E00895E0911E0380911D03E81730F480
:102C7000F0E0EB57FD4F808190E008958FEF9FEFDC
:102C8000089590911E0380911D032FEF3FEF981739
:102C900048F4E92FF0E0EB57FD4F208130E09F5FD3
:102CA00090931E03C901089580911D0390911E0306
:102CB000891B990B0895CF92DF92EF92FF920F93A9
:102CC0001F93CF93DF937C01CB018A0120914604AF
:102CD000222389F0EB016B01C40ED51ECC15DD0556
:102CE00069F06991D701ED91FC910190F081E02D9F
:102CF000C7010995F3CF642F0E940B16C801DF911D
:102D0000CF911F910F91FF90EF90DF90CF9008959A
:102D1000CF93DF931F92CDB7DEB76983209146042E
:102D20002223F9F020914304203258F021E030E0D2
:102D3000FC013383228390E080E00F90DF91CF91FC
:102D4000089580914404E82FF0E0EB59FD4F9981FC
:102D500090838F5F809344048093430481E090E0EC
:102D6000ECCF61E0CE0101960E940B16F7CF2091C7
:102D7000430481E0213208F044C080911C0381119A
:102D8000FCCF8091450492E090931C0391E09093D6
:102D90001B039FEF9093E80210920A03209309030C
:102DA000A5E6B2E0E9EEF2E090E0291331C010921E
:102DB0000B0390910B03880F892B80930B03809159
:102DC0001A03813049F510921A0380910B03809306
:102DD000BB008091BC0083FDF8CF85EC8093BC00E4
:102DE00080911C038230E1F38091E8028F3FB1F0C3
:102DF0008091E8028032A1F08091E802803391F066
:102E000084E0109244041092430410924604089502
:102E10003D9131939F5FC9CF85EEE0CF80E0F1CF48
:102E200082E0EFCF83E0EDCFEF92FF920F931F93FD
:102E3000CF93DF93EC01EC80FD806E157F050CF0E5
:102E400070C057FF04C0240F351F50E040E08E8152
:102E50009F81FA01E20FF31F8E179F071CF49C015C
:102E6000241B350B121613060CF05BC0922F842F17
:102E70008695869586958E9DD0018F9DB00D1124E7
:102E80006A0F7B1FAE8DBF8DA60FB71F477049F12C
:102E900088E0841B482F682F70E0FB01EC54FF4F43
:102EA000E491281708F063C0621B71092FEF30E02E
:102EB00002C0359527956A95E2F7E22301301105A6
:102EC00039F0B0F10230110561F58C91E82702C0AC
:102ED0008C91E82BEC93941720F12C813D81A20F6B
:102EE000B31FE92FE41BE83078F00230110521F51B
:102EF0008E2F9C9190959C932C813D81A20FB31FA6
:102F000088508830B0F7E770EE2359F0F0E0E455D0
:102F1000FF4FE49101301105F9F010F10230110575
:102F200019F1DF91CF911F910F91FF90EF900895CC
:102F3000E0958C91E823CECF81E00115110509F4CD
:102F400080E081959E2F8C932C813D81A20FB31F31
:102F500098509830C0F7D7CF8C91E82BEC93E1CF05
:102F6000E0958C91E823FACF8C91E827F7CF0130D8
:102F7000110509F4ADCFE0F20230110509F4A5CF37
:102F8000AE0DBF1DAECF0F931F93CF93DF9377FF8F
:102F900004C0260F371F70E060E0DC011496CD916D
:102FA000DC91FB01E20FF31FCE17DF071CF49E013B
:102FB000261B370B121613064CF5FA0157FD3796F0
:102FC000A3E0F595E795AA95E1F7EC9FD001ED9F79
:102FD000B00DFC9FB00D11246A0F7B1FDC015E96C3
:102FE000ED91FC91E60FF71F4770552781E090E0C7
:102FF00001C0880F4A95EAF7482F0130110559F0B2
:10300000A8F02E0F3F1F02301105E1F0DF91CF91A4
:103010001F910F9108952E0F3F1FE217F307B1F391
:103020008191DF011197842B8C93F7CF80952E0F20
:103030003F1FE217F30751F39191DF011197982396
:103040009C93F7CFE217F30709F38191DF01119702
:1030500084278C93F7CF0F931F93FA01DC015596C9
:103060004C9155974230E9F04330A1F1413061F580
:1030700014964D915C91DA01AE1BBF0BFD01E21B72
:10308000F30B77FD0BC0DC0116964D915C91641734
:10309000750724F4AB01BF010E94C3171F910F9164
:1030A000089514964D915C91DA01A61BB70BBD01F2
:1030B00061507109DC0116964D915C91DA01AE1BED
:1030C000BF0BFD01E21BF30B77FDE8CFAF010E94C0
:1030D0001417E4CF16964D915C91DA01A61BB70B3D
:1030E000BD0161507109CDCF0F931F93FA01DC012F
:1030F00055964C9155974230A9F0433091F14130AB
:1031000019F514964D915C91DA01AE1BBF0BFD01D0
:103110003197F7FD04C0AB01BF010E9414171F9146
:103120000F91089514964D915C91DA01A61BB70B8F
:10313000BD01DC0116964D915C91DA01AE1BBF0B0F
:10314000FD013197621B730BF7FDE9CFDC01169689
:103150004D915C91E417F50714F7AF010E94C31776
:10316000DECF16964D915C91DA01A61BB70BBD011F
:10317000621B730BCECFFC0177FD64C08085918507
:10318000681779070CF05EC057FD5CC08285938597
:10319000481759070CF056C085898230B1F083304A
:1031A00029F1813041F484819581841B950BAB0119
:1031B000BC01615071092130310509F108F443C0A7
:1031C0002230310509F463C0089584819581DC01C2
:1031D000A61BB70BBD016150710986819781DC0187
:1031E000A41BB50BAD0141505109E5CF86819781F4
:1031F000861B970BBA01AC0141505109DCCFCA01C3
:1032000057FD0796A3E095958795AA95E1F7A481C8
:10321000B5818A9F90018B9F300D9A9F300D1124AC
:10322000620F731F068CF78DE02DE60FF71F4770B6
:10323000552721E030E001C0220F4A95EAF780814E
:10324000822B80830895CA0157FD079633E0959538
:1032500087953A95E1F7A481B5818A9F90018B9F6C
:10326000300D9A9F300D1124620F731F068CF78D5D
:10327000E02DE60FF71F4770552781E090E001C071
:10328000880F4A95EAF7809590818923DACFCA01A1
:1032900057FD079623E0959587952A95E1F7A48138
:1032A000B5818A9F90018B9F300D9A9F300D11241C
:1032B000620F731F068CF78DE02DE60FF71F477026
:1032C000552721E030E001C0220F4A95EAF78081BE
:1032D0008227B7CF08958EBD00000DB407FEFDCF45
:1032E0008EB50895FF920F931F93CF93DF93F82E1F
:1032F000D92FC62F8091B6049091B704009709F496
:1033000052C02091BA0431E0309346042093450422
:103310001092440410924304DC01ED91FC91019061
:10332000F081E02D60E009950F2D1D2FD1E0FF24E5
:10333000F394C1508091B6049091B704CF3F61F1EE
:10334000D032C8F00E94B7168091B6049091B704AD
:103350002091BA04F092460420934504109244044C
:1033600010924304DC01ED91FC910190F081E02D7D
:1033700060E00995D1E08091B6049091B704F8011E
:103380006491DC01ED91FC910190F081E02D0995B3
:10339000DF5F0F5F1F4FCDCFDF91CF911F910F9157
:1033A000FF900C94B716E091C604F091C704908189
:1033B0008091CC048095892380830F2D1D2FC150CF
:1033C00008F438C0F80184912091B4043091B50418
:1033D000232B29F00E946B190F5F1F4FF0CF28E0BD
:1033E00030E040E8E091C204F091C3049091CA0437
:1033F000582F5423D9F05081952B9083E091C40429
:10340000F091C50490815091CB04952B9083E0916D
:10341000C404F091C50450819091CB0490959523FC
:103420009083469521503109E9F6D6CF5081909589
:103430009523E3CFDF91CF911F910F91FF900895D6
:103440001F93CF93DF93EC018C8D9D8D009721F11D
:10345000162F28A131E030934604209345041092A2
:10346000440410924304DC01ED91FC910190F08141
:10347000E02D60E009958C8D9D8DDC01ED91FC9136
:103480000190F081E02D612F09958C8D9D8DDF914C
:10349000CF911F910C94B716ACA5BDA59C918AA99C
:1034A000809589238C938A8D9B8D892B31F0862F73
:1034B000DF91CF911F910C946B1928E030E080E8E8
:1034C000A8A5B9A598A9462F4823C1F04C91942BE3
:1034D0009C93AAA5BBA59C9149A9942B9C93AAA5B2
:1034E000BBA54C9199A9909594239C9386952150C6
:1034F000310931F7DF91CF911F9108954C9190954B
:103500009423E6CF8CBD9DBD0895EF92FF920F935B
:103510001F93CF93DF938091B6049091B704892BCA
:1035200009F493C02091D0043091D1044091D20489
:103530005091D30460E074E284EF90E00E94622E28
:1035400020513109410951095695479537952795DD
:103550002093B80065E082E793E10E9472196091C0
:103560009E0461508AE994E00E94201A2091A004F0
:103570003091A104C901079697FD079623E0959520
:1035800087952A95E1F720919E0430919F04829FB0
:103590008001839F100D929F100D1124C091B804DB
:1035A000D091B9048091B6049091B7040C0F1D1FFF
:1035B000009709F489C02091BA0431E030934604A1
:1035C000209345041092440410924304DC01ED91D1
:1035D000FC910190F081E02D60E40995FF24F394C3
:1035E000EE24E3948091B6049091B7040C171D0764
:1035F00009F442C0BFE1BF15D0F40E94B716809114
:10360000B6049091B7042091BA04E0924604209346
:1036100045041092440410924304DC01ED91FC91A6
:103620000190F081E02D60E40995FF24F3948091EE
:10363000B6049091B7046991DC01ED91FC91019081
:10364000F081E02D0995F394CDCF8091B404909151
:10365000B504892B31F08091CE049091CF040E9463
:10366000821AE091C804F091C90490818091CD0440
:103670008095892380836ECF0E94B7168091B6040F
:103680009091B704892B09F460C02091D404309143
:10369000D5044091D6045091D70460E074E284EFE1
:1036A00090E00E94622E205131094109510956953E
:1036B0004795379527952093B800DF91CF911F91BB
:1036C0000F91FF90EF900895E091C604F091C70428
:1036D00080819091CC04892B80830C171D0771F297
:1036E00089912091B4043091B504232B19F00E94E4
:1036F0006B19F3CF28E030E040E8E091C204F0918C
:10370000C3049091CA04582F5423D9F05081952BAB
:103710009083E091C404F091C50490815091CB0452
:10372000952B9083E091C404F091C5045081909151
:10373000CB04909595239083469521503109E9F665
:10374000CCCF508190959523E3CFE091C804F091C0
:10375000C90480819091CD04892B8083AECF1F93C3
:10376000CF93DF93EC01162F8C8D9D8D892BB1F1BA
:103770002EA93FA948AD59AD60E074E284EF90E016
:103780000E94622E205131094109510956954795F1
:10379000379527952093B80066EA111167EACE01A4
:1037A0000E94201A8C8D9D8D892B41F12AAD3BAD55
:1037B0004CAD5DAD60E074E284EF90E00E94622E5B
:1037C000205131094109510956954795379527955B
:1037D0002093B800DF91CF911F9108958A8D9B8D22
:1037E000892B21F08CA99DA90E94821AEEA5FFA524
:1037F00090818BA9809589238083CECFEEA5FFA5EC
:1038000080819BA9892B8083E5CF089590E080E09B
:103810000895DC01FB011A968C911A9781112EC034
:10382000828581112BC0808191814D915C9111978E
:1038300012962D913C911397240F351F82179307F1
:10384000ECF422813381820F931F48175907B4F497
:103850008481958114964D915C91159716962D91C2
:103860003C91240F351F8217930744F4268137813A
:10387000280F391F81E0421753070CF080E00895AC
:10388000CF93C2E36FE770E08AE00E94970E61E099
:1038900070E080E090E00E945C0F6FEF70E08AE0E3
:1038A0000E94970EC15071F744E650E060E070E06E
:1038B00082E390E0CF910C94740CCF93C0914704B5
:1038C00090E080E00E941A2EC81729F06C2F90E03B
:1038D00080E00E94222EC091480481E090E00E9486
:1038E0001A2EC81729F06C2F81E090E00E94222E3A
:1038F00087E494E0CF9108952091A0043091A10431
:10390000C901079697FD079623E0959587952A9517
:10391000E1F720919E0430919F04829FA001839F34
:10392000500D929F500D112470E060E08091B8041A
:103930009091B9040C9431318F929F92AF92BF92C3
:103940000F931F93CF93DF93CDB7DEB7A1970FB639
:10395000F894DEBF0FBECDBF19A2423008F44AE092
:103960008E010F5D1F4F842E912CB12CA12CA5012F
:1039700094010E94622EE62FB901CA01EA3044F593
:10398000E05DD801EE938D01232B242B252B79F7B5
:1039900090E080E0109769F0FD0101900020E9F7C8
:1039A0003197AF014A1B5B0BBD018AE994E00E948D
:1039B000710BA1960FB6F894DEBF0FBECDBFDF919D
:1039C000CF911F910F91BF90AF909F908F900895CE
:1039D000E95CD7CFFC0101900020E9F73197AF01F6
:1039E000481B590BBC018AE994E00C94710BFF92BF
:1039F0000F931F93CF93DF93EC01F62EFC01019000
:103A00000020E9F73197E81BF90B0AE914E086E09A
:103A10008E9FB0018F9F700D11247695679590E071
:103A200080E00E943B2F9B01AC0160E070E080E8E9
:103A300092E40E94932E0E94052FF80175876487F7
:103A40006F2D70E077876687CE01DF91CF911F9150
:103A50000F91FF900C94EA1C4F925F926F927F92AD
:103A6000AF92BF92CF92DF92EF92FF920F931F938C
:103A7000CF93DF9389E190E0909304048093030453
:103A800088E090E0909306048093050488E190E03C
:103A9000909308048093070480E190E090930A04D7
:103AA0008093090481E090E090930C0480930B04D0
:103AB00010920D0483E080930E0410922003109264
:103AC00016041092150484E690E0909314048093F9
:103AD000130484EF91E090931104809310041092EA
:103AE0000F0481E0809312048093040110921F035D
:103AF00010920204E4E9F3E082E094E0A8E0B0E090
:103B000062E070E046E050E022E0B383A283778376
:103B100066835187408722873B968E179F07A9F7B8
:103B200010929303C5E2D3E080E8A82EB12C00E107
:103B300010E092E3492E512C612C712C24E0C22E0E
:103B4000D12CE12CF12CB982A8821B830A830E941C
:103B5000C22DA30192010E94302E685F7F4F8F4FCC
:103B60009F4F7D836C831F830E830E94C22DA7010C
:103B700096010E94302E6F5F7F4F8F4F9F4F798746
:103B800068871A862B9683E0C339D807E1F6DF9160
:103B9000CF911F910F91FF90EF90DF90CF90BF904A
:103BA000AF907F906F905F904F9008950E942C315E
:103BB0001F920F920FB60F9211248F939F938091B3
:103BC000E1009091E100937F9093E10083FF0FC0AB
:103BD0001092E90091E09093EB001092EC0092E3D8
:103BE0009093ED0010922C0498E09093F00082FFE7
:103BF00022C093E09093E9009091F200992319F08C
:103C00009AE39093E80090911D04992341F09091DC
:103C10001D04915090931D04911101C05D9A9091E3
:103C20002B04992341F090912B04915090932B04F5
:103C3000911101C0289A84FF18C08091E2008E7E05
:103C400081608093E2008091E1008F7E8093E100AB
:103C500080911E048E7E806180931E049F918F91BF
:103C60000F900FBE0F901F90189580FFF7CF809197
:103C7000E2008E7E80618093E2008091E1008E7E82
:103C80008093E10080911E048E7E8160E5CF1F92BB
:103C90000F920FB60F921124CF92DF92EF92FF9204
:103CA0000F931F932F933F934F935F936F937F9344
:103CB0008F939F93AF93BF93EF93FF93CF93DF9334
:103CC000CDB7DEB76C97DEBFCDBF1092E900809113
:103CD000E80083FF25C068E0CE0145960E94640B92
:103CE00082EF8093E8008D8987FF39C09091E800CA
:103CF00090FFFCCF982F907609F034C19E894F89B0
:103D0000588D2F89F88C911131C0803861F58091E0
:103D10001C048093F1001092F1008EEF8093E80074
:103D20006C960FB6F894DEBF0FBECDBFDF91CF917A
:103D3000FF91EF91BF91AF919F918F917F916F9183
:103D40005F914F913F912F911F910F91FF90EF90B5
:103D5000DF90CF900F900FBE0F901F9018959EEFA1
:103D60009093E800C7CF1092F100D5CF913059F46D
:103D70008111D3CF4130510581F680911C048D7F94
:103D800080931C04CACF933049F48111C6CF4130CF
:103D9000510519F680911C048260F2CF953041F4F0
:103DA0008091E80080FFFCCF20682093E300B5CF2E
:103DB000963009F0A9C00B8D1C8D22E01092E9000D
:103DC00010921A0410921904F2122EC010921804C4
:103DD000109217040E94330B1F8299E09983FA8294
:103DE00091E09E8390EA98879AEF99872091190431
:103DF00030911A04275F3F4F3C832B838D831092B1
:103E0000E90010921A0410921904109318040093F8
:103E1000170449E050E0BE016F5F7F4F80E00E94D1
:103E20000D0B0E94330B79CF1093180400931704E5
:103E30000E944A0ADC0112960D911C910115110590
:103E400009F451C1D801ED91FC910480F581E02D78
:103E5000BE016B5E7F4FC8010995009709F03EC116
:103E6000F80100851185EACFF3E0FF120EC08F89BB
:103E7000882309F440C0823061F440E860E181E6C3
:103E800093E10E943D22811148CF81E28093EB00B3
:103E900047CF813029F440E86BE085E593E1F1CF2D
:103EA000833099F70E944A0ADC011296ED90FC904B
:103EB0008E010F5F1F4F6801E114F10479F0D70103
:103EC000ED91FC910680F781E02DB801C7010995BD
:103ED000080F111DF701E084F184EECFD8011C9288
:103EE000F60101900020E9F73197BF016C197D09B7
:103EF00040E0C601C6CF6FE373E1FB01449150E09F
:103F000080E80E940D0B09CF973009F4BECF98309E
:103F100021F481E08093F10000CF993009F0FDCECB
:103F2000837009F0B2CFEDE1F1E081E031E096E39A
:103F30002191222371F08093E9003093EB00DF019F
:103F400011972C912093EC009093ED008F5F8730B8
:103F500079F78EE78093EA001092EA008F898093C8
:103F60002C04DBCE8B8D9C8D1092E90010921A04EC
:103F7000109219049093180480931704898D81116D
:103F800092C08E899D89913A49F4813209F07DCFA2
:103F900047E050E069E071E080E0B3CF913209F092
:103FA00074CF833269F48F89988DB0E0A0E080935C
:103FB000050190930601A0930701B0930801ADCECF
:103FC000803269F48091E80082FFFCCF67E089E0ED
:103FD00091E00E94640B8BEF8093E8009ECE8232CA
:103FE00009F09BCE8F8980931001EEEFFFE785915A
:103FF00094918B3F9C4D51F1E0E0F8E080910901F4
:1040000090910A01A0910B01B0910C01803B94406A
:10401000A105B105F1F48091100180FD1AC0EE3FB9
:104020008AE0F80789F587E797E791838083809195
:10403000600080931B0488E19BE00FB6F894A8957C
:10404000809360000FBE9093600067CEEEEFFAE0C1
:10405000D5CF808191818737974709F05ECEA895AB
:104060008091600088618093600080911B04809340
:104070006000EE3F2AE0F20789F08091FE0A9091FD
:10408000FF0A9183808349CE808191818737980789
:1040900051F29093FF0A8093FE0AC5CF1092FF0A57
:1040A0001092FE0A3ACE0E944A0ADC0112960D9145
:1040B0001C910115110509F4E8CED801ED91FC9190
:1040C0000190F081E02DBE016B5E7F4FC801099524
:1040D000811123CEF80100851185EBCF1816190642
:1040E0000CF41BCED2CEF1E0FF12BECE63E473E13E
:1040F00004CF1F920F920FB60F9211248F939F93AC
:10410000AF93BF93EF93FF9380913704909138045E
:10411000A0913904B0913A04892B8A2B8B2BA1F101
:1041200090912E04E0912F04F09130048081892732
:1041300080838091370490913804A0913904B09124
:104140003A04181619061A061B069CF480913704C7
:1041500090913804A0913904B0913A040197A109D3
:10416000B1098093370490933804A0933904B09335
:104170003A04FF91EF91BF91AF919F918F910F9072
:104180000FBE0F901F901895809171008D7F8093C6
:10419000710080912E04E0912F04F0913004908101
:1041A000809589238083E5CF1F920F920FB60F92DF
:1041B00011242F933F938F939F93AF93BF9380913D
:1041C0000D0390910E03A0910F03B0911003309155
:1041D0000C0323E0230F2D3758F50196A11DB11DC7
:1041E00020930C0380930D0390930E03A0930F0371
:1041F000B09310038091110390911203A0911303C7
:10420000B09114030196A11DB11D809311039093E9
:104210001203A0931303B0931403BF91AF919F9126
:104220008F913F912F910F900FBE0F901F90189577
:1042300026E8230F0296A11DB11DD2CF1F920F9227
:104240000FB60F9211242F933F934F935F936F9369
:104250007F938F939F93AF93BF93EF93FF9380913F
:10426000B900887F803609F44AC0F0F5883209F435
:10427000A7C018F5803109F49BC0B8F4882309F46D
:10428000F9C0883009F494C0FF91EF91BF91AF91CC
:104290009F918F917F916F915F914F913F912F915E
:1042A0000F900FBE0F901F901895883109F488C0A9
:1042B000803251F78093E80214C0803409F49DC025
:1042C00040F48033B9F38833F9F68093E80285EC43
:1042D000B0C0803509F485C0883509F496C08834AB
:1042E00099F60E940116D0CF883909F48CC038F5B0
:1042F000883729F050F4883611F0803729F683E0AA
:1043000080931C031092E70257C0883809F47BC0E1
:10431000803919F0803809F0B7CF8091E7028032F8
:1043200008F071C0E091E70281E08E0F8093E70210
:104330008091BB00F0E0E953FD4F80833DC0803B9E
:1043400039F0E0F4803A09F479C0883A09F09CCF5A
:1043500084E080931C031092C6021092C502E09183
:104360001803F091190309958091C50281110FC0BE
:1043700081E08093C5021092A50209C0803C09F437
:10438000A6CF883C09F4A3CF883B09F07DCFE0910C
:10439000C60281E08E0F8093C602F0E0EB55FD4F20
:1043A00080818093BB009091C6028091C50229C094
:1043B00080910B038093BB0085EC8093BC0064CF9D
:1043C00090910A0380910903981758F5E0910A0328
:1043D00081E08E0F80930A03F0E0E751FD4F80816A
:1043E000E9CFE0910A0381E08E0F80930A03809168
:1043F000BB00F0E0E751FD4F808390910A0380916C
:1044000009039817C8F285E8D8CFE0910A0381E044
:104410008E0F80930A038091BB00F0E0E751FD4FBF
:10442000808380911B0381115CCF81E080931A030C
:1044300084EA8093BC0010921C0326CF85EC809305
:10444000BC0010921C038091E702803230F4E091AE
:10445000E702F0E0E953FD4F10826091E70270E05F
:10446000E0911603F091170387EC92E00995109202
:10447000E7020ACF1092E80234CFEF92FF920F9337
:104480001F93CF93DF93F82E192FE62E042F81E090
:10449000860F880F0E94DF0A83E00E94DF0ACF2D7B
:1044A000D12FEC0EFD2EF11CCE15DF05B9F007FF64
:1044B00013C0FE0184910E94DF0A182F80E00E9441
:1044C000DF0A812321968111EFCFDF91CF911F91D8
:1044D0000F91FF90EF9008958881EDCF81E0F5CFA7
:1044E000E9E4F4E01382128288EE93E0A0E0B0E009
:1044F00084839583A683B78387E291E09183808349
:104500002FEF3FEF35872487EAE9F4E01382128228
:1045100040E850E05583448380E490E097838683AD
:104520005187408793878287158A15861486178658
:10453000168681E0848B338B228B318B208B868B8C
:10454000178A118E108E29E331E03183208329E907
:1045500034E0338F228F158E148E178E168E9FEFB8
:1045600093A394A394E095A39CE096A396E097A3CD
:1045700090E594AB85AB0895CF93DF93CDB7DEB7CD
:1045800065970FB6F894DEBF0FBECDBF789484B5A3
:10459000826084BD84B5816084BD85B5826085BD3F
:1045A00085B5816085BD80916E00816080936E00CD
:1045B00010928100809181008260809381008091BF
:1045C0008100816080938100809180008160809370
:1045D0008000809191008260809391008091910091
:1045E0008160809391008091900081608093900021
:1045F0008091C10084608093C1008091C10082607D
:104600008093C1008091C10081608093C10080913E
:10461000C30081608093C3008091C000826080935A
:10462000C0008091C20081608093C20080917A00B6
:10463000846080937A0080917A00826080937A000F
:1046400080917A00816080937A0080917A008068FE
:1046500080937A0010922C0410921C0410921E0475
:104660008091D70081608093D70080EA8093D80042
:1046700089B5806189BD89B5826089BD09B400FEB4
:10468000FDCF61E070E080E090E00E945C0F8091DF
:10469000D8008F7C80618093D8008091E000807F7B
:1046A0008093E0008091E1008E7E8093E1008DE0B8
:1046B0008093E200559A209A8091B8049091B904B1
:1046C000892B39F10E947C1C8091A0049091A10457
:1046D00060919E0470919F04813291050CF0CCC2D0
:1046E000AC014052510957FF02C04F5F5F4F5595D3
:1046F00047956357710977FF02C06F5F7F4F7595CC
:104700006795F0E2EF2EF12C03E710E023E136E0AD
:10471000CBC22091A0043091A104C901079697FD56
:10472000079623E0959587952A95E1F720919E04B9
:1047300030919F04AC01429FC001439F900D529F56
:10474000900D11240E9407309093B9048093B8040F
:10475000892B09F0B7CF81E08093AE0481E090E02F
:104760009093AD048093AC049093AB048093AA041F
:1047700062E082E10E94430C62E083E10E94430C0C
:1047800062E084E10E94430C62E085E10E94430CF8
:1047900062E086E10E94430C62E087E00E94430CE5
:1047A00062E088E00E94430C61E08AE00E94430CD2
:1047B00061E08BE00E94430C61E085E00E94430CC5
:1047C0006FEF70E089E00E94970E6FEF70E08AE073
:1047D0000E94970E6FEF70E08BE00E94970E0E9490
:1047E0002C1D90E080E00E941A2E8093470481E007
:1047F00090E00E941A2E8093480480914704909183
:104800004804019631F410924804109247040E9423
:104810005D1CCE0101961C01CC24C394D12C809147
:104820000401882309F459C0B9E09B2E12E0612EDF
:1048300008E210E08AE0E82EF12C94E1A92EB12CD8
:1048400088248394A9E17A2E0E947C1C6092AE0495
:10485000D092AD04C092AC04D092AB04C092AA0432
:104860001093A7040093A604F092A904E092A80470
:1048700081E691E00E94EA1CB092A704A092A604EF
:104880001093A9040093A80486E691E00E94EA1C14
:104890000E94851A8092AE046FED70E0892D0E940F
:1048A000970E64E670E080E090E00E945C0F88E084
:1048B0000E94EC0B8111FAC36FEF70E089E00E9457
:1048C000970E6FEF70E08AE00E94970E6FEF70E036
:1048D0008BE00E94970E10920401209113043091F6
:1048E00014048091150490911604B9010E94ED2FD3
:1048F000892B09F0DBC080911204882309F4D6C00B
:10490000809120038F5F8B3008F08BC4809320034D
:10491000809102048F5F8B3008F085C4809302047D
:10492000809193038F5F8B3008F07FC48093930353
:104930001092120410912003123008F478C4220F50
:10494000331F30931404209313049AE0492E29E076
:10495000522E0DE210E03AE0E32EF12C40E4642EFA
:10496000712C58E2A52EB12C6CE3862E912C0E945E
:104970007C1CA2E0A093AE04D092AD04C092AC0423
:10498000D092AB04C092AA041093A7040093A6048B
:10499000F092A904E092A80488EE91E00E94EA1C3B
:1049A0007092A7046092A604B092A904A092A804F1
:1049B0006091200370E090E080E04AE00E949C1C3F
:1049C0000E94851AB1E0B093AE046FED70E0852DC2
:1049D0000E94970E64E670E080E090E00E945C0F19
:1049E0006FEF70E089E00E94970E6FEF70E08AE051
:1049F0000E94970E6FEF70E08BE00E94970E0E946E
:104A00007C1CE2E0E093AE0461E070E08AE994E0AF
:104A10000E94DE131092AD041092AC041092AB040D
:104A20001092AA041093A7040093A604F092A9047C
:104A3000E092A80488EE91E00E94EA1C9092A704FC
:104A40008092A604B092A904A092A80460912003C9
:104A500070E090E080E04AE00E949C1C0E94851A71
:104A6000F1E0F093AE046FEF70E0852D0E94970E99
:104A700064E670E080E090E00E945C0F53942BE0CD
:104A8000251510F489E0582E6FEF70E089E00E9440
:104A9000970E6FEF70E08AE00E94970E6FEF70E064
:104AA0008BE00E94970E4A94411061CF80911504CB
:104AB0009091160460911004709111040E94ED2FE2
:104AC000892B51F580910F04882331F102E319E01D
:104AD0006FE770E0812F0E94970E61E070E080E048
:104AE00090E00E945C0F6FEF70E0812F0E94970EA4
:104AF0004AE050E060E070E088EC90E00E94740CC6
:104B00001F5F1C3029F7015011F780910E048F5F51
:104B100080930E0410920F0480910D04823071F482
:104B200089E190E0909304048093030488E190E08D
:104B3000909308048093070410920D0482E10E9470
:104B4000EC0B892B69F48091070490910804049779
:104B5000883091050CF48FC3909308048093070468
:104B600085E10E94EC0B892B69F4809107049091F8
:104B700008040496813391050CF080C390930804D7
:104B80008093070484E10E94EC0B892B59F48091F7
:104B9000030490910404049797FD73C39093040455
:104BA0008093030483E10E94EC0B892B69F48091CC
:104BB0000304909104040496813891050CF064C3B9
:104BC000909304048093030487E00E94EC0B1091FF
:104BD0000204892BD9F580911F033BE0839FF001EC
:104BE0001124EC56FC4F9285923081F5128620916B
:104BF0000304309104043183208320910704309111
:104C00000804285F3F4F358324838F5F811708F0A6
:104C100040C380931F0302E36FE770E08BE00E94C4
:104C2000970E61E070E080E090E00E945C0F6FEF13
:104C300070E08BE00E94970E015071F744E650E05F
:104C400060E070E08EEE92E00E94740CE4E9F3E024
:104C500020E032E0211709F41FC38285811109C0C9
:104C600080819181069691838083813891050CF033
:104C700032872F5F3B96EECFAC014054510957FF6E
:104C800002C04F5F5F4F559547956255710977FF99
:104C900002C06F5F7F4F7595679510E4E12EF12C90
:104CA00002E510E023EF37E08AE994E00E94E11486
:104CB00082E08093BB048091B6049091B704892B65
:104CC00009F4E9C08091A0049091A104809709F0B3
:104CD000E0C08CE38093BA0410921E0310921D036F
:104CE000109244041092430410921C0381E08093BC
:104CF0001B0310921A0361E082E00E94150C61E030
:104D000083E00E94150C8091B9008E7F8093B900DA
:104D10008091B9008D7F8093B90088E48093B800BA
:104D200085E48093BC008EE99BE090931903809307
:104D300018038FE99BE090931703809316038091EB
:104D4000C10487FD1EC061E00E94430C61E08091B8
:104D5000C1040E94150C61E070E080E090E00E94C8
:104D60005C0F60E08091C1040E94150C6AE070E065
:104D700080E090E00E945C0F61E08091C1040E949D
:104D8000150C8091B6049091B704892B09F442C1A7
:104D90002091D0043091D1044091D2045091D30499
:104DA00060E074E284EF90E00E94622E20513109AD
:104DB0004109510956954795379527952093B80095
:104DC00064E08FE096E00E9472196091A004615047
:104DD0008AE994E00E94201A64E08BE096E00E9449
:104DE00072198091BB0460E1813009F064E18AE9C5
:104DF00094E00E94201A64E087E096E00E94721915
:104E000080919E0490919F048038910509F02DC1F6
:104E10008091A0049091A1048032910509F011C104
:104E200064E083E096E00E94721969ED8AE994E0FB
:104E30000E94201A8091BB0462E2813009F061EF88
:104E40008AE994E00E94201A66E087EF95E00E94CC
:104E500072198091B6049091B704892B09F41CC192
:104E60002091D4043091D5044091D6045091D704B8
:104E700060E074E284EF90E00E94622E20513109DC
:104E80004109510956954795379527952093B800C4
:104E900062CC8DE31FCF61E08091BF040E94430C80
:104EA00061E08091C0040E94430C8091BF04082EF1
:104EB000000C990BFC01EC55FC4EE491F0E0EE0F78
:104EC000FF1FEA56FC4E259134913093C70420937E
:104ED000C604FC01E958FC4EE491E093CC048091B7
:104EE000C004082E000C990BFC01EC55FC4EE4911B
:104EF000F0E0EE0FFF1FEA56FC4EA591B491B0937F
:104F0000C904A093C804FC01E958FC4EE491E09365
:104F1000CD048C91E82BEC938091B4049091B5046E
:104F2000892B09F434C01FB7F894809115038111BF
:104F300027C0E5EBF3E18491E8E8F3E19491E82FF1
:104F4000F0E0EE0FFF1FE751FA4FA591B491EC91FD
:104F5000E92321F461E081E10E94150C61E081E127
:104F60000E94430C8CB580618CBD8CB580648CBD77
:104F700061E08FE00E94430C61E080E10E94430CFD
:104F8000809115038F5F809315031FBFD8CE61E01A
:104F90008091BD040E94430C61E08091BE040E9498
:104FA000430C8091BD04082E000C990BFC01EC55BC
:104FB000FC4EE491F0E0EE0FFF1FEA56FC4E259107
:104FC00034913093C3042093C204FC01E958FC4E91
:104FD000E491E093CA048091BE04082E000C990B62
:104FE000FC01EC55FC4EE491F0E0EE0FFF1FEA5699
:104FF000FC4EA591B491B093C504A093C404FC01E8
:10500000E958FC4EE491E093CB048C91E095E823C1
:10501000EC9395CE8091B4049091B504892B31F036
:105020008091CE049091CF040E94821AE091C8042E
:10503000F091C90490818091CD048095892380836B
:10504000BFCE8034910509F0F0CE63E080E096E0B9
:105050000E9472198091BB046FE9813009F06FECF6
:105060008AE994E00E94201AE0CE8036910509F08A
:10507000DCCE8091A0049091A104409709F0D5CE98
:1050800063E08DEF95E00E9472198091BB0460E1AE
:10509000813031F36FEAE4CFE091C804F091C904A4
:1050A00080819091CD04892B808355CB0E947C1CFC
:1050B0006092AE0461E070E08AE994E00E94DE1341
:1050C0001092AD041092AC041092AB041092AA049A
:1050D0001093A7040093A604F092A904E092A804F8
:1050E00081E691E00E94EA1CB092A704A092A60477
:1050F0001093A9040093A80486E691E00E94EA1C9C
:105100000E94851A8092AE046FEF70E0892D0E9494
:10511000970E64E670E080E090E00E945C0F93944C
:105120009BE0991510F4F9E09F2E88E00E94EC0BAB
:10513000882309F4C1CB7A94711086CBE9E17E2EE5
:105140000E947C1CD092AD04C092AC04D092AB04FF
:10515000C092AA048092AE0464E08FE691E00E94BF
:10516000F71C60E18DE791E00E94F71C6CE18CE890
:1051700091E00E94F71C66E280EA91E00E94F71C31
:1051800064E381EB91E00E94F71C0E94851A6FEDA9
:1051900070E089E00E94970E6FED70E08AE00E9457
:1051A000970E6FED70E08BE00E94970E64E670E062
:1051B00080E090E00E945C0F88E00E94EC0B81117F
:1051C00010C06FEF70E089E00E94970E6FEF70E003
:1051D0008AE00E94970E6FEF70E08BE00E94970EBE
:1051E0006BCB0E94851A6FEF70E089E00E94970EEA
:1051F0006FEF70E08AE00E94970E6FEF70E08BE037
:105200000E94970E64E670E080E090E00E945C0FE0
:1052100088E00E94EC0B8823A1F27A94711090CF61
:1052200011CB8AE073CB8AE079CB8AE07FCB113057
:1052300009F08BCB0E947C1CD092AD04C092AC04D0
:10524000D092AB04C092AA041093AE0469E186EC3C
:1052500091E00E94F71C68E285ED91E00E94F71C46
:105260000E94851A68EB7BE080E090E00E945C0F72
:105270000E947C1C6ACB88E090E06ECC80E390E0DA
:105280007DCC80E890E08ACC109204041092030454
:105290009BCC10921F03BFCCF12CFBE0EF2EA0E8BB
:1052A000AA2EB12CB2E07B2E6624639490909303D7
:1052B000F91408F1E5E2EE2EE3E0FE2E00E0BB2457
:1052C000B39410910E04091509F498C0B70183E056
:1052D00094E00E94091C882349F0B0920D041150FB
:1052E00010930E04F701B2860E94401C0F5FFBE092
:1052F000EF0EF11CE6CF8F2C912CE89C8001E99CED
:10530000100D11240B5D1C4FD8011A968C911A9721
:10531000823021F5AD92BC920E94C22D28E230E08D
:1053200040E050E00E94302E685F7F4F8F4F9F4FCC
:10533000F801758364830E94C22D24E030E040E0D0
:1053400050E00E94302E6F5F7F4F8F4F9F4FD801EC
:1053500019967C936E9318971A961C92E89CF0010C
:10536000E99CF00D1124EB5DFC4F8285813009F43E
:105370007286E89C8001E99C100D11240B5D1C4F86
:10538000F801828581110AC0808191812085318553
:10539000821B930B97FD04C091838083F39486CF87
:1053A000B182A0820E94C22D28E230E040E050E0AD
:1053B0000E94302E685F7F4F8F4F9F4FF80175839B
:1053C00064830E94C22D24E030E040E050E00E945F
:1053D000302E6F5F7F4F8F4F9F4FD80119967C9370
:1053E0006E9318971A967C9260920D0480910E0429
:1053F000815080930E040E94401CD0CF00E06624B0
:10540000639480910204081708F058C02BE0029FB3
:10541000C0011124AC014C565C4F5A0175E2E72ED5
:1054200073E0F72E812C2A015AE0450E511C891495
:1054300009F442C0B701C5010E94091C8823B9F1D3
:105440008091150490911604E2E0D201EC93E1E022
:10545000D7011A96EC930A9690931604809315043C
:105460001B3014F460920F04809120038A3010F4F2
:105470006092120462E3762E6FE770E089E00E948A
:10548000970E61E070E080E090E00E945C0F6FEFAB
:1054900070E089E00E94970E7A947110EDCF44E697
:1054A00050E060E070E082E390E00E94740C83942E
:1054B000FBE0EF0EF11CBBCF0F5FA3CF17FFE6C0E1
:1054C000009115041091160464EF71E080E090E003
:1054D0000E945C0F809147049091480480179107C7
:1054E00030F410934804009347040E945D1C772415
:1054F00073943EE1832E912C4CE1A42EB12C53E207
:10550000E52EF12C0CE210E00E947C1C7092AE049F
:10551000D092AD04C092AC04D092AB04C092AA0465
:105520006CE08DEE91E00E94F71C9092A7048092AF
:10553000A604B092A904A092A80487EF91E00E946B
:10554000EA1C609115047091160490E080E04AE036
:105550000E949C1CF092A704E092A6041093A90458
:105560000093A8048FEF91E00E94EA1C6091470429
:105570007091480490E080E04AE00E949C1C0E94E8
:10558000851A88E00E94EC0B8111BECF10E07724D1
:10559000739484E1E82EF12C9AE0A92EB12C28E234
:1055A000822E912C86E10E94EC0B84E10E94EC0B90
:1055B000082F83E10E94EC0B002309F434C28823F6
:1055C00009F433C2113009F030C2D092AD04C09258
:1055D000AC04D092AB04C092AA047092AE042CE04A
:1055E00030E03093A7042093A6041092A9041092EF
:1055F000A80486E092E00E94EA1C40E250E050934A
:10560000A7044093A604F092A904E092A80488E1BC
:1056100092E00E94EA1C01E010E021E130E04EE15E
:1056200050E060E270E08AE994E00E947418B09261
:10563000A704A092A6049092A9048092A80483E2F1
:1056400092E00E94EA1C8CE090E09093A704809383
:10565000A604A6E3B0E0B093A904A093A80486E34F
:1056600092E00E94EA1C0E94851A1092480410924F
:1056700047040E945D1C11E086E10E94EC0B082F9C
:105680000E947C1C01118ECF0E942C1D0E947C1C4C
:105690001092A7041092A6041092A9041092A804D4
:1056A00081E08093AE04D092AD04C092AC04D0925D
:1056B000AB04C092AA0480911504909116048A301C
:1056C000910580F49F938F9388E492E09F938F934A
:1056D0003F922F920E9438310F900F900F900F90B1
:1056E0000F900F9080911504909116049C012A5000
:1056F00031092A35310580F49F938F9389E492E034
:105700009F938F933F922F920E9438310F900F906A
:105710000F900F900F900F908091150490911604A8
:105720009C01245631092438334080F49F938F9391
:105730008AE492E09F938F933F922F920E94383198
:105740000F900F900F900F900F900F908091150475
:1057500090911604883EB3E09B0780F09F938F934F
:105760008BE492E09F938F933F922F920E94383167
:105770000F900F900F900F900F900F908091150445
:10578000909116048031E7E29E0780F09F938F93FB
:105790008CE492E09F938F933F922F920E94383136
:1057A0000F900F900F900F900F900F90C1010E94DB
:1057B000EA1CB12C06E0A02E80910E04082E000CED
:1057C000990BB816190694F4BA9CB001112418E08C
:1057D000E12EF12C04E010E025EF32E150E040E052
:1057E0008AE994E00E94E114B394E6CF80910D041D
:1057F000811113C040910704509108046091030483
:1058000070910404B0E1EB2EF12C08E010E025EEDD
:1058100032E18AE994E00E94E11480910D04813024
:10582000B1F4409107045091080460910304709111
:105830000404A8E0EA2EF12C00E110E025ED32E1AD
:105840008AE994E00E94E11482E080930D04B12C77
:10585000FBE0AF2E80910204B816C8F4AB9CF001B7
:105860001124EC56FC4F828581110FC04481558173
:1058700060817181E2E0EE2EF12C08E010E023ED72
:1058800032E18AE994E00E94E114B394E3CF912CD1
:105890004BE0842E809193039816B0F5A92CB12C7F
:1058A0008A9CF0018B9CF00D1124EB5DFC4F8285EE
:1058B00081110FC0448155816081718130E1E32EF7
:1058C000F12C00E110E023EB32E18AE994E00E9440
:1058D000E1148A9CF0018B9CF00D1124EB5DFC4FD0
:1058E0008285813079F4448155816081718128E01D
:1058F000E22EF12C00E110E025ED32E18AE994E09E
:105900000E94E1149394C6CF609121037091220309
:1059100080912303909124030E94052F90E4E92EA7
:10592000F12C00E810E023EB3EE048E050E08AE98B
:1059300094E00E94E1142DEC3CEC4CEC5DE36091B2
:1059400021037091220380912303909124030E94EC
:10595000932E4B015C0120E030E04EEF52EC0E94B0
:10596000002F87FD4AC08092210390922203A092CB
:105970002303B09224036091000170910101809192
:105980000201909103010E94052F80E4E82EF12C82
:1059900000E810E023EB3AE048E050E08AE994E0C8
:1059A0000E94E1142DEC3CEC4CEC5DE360910001B5
:1059B0007091010180910201909103010E94932E48
:1059C0004B015C0120E030E0A9010E94002F87FD1F
:1059D0001DC08092000190920101A0920201B0923C
:1059E00003010E94851A80E090E0892B11F40C9449
:1059F0000F240E9400000C940C241092210310929A
:105A000022031092230310922403B5CF20E030E04C
:105A100040E053E4209300013093010140930201E0
:105A200050930301DECF8111D0CDD092AD04C0924E
:105A3000AC04D092AB04C092AA047092AE04ECE025
:105A4000F0E0F093A704E093A6041092A90410924A
:105A5000A80486E092E00E94EA1C20E230E0309345
:105A6000A7042093A604F092A904E092A80488E178
:105A700092E00E94EA1C01E010E02CE030E04EE1F0
:105A800050E06FE470E08AE994E00E947418B092EC
:105A9000A704A092A6049092A9048092A80483E28D
:105AA00092E00E94EA1C4CE050E05093A70440931F
:105AB000A60486E390E09093A9048093A80486E36B
:105AC00092E00E94EA1C0E94851A10E0D5CD89E37D
:105AD00091E090939B0480939A048091B8049091F4
